{
  "_format": "hh-sol-artifact-1",
  "contractName": "TokenLocker",
  "sourceName": "contracts/token/TokenLocker.sol",
  "abi": [
    {
      "inputs": [
        {
          "internalType": "address",
          "name": "_token",
          "type": "address"
        },
        {
          "internalType": "address",
          "name": "_receiver",
          "type": "address"
        },
        {
          "internalType": "uint256",
          "name": "_intervalSeconds",
          "type": "uint256"
        },
        {
          "internalType": "uint256",
          "name": "_releaseAmount",
          "type": "uint256"
        }
      ],
      "stateMutability": "nonpayable",
      "type": "constructor"
    },
    {
      "inputs": [],
      "name": "SECONDS_PER_BLOCK",
      "outputs": [
        {
          "internalType": "uint256",
          "name": "",
          "type": "uint256"
        }
      ],
      "stateMutability": "view",
      "type": "function"
    },
    {
      "inputs": [],
      "name": "claim",
      "outputs": [],
      "stateMutability": "nonpayable",
      "type": "function"
    },
    {
      "inputs": [],
      "name": "interval",
      "outputs": [
        {
          "internalType": "uint256",
          "name": "",
          "type": "uint256"
        }
      ],
      "stateMutability": "view",
      "type": "function"
    },
    {
      "inputs": [],
      "name": "lastReleaseAt",
      "outputs": [
        {
          "internalType": "uint256",
          "name": "",
          "type": "uint256"
        }
      ],
      "stateMutability": "view",
      "type": "function"
    },
    {
      "inputs": [],
      "name": "lockInfo",
      "outputs": [
        {
          "internalType": "uint256",
          "name": "amount",
          "type": "uint256"
        },
        {
          "internalType": "uint256",
          "name": "timestamp",
          "type": "uint256"
        }
      ],
      "stateMutability": "view",
      "type": "function"
    },
    {
      "inputs": [],
      "name": "receiver",
      "outputs": [
        {
          "internalType": "address",
          "name": "",
          "type": "address"
        }
      ],
      "stateMutability": "view",
      "type": "function"
    },
    {
      "inputs": [],
      "name": "releaseAmount",
      "outputs": [
        {
          "internalType": "uint256",
          "name": "",
          "type": "uint256"
        }
      ],
      "stateMutability": "view",
      "type": "function"
    },
    {
      "inputs": [],
      "name": "token",
      "outputs": [
        {
          "internalType": "contract IBEP20",
          "name": "",
          "type": "address"
        }
      ],
      "stateMutability": "view",
      "type": "function"
    },
    {
      "inputs": [],
      "name": "totalReleasedAmount",
      "outputs": [
        {
          "internalType": "uint256",
          "name": "",
          "type": "uint256"
        }
      ],
      "stateMutability": "view",
      "type": "function"
    }
  ],
  "bytecode": "0x6101006040523480156200001257600080fd5b5060405162000f3038038062000f30833981016040819052620000359162000344565b6001600160a01b038416620000815760405162461bcd60e51b815260206004820152600d60248201526c34b63632b3b0b6103a37b5b2b760991b60448201526064015b60405180910390fd5b6001600160601b0319606085811b821660805284901b1660a05260038211620000e05760405162461bcd60e51b815260206004820152601060248201526f1a5b1b1959d85b081a5b9d195c9d985b60821b604482015260640162000078565b60006200013160036200011d600162000109600388620001b760201b620002b01790919060201c565b6200022160201b6200031b1790919060201c565b6200026b60201b6200035d1790919060201c565b60c08190529050600062000152438362000221602090811b6200031b17901c565b6000819055905082620001a85760405162461bcd60e51b815260206004820152601560248201527f696c6c6567616c2072656c65617365416d6f756e740000000000000000000000604482015260640162000078565b505060e052506200044d915050565b600080620001c68385620003e1565b9050838110156200021a5760405162461bcd60e51b815260206004820152601b60248201527f536166654d6174683a206164646974696f6e206f766572666c6f770000000000604482015260640162000078565b9392505050565b60006200021a83836040518060400160405280601e81526020017f536166654d6174683a207375627472616374696f6e206f766572666c6f770000815250620002b560201b60201c565b60006200021a83836040518060400160405280601a81526020017f536166654d6174683a206469766973696f6e206279207a65726f000000000000815250620002f460201b60201c565b60008184841115620002dc5760405162461bcd60e51b81526004016200007891906200038b565b506000620002eb84866200041d565b95945050505050565b60008183620003185760405162461bcd60e51b81526004016200007891906200038b565b506000620002eb8486620003fc565b80516001600160a01b03811681146200033f57600080fd5b919050565b600080600080608085870312156200035a578384fd5b620003658562000327565b9350620003756020860162000327565b6040860151606090960151949790965092505050565b6000602080835283518082850152825b81811015620003b9578581018301518582016040015282016200039b565b81811115620003cb5783604083870101525b50601f01601f1916929092016040019392505050565b60008219821115620003f757620003f762000437565b500190565b6000826200041857634e487b7160e01b81526012600452602481fd5b500490565b60008282101562000432576200043262000437565b500390565b634e487b7160e01b600052601160045260246000fd5b60805160601c60a05160601c60c05160e051610a66620004ca6000396000818160e3015261041b01526000818160bc015281816101b201528181610277015281816103b401526103ee01526000818161012f0152610219015260008181610163015281816101f80152818161044501526104fc0152610a666000f3fe608060405234801561001057600080fd5b50600436106100835760003560e01c806345eab180146100885780634e71d92d146100a457806383273cd1146100ae578063947a36fb146100b7578063c062dc5f146100de578063c1d7425814610105578063db762bc91461010d578063f7260d3e1461012a578063fc0c546a1461015e575b600080fd5b61009160005481565b6040519081526020015b60405180910390f35b6100ac610185565b005b61009160015481565b6100917f000000000000000000000000000000000000000000000000000000000000000081565b6100917f000000000000000000000000000000000000000000000000000000000000000081565b610091600381565b610115610242565b6040805192835260208301919091520161009b565b6101517f000000000000000000000000000000000000000000000000000000000000000081565b60405161009b9190610935565b6101517f000000000000000000000000000000000000000000000000000000000000000081565b60008061019061039c565b9150915081600014806101a1575080155b156101aa575050565b6101e06101d77f00000000000000000000000000000000000000000000000000000000000000008361058e565b600054906102b0565b6000556001546101f090836102b0565b60015561023e7f00000000000000000000000000000000000000000000000000000000000000007f00000000000000000000000000000000000000000000000000000000000000008461060d565b5050565b60008061024d61039c565b509150816102ac576102a96102a2600361029c6102756000544361031b90919063ffffffff16565b7f00000000000000000000000000000000000000000000000000000000000000009061031b565b9061058e565b42906102b0565b90505b9091565b6000806102bd838561097c565b9050838110156103125760405162461bcd60e51b815260206004820152601b60248201527a536166654d6174683a206164646974696f6e206f766572666c6f7760281b60448201526064015b60405180910390fd5b90505b92915050565b600061031283836040518060400160405280601e81526020017f536166654d6174683a207375627472616374696f6e206f766572666c6f770000815250610664565b600061031283836040518060400160405280601a815260200179536166654d6174683a206469766973696f6e206279207a65726f60301b81525061069e565b600080548190439082906103b090836109d3565b90507f00000000000000000000000000000000000000000000000000000000000000008110156103e65750600093849350915050565b6000610412827f000000000000000000000000000000000000000000000000000000000000000061035d565b905060006104407f00000000000000000000000000000000000000000000000000000000000000008361058e565b9050807f00000000000000000000000000000000000000000000000000000000000000006001600160a01b03166370a08231306040518263ffffffff1660e01b815260040161048f9190610935565b60206040518083038186803b1580156104a757600080fd5b505afa1580156104bb573d6000803e3d6000fd5b505050506040513d601f19601f820116820180604052508101906104df9190610901565b1015610584576040516370a0823160e01b81526001600160a01b037f000000000000000000000000000000000000000000000000000000000000000016906370a0823190610531903090600401610935565b60206040518083038186803b15801561054957600080fd5b505afa15801561055d573d6000803e3d6000fd5b505050506040513d601f19601f820116820180604052508101906105819190610901565b90505b9590945092505050565b60008261059d57506000610315565b60006105a983856109b4565b9050826105b68583610994565b146103125760405162461bcd60e51b815260206004820152602160248201527f536166654d6174683a206d756c7469706c69636174696f6e206f766572666c6f6044820152607760f81b6064820152608401610309565b604080516001600160a01b038416602482015260448082018490528251808303909101815260649091019091526020810180516001600160e01b031663a9059cbb60e01b17905261065f9084906106cc565b505050565b600081848411156106885760405162461bcd60e51b81526004016103099190610949565b50600061069584866109d3565b95945050505050565b600081836106bf5760405162461bcd60e51b81526004016103099190610949565b5060006106958486610994565b6000610721826040518060400160405280602081526020017f5361666542455032303a206c6f772d6c6576656c2063616c6c206661696c6564815250856001600160a01b031661079e9092919063ffffffff16565b80519091501561065f578080602001905181019061073f91906108e1565b61065f5760405162461bcd60e51b815260206004820152602a60248201527f5361666542455032303a204245503230206f7065726174696f6e20646964206e6044820152691bdd081cdd58d8d9595960b21b6064820152608401610309565b60606107ad84846000856107b5565b949350505050565b60606107c0856108a8565b61080c5760405162461bcd60e51b815260206004820152601d60248201527f416464726573733a2063616c6c20746f206e6f6e2d636f6e74726163740000006044820152606401610309565b600080866001600160a01b031685876040516108289190610919565b60006040518083038185875af1925050503d8060008114610865576040519150601f19603f3d011682016040523d82523d6000602084013e61086a565b606091505b5091509150811561087e5791506107ad9050565b80511561088e5780518082602001fd5b8360405162461bcd60e51b81526004016103099190610949565b6000813f7fc5d2460186f7233c927e7db2dcc703c0e500b653ca82273b7bfad8045d85a4708181148015906107ad575050151592915050565b6000602082840312156108f2578081fd5b81518015158114610312578182fd5b600060208284031215610912578081fd5b5051919050565b6000825161092b8184602087016109ea565b9190910192915050565b6001600160a01b0391909116815260200190565b60208152600082518060208401526109688160408501602087016109ea565b601f01601f19169190910160400192915050565b6000821982111561098f5761098f610a1a565b500190565b6000826109af57634e487b7160e01b81526012600452602481fd5b500490565b60008160001904831182151516156109ce576109ce610a1a565b500290565b6000828210156109e5576109e5610a1a565b500390565b60005b83811015610a055781810151838201526020016109ed565b83811115610a14576000848401525b50505050565b634e487b7160e01b600052601160045260246000fdfea26469706673582212200978e49619615e86098df861820e0af8406d4d5b8cfbb8e247c9e91ee40dbedd64736f6c63430008040033",
  "linkReferences": {},
  "deployedLinkReferences": {}
}