{
  "_format": "hh-sol-artifact-1",
  "contractName": "TokenLocker",
  "sourceName": "contracts/token/TokenLocker.sol",
  "abi": [
    {
      "inputs": [
        {
          "internalType": "address",
          "name": "_token",
          "type": "address"
        },
        {
          "internalType": "address",
          "name": "_receiver",
          "type": "address"
        },
        {
          "internalType": "uint256",
          "name": "_intervalSeconds",
          "type": "uint256"
        },
        {
          "internalType": "uint256",
          "name": "_releaseAmount",
          "type": "uint256"
        }
      ],
      "stateMutability": "nonpayable",
      "type": "constructor"
    },
    {
      "inputs": [],
      "name": "SECONDS_PER_BLOCK",
      "outputs": [
        {
          "internalType": "uint256",
          "name": "",
          "type": "uint256"
        }
      ],
      "stateMutability": "view",
      "type": "function"
    },
    {
      "inputs": [],
      "name": "claim",
      "outputs": [],
      "stateMutability": "nonpayable",
      "type": "function"
    },
    {
      "inputs": [],
      "name": "interval",
      "outputs": [
        {
          "internalType": "uint256",
          "name": "",
          "type": "uint256"
        }
      ],
      "stateMutability": "view",
      "type": "function"
    },
    {
      "inputs": [],
      "name": "lastReleaseAt",
      "outputs": [
        {
          "internalType": "uint256",
          "name": "",
          "type": "uint256"
        }
      ],
      "stateMutability": "view",
      "type": "function"
    },
    {
      "inputs": [],
      "name": "lockInfo",
      "outputs": [
        {
          "internalType": "uint256",
          "name": "amount",
          "type": "uint256"
        },
        {
          "internalType": "uint256",
          "name": "timestamp",
          "type": "uint256"
        }
      ],
      "stateMutability": "view",
      "type": "function"
    },
    {
      "inputs": [],
      "name": "receiver",
      "outputs": [
        {
          "internalType": "address",
          "name": "",
          "type": "address"
        }
      ],
      "stateMutability": "view",
      "type": "function"
    },
    {
      "inputs": [],
      "name": "releaseAmount",
      "outputs": [
        {
          "internalType": "uint256",
          "name": "",
          "type": "uint256"
        }
      ],
      "stateMutability": "view",
      "type": "function"
    },
    {
      "inputs": [],
      "name": "token",
      "outputs": [
        {
          "internalType": "contract IBEP20",
          "name": "",
          "type": "address"
        }
      ],
      "stateMutability": "view",
      "type": "function"
    },
    {
      "inputs": [],
      "name": "totalReleasedAmount",
      "outputs": [
        {
          "internalType": "uint256",
          "name": "",
          "type": "uint256"
        }
      ],
      "stateMutability": "view",
      "type": "function"
    }
  ],
  "bytecode": "0x6101006040523480156200001257600080fd5b5060405162001abe38038062001abe83398181016040528101906200003891906200043f565b600073ffffffffffffffffffffffffffffffffffffffff168473ffffffffffffffffffffffffffffffffffffffff161415620000ab576040517f08c379a0000000000000000000000000000000000000000000000000000000008152600401620000a290620005ce565b60405180910390fd5b8373ffffffffffffffffffffffffffffffffffffffff1660808173ffffffffffffffffffffffffffffffffffffffff1660601b815250508273ffffffffffffffffffffffffffffffffffffffff1660a08173ffffffffffffffffffffffffffffffffffffffff1660601b81525050600382116200015f576040517f08c379a00000000000000000000000000000000000000000000000000000000081526004016200015690620005f0565b60405180910390fd5b6000620001b060036200019c6001620001886003886200023960201b620003921790919060201c565b6200029c60201b620003f01790919060201c565b620002ee60201b6200043a1790919060201c565b90508060c081815250506000620001d682436200029c60201b620003f01790919060201c565b9050806000819055506000831162000225576040517f08c379a00000000000000000000000000000000000000000000000000000000081526004016200021c9062000612565b60405180910390fd5b8260e08181525050505050505050620008db565b60008082846200024a919062000650565b90508381101562000292576040517f08c379a00000000000000000000000000000000000000000000000000000000081526004016200028990620005ac565b60405180910390fd5b8091505092915050565b6000620002e683836040518060400160405280601e81526020017f536166654d6174683a207375627472616374696f6e206f766572666c6f7700008152506200034060201b60201c565b905092915050565b60006200033883836040518060400160405280601a81526020017f536166654d6174683a206469766973696f6e206279207a65726f000000000000815250620003a960201b60201c565b905092915050565b60008383111582906200038b576040517f08c379a000000000000000000000000000000000000000000000000000000000815260040162000382919062000588565b60405180910390fd5b50600083856200039c9190620006e5565b9050809150509392505050565b60008083118290620003f3576040517f08c379a0000000000000000000000000000000000000000000000000000000008152600401620003ea919062000588565b60405180910390fd5b5060008385620004049190620006ad565b9050809150509392505050565b6000815190506200042281620008a7565b92915050565b6000815190506200043981620008c1565b92915050565b600080600080608085870312156200045657600080fd5b6000620004668782880162000411565b9450506020620004798782880162000411565b93505060406200048c8782880162000428565b92505060606200049f8782880162000428565b91505092959194509250565b6000620004b88262000634565b620004c481856200063f565b9350620004d68185602086016200075e565b620004e181620007f2565b840191505092915050565b6000620004fb601b836200063f565b9150620005088262000803565b602082019050919050565b600062000522600d836200063f565b91506200052f826200082c565b602082019050919050565b6000620005496010836200063f565b9150620005568262000855565b602082019050919050565b6000620005706015836200063f565b91506200057d826200087e565b602082019050919050565b60006020820190508181036000830152620005a48184620004ab565b905092915050565b60006020820190508181036000830152620005c781620004ec565b9050919050565b60006020820190508181036000830152620005e98162000513565b9050919050565b600060208201905081810360008301526200060b816200053a565b9050919050565b600060208201905081810360008301526200062d8162000561565b9050919050565b600081519050919050565b600082825260208201905092915050565b60006200065d8262000754565b91506200066a8362000754565b9250827fffffffffffffffffffffffffffffffffffffffffffffffffffffffffffffffff03821115620006a257620006a162000794565b5b828201905092915050565b6000620006ba8262000754565b9150620006c78362000754565b925082620006da57620006d9620007c3565b5b828204905092915050565b6000620006f28262000754565b9150620006ff8362000754565b92508282101562000715576200071462000794565b5b828203905092915050565b60006200072d8262000734565b9050919050565b600073ffffffffffffffffffffffffffffffffffffffff82169050919050565b6000819050919050565b60005b838110156200077e57808201518184015260208101905062000761565b838111156200078e576000848401525b50505050565b7f4e487b7100000000000000000000000000000000000000000000000000000000600052601160045260246000fd5b7f4e487b7100000000000000000000000000000000000000000000000000000000600052601260045260246000fd5b6000601f19601f8301169050919050565b7f536166654d6174683a206164646974696f6e206f766572666c6f770000000000600082015250565b7f696c6c6567616c20746f6b656e00000000000000000000000000000000000000600082015250565b7f696c6c6567616c20696e74657276616c00000000000000000000000000000000600082015250565b7f696c6c6567616c2072656c65617365416d6f756e740000000000000000000000600082015250565b620008b28162000720565b8114620008be57600080fd5b50565b620008cc8162000754565b8114620008d857600080fd5b50565b60805160601c60a05160601c60c05160e0516111646200095a6000396000818161029701526105120152600081816101bc01528181610273015281816102f90152818161049f01526104da015260008181610241015261034c015260008181610220015281816103700152818161054401526105f301526111646000f3fe608060405234801561001057600080fd5b50600436106100835760003560e01c806345eab180146100885780634e71d92d146100a657806383273cd1146100b0578063947a36fb146100ce578063c062dc5f146100ec578063c1d742581461010a578063db762bc914610128578063f7260d3e14610147578063fc0c546a14610165575b600080fd5b610090610183565b60405161009d9190610d77565b60405180910390f35b6100ae610189565b005b6100b861026b565b6040516100c59190610d77565b60405180910390f35b6100d6610271565b6040516100e39190610d77565b60405180910390f35b6100f4610295565b6040516101019190610d77565b60405180910390f35b6101126102b9565b60405161011f9190610d77565b60405180910390f35b6101306102be565b60405161013e929190610d92565b60405180910390f35b61014f61034a565b60405161015c9190610c76565b60405180910390f35b61016d61036e565b60405161017a9190610cba565b60405180910390f35b60005481565b600080610194610484565b9150915060008214806101a75750600081145b156101b3575050610269565b6101fa6101e9827f00000000000000000000000000000000000000000000000000000000000000006106ac90919063ffffffff16565b60005461039290919063ffffffff16565b6000819055506102158260015461039290919063ffffffff16565b6001819055506102667f00000000000000000000000000000000000000000000000000000000000000007f000000000000000000000000000000000000000000000000000000000000000084610727565b50505b565b60015481565b7f000000000000000000000000000000000000000000000000000000000000000081565b7f000000000000000000000000000000000000000000000000000000000000000081565b600381565b6000806102c9610484565b508092505060008214156103465761034361033460036103266102f7600054436103f090919063ffffffff16565b7f00000000000000000000000000000000000000000000000000000000000000006103f090919063ffffffff16565b6106ac90919063ffffffff16565b4261039290919063ffffffff16565b90505b9091565b7f000000000000000000000000000000000000000000000000000000000000000081565b7f000000000000000000000000000000000000000000000000000000000000000081565b60008082846103a19190610ded565b9050838110156103e6576040517f08c379a00000000000000000000000000000000000000000000000000000000081526004016103dd90610d17565b60405180910390fd5b8091505092915050565b600061043283836040518060400160405280601e81526020017f536166654d6174683a207375627472616374696f6e206f766572666c6f7700008152506107ad565b905092915050565b600061047c83836040518060400160405280601a81526020017f536166654d6174683a206469766973696f6e206279207a65726f000000000000815250610811565b905092915050565b6000806000439050600080548261049b9190610ece565b90507f00000000000000000000000000000000000000000000000000000000000000008110156104d3576000809350935050506106a8565b60006105087f00000000000000000000000000000000000000000000000000000000000000008361043a90919063ffffffff16565b9050600061053f827f00000000000000000000000000000000000000000000000000000000000000006106ac90919063ffffffff16565b9050807f000000000000000000000000000000000000000000000000000000000000000073ffffffffffffffffffffffffffffffffffffffff166370a08231306040518263ffffffff1660e01b815260040161059b9190610c76565b60206040518083038186803b1580156105b357600080fd5b505afa1580156105c7573d6000803e3d6000fd5b505050506040513d601f19601f820116820180604052508101906105eb9190610b13565b101561069d577f000000000000000000000000000000000000000000000000000000000000000073ffffffffffffffffffffffffffffffffffffffff166370a08231306040518263ffffffff1660e01b815260040161064a9190610c76565b60206040518083038186803b15801561066257600080fd5b505afa158015610676573d6000803e3d6000fd5b505050506040513d601f19601f8201168201806040525081019061069a9190610b13565b90505b808295509550505050505b9091565b6000808314156106bf5760009050610721565b600082846106cd9190610e74565b90508284826106dc9190610e43565b1461071c576040517f08c379a000000000000000000000000000000000000000000000000000000000815260040161071390610d37565b60405180910390fd5b809150505b92915050565b6107a88363a9059cbb60e01b8484604051602401610746929190610c91565b604051602081830303815290604052907bffffffffffffffffffffffffffffffffffffffffffffffffffffffff19166020820180517bffffffffffffffffffffffffffffffffffffffffffffffffffffffff8381831617835250505050610874565b505050565b60008383111582906107f5576040517f08c379a00000000000000000000000000000000000000000000000000000000081526004016107ec9190610cd5565b60405180910390fd5b50600083856108049190610ece565b9050809150509392505050565b60008083118290610858576040517f08c379a000000000000000000000000000000000000000000000000000000000815260040161084f9190610cd5565b60405180910390fd5b50600083856108679190610e43565b9050809150509392505050565b60006108d6826040518060400160405280602081526020017f5361666542455032303a206c6f772d6c6576656c2063616c6c206661696c65648152508573ffffffffffffffffffffffffffffffffffffffff1661093b9092919063ffffffff16565b905060008151111561093657808060200190518101906108f69190610aea565b610935576040517f08c379a000000000000000000000000000000000000000000000000000000000815260040161092c90610cf7565b60405180910390fd5b5b505050565b606061094a8484600085610953565b90509392505050565b606061095e85610a75565b61099d576040517f08c379a000000000000000000000000000000000000000000000000000000000815260040161099490610d57565b60405180910390fd5b6000808673ffffffffffffffffffffffffffffffffffffffff1685876040516109c69190610c5f565b60006040518083038185875af1925050503d8060008114610a03576040519150601f19603f3d011682016040523d82523d6000602084013e610a08565b606091505b50915091508115610a1d578092505050610a6d565b600081511115610a305780518082602001fd5b836040517f08c379a0000000000000000000000000000000000000000000000000000000008152600401610a649190610cd5565b60405180910390fd5b949350505050565b60008060007fc5d2460186f7233c927e7db2dcc703c0e500b653ca82273b7bfad8045d85a47060001b9050833f9150808214158015610ab757506000801b8214155b92505050919050565b600081519050610acf81611100565b92915050565b600081519050610ae481611117565b92915050565b600060208284031215610afc57600080fd5b6000610b0a84828501610ac0565b91505092915050565b600060208284031215610b2557600080fd5b6000610b3384828501610ad5565b91505092915050565b610b4581610f02565b82525050565b6000610b5682610dbb565b610b608185610dd1565b9350610b70818560208601610f6e565b80840191505092915050565b610b8581610f4a565b82525050565b6000610b9682610dc6565b610ba08185610ddc565b9350610bb0818560208601610f6e565b610bb981610fff565b840191505092915050565b6000610bd1602a83610ddc565b9150610bdc82611010565b604082019050919050565b6000610bf4601b83610ddc565b9150610bff8261105f565b602082019050919050565b6000610c17602183610ddc565b9150610c2282611088565b604082019050919050565b6000610c3a601d83610ddc565b9150610c45826110d7565b602082019050919050565b610c5981610f40565b82525050565b6000610c6b8284610b4b565b915081905092915050565b6000602082019050610c8b6000830184610b3c565b92915050565b6000604082019050610ca66000830185610b3c565b610cb36020830184610c50565b9392505050565b6000602082019050610ccf6000830184610b7c565b92915050565b60006020820190508181036000830152610cef8184610b8b565b905092915050565b60006020820190508181036000830152610d1081610bc4565b9050919050565b60006020820190508181036000830152610d3081610be7565b9050919050565b60006020820190508181036000830152610d5081610c0a565b9050919050565b60006020820190508181036000830152610d7081610c2d565b9050919050565b6000602082019050610d8c6000830184610c50565b92915050565b6000604082019050610da76000830185610c50565b610db46020830184610c50565b9392505050565b600081519050919050565b600081519050919050565b600081905092915050565b600082825260208201905092915050565b6000610df882610f40565b9150610e0383610f40565b9250827fffffffffffffffffffffffffffffffffffffffffffffffffffffffffffffffff03821115610e3857610e37610fa1565b5b828201905092915050565b6000610e4e82610f40565b9150610e5983610f40565b925082610e6957610e68610fd0565b5b828204905092915050565b6000610e7f82610f40565b9150610e8a83610f40565b9250817fffffffffffffffffffffffffffffffffffffffffffffffffffffffffffffffff0483118215151615610ec357610ec2610fa1565b5b828202905092915050565b6000610ed982610f40565b9150610ee483610f40565b925082821015610ef757610ef6610fa1565b5b828203905092915050565b6000610f0d82610f20565b9050919050565b60008115159050919050565b600073ffffffffffffffffffffffffffffffffffffffff82169050919050565b6000819050919050565b6000610f5582610f5c565b9050919050565b6000610f6782610f20565b9050919050565b60005b83811015610f8c578082015181840152602081019050610f71565b83811115610f9b576000848401525b50505050565b7f4e487b7100000000000000000000000000000000000000000000000000000000600052601160045260246000fd5b7f4e487b7100000000000000000000000000000000000000000000000000000000600052601260045260246000fd5b6000601f19601f8301169050919050565b7f5361666542455032303a204245503230206f7065726174696f6e20646964206e60008201527f6f74207375636365656400000000000000000000000000000000000000000000602082015250565b7f536166654d6174683a206164646974696f6e206f766572666c6f770000000000600082015250565b7f536166654d6174683a206d756c7469706c69636174696f6e206f766572666c6f60008201527f7700000000000000000000000000000000000000000000000000000000000000602082015250565b7f416464726573733a2063616c6c20746f206e6f6e2d636f6e7472616374000000600082015250565b61110981610f14565b811461111457600080fd5b50565b61112081610f40565b811461112b57600080fd5b5056fea2646970667358221220121dadcde04a45eb359d6036c823c1ba1a7411f364feb046f11e4e332904d38664736f6c63430008040033",
  "linkReferences": {},
  "deployedLinkReferences": {}
}