{
  "_format": "hh-sol-artifact-1",
  "contractName": "HoldStake",
  "sourceName": "contracts/farm/HoldStake.sol",
  "abi": [
    {
      "inputs": [],
      "stateMutability": "nonpayable",
      "type": "constructor"
    },
    {
      "anonymous": false,
      "inputs": [
        {
          "indexed": false,
          "internalType": "uint256",
          "name": "pid",
          "type": "uint256"
        },
        {
          "indexed": false,
          "internalType": "address",
          "name": "token",
          "type": "address"
        },
        {
          "indexed": false,
          "internalType": "uint256",
          "name": "hardcap",
          "type": "uint256"
        },
        {
          "indexed": false,
          "internalType": "uint256",
          "name": "preUserHardcap",
          "type": "uint256"
        },
        {
          "indexed": false,
          "internalType": "uint256",
          "name": "apy",
          "type": "uint256"
        }
      ],
      "name": "AddHoldPool",
      "type": "event"
    },
    {
      "anonymous": false,
      "inputs": [
        {
          "indexed": true,
          "internalType": "uint256",
          "name": "pid",
          "type": "uint256"
        },
        {
          "indexed": true,
          "internalType": "uint256",
          "name": "finishTime",
          "type": "uint256"
        }
      ],
      "name": "AnnounceEndTime",
      "type": "event"
    },
    {
      "anonymous": false,
      "inputs": [
        {
          "indexed": true,
          "internalType": "uint256",
          "name": "pid",
          "type": "uint256"
        },
        {
          "indexed": true,
          "internalType": "address",
          "name": "account",
          "type": "address"
        },
        {
          "indexed": true,
          "internalType": "uint256",
          "name": "duration",
          "type": "uint256"
        },
        {
          "indexed": false,
          "internalType": "uint256",
          "name": "value",
          "type": "uint256"
        }
      ],
      "name": "Deposit",
      "type": "event"
    },
    {
      "anonymous": false,
      "inputs": [
        {
          "indexed": true,
          "internalType": "uint256",
          "name": "pid",
          "type": "uint256"
        },
        {
          "indexed": true,
          "internalType": "address",
          "name": "account",
          "type": "address"
        },
        {
          "indexed": false,
          "internalType": "uint256",
          "name": "earned",
          "type": "uint256"
        }
      ],
      "name": "Harvest",
      "type": "event"
    },
    {
      "anonymous": false,
      "inputs": [
        {
          "indexed": true,
          "internalType": "uint256",
          "name": "pid",
          "type": "uint256"
        },
        {
          "indexed": true,
          "internalType": "address",
          "name": "provider",
          "type": "address"
        },
        {
          "indexed": false,
          "internalType": "uint256",
          "name": "value",
          "type": "uint256"
        }
      ],
      "name": "InterestInjection",
      "type": "event"
    },
    {
      "anonymous": false,
      "inputs": [
        {
          "indexed": true,
          "internalType": "uint256",
          "name": "pid",
          "type": "uint256"
        },
        {
          "indexed": true,
          "internalType": "address",
          "name": "recipient",
          "type": "address"
        },
        {
          "indexed": false,
          "internalType": "uint256",
          "name": "value",
          "type": "uint256"
        }
      ],
      "name": "InterestRefund",
      "type": "event"
    },
    {
      "anonymous": false,
      "inputs": [
        {
          "indexed": true,
          "internalType": "address",
          "name": "previousOwner",
          "type": "address"
        },
        {
          "indexed": true,
          "internalType": "address",
          "name": "newOwner",
          "type": "address"
        }
      ],
      "name": "OwnershipTransferred",
      "type": "event"
    },
    {
      "anonymous": false,
      "inputs": [
        {
          "indexed": true,
          "internalType": "uint256",
          "name": "pid",
          "type": "uint256"
        },
        {
          "indexed": true,
          "internalType": "address",
          "name": "account",
          "type": "address"
        },
        {
          "indexed": false,
          "internalType": "uint256",
          "name": "value",
          "type": "uint256"
        }
      ],
      "name": "Withdraw",
      "type": "event"
    },
    {
      "inputs": [
        {
          "internalType": "contract IERC20",
          "name": "token",
          "type": "address"
        },
        {
          "internalType": "uint256",
          "name": "hardcap",
          "type": "uint256"
        },
        {
          "internalType": "uint256",
          "name": "preUserHardcap",
          "type": "uint256"
        },
        {
          "internalType": "uint256",
          "name": "apy",
          "type": "uint256"
        }
      ],
      "name": "addPool",
      "outputs": [],
      "stateMutability": "nonpayable",
      "type": "function"
    },
    {
      "inputs": [
        {
          "internalType": "uint256",
          "name": "_pid",
          "type": "uint256"
        },
        {
          "internalType": "uint256",
          "name": "value",
          "type": "uint256"
        },
        {
          "internalType": "uint256",
          "name": "opt",
          "type": "uint256"
        }
      ],
      "name": "deposit",
      "outputs": [],
      "stateMutability": "nonpayable",
      "type": "function"
    },
    {
      "inputs": [
        {
          "internalType": "address",
          "name": "",
          "type": "address"
        },
        {
          "internalType": "uint256",
          "name": "",
          "type": "uint256"
        }
      ],
      "name": "depositInfos",
      "outputs": [
        {
          "internalType": "uint256",
          "name": "pid",
          "type": "uint256"
        },
        {
          "internalType": "uint256",
          "name": "value",
          "type": "uint256"
        },
        {
          "internalType": "uint256",
          "name": "duration",
          "type": "uint256"
        },
        {
          "internalType": "uint256",
          "name": "earned",
          "type": "uint256"
        },
        {
          "internalType": "uint256",
          "name": "unlockTime",
          "type": "uint256"
        },
        {
          "internalType": "bool",
          "name": "present",
          "type": "bool"
        }
      ],
      "stateMutability": "view",
      "type": "function"
    },
    {
      "inputs": [
        {
          "internalType": "uint256",
          "name": "_pid",
          "type": "uint256"
        }
      ],
      "name": "harvest",
      "outputs": [],
      "stateMutability": "nonpayable",
      "type": "function"
    },
    {
      "inputs": [],
      "name": "holdInFinished",
      "outputs": [
        {
          "components": [
            {
              "internalType": "contract IERC20",
              "name": "token",
              "type": "address"
            },
            {
              "internalType": "uint256",
              "name": "hardcap",
              "type": "uint256"
            },
            {
              "internalType": "uint256",
              "name": "preUserHardcap",
              "type": "uint256"
            },
            {
              "internalType": "uint256",
              "name": "apy",
              "type": "uint256"
            },
            {
              "internalType": "uint256",
              "name": "depositTotal",
              "type": "uint256"
            },
            {
              "internalType": "uint256",
              "name": "interest",
              "type": "uint256"
            },
            {
              "internalType": "uint256",
              "name": "finishTime",
              "type": "uint256"
            }
          ],
          "internalType": "struct HoldStake.HoldPool[]",
          "name": "",
          "type": "tuple[]"
        }
      ],
      "stateMutability": "view",
      "type": "function"
    },
    {
      "inputs": [],
      "name": "holdInProgress",
      "outputs": [
        {
          "components": [
            {
              "internalType": "contract IERC20",
              "name": "token",
              "type": "address"
            },
            {
              "internalType": "uint256",
              "name": "hardcap",
              "type": "uint256"
            },
            {
              "internalType": "uint256",
              "name": "preUserHardcap",
              "type": "uint256"
            },
            {
              "internalType": "uint256",
              "name": "apy",
              "type": "uint256"
            },
            {
              "internalType": "uint256",
              "name": "depositTotal",
              "type": "uint256"
            },
            {
              "internalType": "uint256",
              "name": "interest",
              "type": "uint256"
            },
            {
              "internalType": "uint256",
              "name": "finishTime",
              "type": "uint256"
            }
          ],
          "internalType": "struct HoldStake.HoldPool[]",
          "name": "",
          "type": "tuple[]"
        }
      ],
      "stateMutability": "view",
      "type": "function"
    },
    {
      "inputs": [
        {
          "internalType": "uint256",
          "name": "",
          "type": "uint256"
        }
      ],
      "name": "holdPools",
      "outputs": [
        {
          "internalType": "contract IERC20",
          "name": "token",
          "type": "address"
        },
        {
          "internalType": "uint256",
          "name": "hardcap",
          "type": "uint256"
        },
        {
          "internalType": "uint256",
          "name": "preUserHardcap",
          "type": "uint256"
        },
        {
          "internalType": "uint256",
          "name": "apy",
          "type": "uint256"
        },
        {
          "internalType": "uint256",
          "name": "depositTotal",
          "type": "uint256"
        },
        {
          "internalType": "uint256",
          "name": "interest",
          "type": "uint256"
        },
        {
          "internalType": "uint256",
          "name": "finishTime",
          "type": "uint256"
        }
      ],
      "stateMutability": "view",
      "type": "function"
    },
    {
      "inputs": [
        {
          "internalType": "uint256",
          "name": "_pid",
          "type": "uint256"
        }
      ],
      "name": "injectInterest",
      "outputs": [],
      "stateMutability": "nonpayable",
      "type": "function"
    },
    {
      "inputs": [
        {
          "internalType": "uint256",
          "name": "",
          "type": "uint256"
        }
      ],
      "name": "interestProvider",
      "outputs": [
        {
          "internalType": "address",
          "name": "",
          "type": "address"
        }
      ],
      "stateMutability": "view",
      "type": "function"
    },
    {
      "inputs": [
        {
          "internalType": "uint256",
          "name": "",
          "type": "uint256"
        }
      ],
      "name": "lockDuration",
      "outputs": [
        {
          "internalType": "uint256",
          "name": "",
          "type": "uint256"
        }
      ],
      "stateMutability": "view",
      "type": "function"
    },
    {
      "inputs": [],
      "name": "owner",
      "outputs": [
        {
          "internalType": "address",
          "name": "",
          "type": "address"
        }
      ],
      "stateMutability": "view",
      "type": "function"
    },
    {
      "inputs": [],
      "name": "pid",
      "outputs": [
        {
          "internalType": "uint256",
          "name": "",
          "type": "uint256"
        }
      ],
      "stateMutability": "view",
      "type": "function"
    },
    {
      "inputs": [],
      "name": "renounceOwnership",
      "outputs": [],
      "stateMutability": "nonpayable",
      "type": "function"
    },
    {
      "inputs": [
        {
          "internalType": "address",
          "name": "newOwner",
          "type": "address"
        }
      ],
      "name": "transferOwnership",
      "outputs": [],
      "stateMutability": "nonpayable",
      "type": "function"
    },
    {
      "inputs": [
        {
          "internalType": "uint256",
          "name": "_pid",
          "type": "uint256"
        }
      ],
      "name": "withdraw",
      "outputs": [],
      "stateMutability": "nonpayable",
      "type": "function"
    }
  ],
  "bytecode": "0x608060405234801561001057600080fd5b50600080546001600160a01b031916339081178255604051909182917f8be0079c531659141344cd1fd0a4f28419497f9722a3daafe3b4186f6b6457e0908290a350600460208190526213c6807fabd6e7cb50984ff9c2f3e18a2660c3353dadf4e3291deeb275dae2cd1e44fe055562278d007f91da3fd0782e51c6b3986e9e672fd566868e71f3dbc2d6c2cd6fbb3e361af2a755624f1a007f2e174c10e159ea99b867ce3205125c24a42d128804e4070ed6fcc8cc98166aa0556000526276a7007f1a1e6821cde7d0159c0d293177871e09677b4e42307c7db3ba94f8648a5a050f55611b5e806101036000396000f3fe608060405234801561001057600080fd5b50600436106100f45760003560e01c8063742734ff11610097578063ddc6326211610066578063ddc6326214610302578063f106845414610315578063f2fde38b1461031e578063ffd8914c1461033157600080fd5b8063742734ff1461021b5780638da5cb5b14610249578063c8f67ac11461025a578063cc6c83e61461026d57600080fd5b8063356143d2116100d3578063356143d21461013f578063566a07a0146101805780635a4ec0ca14610200578063715018a61461021357600080fd5b8062aeef8a146100f95780630f302be11461010e5780632e1a7d4d1461012c575b600080fd5b61010c610107366004611891565b610339565b005b610116610867565b60405161012391906118d8565b60405180910390f35b61010c61013a366004611861565b6109e7565b61016861014d366004611861565b6003602052600090815260409020546001600160a01b031681565b6040516001600160a01b039091168152602001610123565b6101d161018e3660046117dc565b6006602090815260009283526040808420909152908252902080546001820154600283015460038401546004850154600590950154939492939192909160ff1686565b6040805196875260208701959095529385019290925260608401526080830152151560a082015260c001610123565b61010c61020e366004611827565b610b2a565b61010c610cd3565b61023b610229366004611861565b60046020526000908152604090205481565b604051908152602001610123565b6000546001600160a01b0316610168565b61010c610268366004611861565b610d47565b6102c361027b366004611861565b600560208190526000918252604090912080546001820154600283015460038401546004850154958501546006909501546001600160a01b0390941695929491939092919087565b604080516001600160a01b0390981688526020880196909652948601939093526060850191909152608084015260a083015260c082015260e001610123565b61010c610310366004611861565b610f21565b61023b60075481565b61010c61032c3660046117c0565b611050565b61011661113a565b6000818152600460205260409020548390811580159061035b57506007548511155b6103805760405162461bcd60e51b815260040161037790611996565b60405180910390fd5b6000838152600460205260409020546103db5760405162461bcd60e51b815260206004820152601960248201527f486f6c643a20576974686f75742074686973206f7074696f6e000000000000006044820152606401610377565b60008581526005602052604090206001810154600490910154106104385760405162461bcd60e51b8152602060048201526014602482015273121bdb190e8812185c990818d85c081b1a5b5a5d60621b6044820152606401610377565b6000858152600560205260409020600181015460049091015461045b90866112b5565b111561048657600085815260056020526040902060048101546001909101546104839161131d565b93505b6000858152600560205260409020600201548411156104e75760405162461bcd60e51b815260206004820152601d60248201527f486f6c643a20506572736f6e616c206861726420636170206c696d69740000006044820152606401610377565b33600090815260066020908152604080832088845290915290206005015460ff161561057b5760405162461bcd60e51b815260206004820152603760248201527f486f6c643a20496e646976696475616c732063616e206f6e6c7920696e76657360448201527f74206f6e6365206174207468652073616d652074696d650000000000000000006064820152608401610377565b60008581526005602052604090206004015461059790856112b5565b6000868152600560208181526040808420600490810195909555338452600682528084208a85528252808420928301805460ff1916600190811790915583018990558983558784529390529190205460029091018190556105f890426112b5565b33600090815260066020908152604080832089845282528083206004908101949094558683529281528282205488835260059091529190206003015461066191620f42409161065b916301e1338091839190610655908b9061135f565b9061135f565b906113de565b33600090815260066020908152604080832089845282528083206003018490556005918290529091200154610695916112b5565b600086815260056020819052604090912090810191909155546106c3906001600160a01b0316333087611420565b600083815260046020908152604091829020549151868152339188917fd36a2f67d06d285786f61a32b052b9ace6b0b7abef5177b54358abdc83a0b69b910160405180910390a460008281526001602052604090205461072342836112b5565b11156107435761073342826112b5565b6000838152600160205260409020555b60008281526005602052604090206004810154600190910154141561086057600082815260016020908152604080832054600590925280832060060182905551909184917f1b8284672158da8930cb9b814409971e2e9d8a323d89e3c6f46e3f32f1b22f769190a36000828152600560208181526040808420909201546002909152908220546107d29161131d565b9050801561085e5760008381526003602090815260408083205460059092529091205461080c916001600160a01b03918216911683611491565b6000838152600360209081526040918290205491518381526001600160a01b039092169185917f078adc74fdf8138ee67abf1000e6a701ff642aa209d0dfa6a31b4c6ce6cff06c910160405180910390a35b505b5050505050565b6060600060015b60075481116108af57600081815260056020526040902060060154421061089d578161089981611adf565b9250505b806108a781611adf565b91505061086e565b5060008167ffffffffffffffff8111156108d957634e487b7160e01b600052604160045260246000fd5b60405190808252806020026020018201604052801561091257816020015b6108ff61177a565b8152602001906001900390816108f75790505b50905060015b60075481116109e05760008181526005602052604090206006015442106109ce57600081815260056020818152604092839020835160e08101855281546001600160a01b0316815260018201549281019290925260028101549382019390935260038301546060820152600483015460808201529082015460a082015260069091015460c082015282518390839081106109c257634e487b7160e01b600052603260045260246000fd5b60200260200101819052505b806109d881611adf565b915050610918565b5092915050565b6000811180156109f957506007548111155b610a155760405162461bcd60e51b815260040161037790611996565b336000908152600660209081526040808320848452909152902060048101544211610a525760405162461bcd60e51b8152600401610377906119cd565b6000816001015411610ab25760405162461bcd60e51b8152602060048201526024808201527f486f6c643a205468657265206973206e6f206465706f73697420746f207265636044820152636569766560e01b6064820152608401610377565b6001810180546000918290556005808401805460ff1916905583548352602052604090912054610aec906001600160a01b03163383611491565b81546040518281523391907f9da6493a92039daf47d1f2d7a782299c5994c6323eb1e972f69c432089ec52bf906020015b60405180910390a3505050565b6000546001600160a01b03163314610b545760405162461bcd60e51b815260040161037790611a10565b6001600160a01b038416610baa5760405162461bcd60e51b815260206004820152601b60248201527f486f6c643a20546f6b656e2061646472657373206973207a65726f00000000006044820152606401610377565b6040516370a0823160e01b81523060048201526001600160a01b038516906370a082319060240160206040518083038186803b158015610be957600080fd5b505afa158015610bfd573d6000803e3d6000fd5b505050506040513d601f19601f82011682018060405250810190610c219190611879565b5060078054906000610c3283611adf565b9091555050600780546000908152600560209081526040918290206003810185905580546001600160a01b0319166001600160a01b03891690811782556001820188905560028201879055935483519081529182019390935290810185905260608101849052608081018390527fe6c3ea92eec7a9dedf2962e03f6cbed7bbf237fac8c2a939c55c979bd7f647189060a00160405180910390a15050505050565b6000546001600160a01b03163314610cfd5760405162461bcd60e51b815260040161037790611a10565b600080546040516001600160a01b03909116907f8be0079c531659141344cd1fd0a4f28419497f9722a3daafe3b4186f6b6457e0908390a3600080546001600160a01b0319169055565b600081118015610d5957506007548111155b610d755760405162461bcd60e51b815260040161037790611996565b6000818152600560208181526040808420815160e08101835281546001600160a01b031681526001820154818501526002808301548285015260038301546060830152600483015460808301529482015460a082015260069091015460c08201528585529290915290912054158015610e0357506000828152600360205260409020546001600160a01b0316155b610e615760405162461bcd60e51b815260206004820152602960248201527f486f6c643a2054686520706f6f6c20696e74657265737420686173206265656e604482015268081a5b9a9958dd195960ba1b6064820152608401610377565b6000610ea5620f424061065b6301e1338061065b6004600060048152602001908152602001600020546106558860600151896020015161135f90919063ffffffff16565b60008481526002602090815260408083208490556003909152902080546001600160a01b031916339081179091558351919250610eed916001600160a01b0316903084611420565b604051818152339084907f6c86ce4ec33941039baab384b371875d3aaa8a3aad1496705068436c7ab3633890602001610b1d565b600081118015610f3357506007548111155b610f4f5760405162461bcd60e51b815260040161037790611996565b336000908152600660209081526040808320848452909152902060048101544211610f8c5760405162461bcd60e51b8152600401610377906119cd565b6000816003015411610fec5760405162461bcd60e51b815260206004820152602360248201527f486f6c643a205468657265206973206e6f20696e636f6d6520746f207265636560448201526269766560e81b6064820152608401610377565b60038101805460009182905582548252600560205260409091205461101b906001600160a01b03163383611491565b81546040518281523391907f393ccd03ff98115189a2796d79ffa176e434468dbeea90a87972324be8c5071890602001610b1d565b6000546001600160a01b0316331461107a5760405162461bcd60e51b815260040161037790611a10565b6001600160a01b0381166110df5760405162461bcd60e51b815260206004820152602660248201527f4f776e61626c653a206e6577206f776e657220697320746865207a65726f206160448201526564647265737360d01b6064820152608401610377565b600080546040516001600160a01b03808516939216917f8be0079c531659141344cd1fd0a4f28419497f9722a3daafe3b4186f6b6457e091a3600080546001600160a01b0319166001600160a01b0392909216919091179055565b6060600060015b600754811161118357600081815260056020526040902060060154421015611171578161116d81611adf565b9250505b8061117b81611adf565b915050611141565b5060008167ffffffffffffffff8111156111ad57634e487b7160e01b600052604160045260246000fd5b6040519080825280602002602001820160405280156111e657816020015b6111d361177a565b8152602001906001900390816111cb5790505b50905060015b60075481116109e0576000818152600560205260409020600601544210156112a357600081815260056020818152604092839020835160e08101855281546001600160a01b0316815260018201549281019290925260028101549382019390935260038301546060820152600483015460808201529082015460a082015260069091015460c0820152825183908390811061129757634e487b7160e01b600052603260045260246000fd5b60200260200101819052505b806112ad81611adf565b9150506111ec565b6000806112c28385611a45565b9050838110156113145760405162461bcd60e51b815260206004820152601b60248201527f536166654d6174683a206164646974696f6e206f766572666c6f7700000000006044820152606401610377565b90505b92915050565b600061131483836040518060400160405280601e81526020017f536166654d6174683a207375627472616374696f6e206f766572666c6f7700008152506114c6565b60008261136e57506000611317565b600061137a8385611a7d565b9050826113878583611a5d565b146113145760405162461bcd60e51b815260206004820152602160248201527f536166654d6174683a206d756c7469706c69636174696f6e206f766572666c6f6044820152607760f81b6064820152608401610377565b600061131483836040518060400160405280601a81526020017f536166654d6174683a206469766973696f6e206279207a65726f000000000000815250611502565b6040516001600160a01b038085166024830152831660448201526064810182905261148b9085906323b872dd60e01b906084015b60408051601f198184030181529190526020810180516001600160e01b03166001600160e01b031990931692909217909152611530565b50505050565b6040516001600160a01b0383166024820152604481018290526114c190849063a9059cbb60e01b90606401611454565b505050565b600081848411156114ea5760405162461bcd60e51b81526004016103779190611963565b5060006114f78486611a9c565b9150505b9392505050565b600081836115235760405162461bcd60e51b81526004016103779190611963565b5060006114f78486611a5d565b6000611585826040518060400160405280602081526020017f5361666545524332303a206c6f772d6c6576656c2063616c6c206661696c6564815250856001600160a01b03166116029092919063ffffffff16565b8051909150156114c157808060200190518101906115a39190611807565b6114c15760405162461bcd60e51b815260206004820152602a60248201527f5361666545524332303a204552433230206f7065726174696f6e20646964206e6044820152691bdd081cdd58d8d9595960b21b6064820152608401610377565b60606116118484600085611619565b949350505050565b60608247101561167a5760405162461bcd60e51b815260206004820152602660248201527f416464726573733a20696e73756666696369656e742062616c616e636520666f6044820152651c8818d85b1b60d21b6064820152608401610377565b843b6116c85760405162461bcd60e51b815260206004820152601d60248201527f416464726573733a2063616c6c20746f206e6f6e2d636f6e74726163740000006044820152606401610377565b600080866001600160a01b031685876040516116e491906118bc565b60006040518083038185875af1925050503d8060008114611721576040519150601f19603f3d011682016040523d82523d6000602084013e611726565b606091505b5091509150611736828286611741565b979650505050505050565b606083156117505750816114fb565b8251156117605782518084602001fd5b8160405162461bcd60e51b81526004016103779190611963565b6040518060e0016040528060006001600160a01b031681526020016000815260200160008152602001600081526020016000815260200160008152602001600081525090565b6000602082840312156117d1578081fd5b813561131481611b10565b600080604083850312156117ee578081fd5b82356117f981611b10565b946020939093013593505050565b600060208284031215611818578081fd5b81518015158114611314578182fd5b6000806000806080858703121561183c578182fd5b843561184781611b10565b966020860135965060408601359560600135945092505050565b600060208284031215611872578081fd5b5035919050565b60006020828403121561188a578081fd5b5051919050565b6000806000606084860312156118a5578283fd5b505081359360208301359350604090920135919050565b600082516118ce818460208701611ab3565b9190910192915050565b602080825282518282018190526000919060409081850190868401855b8281101561195657815180516001600160a01b0316855286810151878601528581015186860152606080820151908601526080808201519086015260a0808201519086015260c0908101519085015260e090930192908501906001016118f5565b5091979650505050505050565b6020815260008251806020840152611982816040850160208701611ab3565b601f01601f19169190910160400192915050565b6020808252601a908201527f486f6c643a2043616e27742066696e64207468697320706f6f6c000000000000604082015260600190565b60208082526023908201527f486f6c643a20556e6c6f636b696e672074696d65206973206e6f7420726561636040820152621a195960ea1b606082015260800190565b6020808252818101527f4f776e61626c653a2063616c6c6572206973206e6f7420746865206f776e6572604082015260600190565b60008219821115611a5857611a58611afa565b500190565b600082611a7857634e487b7160e01b81526012600452602481fd5b500490565b6000816000190483118215151615611a9757611a97611afa565b500290565b600082821015611aae57611aae611afa565b500390565b60005b83811015611ace578181015183820152602001611ab6565b8381111561148b5750506000910152565b6000600019821415611af357611af3611afa565b5060010190565b634e487b7160e01b600052601160045260246000fd5b6001600160a01b0381168114611b2557600080fd5b5056fea264697066735822122010fa644689c7150efb58afb5d741b35a81beb10ffae3cd197bdc786b8b72ca7b64736f6c63430008040033",
  "linkReferences": {},
  "deployedLinkReferences": {}
}