{
  "_format": "hh-sol-artifact-1",
  "contractName": "HoldStake",
  "sourceName": "contracts/farm/HoldStake.sol",
  "abi": [
    {
      "inputs": [],
      "stateMutability": "nonpayable",
      "type": "constructor"
    },
    {
      "anonymous": false,
      "inputs": [
        {
          "indexed": false,
          "internalType": "uint256",
          "name": "pid",
          "type": "uint256"
        },
        {
          "indexed": false,
          "internalType": "address",
          "name": "token",
          "type": "address"
        },
        {
          "indexed": false,
          "internalType": "uint256",
          "name": "hardcap",
          "type": "uint256"
        },
        {
          "indexed": false,
          "internalType": "uint256",
          "name": "preUserHardcap",
          "type": "uint256"
        },
        {
          "indexed": false,
          "internalType": "uint256",
          "name": "apy",
          "type": "uint256"
        }
      ],
      "name": "AddHoldPool",
      "type": "event"
    },
    {
      "anonymous": false,
      "inputs": [
        {
          "indexed": true,
          "internalType": "uint256",
          "name": "pid",
          "type": "uint256"
        },
        {
          "indexed": true,
          "internalType": "uint256",
          "name": "finishTime",
          "type": "uint256"
        }
      ],
      "name": "AnnounceEndTime",
      "type": "event"
    },
    {
      "anonymous": false,
      "inputs": [
        {
          "indexed": true,
          "internalType": "uint256",
          "name": "pid",
          "type": "uint256"
        },
        {
          "indexed": true,
          "internalType": "address",
          "name": "account",
          "type": "address"
        },
        {
          "indexed": true,
          "internalType": "uint256",
          "name": "duration",
          "type": "uint256"
        },
        {
          "indexed": false,
          "internalType": "uint256",
          "name": "value",
          "type": "uint256"
        }
      ],
      "name": "Deposit",
      "type": "event"
    },
    {
      "anonymous": false,
      "inputs": [
        {
          "indexed": true,
          "internalType": "uint256",
          "name": "pid",
          "type": "uint256"
        },
        {
          "indexed": true,
          "internalType": "address",
          "name": "account",
          "type": "address"
        },
        {
          "indexed": false,
          "internalType": "uint256",
          "name": "earned",
          "type": "uint256"
        }
      ],
      "name": "Harvest",
      "type": "event"
    },
    {
      "anonymous": false,
      "inputs": [
        {
          "indexed": true,
          "internalType": "uint256",
          "name": "pid",
          "type": "uint256"
        },
        {
          "indexed": true,
          "internalType": "address",
          "name": "provider",
          "type": "address"
        },
        {
          "indexed": false,
          "internalType": "uint256",
          "name": "value",
          "type": "uint256"
        }
      ],
      "name": "InterestInjection",
      "type": "event"
    },
    {
      "anonymous": false,
      "inputs": [
        {
          "indexed": true,
          "internalType": "uint256",
          "name": "pid",
          "type": "uint256"
        },
        {
          "indexed": true,
          "internalType": "address",
          "name": "recipient",
          "type": "address"
        },
        {
          "indexed": false,
          "internalType": "uint256",
          "name": "value",
          "type": "uint256"
        }
      ],
      "name": "InterestRefund",
      "type": "event"
    },
    {
      "anonymous": false,
      "inputs": [
        {
          "indexed": true,
          "internalType": "address",
          "name": "previousOwner",
          "type": "address"
        },
        {
          "indexed": true,
          "internalType": "address",
          "name": "newOwner",
          "type": "address"
        }
      ],
      "name": "OwnershipTransferred",
      "type": "event"
    },
    {
      "anonymous": false,
      "inputs": [
        {
          "indexed": true,
          "internalType": "uint256",
          "name": "pid",
          "type": "uint256"
        },
        {
          "indexed": true,
          "internalType": "address",
          "name": "account",
          "type": "address"
        },
        {
          "indexed": false,
          "internalType": "uint256",
          "name": "value",
          "type": "uint256"
        }
      ],
      "name": "Withdraw",
      "type": "event"
    },
    {
      "inputs": [
        {
          "internalType": "contract IERC20",
          "name": "token",
          "type": "address"
        },
        {
          "internalType": "uint256",
          "name": "hardcap",
          "type": "uint256"
        },
        {
          "internalType": "uint256",
          "name": "preUserHardcap",
          "type": "uint256"
        },
        {
          "internalType": "uint256",
          "name": "apy",
          "type": "uint256"
        }
      ],
      "name": "addPool",
      "outputs": [],
      "stateMutability": "nonpayable",
      "type": "function"
    },
    {
      "inputs": [
        {
          "internalType": "uint256",
          "name": "_pid",
          "type": "uint256"
        },
        {
          "internalType": "uint256",
          "name": "value",
          "type": "uint256"
        },
        {
          "internalType": "uint256",
          "name": "opt",
          "type": "uint256"
        }
      ],
      "name": "deposit",
      "outputs": [],
      "stateMutability": "nonpayable",
      "type": "function"
    },
    {
      "inputs": [
        {
          "internalType": "address",
          "name": "",
          "type": "address"
        },
        {
          "internalType": "uint256",
          "name": "",
          "type": "uint256"
        }
      ],
      "name": "depositInfos",
      "outputs": [
        {
          "internalType": "uint256",
          "name": "pid",
          "type": "uint256"
        },
        {
          "internalType": "uint256",
          "name": "value",
          "type": "uint256"
        },
        {
          "internalType": "uint256",
          "name": "duration",
          "type": "uint256"
        },
        {
          "internalType": "uint256",
          "name": "earned",
          "type": "uint256"
        },
        {
          "internalType": "uint256",
          "name": "unlockTime",
          "type": "uint256"
        },
        {
          "internalType": "bool",
          "name": "present",
          "type": "bool"
        }
      ],
      "stateMutability": "view",
      "type": "function"
    },
    {
      "inputs": [
        {
          "internalType": "uint256",
          "name": "_pid",
          "type": "uint256"
        }
      ],
      "name": "harvest",
      "outputs": [],
      "stateMutability": "nonpayable",
      "type": "function"
    },
    {
      "inputs": [],
      "name": "holdInFinished",
      "outputs": [
        {
          "components": [
            {
              "internalType": "contract IERC20",
              "name": "token",
              "type": "address"
            },
            {
              "internalType": "uint256",
              "name": "hardcap",
              "type": "uint256"
            },
            {
              "internalType": "uint256",
              "name": "preUserHardcap",
              "type": "uint256"
            },
            {
              "internalType": "uint256",
              "name": "apy",
              "type": "uint256"
            },
            {
              "internalType": "uint256",
              "name": "depositTotal",
              "type": "uint256"
            },
            {
              "internalType": "uint256",
              "name": "interest",
              "type": "uint256"
            },
            {
              "internalType": "uint256",
              "name": "finishTime",
              "type": "uint256"
            }
          ],
          "internalType": "struct HoldStake.HoldPool[]",
          "name": "",
          "type": "tuple[]"
        }
      ],
      "stateMutability": "view",
      "type": "function"
    },
    {
      "inputs": [],
      "name": "holdInProgress",
      "outputs": [
        {
          "components": [
            {
              "internalType": "contract IERC20",
              "name": "token",
              "type": "address"
            },
            {
              "internalType": "uint256",
              "name": "hardcap",
              "type": "uint256"
            },
            {
              "internalType": "uint256",
              "name": "preUserHardcap",
              "type": "uint256"
            },
            {
              "internalType": "uint256",
              "name": "apy",
              "type": "uint256"
            },
            {
              "internalType": "uint256",
              "name": "depositTotal",
              "type": "uint256"
            },
            {
              "internalType": "uint256",
              "name": "interest",
              "type": "uint256"
            },
            {
              "internalType": "uint256",
              "name": "finishTime",
              "type": "uint256"
            }
          ],
          "internalType": "struct HoldStake.HoldPool[]",
          "name": "",
          "type": "tuple[]"
        }
      ],
      "stateMutability": "view",
      "type": "function"
    },
    {
      "inputs": [
        {
          "internalType": "uint256",
          "name": "",
          "type": "uint256"
        }
      ],
      "name": "holdPools",
      "outputs": [
        {
          "internalType": "contract IERC20",
          "name": "token",
          "type": "address"
        },
        {
          "internalType": "uint256",
          "name": "hardcap",
          "type": "uint256"
        },
        {
          "internalType": "uint256",
          "name": "preUserHardcap",
          "type": "uint256"
        },
        {
          "internalType": "uint256",
          "name": "apy",
          "type": "uint256"
        },
        {
          "internalType": "uint256",
          "name": "depositTotal",
          "type": "uint256"
        },
        {
          "internalType": "uint256",
          "name": "interest",
          "type": "uint256"
        },
        {
          "internalType": "uint256",
          "name": "finishTime",
          "type": "uint256"
        }
      ],
      "stateMutability": "view",
      "type": "function"
    },
    {
      "inputs": [
        {
          "internalType": "uint256",
          "name": "_pid",
          "type": "uint256"
        }
      ],
      "name": "injectInterest",
      "outputs": [],
      "stateMutability": "nonpayable",
      "type": "function"
    },
    {
      "inputs": [
        {
          "internalType": "uint256",
          "name": "",
          "type": "uint256"
        }
      ],
      "name": "interestProvider",
      "outputs": [
        {
          "internalType": "address",
          "name": "",
          "type": "address"
        }
      ],
      "stateMutability": "view",
      "type": "function"
    },
    {
      "inputs": [
        {
          "internalType": "uint256",
          "name": "",
          "type": "uint256"
        }
      ],
      "name": "lockDuration",
      "outputs": [
        {
          "internalType": "uint256",
          "name": "",
          "type": "uint256"
        }
      ],
      "stateMutability": "view",
      "type": "function"
    },
    {
      "inputs": [],
      "name": "owner",
      "outputs": [
        {
          "internalType": "address",
          "name": "",
          "type": "address"
        }
      ],
      "stateMutability": "view",
      "type": "function"
    },
    {
      "inputs": [],
      "name": "pid",
      "outputs": [
        {
          "internalType": "uint256",
          "name": "",
          "type": "uint256"
        }
      ],
      "stateMutability": "view",
      "type": "function"
    },
    {
      "inputs": [],
      "name": "renounceOwnership",
      "outputs": [],
      "stateMutability": "nonpayable",
      "type": "function"
    },
    {
      "inputs": [
        {
          "internalType": "address",
          "name": "newOwner",
          "type": "address"
        }
      ],
      "name": "transferOwnership",
      "outputs": [],
      "stateMutability": "nonpayable",
      "type": "function"
    },
    {
      "inputs": [
        {
          "internalType": "uint256",
          "name": "_pid",
          "type": "uint256"
        }
      ],
      "name": "withdraw",
      "outputs": [],
      "stateMutability": "nonpayable",
      "type": "function"
    }
  ],
  "bytecode": "0x60806040523480156200001157600080fd5b506000620000246200013860201b60201c565b9050806000806101000a81548173ffffffffffffffffffffffffffffffffffffffff021916908373ffffffffffffffffffffffffffffffffffffffff1602179055508073ffffffffffffffffffffffffffffffffffffffff16600073ffffffffffffffffffffffffffffffffffffffff167f8be0079c531659141344cd1fd0a4f28419497f9722a3daafe3b4186f6b6457e060405160405180910390a3506213c68060046000600181526020019081526020016000208190555062278d00600460006002815260200190815260200160002081905550624f1a006004600060038152602001908152602001600020819055506276a70060046000600481526020019081526020016000208190555062000140565b600033905090565b6135eb80620001506000396000f3fe608060405234801561001057600080fd5b50600436106100c45760003560e01c8062aeef8a146100c95780630f302be1146100e55780632e1a7d4d14610103578063356143d21461011f578063566a07a01461014f5780635a4ec0ca14610184578063715018a6146101a0578063742734ff146101aa5780638da5cb5b146101da578063c8f67ac1146101f8578063cc6c83e614610214578063ddc632621461024a578063f106845414610266578063f2fde38b14610284578063ffd8914c146102a0575b600080fd5b6100e360048036038101906100de91906125c3565b6102be565b005b6100ed610c44565b6040516100fa9190612abf565b60405180910390f35b61011d60048036038101906101189190612571565b610e53565b005b61013960048036038101906101349190612571565b611072565b6040516101469190612a44565b60405180910390f35b610169600480360381019061016491906124a9565b6110a5565b60405161017b96959493929190612e00565b60405180910390f35b61019e6004803603810190610199919061250e565b6110fb565b005b6101a8611348565b005b6101c460048036038101906101bf9190612571565b611482565b6040516101d19190612d92565b60405180910390f35b6101e261149a565b6040516101ef9190612a44565b60405180910390f35b610212600480360381019061020d9190612571565b6114c3565b005b61022e60048036038101906102299190612571565b6117e8565b6040516102419796959493929190612ae1565b60405180910390f35b610264600480360381019061025f9190612571565b61184a565b005b61026e611a4c565b60405161027b9190612d92565b60405180910390f35b61029e60048036038101906102999190612480565b611a52565b005b6102a8611bfb565b6040516102b59190612abf565b60405180910390f35b8260046000838152602001908152602001600020546000851180156102e557506007548511155b610324576040517f08c379a000000000000000000000000000000000000000000000000000000000815260040161031b90612c72565b60405180910390fd5b600060046000858152602001908152602001600020541161037a576040517f08c379a000000000000000000000000000000000000000000000000000000000815260040161037190612bd2565b60405180910390fd5b60056000868152602001908152602001600020600101546005600087815260200190815260200160002060040154106103e8576040517f08c379a00000000000000000000000000000000000000000000000000000000081526004016103df90612b72565b60405180910390fd5b6005600086815260200190815260200160002060010154610428856005600089815260200190815260200160002060040154611e0c90919063ffffffff16565b11156104705761046d60056000878152602001908152602001600020600401546005600088815260200190815260200160002060010154611e6a90919063ffffffff16565b93505b60056000868152602001908152602001600020600201548411156104c9576040517f08c379a00000000000000000000000000000000000000000000000000000000081526004016104c090612c32565b60405180910390fd5b600660003373ffffffffffffffffffffffffffffffffffffffff1673ffffffffffffffffffffffffffffffffffffffff168152602001908152602001600020600086815260200190815260200160002060050160009054906101000a900460ff161561056a576040517f08c379a000000000000000000000000000000000000000000000000000000000815260040161056190612d72565b60405180910390fd5b610593846005600088815260200190815260200160002060040154611e0c90919063ffffffff16565b60056000878152602001908152602001600020600401819055506001600660003373ffffffffffffffffffffffffffffffffffffffff1673ffffffffffffffffffffffffffffffffffffffff168152602001908152602001600020600087815260200190815260200160002060050160006101000a81548160ff02191690831515021790555083600660003373ffffffffffffffffffffffffffffffffffffffff1673ffffffffffffffffffffffffffffffffffffffff16815260200190815260200160002060008781526020019081526020016000206001018190555084600660003373ffffffffffffffffffffffffffffffffffffffff1673ffffffffffffffffffffffffffffffffffffffff1681526020019081526020016000206000878152602001908152602001600020600001819055506004600084815260200190815260200160002054600660003373ffffffffffffffffffffffffffffffffffffffff1673ffffffffffffffffffffffffffffffffffffffff16815260200190815260200160002060008781526020019081526020016000206002018190555061075a426004600086815260200190815260200160002054611e0c90919063ffffffff16565b600660003373ffffffffffffffffffffffffffffffffffffffff1673ffffffffffffffffffffffffffffffffffffffff16815260200190815260200160002060008781526020019081526020016000206004018190555061082a620f424061081c6301e1338061080e6004600089815260200190815260200160002054610800600560008d8152602001908152602001600020600301548b611eb490919063ffffffff16565b611eb490919063ffffffff16565b611f2f90919063ffffffff16565b611f2f90919063ffffffff16565b600660003373ffffffffffffffffffffffffffffffffffffffff1673ffffffffffffffffffffffffffffffffffffffff1681526020019081526020016000206000878152602001908152602001600020600301819055506108fd600660003373ffffffffffffffffffffffffffffffffffffffff1673ffffffffffffffffffffffffffffffffffffffff1681526020019081526020016000206000878152602001908152602001600020600301546005600088815260200190815260200160002060050154611e0c90919063ffffffff16565b600560008781526020019081526020016000206005018190555061097a333086600560008a815260200190815260200160002060000160009054906101000a900473ffffffffffffffffffffffffffffffffffffffff1673ffffffffffffffffffffffffffffffffffffffff16611f79909392919063ffffffff16565b60046000848152602001908152602001600020543373ffffffffffffffffffffffffffffffffffffffff16867fd36a2f67d06d285786f61a32b052b9ace6b0b7abef5177b54358abdc83a0b69b876040516109d59190612d92565b60405180910390a46001600083815260200190815260200160002054610a048242611e0c90919063ffffffff16565b1115610a3557610a1d8142611e0c90919063ffffffff16565b60016000848152602001908152602001600020819055505b600560008381526020019081526020016000206004015460056000848152602001908152602001600020600101541415610c3d57600160008381526020019081526020016000205460056000848152602001908152602001600020600601819055506005600083815260200190815260200160002060060154827f1b8284672158da8930cb9b814409971e2e9d8a323d89e3c6f46e3f32f1b22f7660405160405180910390a36000610b1960056000858152602001908152602001600020600501546002600086815260200190815260200160002054611e6a90919063ffffffff16565b90506000811115610c3b57610bb86003600085815260200190815260200160002060009054906101000a900473ffffffffffffffffffffffffffffffffffffffff16826005600087815260200190815260200160002060000160009054906101000a900473ffffffffffffffffffffffffffffffffffffffff1673ffffffffffffffffffffffffffffffffffffffff166120029092919063ffffffff16565b6003600084815260200190815260200160002060009054906101000a900473ffffffffffffffffffffffffffffffffffffffff1673ffffffffffffffffffffffffffffffffffffffff16837f078adc74fdf8138ee67abf1000e6a701ff642aa209d0dfa6a31b4c6ce6cff06c83604051610c329190612d92565b60405180910390a35b505b5050505050565b6060600080600190505b6007548111610c965742600560008381526020019081526020016000206006015411610c83578180610c7f90613092565b9250505b8080610c8e90613092565b915050610c4e565b5060008167ffffffffffffffff811115610cd9577f4e487b7100000000000000000000000000000000000000000000000000000000600052604160045260246000fd5b604051908082528060200260200182016040528015610d1257816020015b610cff6123c4565b815260200190600190039081610cf75790505b5090506000600190505b6007548111610e4a5742600560008381526020019081526020016000206006015411610e3757600560008281526020019081526020016000206040518060e00160405290816000820160009054906101000a900473ffffffffffffffffffffffffffffffffffffffff1673ffffffffffffffffffffffffffffffffffffffff1673ffffffffffffffffffffffffffffffffffffffff1681526020016001820154815260200160028201548152602001600382015481526020016004820154815260200160058201548152602001600682015481525050828281518110610e2b577f4e487b7100000000000000000000000000000000000000000000000000000000600052603260045260246000fd5b60200260200101819052505b8080610e4290613092565b915050610d1c565b50809250505090565b600081118015610e6557506007548111155b610ea4576040517f08c379a0000000000000000000000000000000000000000000000000000000008152600401610e9b90612c72565b60405180910390fd5b6000600660003373ffffffffffffffffffffffffffffffffffffffff1673ffffffffffffffffffffffffffffffffffffffff1681526020019081526020016000206000838152602001908152602001600020905080600401544211610f3e576040517f08c379a0000000000000000000000000000000000000000000000000000000008152600401610f3590612cb2565b60405180910390fd5b6000816001015411610f85576040517f08c379a0000000000000000000000000000000000000000000000000000000008152600401610f7c90612bf2565b60405180910390fd5b6000816001015490506000826001018190555060008260050160006101000a81548160ff02191690831515021790555061101a3382600560008660000154815260200190815260200160002060000160009054906101000a900473ffffffffffffffffffffffffffffffffffffffff1673ffffffffffffffffffffffffffffffffffffffff166120029092919063ffffffff16565b3373ffffffffffffffffffffffffffffffffffffffff1682600001547f9da6493a92039daf47d1f2d7a782299c5994c6323eb1e972f69c432089ec52bf836040516110659190612d92565b60405180910390a3505050565b60036020528060005260406000206000915054906101000a900473ffffffffffffffffffffffffffffffffffffffff1681565b6006602052816000526040600020602052806000526040600020600091509150508060000154908060010154908060020154908060030154908060040154908060050160009054906101000a900460ff16905086565b611103612088565b73ffffffffffffffffffffffffffffffffffffffff1661112161149a565b73ffffffffffffffffffffffffffffffffffffffff1614611177576040517f08c379a000000000000000000000000000000000000000000000000000000000815260040161116e90612cf2565b60405180910390fd5b600073ffffffffffffffffffffffffffffffffffffffff168473ffffffffffffffffffffffffffffffffffffffff1614156111e7576040517f08c379a00000000000000000000000000000000000000000000000000000000081526004016111de90612bb2565b60405180910390fd5b8373ffffffffffffffffffffffffffffffffffffffff166370a08231306040518263ffffffff1660e01b81526004016112209190612a44565b60206040518083038186803b15801561123857600080fd5b505afa15801561124c573d6000803e3d6000fd5b505050506040513d601f19601f82011682018060405250810190611270919061259a565b506007600081548092919061128490613092565b919050555060006005600060075481526020019081526020016000209050818160030181905550848160000160006101000a81548173ffffffffffffffffffffffffffffffffffffffff021916908373ffffffffffffffffffffffffffffffffffffffff1602179055508381600101819055508281600201819055507fe6c3ea92eec7a9dedf2962e03f6cbed7bbf237fac8c2a939c55c979bd7f6471860075486868686604051611339959493929190612dad565b60405180910390a15050505050565b611350612088565b73ffffffffffffffffffffffffffffffffffffffff1661136e61149a565b73ffffffffffffffffffffffffffffffffffffffff16146113c4576040517f08c379a00000000000000000000000000000000000000000000000000000000081526004016113bb90612cf2565b60405180910390fd5b600073ffffffffffffffffffffffffffffffffffffffff1660008054906101000a900473ffffffffffffffffffffffffffffffffffffffff1673ffffffffffffffffffffffffffffffffffffffff167f8be0079c531659141344cd1fd0a4f28419497f9722a3daafe3b4186f6b6457e060405160405180910390a360008060006101000a81548173ffffffffffffffffffffffffffffffffffffffff021916908373ffffffffffffffffffffffffffffffffffffffff160217905550565b60046020528060005260406000206000915090505481565b60008060009054906101000a900473ffffffffffffffffffffffffffffffffffffffff16905090565b6000811180156114d557506007548111155b611514576040517f08c379a000000000000000000000000000000000000000000000000000000000815260040161150b90612c72565b60405180910390fd5b6000600560008381526020019081526020016000206040518060e00160405290816000820160009054906101000a900473ffffffffffffffffffffffffffffffffffffffff1673ffffffffffffffffffffffffffffffffffffffff1673ffffffffffffffffffffffffffffffffffffffff168152602001600182015481526020016002820154815260200160038201548152602001600482015481526020016005820154815260200160068201548152505090506000600260008481526020019081526020016000205414801561164a5750600073ffffffffffffffffffffffffffffffffffffffff166003600084815260200190815260200160002060009054906101000a900473ffffffffffffffffffffffffffffffffffffffff1673ffffffffffffffffffffffffffffffffffffffff16145b611689576040517f08c379a000000000000000000000000000000000000000000000000000000000815260040161168090612d12565b60405180910390fd5b60006116f7620f42406116e96301e133806116db6004600060048152602001908152602001600020546116cd88606001518960200151611eb490919063ffffffff16565b611eb490919063ffffffff16565b611f2f90919063ffffffff16565b611f2f90919063ffffffff16565b9050806002600085815260200190815260200160002081905550336003600085815260200190815260200160002060006101000a81548173ffffffffffffffffffffffffffffffffffffffff021916908373ffffffffffffffffffffffffffffffffffffffff160217905550611794333083856000015173ffffffffffffffffffffffffffffffffffffffff16611f79909392919063ffffffff16565b3373ffffffffffffffffffffffffffffffffffffffff16837f6c86ce4ec33941039baab384b371875d3aaa8a3aad1496705068436c7ab36338836040516117db9190612d92565b60405180910390a3505050565b60056020528060005260406000206000915090508060000160009054906101000a900473ffffffffffffffffffffffffffffffffffffffff16908060010154908060020154908060030154908060040154908060050154908060060154905087565b60008111801561185c57506007548111155b61189b576040517f08c379a000000000000000000000000000000000000000000000000000000000815260040161189290612c72565b60405180910390fd5b6000600660003373ffffffffffffffffffffffffffffffffffffffff1673ffffffffffffffffffffffffffffffffffffffff1681526020019081526020016000206000838152602001908152602001600020905080600401544211611935576040517f08c379a000000000000000000000000000000000000000000000000000000000815260040161192c90612cb2565b60405180910390fd5b600081600301541161197c576040517f08c379a000000000000000000000000000000000000000000000000000000000815260040161197390612c52565b60405180910390fd5b600081600301549050600082600301819055506119f43382600560008660000154815260200190815260200160002060000160009054906101000a900473ffffffffffffffffffffffffffffffffffffffff1673ffffffffffffffffffffffffffffffffffffffff166120029092919063ffffffff16565b3373ffffffffffffffffffffffffffffffffffffffff1682600001547f393ccd03ff98115189a2796d79ffa176e434468dbeea90a87972324be8c5071883604051611a3f9190612d92565b60405180910390a3505050565b60075481565b611a5a612088565b73ffffffffffffffffffffffffffffffffffffffff16611a7861149a565b73ffffffffffffffffffffffffffffffffffffffff1614611ace576040517f08c379a0000000000000000000000000000000000000000000000000000000008152600401611ac590612cf2565b60405180910390fd5b600073ffffffffffffffffffffffffffffffffffffffff168173ffffffffffffffffffffffffffffffffffffffff161415611b3e576040517f08c379a0000000000000000000000000000000000000000000000000000000008152600401611b3590612b92565b60405180910390fd5b8073ffffffffffffffffffffffffffffffffffffffff1660008054906101000a900473ffffffffffffffffffffffffffffffffffffffff1673ffffffffffffffffffffffffffffffffffffffff167f8be0079c531659141344cd1fd0a4f28419497f9722a3daafe3b4186f6b6457e060405160405180910390a3806000806101000a81548173ffffffffffffffffffffffffffffffffffffffff021916908373ffffffffffffffffffffffffffffffffffffffff16021790555050565b6060600080600190505b6007548111611c4e574260056000838152602001908152602001600020600601541115611c3b578180611c3790613092565b9250505b8080611c4690613092565b915050611c05565b5060008167ffffffffffffffff811115611c91577f4e487b7100000000000000000000000000000000000000000000000000000000600052604160045260246000fd5b604051908082528060200260200182016040528015611cca57816020015b611cb76123c4565b815260200190600190039081611caf5790505b5090506000600190505b6007548111611e03574260056000838152602001908152602001600020600601541115611df057600560008281526020019081526020016000206040518060e00160405290816000820160009054906101000a900473ffffffffffffffffffffffffffffffffffffffff1673ffffffffffffffffffffffffffffffffffffffff1673ffffffffffffffffffffffffffffffffffffffff1681526020016001820154815260200160028201548152602001600382015481526020016004820154815260200160058201548152602001600682015481525050828281518110611de4577f4e487b7100000000000000000000000000000000000000000000000000000000600052603260045260246000fd5b60200260200101819052505b8080611dfb90613092565b915050611cd4565b50809250505090565b6000808284611e1b9190612ecc565b905083811015611e60576040517f08c379a0000000000000000000000000000000000000000000000000000000008152600401611e5790612c12565b60405180910390fd5b8091505092915050565b6000611eac83836040518060400160405280601e81526020017f536166654d6174683a207375627472616374696f6e206f766572666c6f770000815250612090565b905092915050565b600080831415611ec75760009050611f29565b60008284611ed59190612f53565b9050828482611ee49190612f22565b14611f24576040517f08c379a0000000000000000000000000000000000000000000000000000000008152600401611f1b90612cd2565b60405180910390fd5b809150505b92915050565b6000611f7183836040518060400160405280601a81526020017f536166654d6174683a206469766973696f6e206279207a65726f0000000000008152506120f4565b905092915050565b611ffc846323b872dd60e01b858585604051602401611f9a93929190612a5f565b604051602081830303815290604052907bffffffffffffffffffffffffffffffffffffffffffffffffffffffff19166020820180517bffffffffffffffffffffffffffffffffffffffffffffffffffffffff8381831617835250505050612157565b50505050565b6120838363a9059cbb60e01b8484604051602401612021929190612a96565b604051602081830303815290604052907bffffffffffffffffffffffffffffffffffffffffffffffffffffffff19166020820180517bffffffffffffffffffffffffffffffffffffffffffffffffffffffff8381831617835250505050612157565b505050565b600033905090565b60008383111582906120d8576040517f08c379a00000000000000000000000000000000000000000000000000000000081526004016120cf9190612b50565b60405180910390fd5b50600083856120e79190612fad565b9050809150509392505050565b6000808311829061213b576040517f08c379a00000000000000000000000000000000000000000000000000000000081526004016121329190612b50565b60405180910390fd5b506000838561214a9190612f22565b9050809150509392505050565b60006121b9826040518060400160405280602081526020017f5361666545524332303a206c6f772d6c6576656c2063616c6c206661696c65648152508573ffffffffffffffffffffffffffffffffffffffff1661221e9092919063ffffffff16565b905060008151111561221957808060200190518101906121d991906124e5565b612218576040517f08c379a000000000000000000000000000000000000000000000000000000000815260040161220f90612d52565b60405180910390fd5b5b505050565b606061222d8484600085612236565b90509392505050565b60608247101561227b576040517f08c379a000000000000000000000000000000000000000000000000000000000815260040161227290612c92565b60405180910390fd5b6122848561234a565b6122c3576040517f08c379a00000000000000000000000000000000000000000000000000000000081526004016122ba90612d32565b60405180910390fd5b6000808673ffffffffffffffffffffffffffffffffffffffff1685876040516122ec9190612a2d565b60006040518083038185875af1925050503d8060008114612329576040519150601f19603f3d011682016040523d82523d6000602084013e61232e565b606091505b509150915061233e82828661235d565b92505050949350505050565b600080823b905060008111915050919050565b6060831561236d578290506123bd565b6000835111156123805782518084602001fd5b816040517f08c379a00000000000000000000000000000000000000000000000000000000081526004016123b49190612b50565b60405180910390fd5b9392505050565b6040518060e00160405280600073ffffffffffffffffffffffffffffffffffffffff1681526020016000815260200160008152602001600081526020016000815260200160008152602001600081525090565b60008135905061242681613559565b92915050565b60008151905061243b81613570565b92915050565b60008135905061245081613587565b92915050565b6000813590506124658161359e565b92915050565b60008151905061247a8161359e565b92915050565b60006020828403121561249257600080fd5b60006124a084828501612417565b91505092915050565b600080604083850312156124bc57600080fd5b60006124ca85828601612417565b92505060206124db85828601612456565b9150509250929050565b6000602082840312156124f757600080fd5b60006125058482850161242c565b91505092915050565b6000806000806080858703121561252457600080fd5b600061253287828801612441565b945050602061254387828801612456565b935050604061255487828801612456565b925050606061256587828801612456565b91505092959194509250565b60006020828403121561258357600080fd5b600061259184828501612456565b91505092915050565b6000602082840312156125ac57600080fd5b60006125ba8482850161246b565b91505092915050565b6000806000606084860312156125d857600080fd5b60006125e686828701612456565b93505060206125f786828701612456565b925050604061260886828701612456565b9150509250925092565b600061261e8383612981565b60e08301905092915050565b61263381612fe1565b82525050565b600061264482612e71565b61264e8185612e9f565b935061265983612e61565b8060005b8381101561268a5781516126718882612612565b975061267c83612e92565b92505060018101905061265d565b5085935050505092915050565b6126a081612ff3565b82525050565b60006126b182612e7c565b6126bb8185612eb0565b93506126cb81856020860161305f565b80840191505092915050565b6126e08161303b565b82525050565b6126ef8161303b565b82525050565b600061270082612e87565b61270a8185612ebb565b935061271a81856020860161305f565b61272381613139565b840191505092915050565b600061273b601483612ebb565b91506127468261314a565b602082019050919050565b600061275e602683612ebb565b915061276982613173565b604082019050919050565b6000612781601b83612ebb565b915061278c826131c2565b602082019050919050565b60006127a4601983612ebb565b91506127af826131eb565b602082019050919050565b60006127c7602483612ebb565b91506127d282613214565b604082019050919050565b60006127ea601b83612ebb565b91506127f582613263565b602082019050919050565b600061280d601d83612ebb565b91506128188261328c565b602082019050919050565b6000612830602383612ebb565b915061283b826132b5565b604082019050919050565b6000612853601a83612ebb565b915061285e82613304565b602082019050919050565b6000612876602683612ebb565b91506128818261332d565b604082019050919050565b6000612899602383612ebb565b91506128a48261337c565b604082019050919050565b60006128bc602183612ebb565b91506128c7826133cb565b604082019050919050565b60006128df602083612ebb565b91506128ea8261341a565b602082019050919050565b6000612902602983612ebb565b915061290d82613443565b604082019050919050565b6000612925601d83612ebb565b915061293082613492565b602082019050919050565b6000612948602a83612ebb565b9150612953826134bb565b604082019050919050565b600061296b603783612ebb565b91506129768261350a565b604082019050919050565b60e08201600082015161299760008501826126d7565b5060208201516129aa6020850182612a0f565b5060408201516129bd6040850182612a0f565b5060608201516129d06060850182612a0f565b5060808201516129e36080850182612a0f565b5060a08201516129f660a0850182612a0f565b5060c0820151612a0960c0850182612a0f565b50505050565b612a1881613031565b82525050565b612a2781613031565b82525050565b6000612a3982846126a6565b915081905092915050565b6000602082019050612a59600083018461262a565b92915050565b6000606082019050612a74600083018661262a565b612a81602083018561262a565b612a8e6040830184612a1e565b949350505050565b6000604082019050612aab600083018561262a565b612ab86020830184612a1e565b9392505050565b60006020820190508181036000830152612ad98184612639565b905092915050565b600060e082019050612af6600083018a6126e6565b612b036020830189612a1e565b612b106040830188612a1e565b612b1d6060830187612a1e565b612b2a6080830186612a1e565b612b3760a0830185612a1e565b612b4460c0830184612a1e565b98975050505050505050565b60006020820190508181036000830152612b6a81846126f5565b905092915050565b60006020820190508181036000830152612b8b8161272e565b9050919050565b60006020820190508181036000830152612bab81612751565b9050919050565b60006020820190508181036000830152612bcb81612774565b9050919050565b60006020820190508181036000830152612beb81612797565b9050919050565b60006020820190508181036000830152612c0b816127ba565b9050919050565b60006020820190508181036000830152612c2b816127dd565b9050919050565b60006020820190508181036000830152612c4b81612800565b9050919050565b60006020820190508181036000830152612c6b81612823565b9050919050565b60006020820190508181036000830152612c8b81612846565b9050919050565b60006020820190508181036000830152612cab81612869565b9050919050565b60006020820190508181036000830152612ccb8161288c565b9050919050565b60006020820190508181036000830152612ceb816128af565b9050919050565b60006020820190508181036000830152612d0b816128d2565b9050919050565b60006020820190508181036000830152612d2b816128f5565b9050919050565b60006020820190508181036000830152612d4b81612918565b9050919050565b60006020820190508181036000830152612d6b8161293b565b9050919050565b60006020820190508181036000830152612d8b8161295e565b9050919050565b6000602082019050612da76000830184612a1e565b92915050565b600060a082019050612dc26000830188612a1e565b612dcf602083018761262a565b612ddc6040830186612a1e565b612de96060830185612a1e565b612df66080830184612a1e565b9695505050505050565b600060c082019050612e156000830189612a1e565b612e226020830188612a1e565b612e2f6040830187612a1e565b612e3c6060830186612a1e565b612e496080830185612a1e565b612e5660a0830184612697565b979650505050505050565b6000819050602082019050919050565b600081519050919050565b600081519050919050565b600081519050919050565b6000602082019050919050565b600082825260208201905092915050565b600081905092915050565b600082825260208201905092915050565b6000612ed782613031565b9150612ee283613031565b9250827fffffffffffffffffffffffffffffffffffffffffffffffffffffffffffffffff03821115612f1757612f166130db565b5b828201905092915050565b6000612f2d82613031565b9150612f3883613031565b925082612f4857612f4761310a565b5b828204905092915050565b6000612f5e82613031565b9150612f6983613031565b9250817fffffffffffffffffffffffffffffffffffffffffffffffffffffffffffffffff0483118215151615612fa257612fa16130db565b5b828202905092915050565b6000612fb882613031565b9150612fc383613031565b925082821015612fd657612fd56130db565b5b828203905092915050565b6000612fec82613011565b9050919050565b60008115159050919050565b600061300a82612fe1565b9050919050565b600073ffffffffffffffffffffffffffffffffffffffff82169050919050565b6000819050919050565b60006130468261304d565b9050919050565b600061305882613011565b9050919050565b60005b8381101561307d578082015181840152602081019050613062565b8381111561308c576000848401525b50505050565b600061309d82613031565b91507fffffffffffffffffffffffffffffffffffffffffffffffffffffffffffffffff8214156130d0576130cf6130db565b5b600182019050919050565b7f4e487b7100000000000000000000000000000000000000000000000000000000600052601160045260246000fd5b7f4e487b7100000000000000000000000000000000000000000000000000000000600052601260045260246000fd5b6000601f19601f8301169050919050565b7f486f6c643a204861726420636170206c696d6974000000000000000000000000600082015250565b7f4f776e61626c653a206e6577206f776e657220697320746865207a65726f206160008201527f6464726573730000000000000000000000000000000000000000000000000000602082015250565b7f486f6c643a20546f6b656e2061646472657373206973207a65726f0000000000600082015250565b7f486f6c643a20576974686f75742074686973206f7074696f6e00000000000000600082015250565b7f486f6c643a205468657265206973206e6f206465706f73697420746f2072656360008201527f6569766500000000000000000000000000000000000000000000000000000000602082015250565b7f536166654d6174683a206164646974696f6e206f766572666c6f770000000000600082015250565b7f486f6c643a20506572736f6e616c206861726420636170206c696d6974000000600082015250565b7f486f6c643a205468657265206973206e6f20696e636f6d6520746f207265636560008201527f6976650000000000000000000000000000000000000000000000000000000000602082015250565b7f486f6c643a2043616e27742066696e64207468697320706f6f6c000000000000600082015250565b7f416464726573733a20696e73756666696369656e742062616c616e636520666f60008201527f722063616c6c0000000000000000000000000000000000000000000000000000602082015250565b7f486f6c643a20556e6c6f636b696e672074696d65206973206e6f74207265616360008201527f6865640000000000000000000000000000000000000000000000000000000000602082015250565b7f536166654d6174683a206d756c7469706c69636174696f6e206f766572666c6f60008201527f7700000000000000000000000000000000000000000000000000000000000000602082015250565b7f4f776e61626c653a2063616c6c6572206973206e6f7420746865206f776e6572600082015250565b7f486f6c643a2054686520706f6f6c20696e74657265737420686173206265656e60008201527f20696e6a65637465640000000000000000000000000000000000000000000000602082015250565b7f416464726573733a2063616c6c20746f206e6f6e2d636f6e7472616374000000600082015250565b7f5361666545524332303a204552433230206f7065726174696f6e20646964206e60008201527f6f74207375636365656400000000000000000000000000000000000000000000602082015250565b7f486f6c643a20496e646976696475616c732063616e206f6e6c7920696e76657360008201527f74206f6e6365206174207468652073616d652074696d65000000000000000000602082015250565b61356281612fe1565b811461356d57600080fd5b50565b61357981612ff3565b811461358457600080fd5b50565b61359081612fff565b811461359b57600080fd5b50565b6135a781613031565b81146135b257600080fd5b5056fea26469706673582212209ff31aefa303c4f9ce1d1e245fbffc8cc7b34890c011b7b12525553278a4236564736f6c63430008040033",
  "linkReferences": {},
  "deployedLinkReferences": {}
}