{
  "_format": "hh-sol-artifact-1",
  "contractName": "AutoCairoPool",
  "sourceName": "contracts/farm/AutoCairoPool.sol",
  "abi": [
    {
      "inputs": [
        {
          "internalType": "contract IERC20",
          "name": "_token",
          "type": "address"
        },
        {
          "internalType": "contract IERC20",
          "name": "_receiptToken",
          "type": "address"
        },
        {
          "internalType": "contract IMasterChef",
          "name": "_masterchef",
          "type": "address"
        },
        {
          "internalType": "address",
          "name": "_admin",
          "type": "address"
        },
        {
          "internalType": "address",
          "name": "_treasury",
          "type": "address"
        }
      ],
      "stateMutability": "nonpayable",
      "type": "constructor"
    },
    {
      "anonymous": false,
      "inputs": [
        {
          "indexed": true,
          "internalType": "address",
          "name": "sender",
          "type": "address"
        },
        {
          "indexed": false,
          "internalType": "uint256",
          "name": "amount",
          "type": "uint256"
        },
        {
          "indexed": false,
          "internalType": "uint256",
          "name": "shares",
          "type": "uint256"
        },
        {
          "indexed": false,
          "internalType": "uint256",
          "name": "lastDepositedTime",
          "type": "uint256"
        }
      ],
      "name": "Deposit",
      "type": "event"
    },
    {
      "anonymous": false,
      "inputs": [
        {
          "indexed": true,
          "internalType": "address",
          "name": "sender",
          "type": "address"
        },
        {
          "indexed": false,
          "internalType": "uint256",
          "name": "performanceFee",
          "type": "uint256"
        },
        {
          "indexed": false,
          "internalType": "uint256",
          "name": "callFee",
          "type": "uint256"
        }
      ],
      "name": "Harvest",
      "type": "event"
    },
    {
      "anonymous": false,
      "inputs": [
        {
          "indexed": true,
          "internalType": "address",
          "name": "previousOwner",
          "type": "address"
        },
        {
          "indexed": true,
          "internalType": "address",
          "name": "newOwner",
          "type": "address"
        }
      ],
      "name": "OwnershipTransferred",
      "type": "event"
    },
    {
      "anonymous": false,
      "inputs": [],
      "name": "Pause",
      "type": "event"
    },
    {
      "anonymous": false,
      "inputs": [
        {
          "indexed": false,
          "internalType": "address",
          "name": "account",
          "type": "address"
        }
      ],
      "name": "Paused",
      "type": "event"
    },
    {
      "anonymous": false,
      "inputs": [],
      "name": "Unpause",
      "type": "event"
    },
    {
      "anonymous": false,
      "inputs": [
        {
          "indexed": false,
          "internalType": "address",
          "name": "account",
          "type": "address"
        }
      ],
      "name": "Unpaused",
      "type": "event"
    },
    {
      "anonymous": false,
      "inputs": [
        {
          "indexed": true,
          "internalType": "address",
          "name": "sender",
          "type": "address"
        },
        {
          "indexed": false,
          "internalType": "uint256",
          "name": "amount",
          "type": "uint256"
        },
        {
          "indexed": false,
          "internalType": "uint256",
          "name": "shares",
          "type": "uint256"
        }
      ],
      "name": "Withdraw",
      "type": "event"
    },
    {
      "inputs": [],
      "name": "MAX_CALL_FEE",
      "outputs": [
        {
          "internalType": "uint256",
          "name": "",
          "type": "uint256"
        }
      ],
      "stateMutability": "view",
      "type": "function"
    },
    {
      "inputs": [],
      "name": "MAX_PERFORMANCE_FEE",
      "outputs": [
        {
          "internalType": "uint256",
          "name": "",
          "type": "uint256"
        }
      ],
      "stateMutability": "view",
      "type": "function"
    },
    {
      "inputs": [],
      "name": "MAX_WITHDRAW_FEE",
      "outputs": [
        {
          "internalType": "uint256",
          "name": "",
          "type": "uint256"
        }
      ],
      "stateMutability": "view",
      "type": "function"
    },
    {
      "inputs": [],
      "name": "MAX_WITHDRAW_FEE_PERIOD",
      "outputs": [
        {
          "internalType": "uint256",
          "name": "",
          "type": "uint256"
        }
      ],
      "stateMutability": "view",
      "type": "function"
    },
    {
      "inputs": [],
      "name": "admin",
      "outputs": [
        {
          "internalType": "address",
          "name": "",
          "type": "address"
        }
      ],
      "stateMutability": "view",
      "type": "function"
    },
    {
      "inputs": [],
      "name": "available",
      "outputs": [
        {
          "internalType": "uint256",
          "name": "",
          "type": "uint256"
        }
      ],
      "stateMutability": "view",
      "type": "function"
    },
    {
      "inputs": [],
      "name": "balanceOf",
      "outputs": [
        {
          "internalType": "uint256",
          "name": "",
          "type": "uint256"
        }
      ],
      "stateMutability": "view",
      "type": "function"
    },
    {
      "inputs": [],
      "name": "calculateHarvestCakeRewards",
      "outputs": [
        {
          "internalType": "uint256",
          "name": "",
          "type": "uint256"
        }
      ],
      "stateMutability": "view",
      "type": "function"
    },
    {
      "inputs": [],
      "name": "calculateTotalPendingCakeRewards",
      "outputs": [
        {
          "internalType": "uint256",
          "name": "",
          "type": "uint256"
        }
      ],
      "stateMutability": "view",
      "type": "function"
    },
    {
      "inputs": [],
      "name": "callFee",
      "outputs": [
        {
          "internalType": "uint256",
          "name": "",
          "type": "uint256"
        }
      ],
      "stateMutability": "view",
      "type": "function"
    },
    {
      "inputs": [
        {
          "internalType": "uint256",
          "name": "_amount",
          "type": "uint256"
        }
      ],
      "name": "deposit",
      "outputs": [],
      "stateMutability": "nonpayable",
      "type": "function"
    },
    {
      "inputs": [],
      "name": "emergencyWithdraw",
      "outputs": [],
      "stateMutability": "nonpayable",
      "type": "function"
    },
    {
      "inputs": [],
      "name": "getPricePerFullShare",
      "outputs": [
        {
          "internalType": "uint256",
          "name": "",
          "type": "uint256"
        }
      ],
      "stateMutability": "view",
      "type": "function"
    },
    {
      "inputs": [],
      "name": "harvest",
      "outputs": [],
      "stateMutability": "nonpayable",
      "type": "function"
    },
    {
      "inputs": [
        {
          "internalType": "address",
          "name": "_token",
          "type": "address"
        }
      ],
      "name": "inCaseTokensGetStuck",
      "outputs": [],
      "stateMutability": "nonpayable",
      "type": "function"
    },
    {
      "inputs": [],
      "name": "lastHarvestedTime",
      "outputs": [
        {
          "internalType": "uint256",
          "name": "",
          "type": "uint256"
        }
      ],
      "stateMutability": "view",
      "type": "function"
    },
    {
      "inputs": [],
      "name": "masterchef",
      "outputs": [
        {
          "internalType": "contract IMasterChef",
          "name": "",
          "type": "address"
        }
      ],
      "stateMutability": "view",
      "type": "function"
    },
    {
      "inputs": [],
      "name": "owner",
      "outputs": [
        {
          "internalType": "address",
          "name": "",
          "type": "address"
        }
      ],
      "stateMutability": "view",
      "type": "function"
    },
    {
      "inputs": [],
      "name": "pause",
      "outputs": [],
      "stateMutability": "nonpayable",
      "type": "function"
    },
    {
      "inputs": [],
      "name": "paused",
      "outputs": [
        {
          "internalType": "bool",
          "name": "",
          "type": "bool"
        }
      ],
      "stateMutability": "view",
      "type": "function"
    },
    {
      "inputs": [],
      "name": "performanceFee",
      "outputs": [
        {
          "internalType": "uint256",
          "name": "",
          "type": "uint256"
        }
      ],
      "stateMutability": "view",
      "type": "function"
    },
    {
      "inputs": [],
      "name": "receiptToken",
      "outputs": [
        {
          "internalType": "contract IERC20",
          "name": "",
          "type": "address"
        }
      ],
      "stateMutability": "view",
      "type": "function"
    },
    {
      "inputs": [],
      "name": "renounceOwnership",
      "outputs": [],
      "stateMutability": "nonpayable",
      "type": "function"
    },
    {
      "inputs": [
        {
          "internalType": "address",
          "name": "_admin",
          "type": "address"
        }
      ],
      "name": "setAdmin",
      "outputs": [],
      "stateMutability": "nonpayable",
      "type": "function"
    },
    {
      "inputs": [
        {
          "internalType": "uint256",
          "name": "_callFee",
          "type": "uint256"
        }
      ],
      "name": "setCallFee",
      "outputs": [],
      "stateMutability": "nonpayable",
      "type": "function"
    },
    {
      "inputs": [
        {
          "internalType": "uint256",
          "name": "_performanceFee",
          "type": "uint256"
        }
      ],
      "name": "setPerformanceFee",
      "outputs": [],
      "stateMutability": "nonpayable",
      "type": "function"
    },
    {
      "inputs": [
        {
          "internalType": "address",
          "name": "_treasury",
          "type": "address"
        }
      ],
      "name": "setTreasury",
      "outputs": [],
      "stateMutability": "nonpayable",
      "type": "function"
    },
    {
      "inputs": [
        {
          "internalType": "uint256",
          "name": "_withdrawFee",
          "type": "uint256"
        }
      ],
      "name": "setWithdrawFee",
      "outputs": [],
      "stateMutability": "nonpayable",
      "type": "function"
    },
    {
      "inputs": [
        {
          "internalType": "uint256",
          "name": "_withdrawFeePeriod",
          "type": "uint256"
        }
      ],
      "name": "setWithdrawFeePeriod",
      "outputs": [],
      "stateMutability": "nonpayable",
      "type": "function"
    },
    {
      "inputs": [],
      "name": "token",
      "outputs": [
        {
          "internalType": "contract IERC20",
          "name": "",
          "type": "address"
        }
      ],
      "stateMutability": "view",
      "type": "function"
    },
    {
      "inputs": [],
      "name": "totalShares",
      "outputs": [
        {
          "internalType": "uint256",
          "name": "",
          "type": "uint256"
        }
      ],
      "stateMutability": "view",
      "type": "function"
    },
    {
      "inputs": [
        {
          "internalType": "address",
          "name": "newOwner",
          "type": "address"
        }
      ],
      "name": "transferOwnership",
      "outputs": [],
      "stateMutability": "nonpayable",
      "type": "function"
    },
    {
      "inputs": [],
      "name": "treasury",
      "outputs": [
        {
          "internalType": "address",
          "name": "",
          "type": "address"
        }
      ],
      "stateMutability": "view",
      "type": "function"
    },
    {
      "inputs": [],
      "name": "unpause",
      "outputs": [],
      "stateMutability": "nonpayable",
      "type": "function"
    },
    {
      "inputs": [
        {
          "internalType": "address",
          "name": "",
          "type": "address"
        }
      ],
      "name": "userInfo",
      "outputs": [
        {
          "internalType": "uint256",
          "name": "shares",
          "type": "uint256"
        },
        {
          "internalType": "uint256",
          "name": "lastDepositedTime",
          "type": "uint256"
        },
        {
          "internalType": "uint256",
          "name": "cakeAtLastUserAction",
          "type": "uint256"
        },
        {
          "internalType": "uint256",
          "name": "lastUserActionTime",
          "type": "uint256"
        }
      ],
      "stateMutability": "view",
      "type": "function"
    },
    {
      "inputs": [
        {
          "internalType": "uint256",
          "name": "_shares",
          "type": "uint256"
        }
      ],
      "name": "withdraw",
      "outputs": [],
      "stateMutability": "nonpayable",
      "type": "function"
    },
    {
      "inputs": [],
      "name": "withdrawAll",
      "outputs": [],
      "stateMutability": "nonpayable",
      "type": "function"
    },
    {
      "inputs": [],
      "name": "withdrawFee",
      "outputs": [
        {
          "internalType": "uint256",
          "name": "",
          "type": "uint256"
        }
      ],
      "stateMutability": "view",
      "type": "function"
    },
    {
      "inputs": [],
      "name": "withdrawFeePeriod",
      "outputs": [
        {
          "internalType": "uint256",
          "name": "",
          "type": "uint256"
        }
      ],
      "stateMutability": "view",
      "type": "function"
    }
  ],
  "bytecode": "0x60e060405260c86006556019600755600a6008556203f4806009553480156200002757600080fd5b50604051620054ea380380620054ea83398181016040528101906200004d919062000994565b60006200005f620004da60201b60201c565b9050806000806101000a81548173ffffffffffffffffffffffffffffffffffffffff021916908373ffffffffffffffffffffffffffffffffffffffff1602179055508073ffffffffffffffffffffffffffffffffffffffff16600073ffffffffffffffffffffffffffffffffffffffff167f8be0079c531659141344cd1fd0a4f28419497f9722a3daafe3b4186f6b6457e060405160405180910390a35060008060146101000a81548160ff021916908315150217905550600073ffffffffffffffffffffffffffffffffffffffff168573ffffffffffffffffffffffffffffffffffffffff1614156200018a576040517f08c379a0000000000000000000000000000000000000000000000000000000008152600401620001819062000cd2565b60405180910390fd5b600073ffffffffffffffffffffffffffffffffffffffff168473ffffffffffffffffffffffffffffffffffffffff161415620001fd576040517f08c379a0000000000000000000000000000000000000000000000000000000008152600401620001f49062000d9e565b60405180910390fd5b600073ffffffffffffffffffffffffffffffffffffffff168373ffffffffffffffffffffffffffffffffffffffff16141562000270576040517f08c379a0000000000000000000000000000000000000000000000000000000008152600401620002679062000d38565b60405180910390fd5b600073ffffffffffffffffffffffffffffffffffffffff168273ffffffffffffffffffffffffffffffffffffffff161415620002e3576040517f08c379a0000000000000000000000000000000000000000000000000000000008152600401620002da9062000dc0565b60405180910390fd5b600073ffffffffffffffffffffffffffffffffffffffff168173ffffffffffffffffffffffffffffffffffffffff16141562000356576040517f08c379a00000000000000000000000000000000000000000000000000000000081526004016200034d9062000d16565b60405180910390fd5b8473ffffffffffffffffffffffffffffffffffffffff1660808173ffffffffffffffffffffffffffffffffffffffff1660601b815250508373ffffffffffffffffffffffffffffffffffffffff1660a08173ffffffffffffffffffffffffffffffffffffffff1660601b815250508273ffffffffffffffffffffffffffffffffffffffff1660c08173ffffffffffffffffffffffffffffffffffffffff1660601b8152505081600460006101000a81548173ffffffffffffffffffffffffffffffffffffffff021916908373ffffffffffffffffffffffffffffffffffffffff16021790555080600560006101000a81548173ffffffffffffffffffffffffffffffffffffffff021916908373ffffffffffffffffffffffffffffffffffffffff160217905550620004cf837fffffffffffffffffffffffffffffffffffffffffffffffffffffffffffffffff8773ffffffffffffffffffffffffffffffffffffffff16620004e260201b620028ff179092919060201c565b5050505050620011c6565b600033905090565b600081148062000582575060008373ffffffffffffffffffffffffffffffffffffffff1663dd62ed3e30856040518363ffffffff1660e01b81526004016200052c92919062000c54565b60206040518083038186803b1580156200054557600080fd5b505afa1580156200055a573d6000803e3d6000fd5b505050506040513d601f19601f8201168201806040525081019062000580919062000a16565b145b620005c4576040517f08c379a0000000000000000000000000000000000000000000000000000000008152600401620005bb9062000de2565b60405180910390fd5b6200064f8363095ea7b360e01b8484604051602401620005e692919062000c81565b604051602081830303815290604052907bffffffffffffffffffffffffffffffffffffffffffffffffffffffff19166020820180517bffffffffffffffffffffffffffffffffffffffffffffffffffffffff83818316178352505050506200065460201b60201c565b505050565b6000620006bd826040518060400160405280602081526020017f5361666545524332303a206c6f772d6c6576656c2063616c6c206661696c65648152508573ffffffffffffffffffffffffffffffffffffffff166200072860201b62002a5d179092919060201c565b9050600081511115620007235780806020019051810190620006e0919062000968565b62000722576040517f08c379a0000000000000000000000000000000000000000000000000000000008152600401620007199062000d7c565b60405180910390fd5b5b505050565b60606200073f84846000856200074860201b60201c565b90509392505050565b60608247101562000790576040517f08c379a0000000000000000000000000000000000000000000000000000000008152600401620007879062000cf4565b60405180910390fd5b620007a1856200087660201b60201c565b620007e3576040517f08c379a0000000000000000000000000000000000000000000000000000000008152600401620007da9062000d5a565b60405180910390fd5b6000808673ffffffffffffffffffffffffffffffffffffffff1685876040516200080e919062000c3b565b60006040518083038185875af1925050503d80600081146200084d576040519150601f19603f3d011682016040523d82523d6000602084013e62000852565b606091505b50915091506200086a8282866200088960201b60201c565b92505050949350505050565b600080823b905060008111915050919050565b606083156200089b57829050620008ee565b600083511115620008af5782518084602001fd5b816040517f08c379a0000000000000000000000000000000000000000000000000000000008152600401620008e5919062000cae565b60405180910390fd5b9392505050565b600081519050620009068162001144565b92915050565b6000815190506200091d816200115e565b92915050565b600081519050620009348162001178565b92915050565b6000815190506200094b8162001192565b92915050565b6000815190506200096281620011ac565b92915050565b6000602082840312156200097b57600080fd5b60006200098b848285016200090c565b91505092915050565b600080600080600060a08688031215620009ad57600080fd5b6000620009bd8882890162000923565b9550506020620009d08882890162000923565b9450506040620009e3888289016200093a565b9350506060620009f688828901620008f5565b925050608062000a0988828901620008f5565b9150509295509295909350565b60006020828403121562000a2957600080fd5b600062000a398482850162000951565b91505092915050565b62000a4d8162000e36565b82525050565b600062000a608262000e04565b62000a6c818562000e1a565b935062000a7e81856020860162000ea8565b80840191505092915050565b600062000a978262000e0f565b62000aa3818562000e25565b935062000ab581856020860162000ea8565b62000ac08162000ede565b840191505092915050565b600062000ada601f8362000e25565b915062000ae78262000eef565b602082019050919050565b600062000b0160268362000e25565b915062000b0e8262000f18565b604082019050919050565b600062000b2860228362000e25565b915062000b358262000f67565b604082019050919050565b600062000b4f60248362000e25565b915062000b5c8262000fb6565b604082019050919050565b600062000b76601d8362000e25565b915062000b838262001005565b602082019050919050565b600062000b9d602a8362000e25565b915062000baa826200102e565b604082019050919050565b600062000bc460268362000e25565b915062000bd1826200107d565b604082019050919050565b600062000beb601f8362000e25565b915062000bf882620010cc565b602082019050919050565b600062000c1260368362000e25565b915062000c1f82620010f5565b604082019050919050565b62000c358162000e9e565b82525050565b600062000c49828462000a53565b915081905092915050565b600060408201905062000c6b600083018562000a42565b62000c7a602083018462000a42565b9392505050565b600060408201905062000c98600083018562000a42565b62000ca7602083018462000c2a565b9392505050565b6000602082019050818103600083015262000cca818462000a8a565b905092915050565b6000602082019050818103600083015262000ced8162000acb565b9050919050565b6000602082019050818103600083015262000d0f8162000af2565b9050919050565b6000602082019050818103600083015262000d318162000b19565b9050919050565b6000602082019050818103600083015262000d538162000b40565b9050919050565b6000602082019050818103600083015262000d758162000b67565b9050919050565b6000602082019050818103600083015262000d978162000b8e565b9050919050565b6000602082019050818103600083015262000db98162000bb5565b9050919050565b6000602082019050818103600083015262000ddb8162000bdc565b9050919050565b6000602082019050818103600083015262000dfd8162000c03565b9050919050565b600081519050919050565b600081519050919050565b600081905092915050565b600082825260208201905092915050565b600062000e438262000e7e565b9050919050565b60008115159050919050565b600062000e638262000e36565b9050919050565b600062000e778262000e36565b9050919050565b600073ffffffffffffffffffffffffffffffffffffffff82169050919050565b6000819050919050565b60005b8381101562000ec857808201518184015260208101905062000eab565b8381111562000ed8576000848401525b50505050565b6000601f19601f8301169050919050565b7f5f746f6b656e2073686f756c64206e6f74206265206164647265737328302900600082015250565b7f416464726573733a20696e73756666696369656e742062616c616e636520666f60008201527f722063616c6c0000000000000000000000000000000000000000000000000000602082015250565b7f5f74726561737572792073686f756c64206e6f7420626520616464726573732860008201527f3029000000000000000000000000000000000000000000000000000000000000602082015250565b7f5f6d6173746572636865662073686f756c64206e6f742062652061646472657360008201527f7328302900000000000000000000000000000000000000000000000000000000602082015250565b7f416464726573733a2063616c6c20746f206e6f6e2d636f6e7472616374000000600082015250565b7f5361666545524332303a204552433230206f7065726174696f6e20646964206e60008201527f6f74207375636365656400000000000000000000000000000000000000000000602082015250565b7f5f72656365697074546f6b656e2073686f756c64206e6f74206265206164647260008201527f6573732830290000000000000000000000000000000000000000000000000000602082015250565b7f5f61646d696e2073686f756c64206e6f74206265206164647265737328302900600082015250565b7f5361666545524332303a20617070726f76652066726f6d206e6f6e2d7a65726f60008201527f20746f206e6f6e2d7a65726f20616c6c6f77616e636500000000000000000000602082015250565b6200114f8162000e36565b81146200115b57600080fd5b50565b620011698162000e4a565b81146200117557600080fd5b50565b620011838162000e56565b81146200118f57600080fd5b50565b6200119d8162000e6a565b8114620011a957600080fd5b50565b620011b78162000e9e565b8114620011c357600080fd5b50565b60805160601c60a05160601c60c05160601c61427b6200126f60003960008181610add015281816110a20152818161139b015281816117f401528181611c0201528181612292015281816128b90152612c1e01526000818161243f0152612596015260008181610c2101528181610ce30152818161118e01528181611206015281816112ea015281816118a601528181612012015281816123b001526128dd015261427b6000f3fe608060405234801561001057600080fd5b50600436106101cd5760003560e01c80631959a002146101d25780631efac1b81461020557806326465826146102215780632ad5a53f1461023d5780632cfc5f011461025b5780632e1a7d4d146102795780633a98ef39146102955780633f4ba83a146102b35780634641257d146102bd57806348a0d754146102c757806358ebceb6146102e55780635c975abb1461030357806361d027b314610321578063704b6c021461033f57806370897b231461035b578063715018a614610377578063722713f71461038157806377c7b8fc1461039f5780638456cb59146103bd578063853828b6146103c757806387788782146103d15780638da5cb5b146103ef57806390321e1a1461040d5780639d72596b1461042b578063b60f053114610449578063b6ac642a14610467578063b6b55f2514610483578063bdca91651461049f578063d4b0de2f146104bd578063db2e21bc146104db578063def68a9c146104e5578063df10b4e614610501578063e941fa781461051f578063ec78e8321461053d578063f0f442601461055b578063f2fde38b14610577578063f851a44014610593578063fb1db278146105b1578063fc0c546a146105cf575b600080fd5b6101ec60048036038101906101e79190613088565b6105ed565b6040516101fc9493929190613a23565b60405180910390f35b61021f600480360381019061021a91906130da565b61061d565b005b61023b600480360381019061023691906130da565b6106fd565b005b6102456107db565b60405161025291906139a8565b60405180910390f35b6102636107e0565b60405161027091906139a8565b60405180910390f35b610293600480360381019061028e91906130da565b6107e7565b005b61029d610db5565b6040516102aa91906139a8565b60405180910390f35b6102bb610dbb565b005b6102c5610ec8565b005b6102cf6112e6565b6040516102dc91906139a8565b60405180910390f35b6102ed611396565b6040516102fa91906139a8565b60405180910390f35b61030b61146a565b6040516103189190613631565b60405180910390f35b610329611480565b604051610336919061358d565b60405180910390f35b61035960048036038101906103549190613088565b6114a6565b005b610375600480360381019061037091906130da565b6115d6565b005b61037f6116b5565b005b6103896117ef565b60405161039691906139a8565b60405180910390f35b6103a7611961565b6040516103b491906139a8565b60405180910390f35b6103c56119b6565b005b6103cf611ac4565b005b6103d9611bc8565b6040516103e691906139a8565b60405180910390f35b6103f7611bce565b604051610404919061358d565b60405180910390f35b610415611bf7565b60405161042291906139a8565b60405180910390f35b610433611bfd565b60405161044091906139a8565b60405180910390f35b610451611cff565b60405161045e91906139a8565b60405180910390f35b610481600480360381019061047c91906130da565b611d05565b005b61049d600480360381019061049891906130da565b611de3565b005b6104a76121f5565b6040516104b491906139a8565b60405180910390f35b6104c56121fb565b6040516104d291906139a8565b60405180910390f35b6104e3612200565b005b6104ff60048036038101906104fa9190613088565b61231e565b005b610509612588565b60405161051691906139a8565b60405180910390f35b61052761258e565b60405161053491906139a8565b60405180910390f35b610545612594565b604051610552919061364c565b60405180910390f35b61057560048036038101906105709190613088565b6125b8565b005b610591600480360381019061058c9190613088565b6126e8565b005b61059b612891565b6040516105a8919061358d565b60405180910390f35b6105b96128b7565b6040516105c69190613667565b60405180910390f35b6105d76128db565b6040516105e4919061364c565b60405180910390f35b60016020528060005260406000206000915090508060000154908060010154908060020154908060030154905084565b600460009054906101000a900473ffffffffffffffffffffffffffffffffffffffff1673ffffffffffffffffffffffffffffffffffffffff163373ffffffffffffffffffffffffffffffffffffffff16146106ad576040517f08c379a00000000000000000000000000000000000000000000000000000000081526004016106a4906138e8565b60405180910390fd5b6203f4808111156106f3576040517f08c379a00000000000000000000000000000000000000000000000000000000081526004016106ea90613928565b60405180910390fd5b8060098190555050565b600460009054906101000a900473ffffffffffffffffffffffffffffffffffffffff1673ffffffffffffffffffffffffffffffffffffffff163373ffffffffffffffffffffffffffffffffffffffff161461078d576040517f08c379a0000000000000000000000000000000000000000000000000000000008152600401610784906138e8565b60405180910390fd5b60648111156107d1576040517f08c379a00000000000000000000000000000000000000000000000000000000081526004016107c890613808565b60405180910390fd5b8060078190555050565b606481565b6203f48081565b6107f033612a75565b15610830576040517f08c379a0000000000000000000000000000000000000000000000000000000008152600401610827906138c8565b60405180910390fd5b3273ffffffffffffffffffffffffffffffffffffffff163373ffffffffffffffffffffffffffffffffffffffff161461089e576040517f08c379a000000000000000000000000000000000000000000000000000000000815260040161089590613708565b60405180910390fd5b6040518060400160405280600881526020017f7769746864726177000000000000000000000000000000000000000000000000815250600a816040516108e49190613576565b908152602001604051809103902060009054906101000a900460ff1615610940576040517f08c379a000000000000000000000000000000000000000000000000000000000815260040161093790613848565b60405180910390fd5b6001600a826040516109529190613576565b908152602001604051809103902060006101000a81548160ff0219169083151502179055506000600160003373ffffffffffffffffffffffffffffffffffffffff1673ffffffffffffffffffffffffffffffffffffffff1681526020019081526020016000209050600083116109fd576040517f08c379a00000000000000000000000000000000000000000000000000000000081526004016109f490613748565b60405180910390fd5b8060000154831115610a44576040517f08c379a0000000000000000000000000000000000000000000000000000000008152600401610a3b906137a8565b60405180910390fd5b6000610a74600254610a6686610a586117ef565b612a8890919063ffffffff16565b612a9e90919063ffffffff16565b9050610a8d848360000154612ab490919063ffffffff16565b8260000181905550610aaa84600254612ab490919063ffffffff16565b6002819055506000610aba6112e6565b905081811015610bab576000610ad98284612ab490919063ffffffff16565b90507f000000000000000000000000000000000000000000000000000000000000000073ffffffffffffffffffffffffffffffffffffffff16631058d281826040518263ffffffff1660e01b8152600401610b3491906139a8565b600060405180830381600087803b158015610b4e57600080fd5b505af1158015610b62573d6000803e3d6000fd5b505050506000610b706112e6565b90506000610b878483612ab490919063ffffffff16565b905082811015610ba757610ba48185612aca90919063ffffffff16565b94505b5050505b610bc46009548460010154612aca90919063ffffffff16565b421015610c7c576000610bf6612710610be860085486612a8890919063ffffffff16565b612a9e90919063ffffffff16565b9050610c65600560009054906101000a900473ffffffffffffffffffffffffffffffffffffffff16827f000000000000000000000000000000000000000000000000000000000000000073ffffffffffffffffffffffffffffffffffffffff16612ae09092919063ffffffff16565b610c788184612ab490919063ffffffff16565b9250505b600083600001541115610cc857610cbb600254610cad610c9a6117ef565b8660000154612a8890919063ffffffff16565b612a9e90919063ffffffff16565b8360020181905550610cd3565b600083600201819055505b428360030181905550610d2733837f000000000000000000000000000000000000000000000000000000000000000073ffffffffffffffffffffffffffffffffffffffff16612ae09092919063ffffffff16565b3373ffffffffffffffffffffffffffffffffffffffff167ff279e6a1f5e320cca91135676d9cb6e44ca8a08c0b88342bcdb1144f6511b5688387604051610d6f9291906139c3565b60405180910390a25050506000600a82604051610d8c9190613576565b908152602001604051809103902060006101000a81548160ff0219169083151502179055505050565b60025481565b600460009054906101000a900473ffffffffffffffffffffffffffffffffffffffff1673ffffffffffffffffffffffffffffffffffffffff163373ffffffffffffffffffffffffffffffffffffffff1614610e4b576040517f08c379a0000000000000000000000000000000000000000000000000000000008152600401610e42906138e8565b60405180910390fd5b610e5361146a565b610e92576040517f08c379a0000000000000000000000000000000000000000000000000000000008152600401610e8990613728565b60405180910390fd5b610e9a612b66565b7f7805862f689e2f13df9f062ff482ad3ad112aca9e0847911ed832e158c525b3360405160405180910390a1565b610ed133612a75565b15610f11576040517f08c379a0000000000000000000000000000000000000000000000000000000008152600401610f08906138c8565b60405180910390fd5b3273ffffffffffffffffffffffffffffffffffffffff163373ffffffffffffffffffffffffffffffffffffffff1614610f7f576040517f08c379a0000000000000000000000000000000000000000000000000000000008152600401610f7690613708565b60405180910390fd5b610f8761146a565b15610fc7576040517f08c379a0000000000000000000000000000000000000000000000000000000008152600401610fbe90613868565b60405180910390fd5b6040518060400160405280600781526020017f6861727665737400000000000000000000000000000000000000000000000000815250600a8160405161100d9190613576565b908152602001604051809103902060009054906101000a900460ff1615611069576040517f08c379a000000000000000000000000000000000000000000000000000000000815260040161106090613848565b60405180910390fd5b6001600a8260405161107b9190613576565b908152602001604051809103902060006101000a81548160ff0219169083151502179055507f000000000000000000000000000000000000000000000000000000000000000073ffffffffffffffffffffffffffffffffffffffff16631058d28160006040518263ffffffff1660e01b81526004016110fa9190613682565b600060405180830381600087803b15801561111457600080fd5b505af1158015611128573d6000803e3d6000fd5b5050505060006111366112e6565b9050600061116361271061115560065485612a8890919063ffffffff16565b612a9e90919063ffffffff16565b90506111d2600560009054906101000a900473ffffffffffffffffffffffffffffffffffffffff16827f000000000000000000000000000000000000000000000000000000000000000073ffffffffffffffffffffffffffffffffffffffff16612ae09092919063ffffffff16565b60006111fd6127106111ef60075486612a8890919063ffffffff16565b612a9e90919063ffffffff16565b905061124a33827f000000000000000000000000000000000000000000000000000000000000000073ffffffffffffffffffffffffffffffffffffffff16612ae09092919063ffffffff16565b611252612c07565b426003819055503373ffffffffffffffffffffffffffffffffffffffff167f71bab65ced2e5750775a0613be067df48ef06cf92a496ebf7663ae066092495483836040516112a19291906139c3565b60405180910390a25050506000600a826040516112be9190613576565b908152602001604051809103902060006101000a81548160ff02191690831515021790555050565b60007f000000000000000000000000000000000000000000000000000000000000000073ffffffffffffffffffffffffffffffffffffffff166370a08231306040518263ffffffff1660e01b8152600401611341919061358d565b60206040518083038186803b15801561135957600080fd5b505afa15801561136d573d6000803e3d6000fd5b505050506040513d601f19601f820116820180604052508101906113919190613103565b905090565b6000807f000000000000000000000000000000000000000000000000000000000000000073ffffffffffffffffffffffffffffffffffffffff16631175a1dd6000306040518363ffffffff1660e01b81526004016113f592919061369d565b60206040518083038186803b15801561140d57600080fd5b505afa158015611421573d6000803e3d6000fd5b505050506040513d601f19601f820116820180604052508101906114459190613103565b90506114616114526112e6565b82612aca90919063ffffffff16565b90508091505090565b60008060149054906101000a900460ff16905090565b600560009054906101000a900473ffffffffffffffffffffffffffffffffffffffff1681565b6114ae612cab565b73ffffffffffffffffffffffffffffffffffffffff166114cc611bce565b73ffffffffffffffffffffffffffffffffffffffff1614611522576040517f08c379a0000000000000000000000000000000000000000000000000000000008152600401611519906138a8565b60405180910390fd5b600073ffffffffffffffffffffffffffffffffffffffff168173ffffffffffffffffffffffffffffffffffffffff161415611592576040517f08c379a000000000000000000000000000000000000000000000000000000000815260040161158990613888565b60405180910390fd5b80600460006101000a81548173ffffffffffffffffffffffffffffffffffffffff021916908373ffffffffffffffffffffffffffffffffffffffff16021790555050565b600460009054906101000a900473ffffffffffffffffffffffffffffffffffffffff1673ffffffffffffffffffffffffffffffffffffffff163373ffffffffffffffffffffffffffffffffffffffff1614611666576040517f08c379a000000000000000000000000000000000000000000000000000000000815260040161165d906138e8565b60405180910390fd5b6101f48111156116ab576040517f08c379a00000000000000000000000000000000000000000000000000000000081526004016116a290613828565b60405180910390fd5b8060068190555050565b6116bd612cab565b73ffffffffffffffffffffffffffffffffffffffff166116db611bce565b73ffffffffffffffffffffffffffffffffffffffff1614611731576040517f08c379a0000000000000000000000000000000000000000000000000000000008152600401611728906138a8565b60405180910390fd5b600073ffffffffffffffffffffffffffffffffffffffff1660008054906101000a900473ffffffffffffffffffffffffffffffffffffffff1673ffffffffffffffffffffffffffffffffffffffff167f8be0079c531659141344cd1fd0a4f28419497f9722a3daafe3b4186f6b6457e060405160405180910390a360008060006101000a81548173ffffffffffffffffffffffffffffffffffffffff021916908373ffffffffffffffffffffffffffffffffffffffff160217905550565b6000807f000000000000000000000000000000000000000000000000000000000000000073ffffffffffffffffffffffffffffffffffffffff166393f1a40b6000306040518363ffffffff1660e01b815260040161184e92919061369d565b604080518083038186803b15801561186557600080fd5b505afa158015611879573d6000803e3d6000fd5b505050506040513d601f19601f8201168201806040525081019061189d919061312c565b50905061195b817f000000000000000000000000000000000000000000000000000000000000000073ffffffffffffffffffffffffffffffffffffffff166370a08231306040518263ffffffff1660e01b81526004016118fd919061358d565b60206040518083038186803b15801561191557600080fd5b505afa158015611929573d6000803e3d6000fd5b505050506040513d601f19601f8201168201806040525081019061194d9190613103565b612aca90919063ffffffff16565b91505090565b600080600254146119a7576119a2600254611994670de0b6b3a76400006119866117ef565b612a8890919063ffffffff16565b612a9e90919063ffffffff16565b6119b1565b670de0b6b3a76400005b905090565b600460009054906101000a900473ffffffffffffffffffffffffffffffffffffffff1673ffffffffffffffffffffffffffffffffffffffff163373ffffffffffffffffffffffffffffffffffffffff1614611a46576040517f08c379a0000000000000000000000000000000000000000000000000000000008152600401611a3d906138e8565b60405180910390fd5b611a4e61146a565b15611a8e576040517f08c379a0000000000000000000000000000000000000000000000000000000008152600401611a8590613868565b60405180910390fd5b611a96612cb3565b7f6985a02210a168e66602d3235cb6db0e70f92b3ba4d376a33c0f3d9434bff62560405160405180910390a1565b611acd33612a75565b15611b0d576040517f08c379a0000000000000000000000000000000000000000000000000000000008152600401611b04906138c8565b60405180910390fd5b3273ffffffffffffffffffffffffffffffffffffffff163373ffffffffffffffffffffffffffffffffffffffff1614611b7b576040517f08c379a0000000000000000000000000000000000000000000000000000000008152600401611b7290613708565b60405180910390fd5b611bc6600160003373ffffffffffffffffffffffffffffffffffffffff1673ffffffffffffffffffffffffffffffffffffffff168152602001908152602001600020600001546107e7565b565b60065481565b60008060009054906101000a900473ffffffffffffffffffffffffffffffffffffffff16905090565b60075481565b6000807f000000000000000000000000000000000000000000000000000000000000000073ffffffffffffffffffffffffffffffffffffffff16631175a1dd6000306040518363ffffffff1660e01b8152600401611c5c92919061369d565b60206040518083038186803b158015611c7457600080fd5b505afa158015611c88573d6000803e3d6000fd5b505050506040513d601f19601f82011682018060405250810190611cac9190613103565b9050611cc8611cb96112e6565b82612aca90919063ffffffff16565b90506000611cf5612710611ce760075485612a8890919063ffffffff16565b612a9e90919063ffffffff16565b9050809250505090565b60035481565b600460009054906101000a900473ffffffffffffffffffffffffffffffffffffffff1673ffffffffffffffffffffffffffffffffffffffff163373ffffffffffffffffffffffffffffffffffffffff1614611d95576040517f08c379a0000000000000000000000000000000000000000000000000000000008152600401611d8c906138e8565b60405180910390fd5b6064811115611dd9576040517f08c379a0000000000000000000000000000000000000000000000000000000008152600401611dd090613968565b60405180910390fd5b8060088190555050565b611deb61146a565b15611e2b576040517f08c379a0000000000000000000000000000000000000000000000000000000008152600401611e2290613868565b60405180910390fd5b611e3433612a75565b15611e74576040517f08c379a0000000000000000000000000000000000000000000000000000000008152600401611e6b906138c8565b60405180910390fd5b3273ffffffffffffffffffffffffffffffffffffffff163373ffffffffffffffffffffffffffffffffffffffff1614611ee2576040517f08c379a0000000000000000000000000000000000000000000000000000000008152600401611ed990613708565b60405180910390fd5b6040518060400160405280600781526020017f6465706f73697400000000000000000000000000000000000000000000000000815250600a81604051611f289190613576565b908152602001604051809103902060009054906101000a900460ff1615611f84576040517f08c379a0000000000000000000000000000000000000000000000000000000008152600401611f7b90613848565b60405180910390fd5b6001600a82604051611f969190613576565b908152602001604051809103902060006101000a81548160ff02191690831515021790555060008211611ffe576040517f08c379a0000000000000000000000000000000000000000000000000000000008152600401611ff5906136e8565b60405180910390fd5b60006120086117ef565b90506120573330857f000000000000000000000000000000000000000000000000000000000000000073ffffffffffffffffffffffffffffffffffffffff16612d56909392919063ffffffff16565b60008060025414612090576120898261207b60025487612a8890919063ffffffff16565b612a9e90919063ffffffff16565b9050612094565b8390505b6000600160003373ffffffffffffffffffffffffffffffffffffffff1673ffffffffffffffffffffffffffffffffffffffff16815260200190815260200160002090506120ee828260000154612aca90919063ffffffff16565b816000018190555042816001018190555061211482600254612aca90919063ffffffff16565b60028190555061214c60025461213e61212b6117ef565b8460000154612a8890919063ffffffff16565b612a9e90919063ffffffff16565b8160020181905550428160030181905550612165612c07565b3373ffffffffffffffffffffffffffffffffffffffff167f36af321ec8d3c75236829c5317affd40ddb308863a1236d2d277a4025cccee1e8684426040516121af939291906139ec565b60405180910390a25050506000600a826040516121cc9190613576565b908152602001604051809103902060006101000a81548160ff0219169083151502179055505050565b6101f481565b606481565b600460009054906101000a900473ffffffffffffffffffffffffffffffffffffffff1673ffffffffffffffffffffffffffffffffffffffff163373ffffffffffffffffffffffffffffffffffffffff1614612290576040517f08c379a0000000000000000000000000000000000000000000000000000000008152600401612287906138e8565b60405180910390fd5b7f000000000000000000000000000000000000000000000000000000000000000073ffffffffffffffffffffffffffffffffffffffff16635312ea8e60006040518263ffffffff1660e01b81526004016122ea9190613682565b600060405180830381600087803b15801561230457600080fd5b505af1158015612318573d6000803e3d6000fd5b50505050565b600460009054906101000a900473ffffffffffffffffffffffffffffffffffffffff1673ffffffffffffffffffffffffffffffffffffffff163373ffffffffffffffffffffffffffffffffffffffff16146123ae576040517f08c379a00000000000000000000000000000000000000000000000000000000081526004016123a5906138e8565b60405180910390fd5b7f000000000000000000000000000000000000000000000000000000000000000073ffffffffffffffffffffffffffffffffffffffff168173ffffffffffffffffffffffffffffffffffffffff16141561243d576040517f08c379a000000000000000000000000000000000000000000000000000000000815260040161243490613788565b60405180910390fd5b7f000000000000000000000000000000000000000000000000000000000000000073ffffffffffffffffffffffffffffffffffffffff168173ffffffffffffffffffffffffffffffffffffffff1614156124cc576040517f08c379a00000000000000000000000000000000000000000000000000000000081526004016124c3906137e8565b60405180910390fd5b60008173ffffffffffffffffffffffffffffffffffffffff166370a08231306040518263ffffffff1660e01b8152600401612507919061358d565b60206040518083038186803b15801561251f57600080fd5b505afa158015612533573d6000803e3d6000fd5b505050506040513d601f19601f820116820180604052508101906125579190613103565b905061258433828473ffffffffffffffffffffffffffffffffffffffff16612ae09092919063ffffffff16565b5050565b60095481565b60085481565b7f000000000000000000000000000000000000000000000000000000000000000081565b6125c0612cab565b73ffffffffffffffffffffffffffffffffffffffff166125de611bce565b73ffffffffffffffffffffffffffffffffffffffff1614612634576040517f08c379a000000000000000000000000000000000000000000000000000000000815260040161262b906138a8565b60405180910390fd5b600073ffffffffffffffffffffffffffffffffffffffff168173ffffffffffffffffffffffffffffffffffffffff1614156126a4576040517f08c379a000000000000000000000000000000000000000000000000000000000815260040161269b90613888565b60405180910390fd5b80600560006101000a81548173ffffffffffffffffffffffffffffffffffffffff021916908373ffffffffffffffffffffffffffffffffffffffff16021790555050565b6126f0612cab565b73ffffffffffffffffffffffffffffffffffffffff1661270e611bce565b73ffffffffffffffffffffffffffffffffffffffff1614612764576040517f08c379a000000000000000000000000000000000000000000000000000000000815260040161275b906138a8565b60405180910390fd5b600073ffffffffffffffffffffffffffffffffffffffff168173ffffffffffffffffffffffffffffffffffffffff1614156127d4576040517f08c379a00000000000000000000000000000000000000000000000000000000081526004016127cb90613768565b60405180910390fd5b8073ffffffffffffffffffffffffffffffffffffffff1660008054906101000a900473ffffffffffffffffffffffffffffffffffffffff1673ffffffffffffffffffffffffffffffffffffffff167f8be0079c531659141344cd1fd0a4f28419497f9722a3daafe3b4186f6b6457e060405160405180910390a3806000806101000a81548173ffffffffffffffffffffffffffffffffffffffff021916908373ffffffffffffffffffffffffffffffffffffffff16021790555050565b600460009054906101000a900473ffffffffffffffffffffffffffffffffffffffff1681565b7f000000000000000000000000000000000000000000000000000000000000000081565b7f000000000000000000000000000000000000000000000000000000000000000081565b6000811480612998575060008373ffffffffffffffffffffffffffffffffffffffff1663dd62ed3e30856040518363ffffffff1660e01b81526004016129469291906135a8565b60206040518083038186803b15801561295e57600080fd5b505afa158015612972573d6000803e3d6000fd5b505050506040513d601f19601f820116820180604052508101906129969190613103565b145b6129d7576040517f08c379a00000000000000000000000000000000000000000000000000000000081526004016129ce90613988565b60405180910390fd5b612a588363095ea7b360e01b84846040516024016129f6929190613608565b604051602081830303815290604052907bffffffffffffffffffffffffffffffffffffffffffffffffffffffff19166020820180517bffffffffffffffffffffffffffffffffffffffffffffffffffffffff8381831617835250505050612ddf565b505050565b6060612a6c8484600085612ea6565b90509392505050565b600080823b905060008111915050919050565b60008183612a969190613b2c565b905092915050565b60008183612aac9190613afb565b905092915050565b60008183612ac29190613b86565b905092915050565b60008183612ad89190613aa5565b905092915050565b612b618363a9059cbb60e01b8484604051602401612aff929190613608565b604051602081830303815290604052907bffffffffffffffffffffffffffffffffffffffffffffffffffffffff19166020820180517bffffffffffffffffffffffffffffffffffffffffffffffffffffffff8381831617835250505050612ddf565b505050565b612b6e61146a565b612bad576040517f08c379a0000000000000000000000000000000000000000000000000000000008152600401612ba490613728565b60405180910390fd5b60008060146101000a81548160ff0219169083151502179055507f5db9ee0a495bf2e6ff9c91a7834c1ba4fdd244a5e8aa4e537bd38aeae4b073aa612bf0612cab565b604051612bfd919061358d565b60405180910390a1565b6000612c116112e6565b90506000811115612ca8577f000000000000000000000000000000000000000000000000000000000000000073ffffffffffffffffffffffffffffffffffffffff166341441d3b826040518263ffffffff1660e01b8152600401612c7591906139a8565b600060405180830381600087803b158015612c8f57600080fd5b505af1158015612ca3573d6000803e3d6000fd5b505050505b50565b600033905090565b612cbb61146a565b15612cfb576040517f08c379a0000000000000000000000000000000000000000000000000000000008152600401612cf290613868565b60405180910390fd5b6001600060146101000a81548160ff0219169083151502179055507f62e78cea01bee320cd4e420270b5ea74000d11b0c9f74754ebdbfc544b05a258612d3f612cab565b604051612d4c919061358d565b60405180910390a1565b612dd9846323b872dd60e01b858585604051602401612d77939291906135d1565b604051602081830303815290604052907bffffffffffffffffffffffffffffffffffffffffffffffffffffffff19166020820180517bffffffffffffffffffffffffffffffffffffffffffffffffffffffff8381831617835250505050612ddf565b50505050565b6000612e41826040518060400160405280602081526020017f5361666545524332303a206c6f772d6c6576656c2063616c6c206661696c65648152508573ffffffffffffffffffffffffffffffffffffffff16612a5d9092919063ffffffff16565b9050600081511115612ea15780806020019051810190612e6191906130b1565b612ea0576040517f08c379a0000000000000000000000000000000000000000000000000000000008152600401612e9790613948565b60405180910390fd5b5b505050565b606082471015612eeb576040517f08c379a0000000000000000000000000000000000000000000000000000000008152600401612ee2906137c8565b60405180910390fd5b612ef485612fba565b612f33576040517f08c379a0000000000000000000000000000000000000000000000000000000008152600401612f2a90613908565b60405180910390fd5b6000808673ffffffffffffffffffffffffffffffffffffffff168587604051612f5c919061355f565b60006040518083038185875af1925050503d8060008114612f99576040519150601f19603f3d011682016040523d82523d6000602084013e612f9e565b606091505b5091509150612fae828286612fcd565b92505050949350505050565b600080823b905060008111915050919050565b60608315612fdd5782905061302d565b600083511115612ff05782518084602001fd5b816040517f08c379a000000000000000000000000000000000000000000000000000000000815260040161302491906136c6565b60405180910390fd5b9392505050565b60008135905061304381614200565b92915050565b60008151905061305881614217565b92915050565b60008135905061306d8161422e565b92915050565b6000815190506130828161422e565b92915050565b60006020828403121561309a57600080fd5b60006130a884828501613034565b91505092915050565b6000602082840312156130c357600080fd5b60006130d184828501613049565b91505092915050565b6000602082840312156130ec57600080fd5b60006130fa8482850161305e565b91505092915050565b60006020828403121561311557600080fd5b600061312384828501613073565b91505092915050565b6000806040838503121561313f57600080fd5b600061314d85828601613073565b925050602061315e85828601613073565b9150509250929050565b61317181613bba565b82525050565b61318081613bcc565b82525050565b600061319182613a68565b61319b8185613a7e565b93506131ab818560208601613c5c565b80840191505092915050565b6131c081613c02565b82525050565b6131cf81613c26565b82525050565b6131de81613c4a565b82525050565b60006131ef82613a73565b6131f98185613a89565b9350613209818560208601613c5c565b61321281613ced565b840191505092915050565b600061322882613a73565b6132328185613a9a565b9350613242818560208601613c5c565b80840191505092915050565b600061325b601283613a89565b915061326682613cfe565b602082019050919050565b600061327e601a83613a89565b915061328982613d27565b602082019050919050565b60006132a1601483613a89565b91506132ac82613d50565b602082019050919050565b60006132c4601383613a89565b91506132cf82613d79565b602082019050919050565b60006132e7602683613a89565b91506132f282613da2565b604082019050919050565b600061330a602583613a89565b915061331582613df1565b604082019050919050565b600061332d601f83613a89565b915061333882613e40565b602082019050919050565b6000613350602683613a89565b915061335b82613e69565b604082019050919050565b6000613373602583613a89565b915061337e82613eb8565b604082019050919050565b6000613396602883613a89565b91506133a182613f07565b604082019050919050565b60006133b9603683613a89565b91506133c482613f56565b604082019050919050565b60006133dc600e83613a89565b91506133e782613fa5565b602082019050919050565b60006133ff601083613a89565b915061340a82613fce565b602082019050919050565b6000613422601683613a89565b915061342d82613ff7565b602082019050919050565b6000613445602083613a89565b915061345082614020565b602082019050919050565b6000613468601483613a89565b915061347382614049565b602082019050919050565b600061348b600b83613a89565b915061349682614072565b602082019050919050565b60006134ae601d83613a89565b91506134b98261409b565b602082019050919050565b60006134d1603d83613a89565b91506134dc826140c4565b604082019050919050565b60006134f4602a83613a89565b91506134ff82614113565b604082019050919050565b6000613517603083613a89565b915061352282614162565b604082019050919050565b600061353a603683613a89565b9150613545826141b1565b604082019050919050565b61355981613bf8565b82525050565b600061356b8284613186565b915081905092915050565b6000613582828461321d565b915081905092915050565b60006020820190506135a26000830184613168565b92915050565b60006040820190506135bd6000830185613168565b6135ca6020830184613168565b9392505050565b60006060820190506135e66000830186613168565b6135f36020830185613168565b6136006040830184613550565b949350505050565b600060408201905061361d6000830185613168565b61362a6020830184613550565b9392505050565b60006020820190506136466000830184613177565b92915050565b600060208201905061366160008301846131b7565b92915050565b600060208201905061367c60008301846131c6565b92915050565b600060208201905061369760008301846131d5565b92915050565b60006040820190506136b260008301856131d5565b6136bf6020830184613168565b9392505050565b600060208201905081810360008301526136e081846131e4565b905092915050565b600060208201905081810360008301526137018161324e565b9050919050565b6000602082019050818103600083015261372181613271565b9050919050565b6000602082019050818103600083015261374181613294565b9050919050565b60006020820190508181036000830152613761816132b7565b9050919050565b60006020820190508181036000830152613781816132da565b9050919050565b600060208201905081810360008301526137a1816132fd565b9050919050565b600060208201905081810360008301526137c181613320565b9050919050565b600060208201905081810360008301526137e181613343565b9050919050565b6000602082019050818103600083015261380181613366565b9050919050565b6000602082019050818103600083015261382181613389565b9050919050565b60006020820190508181036000830152613841816133ac565b9050919050565b60006020820190508181036000830152613861816133cf565b9050919050565b60006020820190508181036000830152613881816133f2565b9050919050565b600060208201905081810360008301526138a181613415565b9050919050565b600060208201905081810360008301526138c181613438565b9050919050565b600060208201905081810360008301526138e18161345b565b9050919050565b600060208201905081810360008301526139018161347e565b9050919050565b60006020820190508181036000830152613921816134a1565b9050919050565b60006020820190508181036000830152613941816134c4565b9050919050565b60006020820190508181036000830152613961816134e7565b9050919050565b600060208201905081810360008301526139818161350a565b9050919050565b600060208201905081810360008301526139a18161352d565b9050919050565b60006020820190506139bd6000830184613550565b92915050565b60006040820190506139d86000830185613550565b6139e56020830184613550565b9392505050565b6000606082019050613a016000830186613550565b613a0e6020830185613550565b613a1b6040830184613550565b949350505050565b6000608082019050613a386000830187613550565b613a456020830186613550565b613a526040830185613550565b613a5f6060830184613550565b95945050505050565b600081519050919050565b600081519050919050565b600081905092915050565b600082825260208201905092915050565b600081905092915050565b6000613ab082613bf8565b9150613abb83613bf8565b9250827fffffffffffffffffffffffffffffffffffffffffffffffffffffffffffffffff03821115613af057613aef613c8f565b5b828201905092915050565b6000613b0682613bf8565b9150613b1183613bf8565b925082613b2157613b20613cbe565b5b828204905092915050565b6000613b3782613bf8565b9150613b4283613bf8565b9250817fffffffffffffffffffffffffffffffffffffffffffffffffffffffffffffffff0483118215151615613b7b57613b7a613c8f565b5b828202905092915050565b6000613b9182613bf8565b9150613b9c83613bf8565b925082821015613baf57613bae613c8f565b5b828203905092915050565b6000613bc582613bd8565b9050919050565b60008115159050919050565b600073ffffffffffffffffffffffffffffffffffffffff82169050919050565b6000819050919050565b6000613c0d82613c14565b9050919050565b6000613c1f82613bd8565b9050919050565b6000613c3182613c38565b9050919050565b6000613c4382613bd8565b9050919050565b6000613c5582613bf8565b9050919050565b60005b83811015613c7a578082015181840152602081019050613c5f565b83811115613c89576000848401525b50505050565b7f4e487b7100000000000000000000000000000000000000000000000000000000600052601160045260246000fd5b7f4e487b7100000000000000000000000000000000000000000000000000000000600052601260045260246000fd5b6000601f19601f8301169050919050565b7f4e6f7468696e6720746f206465706f7369740000000000000000000000000000600082015250565b7f70726f787920636f6e7472616374206e6f7420616c6c6f776564000000000000600082015250565b7f5061757361626c653a206e6f7420706175736564000000000000000000000000600082015250565b7f4e6f7468696e6720746f20776974686472617700000000000000000000000000600082015250565b7f4f776e61626c653a206e6577206f776e657220697320746865207a65726f206160008201527f6464726573730000000000000000000000000000000000000000000000000000602082015250565b7f546f6b656e2063616e6e6f742062652073616d65206173206465706f7369742060008201527f746f6b656e000000000000000000000000000000000000000000000000000000602082015250565b7f576974686472617720616d6f756e7420657863656564732062616c616e636500600082015250565b7f416464726573733a20696e73756666696369656e742062616c616e636520666f60008201527f722063616c6c0000000000000000000000000000000000000000000000000000602082015250565b7f546f6b656e2063616e6e6f742062652073616d6520617320726563656970742060008201527f746f6b656e000000000000000000000000000000000000000000000000000000602082015250565b7f63616c6c4665652063616e6e6f74206265206d6f7265207468616e204d41585f60008201527f43414c4c5f464545000000000000000000000000000000000000000000000000602082015250565b7f706572666f726d616e63654665652063616e6e6f74206265206d6f726520746860008201527f616e204d41585f504552464f524d414e43455f46454500000000000000000000602082015250565b7f7265656e7472616e742063616c6c000000000000000000000000000000000000600082015250565b7f5061757361626c653a2070617573656400000000000000000000000000000000600082015250565b7f43616e6e6f74206265207a65726f206164647265737300000000000000000000600082015250565b7f4f776e61626c653a2063616c6c6572206973206e6f7420746865206f776e6572600082015250565b7f636f6e7472616374206e6f7420616c6c6f776564000000000000000000000000600082015250565b7f61646d696e3a207775743f000000000000000000000000000000000000000000600082015250565b7f416464726573733a2063616c6c20746f206e6f6e2d636f6e7472616374000000600082015250565b7f7769746864726177466565506572696f642063616e6e6f74206265206d6f726560008201527f207468616e204d41585f57495448445241575f4645455f504552494f44000000602082015250565b7f5361666545524332303a204552433230206f7065726174696f6e20646964206e60008201527f6f74207375636365656400000000000000000000000000000000000000000000602082015250565b7f77697468647261774665652063616e6e6f74206265206d6f7265207468616e2060008201527f4d41585f57495448445241575f46454500000000000000000000000000000000602082015250565b7f5361666545524332303a20617070726f76652066726f6d206e6f6e2d7a65726f60008201527f20746f206e6f6e2d7a65726f20616c6c6f77616e636500000000000000000000602082015250565b61420981613bba565b811461421457600080fd5b50565b61422081613bcc565b811461422b57600080fd5b50565b61423781613bf8565b811461424257600080fd5b5056fea2646970667358221220218396dfd81765e77e8d2049c7b8ec6a195c12d3c88e0f43d187e7f1c47880d864736f6c63430008040033",
  "linkReferences": {},
  "deployedLinkReferences": {}
}