{
  "_format": "hh-sol-artifact-1",
  "contractName": "AutoCairoPool",
  "sourceName": "contracts/farm/AutoCairoPool.sol",
  "abi": [
    {
      "inputs": [
        {
          "internalType": "contract IERC20",
          "name": "_token",
          "type": "address"
        },
        {
          "internalType": "contract IERC20",
          "name": "_receiptToken",
          "type": "address"
        },
        {
          "internalType": "contract IMasterChef",
          "name": "_masterchef",
          "type": "address"
        },
        {
          "internalType": "address",
          "name": "_admin",
          "type": "address"
        },
        {
          "internalType": "address",
          "name": "_treasury",
          "type": "address"
        }
      ],
      "stateMutability": "nonpayable",
      "type": "constructor"
    },
    {
      "anonymous": false,
      "inputs": [
        {
          "indexed": true,
          "internalType": "address",
          "name": "sender",
          "type": "address"
        },
        {
          "indexed": false,
          "internalType": "uint256",
          "name": "amount",
          "type": "uint256"
        },
        {
          "indexed": false,
          "internalType": "uint256",
          "name": "shares",
          "type": "uint256"
        },
        {
          "indexed": false,
          "internalType": "uint256",
          "name": "lastDepositedTime",
          "type": "uint256"
        }
      ],
      "name": "Deposit",
      "type": "event"
    },
    {
      "anonymous": false,
      "inputs": [
        {
          "indexed": true,
          "internalType": "address",
          "name": "sender",
          "type": "address"
        },
        {
          "indexed": false,
          "internalType": "uint256",
          "name": "performanceFee",
          "type": "uint256"
        },
        {
          "indexed": false,
          "internalType": "uint256",
          "name": "callFee",
          "type": "uint256"
        }
      ],
      "name": "Harvest",
      "type": "event"
    },
    {
      "anonymous": false,
      "inputs": [
        {
          "indexed": true,
          "internalType": "address",
          "name": "previousOwner",
          "type": "address"
        },
        {
          "indexed": true,
          "internalType": "address",
          "name": "newOwner",
          "type": "address"
        }
      ],
      "name": "OwnershipTransferred",
      "type": "event"
    },
    {
      "anonymous": false,
      "inputs": [],
      "name": "Pause",
      "type": "event"
    },
    {
      "anonymous": false,
      "inputs": [
        {
          "indexed": false,
          "internalType": "address",
          "name": "account",
          "type": "address"
        }
      ],
      "name": "Paused",
      "type": "event"
    },
    {
      "anonymous": false,
      "inputs": [],
      "name": "Unpause",
      "type": "event"
    },
    {
      "anonymous": false,
      "inputs": [
        {
          "indexed": false,
          "internalType": "address",
          "name": "account",
          "type": "address"
        }
      ],
      "name": "Unpaused",
      "type": "event"
    },
    {
      "anonymous": false,
      "inputs": [
        {
          "indexed": true,
          "internalType": "address",
          "name": "sender",
          "type": "address"
        },
        {
          "indexed": false,
          "internalType": "uint256",
          "name": "amount",
          "type": "uint256"
        },
        {
          "indexed": false,
          "internalType": "uint256",
          "name": "shares",
          "type": "uint256"
        }
      ],
      "name": "Withdraw",
      "type": "event"
    },
    {
      "inputs": [],
      "name": "MAX_CALL_FEE",
      "outputs": [
        {
          "internalType": "uint256",
          "name": "",
          "type": "uint256"
        }
      ],
      "stateMutability": "view",
      "type": "function"
    },
    {
      "inputs": [],
      "name": "MAX_PERFORMANCE_FEE",
      "outputs": [
        {
          "internalType": "uint256",
          "name": "",
          "type": "uint256"
        }
      ],
      "stateMutability": "view",
      "type": "function"
    },
    {
      "inputs": [],
      "name": "MAX_WITHDRAW_FEE",
      "outputs": [
        {
          "internalType": "uint256",
          "name": "",
          "type": "uint256"
        }
      ],
      "stateMutability": "view",
      "type": "function"
    },
    {
      "inputs": [],
      "name": "MAX_WITHDRAW_FEE_PERIOD",
      "outputs": [
        {
          "internalType": "uint256",
          "name": "",
          "type": "uint256"
        }
      ],
      "stateMutability": "view",
      "type": "function"
    },
    {
      "inputs": [],
      "name": "admin",
      "outputs": [
        {
          "internalType": "address",
          "name": "",
          "type": "address"
        }
      ],
      "stateMutability": "view",
      "type": "function"
    },
    {
      "inputs": [],
      "name": "available",
      "outputs": [
        {
          "internalType": "uint256",
          "name": "",
          "type": "uint256"
        }
      ],
      "stateMutability": "view",
      "type": "function"
    },
    {
      "inputs": [],
      "name": "balanceOf",
      "outputs": [
        {
          "internalType": "uint256",
          "name": "",
          "type": "uint256"
        }
      ],
      "stateMutability": "view",
      "type": "function"
    },
    {
      "inputs": [],
      "name": "calculateHarvestCakeRewards",
      "outputs": [
        {
          "internalType": "uint256",
          "name": "",
          "type": "uint256"
        }
      ],
      "stateMutability": "view",
      "type": "function"
    },
    {
      "inputs": [],
      "name": "calculateTotalPendingCakeRewards",
      "outputs": [
        {
          "internalType": "uint256",
          "name": "",
          "type": "uint256"
        }
      ],
      "stateMutability": "view",
      "type": "function"
    },
    {
      "inputs": [],
      "name": "callFee",
      "outputs": [
        {
          "internalType": "uint256",
          "name": "",
          "type": "uint256"
        }
      ],
      "stateMutability": "view",
      "type": "function"
    },
    {
      "inputs": [
        {
          "internalType": "uint256",
          "name": "_amount",
          "type": "uint256"
        }
      ],
      "name": "deposit",
      "outputs": [],
      "stateMutability": "nonpayable",
      "type": "function"
    },
    {
      "inputs": [],
      "name": "emergencyWithdraw",
      "outputs": [],
      "stateMutability": "nonpayable",
      "type": "function"
    },
    {
      "inputs": [],
      "name": "getPricePerFullShare",
      "outputs": [
        {
          "internalType": "uint256",
          "name": "",
          "type": "uint256"
        }
      ],
      "stateMutability": "view",
      "type": "function"
    },
    {
      "inputs": [],
      "name": "harvest",
      "outputs": [],
      "stateMutability": "nonpayable",
      "type": "function"
    },
    {
      "inputs": [
        {
          "internalType": "address",
          "name": "_token",
          "type": "address"
        }
      ],
      "name": "inCaseTokensGetStuck",
      "outputs": [],
      "stateMutability": "nonpayable",
      "type": "function"
    },
    {
      "inputs": [],
      "name": "lastHarvestedTime",
      "outputs": [
        {
          "internalType": "uint256",
          "name": "",
          "type": "uint256"
        }
      ],
      "stateMutability": "view",
      "type": "function"
    },
    {
      "inputs": [],
      "name": "masterchef",
      "outputs": [
        {
          "internalType": "contract IMasterChef",
          "name": "",
          "type": "address"
        }
      ],
      "stateMutability": "view",
      "type": "function"
    },
    {
      "inputs": [],
      "name": "owner",
      "outputs": [
        {
          "internalType": "address",
          "name": "",
          "type": "address"
        }
      ],
      "stateMutability": "view",
      "type": "function"
    },
    {
      "inputs": [],
      "name": "pause",
      "outputs": [],
      "stateMutability": "nonpayable",
      "type": "function"
    },
    {
      "inputs": [],
      "name": "paused",
      "outputs": [
        {
          "internalType": "bool",
          "name": "",
          "type": "bool"
        }
      ],
      "stateMutability": "view",
      "type": "function"
    },
    {
      "inputs": [],
      "name": "performanceFee",
      "outputs": [
        {
          "internalType": "uint256",
          "name": "",
          "type": "uint256"
        }
      ],
      "stateMutability": "view",
      "type": "function"
    },
    {
      "inputs": [],
      "name": "receiptToken",
      "outputs": [
        {
          "internalType": "contract IERC20",
          "name": "",
          "type": "address"
        }
      ],
      "stateMutability": "view",
      "type": "function"
    },
    {
      "inputs": [],
      "name": "renounceOwnership",
      "outputs": [],
      "stateMutability": "nonpayable",
      "type": "function"
    },
    {
      "inputs": [
        {
          "internalType": "address",
          "name": "_admin",
          "type": "address"
        }
      ],
      "name": "setAdmin",
      "outputs": [],
      "stateMutability": "nonpayable",
      "type": "function"
    },
    {
      "inputs": [
        {
          "internalType": "uint256",
          "name": "_callFee",
          "type": "uint256"
        }
      ],
      "name": "setCallFee",
      "outputs": [],
      "stateMutability": "nonpayable",
      "type": "function"
    },
    {
      "inputs": [
        {
          "internalType": "uint256",
          "name": "_performanceFee",
          "type": "uint256"
        }
      ],
      "name": "setPerformanceFee",
      "outputs": [],
      "stateMutability": "nonpayable",
      "type": "function"
    },
    {
      "inputs": [
        {
          "internalType": "address",
          "name": "_treasury",
          "type": "address"
        }
      ],
      "name": "setTreasury",
      "outputs": [],
      "stateMutability": "nonpayable",
      "type": "function"
    },
    {
      "inputs": [
        {
          "internalType": "uint256",
          "name": "_withdrawFee",
          "type": "uint256"
        }
      ],
      "name": "setWithdrawFee",
      "outputs": [],
      "stateMutability": "nonpayable",
      "type": "function"
    },
    {
      "inputs": [
        {
          "internalType": "uint256",
          "name": "_withdrawFeePeriod",
          "type": "uint256"
        }
      ],
      "name": "setWithdrawFeePeriod",
      "outputs": [],
      "stateMutability": "nonpayable",
      "type": "function"
    },
    {
      "inputs": [],
      "name": "token",
      "outputs": [
        {
          "internalType": "contract IERC20",
          "name": "",
          "type": "address"
        }
      ],
      "stateMutability": "view",
      "type": "function"
    },
    {
      "inputs": [],
      "name": "totalShares",
      "outputs": [
        {
          "internalType": "uint256",
          "name": "",
          "type": "uint256"
        }
      ],
      "stateMutability": "view",
      "type": "function"
    },
    {
      "inputs": [
        {
          "internalType": "address",
          "name": "newOwner",
          "type": "address"
        }
      ],
      "name": "transferOwnership",
      "outputs": [],
      "stateMutability": "nonpayable",
      "type": "function"
    },
    {
      "inputs": [],
      "name": "treasury",
      "outputs": [
        {
          "internalType": "address",
          "name": "",
          "type": "address"
        }
      ],
      "stateMutability": "view",
      "type": "function"
    },
    {
      "inputs": [],
      "name": "unpause",
      "outputs": [],
      "stateMutability": "nonpayable",
      "type": "function"
    },
    {
      "inputs": [
        {
          "internalType": "address",
          "name": "",
          "type": "address"
        }
      ],
      "name": "userInfo",
      "outputs": [
        {
          "internalType": "uint256",
          "name": "shares",
          "type": "uint256"
        },
        {
          "internalType": "uint256",
          "name": "lastDepositedTime",
          "type": "uint256"
        },
        {
          "internalType": "uint256",
          "name": "cakeAtLastUserAction",
          "type": "uint256"
        },
        {
          "internalType": "uint256",
          "name": "lastUserActionTime",
          "type": "uint256"
        }
      ],
      "stateMutability": "view",
      "type": "function"
    },
    {
      "inputs": [
        {
          "internalType": "uint256",
          "name": "_shares",
          "type": "uint256"
        }
      ],
      "name": "withdraw",
      "outputs": [],
      "stateMutability": "nonpayable",
      "type": "function"
    },
    {
      "inputs": [],
      "name": "withdrawAll",
      "outputs": [],
      "stateMutability": "nonpayable",
      "type": "function"
    },
    {
      "inputs": [],
      "name": "withdrawFee",
      "outputs": [
        {
          "internalType": "uint256",
          "name": "",
          "type": "uint256"
        }
      ],
      "stateMutability": "view",
      "type": "function"
    },
    {
      "inputs": [],
      "name": "withdrawFeePeriod",
      "outputs": [
        {
          "internalType": "uint256",
          "name": "",
          "type": "uint256"
        }
      ],
      "stateMutability": "view",
      "type": "function"
    }
  ],
  "bytecode": "0x60e060405260c86006556019600755600a6008556203f4806009553480156200002757600080fd5b5060405162002c1438038062002c148339810160408190526200004a91620006e0565b600080546001600160a01b031916339081178255604051909182917f8be0079c531659141344cd1fd0a4f28419497f9722a3daafe3b4186f6b6457e0908290a3506000805460ff60a01b191690556001600160a01b038516620000f45760405162461bcd60e51b815260206004820152601f60248201527f5f746f6b656e2073686f756c64206e6f7420626520616464726573732830290060448201526064015b60405180910390fd5b6001600160a01b0384166200015b5760405162461bcd60e51b815260206004820152602660248201527f5f72656365697074546f6b656e2073686f756c64206e6f74206265206164647260448201526565737328302960d01b6064820152608401620000eb565b6001600160a01b038316620001bf5760405162461bcd60e51b8152602060048201526024808201527f5f6d6173746572636865662073686f756c64206e6f74206265206164647265736044820152637328302960e01b6064820152608401620000eb565b6001600160a01b038216620002175760405162461bcd60e51b815260206004820152601f60248201527f5f61646d696e2073686f756c64206e6f742062652061646472657373283029006044820152606401620000eb565b6001600160a01b0381166200027a5760405162461bcd60e51b815260206004820152602260248201527f5f74726561737572792073686f756c64206e6f74206265206164647265737328604482015261302960f01b6064820152608401620000eb565b6001600160601b0319606086811b821660805285811b821660a05284901b1660c052600480546001600160a01b038481166001600160a01b031992831617909255600580548484169216919091179055620002ea9086168460001962001aa4620002f5602090811b91909117901c565b505050505062000817565b801580620003835750604051636eb1769f60e11b81523060048201526001600160a01b03838116602483015284169063dd62ed3e9060440160206040518083038186803b1580156200034657600080fd5b505afa1580156200035b573d6000803e3d6000fd5b505050506040513d601f19601f820116820180604052508101906200038191906200075f565b155b620003f75760405162461bcd60e51b815260206004820152603660248201527f5361666545524332303a20617070726f76652066726f6d206e6f6e2d7a65726f60448201527f20746f206e6f6e2d7a65726f20616c6c6f77616e6365000000000000000000006064820152608401620000eb565b604080516001600160a01b038416602482015260448082018490528251808303909101815260649091019091526020810180516001600160e01b0390811663095ea7b360e01b179091526200044f9185916200045416565b505050565b6000620004b0826040518060400160405280602081526020017f5361666545524332303a206c6f772d6c6576656c2063616c6c206661696c6564815250856001600160a01b03166200053260201b62001c00179092919060201c565b8051909150156200044f5780806020019051810190620004d19190620006be565b6200044f5760405162461bcd60e51b815260206004820152602a60248201527f5361666545524332303a204552433230206f7065726174696f6e20646964206e6044820152691bdd081cdd58d8d9595960b21b6064820152608401620000eb565b60606200054384846000856200054d565b90505b9392505050565b606082471015620005b05760405162461bcd60e51b815260206004820152602660248201527f416464726573733a20696e73756666696369656e742062616c616e636520666f6044820152651c8818d85b1b60d21b6064820152608401620000eb565b843b620006005760405162461bcd60e51b815260206004820152601d60248201527f416464726573733a2063616c6c20746f206e6f6e2d636f6e74726163740000006044820152606401620000eb565b600080866001600160a01b031685876040516200061e919062000778565b60006040518083038185875af1925050503d80600081146200065d576040519150601f19603f3d011682016040523d82523d6000602084013e62000662565b606091505b5090925090506200067582828662000680565b979650505050505050565b606083156200069157508162000546565b825115620006a25782518084602001fd5b8160405162461bcd60e51b8152600401620000eb919062000796565b600060208284031215620006d0578081fd5b8151801515811462000546578182fd5b600080600080600060a08688031215620006f8578081fd5b85516200070581620007fe565b60208701519095506200071881620007fe565b60408701519094506200072b81620007fe565b60608701519093506200073e81620007fe565b60808701519092506200075181620007fe565b809150509295509295909350565b60006020828403121562000771578081fd5b5051919050565b600082516200078c818460208701620007cb565b9190910192915050565b6020815260008251806020840152620007b7816040850160208701620007cb565b601f01601f19169190910160400192915050565b60005b83811015620007e8578181015183820152602001620007ce565b83811115620007f8576000848401525b50505050565b6001600160a01b03811681146200081457600080fd5b50565b60805160601c60a05160601c60c05160601c612354620008c0600039600081816104ac0152818161082301528181610bde01528181610e3a015281816110a601528181611308015281816116db0152611d3c01526000818161044c01526117fd0152600081816104d3015281816109030152818161097f01528181610c7701528181610ccc01528181610d8a01528181611146015281816115a3015261176d01526123546000f3fe608060405234801561001057600080fd5b506004361061023d5760003560e01c8063853828b61161013b578063db2e21bc116100b8578063f0f442601161007c578063f0f442601461046e578063f2fde38b14610481578063f851a44014610494578063fb1db278146104a7578063fc0c546a146104ce57600080fd5b8063db2e21bc1461041a578063def68a9c14610422578063df10b4e614610435578063e941fa781461043e578063ec78e8321461044757600080fd5b8063b60f0531116100ff578063b60f0531146103e2578063b6ac642a146103eb578063b6b55f25146103fe578063bdca916514610411578063d4b0de2f146102c557600080fd5b8063853828b6146103af57806387788782146103b75780638da5cb5b146103c057806390321e1a146103d15780639d72596b146103da57600080fd5b806348a0d754116101c957806370897b231161018d57806370897b231461037c578063715018a61461038f578063722713f71461039757806377c7b8fc1461039f5780638456cb59146103a757600080fd5b806348a0d7541461031157806358ebceb6146103195780635c975abb1461032157806361d027b31461033e578063704b6c021461036957600080fd5b80632cfc5f01116102105780632cfc5f01146102db5780632e1a7d4d146102e55780633a98ef39146102f85780633f4ba83a146103015780634641257d1461030957600080fd5b80631959a002146102425780631efac1b81461029d57806326465826146102b25780632ad5a53f146102c5575b600080fd5b610278610250366004612074565b6001602081905260009182526040909120805491810154600282015460039092015490919084565b6040805194855260208501939093529183015260608201526080015b60405180910390f35b6102b06102ab3660046120bb565b6104f5565b005b6102b06102c03660046120bb565b6105a6565b6102cd606481565b604051908152602001610294565b6102cd6203f48081565b6102b06102f33660046120bb565b610637565b6102cd60025481565b6102b0610a1b565b6102b0610ac8565b6102cd610d72565b6102cd610e11565b600054600160a01b900460ff166040519015158152602001610294565b600554610351906001600160a01b031681565b6040516001600160a01b039091168152602001610294565b6102b0610377366004612074565b610ece565b6102b061038a3660046120bb565b610f69565b6102b0611009565b6102cd61107d565b6102cd6111cc565b6102b06111ff565b6102b0611286565b6102cd60065481565b6000546001600160a01b0316610351565b6102cd60075481565b6102cd6112df565b6102cd60035481565b6102b06103f93660046120bb565b6113b5565b6102b061040c3660046120bb565b61144e565b6102cd6101f481565b6102b061169b565b6102b0610430366004612074565b611741565b6102cd60095481565b6102cd60085481565b6103517f000000000000000000000000000000000000000000000000000000000000000081565b6102b061047c366004612074565b61191f565b6102b061048f366004612074565b6119ba565b600454610351906001600160a01b031681565b6103517f000000000000000000000000000000000000000000000000000000000000000081565b6103517f000000000000000000000000000000000000000000000000000000000000000081565b6004546001600160a01b031633146105285760405162461bcd60e51b815260040161051f90612249565b60405180910390fd5b6203f4808111156105a15760405162461bcd60e51b815260206004820152603d60248201527f7769746864726177466565506572696f642063616e6e6f74206265206d6f726560448201527f207468616e204d41585f57495448445241575f4645455f504552494f44000000606482015260840161051f565b600955565b6004546001600160a01b031633146105d05760405162461bcd60e51b815260040161051f90612249565b60648111156106325760405162461bcd60e51b815260206004820152602860248201527f63616c6c4665652063616e6e6f74206265206d6f7265207468616e204d41585f60448201526743414c4c5f46454560c01b606482015260840161051f565b600755565b333b156106565760405162461bcd60e51b815260040161051f9061221b565b3332146106755760405162461bcd60e51b815260040161051f9061215d565b60405180604001604052806008815260200167776974686472617760c01b815250600a816040516106a6919061210e565b9081526040519081900360200190205460ff16156106d65760405162461bcd60e51b815260040161051f90612194565b6001600a826040516106e8919061210e565b9081526040805160209281900383019020805460ff191693151593909317909255336000908152600190915220826107585760405162461bcd60e51b81526020600482015260136024820152724e6f7468696e6720746f20776974686472617760681b604482015260640161051f565b80548311156107a95760405162461bcd60e51b815260206004820152601f60248201527f576974686472617720616d6f756e7420657863656564732062616c616e636500604482015260640161051f565b60006107c96002546107c3866107bd61107d565b90611c17565b90611c23565b82549091506107d89085611c2f565b82556002546107e79085611c2f565b60025560006107f4610d72565b9050818110156108ba57600061080a8383611c2f565b604051631058d28160e01b8152600481018290529091507f00000000000000000000000000000000000000000000000000000000000000006001600160a01b031690631058d28190602401600060405180830381600087803b15801561086f57600080fd5b505af1158015610883573d6000803e3d6000fd5b505050506000610891610d72565b9050600061089f8285611c2f565b9050828110156108b6576108b38482611c3b565b94505b5050505b60095460018401546108cb91611c3b565b42101561093a5760006108ef6127106107c360085486611c1790919063ffffffff16565b60055490915061092c906001600160a01b037f00000000000000000000000000000000000000000000000000000000000000008116911683611c47565b6109368382611c2f565b9250505b8254156109645761095a6002546107c361095261107d565b865490611c17565b600284015561096c565b600060028401555b4260038401556109a66001600160a01b037f0000000000000000000000000000000000000000000000000000000000000000163384611c47565b604080518381526020810187905233917ff279e6a1f5e320cca91135676d9cb6e44ca8a08c0b88342bcdb1144f6511b56891015b60405180910390a25050506000600a826040516109f7919061210e565b908152604051908190036020019020805491151560ff199092169190911790555050565b6004546001600160a01b03163314610a455760405162461bcd60e51b815260040161051f90612249565b600054600160a01b900460ff16610a955760405162461bcd60e51b815260206004820152601460248201527314185d5cd8589b194e881b9bdd081c185d5cd95960621b604482015260640161051f565b610a9d611c77565b6040517f7805862f689e2f13df9f062ff482ad3ad112aca9e0847911ed832e158c525b3390600090a1565b333b15610ae75760405162461bcd60e51b815260040161051f9061221b565b333214610b065760405162461bcd60e51b815260040161051f9061215d565b600054600160a01b900460ff1615610b305760405162461bcd60e51b815260040161051f906121bc565b604051806040016040528060078152602001661a185c9d995cdd60ca1b815250600a81604051610b60919061210e565b9081526040519081900360200190205460ff1615610b905760405162461bcd60e51b815260040161051f90612194565b6001600a82604051610ba2919061210e565b908152604051908190036020018120805492151560ff1990931692909217909155631058d28160e01b8152600060048201526001600160a01b037f00000000000000000000000000000000000000000000000000000000000000001690631058d28190602401600060405180830381600087803b158015610c2257600080fd5b505af1158015610c36573d6000803e3d6000fd5b505050506000610c44610d72565b90506000610c636127106107c360065485611c1790919063ffffffff16565b600554909150610ca0906001600160a01b037f00000000000000000000000000000000000000000000000000000000000000008116911683611c47565b6000610cbd6127106107c360075486611c1790919063ffffffff16565b9050610cf36001600160a01b037f0000000000000000000000000000000000000000000000000000000000000000163383611c47565b610cfb611d14565b42600355604080518381526020810183905233917f71bab65ced2e5750775a0613be067df48ef06cf92a496ebf7663ae0660924954910160405180910390a25050506000600a82604051610d4f919061210e565b908152604051908190036020019020805491151560ff1990921691909117905550565b6040516370a0823160e01b81523060048201526000907f00000000000000000000000000000000000000000000000000000000000000006001600160a01b0316906370a082319060240160206040518083038186803b158015610dd457600080fd5b505afa158015610de8573d6000803e3d6000fd5b505050506040513d601f19601f82011682018060405250810190610e0c91906120d3565b905090565b604051631175a1dd60e01b81526000600482018190523060248301529081906001600160a01b037f00000000000000000000000000000000000000000000000000000000000000001690631175a1dd9060440160206040518083038186803b158015610e7c57600080fd5b505afa158015610e90573d6000803e3d6000fd5b505050506040513d601f19601f82011682018060405250810190610eb491906120d3565b9050610ec8610ec1610d72565b8290611c3b565b92915050565b6000546001600160a01b03163314610ef85760405162461bcd60e51b815260040161051f906121e6565b6001600160a01b038116610f475760405162461bcd60e51b815260206004820152601660248201527543616e6e6f74206265207a65726f206164647265737360501b604482015260640161051f565b600480546001600160a01b0319166001600160a01b0392909216919091179055565b6004546001600160a01b03163314610f935760405162461bcd60e51b815260040161051f90612249565b6101f48111156110045760405162461bcd60e51b815260206004820152603660248201527f706572666f726d616e63654665652063616e6e6f74206265206d6f7265207468604482015275616e204d41585f504552464f524d414e43455f46454560501b606482015260840161051f565b600655565b6000546001600160a01b031633146110335760405162461bcd60e51b815260040161051f906121e6565b600080546040516001600160a01b03909116907f8be0079c531659141344cd1fd0a4f28419497f9722a3daafe3b4186f6b6457e0908390a3600080546001600160a01b0319169055565b6040516393f1a40b60e01b81526000600482018190523060248301529081906001600160a01b037f000000000000000000000000000000000000000000000000000000000000000016906393f1a40b90604401604080518083038186803b1580156110e757600080fd5b505afa1580156110fb573d6000803e3d6000fd5b505050506040513d601f19601f8201168201806040525081019061111f91906120eb565b506040516370a0823160e01b81523060048201529091506111c69082906001600160a01b037f000000000000000000000000000000000000000000000000000000000000000016906370a082319060240160206040518083038186803b15801561118857600080fd5b505afa15801561119c573d6000803e3d6000fd5b505050506040513d601f19601f820116820180604052508101906111c091906120d3565b90611c3b565b91505090565b60006002546000146111f257610e0c6002546107c3670de0b6b3a76400006107bd61107d565b50670de0b6b3a764000090565b6004546001600160a01b031633146112295760405162461bcd60e51b815260040161051f90612249565b600054600160a01b900460ff16156112535760405162461bcd60e51b815260040161051f906121bc565b61125b611da4565b6040517f6985a02210a168e66602d3235cb6db0e70f92b3ba4d376a33c0f3d9434bff62590600090a1565b333b156112a55760405162461bcd60e51b815260040161051f9061221b565b3332146112c45760405162461bcd60e51b815260040161051f9061215d565b336000908152600160205260409020546112dd90610637565b565b604051631175a1dd60e01b81526000600482018190523060248301529081906001600160a01b037f00000000000000000000000000000000000000000000000000000000000000001690631175a1dd9060440160206040518083038186803b15801561134a57600080fd5b505afa15801561135e573d6000803e3d6000fd5b505050506040513d601f19601f8201168201806040525081019061138291906120d3565b905061138f610ec1610d72565b905060006113ae6127106107c360075485611c1790919063ffffffff16565b9392505050565b6004546001600160a01b031633146113df5760405162461bcd60e51b815260040161051f90612249565b60648111156114495760405162461bcd60e51b815260206004820152603060248201527f77697468647261774665652063616e6e6f74206265206d6f7265207468616e2060448201526f4d41585f57495448445241575f46454560801b606482015260840161051f565b600855565b600054600160a01b900460ff16156114785760405162461bcd60e51b815260040161051f906121bc565b333b156114975760405162461bcd60e51b815260040161051f9061221b565b3332146114b65760405162461bcd60e51b815260040161051f9061215d565b6040518060400160405280600781526020016619195c1bdcda5d60ca1b815250600a816040516114e6919061210e565b9081526040519081900360200190205460ff16156115165760405162461bcd60e51b815260040161051f90612194565b6001600a82604051611528919061210e565b908152604051908190036020019020805491151560ff199092169190911790558161158a5760405162461bcd60e51b8152602060048201526012602482015271139bdd1a1a5b99c81d1bc819195c1bdcda5d60721b604482015260640161051f565b600061159461107d565b90506115cb6001600160a01b037f000000000000000000000000000000000000000000000000000000000000000016333086611e09565b60006002546000146115f7576115f0826107c360025487611c1790919063ffffffff16565b90506115fa565b50825b33600090815260016020526040902080546116159083611c3b565b815542600182015560025461162a9083611c3b565b6002819055611646906107c361163e61107d565b845490611c17565b6002820155426003820155611659611d14565b6040805186815260208101849052429181019190915233907f36af321ec8d3c75236829c5317affd40ddb308863a1236d2d277a4025cccee1e906060016109da565b6004546001600160a01b031633146116c55760405162461bcd60e51b815260040161051f90612249565b604051632989754760e11b8152600060048201527f00000000000000000000000000000000000000000000000000000000000000006001600160a01b031690635312ea8e90602401600060405180830381600087803b15801561172757600080fd5b505af115801561173b573d6000803e3d6000fd5b50505050565b6004546001600160a01b0316331461176b5760405162461bcd60e51b815260040161051f90612249565b7f00000000000000000000000000000000000000000000000000000000000000006001600160a01b0316816001600160a01b031614156117fb5760405162461bcd60e51b815260206004820152602560248201527f546f6b656e2063616e6e6f742062652073616d65206173206465706f736974206044820152643a37b5b2b760d91b606482015260840161051f565b7f00000000000000000000000000000000000000000000000000000000000000006001600160a01b0316816001600160a01b0316141561188b5760405162461bcd60e51b815260206004820152602560248201527f546f6b656e2063616e6e6f742062652073616d652061732072656365697074206044820152643a37b5b2b760d91b606482015260840161051f565b6040516370a0823160e01b81523060048201526000906001600160a01b038316906370a082319060240160206040518083038186803b1580156118cd57600080fd5b505afa1580156118e1573d6000803e3d6000fd5b505050506040513d601f19601f8201168201806040525081019061190591906120d3565b905061191b6001600160a01b0383163383611c47565b5050565b6000546001600160a01b031633146119495760405162461bcd60e51b815260040161051f906121e6565b6001600160a01b0381166119985760405162461bcd60e51b815260206004820152601660248201527543616e6e6f74206265207a65726f206164647265737360501b604482015260640161051f565b600580546001600160a01b0319166001600160a01b0392909216919091179055565b6000546001600160a01b031633146119e45760405162461bcd60e51b815260040161051f906121e6565b6001600160a01b038116611a495760405162461bcd60e51b815260206004820152602660248201527f4f776e61626c653a206e6577206f776e657220697320746865207a65726f206160448201526564647265737360d01b606482015260840161051f565b600080546040516001600160a01b03808516939216917f8be0079c531659141344cd1fd0a4f28419497f9722a3daafe3b4186f6b6457e091a3600080546001600160a01b0319166001600160a01b0392909216919091179055565b801580611b2d5750604051636eb1769f60e11b81523060048201526001600160a01b03838116602483015284169063dd62ed3e9060440160206040518083038186803b158015611af357600080fd5b505afa158015611b07573d6000803e3d6000fd5b505050506040513d601f19601f82011682018060405250810190611b2b91906120d3565b155b611b985760405162461bcd60e51b815260206004820152603660248201527f5361666545524332303a20617070726f76652066726f6d206e6f6e2d7a65726f60448201527520746f206e6f6e2d7a65726f20616c6c6f77616e636560501b606482015260840161051f565b6040516001600160a01b038316602482015260448101829052611bfb90849063095ea7b360e01b906064015b60408051601f198184030181529190526020810180516001600160e01b03166001600160e01b031990931692909217909152611e41565b505050565b6060611c0f8484600085611f13565b949350505050565b60006113ae82846122a6565b60006113ae8284612286565b60006113ae82846122c5565b60006113ae828461226e565b6040516001600160a01b038316602482015260448101829052611bfb90849063a9059cbb60e01b90606401611bc4565b600054600160a01b900460ff16611cc75760405162461bcd60e51b815260206004820152601460248201527314185d5cd8589b194e881b9bdd081c185d5cd95960621b604482015260640161051f565b6000805460ff60a01b191690557f5db9ee0a495bf2e6ff9c91a7834c1ba4fdd244a5e8aa4e537bd38aeae4b073aa335b6040516001600160a01b03909116815260200160405180910390a1565b6000611d1e610d72565b90508015611da1576040516341441d3b60e01b8152600481018290527f00000000000000000000000000000000000000000000000000000000000000006001600160a01b0316906341441d3b90602401600060405180830381600087803b158015611d8857600080fd5b505af1158015611d9c573d6000803e3d6000fd5b505050505b50565b600054600160a01b900460ff1615611dce5760405162461bcd60e51b815260040161051f906121bc565b6000805460ff60a01b1916600160a01b1790557f62e78cea01bee320cd4e420270b5ea74000d11b0c9f74754ebdbfc544b05a258611cf73390565b6040516001600160a01b038085166024830152831660448201526064810182905261173b9085906323b872dd60e01b90608401611bc4565b6000611e96826040518060400160405280602081526020017f5361666545524332303a206c6f772d6c6576656c2063616c6c206661696c6564815250856001600160a01b0316611c009092919063ffffffff16565b805190915015611bfb5780806020019051810190611eb4919061209b565b611bfb5760405162461bcd60e51b815260206004820152602a60248201527f5361666545524332303a204552433230206f7065726174696f6e20646964206e6044820152691bdd081cdd58d8d9595960b21b606482015260840161051f565b606082471015611f745760405162461bcd60e51b815260206004820152602660248201527f416464726573733a20696e73756666696369656e742062616c616e636520666f6044820152651c8818d85b1b60d21b606482015260840161051f565b843b611fc25760405162461bcd60e51b815260206004820152601d60248201527f416464726573733a2063616c6c20746f206e6f6e2d636f6e7472616374000000604482015260640161051f565b600080866001600160a01b03168587604051611fde919061210e565b60006040518083038185875af1925050503d806000811461201b576040519150601f19603f3d011682016040523d82523d6000602084013e612020565b606091505b509150915061203082828661203b565b979650505050505050565b6060831561204a5750816113ae565b82511561205a5782518084602001fd5b8160405162461bcd60e51b815260040161051f919061212a565b600060208284031215612085578081fd5b81356001600160a01b03811681146113ae578182fd5b6000602082840312156120ac578081fd5b815180151581146113ae578182fd5b6000602082840312156120cc578081fd5b5035919050565b6000602082840312156120e4578081fd5b5051919050565b600080604083850312156120fd578081fd5b505080516020909101519092909150565b600082516121208184602087016122dc565b9190910192915050565b60208152600082518060208401526121498160408501602087016122dc565b601f01601f19169190910160400192915050565b6020808252601a908201527f70726f787920636f6e7472616374206e6f7420616c6c6f776564000000000000604082015260600190565b6020808252600e908201526d1c99595b9d1c985b9d0818d85b1b60921b604082015260600190565b60208082526010908201526f14185d5cd8589b194e881c185d5cd95960821b604082015260600190565b6020808252818101527f4f776e61626c653a2063616c6c6572206973206e6f7420746865206f776e6572604082015260600190565b60208082526014908201527318dbdb9d1c9858dd081b9bdd08185b1b1bddd95960621b604082015260600190565b6020808252600b908201526a61646d696e3a207775743f60a81b604082015260600190565b6000821982111561228157612281612308565b500190565b6000826122a157634e487b7160e01b81526012600452602481fd5b500490565b60008160001904831182151516156122c0576122c0612308565b500290565b6000828210156122d7576122d7612308565b500390565b60005b838110156122f75781810151838201526020016122df565b8381111561173b5750506000910152565b634e487b7160e01b600052601160045260246000fdfea2646970667358221220daecb759f38b59c98f9dbc319c7dc29b768a84a197b20e30a401040b1250c7d664736f6c63430008040033",
  "linkReferences": {},
  "deployedLinkReferences": {}
}