{
  "_format": "hh-sol-artifact-1",
  "contractName": "CairoRouter",
  "sourceName": "contracts/router/CairoRouter.sol",
  "abi": [
    {
      "inputs": [
        {
          "internalType": "address",
          "name": "_factory",
          "type": "address"
        },
        {
          "internalType": "address",
          "name": "_WETH",
          "type": "address"
        }
      ],
      "stateMutability": "nonpayable",
      "type": "constructor"
    },
    {
      "anonymous": false,
      "inputs": [
        {
          "indexed": true,
          "internalType": "address",
          "name": "previousOwner",
          "type": "address"
        },
        {
          "indexed": true,
          "internalType": "address",
          "name": "newOwner",
          "type": "address"
        }
      ],
      "name": "OwnershipTransferred",
      "type": "event"
    },
    {
      "inputs": [],
      "name": "WETH",
      "outputs": [
        {
          "internalType": "address",
          "name": "",
          "type": "address"
        }
      ],
      "stateMutability": "view",
      "type": "function"
    },
    {
      "inputs": [
        {
          "internalType": "address",
          "name": "tokenA",
          "type": "address"
        },
        {
          "internalType": "address",
          "name": "tokenB",
          "type": "address"
        },
        {
          "internalType": "uint256",
          "name": "amountADesired",
          "type": "uint256"
        },
        {
          "internalType": "uint256",
          "name": "amountBDesired",
          "type": "uint256"
        },
        {
          "internalType": "uint256",
          "name": "amountAMin",
          "type": "uint256"
        },
        {
          "internalType": "uint256",
          "name": "amountBMin",
          "type": "uint256"
        },
        {
          "internalType": "address",
          "name": "to",
          "type": "address"
        },
        {
          "internalType": "uint256",
          "name": "deadline",
          "type": "uint256"
        }
      ],
      "name": "addLiquidity",
      "outputs": [
        {
          "internalType": "uint256",
          "name": "amountA",
          "type": "uint256"
        },
        {
          "internalType": "uint256",
          "name": "amountB",
          "type": "uint256"
        },
        {
          "internalType": "uint256",
          "name": "liquidity",
          "type": "uint256"
        }
      ],
      "stateMutability": "nonpayable",
      "type": "function"
    },
    {
      "inputs": [
        {
          "internalType": "address",
          "name": "token",
          "type": "address"
        },
        {
          "internalType": "uint256",
          "name": "amountTokenDesired",
          "type": "uint256"
        },
        {
          "internalType": "uint256",
          "name": "amountTokenMin",
          "type": "uint256"
        },
        {
          "internalType": "uint256",
          "name": "amountETHMin",
          "type": "uint256"
        },
        {
          "internalType": "address",
          "name": "to",
          "type": "address"
        },
        {
          "internalType": "uint256",
          "name": "deadline",
          "type": "uint256"
        }
      ],
      "name": "addLiquidityETH",
      "outputs": [
        {
          "internalType": "uint256",
          "name": "amountToken",
          "type": "uint256"
        },
        {
          "internalType": "uint256",
          "name": "amountETH",
          "type": "uint256"
        },
        {
          "internalType": "uint256",
          "name": "liquidity",
          "type": "uint256"
        }
      ],
      "stateMutability": "payable",
      "type": "function"
    },
    {
      "inputs": [],
      "name": "factory",
      "outputs": [
        {
          "internalType": "address",
          "name": "",
          "type": "address"
        }
      ],
      "stateMutability": "view",
      "type": "function"
    },
    {
      "inputs": [
        {
          "internalType": "uint256",
          "name": "amountOut",
          "type": "uint256"
        },
        {
          "internalType": "uint256",
          "name": "reserveIn",
          "type": "uint256"
        },
        {
          "internalType": "uint256",
          "name": "reserveOut",
          "type": "uint256"
        }
      ],
      "name": "getAmountIn",
      "outputs": [
        {
          "internalType": "uint256",
          "name": "amountIn",
          "type": "uint256"
        }
      ],
      "stateMutability": "pure",
      "type": "function"
    },
    {
      "inputs": [
        {
          "internalType": "uint256",
          "name": "amountIn",
          "type": "uint256"
        },
        {
          "internalType": "uint256",
          "name": "reserveIn",
          "type": "uint256"
        },
        {
          "internalType": "uint256",
          "name": "reserveOut",
          "type": "uint256"
        }
      ],
      "name": "getAmountOut",
      "outputs": [
        {
          "internalType": "uint256",
          "name": "amountOut",
          "type": "uint256"
        }
      ],
      "stateMutability": "pure",
      "type": "function"
    },
    {
      "inputs": [
        {
          "internalType": "uint256",
          "name": "amountOut",
          "type": "uint256"
        },
        {
          "internalType": "address[]",
          "name": "path",
          "type": "address[]"
        }
      ],
      "name": "getAmountsIn",
      "outputs": [
        {
          "internalType": "uint256[]",
          "name": "amounts",
          "type": "uint256[]"
        }
      ],
      "stateMutability": "view",
      "type": "function"
    },
    {
      "inputs": [
        {
          "internalType": "uint256",
          "name": "amountIn",
          "type": "uint256"
        },
        {
          "internalType": "address[]",
          "name": "path",
          "type": "address[]"
        }
      ],
      "name": "getAmountsOut",
      "outputs": [
        {
          "internalType": "uint256[]",
          "name": "amounts",
          "type": "uint256[]"
        }
      ],
      "stateMutability": "view",
      "type": "function"
    },
    {
      "inputs": [],
      "name": "owner",
      "outputs": [
        {
          "internalType": "address",
          "name": "",
          "type": "address"
        }
      ],
      "stateMutability": "view",
      "type": "function"
    },
    {
      "inputs": [
        {
          "internalType": "uint256",
          "name": "amountA",
          "type": "uint256"
        },
        {
          "internalType": "uint256",
          "name": "reserveA",
          "type": "uint256"
        },
        {
          "internalType": "uint256",
          "name": "reserveB",
          "type": "uint256"
        }
      ],
      "name": "quote",
      "outputs": [
        {
          "internalType": "uint256",
          "name": "amountB",
          "type": "uint256"
        }
      ],
      "stateMutability": "pure",
      "type": "function"
    },
    {
      "inputs": [
        {
          "internalType": "address",
          "name": "tokenA",
          "type": "address"
        },
        {
          "internalType": "address",
          "name": "tokenB",
          "type": "address"
        },
        {
          "internalType": "uint256",
          "name": "liquidity",
          "type": "uint256"
        },
        {
          "internalType": "uint256",
          "name": "amountAMin",
          "type": "uint256"
        },
        {
          "internalType": "uint256",
          "name": "amountBMin",
          "type": "uint256"
        },
        {
          "internalType": "address",
          "name": "to",
          "type": "address"
        },
        {
          "internalType": "uint256",
          "name": "deadline",
          "type": "uint256"
        }
      ],
      "name": "removeLiquidity",
      "outputs": [
        {
          "internalType": "uint256",
          "name": "amountA",
          "type": "uint256"
        },
        {
          "internalType": "uint256",
          "name": "amountB",
          "type": "uint256"
        }
      ],
      "stateMutability": "nonpayable",
      "type": "function"
    },
    {
      "inputs": [
        {
          "internalType": "address",
          "name": "token",
          "type": "address"
        },
        {
          "internalType": "uint256",
          "name": "liquidity",
          "type": "uint256"
        },
        {
          "internalType": "uint256",
          "name": "amountTokenMin",
          "type": "uint256"
        },
        {
          "internalType": "uint256",
          "name": "amountETHMin",
          "type": "uint256"
        },
        {
          "internalType": "address",
          "name": "to",
          "type": "address"
        },
        {
          "internalType": "uint256",
          "name": "deadline",
          "type": "uint256"
        }
      ],
      "name": "removeLiquidityETH",
      "outputs": [
        {
          "internalType": "uint256",
          "name": "amountToken",
          "type": "uint256"
        },
        {
          "internalType": "uint256",
          "name": "amountETH",
          "type": "uint256"
        }
      ],
      "stateMutability": "nonpayable",
      "type": "function"
    },
    {
      "inputs": [
        {
          "internalType": "address",
          "name": "token",
          "type": "address"
        },
        {
          "internalType": "uint256",
          "name": "liquidity",
          "type": "uint256"
        },
        {
          "internalType": "uint256",
          "name": "amountTokenMin",
          "type": "uint256"
        },
        {
          "internalType": "uint256",
          "name": "amountETHMin",
          "type": "uint256"
        },
        {
          "internalType": "address",
          "name": "to",
          "type": "address"
        },
        {
          "internalType": "uint256",
          "name": "deadline",
          "type": "uint256"
        }
      ],
      "name": "removeLiquidityETHSupportingFeeOnTransferTokens",
      "outputs": [
        {
          "internalType": "uint256",
          "name": "amountETH",
          "type": "uint256"
        }
      ],
      "stateMutability": "nonpayable",
      "type": "function"
    },
    {
      "inputs": [
        {
          "internalType": "address",
          "name": "token",
          "type": "address"
        },
        {
          "internalType": "uint256",
          "name": "liquidity",
          "type": "uint256"
        },
        {
          "internalType": "uint256",
          "name": "amountTokenMin",
          "type": "uint256"
        },
        {
          "internalType": "uint256",
          "name": "amountETHMin",
          "type": "uint256"
        },
        {
          "internalType": "address",
          "name": "to",
          "type": "address"
        },
        {
          "internalType": "uint256",
          "name": "deadline",
          "type": "uint256"
        },
        {
          "internalType": "bool",
          "name": "approveMax",
          "type": "bool"
        },
        {
          "internalType": "uint8",
          "name": "v",
          "type": "uint8"
        },
        {
          "internalType": "bytes32",
          "name": "r",
          "type": "bytes32"
        },
        {
          "internalType": "bytes32",
          "name": "s",
          "type": "bytes32"
        }
      ],
      "name": "removeLiquidityETHWithPermit",
      "outputs": [
        {
          "internalType": "uint256",
          "name": "amountToken",
          "type": "uint256"
        },
        {
          "internalType": "uint256",
          "name": "amountETH",
          "type": "uint256"
        }
      ],
      "stateMutability": "nonpayable",
      "type": "function"
    },
    {
      "inputs": [
        {
          "internalType": "address",
          "name": "token",
          "type": "address"
        },
        {
          "internalType": "uint256",
          "name": "liquidity",
          "type": "uint256"
        },
        {
          "internalType": "uint256",
          "name": "amountTokenMin",
          "type": "uint256"
        },
        {
          "internalType": "uint256",
          "name": "amountETHMin",
          "type": "uint256"
        },
        {
          "internalType": "address",
          "name": "to",
          "type": "address"
        },
        {
          "internalType": "uint256",
          "name": "deadline",
          "type": "uint256"
        },
        {
          "internalType": "bool",
          "name": "approveMax",
          "type": "bool"
        },
        {
          "internalType": "uint8",
          "name": "v",
          "type": "uint8"
        },
        {
          "internalType": "bytes32",
          "name": "r",
          "type": "bytes32"
        },
        {
          "internalType": "bytes32",
          "name": "s",
          "type": "bytes32"
        }
      ],
      "name": "removeLiquidityETHWithPermitSupportingFeeOnTransferTokens",
      "outputs": [
        {
          "internalType": "uint256",
          "name": "amountETH",
          "type": "uint256"
        }
      ],
      "stateMutability": "nonpayable",
      "type": "function"
    },
    {
      "inputs": [
        {
          "internalType": "address",
          "name": "tokenA",
          "type": "address"
        },
        {
          "internalType": "address",
          "name": "tokenB",
          "type": "address"
        },
        {
          "internalType": "uint256",
          "name": "liquidity",
          "type": "uint256"
        },
        {
          "internalType": "uint256",
          "name": "amountAMin",
          "type": "uint256"
        },
        {
          "internalType": "uint256",
          "name": "amountBMin",
          "type": "uint256"
        },
        {
          "internalType": "address",
          "name": "to",
          "type": "address"
        },
        {
          "internalType": "uint256",
          "name": "deadline",
          "type": "uint256"
        },
        {
          "internalType": "bool",
          "name": "approveMax",
          "type": "bool"
        },
        {
          "internalType": "uint8",
          "name": "v",
          "type": "uint8"
        },
        {
          "internalType": "bytes32",
          "name": "r",
          "type": "bytes32"
        },
        {
          "internalType": "bytes32",
          "name": "s",
          "type": "bytes32"
        }
      ],
      "name": "removeLiquidityWithPermit",
      "outputs": [
        {
          "internalType": "uint256",
          "name": "amountA",
          "type": "uint256"
        },
        {
          "internalType": "uint256",
          "name": "amountB",
          "type": "uint256"
        }
      ],
      "stateMutability": "nonpayable",
      "type": "function"
    },
    {
      "inputs": [],
      "name": "renounceOwnership",
      "outputs": [],
      "stateMutability": "nonpayable",
      "type": "function"
    },
    {
      "inputs": [
        {
          "internalType": "address",
          "name": "_swapMininng",
          "type": "address"
        }
      ],
      "name": "setSwapMining",
      "outputs": [],
      "stateMutability": "nonpayable",
      "type": "function"
    },
    {
      "inputs": [
        {
          "internalType": "uint256",
          "name": "amountOut",
          "type": "uint256"
        },
        {
          "internalType": "address[]",
          "name": "path",
          "type": "address[]"
        },
        {
          "internalType": "address",
          "name": "to",
          "type": "address"
        },
        {
          "internalType": "uint256",
          "name": "deadline",
          "type": "uint256"
        }
      ],
      "name": "swapETHForExactTokens",
      "outputs": [
        {
          "internalType": "uint256[]",
          "name": "amounts",
          "type": "uint256[]"
        }
      ],
      "stateMutability": "payable",
      "type": "function"
    },
    {
      "inputs": [
        {
          "internalType": "uint256",
          "name": "amountOutMin",
          "type": "uint256"
        },
        {
          "internalType": "address[]",
          "name": "path",
          "type": "address[]"
        },
        {
          "internalType": "address",
          "name": "to",
          "type": "address"
        },
        {
          "internalType": "uint256",
          "name": "deadline",
          "type": "uint256"
        }
      ],
      "name": "swapExactETHForTokens",
      "outputs": [
        {
          "internalType": "uint256[]",
          "name": "amounts",
          "type": "uint256[]"
        }
      ],
      "stateMutability": "payable",
      "type": "function"
    },
    {
      "inputs": [
        {
          "internalType": "uint256",
          "name": "amountOutMin",
          "type": "uint256"
        },
        {
          "internalType": "address[]",
          "name": "path",
          "type": "address[]"
        },
        {
          "internalType": "address",
          "name": "to",
          "type": "address"
        },
        {
          "internalType": "uint256",
          "name": "deadline",
          "type": "uint256"
        }
      ],
      "name": "swapExactETHForTokensSupportingFeeOnTransferTokens",
      "outputs": [],
      "stateMutability": "payable",
      "type": "function"
    },
    {
      "inputs": [
        {
          "internalType": "uint256",
          "name": "amountIn",
          "type": "uint256"
        },
        {
          "internalType": "uint256",
          "name": "amountOutMin",
          "type": "uint256"
        },
        {
          "internalType": "address[]",
          "name": "path",
          "type": "address[]"
        },
        {
          "internalType": "address",
          "name": "to",
          "type": "address"
        },
        {
          "internalType": "uint256",
          "name": "deadline",
          "type": "uint256"
        }
      ],
      "name": "swapExactTokensForETH",
      "outputs": [
        {
          "internalType": "uint256[]",
          "name": "amounts",
          "type": "uint256[]"
        }
      ],
      "stateMutability": "nonpayable",
      "type": "function"
    },
    {
      "inputs": [
        {
          "internalType": "uint256",
          "name": "amountIn",
          "type": "uint256"
        },
        {
          "internalType": "uint256",
          "name": "amountOutMin",
          "type": "uint256"
        },
        {
          "internalType": "address[]",
          "name": "path",
          "type": "address[]"
        },
        {
          "internalType": "address",
          "name": "to",
          "type": "address"
        },
        {
          "internalType": "uint256",
          "name": "deadline",
          "type": "uint256"
        }
      ],
      "name": "swapExactTokensForETHSupportingFeeOnTransferTokens",
      "outputs": [],
      "stateMutability": "nonpayable",
      "type": "function"
    },
    {
      "inputs": [
        {
          "internalType": "uint256",
          "name": "amountIn",
          "type": "uint256"
        },
        {
          "internalType": "uint256",
          "name": "amountOutMin",
          "type": "uint256"
        },
        {
          "internalType": "address[]",
          "name": "path",
          "type": "address[]"
        },
        {
          "internalType": "address",
          "name": "to",
          "type": "address"
        },
        {
          "internalType": "uint256",
          "name": "deadline",
          "type": "uint256"
        }
      ],
      "name": "swapExactTokensForTokens",
      "outputs": [
        {
          "internalType": "uint256[]",
          "name": "amounts",
          "type": "uint256[]"
        }
      ],
      "stateMutability": "nonpayable",
      "type": "function"
    },
    {
      "inputs": [
        {
          "internalType": "uint256",
          "name": "amountIn",
          "type": "uint256"
        },
        {
          "internalType": "uint256",
          "name": "amountOutMin",
          "type": "uint256"
        },
        {
          "internalType": "address[]",
          "name": "path",
          "type": "address[]"
        },
        {
          "internalType": "address",
          "name": "to",
          "type": "address"
        },
        {
          "internalType": "uint256",
          "name": "deadline",
          "type": "uint256"
        }
      ],
      "name": "swapExactTokensForTokensSupportingFeeOnTransferTokens",
      "outputs": [],
      "stateMutability": "nonpayable",
      "type": "function"
    },
    {
      "inputs": [],
      "name": "swapMining",
      "outputs": [
        {
          "internalType": "address",
          "name": "",
          "type": "address"
        }
      ],
      "stateMutability": "view",
      "type": "function"
    },
    {
      "inputs": [
        {
          "internalType": "uint256",
          "name": "amountOut",
          "type": "uint256"
        },
        {
          "internalType": "uint256",
          "name": "amountInMax",
          "type": "uint256"
        },
        {
          "internalType": "address[]",
          "name": "path",
          "type": "address[]"
        },
        {
          "internalType": "address",
          "name": "to",
          "type": "address"
        },
        {
          "internalType": "uint256",
          "name": "deadline",
          "type": "uint256"
        }
      ],
      "name": "swapTokensForExactETH",
      "outputs": [
        {
          "internalType": "uint256[]",
          "name": "amounts",
          "type": "uint256[]"
        }
      ],
      "stateMutability": "nonpayable",
      "type": "function"
    },
    {
      "inputs": [
        {
          "internalType": "uint256",
          "name": "amountOut",
          "type": "uint256"
        },
        {
          "internalType": "uint256",
          "name": "amountInMax",
          "type": "uint256"
        },
        {
          "internalType": "address[]",
          "name": "path",
          "type": "address[]"
        },
        {
          "internalType": "address",
          "name": "to",
          "type": "address"
        },
        {
          "internalType": "uint256",
          "name": "deadline",
          "type": "uint256"
        }
      ],
      "name": "swapTokensForExactTokens",
      "outputs": [
        {
          "internalType": "uint256[]",
          "name": "amounts",
          "type": "uint256[]"
        }
      ],
      "stateMutability": "nonpayable",
      "type": "function"
    },
    {
      "inputs": [
        {
          "internalType": "address",
          "name": "newOwner",
          "type": "address"
        }
      ],
      "name": "transferOwnership",
      "outputs": [],
      "stateMutability": "nonpayable",
      "type": "function"
    },
    {
      "stateMutability": "payable",
      "type": "receive"
    }
  ],
  "bytecode": "0x60c06040523480156200001157600080fd5b5060405162004c7f38038062004c7f8339810160408190526200003491620000b1565b600080546001600160a01b031916339081178255604051909182917f8be0079c531659141344cd1fd0a4f28419497f9722a3daafe3b4186f6b6457e0908290a3506001600160601b0319606092831b8116608052911b1660a052620000e8565b80516001600160a01b0381168114620000ac57600080fd5b919050565b60008060408385031215620000c4578182fd5b620000cf8362000094565b9150620000df6020840162000094565b90509250929050565b60805160601c60a05160601c6149ff62000280600039600081816101d60152818161047d0152818161063a0152818161068901528181610745015281816109bc01528181610d2d01528181610ed0015281816112f8015281816113f7015281816114b1015281816115440152818161167e0152818161171a015281816119a901528181611a7001528181611b0101528181611b8c01528181611c000152818161210a015281816123f40152818161244a0152818161247e0152818161251301528181612678015281816127a60152612842015260008181610524015281816107cf015281816108bd01528181610abe01528181610af701528181610bee01528181610db701528181610eae01528181610ff3015281816115cd0152818161174c015281816118d001528181611c3201528181611ea7015281816120b8015281816120e801528181612211015281816124280152818161270101528181612874015281816132300152818161328e015281816135c9015281816137ea01528181613bc101528181613c730152613cf901526149ff6000f3fe6080604052600436106101c65760003560e01c806385f8c259116100f7578063baa2abde11610095578063e8e3370011610064578063e8e3370014610586578063f2fde38b146105c1578063f305d719146105e1578063fb3bdb41146105f457600080fd5b8063baa2abde146104f2578063c45a015514610512578063d06ca61f14610546578063ded9382a1461056657600080fd5b8063ad5c4648116100d1578063ad5c46481461046b578063ad615dec1461049f578063af2979eb146104bf578063b6f9de95146104df57600080fd5b806385f8c2591461040d5780638803dbee1461042d5780638da5cb5b1461044d57600080fd5b80634e5eda11116101645780635c11d7951161013e5780635c11d795146103a5578063715018a6146103c5578063791ac947146103da5780637ff36ab5146103fa57600080fd5b80634e5eda111461032d5780634f887183146103655780635b0d59841461038557600080fd5b80631f00ca74116101a05780631f00ca74146102ad5780632195995c146102cd57806338ed1739146102ed5780634a25d94a1461030d57600080fd5b806302751cec14610218578063054d50d41461025257806318cbafe51461028057600080fd5b3661021357336001600160a01b037f0000000000000000000000000000000000000000000000000000000000000000161461021157634e487b7160e01b600052600160045260246000fd5b005b600080fd5b34801561022457600080fd5b5061023861023336600461424a565b610607565b604080519283526020830191909152015b60405180910390f35b34801561025e57600080fd5b5061027261026d36600461458a565b610703565b604051908152602001610249565b34801561028c57600080fd5b506102a061029b366004614519565b610718565b604051610249919061463e565b3480156102b957600080fd5b506102a06102c8366004614423565b610ab7565b3480156102d957600080fd5b506102386102e8366004614126565b610aed565b3480156102f957600080fd5b506102a0610308366004614519565b610bc6565b34801561031957600080fd5b506102a0610328366004614519565b610d00565b34801561033957600080fd5b5060015461034d906001600160a01b031681565b6040516001600160a01b039091168152602001610249565b34801561037157600080fd5b5061021161038036600461407d565b610e5a565b34801561039157600080fd5b506102726103a03660046142a7565b610ea6565b3480156103b157600080fd5b506102116103c0366004614519565b610f93565b3480156103d157600080fd5b50610211611259565b3480156103e657600080fd5b506102116103f5366004614519565b6112cd565b6102a06104083660046143be565b61151f565b34801561041957600080fd5b5061027261042836600461458a565b61189b565b34801561043957600080fd5b506102a0610448366004614519565b6118a8565b34801561045957600080fd5b506000546001600160a01b031661034d565b34801561047757600080fd5b5061034d7f000000000000000000000000000000000000000000000000000000000000000081565b3480156104ab57600080fd5b506102726104ba36600461458a565b611973565b3480156104cb57600080fd5b506102726104da36600461424a565b611980565b6102116104ed3660046143be565b611ade565b3480156104fe57600080fd5b5061023861050d3660046140b5565b611e7c565b34801561051e57600080fd5b5061034d7f000000000000000000000000000000000000000000000000000000000000000081565b34801561055257600080fd5b506102a0610561366004614423565b6120b1565b34801561057257600080fd5b506102386105813660046142a7565b6120de565b34801561059257600080fd5b506105a66105a13660046141cf565b6121d1565b60408051938452602084019290925290820152606001610249565b3480156105cd57600080fd5b506102116105dc36600461407d565b6122de565b6105a66105ef36600461424a565b6123c8565b6102a06106023660046143be565b612653565b60008082428110156106345760405162461bcd60e51b815260040161062b90614719565b60405180910390fd5b610663897f00000000000000000000000000000000000000000000000000000000000000008a8a8a308a611e7c565b9093509150610673898685612a21565b604051632e1a7d4d60e01b8152600481018390527f00000000000000000000000000000000000000000000000000000000000000006001600160a01b031690632e1a7d4d90602401600060405180830381600087803b1580156106d557600080fd5b505af11580156106e9573d6000803e3d6000fd5b505050506106f78583612b3c565b50965096945050505050565b6000610710848484612c0a565b949350505050565b6060814281101561073b5760405162461bcd60e51b815260040161062b90614719565b6001600160a01b037f0000000000000000000000000000000000000000000000000000000000000000168686610772600182614905565b81811061078f57634e487b7160e01b600052603260045260246000fd5b90506020020160208101906107a4919061407d565b6001600160a01b0316146107ca5760405162461bcd60e51b815260040161062b9061484a565b6108287f000000000000000000000000000000000000000000000000000000000000000089888880806020026020016040519081016040528093929190818152602001838360200280828437600092019190915250612ce492505050565b915086826001845161083a9190614905565b8151811061085857634e487b7160e01b600052603260045260246000fd5b6020026020010151101561087e5760405162461bcd60e51b815260040161062b906147ce565b61097b868660008181106108a257634e487b7160e01b600052603260045260246000fd5b90506020020160208101906108b7919061407d565b3361094d7f00000000000000000000000000000000000000000000000000000000000000008a8a60008181106108fd57634e487b7160e01b600052603260045260246000fd5b9050602002016020810190610912919061407d565b8b8b600181811061093357634e487b7160e01b600052603260045260246000fd5b9050602002016020810190610948919061407d565b612ec3565b8560008151811061096e57634e487b7160e01b600052603260045260246000fd5b6020026020010151612f48565b6109ba82878780806020026020016040519081016040528093929190818152602001838360200280828437600092019190915250309250613078915050565b7f00000000000000000000000000000000000000000000000000000000000000006001600160a01b0316632e1a7d4d83600185516109f89190614905565b81518110610a1657634e487b7160e01b600052603260045260246000fd5b60200260200101516040518263ffffffff1660e01b8152600401610a3c91815260200190565b600060405180830381600087803b158015610a5657600080fd5b505af1158015610a6a573d6000803e3d6000fd5b50505050610aac848360018551610a819190614905565b81518110610a9f57634e487b7160e01b600052603260045260246000fd5b6020026020010151612b3c565b509695505050505050565b6060610ae47f00000000000000000000000000000000000000000000000000000000000000008484613363565b90505b92915050565b6000806000610b1d7f00000000000000000000000000000000000000000000000000000000000000008f8f612ec3565b9050600087610b2c578c610b30565b6000195b60405163d505accf60e01b81529091506001600160a01b0383169063d505accf90610b6b903390309086908f908e908e908e906004016145fd565b600060405180830381600087803b158015610b8557600080fd5b505af1158015610b99573d6000803e3d6000fd5b50505050610bac8f8f8f8f8f8f8f611e7c565b809450819550505050509b509b9950505050505050505050565b60608142811015610be95760405162461bcd60e51b815260040161062b90614719565b610c477f000000000000000000000000000000000000000000000000000000000000000089888880806020026020016040519081016040528093929190818152602001838360200280828437600092019190915250612ce492505050565b9150868260018451610c599190614905565b81518110610c7757634e487b7160e01b600052603260045260246000fd5b60200260200101511015610c9d5760405162461bcd60e51b815260040161062b906147ce565b610cc1868660008181106108a257634e487b7160e01b600052603260045260246000fd5b610aac82878780806020026020016040519081016040528093929190818152602001838360200280828437600092019190915250899250613078915050565b60608142811015610d235760405162461bcd60e51b815260040161062b90614719565b6001600160a01b037f0000000000000000000000000000000000000000000000000000000000000000168686610d5a600182614905565b818110610d7757634e487b7160e01b600052603260045260246000fd5b9050602002016020810190610d8c919061407d565b6001600160a01b031614610db25760405162461bcd60e51b815260040161062b9061484a565b610e107f00000000000000000000000000000000000000000000000000000000000000008988888080602002602001604051908101604052809392919081815260200183836020028082843760009201919091525061336392505050565b91508682600081518110610e3457634e487b7160e01b600052603260045260246000fd5b6020026020010151111561087e5760405162461bcd60e51b815260040161062b9061478b565b6000546001600160a01b03163314610e845760405162461bcd60e51b815260040161062b90614815565b600180546001600160a01b0319166001600160a01b0392909216919091179055565b600080610ef47f00000000000000000000000000000000000000000000000000000000000000008d7f0000000000000000000000000000000000000000000000000000000000000000612ec3565b9050600086610f03578b610f07565b6000195b60405163d505accf60e01b81529091506001600160a01b0383169063d505accf90610f42903390309086908e908d908d908d906004016145fd565b600060405180830381600087803b158015610f5c57600080fd5b505af1158015610f70573d6000803e3d6000fd5b50505050610f828d8d8d8d8d8d611980565b9d9c50505050505050505050505050565b8042811015610fb45760405162461bcd60e51b815260040161062b90614719565b61106f85856000818110610fd857634e487b7160e01b600052603260045260246000fd5b9050602002016020810190610fed919061407d565b336110697f00000000000000000000000000000000000000000000000000000000000000008989600081811061103357634e487b7160e01b600052603260045260246000fd5b9050602002016020810190611048919061407d565b8a8a600181811061093357634e487b7160e01b600052603260045260246000fd5b8a612f48565b6000858561107e600182614905565b81811061109b57634e487b7160e01b600052603260045260246000fd5b90506020020160208101906110b0919061407d565b6040516370a0823160e01b81526001600160a01b03868116600483015291909116906370a082319060240160206040518083038186803b1580156110f357600080fd5b505afa158015611107573d6000803e3d6000fd5b505050506040513d601f19601f8201168201806040525081019061112b91906143a6565b905061116b868680806020026020016040519081016040528093929190818152602001838360200280828437600092019190915250889250613538915050565b8661123182888861117d600182614905565b81811061119a57634e487b7160e01b600052603260045260246000fd5b90506020020160208101906111af919061407d565b6040516370a0823160e01b81526001600160a01b03898116600483015291909116906370a08231906024015b60206040518083038186803b1580156111f357600080fd5b505afa158015611207573d6000803e3d6000fd5b505050506040513d601f19601f8201168201806040525081019061122b91906143a6565b906138a6565b101561124f5760405162461bcd60e51b815260040161062b906147ce565b5050505050505050565b6000546001600160a01b031633146112835760405162461bcd60e51b815260040161062b90614815565b600080546040516001600160a01b03909116907f8be0079c531659141344cd1fd0a4f28419497f9722a3daafe3b4186f6b6457e0908390a3600080546001600160a01b0319169055565b80428110156112ee5760405162461bcd60e51b815260040161062b90614719565b6001600160a01b037f0000000000000000000000000000000000000000000000000000000000000000168585611325600182614905565b81811061134257634e487b7160e01b600052603260045260246000fd5b9050602002016020810190611357919061407d565b6001600160a01b03161461137d5760405162461bcd60e51b815260040161062b9061484a565b6113a185856000818110610fd857634e487b7160e01b600052603260045260246000fd5b6113df858580806020026020016040519081016040528093929190818152602001838360200280828437600092019190915250309250613538915050565b6040516370a0823160e01b81523060048201526000907f00000000000000000000000000000000000000000000000000000000000000006001600160a01b0316906370a082319060240160206040518083038186803b15801561144157600080fd5b505afa158015611455573d6000803e3d6000fd5b505050506040513d601f19601f8201168201806040525081019061147991906143a6565b90508681101561149b5760405162461bcd60e51b815260040161062b906147ce565b604051632e1a7d4d60e01b8152600481018290527f00000000000000000000000000000000000000000000000000000000000000006001600160a01b031690632e1a7d4d90602401600060405180830381600087803b1580156114fd57600080fd5b505af1158015611511573d6000803e3d6000fd5b5050505061124f8482612b3c565b606081428110156115425760405162461bcd60e51b815260040161062b90614719565b7f00000000000000000000000000000000000000000000000000000000000000006001600160a01b03168686600081811061158d57634e487b7160e01b600052603260045260246000fd5b90506020020160208101906115a2919061407d565b6001600160a01b0316146115c85760405162461bcd60e51b815260040161062b9061484a565b6116267f000000000000000000000000000000000000000000000000000000000000000034888880806020026020016040519081016040528093929190818152602001838360200280828437600092019190915250612ce492505050565b91508682600184516116389190614905565b8151811061165657634e487b7160e01b600052603260045260246000fd5b6020026020010151101561167c5760405162461bcd60e51b815260040161062b906147ce565b7f00000000000000000000000000000000000000000000000000000000000000006001600160a01b031663d0e30db0836000815181106116cc57634e487b7160e01b600052603260045260246000fd5b60200260200101516040518263ffffffff1660e01b81526004016000604051808303818588803b1580156116ff57600080fd5b505af1158015611713573d6000803e3d6000fd5b50505050507f00000000000000000000000000000000000000000000000000000000000000006001600160a01b031663a9059cbb61178c7f00000000000000000000000000000000000000000000000000000000000000008989600081811061103357634e487b7160e01b600052603260045260246000fd5b846000815181106117ad57634e487b7160e01b600052603260045260246000fd5b60200260200101516040518363ffffffff1660e01b81526004016117e69291906001600160a01b03929092168252602082015260400190565b602060405180830381600087803b15801561180057600080fd5b505af1158015611814573d6000803e3d6000fd5b505050506040513d601f19601f82011682018060405250810190611838919061433c565b61185257634e487b7160e01b600052600160045260246000fd5b61189182878780806020026020016040519081016040528093929190818152602001838360200280828437600092019190915250899250613078915050565b5095945050505050565b60006107108484846138e8565b606081428110156118cb5760405162461bcd60e51b815260040161062b90614719565b6119297f00000000000000000000000000000000000000000000000000000000000000008988888080602002602001604051908101604052809392919081815260200183836020028082843760009201919091525061336392505050565b9150868260008151811061194d57634e487b7160e01b600052603260045260246000fd5b60200260200101511115610c9d5760405162461bcd60e51b815260040161062b9061478b565b60006107108484846139bd565b600081428110156119a35760405162461bcd60e51b815260040161062b90614719565b6119d2887f00000000000000000000000000000000000000000000000000000000000000008989893089611e7c565b6040516370a0823160e01b8152306004820152909350611a5a9150899086906001600160a01b038316906370a082319060240160206040518083038186803b158015611a1d57600080fd5b505afa158015611a31573d6000803e3d6000fd5b505050506040513d601f19601f82011682018060405250810190611a5591906143a6565b612a21565b604051632e1a7d4d60e01b8152600481018390527f00000000000000000000000000000000000000000000000000000000000000006001600160a01b031690632e1a7d4d90602401600060405180830381600087803b158015611abc57600080fd5b505af1158015611ad0573d6000803e3d6000fd5b50505050610aac8483612b3c565b8042811015611aff5760405162461bcd60e51b815260040161062b90614719565b7f00000000000000000000000000000000000000000000000000000000000000006001600160a01b031685856000818110611b4a57634e487b7160e01b600052603260045260246000fd5b9050602002016020810190611b5f919061407d565b6001600160a01b031614611b855760405162461bcd60e51b815260040161062b9061484a565b60003490507f00000000000000000000000000000000000000000000000000000000000000006001600160a01b031663d0e30db0826040518263ffffffff1660e01b81526004016000604051808303818588803b158015611be557600080fd5b505af1158015611bf9573d6000803e3d6000fd5b50505050507f00000000000000000000000000000000000000000000000000000000000000006001600160a01b031663a9059cbb611c727f00000000000000000000000000000000000000000000000000000000000000008989600081811061103357634e487b7160e01b600052603260045260246000fd5b6040516001600160e01b031960e084901b1681526001600160a01b03909116600482015260248101849052604401602060405180830381600087803b158015611cba57600080fd5b505af1158015611cce573d6000803e3d6000fd5b505050506040513d601f19601f82011682018060405250810190611cf2919061433c565b611d0c57634e487b7160e01b600052600160045260246000fd5b60008686611d1b600182614905565b818110611d3857634e487b7160e01b600052603260045260246000fd5b9050602002016020810190611d4d919061407d565b6040516370a0823160e01b81526001600160a01b03878116600483015291909116906370a082319060240160206040518083038186803b158015611d9057600080fd5b505afa158015611da4573d6000803e3d6000fd5b505050506040513d601f19601f82011682018060405250810190611dc891906143a6565b9050611e08878780806020026020016040519081016040528093929190818152602001838360200280828437600092019190915250899250613538915050565b87611231828989611e1a600182614905565b818110611e3757634e487b7160e01b600052603260045260246000fd5b9050602002016020810190611e4c919061407d565b6040516370a0823160e01b81526001600160a01b038a8116600483015291909116906370a08231906024016111db565b6000808242811015611ea05760405162461bcd60e51b815260040161062b90614719565b6000611ecd7f00000000000000000000000000000000000000000000000000000000000000008c8c612ec3565b9050611ef66040518060400160405280600681526020016574657431323360d01b815250613a59565b6040516323b872dd60e01b81523360048201526001600160a01b03821660248201819052604482018b9052906323b872dd90606401602060405180830381600087803b158015611f4557600080fd5b505af1158015611f59573d6000803e3d6000fd5b505050506040513d601f19601f82011682018060405250810190611f7d919061433c565b50611fa6604051806040016040528060078152602001661d195d0c4c8ccd60ca1b815250613a59565b60405163226bf2d160e21b81526001600160a01b03878116600483015260009182918416906389afcb44906024016040805180830381600087803b158015611fed57600080fd5b505af1158015612001573d6000803e3d6000fd5b505050506040513d601f19601f8201168201806040525081019061202591906144f6565b9150915060006120358e8e613a9f565b509050806001600160a01b03168e6001600160a01b03161461205857818361205b565b82825b90975095508a8710156120805760405162461bcd60e51b815260040161062b90614695565b898610156120a05760405162461bcd60e51b815260040161062b906146d7565b505050505097509795505050505050565b6060610ae47f00000000000000000000000000000000000000000000000000000000000000008484612ce4565b600080600061212e7f00000000000000000000000000000000000000000000000000000000000000008e7f0000000000000000000000000000000000000000000000000000000000000000612ec3565b905060008761213d578c612141565b6000195b60405163d505accf60e01b81529091506001600160a01b0383169063d505accf9061217c903390309086908f908e908e908e906004016145fd565b600060405180830381600087803b15801561219657600080fd5b505af11580156121aa573d6000803e3d6000fd5b505050506121bc8e8e8e8e8e8e610607565b909f909e509c50505050505050505050505050565b600080600083428110156121f75760405162461bcd60e51b815260040161062b90614719565b6122058c8c8c8c8c8c613b93565b909450925060006122377f00000000000000000000000000000000000000000000000000000000000000008e8e612ec3565b90506122458d338388612f48565b6122518c338387612f48565b6040516335313c2160e11b81526001600160a01b038881166004830152821690636a62784290602401602060405180830381600087803b15801561229457600080fd5b505af11580156122a8573d6000803e3d6000fd5b505050506040513d601f19601f820116820180604052508101906122cc91906143a6565b92505050985098509895505050505050565b6000546001600160a01b031633146123085760405162461bcd60e51b815260040161062b90614815565b6001600160a01b03811661236d5760405162461bcd60e51b815260206004820152602660248201527f4f776e61626c653a206e6577206f776e657220697320746865207a65726f206160448201526564647265737360d01b606482015260840161062b565b600080546040516001600160a01b03808516939216917f8be0079c531659141344cd1fd0a4f28419497f9722a3daafe3b4186f6b6457e091a3600080546001600160a01b0319166001600160a01b0392909216919091179055565b600080600083428110156123ee5760405162461bcd60e51b815260040161062b90614719565b61241c8a7f00000000000000000000000000000000000000000000000000000000000000008b348c8c613b93565b9094509250600061246e7f00000000000000000000000000000000000000000000000000000000000000008c7f0000000000000000000000000000000000000000000000000000000000000000612ec3565b905061247c8b338388612f48565b7f00000000000000000000000000000000000000000000000000000000000000006001600160a01b031663d0e30db0856040518263ffffffff1660e01b81526004016000604051808303818588803b1580156124d757600080fd5b505af11580156124eb573d6000803e3d6000fd5b505060405163a9059cbb60e01b81526001600160a01b038581166004830152602482018990527f000000000000000000000000000000000000000000000000000000000000000016935063a9059cbb92506044019050602060405180830381600087803b15801561255b57600080fd5b505af115801561256f573d6000803e3d6000fd5b505050506040513d601f19601f82011682018060405250810190612593919061433c565b6125ad57634e487b7160e01b600052600160045260246000fd5b6040516335313c2160e11b81526001600160a01b038881166004830152821690636a62784290602401602060405180830381600087803b1580156125f057600080fd5b505af1158015612604573d6000803e3d6000fd5b505050506040513d601f19601f8201168201806040525081019061262891906143a6565b92508334111561264557612645336126408634614905565b612b3c565b505096509650969350505050565b606081428110156126765760405162461bcd60e51b815260040161062b90614719565b7f00000000000000000000000000000000000000000000000000000000000000006001600160a01b0316868660008181106126c157634e487b7160e01b600052603260045260246000fd5b90506020020160208101906126d6919061407d565b6001600160a01b0316146126fc5760405162461bcd60e51b815260040161062b9061484a565b61275a7f00000000000000000000000000000000000000000000000000000000000000008888888080602002602001604051908101604052809392919081815260200183836020028082843760009201919091525061336392505050565b9150348260008151811061277e57634e487b7160e01b600052603260045260246000fd5b602002602001015111156127a45760405162461bcd60e51b815260040161062b9061478b565b7f00000000000000000000000000000000000000000000000000000000000000006001600160a01b031663d0e30db0836000815181106127f457634e487b7160e01b600052603260045260246000fd5b60200260200101516040518263ffffffff1660e01b81526004016000604051808303818588803b15801561282757600080fd5b505af115801561283b573d6000803e3d6000fd5b50505050507f00000000000000000000000000000000000000000000000000000000000000006001600160a01b031663a9059cbb6128b47f00000000000000000000000000000000000000000000000000000000000000008989600081811061103357634e487b7160e01b600052603260045260246000fd5b846000815181106128d557634e487b7160e01b600052603260045260246000fd5b60200260200101516040518363ffffffff1660e01b815260040161290e9291906001600160a01b03929092168252602082015260400190565b602060405180830381600087803b15801561292857600080fd5b505af115801561293c573d6000803e3d6000fd5b505050506040513d601f19601f82011682018060405250810190612960919061433c565b61297a57634e487b7160e01b600052600160045260246000fd5b6129b982878780806020026020016040519081016040528093929190818152602001838360200280828437600092019190915250899250613078915050565b816000815181106129da57634e487b7160e01b600052603260045260246000fd5b6020026020010151341115611891576118913383600081518110612a0e57634e487b7160e01b600052603260045260246000fd5b6020026020010151346126409190614905565b604080516001600160a01b038481166024830152604480830185905283518084039091018152606490920183526020820180516001600160e01b031663a9059cbb60e01b1790529151600092839290871691612a7d91906145e1565b6000604051808303816000865af19150503d8060008114612aba576040519150601f19603f3d011682016040523d82523d6000602084013e612abf565b606091505b5091509150818015612ae9575080511580612ae9575080806020019051810190612ae9919061433c565b612b355760405162461bcd60e51b815260206004820152601f60248201527f5472616e7366657248656c7065723a205452414e534645525f4641494c454400604482015260640161062b565b5050505050565b604080516000808252602082019092526001600160a01b038416908390604051612b6691906145e1565b60006040518083038185875af1925050503d8060008114612ba3576040519150601f19603f3d011682016040523d82523d6000602084013e612ba8565b606091505b5050905080612c055760405162461bcd60e51b815260206004820152602360248201527f5472616e7366657248656c7065723a204554485f5452414e534645525f46414960448201526213115160ea1b606482015260840161062b565b505050565b6000808411612c6b5760405162461bcd60e51b815260206004820152602760248201527f436169726f4c6962726172793a20494e53554646494349454e545f494e50555460448201526617d05353d5539560ca1b606482015260840161062b565b600083118015612c7b5750600082115b612c975760405162461bcd60e51b815260040161062b90614747565b6000612ca5856103e5613de4565b90506000612cb38285613de4565b90506000612ccd83612cc7886103e8613de4565b90613e63565b9050612cd981836148c6565b979650505050505050565b6060600282511015612d385760405162461bcd60e51b815260206004820152601a60248201527f436169726f4c6962726172793a20494e56414c49445f50415448000000000000604482015260640161062b565b815167ffffffffffffffff811115612d6057634e487b7160e01b600052604160045260246000fd5b604051908082528060200260200182016040528015612d89578160200160208202803683370190505b5090508281600081518110612dae57634e487b7160e01b600052603260045260246000fd5b60200260200101818152505060005b60018351612dcb9190614905565b811015612ebb57600080612e3a87868581518110612df957634e487b7160e01b600052603260045260246000fd5b602002602001015187866001612e0f91906148ae565b81518110612e2d57634e487b7160e01b600052603260045260246000fd5b6020026020010151613ec2565b91509150612e70848481518110612e6157634e487b7160e01b600052603260045260246000fd5b60200260200101518383612c0a565b84612e7c8560016148ae565b81518110612e9a57634e487b7160e01b600052603260045260246000fd5b60200260200101818152505050508080612eb39061495f565b915050612dbd565b509392505050565b60405163e6a4390560e01b81526001600160a01b03838116600483015282811660248301526000919085169063e6a439059060440160206040518083038186803b158015612f1057600080fd5b505afa158015612f24573d6000803e3d6000fd5b505050506040513d601f19601f820116820180604052508101906107109190614099565b604080516001600160a01b0385811660248301528481166044830152606480830185905283518084039091018152608490920183526020820180516001600160e01b03166323b872dd60e01b1790529151600092839290881691612fac91906145e1565b6000604051808303816000865af19150503d8060008114612fe9576040519150601f19603f3d011682016040523d82523d6000602084013e612fee565b606091505b5091509150818015613018575080511580613018575080806020019051810190613018919061433c565b6130705760405162461bcd60e51b8152602060048201526024808201527f5472616e7366657248656c7065723a205452414e534645525f46524f4d5f46416044820152631253115160e21b606482015260840161062b565b505050505050565b60005b600183516130899190614905565b81101561335d576000808483815181106130b357634e487b7160e01b600052603260045260246000fd5b6020026020010151858460016130c991906148ae565b815181106130e757634e487b7160e01b600052603260045260246000fd5b60200260200101519150915060006130ff8383613a9f565b5090506000876131108660016148ae565b8151811061312e57634e487b7160e01b600052603260045260246000fd5b60209081029190910101516001549091506001600160a01b0316156131e35760015460405163152cf14360e31b81523360048201526001600160a01b0386811660248301528581166044830152606482018490529091169063a9678a1890608401602060405180830381600087803b1580156131a957600080fd5b505af11580156131bd573d6000803e3d6000fd5b505050506040513d601f19601f820116820180604052508101906131e1919061433c565b505b600080836001600160a01b0316866001600160a01b0316146132075782600061320b565b6000835b91509150600060028a5161321f9190614905565b881061322b5788613287565b6132877f0000000000000000000000000000000000000000000000000000000000000000878c61325c8c60026148ae565b8151811061327a57634e487b7160e01b600052603260045260246000fd5b6020026020010151612ec3565b90506132b47f00000000000000000000000000000000000000000000000000000000000000008888612ec3565b6001600160a01b031663022c0d9f84848460006040519080825280601f01601f1916602001820160405280156132f1576020820181803683370190505b506040518563ffffffff1660e01b81526004016133119493929190614881565b600060405180830381600087803b15801561332b57600080fd5b505af115801561333f573d6000803e3d6000fd5b505050505050505050505080806133559061495f565b91505061307b565b50505050565b60606002825110156133b75760405162461bcd60e51b815260206004820152601a60248201527f436169726f4c6962726172793a20494e56414c49445f50415448000000000000604482015260640161062b565b815167ffffffffffffffff8111156133df57634e487b7160e01b600052604160045260246000fd5b604051908082528060200260200182016040528015613408578160200160208202803683370190505b50905082816001835161341b9190614905565b8151811061343957634e487b7160e01b600052603260045260246000fd5b6020026020010181815250506000600183516134559190614905565b90505b8015612ebb576000806134b78786613471600187614905565b8151811061348f57634e487b7160e01b600052603260045260246000fd5b6020026020010151878681518110612e2d57634e487b7160e01b600052603260045260246000fd5b915091506134ed8484815181106134de57634e487b7160e01b600052603260045260246000fd5b602002602001015183836138e8565b846134f9600186614905565b8151811061351757634e487b7160e01b600052603260045260246000fd5b6020026020010181815250505050808061353090614948565b915050613458565b60005b600183516135499190614905565b811015612c055760008084838151811061357357634e487b7160e01b600052603260045260246000fd5b60200260200101518584600161358991906148ae565b815181106135a757634e487b7160e01b600052603260045260246000fd5b60200260200101519150915060006135bf8383613a9f565b50905060006135ef7f00000000000000000000000000000000000000000000000000000000000000008585612ec3565b9050600080600080846001600160a01b0316630902f1ac6040518163ffffffff1660e01b815260040160606040518083038186803b15801561363057600080fd5b505afa158015613644573d6000803e3d6000fd5b505050506040513d601f19601f820116820180604052508101906136689190614358565b506001600160701b031691506001600160701b03169150600080876001600160a01b03168a6001600160a01b0316146136a25782846136a5565b83835b6040516370a0823160e01b81526001600160a01b038a811660048301529294509092506136e0918491908d16906370a08231906024016111db565b95506136ed868383612c0a565b6001549095506001600160a01b031615935061379d925050505760015460405163152cf14360e31b81523360048201526001600160a01b0388811660248301528781166044830152606482018490529091169063a9678a1890608401602060405180830381600087803b15801561376357600080fd5b505af1158015613777573d6000803e3d6000fd5b505050506040513d601f19601f8201168201806040525081019061379b919061433c565b505b600080856001600160a01b0316886001600160a01b0316146137c1578260006137c5565b6000835b91509150600060028c516137d99190614905565b8a106137e5578a613816565b6138167f0000000000000000000000000000000000000000000000000000000000000000898e61325c8e60026148ae565b6040805160008152602081019182905263022c0d9f60e01b9091529091506001600160a01b0387169063022c0d9f906138589086908690869060248101614881565b600060405180830381600087803b15801561387257600080fd5b505af1158015613886573d6000803e3d6000fd5b50505050505050505050505050808061389e9061495f565b91505061353b565b6000610ae483836040518060400160405280601e81526020017f536166654d6174683a207375627472616374696f6e206f766572666c6f770000815250613fa7565b600080841161394a5760405162461bcd60e51b815260206004820152602860248201527f436169726f4c6962726172793a20494e53554646494349454e545f4f555450556044820152671517d05353d5539560c21b606482015260840161062b565b60008311801561395a5750600082115b6139765760405162461bcd60e51b815260040161062b90614747565b600061398e6103e86139888688613de4565b90613de4565b905060006139a26103e561398886896138a6565b90506139b36001612cc783856148c6565b9695505050505050565b6000808411613a185760405162461bcd60e51b815260206004820152602160248201527f436169726f4c6962726172793a20494e53554646494349454e545f414d4f554e6044820152601560fa1b606482015260840161062b565b600083118015613a285750600082115b613a445760405162461bcd60e51b815260040161062b90614747565b82613a4f8584613de4565b61071091906148c6565b613a9c81604051602401613a6d9190614682565b60408051601f198184030181529190526020810180516001600160e01b031663104c13eb60e21b179052613fe1565b50565b600080826001600160a01b0316846001600160a01b03161415613b0e5760405162461bcd60e51b815260206004820152602160248201527f436169726f4c6962726172793a204944454e544943414c5f41444452455353456044820152605360f81b606482015260840161062b565b826001600160a01b0316846001600160a01b031610613b2e578284613b31565b83835b90925090506001600160a01b038216613b8c5760405162461bcd60e51b815260206004820152601a60248201527f436169726f4c6962726172793a205a45524f5f41444452455353000000000000604482015260640161062b565b9250929050565b60405163e6a4390560e01b81526001600160a01b0387811660048301528681166024830152600091829182917f00000000000000000000000000000000000000000000000000000000000000009091169063e6a439059060440160206040518083038186803b158015613c0557600080fd5b505afa158015613c19573d6000803e3d6000fd5b505050506040513d601f19601f82011682018060405250810190613c3d9190614099565b6001600160a01b03161415613cf1576040516364e329cb60e11b81526001600160a01b03898116600483015288811660248301527f0000000000000000000000000000000000000000000000000000000000000000169063c9c6539690604401602060405180830381600087803b158015613cb757600080fd5b505af1158015613ccb573d6000803e3d6000fd5b505050506040513d601f19601f82011682018060405250810190613cef9190614099565b505b600080613d1f7f00000000000000000000000000000000000000000000000000000000000000008b8b613ec2565b91509150816000148015613d31575080155b15613d4157879350869250613dd7565b6000613d4e8984846139bd565b9050878111613d825785811015613d775760405162461bcd60e51b815260040161062b906146d7565b889450925082613dd5565b6000613d8f8984866139bd565b905089811115613daf57634e487b7160e01b600052600160045260246000fd5b87811015613dcf5760405162461bcd60e51b815260040161062b90614695565b94508793505b505b5050965096945050505050565b600082613df357506000610ae7565b6000613dff83856148e6565b905082613e0c85836148c6565b14610ae45760405162461bcd60e51b815260206004820152602160248201527f536166654d6174683a206d756c7469706c69636174696f6e206f766572666c6f6044820152607760f81b606482015260840161062b565b600080613e7083856148ae565b905083811015610ae45760405162461bcd60e51b815260206004820152601b60248201527f536166654d6174683a206164646974696f6e206f766572666c6f770000000000604482015260640161062b565b6000806000613ed18585613a9f565b509050613edf868686612ec3565b50600080613eee888888612ec3565b6001600160a01b0316630902f1ac6040518163ffffffff1660e01b815260040160606040518083038186803b158015613f2657600080fd5b505afa158015613f3a573d6000803e3d6000fd5b505050506040513d601f19601f82011682018060405250810190613f5e9190614358565b506001600160701b031691506001600160701b03169150826001600160a01b0316876001600160a01b031614613f95578082613f98565b81815b90999098509650505050505050565b60008184841115613fcb5760405162461bcd60e51b815260040161062b9190614682565b506000613fd88486614905565b95945050505050565b80516a636f6e736f6c652e6c6f67602083016000808483855afa5050505050565b803561400d816149a6565b919050565b60008083601f840112614023578081fd5b50813567ffffffffffffffff81111561403a578182fd5b6020830191508360208260051b8501011115613b8c57600080fd5b80516001600160701b038116811461400d57600080fd5b803560ff8116811461400d57600080fd5b60006020828403121561408e578081fd5b8135610ae4816149a6565b6000602082840312156140aa578081fd5b8151610ae4816149a6565b600080600080600080600060e0888a0312156140cf578283fd5b87356140da816149a6565b965060208801356140ea816149a6565b955060408801359450606088013593506080880135925060a088013561410f816149a6565b8092505060c0880135905092959891949750929550565b60008060008060008060008060008060006101608c8e031215614147578384fd5b8b35614152816149a6565b9a5060208c0135614162816149a6565b995060408c0135985060608c0135975060808c0135965060a08c0135614187816149a6565b955060c08c0135945060e08c013561419e816149bb565b93506141ad6101008d0161406c565b92506101208c013591506101408c013590509295989b509295989b9093969950565b600080600080600080600080610100898b0312156141eb578384fd5b88356141f6816149a6565b97506020890135614206816149a6565b965060408901359550606089013594506080890135935060a0890135925060c0890135614232816149a6565b8092505060e089013590509295985092959890939650565b60008060008060008060c08789031215614262578182fd5b863561426d816149a6565b95506020870135945060408701359350606087013592506080870135614292816149a6565b8092505060a087013590509295509295509295565b6000806000806000806000806000806101408b8d0312156142c6578384fd5b8a356142d1816149a6565b995060208b0135985060408b0135975060608b0135965060808b01356142f6816149a6565b955060a08b0135945060c08b013561430d816149bb565b935061431b60e08c0161406c565b92506101008b013591506101208b013590509295989b9194979a5092959850565b60006020828403121561434d578081fd5b8151610ae4816149bb565b60008060006060848603121561436c578081fd5b61437584614055565b925061438360208501614055565b9150604084015163ffffffff8116811461439b578182fd5b809150509250925092565b6000602082840312156143b7578081fd5b5051919050565b6000806000806000608086880312156143d5578283fd5b85359450602086013567ffffffffffffffff8111156143f2578384fd5b6143fe88828901614012565b9095509350506040860135614412816149a6565b949793965091946060013592915050565b60008060408385031215614435578182fd5b8235915060208084013567ffffffffffffffff80821115614454578384fd5b818601915086601f830112614467578384fd5b81358181111561447957614479614990565b8060051b604051601f19603f8301168101818110858211171561449e5761449e614990565b604052828152858101935084860182860187018b10156144bc578788fd5b8795505b838610156144e5576144d181614002565b8552600195909501949386019386016144c0565b508096505050505050509250929050565b60008060408385031215614508578182fd5b505080516020909101519092909150565b60008060008060008060a08789031215614531578384fd5b8635955060208701359450604087013567ffffffffffffffff811115614555578485fd5b61456189828a01614012565b9095509350506060870135614575816149a6565b80925050608087013590509295509295509295565b60008060006060848603121561459e578081fd5b505081359360208301359350604090920135919050565b600081518084526145cd81602086016020860161491c565b601f01601f19169290920160200192915050565b600082516145f381846020870161491c565b9190910192915050565b6001600160a01b0397881681529590961660208601526040850193909352606084019190915260ff16608083015260a082015260c081019190915260e00190565b6020808252825182820181905260009190848201906040850190845b818110156146765783518352928401929184019160010161465a565b50909695505050505050565b602081526000610ae460208301846145b5565b60208082526022908201527f436169726f526f757465723a20494e53554646494349454e545f415f414d4f55604082015261139560f21b606082015260800190565b60208082526022908201527f436169726f526f757465723a20494e53554646494349454e545f425f414d4f55604082015261139560f21b606082015260800190565b60208082526014908201527310d85a5c9bd49bdd5d195c8e881156141254915160621b604082015260600190565b60208082526024908201527f436169726f4c6962726172793a20494e53554646494349454e545f4c495155496040820152634449545960e01b606082015260800190565b60208082526023908201527f436169726f526f757465723a204558434553534956455f494e5055545f414d4f60408201526215539560ea1b606082015260800190565b60208082526027908201527f436169726f526f757465723a20494e53554646494349454e545f4f555450555460408201526617d05353d5539560ca1b606082015260800190565b6020808252818101527f4f776e61626c653a2063616c6c6572206973206e6f7420746865206f776e6572604082015260600190565b60208082526019908201527f436169726f526f757465723a20494e56414c49445f5041544800000000000000604082015260600190565b84815283602082015260018060a01b03831660408201526080606082015260006139b360808301846145b5565b600082198211156148c1576148c161497a565b500190565b6000826148e157634e487b7160e01b81526012600452602481fd5b500490565b60008160001904831182151516156149005761490061497a565b500290565b6000828210156149175761491761497a565b500390565b60005b8381101561493757818101518382015260200161491f565b8381111561335d5750506000910152565b6000816149575761495761497a565b506000190190565b60006000198214156149735761497361497a565b5060010190565b634e487b7160e01b600052601160045260246000fd5b634e487b7160e01b600052604160045260246000fd5b6001600160a01b0381168114613a9c57600080fd5b8015158114613a9c57600080fdfea26469706673582212202d38b679261a4da1384610ea4abc227b53b4b86039f2b99bbe83c2e4bd4d908364736f6c63430008040033",
  "linkReferences": {},
  "deployedLinkReferences": {}
}