{
  "_format": "hh-sol-artifact-1",
  "contractName": "CairoRouter",
  "sourceName": "contracts/router/CairoRouter.sol",
  "abi": [
    {
      "inputs": [],
      "name": "WETH",
      "outputs": [
        {
          "internalType": "address",
          "name": "",
          "type": "address"
        }
      ],
      "stateMutability": "view",
      "type": "function"
    },
    {
      "inputs": [
        {
          "internalType": "address",
          "name": "tokenA",
          "type": "address"
        },
        {
          "internalType": "address",
          "name": "tokenB",
          "type": "address"
        },
        {
          "internalType": "uint256",
          "name": "amountADesired",
          "type": "uint256"
        },
        {
          "internalType": "uint256",
          "name": "amountBDesired",
          "type": "uint256"
        },
        {
          "internalType": "uint256",
          "name": "amountAMin",
          "type": "uint256"
        },
        {
          "internalType": "uint256",
          "name": "amountBMin",
          "type": "uint256"
        },
        {
          "internalType": "address",
          "name": "to",
          "type": "address"
        },
        {
          "internalType": "uint256",
          "name": "deadline",
          "type": "uint256"
        }
      ],
      "name": "addLiquidity",
      "outputs": [
        {
          "internalType": "uint256",
          "name": "amountA",
          "type": "uint256"
        },
        {
          "internalType": "uint256",
          "name": "amountB",
          "type": "uint256"
        },
        {
          "internalType": "uint256",
          "name": "liquidity",
          "type": "uint256"
        }
      ],
      "stateMutability": "nonpayable",
      "type": "function"
    },
    {
      "inputs": [
        {
          "internalType": "address",
          "name": "token",
          "type": "address"
        },
        {
          "internalType": "uint256",
          "name": "amountTokenDesired",
          "type": "uint256"
        },
        {
          "internalType": "uint256",
          "name": "amountTokenMin",
          "type": "uint256"
        },
        {
          "internalType": "uint256",
          "name": "amountETHMin",
          "type": "uint256"
        },
        {
          "internalType": "address",
          "name": "to",
          "type": "address"
        },
        {
          "internalType": "uint256",
          "name": "deadline",
          "type": "uint256"
        }
      ],
      "name": "addLiquidityETH",
      "outputs": [
        {
          "internalType": "uint256",
          "name": "amountToken",
          "type": "uint256"
        },
        {
          "internalType": "uint256",
          "name": "amountETH",
          "type": "uint256"
        },
        {
          "internalType": "uint256",
          "name": "liquidity",
          "type": "uint256"
        }
      ],
      "stateMutability": "payable",
      "type": "function"
    },
    {
      "inputs": [
        {
          "internalType": "uint256",
          "name": "_id",
          "type": "uint256"
        }
      ],
      "name": "delFactoryAndFee",
      "outputs": [],
      "stateMutability": "nonpayable",
      "type": "function"
    },
    {
      "inputs": [
        {
          "internalType": "uint256",
          "name": "",
          "type": "uint256"
        }
      ],
      "name": "factories",
      "outputs": [
        {
          "internalType": "address",
          "name": "",
          "type": "address"
        }
      ],
      "stateMutability": "view",
      "type": "function"
    },
    {
      "inputs": [],
      "name": "factory",
      "outputs": [
        {
          "internalType": "address",
          "name": "",
          "type": "address"
        }
      ],
      "stateMutability": "view",
      "type": "function"
    },
    {
      "inputs": [
        {
          "internalType": "uint256",
          "name": "",
          "type": "uint256"
        }
      ],
      "name": "fees",
      "outputs": [
        {
          "internalType": "uint256",
          "name": "",
          "type": "uint256"
        }
      ],
      "stateMutability": "view",
      "type": "function"
    },
    {
      "inputs": [
        {
          "internalType": "uint256",
          "name": "amountOut",
          "type": "uint256"
        },
        {
          "internalType": "uint256",
          "name": "reserveIn",
          "type": "uint256"
        },
        {
          "internalType": "uint256",
          "name": "reserveOut",
          "type": "uint256"
        }
      ],
      "name": "getAmountIn",
      "outputs": [
        {
          "internalType": "uint256",
          "name": "amountIn",
          "type": "uint256"
        }
      ],
      "stateMutability": "pure",
      "type": "function"
    },
    {
      "inputs": [
        {
          "internalType": "uint256",
          "name": "amountIn",
          "type": "uint256"
        },
        {
          "internalType": "uint256",
          "name": "reserveIn",
          "type": "uint256"
        },
        {
          "internalType": "uint256",
          "name": "reserveOut",
          "type": "uint256"
        }
      ],
      "name": "getAmountOut",
      "outputs": [
        {
          "internalType": "uint256",
          "name": "amountOut",
          "type": "uint256"
        }
      ],
      "stateMutability": "pure",
      "type": "function"
    },
    {
      "inputs": [
        {
          "internalType": "uint256",
          "name": "amountOut",
          "type": "uint256"
        },
        {
          "internalType": "address[]",
          "name": "path",
          "type": "address[]"
        }
      ],
      "name": "getAmountsIn",
      "outputs": [
        {
          "internalType": "uint256[]",
          "name": "amounts",
          "type": "uint256[]"
        }
      ],
      "stateMutability": "view",
      "type": "function"
    },
    {
      "inputs": [
        {
          "internalType": "uint256",
          "name": "amountIn",
          "type": "uint256"
        },
        {
          "internalType": "address[]",
          "name": "path",
          "type": "address[]"
        }
      ],
      "name": "getAmountsOut",
      "outputs": [
        {
          "internalType": "uint256[]",
          "name": "amounts",
          "type": "uint256[]"
        }
      ],
      "stateMutability": "view",
      "type": "function"
    },
    {
      "inputs": [
        {
          "internalType": "address",
          "name": "_factory",
          "type": "address"
        },
        {
          "internalType": "uint256",
          "name": "_fee",
          "type": "uint256"
        },
        {
          "internalType": "address",
          "name": "_WETH",
          "type": "address"
        }
      ],
      "name": "initialize",
      "outputs": [],
      "stateMutability": "nonpayable",
      "type": "function"
    },
    {
      "inputs": [],
      "name": "owner",
      "outputs": [
        {
          "internalType": "address",
          "name": "",
          "type": "address"
        }
      ],
      "stateMutability": "view",
      "type": "function"
    },
    {
      "inputs": [
        {
          "internalType": "uint256",
          "name": "amountA",
          "type": "uint256"
        },
        {
          "internalType": "uint256",
          "name": "reserveA",
          "type": "uint256"
        },
        {
          "internalType": "uint256",
          "name": "reserveB",
          "type": "uint256"
        }
      ],
      "name": "quote",
      "outputs": [
        {
          "internalType": "uint256",
          "name": "amountB",
          "type": "uint256"
        }
      ],
      "stateMutability": "pure",
      "type": "function"
    },
    {
      "inputs": [
        {
          "internalType": "address",
          "name": "tokenA",
          "type": "address"
        },
        {
          "internalType": "address",
          "name": "tokenB",
          "type": "address"
        },
        {
          "internalType": "uint256",
          "name": "liquidity",
          "type": "uint256"
        },
        {
          "internalType": "uint256",
          "name": "amountAMin",
          "type": "uint256"
        },
        {
          "internalType": "uint256",
          "name": "amountBMin",
          "type": "uint256"
        },
        {
          "internalType": "address",
          "name": "to",
          "type": "address"
        },
        {
          "internalType": "uint256",
          "name": "deadline",
          "type": "uint256"
        }
      ],
      "name": "removeLiquidity",
      "outputs": [
        {
          "internalType": "uint256",
          "name": "amountA",
          "type": "uint256"
        },
        {
          "internalType": "uint256",
          "name": "amountB",
          "type": "uint256"
        }
      ],
      "stateMutability": "nonpayable",
      "type": "function"
    },
    {
      "inputs": [
        {
          "internalType": "address",
          "name": "token",
          "type": "address"
        },
        {
          "internalType": "uint256",
          "name": "liquidity",
          "type": "uint256"
        },
        {
          "internalType": "uint256",
          "name": "amountTokenMin",
          "type": "uint256"
        },
        {
          "internalType": "uint256",
          "name": "amountETHMin",
          "type": "uint256"
        },
        {
          "internalType": "address",
          "name": "to",
          "type": "address"
        },
        {
          "internalType": "uint256",
          "name": "deadline",
          "type": "uint256"
        }
      ],
      "name": "removeLiquidityETH",
      "outputs": [
        {
          "internalType": "uint256",
          "name": "amountToken",
          "type": "uint256"
        },
        {
          "internalType": "uint256",
          "name": "amountETH",
          "type": "uint256"
        }
      ],
      "stateMutability": "nonpayable",
      "type": "function"
    },
    {
      "inputs": [
        {
          "internalType": "address",
          "name": "token",
          "type": "address"
        },
        {
          "internalType": "uint256",
          "name": "liquidity",
          "type": "uint256"
        },
        {
          "internalType": "uint256",
          "name": "amountTokenMin",
          "type": "uint256"
        },
        {
          "internalType": "uint256",
          "name": "amountETHMin",
          "type": "uint256"
        },
        {
          "internalType": "address",
          "name": "to",
          "type": "address"
        },
        {
          "internalType": "uint256",
          "name": "deadline",
          "type": "uint256"
        }
      ],
      "name": "removeLiquidityETHSupportingFeeOnTransferTokens",
      "outputs": [
        {
          "internalType": "uint256",
          "name": "amountETH",
          "type": "uint256"
        }
      ],
      "stateMutability": "nonpayable",
      "type": "function"
    },
    {
      "inputs": [
        {
          "internalType": "address",
          "name": "token",
          "type": "address"
        },
        {
          "internalType": "uint256",
          "name": "liquidity",
          "type": "uint256"
        },
        {
          "internalType": "uint256",
          "name": "amountTokenMin",
          "type": "uint256"
        },
        {
          "internalType": "uint256",
          "name": "amountETHMin",
          "type": "uint256"
        },
        {
          "internalType": "address",
          "name": "to",
          "type": "address"
        },
        {
          "internalType": "uint256",
          "name": "deadline",
          "type": "uint256"
        },
        {
          "internalType": "bool",
          "name": "approveMax",
          "type": "bool"
        },
        {
          "internalType": "uint8",
          "name": "v",
          "type": "uint8"
        },
        {
          "internalType": "bytes32",
          "name": "r",
          "type": "bytes32"
        },
        {
          "internalType": "bytes32",
          "name": "s",
          "type": "bytes32"
        }
      ],
      "name": "removeLiquidityETHWithPermit",
      "outputs": [
        {
          "internalType": "uint256",
          "name": "amountToken",
          "type": "uint256"
        },
        {
          "internalType": "uint256",
          "name": "amountETH",
          "type": "uint256"
        }
      ],
      "stateMutability": "nonpayable",
      "type": "function"
    },
    {
      "inputs": [
        {
          "internalType": "address",
          "name": "token",
          "type": "address"
        },
        {
          "internalType": "uint256",
          "name": "liquidity",
          "type": "uint256"
        },
        {
          "internalType": "uint256",
          "name": "amountTokenMin",
          "type": "uint256"
        },
        {
          "internalType": "uint256",
          "name": "amountETHMin",
          "type": "uint256"
        },
        {
          "internalType": "address",
          "name": "to",
          "type": "address"
        },
        {
          "internalType": "uint256",
          "name": "deadline",
          "type": "uint256"
        },
        {
          "internalType": "bool",
          "name": "approveMax",
          "type": "bool"
        },
        {
          "internalType": "uint8",
          "name": "v",
          "type": "uint8"
        },
        {
          "internalType": "bytes32",
          "name": "r",
          "type": "bytes32"
        },
        {
          "internalType": "bytes32",
          "name": "s",
          "type": "bytes32"
        }
      ],
      "name": "removeLiquidityETHWithPermitSupportingFeeOnTransferTokens",
      "outputs": [
        {
          "internalType": "uint256",
          "name": "amountETH",
          "type": "uint256"
        }
      ],
      "stateMutability": "nonpayable",
      "type": "function"
    },
    {
      "inputs": [
        {
          "internalType": "address",
          "name": "tokenA",
          "type": "address"
        },
        {
          "internalType": "address",
          "name": "tokenB",
          "type": "address"
        },
        {
          "internalType": "uint256",
          "name": "liquidity",
          "type": "uint256"
        },
        {
          "internalType": "uint256",
          "name": "amountAMin",
          "type": "uint256"
        },
        {
          "internalType": "uint256",
          "name": "amountBMin",
          "type": "uint256"
        },
        {
          "internalType": "address",
          "name": "to",
          "type": "address"
        },
        {
          "internalType": "uint256",
          "name": "deadline",
          "type": "uint256"
        },
        {
          "internalType": "bool",
          "name": "approveMax",
          "type": "bool"
        },
        {
          "internalType": "uint8",
          "name": "v",
          "type": "uint8"
        },
        {
          "internalType": "bytes32",
          "name": "r",
          "type": "bytes32"
        },
        {
          "internalType": "bytes32",
          "name": "s",
          "type": "bytes32"
        }
      ],
      "name": "removeLiquidityWithPermit",
      "outputs": [
        {
          "internalType": "uint256",
          "name": "amountA",
          "type": "uint256"
        },
        {
          "internalType": "uint256",
          "name": "amountB",
          "type": "uint256"
        }
      ],
      "stateMutability": "nonpayable",
      "type": "function"
    },
    {
      "inputs": [
        {
          "internalType": "uint256",
          "name": "_id",
          "type": "uint256"
        },
        {
          "internalType": "address",
          "name": "_factory",
          "type": "address"
        },
        {
          "internalType": "uint256",
          "name": "_fee",
          "type": "uint256"
        }
      ],
      "name": "setFactoryAndFee",
      "outputs": [],
      "stateMutability": "nonpayable",
      "type": "function"
    },
    {
      "inputs": [
        {
          "internalType": "address",
          "name": "_swapMininng",
          "type": "address"
        }
      ],
      "name": "setSwapMining",
      "outputs": [],
      "stateMutability": "nonpayable",
      "type": "function"
    },
    {
      "inputs": [
        {
          "internalType": "address",
          "name": "_token",
          "type": "address"
        },
        {
          "internalType": "uint256",
          "name": "_amount",
          "type": "uint256"
        }
      ],
      "name": "setTokenMinAmount",
      "outputs": [],
      "stateMutability": "nonpayable",
      "type": "function"
    },
    {
      "inputs": [
        {
          "internalType": "uint256",
          "name": "amountOut",
          "type": "uint256"
        },
        {
          "internalType": "address[]",
          "name": "path",
          "type": "address[]"
        },
        {
          "internalType": "address",
          "name": "to",
          "type": "address"
        },
        {
          "internalType": "uint256",
          "name": "deadline",
          "type": "uint256"
        }
      ],
      "name": "swapETHForExactTokens",
      "outputs": [
        {
          "internalType": "uint256[]",
          "name": "amounts",
          "type": "uint256[]"
        }
      ],
      "stateMutability": "payable",
      "type": "function"
    },
    {
      "inputs": [
        {
          "internalType": "uint256",
          "name": "amountOutMin",
          "type": "uint256"
        },
        {
          "internalType": "address[]",
          "name": "path",
          "type": "address[]"
        },
        {
          "internalType": "address",
          "name": "to",
          "type": "address"
        },
        {
          "internalType": "uint256",
          "name": "deadline",
          "type": "uint256"
        }
      ],
      "name": "swapExactETHForTokens",
      "outputs": [
        {
          "internalType": "uint256[]",
          "name": "amounts",
          "type": "uint256[]"
        }
      ],
      "stateMutability": "payable",
      "type": "function"
    },
    {
      "inputs": [
        {
          "internalType": "uint256",
          "name": "amountOutMin",
          "type": "uint256"
        },
        {
          "internalType": "address[]",
          "name": "path",
          "type": "address[]"
        },
        {
          "internalType": "address",
          "name": "to",
          "type": "address"
        },
        {
          "internalType": "uint256",
          "name": "deadline",
          "type": "uint256"
        }
      ],
      "name": "swapExactETHForTokensSupportingFeeOnTransferTokens",
      "outputs": [],
      "stateMutability": "payable",
      "type": "function"
    },
    {
      "inputs": [
        {
          "internalType": "uint256",
          "name": "amountIn",
          "type": "uint256"
        },
        {
          "internalType": "uint256",
          "name": "amountOutMin",
          "type": "uint256"
        },
        {
          "internalType": "address[]",
          "name": "path",
          "type": "address[]"
        },
        {
          "internalType": "address",
          "name": "to",
          "type": "address"
        },
        {
          "internalType": "uint256",
          "name": "deadline",
          "type": "uint256"
        }
      ],
      "name": "swapExactTokensForETH",
      "outputs": [
        {
          "internalType": "uint256[]",
          "name": "amounts",
          "type": "uint256[]"
        }
      ],
      "stateMutability": "nonpayable",
      "type": "function"
    },
    {
      "inputs": [
        {
          "internalType": "uint256",
          "name": "amountIn",
          "type": "uint256"
        },
        {
          "internalType": "uint256",
          "name": "amountOutMin",
          "type": "uint256"
        },
        {
          "internalType": "address[]",
          "name": "path",
          "type": "address[]"
        },
        {
          "internalType": "address",
          "name": "to",
          "type": "address"
        },
        {
          "internalType": "uint256",
          "name": "deadline",
          "type": "uint256"
        }
      ],
      "name": "swapExactTokensForETHSupportingFeeOnTransferTokens",
      "outputs": [],
      "stateMutability": "nonpayable",
      "type": "function"
    },
    {
      "inputs": [
        {
          "internalType": "uint256",
          "name": "amountIn",
          "type": "uint256"
        },
        {
          "internalType": "uint256",
          "name": "amountOutMin",
          "type": "uint256"
        },
        {
          "internalType": "address[]",
          "name": "path",
          "type": "address[]"
        },
        {
          "internalType": "address",
          "name": "to",
          "type": "address"
        },
        {
          "internalType": "uint256",
          "name": "deadline",
          "type": "uint256"
        }
      ],
      "name": "swapExactTokensForTokens",
      "outputs": [
        {
          "internalType": "uint256[]",
          "name": "amounts",
          "type": "uint256[]"
        }
      ],
      "stateMutability": "nonpayable",
      "type": "function"
    },
    {
      "inputs": [
        {
          "internalType": "uint256",
          "name": "amountIn",
          "type": "uint256"
        },
        {
          "internalType": "uint256",
          "name": "amountOutMin",
          "type": "uint256"
        },
        {
          "internalType": "address[]",
          "name": "path",
          "type": "address[]"
        },
        {
          "internalType": "address",
          "name": "to",
          "type": "address"
        },
        {
          "internalType": "uint256",
          "name": "deadline",
          "type": "uint256"
        }
      ],
      "name": "swapExactTokensForTokensSupportingFeeOnTransferTokens",
      "outputs": [],
      "stateMutability": "nonpayable",
      "type": "function"
    },
    {
      "inputs": [],
      "name": "swapMining",
      "outputs": [
        {
          "internalType": "address",
          "name": "",
          "type": "address"
        }
      ],
      "stateMutability": "view",
      "type": "function"
    },
    {
      "inputs": [
        {
          "internalType": "uint256",
          "name": "amountOut",
          "type": "uint256"
        },
        {
          "internalType": "uint256",
          "name": "amountInMax",
          "type": "uint256"
        },
        {
          "internalType": "address[]",
          "name": "path",
          "type": "address[]"
        },
        {
          "internalType": "address",
          "name": "to",
          "type": "address"
        },
        {
          "internalType": "uint256",
          "name": "deadline",
          "type": "uint256"
        }
      ],
      "name": "swapTokensForExactETH",
      "outputs": [
        {
          "internalType": "uint256[]",
          "name": "amounts",
          "type": "uint256[]"
        }
      ],
      "stateMutability": "nonpayable",
      "type": "function"
    },
    {
      "inputs": [
        {
          "internalType": "uint256",
          "name": "amountOut",
          "type": "uint256"
        },
        {
          "internalType": "uint256",
          "name": "amountInMax",
          "type": "uint256"
        },
        {
          "internalType": "address[]",
          "name": "path",
          "type": "address[]"
        },
        {
          "internalType": "address",
          "name": "to",
          "type": "address"
        },
        {
          "internalType": "uint256",
          "name": "deadline",
          "type": "uint256"
        }
      ],
      "name": "swapTokensForExactTokens",
      "outputs": [
        {
          "internalType": "uint256[]",
          "name": "amounts",
          "type": "uint256[]"
        }
      ],
      "stateMutability": "nonpayable",
      "type": "function"
    },
    {
      "inputs": [
        {
          "internalType": "address",
          "name": "",
          "type": "address"
        }
      ],
      "name": "tokenMinAmount",
      "outputs": [
        {
          "internalType": "uint256",
          "name": "",
          "type": "uint256"
        }
      ],
      "stateMutability": "view",
      "type": "function"
    },
    {
      "stateMutability": "payable",
      "type": "receive"
    }
  ],
  "bytecode": "0x60806040523480156200001157600080fd5b5061afad80620000226000396000f3fe60806040526004361061018d5760003560e01c806302751cec1461021d578063054d50d41461025b57806318cbafe5146102985780631a65bf7b146102d55780631f00ca74146102fe5780632195995c1461033b57806323a5199c1461037957806338ed1739146103a25780634a25d94a146103df5780634acc79ed1461041c5780634dae755c146104595780634e5eda11146104965780634f887183146104c15780635b0d5984146104ea5780635c11d79514610527578063672383c414610550578063791ac9471461058d5780637ff36ab5146105b657806385f8c259146105e65780638803dbee146106235780638da5cb5b14610660578063abaa93a01461068b578063ad5c4648146106b4578063ad615dec146106df578063af2979eb1461071c578063b6f9de9514610759578063baa2abde14610775578063c350a1b5146107b3578063c45a0155146107dc578063d06ca61f14610807578063ded9382a14610844578063e8e3370014610882578063f305d719146108c1578063fb3bdb41146108f357610218565b3661021857600460009054906101000a900473ffffffffffffffffffffffffffffffffffffffff1673ffffffffffffffffffffffffffffffffffffffff163373ffffffffffffffffffffffffffffffffffffffff1614610216577f4e487b7100000000000000000000000000000000000000000000000000000000600052600160045260246000fd5b005b600080fd5b34801561022957600080fd5b50610244600480360381019061023f919061969c565b610923565b60405161025292919061a484565b60405180910390f35b34801561026757600080fd5b50610282600480360381019061027d9190619abb565b610a51565b60405161028f919061a469565b60405180910390f35b3480156102a457600080fd5b506102bf60048036038101906102ba9190619a29565b610a67565b6040516102cc919061a125565b60405180910390f35b3480156102e157600080fd5b506102fc60048036038101906102f79190619611565b6111ce565b005b34801561030a57600080fd5b5061032560048036038101906103209190619999565b61128b565b604051610332919061a125565b60405180910390f35b34801561034757600080fd5b50610362600480360381019061035d919061946f565b6114d5565b60405161037092919061a484565b60405180910390f35b34801561038557600080fd5b506103a0600480360381019061039b91906198ca565b6115d8565b005b3480156103ae57600080fd5b506103c960048036038101906103c49190619a29565b611847565b6040516103d6919061a125565b60405180910390f35b3480156103eb57600080fd5b5061040660048036038101906104019190619a29565b611d91565b604051610413919061a125565b60405180910390f35b34801561042857600080fd5b50610443600480360381019061043e9190619878565b6124ec565b604051610450919061a469565b60405180910390f35b34801561046557600080fd5b50610480600480360381019061047b919061937f565b612510565b60405161048d919061a469565b60405180910390f35b3480156104a257600080fd5b506104ab612528565b6040516104b89190619fcd565b60405180910390f35b3480156104cd57600080fd5b506104e860048036038101906104e3919061937f565b61254e565b005b3480156104f657600080fd5b50610511600480360381019061050c9190619725565b612607565b60405161051e919061a469565b60405180910390f35b34801561053357600080fd5b5061054e60048036038101906105499190619a29565b612721565b005b34801561055c57600080fd5b5061057760048036038101906105729190619878565b612b79565b6040516105849190619fcd565b60405180910390f35b34801561059957600080fd5b506105b460048036038101906105af9190619a29565b612bb8565b005b6105d060048036038101906105cb9190619919565b613063565b6040516105dd919061a125565b60405180910390f35b3480156105f257600080fd5b5061060d60048036038101906106089190619abb565b6137d6565b60405161061a919061a469565b60405180910390f35b34801561062f57600080fd5b5061064a60048036038101906106459190619a29565b6137ec565b604051610657919061a125565b60405180910390f35b34801561066c57600080fd5b50610675613d2a565b6040516106829190619fcd565b60405180910390f35b34801561069757600080fd5b506106b260048036038101906106ad9190619878565b613d54565b005b3480156106c057600080fd5b506106c9613fb6565b6040516106d69190619fcd565b60405180910390f35b3480156106eb57600080fd5b5061070660048036038101906107019190619abb565b613fdc565b604051610713919061a469565b60405180910390f35b34801561072857600080fd5b50610743600480360381019061073e919061969c565b613ff2565b604051610750919061a469565b60405180910390f35b610773600480360381019061076e9190619919565b6141a4565b005b34801561078157600080fd5b5061079c600480360381019061079791906193d1565b6147ea565b6040516107aa92919061a484565b60405180910390f35b3480156107bf57600080fd5b506107da60048036038101906107d5919061964d565b614aaa565b005b3480156107e857600080fd5b506107f1614cc1565b6040516107fe9190619fcd565b60405180910390f35b34801561081357600080fd5b5061082e60048036038101906108299190619999565b614ce5565b60405161083b919061a125565b60405180910390f35b34801561085057600080fd5b5061086b60048036038101906108669190619725565b614f2f565b60405161087992919061a484565b60405180910390f35b34801561088e57600080fd5b506108a960048036038101906108a4919061955f565b615052565b6040516108b89392919061a4f9565b60405180910390f35b6108db60048036038101906108d6919061969c565b615195565b6040516108ea9392919061a4f9565b60405180910390f35b61090d60048036038101906109089190619919565b615491565b60405161091a919061a125565b60405180910390f35b600080824281101561096a576040517f08c379a00000000000000000000000000000000000000000000000000000000081526004016109619061a269565b60405180910390fd5b61099b89600460009054906101000a900473ffffffffffffffffffffffffffffffffffffffff168a8a8a308a6147ea565b80935081945050506109ae898685615c98565b600460009054906101000a900473ffffffffffffffffffffffffffffffffffffffff1673ffffffffffffffffffffffffffffffffffffffff16632e1a7d4d836040518263ffffffff1660e01b8152600401610a09919061a469565b600060405180830381600087803b158015610a2357600080fd5b505af1158015610a37573d6000803e3d6000fd5b50505050610a458583615dce565b50965096945050505050565b6000610a5e848484615ef4565b90509392505050565b60608142811015610aad576040517f08c379a0000000000000000000000000000000000000000000000000000000008152600401610aa49061a269565b60405180910390fd5b60008686905067ffffffffffffffff811115610af2577f4e487b7100000000000000000000000000000000000000000000000000000000600052604160045260246000fd5b604051908082528060200260200182016040528015610b205781602001602082028036833780820191505090505b50905060005b87879050811015610c165760036000898984818110610b6e577f4e487b7100000000000000000000000000000000000000000000000000000000600052603260045260246000fd5b9050602002016020810190610b83919061937f565b73ffffffffffffffffffffffffffffffffffffffff1673ffffffffffffffffffffffffffffffffffffffff16815260200190815260200160002054828281518110610bf7577f4e487b7100000000000000000000000000000000000000000000000000000000600052603260045260246000fd5b6020026020010181815250508080610c0e9061a829565b915050610b26565b506060600460009054906101000a900473ffffffffffffffffffffffffffffffffffffffff1673ffffffffffffffffffffffffffffffffffffffff16888860018b8b9050610c64919061a6de565b818110610c9a577f4e487b7100000000000000000000000000000000000000000000000000000000600052603260045260246000fd5b9050602002016020810190610caf919061937f565b73ffffffffffffffffffffffffffffffffffffffff1614610d05576040517f08c379a0000000000000000000000000000000000000000000000000000000008152600401610cfc9061a3e9565b60405180910390fd5b610e296001805480602002602001604051908101604052809291908181526020018280548015610d8a57602002820191906000526020600020905b8160009054906101000a900473ffffffffffffffffffffffffffffffffffffffff1673ffffffffffffffffffffffffffffffffffffffff1681526020019060010190808311610d40575b50505050506002805480602002602001604051908101604052809291908181526020018280548015610ddb57602002820191906000526020600020905b815481526020019060010190808311610dc7575b5050505050848d8c8c80806020026020016040519081016040528093929190818152602001838360200280828437600081840152601f19601f82011690508083019250505050505050615ffa565b8092508195505050888460018651610e41919061a6de565b81518110610e78577f4e487b7100000000000000000000000000000000000000000000000000000000600052603260045260246000fd5b60200260200101511015610ec1576040517f08c379a0000000000000000000000000000000000000000000000000000000008152600401610eb89061a329565b60405180910390fd5b61104388886000818110610efe577f4e487b7100000000000000000000000000000000000000000000000000000000600052603260045260246000fd5b9050602002016020810190610f13919061937f565b33610ffc84600081518110610f51577f4e487b7100000000000000000000000000000000000000000000000000000000600052603260045260246000fd5b60200260200101518c8c6000818110610f93577f4e487b7100000000000000000000000000000000000000000000000000000000600052603260045260246000fd5b9050602002016020810190610fa8919061937f565b8d8d6001818110610fe2577f4e487b7100000000000000000000000000000000000000000000000000000000600052603260045260246000fd5b9050602002016020810190610ff7919061937f565b616884565b87600081518110611036577f4e487b7100000000000000000000000000000000000000000000000000000000600052603260045260246000fd5b602002602001015161691a565b61109084828a8a80806020026020016040519081016040528093929190818152602001838360200280828437600081840152601f19601f8201169050808301925050505050505030616a53565b600460009054906101000a900473ffffffffffffffffffffffffffffffffffffffff1673ffffffffffffffffffffffffffffffffffffffff16632e1a7d4d85600187516110dd919061a6de565b81518110611114577f4e487b7100000000000000000000000000000000000000000000000000000000600052603260045260246000fd5b60200260200101516040518263ffffffff1660e01b8152600401611138919061a469565b600060405180830381600087803b15801561115257600080fd5b505af1158015611166573d6000803e3d6000fd5b505050506111c186856001875161117d919061a6de565b815181106111b4577f4e487b7100000000000000000000000000000000000000000000000000000000600052603260045260246000fd5b6020026020010151615dce565b5050509695505050505050565b3273ffffffffffffffffffffffffffffffffffffffff166111ed613d2a565b73ffffffffffffffffffffffffffffffffffffffff1614611243576040517f08c379a000000000000000000000000000000000000000000000000000000000815260040161123a9061a369565b60405180910390fd5b80600360008473ffffffffffffffffffffffffffffffffffffffff1673ffffffffffffffffffffffffffffffffffffffff168152602001908152602001600020819055505050565b60606000825167ffffffffffffffff8111156112d0577f4e487b7100000000000000000000000000000000000000000000000000000000600052604160045260246000fd5b6040519080825280602002602001820160405280156112fe5781602001602082028036833780820191505090505b50905060005b83518110156113e5576003600085838151811061134a577f4e487b7100000000000000000000000000000000000000000000000000000000600052603260045260246000fd5b602002602001015173ffffffffffffffffffffffffffffffffffffffff1673ffffffffffffffffffffffffffffffffffffffff168152602001908152602001600020548282815181106113c6577f4e487b7100000000000000000000000000000000000000000000000000000000600052603260045260246000fd5b60200260200101818152505080806113dd9061a829565b915050611304565b506114c9600180548060200260200160405190810160405280929190818152602001828054801561146b57602002820191906000526020600020905b8160009054906101000a900473ffffffffffffffffffffffffffffffffffffffff1673ffffffffffffffffffffffffffffffffffffffff1681526020019060010190808311611421575b505050505060028054806020026020016040519081016040528092919081815260200182805480156114bc57602002820191906000526020600020905b8154815260200190600101908083116114a8575b5050505050838787616f67565b50809250505092915050565b600080600061150560008054906101000a900473ffffffffffffffffffffffffffffffffffffffff168f8f616884565b9050600087611514578c611536565b7fffffffffffffffffffffffffffffffffffffffffffffffffffffffffffffffff5b90508173ffffffffffffffffffffffffffffffffffffffff1663d505accf3330848d8c8c8c6040518863ffffffff1660e01b815260040161157d979695949392919061a08d565b600060405180830381600087803b15801561159757600080fd5b505af11580156115ab573d6000803e3d6000fd5b505050506115be8f8f8f8f8f8f8f6147ea565b809450819550505050509b509b9950505050505050505050565b3273ffffffffffffffffffffffffffffffffffffffff166115f7613d2a565b73ffffffffffffffffffffffffffffffffffffffff161461164d576040517f08c379a00000000000000000000000000000000000000000000000000000000081526004016116449061a369565b60405180910390fd5b60008311611690576040517f08c379a00000000000000000000000000000000000000000000000000000000081526004016116879061a389565b60405180910390fd5b60018054905083101561176e5781600184815481106116d8577f4e487b7100000000000000000000000000000000000000000000000000000000600052603260045260246000fd5b9060005260206000200160006101000a81548173ffffffffffffffffffffffffffffffffffffffff021916908373ffffffffffffffffffffffffffffffffffffffff160217905550806002848154811061175b577f4e487b7100000000000000000000000000000000000000000000000000000000600052603260045260246000fd5b9060005260206000200181905550611842565b60018054905083146117b5576040517f08c379a00000000000000000000000000000000000000000000000000000000081526004016117ac9061a249565b60405180910390fd5b6001829080600181540180825580915050600190039060005260206000200160009091909190916101000a81548173ffffffffffffffffffffffffffffffffffffffff021916908373ffffffffffffffffffffffffffffffffffffffff16021790555060028190806001815401808255809150506001900390600052602060002001600090919091909150555b505050565b6060814281101561188d576040517f08c379a00000000000000000000000000000000000000000000000000000000081526004016118849061a269565b60405180910390fd5b60008686905067ffffffffffffffff8111156118d2577f4e487b7100000000000000000000000000000000000000000000000000000000600052604160045260246000fd5b6040519080825280602002602001820160405280156119005781602001602082028036833780820191505090505b50905060005b878790508110156119f6576003600089898481811061194e577f4e487b7100000000000000000000000000000000000000000000000000000000600052603260045260246000fd5b9050602002016020810190611963919061937f565b73ffffffffffffffffffffffffffffffffffffffff1673ffffffffffffffffffffffffffffffffffffffff168152602001908152602001600020548282815181106119d7577f4e487b7100000000000000000000000000000000000000000000000000000000600052603260045260246000fd5b60200260200101818152505080806119ee9061a829565b915050611906565b506060611b1d6001805480602002602001604051908101604052809291908181526020018280548015611a7e57602002820191906000526020600020905b8160009054906101000a900473ffffffffffffffffffffffffffffffffffffffff1673ffffffffffffffffffffffffffffffffffffffff1681526020019060010190808311611a34575b50505050506002805480602002602001604051908101604052809291908181526020018280548015611acf57602002820191906000526020600020905b815481526020019060010190808311611abb575b5050505050848d8c8c80806020026020016040519081016040528093929190818152602001838360200280828437600081840152601f19601f82011690508083019250505050505050615ffa565b8092508195505050888460018651611b35919061a6de565b81518110611b6c577f4e487b7100000000000000000000000000000000000000000000000000000000600052603260045260246000fd5b60200260200101511015611bb5576040517f08c379a0000000000000000000000000000000000000000000000000000000008152600401611bac9061a329565b60405180910390fd5b611d3788886000818110611bf2577f4e487b7100000000000000000000000000000000000000000000000000000000600052603260045260246000fd5b9050602002016020810190611c07919061937f565b33611cf084600081518110611c45577f4e487b7100000000000000000000000000000000000000000000000000000000600052603260045260246000fd5b60200260200101518c8c6000818110611c87577f4e487b7100000000000000000000000000000000000000000000000000000000600052603260045260246000fd5b9050602002016020810190611c9c919061937f565b8d8d6001818110611cd6577f4e487b7100000000000000000000000000000000000000000000000000000000600052603260045260246000fd5b9050602002016020810190611ceb919061937f565b616884565b87600081518110611d2a577f4e487b7100000000000000000000000000000000000000000000000000000000600052603260045260246000fd5b602002602001015161691a565b611d8484898980806020026020016040519081016040528093929190818152602001838360200280828437600081840152601f19601f820116905080830192505050505050508389616a53565b5050509695505050505050565b60608142811015611dd7576040517f08c379a0000000000000000000000000000000000000000000000000000000008152600401611dce9061a269565b60405180910390fd5b60008686905067ffffffffffffffff811115611e1c577f4e487b7100000000000000000000000000000000000000000000000000000000600052604160045260246000fd5b604051908082528060200260200182016040528015611e4a5781602001602082028036833780820191505090505b50905060005b87879050811015611f405760036000898984818110611e98577f4e487b7100000000000000000000000000000000000000000000000000000000600052603260045260246000fd5b9050602002016020810190611ead919061937f565b73ffffffffffffffffffffffffffffffffffffffff1673ffffffffffffffffffffffffffffffffffffffff16815260200190815260200160002054828281518110611f21577f4e487b7100000000000000000000000000000000000000000000000000000000600052603260045260246000fd5b6020026020010181815250508080611f389061a829565b915050611e50565b506060600460009054906101000a900473ffffffffffffffffffffffffffffffffffffffff1673ffffffffffffffffffffffffffffffffffffffff16888860018b8b9050611f8e919061a6de565b818110611fc4577f4e487b7100000000000000000000000000000000000000000000000000000000600052603260045260246000fd5b9050602002016020810190611fd9919061937f565b73ffffffffffffffffffffffffffffffffffffffff161461202f576040517f08c379a00000000000000000000000000000000000000000000000000000000081526004016120269061a3e9565b60405180910390fd5b61215360018054806020026020016040519081016040528092919081815260200182805480156120b457602002820191906000526020600020905b8160009054906101000a900473ffffffffffffffffffffffffffffffffffffffff1673ffffffffffffffffffffffffffffffffffffffff168152602001906001019080831161206a575b5050505050600280548060200260200160405190810160405280929190818152602001828054801561210557602002820191906000526020600020905b8154815260200190600101908083116120f1575b5050505050848d8c8c80806020026020016040519081016040528093929190818152602001838360200280828437600081840152601f19601f82011690508083019250505050505050616f67565b80925081955050508884600081518110612196577f4e487b7100000000000000000000000000000000000000000000000000000000600052603260045260246000fd5b602002602001015111156121df576040517f08c379a00000000000000000000000000000000000000000000000000000000081526004016121d69061a2e9565b60405180910390fd5b6123618888600081811061221c577f4e487b7100000000000000000000000000000000000000000000000000000000600052603260045260246000fd5b9050602002016020810190612231919061937f565b3361231a8460008151811061226f577f4e487b7100000000000000000000000000000000000000000000000000000000600052603260045260246000fd5b60200260200101518c8c60008181106122b1577f4e487b7100000000000000000000000000000000000000000000000000000000600052603260045260246000fd5b90506020020160208101906122c6919061937f565b8d8d6001818110612300577f4e487b7100000000000000000000000000000000000000000000000000000000600052603260045260246000fd5b9050602002016020810190612315919061937f565b616884565b87600081518110612354577f4e487b7100000000000000000000000000000000000000000000000000000000600052603260045260246000fd5b602002602001015161691a565b6123ae84898980806020026020016040519081016040528093929190818152602001838360200280828437600081840152601f19601f820116905080830192505050505050508330616a53565b600460009054906101000a900473ffffffffffffffffffffffffffffffffffffffff1673ffffffffffffffffffffffffffffffffffffffff16632e1a7d4d85600187516123fb919061a6de565b81518110612432577f4e487b7100000000000000000000000000000000000000000000000000000000600052603260045260246000fd5b60200260200101516040518263ffffffff1660e01b8152600401612456919061a469565b600060405180830381600087803b15801561247057600080fd5b505af1158015612484573d6000803e3d6000fd5b505050506124df86856001875161249b919061a6de565b815181106124d2577f4e487b7100000000000000000000000000000000000000000000000000000000600052603260045260246000fd5b6020026020010151615dce565b5050509695505050505050565b600281815481106124fc57600080fd5b906000526020600020016000915090505481565b60036020528060005260406000206000915090505481565b600560009054906101000a900473ffffffffffffffffffffffffffffffffffffffff1681565b3273ffffffffffffffffffffffffffffffffffffffff1661256d613d2a565b73ffffffffffffffffffffffffffffffffffffffff16146125c3576040517f08c379a00000000000000000000000000000000000000000000000000000000081526004016125ba9061a369565b60405180910390fd5b80600560006101000a81548173ffffffffffffffffffffffffffffffffffffffff021916908373ffffffffffffffffffffffffffffffffffffffff16021790555050565b60008061265760008054906101000a900473ffffffffffffffffffffffffffffffffffffffff168d600460009054906101000a900473ffffffffffffffffffffffffffffffffffffffff16616884565b9050600086612666578b612688565b7fffffffffffffffffffffffffffffffffffffffffffffffffffffffffffffffff5b90508173ffffffffffffffffffffffffffffffffffffffff1663d505accf3330848c8b8b8b6040518863ffffffff1660e01b81526004016126cf979695949392919061a08d565b600060405180830381600087803b1580156126e957600080fd5b505af11580156126fd573d6000803e3d6000fd5b5050505061270f8d8d8d8d8d8d613ff2565b925050509a9950505050505050505050565b8042811015612765576040517f08c379a000000000000000000000000000000000000000000000000000000000815260040161275c9061a269565b60405180910390fd5b60008585905067ffffffffffffffff8111156127aa577f4e487b7100000000000000000000000000000000000000000000000000000000600052604160045260246000fd5b6040519080825280602002602001820160405280156127d85781602001602082028036833780820191505090505b50905060008686905067ffffffffffffffff811115612820577f4e487b7100000000000000000000000000000000000000000000000000000000600052604160045260246000fd5b60405190808252806020026020018201604052801561284e5781602001602082028036833780820191505090505b50905061285b8787617644565b80925081935050506128fe878760008181106128a0577f4e487b7100000000000000000000000000000000000000000000000000000000600052603260045260246000fd5b90506020020160208101906128b5919061937f565b33846001815181106128f0577f4e487b7100000000000000000000000000000000000000000000000000000000600052603260045260246000fd5b60200260200101518c61691a565b6000878760018a8a9050612912919061a6de565b818110612948577f4e487b7100000000000000000000000000000000000000000000000000000000600052603260045260246000fd5b905060200201602081019061295d919061937f565b73ffffffffffffffffffffffffffffffffffffffff166370a08231876040518263ffffffff1660e01b81526004016129959190619fcd565b60206040518083038186803b1580156129ad57600080fd5b505afa1580156129c1573d6000803e3d6000fd5b505050506040513d601f19601f820116820180604052508101906129e591906198a1565b9050612a34888880806020026020016040519081016040528093929190818152602001838360200280828437600081840152601f19601f82011690508083019250505050505050848489617ecf565b88612b2c828a8a60018d8d9050612a4b919061a6de565b818110612a81577f4e487b7100000000000000000000000000000000000000000000000000000000600052603260045260246000fd5b9050602002016020810190612a96919061937f565b73ffffffffffffffffffffffffffffffffffffffff166370a082318a6040518263ffffffff1660e01b8152600401612ace9190619fcd565b60206040518083038186803b158015612ae657600080fd5b505afa158015612afa573d6000803e3d6000fd5b505050506040513d601f19601f82011682018060405250810190612b1e91906198a1565b61855790919063ffffffff16565b1015612b6d576040517f08c379a0000000000000000000000000000000000000000000000000000000008152600401612b649061a269565b60405180910390fd5b50505050505050505050565b60018181548110612b8957600080fd5b906000526020600020016000915054906101000a900473ffffffffffffffffffffffffffffffffffffffff1681565b8042811015612bfc576040517f08c379a0000000000000000000000000000000000000000000000000000000008152600401612bf39061a269565b60405180910390fd5b600460009054906101000a900473ffffffffffffffffffffffffffffffffffffffff1673ffffffffffffffffffffffffffffffffffffffff168585600188889050612c47919061a6de565b818110612c7d577f4e487b7100000000000000000000000000000000000000000000000000000000600052603260045260246000fd5b9050602002016020810190612c92919061937f565b73ffffffffffffffffffffffffffffffffffffffff1614612ce8576040517f08c379a0000000000000000000000000000000000000000000000000000000008152600401612cdf9061a3e9565b60405180910390fd5b60008585905067ffffffffffffffff811115612d2d577f4e487b7100000000000000000000000000000000000000000000000000000000600052604160045260246000fd5b604051908082528060200260200182016040528015612d5b5781602001602082028036833780820191505090505b50905060008686905067ffffffffffffffff811115612da3577f4e487b7100000000000000000000000000000000000000000000000000000000600052604160045260246000fd5b604051908082528060200260200182016040528015612dd15781602001602082028036833780820191505090505b509050612dde8787617644565b8092508193505050612e8187876000818110612e23577f4e487b7100000000000000000000000000000000000000000000000000000000600052603260045260246000fd5b9050602002016020810190612e38919061937f565b3384600181518110612e73577f4e487b7100000000000000000000000000000000000000000000000000000000600052603260045260246000fd5b60200260200101518c61691a565b612ece878780806020026020016040519081016040528093929190818152602001838360200280828437600081840152601f19601f82011690508083019250505050505050838330617ecf565b6000600460009054906101000a900473ffffffffffffffffffffffffffffffffffffffff1673ffffffffffffffffffffffffffffffffffffffff166370a08231306040518263ffffffff1660e01b8152600401612f2b9190619fcd565b60206040518083038186803b158015612f4357600080fd5b505afa158015612f57573d6000803e3d6000fd5b505050506040513d601f19601f82011682018060405250810190612f7b91906198a1565b905088811015612fc0576040517f08c379a0000000000000000000000000000000000000000000000000000000008152600401612fb79061a329565b60405180910390fd5b600460009054906101000a900473ffffffffffffffffffffffffffffffffffffffff1673ffffffffffffffffffffffffffffffffffffffff16632e1a7d4d826040518263ffffffff1660e01b815260040161301b919061a469565b600060405180830381600087803b15801561303557600080fd5b505af1158015613049573d6000803e3d6000fd5b505050506130578682615dce565b50505050505050505050565b606081428110156130a9576040517f08c379a00000000000000000000000000000000000000000000000000000000081526004016130a09061a269565b60405180910390fd5b60008686905067ffffffffffffffff8111156130ee577f4e487b7100000000000000000000000000000000000000000000000000000000600052604160045260246000fd5b60405190808252806020026020018201604052801561311c5781602001602082028036833780820191505090505b50905060005b87879050811015613212576003600089898481811061316a577f4e487b7100000000000000000000000000000000000000000000000000000000600052603260045260246000fd5b905060200201602081019061317f919061937f565b73ffffffffffffffffffffffffffffffffffffffff1673ffffffffffffffffffffffffffffffffffffffff168152602001908152602001600020548282815181106131f3577f4e487b7100000000000000000000000000000000000000000000000000000000600052603260045260246000fd5b602002602001018181525050808061320a9061a829565b915050613122565b506060600460009054906101000a900473ffffffffffffffffffffffffffffffffffffffff1673ffffffffffffffffffffffffffffffffffffffff1688886000818110613288577f4e487b7100000000000000000000000000000000000000000000000000000000600052603260045260246000fd5b905060200201602081019061329d919061937f565b73ffffffffffffffffffffffffffffffffffffffff16146132f3576040517f08c379a00000000000000000000000000000000000000000000000000000000081526004016132ea9061a3e9565b60405180910390fd5b613417600180548060200260200160405190810160405280929190818152602001828054801561337857602002820191906000526020600020905b8160009054906101000a900473ffffffffffffffffffffffffffffffffffffffff1673ffffffffffffffffffffffffffffffffffffffff168152602001906001019080831161332e575b505050505060028054806020026020016040519081016040528092919081815260200182805480156133c957602002820191906000526020600020905b8154815260200190600101908083116133b5575b505050505084348c8c80806020026020016040519081016040528093929190818152602001838360200280828437600081840152601f19601f82011690508083019250505050505050615ffa565b809250819550505088846001865161342f919061a6de565b81518110613466577f4e487b7100000000000000000000000000000000000000000000000000000000600052603260045260246000fd5b602002602001015110156134af576040517f08c379a00000000000000000000000000000000000000000000000000000000081526004016134a69061a329565b60405180910390fd5b600460009054906101000a900473ffffffffffffffffffffffffffffffffffffffff1673ffffffffffffffffffffffffffffffffffffffff1663d0e30db085600081518110613527577f4e487b7100000000000000000000000000000000000000000000000000000000600052603260045260246000fd5b60200260200101516040518263ffffffff1660e01b81526004016000604051808303818588803b15801561355a57600080fd5b505af115801561356e573d6000803e3d6000fd5b5050505050600460009054906101000a900473ffffffffffffffffffffffffffffffffffffffff1673ffffffffffffffffffffffffffffffffffffffff1663a9059cbb613699836000815181106135ee577f4e487b7100000000000000000000000000000000000000000000000000000000600052603260045260246000fd5b60200260200101518b8b6000818110613630577f4e487b7100000000000000000000000000000000000000000000000000000000600052603260045260246000fd5b9050602002016020810190613645919061937f565b8c8c600181811061367f577f4e487b7100000000000000000000000000000000000000000000000000000000600052603260045260246000fd5b9050602002016020810190613694919061937f565b616884565b866000815181106136d3577f4e487b7100000000000000000000000000000000000000000000000000000000600052603260045260246000fd5b60200260200101516040518363ffffffff1660e01b81526004016136f892919061a0fc565b602060405180830381600087803b15801561371257600080fd5b505af1158015613726573d6000803e3d6000fd5b505050506040513d601f19601f8201168201806040525081019061374a9190619800565b61377d577f4e487b7100000000000000000000000000000000000000000000000000000000600052600160045260246000fd5b6137ca84898980806020026020016040519081016040528093929190818152602001838360200280828437600081840152601f19601f820116905080830192505050505050508389616a53565b50505095945050505050565b60006137e38484846185a1565b90509392505050565b60608142811015613832576040517f08c379a00000000000000000000000000000000000000000000000000000000081526004016138299061a269565b60405180910390fd5b60008686905067ffffffffffffffff811115613877577f4e487b7100000000000000000000000000000000000000000000000000000000600052604160045260246000fd5b6040519080825280602002602001820160405280156138a55781602001602082028036833780820191505090505b50905060005b8787905081101561399b57600360008989848181106138f3577f4e487b7100000000000000000000000000000000000000000000000000000000600052603260045260246000fd5b9050602002016020810190613908919061937f565b73ffffffffffffffffffffffffffffffffffffffff1673ffffffffffffffffffffffffffffffffffffffff1681526020019081526020016000205482828151811061397c577f4e487b7100000000000000000000000000000000000000000000000000000000600052603260045260246000fd5b60200260200101818152505080806139939061a829565b9150506138ab565b506060613ac26001805480602002602001604051908101604052809291908181526020018280548015613a2357602002820191906000526020600020905b8160009054906101000a900473ffffffffffffffffffffffffffffffffffffffff1673ffffffffffffffffffffffffffffffffffffffff16815260200190600101908083116139d9575b50505050506002805480602002602001604051908101604052809291908181526020018280548015613a7457602002820191906000526020600020905b815481526020019060010190808311613a60575b5050505050848d8c8c80806020026020016040519081016040528093929190818152602001838360200280828437600081840152601f19601f82011690508083019250505050505050616f67565b80925081955050508884600081518110613b05577f4e487b7100000000000000000000000000000000000000000000000000000000600052603260045260246000fd5b60200260200101511115613b4e576040517f08c379a0000000000000000000000000000000000000000000000000000000008152600401613b459061a2e9565b60405180910390fd5b613cd088886000818110613b8b577f4e487b7100000000000000000000000000000000000000000000000000000000600052603260045260246000fd5b9050602002016020810190613ba0919061937f565b33613c8984600081518110613bde577f4e487b7100000000000000000000000000000000000000000000000000000000600052603260045260246000fd5b60200260200101518c8c6000818110613c20577f4e487b7100000000000000000000000000000000000000000000000000000000600052603260045260246000fd5b9050602002016020810190613c35919061937f565b8d8d6001818110613c6f577f4e487b7100000000000000000000000000000000000000000000000000000000600052603260045260246000fd5b9050602002016020810190613c84919061937f565b616884565b87600081518110613cc3577f4e487b7100000000000000000000000000000000000000000000000000000000600052603260045260246000fd5b602002602001015161691a565b613d1d84898980806020026020016040519081016040528093929190818152602001838360200280828437600081840152601f19601f820116905080830192505050505050508389616a53565b5050509695505050505050565b6000600660009054906101000a900473ffffffffffffffffffffffffffffffffffffffff16905090565b3273ffffffffffffffffffffffffffffffffffffffff16613d73613d2a565b73ffffffffffffffffffffffffffffffffffffffff1614613dc9576040517f08c379a0000000000000000000000000000000000000000000000000000000008152600401613dc09061a369565b60405180910390fd5b60008111613e0c576040517f08c379a0000000000000000000000000000000000000000000000000000000008152600401613e039061a389565b60405180910390fd5b60018080549050613e1d919061a6de565b811415613ee4576001805480613e5c577f4e487b7100000000000000000000000000000000000000000000000000000000600052603160045260246000fd5b6001900381819060005260206000200160006101000a81549073ffffffffffffffffffffffffffffffffffffffff021916905590556002805480613ec9577f4e487b7100000000000000000000000000000000000000000000000000000000600052603160045260246000fd5b60019003818190600052602060002001600090559055613fb3565b600060018281548110613f20577f4e487b7100000000000000000000000000000000000000000000000000000000600052603260045260246000fd5b9060005260206000200160006101000a81548173ffffffffffffffffffffffffffffffffffffffff021916908373ffffffffffffffffffffffffffffffffffffffff160217905550600060028281548110613fa4577f4e487b7100000000000000000000000000000000000000000000000000000000600052603260045260246000fd5b90600052602060002001819055505b50565b600460009054906101000a900473ffffffffffffffffffffffffffffffffffffffff1681565b6000613fe98484846186b4565b90509392505050565b60008142811015614038576040517f08c379a000000000000000000000000000000000000000000000000000000000815260040161402f9061a269565b60405180910390fd5b61406988600460009054906101000a900473ffffffffffffffffffffffffffffffffffffffff1689898930896147ea565b90508092505061410288858a73ffffffffffffffffffffffffffffffffffffffff166370a08231306040518263ffffffff1660e01b81526004016140ad9190619fcd565b60206040518083038186803b1580156140c557600080fd5b505afa1580156140d9573d6000803e3d6000fd5b505050506040513d601f19601f820116820180604052508101906140fd91906198a1565b615c98565b600460009054906101000a900473ffffffffffffffffffffffffffffffffffffffff1673ffffffffffffffffffffffffffffffffffffffff16632e1a7d4d836040518263ffffffff1660e01b815260040161415d919061a469565b600060405180830381600087803b15801561417757600080fd5b505af115801561418b573d6000803e3d6000fd5b505050506141998483615dce565b509695505050505050565b80428110156141e8576040517f08c379a00000000000000000000000000000000000000000000000000000000081526004016141df9061a269565b60405180910390fd5b600460009054906101000a900473ffffffffffffffffffffffffffffffffffffffff1673ffffffffffffffffffffffffffffffffffffffff168585600081811061425b577f4e487b7100000000000000000000000000000000000000000000000000000000600052603260045260246000fd5b9050602002016020810190614270919061937f565b73ffffffffffffffffffffffffffffffffffffffff16146142c6576040517f08c379a00000000000000000000000000000000000000000000000000000000081526004016142bd9061a269565b60405180910390fd5b6000349050600460009054906101000a900473ffffffffffffffffffffffffffffffffffffffff1673ffffffffffffffffffffffffffffffffffffffff1663d0e30db0826040518263ffffffff1660e01b81526004016000604051808303818588803b15801561433557600080fd5b505af1158015614349573d6000803e3d6000fd5b505050505060008686905067ffffffffffffffff811115614393577f4e487b7100000000000000000000000000000000000000000000000000000000600052604160045260246000fd5b6040519080825280602002602001820160405280156143c15781602001602082028036833780820191505090505b50905060008787905067ffffffffffffffff811115614409577f4e487b7100000000000000000000000000000000000000000000000000000000600052604160045260246000fd5b6040519080825280602002602001820160405280156144375781602001602082028036833780820191505090505b5090506144448888617644565b8092508193505050600460009054906101000a900473ffffffffffffffffffffffffffffffffffffffff1673ffffffffffffffffffffffffffffffffffffffff1663a9059cbb836001815181106144c4577f4e487b7100000000000000000000000000000000000000000000000000000000600052603260045260246000fd5b6020026020010151856040518363ffffffff1660e01b81526004016144ea92919061a0fc565b602060405180830381600087803b15801561450457600080fd5b505af1158015614518573d6000803e3d6000fd5b505050506040513d601f19601f8201168201806040525081019061453c9190619800565b61456f577f4e487b7100000000000000000000000000000000000000000000000000000000600052600160045260246000fd5b6000888860018b8b9050614583919061a6de565b8181106145b9577f4e487b7100000000000000000000000000000000000000000000000000000000600052603260045260246000fd5b90506020020160208101906145ce919061937f565b73ffffffffffffffffffffffffffffffffffffffff166370a08231886040518263ffffffff1660e01b81526004016146069190619fcd565b60206040518083038186803b15801561461e57600080fd5b505afa158015614632573d6000803e3d6000fd5b505050506040513d601f19601f8201168201806040525081019061465691906198a1565b90506146a5898980806020026020016040519081016040528093929190818152602001838360200280828437600081840152601f19601f8201169050808301925050505050505084848a617ecf565b8961479d828b8b60018e8e90506146bc919061a6de565b8181106146f2577f4e487b7100000000000000000000000000000000000000000000000000000000600052603260045260246000fd5b9050602002016020810190614707919061937f565b73ffffffffffffffffffffffffffffffffffffffff166370a082318b6040518263ffffffff1660e01b815260040161473f9190619fcd565b60206040518083038186803b15801561475757600080fd5b505afa15801561476b573d6000803e3d6000fd5b505050506040513d601f19601f8201168201806040525081019061478f91906198a1565b61855790919063ffffffff16565b10156147de576040517f08c379a00000000000000000000000000000000000000000000000000000000081526004016147d59061a269565b60405180910390fd5b50505050505050505050565b6000808242811015614831576040517f08c379a00000000000000000000000000000000000000000000000000000000081526004016148289061a269565b60405180910390fd5b600061485e60008054906101000a900473ffffffffffffffffffffffffffffffffffffffff168c8c616884565b90508073ffffffffffffffffffffffffffffffffffffffff166323b872dd33838c6040518463ffffffff1660e01b815260040161489d9392919061a056565b602060405180830381600087803b1580156148b757600080fd5b505af11580156148cb573d6000803e3d6000fd5b505050506040513d601f19601f820116820180604052508101906148ef9190619800565b5061492e6040518060400160405280601681526020017f535741502052656d6f766564206c69717569646974790000000000000000000081525061876e565b6000808273ffffffffffffffffffffffffffffffffffffffff166389afcb44896040518263ffffffff1660e01b815260040161496a9190619fcd565b6040805180830381600087803b15801561498357600080fd5b505af1158015614997573d6000803e3d6000fd5b505050506040513d601f19601f820116820180604052508101906149bb91906199ed565b9150915060006149cb8e8e618807565b5090508073ffffffffffffffffffffffffffffffffffffffff168e73ffffffffffffffffffffffffffffffffffffffff1614614a08578183614a0b565b82825b80975081985050508a871015614a56576040517f08c379a0000000000000000000000000000000000000000000000000000000008152600401614a4d9061a1a9565b60405180910390fd5b89861015614a99576040517f08c379a0000000000000000000000000000000000000000000000000000000008152600401614a909061a229565b60405180910390fd5b505050505097509795505050505050565b600660149054906101000a900460ff16614af9576040517f08c379a0000000000000000000000000000000000000000000000000000000008152600401614af09061a2a9565b60405180910390fd5b6000600660159054906101000a900460ff161590508015614b4b576001600660156101000a81548160ff0219169083151502179055506001600660146101000a81548160ff0219169083151502179055505b32600660006101000a81548173ffffffffffffffffffffffffffffffffffffffff021916908373ffffffffffffffffffffffffffffffffffffffff160217905550836000806101000a81548173ffffffffffffffffffffffffffffffffffffffff021916908373ffffffffffffffffffffffffffffffffffffffff16021790555081600460006101000a81548173ffffffffffffffffffffffffffffffffffffffff021916908373ffffffffffffffffffffffffffffffffffffffff1602179055506001849080600181540180825580915050600190039060005260206000200160009091909190916101000a81548173ffffffffffffffffffffffffffffffffffffffff021916908373ffffffffffffffffffffffffffffffffffffffff16021790555060028390806001815401808255809150506001900390600052602060002001600090919091909150558015614cbb576000600660156101000a81548160ff0219169083151502179055505b50505050565b60008054906101000a900473ffffffffffffffffffffffffffffffffffffffff1681565b60606000825167ffffffffffffffff811115614d2a577f4e487b7100000000000000000000000000000000000000000000000000000000600052604160045260246000fd5b604051908082528060200260200182016040528015614d585781602001602082028036833780820191505090505b50905060005b8351811015614e3f5760036000858381518110614da4577f4e487b7100000000000000000000000000000000000000000000000000000000600052603260045260246000fd5b602002602001015173ffffffffffffffffffffffffffffffffffffffff1673ffffffffffffffffffffffffffffffffffffffff16815260200190815260200160002054828281518110614e20577f4e487b7100000000000000000000000000000000000000000000000000000000600052603260045260246000fd5b6020026020010181815250508080614e379061a829565b915050614d5e565b50614f236001805480602002602001604051908101604052809291908181526020018280548015614ec557602002820191906000526020600020905b8160009054906101000a900473ffffffffffffffffffffffffffffffffffffffff1673ffffffffffffffffffffffffffffffffffffffff1681526020019060010190808311614e7b575b50505050506002805480602002602001604051908101604052809291908181526020018280548015614f1657602002820191906000526020600020905b815481526020019060010190808311614f02575b5050505050838787615ffa565b50809250505092915050565b6000806000614f8160008054906101000a900473ffffffffffffffffffffffffffffffffffffffff168e600460009054906101000a900473ffffffffffffffffffffffffffffffffffffffff16616884565b9050600087614f90578c614fb2565b7fffffffffffffffffffffffffffffffffffffffffffffffffffffffffffffffff5b90508173ffffffffffffffffffffffffffffffffffffffff1663d505accf3330848d8c8c8c6040518863ffffffff1660e01b8152600401614ff9979695949392919061a08d565b600060405180830381600087803b15801561501357600080fd5b505af1158015615027573d6000803e3d6000fd5b505050506150398e8e8e8e8e8e610923565b809450819550505050509a509a98505050505050505050565b6000806000834281101561509b576040517f08c379a00000000000000000000000000000000000000000000000000000000081526004016150929061a269565b60405180910390fd5b6150a98c8c8c8c8c8c618935565b809450819550505060006150de60008054906101000a900473ffffffffffffffffffffffffffffffffffffffff168e8e616884565b90506150ec8d33838861691a565b6150f88c33838761691a565b8073ffffffffffffffffffffffffffffffffffffffff16636a627842886040518263ffffffff1660e01b81526004016151319190619fcd565b602060405180830381600087803b15801561514b57600080fd5b505af115801561515f573d6000803e3d6000fd5b505050506040513d601f19601f8201168201806040525081019061518391906198a1565b92505050985098509895505050505050565b600080600083428110156151de576040517f08c379a00000000000000000000000000000000000000000000000000000000081526004016151d59061a269565b60405180910390fd5b61520e8a600460009054906101000a900473ffffffffffffffffffffffffffffffffffffffff168b348c8c618935565b8094508195505050600061526560008054906101000a900473ffffffffffffffffffffffffffffffffffffffff168c600460009054906101000a900473ffffffffffffffffffffffffffffffffffffffff16616884565b90506152738b33838861691a565b600460009054906101000a900473ffffffffffffffffffffffffffffffffffffffff1673ffffffffffffffffffffffffffffffffffffffff1663d0e30db0856040518263ffffffff1660e01b81526004016000604051808303818588803b1580156152dd57600080fd5b505af11580156152f1573d6000803e3d6000fd5b5050505050600460009054906101000a900473ffffffffffffffffffffffffffffffffffffffff1673ffffffffffffffffffffffffffffffffffffffff1663a9059cbb82866040518363ffffffff1660e01b815260040161535392919061a0fc565b602060405180830381600087803b15801561536d57600080fd5b505af1158015615381573d6000803e3d6000fd5b505050506040513d601f19601f820116820180604052508101906153a59190619800565b6153d8577f4e487b7100000000000000000000000000000000000000000000000000000000600052600160045260246000fd5b8073ffffffffffffffffffffffffffffffffffffffff16636a627842886040518263ffffffff1660e01b81526004016154119190619fcd565b602060405180830381600087803b15801561542b57600080fd5b505af115801561543f573d6000803e3d6000fd5b505050506040513d601f19601f8201168201806040525081019061546391906198a1565b9250833411156154835761548233853461547d919061a6de565b615dce565b5b505096509650969350505050565b606081428110156154d7576040517f08c379a00000000000000000000000000000000000000000000000000000000081526004016154ce9061a269565b60405180910390fd5b60008686905067ffffffffffffffff81111561551c577f4e487b7100000000000000000000000000000000000000000000000000000000600052604160045260246000fd5b60405190808252806020026020018201604052801561554a5781602001602082028036833780820191505090505b50905060005b878790508110156156405760036000898984818110615598577f4e487b7100000000000000000000000000000000000000000000000000000000600052603260045260246000fd5b90506020020160208101906155ad919061937f565b73ffffffffffffffffffffffffffffffffffffffff1673ffffffffffffffffffffffffffffffffffffffff16815260200190815260200160002054828281518110615621577f4e487b7100000000000000000000000000000000000000000000000000000000600052603260045260246000fd5b60200260200101818152505080806156389061a829565b915050615550565b506060600460009054906101000a900473ffffffffffffffffffffffffffffffffffffffff1673ffffffffffffffffffffffffffffffffffffffff16888860008181106156b6577f4e487b7100000000000000000000000000000000000000000000000000000000600052603260045260246000fd5b90506020020160208101906156cb919061937f565b73ffffffffffffffffffffffffffffffffffffffff1614615721576040517f08c379a00000000000000000000000000000000000000000000000000000000081526004016157189061a3e9565b60405180910390fd5b61584560018054806020026020016040519081016040528092919081815260200182805480156157a657602002820191906000526020600020905b8160009054906101000a900473ffffffffffffffffffffffffffffffffffffffff1673ffffffffffffffffffffffffffffffffffffffff168152602001906001019080831161575c575b505050505060028054806020026020016040519081016040528092919081815260200182805480156157f757602002820191906000526020600020905b8154815260200190600101908083116157e3575b5050505050848c8c8c80806020026020016040519081016040528093929190818152602001838360200280828437600081840152601f19601f82011690508083019250505050505050616f67565b80925081955050503484600081518110615888577f4e487b7100000000000000000000000000000000000000000000000000000000600052603260045260246000fd5b602002602001015111156158d1576040517f08c379a00000000000000000000000000000000000000000000000000000000081526004016158c89061a2e9565b60405180910390fd5b600460009054906101000a900473ffffffffffffffffffffffffffffffffffffffff1673ffffffffffffffffffffffffffffffffffffffff1663d0e30db085600081518110615949577f4e487b7100000000000000000000000000000000000000000000000000000000600052603260045260246000fd5b60200260200101516040518263ffffffff1660e01b81526004016000604051808303818588803b15801561597c57600080fd5b505af1158015615990573d6000803e3d6000fd5b5050505050600460009054906101000a900473ffffffffffffffffffffffffffffffffffffffff1673ffffffffffffffffffffffffffffffffffffffff1663a9059cbb615abb83600081518110615a10577f4e487b7100000000000000000000000000000000000000000000000000000000600052603260045260246000fd5b60200260200101518b8b6000818110615a52577f4e487b7100000000000000000000000000000000000000000000000000000000600052603260045260246000fd5b9050602002016020810190615a67919061937f565b8c8c6001818110615aa1577f4e487b7100000000000000000000000000000000000000000000000000000000600052603260045260246000fd5b9050602002016020810190615ab6919061937f565b616884565b86600081518110615af5577f4e487b7100000000000000000000000000000000000000000000000000000000600052603260045260246000fd5b60200260200101516040518363ffffffff1660e01b8152600401615b1a92919061a0fc565b602060405180830381600087803b158015615b3457600080fd5b505af1158015615b48573d6000803e3d6000fd5b505050506040513d601f19601f82011682018060405250810190615b6c9190619800565b615b9f577f4e487b7100000000000000000000000000000000000000000000000000000000600052600160045260246000fd5b615bec84828a8a80806020026020016040519081016040528093929190818152602001838360200280828437600081840152601f19601f8201169050808301925050505050505089616a53565b83600081518110615c26577f4e487b7100000000000000000000000000000000000000000000000000000000600052603260045260246000fd5b6020026020010151341115615c8c57615c8b3385600081518110615c73577f4e487b7100000000000000000000000000000000000000000000000000000000600052603260045260246000fd5b602002602001015134615c86919061a6de565b615dce565b5b50505095945050505050565b6000808473ffffffffffffffffffffffffffffffffffffffff1663a9059cbb8585604051602401615cca92919061a0fc565b6040516020818303038152906040529060e01b6020820180517bffffffffffffffffffffffffffffffffffffffffffffffffffffffff8381831617835250505050604051615d189190619fb6565b6000604051808303816000865af19150503d8060008114615d55576040519150601f19603f3d011682016040523d82523d6000602084013e615d5a565b606091505b5091509150818015615d885750600081511480615d87575080806020019051810190615d869190619800565b5b5b615dc7576040517f08c379a0000000000000000000000000000000000000000000000000000000008152600401615dbe9061a189565b60405180910390fd5b5050505050565b60008273ffffffffffffffffffffffffffffffffffffffff1682600067ffffffffffffffff811115615e29577f4e487b7100000000000000000000000000000000000000000000000000000000600052604160045260246000fd5b6040519080825280601f01601f191660200182016040528015615e5b5781602001600182028036833780820191505090505b50604051615e699190619fb6565b60006040518083038185875af1925050503d8060008114615ea6576040519150601f19603f3d011682016040523d82523d6000602084013e615eab565b606091505b5050905080615eef576040517f08c379a0000000000000000000000000000000000000000000000000000000008152600401615ee69061a409565b60405180910390fd5b505050565b6000808411615f38576040517f08c379a0000000000000000000000000000000000000000000000000000000008152600401615f2f9061a3a9565b60405180910390fd5b600083118015615f485750600082115b615f87576040517f08c379a0000000000000000000000000000000000000000000000000000000008152600401615f7e9061a289565b60405180910390fd5b6000615f9e6103e586618c2890919063ffffffff16565b90506000615fb58483618c2890919063ffffffff16565b90506000615fe083615fd26103e889618c2890919063ffffffff16565b618ca390919063ffffffff16565b90508082615fee919061a653565b93505050509392505050565b606080600283511015616042576040517f08c379a00000000000000000000000000000000000000000000000000000000081526004016160399061a169565b60405180910390fd5b85518751148015616054575084518351145b616093576040517f08c379a000000000000000000000000000000000000000000000000000000000815260040161608a9061a3c9565b60405180910390fd5b6001875110156160d8576040517f08c379a00000000000000000000000000000000000000000000000000000000081526004016160cf9061a449565b60405180910390fd5b600183516160e6919061a6de565b67ffffffffffffffff811115616125577f4e487b7100000000000000000000000000000000000000000000000000000000600052604160045260246000fd5b6040519080825280602002602001820160405280156161535781602001602082028036833780820191505090505b50905086600081518110616190577f4e487b7100000000000000000000000000000000000000000000000000000000600052603260045260246000fd5b6020026020010151816000815181106161d2577f4e487b7100000000000000000000000000000000000000000000000000000000600052603260045260246000fd5b602002602001019073ffffffffffffffffffffffffffffffffffffffff16908173ffffffffffffffffffffffffffffffffffffffff1681525050825167ffffffffffffffff81111561624d577f4e487b7100000000000000000000000000000000000000000000000000000000600052604160045260246000fd5b60405190808252806020026020018201604052801561627b5781602001602082028036833780820191505090505b50915083826000815181106162b9577f4e487b7100000000000000000000000000000000000000000000000000000000600052603260045260246000fd5b60200260200101818152505060005b600184516162d6919061a6de565b8110156168795760005b885181101561669c57600073ffffffffffffffffffffffffffffffffffffffff1689828151811061633a577f4e487b7100000000000000000000000000000000000000000000000000000000600052603260045260246000fd5b602002602001015173ffffffffffffffffffffffffffffffffffffffff16141561636357616689565b60008061643d8b84815181106163a2577f4e487b7100000000000000000000000000000000000000000000000000000000600052603260045260246000fd5b60200260200101518886815181106163e3577f4e487b7100000000000000000000000000000000000000000000000000000000600052603260045260246000fd5b6020026020010151896001886163f9919061a5fd565b81518110616430577f4e487b7100000000000000000000000000000000000000000000000000000000600052603260045260246000fd5b6020026020010151618d01565b915091506164cd86858151811061647d577f4e487b7100000000000000000000000000000000000000000000000000000000600052603260045260246000fd5b602002602001015183838d87815181106164c0577f4e487b7100000000000000000000000000000000000000000000000000000000600052603260045260246000fd5b6020026020010151618e1f565b866001866164db919061a5fd565b81518110616512577f4e487b7100000000000000000000000000000000000000000000000000000000600052603260045260246000fd5b6020026020010181815250508a8381518110616557577f4e487b7100000000000000000000000000000000000000000000000000000000600052603260045260246000fd5b60200260200101518560018661656d919061a5fd565b815181106165a4577f4e487b7100000000000000000000000000000000000000000000000000000000600052603260045260246000fd5b602002602001019073ffffffffffffffffffffffffffffffffffffffff16908173ffffffffffffffffffffffffffffffffffffffff1681525050888481518110616617577f4e487b7100000000000000000000000000000000000000000000000000000000600052603260045260246000fd5b6020026020010151821015801561667a575088600185616637919061a5fd565b8151811061666e577f4e487b7100000000000000000000000000000000000000000000000000000000600052603260045260246000fd5b60200260200101518110155b1561668657505061669c565b50505b80806166949061a829565b9150506162e0565b8851811415616865576000806167808b6000815181106166e5577f4e487b7100000000000000000000000000000000000000000000000000000000600052603260045260246000fd5b6020026020010151888681518110616726577f4e487b7100000000000000000000000000000000000000000000000000000000600052603260045260246000fd5b60200260200101518960018861673c919061a5fd565b81518110616773577f4e487b7100000000000000000000000000000000000000000000000000000000600052603260045260246000fd5b6020026020010151618d01565b915091506168118685815181106167c0577f4e487b7100000000000000000000000000000000000000000000000000000000600052603260045260246000fd5b602002602001015183838d600081518110616804577f4e487b7100000000000000000000000000000000000000000000000000000000600052603260045260246000fd5b6020026020010151618e1f565b8660018661681f919061a5fd565b81518110616856577f4e487b7100000000000000000000000000000000000000000000000000000000600052603260045260246000fd5b60200260200101818152505050505b5080806168719061a829565b9150506162c8565b509550959350505050565b60008373ffffffffffffffffffffffffffffffffffffffff1663e6a4390584846040518363ffffffff1660e01b81526004016168c1929190619fe8565b60206040518083038186803b1580156168d957600080fd5b505afa1580156168ed573d6000803e3d6000fd5b505050506040513d601f19601f8201168201806040525081019061691191906193a8565b90509392505050565b6000808573ffffffffffffffffffffffffffffffffffffffff166323b872dd86868660405160240161694e9392919061a056565b6040516020818303038152906040529060e01b6020820180517bffffffffffffffffffffffffffffffffffffffffffffffffffffffff838183161783525050505060405161699c9190619fb6565b6000604051808303816000865af19150503d80600081146169d9576040519150601f19603f3d011682016040523d82523d6000602084013e6169de565b606091505b5091509150818015616a0c5750600081511480616a0b575080806020019051810190616a0a9190619800565b5b5b616a4b576040517f08c379a0000000000000000000000000000000000000000000000000000000008152600401616a429061a429565b60405180910390fd5b505050505050565b60005b60018451616a64919061a6de565b811015616f6057600080858381518110616aa7577f4e487b7100000000000000000000000000000000000000000000000000000000600052603260045260246000fd5b602002602001015186600185616abd919061a5fd565b81518110616af4577f4e487b7100000000000000000000000000000000000000000000000000000000600052603260045260246000fd5b6020026020010151915091506000616b0c8383618807565b509050600088600186616b1f919061a5fd565b81518110616b56577f4e487b7100000000000000000000000000000000000000000000000000000000600052603260045260246000fd5b60200260200101519050600073ffffffffffffffffffffffffffffffffffffffff16600560009054906101000a900473ffffffffffffffffffffffffffffffffffffffff1673ffffffffffffffffffffffffffffffffffffffff1614158015616c4a575060008054906101000a900473ffffffffffffffffffffffffffffffffffffffff1673ffffffffffffffffffffffffffffffffffffffff16878681518110616c2a577f4e487b7100000000000000000000000000000000000000000000000000000000600052603260045260246000fd5b602002602001015173ffffffffffffffffffffffffffffffffffffffff16145b15616d0457600560009054906101000a900473ffffffffffffffffffffffffffffffffffffffff1673ffffffffffffffffffffffffffffffffffffffff1663a9678a18338686856040518563ffffffff1660e01b8152600401616cb0949392919061a011565b602060405180830381600087803b158015616cca57600080fd5b505af1158015616cde573d6000803e3d6000fd5b505050506040513d601f19601f82011682018060405250810190616d029190619800565b505b6000808373ffffffffffffffffffffffffffffffffffffffff168673ffffffffffffffffffffffffffffffffffffffff1614616d4257826000616d46565b6000835b91509150600060028b51616d5a919061a6de565b8810616d665788616e0a565b616e098a60028a616d77919061a5fd565b81518110616dae577f4e487b7100000000000000000000000000000000000000000000000000000000600052603260045260246000fd5b6020026020010151878d60028c616dc5919061a5fd565b81518110616dfc577f4e487b7100000000000000000000000000000000000000000000000000000000600052603260045260246000fd5b6020026020010151616884565b5b9050616e638a60018a616e1d919061a5fd565b81518110616e54577f4e487b7100000000000000000000000000000000000000000000000000000000600052603260045260246000fd5b60200260200101518888616884565b73ffffffffffffffffffffffffffffffffffffffff1663022c0d9f848484600067ffffffffffffffff811115616ec2577f4e487b7100000000000000000000000000000000000000000000000000000000600052604160045260246000fd5b6040519080825280601f01601f191660200182016040528015616ef45781602001600182028036833780820191505090505b506040518563ffffffff1660e01b8152600401616f14949392919061a4ad565b600060405180830381600087803b158015616f2e57600080fd5b505af1158015616f42573d6000803e3d6000fd5b50505050505050505050508080616f589061a829565b915050616a56565b5050505050565b606080600283511015616faf576040517f08c379a0000000000000000000000000000000000000000000000000000000008152600401616fa69061a169565b60405180910390fd5b85518751148015616fc1575084518351145b617000576040517f08c379a0000000000000000000000000000000000000000000000000000000008152600401616ff79061a3c9565b60405180910390fd5b600187511015617045576040517f08c379a000000000000000000000000000000000000000000000000000000000815260040161703c9061a449565b60405180910390fd5b60018351617053919061a6de565b67ffffffffffffffff811115617092577f4e487b7100000000000000000000000000000000000000000000000000000000600052604160045260246000fd5b6040519080825280602002602001820160405280156170c05781602001602082028036833780820191505090505b509050866000815181106170fd577f4e487b7100000000000000000000000000000000000000000000000000000000600052603260045260246000fd5b60200260200101518160018451617114919061a6de565b8151811061714b577f4e487b7100000000000000000000000000000000000000000000000000000000600052603260045260246000fd5b602002602001019073ffffffffffffffffffffffffffffffffffffffff16908173ffffffffffffffffffffffffffffffffffffffff1681525050825167ffffffffffffffff8111156171c6577f4e487b7100000000000000000000000000000000000000000000000000000000600052604160045260246000fd5b6040519080825280602002602001820160405280156171f45781602001602082028036833780820191505090505b509150838260018451617207919061a6de565b8151811061723e577f4e487b7100000000000000000000000000000000000000000000000000000000600052603260045260246000fd5b60200260200101818152505060006001845161725a919061a6de565b90505b60008111156176395760005b885181101561762557600073ffffffffffffffffffffffffffffffffffffffff168982815181106172c3577f4e487b7100000000000000000000000000000000000000000000000000000000600052603260045260246000fd5b602002602001015173ffffffffffffffffffffffffffffffffffffffff1614156172ec57617612565b6000806173c68b848151811061732b577f4e487b7100000000000000000000000000000000000000000000000000000000600052603260045260246000fd5b602002602001015188600187617341919061a6de565b81518110617378577f4e487b7100000000000000000000000000000000000000000000000000000000600052603260045260246000fd5b60200260200101518987815181106173b9577f4e487b7100000000000000000000000000000000000000000000000000000000600052603260045260246000fd5b6020026020010151618d01565b91509150617456868581518110617406577f4e487b7100000000000000000000000000000000000000000000000000000000600052603260045260246000fd5b602002602001015183838d8781518110617449577f4e487b7100000000000000000000000000000000000000000000000000000000600052603260045260246000fd5b6020026020010151618f24565b86600186617464919061a6de565b8151811061749b577f4e487b7100000000000000000000000000000000000000000000000000000000600052603260045260246000fd5b6020026020010181815250508a83815181106174e0577f4e487b7100000000000000000000000000000000000000000000000000000000600052603260045260246000fd5b6020026020010151856001866174f6919061a6de565b8151811061752d577f4e487b7100000000000000000000000000000000000000000000000000000000600052603260045260246000fd5b602002602001019073ffffffffffffffffffffffffffffffffffffffff16908173ffffffffffffffffffffffffffffffffffffffff168152505088600185617575919061a6de565b815181106175ac577f4e487b7100000000000000000000000000000000000000000000000000000000600052603260045260246000fd5b6020026020010151821015801561760357508884815181106175f7577f4e487b7100000000000000000000000000000000000000000000000000000000600052603260045260246000fd5b60200260200101518110155b1561760f575050617625565b50505b808061761d9061a829565b915050617269565b5080806176319061a7ce565b91505061725d565b509550959350505050565b60608060008484905067ffffffffffffffff81111561768c577f4e487b7100000000000000000000000000000000000000000000000000000000600052604160045260246000fd5b6040519080825280602002602001820160405280156176ba5781602001602082028036833780820191505090505b50905060005b858590508110156177b05760036000878784818110617708577f4e487b7100000000000000000000000000000000000000000000000000000000600052603260045260246000fd5b905060200201602081019061771d919061937f565b73ffffffffffffffffffffffffffffffffffffffff1673ffffffffffffffffffffffffffffffffffffffff16815260200190815260200160002054828281518110617791577f4e487b7100000000000000000000000000000000000000000000000000000000600052603260045260246000fd5b60200260200101818152505080806177a89061a829565b9150506176c0565b5060005b6001868690506177c4919061a6de565b811015617ec657600080878784818110617807577f4e487b7100000000000000000000000000000000000000000000000000000000600052603260045260246000fd5b905060200201602081019061781c919061937f565b888860018661782b919061a5fd565b818110617861577f4e487b7100000000000000000000000000000000000000000000000000000000600052603260045260246000fd5b9050602002016020810190617876919061937f565b9150915060006178868383618807565b50905060005b600180549050811015617c755760006179b0600183815481106178d8577f4e487b7100000000000000000000000000000000000000000000000000000000600052603260045260246000fd5b9060005260206000200160009054906101000a900473ffffffffffffffffffffffffffffffffffffffff168c8c8981811061793c577f4e487b7100000000000000000000000000000000000000000000000000000000600052603260045260246000fd5b9050602002016020810190617951919061937f565b8d8d60018b617960919061a5fd565b818110617996577f4e487b7100000000000000000000000000000000000000000000000000000000600052603260045260246000fd5b90506020020160208101906179ab919061937f565b616884565b90506000808273ffffffffffffffffffffffffffffffffffffffff16630902f1ac6040518163ffffffff1660e01b815260040160606040518083038186803b1580156179fb57600080fd5b505afa158015617a0f573d6000803e3d6000fd5b505050506040513d601f19601f82011682018060405250810190617a339190619829565b506dffffffffffffffffffffffffffff1691506dffffffffffffffffffffffffffff1691506000808673ffffffffffffffffffffffffffffffffffffffff168973ffffffffffffffffffffffffffffffffffffffff1614617a95578284617a98565b83835b915091508a8a81518110617ad5577f4e487b7100000000000000000000000000000000000000000000000000000000600052603260045260246000fd5b60200260200101518210158015617b3857508a60018b617af5919061a5fd565b81518110617b2c577f4e487b7100000000000000000000000000000000000000000000000000000000600052603260045260246000fd5b60200260200101518110155b15617c5d57848d60018c617b4c919061a5fd565b81518110617b83577f4e487b7100000000000000000000000000000000000000000000000000000000600052603260045260246000fd5b602002602001019073ffffffffffffffffffffffffffffffffffffffff16908173ffffffffffffffffffffffffffffffffffffffff168152505060028681548110617bf7577f4e487b7100000000000000000000000000000000000000000000000000000000600052603260045260246000fd5b90600052602060002001548c60018c617c10919061a5fd565b81518110617c47577f4e487b7100000000000000000000000000000000000000000000000000000000600052603260045260246000fd5b6020026020010181815250505050505050617c75565b50505050508080617c6d9061a829565b91505061788c565b600180549050811415617eaf57617d986001600081548110617cc0577f4e487b7100000000000000000000000000000000000000000000000000000000600052603260045260246000fd5b9060005260206000200160009054906101000a900473ffffffffffffffffffffffffffffffffffffffff168b8b88818110617d24577f4e487b7100000000000000000000000000000000000000000000000000000000600052603260045260246000fd5b9050602002016020810190617d39919061937f565b8c8c60018a617d48919061a5fd565b818110617d7e577f4e487b7100000000000000000000000000000000000000000000000000000000600052603260045260246000fd5b9050602002016020810190617d93919061937f565b616884565b88600187617da6919061a5fd565b81518110617ddd577f4e487b7100000000000000000000000000000000000000000000000000000000600052603260045260246000fd5b602002602001019073ffffffffffffffffffffffffffffffffffffffff16908173ffffffffffffffffffffffffffffffffffffffff16815250506002600081548110617e52577f4e487b7100000000000000000000000000000000000000000000000000000000600052603260045260246000fd5b906000526020600020015487600187617e6b919061a5fd565b81518110617ea2577f4e487b7100000000000000000000000000000000000000000000000000000000600052603260045260246000fd5b6020026020010181815250505b505050508080617ebe9061a829565b9150506177b4565b50509250929050565b60005b60018551617ee0919061a6de565b81101561855057600080868381518110617f23577f4e487b7100000000000000000000000000000000000000000000000000000000600052603260045260246000fd5b602002602001015187600185617f39919061a5fd565b81518110617f70577f4e487b7100000000000000000000000000000000000000000000000000000000600052603260045260246000fd5b6020026020010151915091506000806000617fd889600188617f92919061a5fd565b81518110617fc9577f4e487b7100000000000000000000000000000000000000000000000000000000600052603260045260246000fd5b60200260200101518686619036565b9250925092506000806180c8858873ffffffffffffffffffffffffffffffffffffffff166370a082318e60018d61800f919061a5fd565b81518110618046577f4e487b7100000000000000000000000000000000000000000000000000000000600052603260045260246000fd5b60200260200101516040518263ffffffff1660e01b815260040161806a9190619fcd565b60206040518083038186803b15801561808257600080fd5b505afa158015618096573d6000803e3d6000fd5b505050506040513d601f19601f820116820180604052508101906180ba91906198a1565b61855790919063ffffffff16565b91506181228286868d60018d6180de919061a5fd565b81518110618115577f4e487b7100000000000000000000000000000000000000000000000000000000600052603260045260246000fd5b6020026020010151618e1f565b9050600073ffffffffffffffffffffffffffffffffffffffff16600560009054906101000a900473ffffffffffffffffffffffffffffffffffffffff1673ffffffffffffffffffffffffffffffffffffffff1614158015618297575060008054906101000a900473ffffffffffffffffffffffffffffffffffffffff1673ffffffffffffffffffffffffffffffffffffffff168b60018a6181c3919061a5fd565b815181106181fa577f4e487b7100000000000000000000000000000000000000000000000000000000600052603260045260246000fd5b602002602001015173ffffffffffffffffffffffffffffffffffffffff1663c45a01556040518163ffffffff1660e01b815260040160206040518083038186803b15801561824757600080fd5b505afa15801561825b573d6000803e3d6000fd5b505050506040513d601f19601f8201168201806040525081019061827f91906193a8565b73ffffffffffffffffffffffffffffffffffffffff16145b1561835157600560009054906101000a900473ffffffffffffffffffffffffffffffffffffffff1673ffffffffffffffffffffffffffffffffffffffff1663a9678a18338989856040518563ffffffff1660e01b81526004016182fd949392919061a011565b602060405180830381600087803b15801561831757600080fd5b505af115801561832b573d6000803e3d6000fd5b505050506040513d601f19601f8201168201806040525081019061834f9190619800565b505b6000808473ffffffffffffffffffffffffffffffffffffffff168973ffffffffffffffffffffffffffffffffffffffff161461838f57826000618393565b6000835b91509150600060028f516183a7919061a6de565b8b106183b3578b618401565b8d60028c6183c1919061a5fd565b815181106183f8577f4e487b7100000000000000000000000000000000000000000000000000000000600052603260045260246000fd5b60200260200101515b90508d60018c618411919061a5fd565b81518110618448577f4e487b7100000000000000000000000000000000000000000000000000000000600052603260045260246000fd5b602002602001015173ffffffffffffffffffffffffffffffffffffffff1663022c0d9f848484600067ffffffffffffffff8111156184af577f4e487b7100000000000000000000000000000000000000000000000000000000600052604160045260246000fd5b6040519080825280601f01601f1916602001820160405280156184e15781602001600182028036833780820191505090505b506040518563ffffffff1660e01b8152600401618501949392919061a4ad565b600060405180830381600087803b15801561851b57600080fd5b505af115801561852f573d6000803e3d6000fd5b505050505050505050505050505080806185489061a829565b915050617ed2565b5050505050565b600061859983836040518060400160405280601e81526020017f536166654d6174683a207375627472616374696f6e206f766572666c6f770000815250619140565b905092915050565b60008084116185e5576040517f08c379a00000000000000000000000000000000000000000000000000000000081526004016185dc9061a309565b60405180910390fd5b6000831180156185f55750600082115b618634576040517f08c379a000000000000000000000000000000000000000000000000000000000815260040161862b9061a289565b60405180910390fd5b600061865d6103e861864f8787618c2890919063ffffffff16565b618c2890919063ffffffff16565b905060006186886103e561867a888761855790919063ffffffff16565b618c2890919063ffffffff16565b90506186a96001828461869b919061a653565b618ca390919063ffffffff16565b925050509392505050565b60008084116186f8576040517f08c379a00000000000000000000000000000000000000000000000000000000081526004016186ef9061a1e9565b60405180910390fd5b6000831180156187085750600082115b618747576040517f08c379a000000000000000000000000000000000000000000000000000000000815260040161873e9061a289565b60405180910390fd5b8261875b8386618c2890919063ffffffff16565b618765919061a653565b90509392505050565b61880481604051602401618782919061a147565b6040516020818303038152906040527f41304fac000000000000000000000000000000000000000000000000000000007bffffffffffffffffffffffffffffffffffffffffffffffffffffffff19166020820180517bffffffffffffffffffffffffffffffffffffffffffffffffffffffff83818316178352505050506191a4565b50565b6000808273ffffffffffffffffffffffffffffffffffffffff168473ffffffffffffffffffffffffffffffffffffffff161415618879576040517f08c379a00000000000000000000000000000000000000000000000000000000081526004016188709061a2c9565b60405180910390fd5b8273ffffffffffffffffffffffffffffffffffffffff168473ffffffffffffffffffffffffffffffffffffffff16106188b35782846188b6565b83835b8092508193505050600073ffffffffffffffffffffffffffffffffffffffff168273ffffffffffffffffffffffffffffffffffffffff16141561892e576040517f08c379a00000000000000000000000000000000000000000000000000000000081526004016189259061a1c9565b60405180910390fd5b9250929050565b600080600073ffffffffffffffffffffffffffffffffffffffff1660008054906101000a900473ffffffffffffffffffffffffffffffffffffffff1673ffffffffffffffffffffffffffffffffffffffff1663e6a439058a8a6040518363ffffffff1660e01b81526004016189ab929190619fe8565b60206040518083038186803b1580156189c357600080fd5b505afa1580156189d7573d6000803e3d6000fd5b505050506040513d601f19601f820116820180604052508101906189fb91906193a8565b73ffffffffffffffffffffffffffffffffffffffff161415618ac65760008054906101000a900473ffffffffffffffffffffffffffffffffffffffff1673ffffffffffffffffffffffffffffffffffffffff1663c9c6539689896040518363ffffffff1660e01b8152600401618a72929190619fe8565b602060405180830381600087803b158015618a8c57600080fd5b505af1158015618aa0573d6000803e3d6000fd5b505050506040513d601f19601f82011682018060405250810190618ac491906193a8565b505b600080618af460008054906101000a900473ffffffffffffffffffffffffffffffffffffffff168b8b618d01565b91509150600082148015618b085750600081145b15618b1c5787878094508195505050618c1b565b6000618b298984846186b4565b9050878111618b845785811015618b75576040517f08c379a0000000000000000000000000000000000000000000000000000000008152600401618b6c9061a229565b60405180910390fd5b88818095508196505050618c19565b6000618b918984866186b4565b905089811115618bca577f4e487b7100000000000000000000000000000000000000000000000000000000600052600160045260246000fd5b87811015618c0d576040517f08c379a0000000000000000000000000000000000000000000000000000000008152600401618c049061a1a9565b60405180910390fd5b80898096508197505050505b505b5050965096945050505050565b600080831415618c3b5760009050618c9d565b60008284618c49919061a684565b9050828482618c58919061a653565b14618c98576040517f08c379a0000000000000000000000000000000000000000000000000000000008152600401618c8f9061a349565b60405180910390fd5b809150505b92915050565b6000808284618cb2919061a5fd565b905083811015618cf7576040517f08c379a0000000000000000000000000000000000000000000000000000000008152600401618cee9061a209565b60405180910390fd5b8091505092915050565b6000806000618d108585618807565b509050618d1e868686616884565b50600080618d2d888888616884565b73ffffffffffffffffffffffffffffffffffffffff16630902f1ac6040518163ffffffff1660e01b815260040160606040518083038186803b158015618d7257600080fd5b505afa158015618d86573d6000803e3d6000fd5b505050506040513d601f19601f82011682018060405250810190618daa9190619829565b506dffffffffffffffffffffffffffff1691506dffffffffffffffffffffffffffff1691508273ffffffffffffffffffffffffffffffffffffffff168773ffffffffffffffffffffffffffffffffffffffff1614618e09578082618e0c565b81815b8095508196505050505050935093915050565b6000808511618e63576040517f08c379a0000000000000000000000000000000000000000000000000000000008152600401618e5a9061a3a9565b60405180910390fd5b600084118015618e735750600083115b618eb2576040517f08c379a0000000000000000000000000000000000000000000000000000000008152600401618ea99061a289565b60405180910390fd5b6000618ec78387618c2890919063ffffffff16565b90506000618ede8583618c2890919063ffffffff16565b90506000618f0983618efb6127108a618c2890919063ffffffff16565b618ca390919063ffffffff16565b90508082618f17919061a653565b9350505050949350505050565b6000808511618f68576040517f08c379a0000000000000000000000000000000000000000000000000000000008152600401618f5f9061a309565b60405180910390fd5b600084118015618f785750600083115b618fb7576040517f08c379a0000000000000000000000000000000000000000000000000000000008152600401618fae9061a289565b60405180910390fd5b6000618fe0612710618fd28888618c2890919063ffffffff16565b618c2890919063ffffffff16565b9050600061900984618ffb898861855790919063ffffffff16565b618c2890919063ffffffff16565b905061902a6001828461901c919061a653565b618ca390919063ffffffff16565b92505050949350505050565b60008060006190458585618807565b50809150506000808773ffffffffffffffffffffffffffffffffffffffff16630902f1ac6040518163ffffffff1660e01b815260040160606040518083038186803b15801561909357600080fd5b505afa1580156190a7573d6000803e3d6000fd5b505050506040513d601f19601f820116820180604052508101906190cb9190619829565b506dffffffffffffffffffffffffffff1691506dffffffffffffffffffffffffffff1691508273ffffffffffffffffffffffffffffffffffffffff168773ffffffffffffffffffffffffffffffffffffffff161461912a57808261912d565b81815b8095508196505050505093509350939050565b6000838311158290619188576040517f08c379a000000000000000000000000000000000000000000000000000000000815260040161917f919061a147565b60405180910390fd5b5060008385619197919061a6de565b9050809150509392505050565b60008151905060006a636f6e736f6c652e6c6f679050602083016000808483855afa5050505050565b60006191e06191db8461a555565b61a530565b905080838252602082019050828560208602820111156191ff57600080fd5b60005b8581101561922f57816192158882619239565b845260208401935060208301925050600181019050619202565b5050509392505050565b6000813590506192488161aed6565b92915050565b60008151905061925d8161aed6565b92915050565b60008083601f84011261927557600080fd5b8235905067ffffffffffffffff81111561928e57600080fd5b6020830191508360208202830111156192a657600080fd5b9250929050565b600082601f8301126192be57600080fd5b81356192ce8482602086016191cd565b91505092915050565b6000813590506192e68161aeed565b92915050565b6000815190506192fb8161aeed565b92915050565b6000813590506193108161af04565b92915050565b6000815190506193258161af1b565b92915050565b60008135905061933a8161af32565b92915050565b60008151905061934f8161af32565b92915050565b6000815190506193648161af49565b92915050565b6000813590506193798161af60565b92915050565b60006020828403121561939157600080fd5b600061939f84828501619239565b91505092915050565b6000602082840312156193ba57600080fd5b60006193c88482850161924e565b91505092915050565b600080600080600080600060e0888a0312156193ec57600080fd5b60006193fa8a828b01619239565b975050602061940b8a828b01619239565b965050604061941c8a828b0161932b565b955050606061942d8a828b0161932b565b945050608061943e8a828b0161932b565b93505060a061944f8a828b01619239565b92505060c06194608a828b0161932b565b91505092959891949750929550565b60008060008060008060008060008060006101608c8e03121561949157600080fd5b600061949f8e828f01619239565b9b505060206194b08e828f01619239565b9a505060406194c18e828f0161932b565b99505060606194d28e828f0161932b565b98505060806194e38e828f0161932b565b97505060a06194f48e828f01619239565b96505060c06195058e828f0161932b565b95505060e06195168e828f016192d7565b9450506101006195288e828f0161936a565b93505061012061953a8e828f01619301565b92505061014061954c8e828f01619301565b9150509295989b509295989b9093969950565b600080600080600080600080610100898b03121561957c57600080fd5b600061958a8b828c01619239565b985050602061959b8b828c01619239565b97505060406195ac8b828c0161932b565b96505060606195bd8b828c0161932b565b95505060806195ce8b828c0161932b565b94505060a06195df8b828c0161932b565b93505060c06195f08b828c01619239565b92505060e06196018b828c0161932b565b9150509295985092959890939650565b6000806040838503121561962457600080fd5b600061963285828601619239565b92505060206196438582860161932b565b9150509250929050565b60008060006060848603121561966257600080fd5b600061967086828701619239565b93505060206196818682870161932b565b925050604061969286828701619239565b9150509250925092565b60008060008060008060c087890312156196b557600080fd5b60006196c389828a01619239565b96505060206196d489828a0161932b565b95505060406196e589828a0161932b565b94505060606196f689828a0161932b565b935050608061970789828a01619239565b92505060a061971889828a0161932b565b9150509295509295509295565b6000806000806000806000806000806101408b8d03121561974557600080fd5b60006197538d828e01619239565b9a505060206197648d828e0161932b565b99505060406197758d828e0161932b565b98505060606197868d828e0161932b565b97505060806197978d828e01619239565b96505060a06197a88d828e0161932b565b95505060c06197b98d828e016192d7565b94505060e06197ca8d828e0161936a565b9350506101006197dc8d828e01619301565b9250506101206197ee8d828e01619301565b9150509295989b9194979a5092959850565b60006020828403121561981257600080fd5b6000619820848285016192ec565b91505092915050565b60008060006060848603121561983e57600080fd5b600061984c86828701619316565b935050602061985d86828701619316565b925050604061986e86828701619355565b9150509250925092565b60006020828403121561988a57600080fd5b60006198988482850161932b565b91505092915050565b6000602082840312156198b357600080fd5b60006198c184828501619340565b91505092915050565b6000806000606084860312156198df57600080fd5b60006198ed8682870161932b565b93505060206198fe86828701619239565b925050604061990f8682870161932b565b9150509250925092565b60008060008060006080868803121561993157600080fd5b600061993f8882890161932b565b955050602086013567ffffffffffffffff81111561995c57600080fd5b61996888828901619263565b9450945050604061997b88828901619239565b925050606061998c8882890161932b565b9150509295509295909350565b600080604083850312156199ac57600080fd5b60006199ba8582860161932b565b925050602083013567ffffffffffffffff8111156199d757600080fd5b6199e3858286016192ad565b9150509250929050565b60008060408385031215619a0057600080fd5b6000619a0e85828601619340565b9250506020619a1f85828601619340565b9150509250929050565b60008060008060008060a08789031215619a4257600080fd5b6000619a5089828a0161932b565b9650506020619a6189828a0161932b565b955050604087013567ffffffffffffffff811115619a7e57600080fd5b619a8a89828a01619263565b94509450506060619a9d89828a01619239565b9250506080619aae89828a0161932b565b9150509295509295509295565b600080600060608486031215619ad057600080fd5b6000619ade8682870161932b565b9350506020619aef8682870161932b565b9250506040619b008682870161932b565b9150509250925092565b6000619b168383619f89565b60208301905092915050565b619b2b8161a712565b82525050565b6000619b3c8261a591565b619b46818561a5bf565b9350619b518361a581565b8060005b83811015619b82578151619b698882619b0a565b9750619b748361a5b2565b925050600181019050619b55565b5085935050505092915050565b619b988161a730565b82525050565b6000619ba98261a59c565b619bb3818561a5d0565b9350619bc381856020860161a79b565b619bcc8161a8ff565b840191505092915050565b6000619be28261a59c565b619bec818561a5e1565b9350619bfc81856020860161a79b565b80840191505092915050565b6000619c138261a5a7565b619c1d818561a5ec565b9350619c2d81856020860161a79b565b619c368161a8ff565b840191505092915050565b6000619c4e601a8361a5ec565b9150619c598261a910565b602082019050919050565b6000619c71601f8361a5ec565b9150619c7c8261a939565b602082019050919050565b6000619c9460228361a5ec565b9150619c9f8261a962565b604082019050919050565b6000619cb7601a8361a5ec565b9150619cc28261a9b1565b602082019050919050565b6000619cda60218361a5ec565b9150619ce58261a9da565b604082019050919050565b6000619cfd601b8361a5ec565b9150619d088261aa29565b602082019050919050565b6000619d2060228361a5ec565b9150619d2b8261aa52565b604082019050919050565b6000619d43600b8361a5ec565b9150619d4e8261aaa1565b602082019050919050565b6000619d66600b8361a5ec565b9150619d718261aaca565b602082019050919050565b6000619d8960248361a5ec565b9150619d948261aaf3565b604082019050919050565b6000619dac602e8361a5ec565b9150619db78261ab42565b604082019050919050565b6000619dcf60218361a5ec565b9150619dda8261ab91565b604082019050919050565b6000619df260238361a5ec565b9150619dfd8261abe0565b604082019050919050565b6000619e1560288361a5ec565b9150619e208261ac2f565b604082019050919050565b6000619e3860278361a5ec565b9150619e438261ac7e565b604082019050919050565b6000619e5b60218361a5ec565b9150619e668261accd565b604082019050919050565b6000619e7e60208361a5ec565b9150619e898261ad1c565b602082019050919050565b6000619ea160158361a5ec565b9150619eac8261ad45565b602082019050919050565b6000619ec460278361a5ec565b9150619ecf8261ad6e565b604082019050919050565b6000619ee7601c8361a5ec565b9150619ef28261adbd565b602082019050919050565b6000619f0a60198361a5ec565b9150619f158261ade6565b602082019050919050565b6000619f2d60238361a5ec565b9150619f388261ae0f565b604082019050919050565b6000619f5060248361a5ec565b9150619f5b8261ae5e565b604082019050919050565b6000619f73601d8361a5ec565b9150619f7e8261aead565b602082019050919050565b619f928161a774565b82525050565b619fa18161a774565b82525050565b619fb08161a78e565b82525050565b6000619fc28284619bd7565b915081905092915050565b6000602082019050619fe26000830184619b22565b92915050565b6000604082019050619ffd6000830185619b22565b61a00a6020830184619b22565b9392505050565b600060808201905061a0266000830187619b22565b61a0336020830186619b22565b61a0406040830185619b22565b61a04d6060830184619f98565b95945050505050565b600060608201905061a06b6000830186619b22565b61a0786020830185619b22565b61a0856040830184619f98565b949350505050565b600060e08201905061a0a2600083018a619b22565b61a0af6020830189619b22565b61a0bc6040830188619f98565b61a0c96060830187619f98565b61a0d66080830186619fa7565b61a0e360a0830185619b8f565b61a0f060c0830184619b8f565b98975050505050505050565b600060408201905061a1116000830185619b22565b61a11e6020830184619f98565b9392505050565b6000602082019050818103600083015261a13f8184619b31565b905092915050565b6000602082019050818103600083015261a1618184619c08565b905092915050565b6000602082019050818103600083015261a18281619c41565b9050919050565b6000602082019050818103600083015261a1a281619c64565b9050919050565b6000602082019050818103600083015261a1c281619c87565b9050919050565b6000602082019050818103600083015261a1e281619caa565b9050919050565b6000602082019050818103600083015261a20281619ccd565b9050919050565b6000602082019050818103600083015261a22281619cf0565b9050919050565b6000602082019050818103600083015261a24281619d13565b9050919050565b6000602082019050818103600083015261a26281619d36565b9050919050565b6000602082019050818103600083015261a28281619d59565b9050919050565b6000602082019050818103600083015261a2a281619d7c565b9050919050565b6000602082019050818103600083015261a2c281619d9f565b9050919050565b6000602082019050818103600083015261a2e281619dc2565b9050919050565b6000602082019050818103600083015261a30281619de5565b9050919050565b6000602082019050818103600083015261a32281619e08565b9050919050565b6000602082019050818103600083015261a34281619e2b565b9050919050565b6000602082019050818103600083015261a36281619e4e565b9050919050565b6000602082019050818103600083015261a38281619e71565b9050919050565b6000602082019050818103600083015261a3a281619e94565b9050919050565b6000602082019050818103600083015261a3c281619eb7565b9050919050565b6000602082019050818103600083015261a3e281619eda565b9050919050565b6000602082019050818103600083015261a40281619efd565b9050919050565b6000602082019050818103600083015261a42281619f20565b9050919050565b6000602082019050818103600083015261a44281619f43565b9050919050565b6000602082019050818103600083015261a46281619f66565b9050919050565b600060208201905061a47e6000830184619f98565b92915050565b600060408201905061a4996000830185619f98565b61a4a66020830184619f98565b9392505050565b600060808201905061a4c26000830187619f98565b61a4cf6020830186619f98565b61a4dc6040830185619b22565b818103606083015261a4ee8184619b9e565b905095945050505050565b600060608201905061a50e6000830186619f98565b61a51b6020830185619f98565b61a5286040830184619f98565b949350505050565b600061a53a61a54b565b905061a546828261a7f8565b919050565b6000604051905090565b600067ffffffffffffffff82111561a5705761a56f61a8d0565b5b602082029050602081019050919050565b6000819050602082019050919050565b600081519050919050565b600081519050919050565b600081519050919050565b6000602082019050919050565b600082825260208201905092915050565b600082825260208201905092915050565b600081905092915050565b600082825260208201905092915050565b600061a6088261a774565b915061a6138361a774565b9250827fffffffffffffffffffffffffffffffffffffffffffffffffffffffffffffffff0382111561a6485761a64761a872565b5b828201905092915050565b600061a65e8261a774565b915061a6698361a774565b92508261a6795761a67861a8a1565b5b828204905092915050565b600061a68f8261a774565b915061a69a8361a774565b9250817fffffffffffffffffffffffffffffffffffffffffffffffffffffffffffffffff048311821515161561a6d35761a6d261a872565b5b828202905092915050565b600061a6e98261a774565b915061a6f48361a774565b92508282101561a7075761a70661a872565b5b828203905092915050565b600061a71d8261a754565b9050919050565b60008115159050919050565b6000819050919050565b60006dffffffffffffffffffffffffffff82169050919050565b600073ffffffffffffffffffffffffffffffffffffffff82169050919050565b6000819050919050565b600063ffffffff82169050919050565b600060ff82169050919050565b60005b8381101561a7b957808201518184015260208101905061a79e565b8381111561a7c8576000848401525b50505050565b600061a7d98261a774565b9150600082141561a7ed5761a7ec61a872565b5b600182039050919050565b61a8018261a8ff565b810181811067ffffffffffffffff8211171561a8205761a81f61a8d0565b5b80604052505050565b600061a8348261a774565b91507fffffffffffffffffffffffffffffffffffffffffffffffffffffffffffffffff82141561a8675761a86661a872565b5b600182019050919050565b7f4e487b7100000000000000000000000000000000000000000000000000000000600052601160045260246000fd5b7f4e487b7100000000000000000000000000000000000000000000000000000000600052601260045260246000fd5b7f4e487b7100000000000000000000000000000000000000000000000000000000600052604160045260246000fd5b6000601f19601f8301169050919050565b7f436169726f4c6962726172793a20494e56414c49445f50415448000000000000600082015250565b7f5472616e7366657248656c7065723a205452414e534645525f4641494c454400600082015250565b7f436169726f526f757465723a20494e53554646494349454e545f415f414d4f5560008201527f4e54000000000000000000000000000000000000000000000000000000000000602082015250565b7f436169726f4c6962726172793a205a45524f5f41444452455353000000000000600082015250565b7f436169726f4c6962726172793a20494e53554646494349454e545f414d4f554e60008201527f5400000000000000000000000000000000000000000000000000000000000000602082015250565b7f536166654d6174683a206164646974696f6e206f766572666c6f770000000000600082015250565b7f436169726f526f757465723a20494e53554646494349454e545f425f414d4f5560008201527f4e54000000000000000000000000000000000000000000000000000000000000602082015250565b7f696c6c6567616c20696478000000000000000000000000000000000000000000600082015250565b7f436169726f526f75746572000000000000000000000000000000000000000000600082015250565b7f436169726f4c6962726172793a20494e53554646494349454e545f4c4951554960008201527f4449545900000000000000000000000000000000000000000000000000000000602082015250565b7f496e697469616c697a61626c653a20636f6e747261637420697320616c72656160008201527f647920696e697469616c697a6564000000000000000000000000000000000000602082015250565b7f436169726f4c6962726172793a204944454e544943414c5f414444524553534560008201527f5300000000000000000000000000000000000000000000000000000000000000602082015250565b7f436169726f526f757465723a204558434553534956455f494e5055545f414d4f60008201527f554e540000000000000000000000000000000000000000000000000000000000602082015250565b7f436169726f4c6962726172793a20494e53554646494349454e545f4f5554505560008201527f545f414d4f554e54000000000000000000000000000000000000000000000000602082015250565b7f436169726f526f757465723a20494e53554646494349454e545f4f555450555460008201527f5f414d4f554e5400000000000000000000000000000000000000000000000000602082015250565b7f536166654d6174683a206d756c7469706c69636174696f6e206f766572666c6f60008201527f7700000000000000000000000000000000000000000000000000000000000000602082015250565b7f4f776e61626c653a2063616c6c6572206973206e6f7420746865206f776e6572600082015250565b7f696e64657820302063616e6e6f74206265207365740000000000000000000000600082015250565b7f436169726f4c6962726172793a20494e53554646494349454e545f494e50555460008201527f5f414d4f554e5400000000000000000000000000000000000000000000000000602082015250565b7f436169726f4c6962726172793a20494e56414c49445f414d4f554e5400000000600082015250565b7f436169726f526f757465723a20494e56414c49445f5041544800000000000000600082015250565b7f5472616e7366657248656c7065723a204554485f5452414e534645525f46414960008201527f4c45440000000000000000000000000000000000000000000000000000000000602082015250565b7f5472616e7366657248656c7065723a205452414e534645525f46524f4d5f464160008201527f494c454400000000000000000000000000000000000000000000000000000000602082015250565b7f436169726f4c6962726172793a20494e56414c49445f464143544f5259000000600082015250565b61aedf8161a712565b811461aeea57600080fd5b50565b61aef68161a724565b811461af0157600080fd5b50565b61af0d8161a730565b811461af1857600080fd5b50565b61af248161a73a565b811461af2f57600080fd5b50565b61af3b8161a774565b811461af4657600080fd5b50565b61af528161a77e565b811461af5d57600080fd5b50565b61af698161a78e565b811461af7457600080fd5b5056fea2646970667358221220050dc1bdc8228b8e0c734a387f7366562546fbe087a6989c683e4a411edf7b8164736f6c63430008040033",
  "linkReferences": {},
  "deployedLinkReferences": {}
}