{
  "_format": "hh-sol-artifact-1",
  "contractName": "CairoRouter",
  "sourceName": "contracts/router/CairoRouter.sol",
  "abi": [
    {
      "inputs": [],
      "name": "WETH",
      "outputs": [
        {
          "internalType": "address",
          "name": "",
          "type": "address"
        }
      ],
      "stateMutability": "view",
      "type": "function"
    },
    {
      "inputs": [
        {
          "internalType": "address",
          "name": "tokenA",
          "type": "address"
        },
        {
          "internalType": "address",
          "name": "tokenB",
          "type": "address"
        },
        {
          "internalType": "uint256",
          "name": "amountADesired",
          "type": "uint256"
        },
        {
          "internalType": "uint256",
          "name": "amountBDesired",
          "type": "uint256"
        },
        {
          "internalType": "uint256",
          "name": "amountAMin",
          "type": "uint256"
        },
        {
          "internalType": "uint256",
          "name": "amountBMin",
          "type": "uint256"
        },
        {
          "internalType": "address",
          "name": "to",
          "type": "address"
        },
        {
          "internalType": "uint256",
          "name": "deadline",
          "type": "uint256"
        }
      ],
      "name": "addLiquidity",
      "outputs": [
        {
          "internalType": "uint256",
          "name": "amountA",
          "type": "uint256"
        },
        {
          "internalType": "uint256",
          "name": "amountB",
          "type": "uint256"
        },
        {
          "internalType": "uint256",
          "name": "liquidity",
          "type": "uint256"
        }
      ],
      "stateMutability": "nonpayable",
      "type": "function"
    },
    {
      "inputs": [
        {
          "internalType": "address",
          "name": "token",
          "type": "address"
        },
        {
          "internalType": "uint256",
          "name": "amountTokenDesired",
          "type": "uint256"
        },
        {
          "internalType": "uint256",
          "name": "amountTokenMin",
          "type": "uint256"
        },
        {
          "internalType": "uint256",
          "name": "amountETHMin",
          "type": "uint256"
        },
        {
          "internalType": "address",
          "name": "to",
          "type": "address"
        },
        {
          "internalType": "uint256",
          "name": "deadline",
          "type": "uint256"
        }
      ],
      "name": "addLiquidityETH",
      "outputs": [
        {
          "internalType": "uint256",
          "name": "amountToken",
          "type": "uint256"
        },
        {
          "internalType": "uint256",
          "name": "amountETH",
          "type": "uint256"
        },
        {
          "internalType": "uint256",
          "name": "liquidity",
          "type": "uint256"
        }
      ],
      "stateMutability": "payable",
      "type": "function"
    },
    {
      "inputs": [
        {
          "internalType": "uint256",
          "name": "_id",
          "type": "uint256"
        }
      ],
      "name": "delFactoryAndFee",
      "outputs": [],
      "stateMutability": "nonpayable",
      "type": "function"
    },
    {
      "inputs": [
        {
          "internalType": "uint256",
          "name": "",
          "type": "uint256"
        }
      ],
      "name": "factories",
      "outputs": [
        {
          "internalType": "address",
          "name": "",
          "type": "address"
        }
      ],
      "stateMutability": "view",
      "type": "function"
    },
    {
      "inputs": [],
      "name": "factory",
      "outputs": [
        {
          "internalType": "address",
          "name": "",
          "type": "address"
        }
      ],
      "stateMutability": "view",
      "type": "function"
    },
    {
      "inputs": [
        {
          "internalType": "uint256",
          "name": "",
          "type": "uint256"
        }
      ],
      "name": "fees",
      "outputs": [
        {
          "internalType": "uint256",
          "name": "",
          "type": "uint256"
        }
      ],
      "stateMutability": "view",
      "type": "function"
    },
    {
      "inputs": [
        {
          "internalType": "uint256",
          "name": "amountOut",
          "type": "uint256"
        },
        {
          "internalType": "uint256",
          "name": "reserveIn",
          "type": "uint256"
        },
        {
          "internalType": "uint256",
          "name": "reserveOut",
          "type": "uint256"
        }
      ],
      "name": "getAmountIn",
      "outputs": [
        {
          "internalType": "uint256",
          "name": "amountIn",
          "type": "uint256"
        }
      ],
      "stateMutability": "pure",
      "type": "function"
    },
    {
      "inputs": [
        {
          "internalType": "uint256",
          "name": "amountIn",
          "type": "uint256"
        },
        {
          "internalType": "uint256",
          "name": "reserveIn",
          "type": "uint256"
        },
        {
          "internalType": "uint256",
          "name": "reserveOut",
          "type": "uint256"
        }
      ],
      "name": "getAmountOut",
      "outputs": [
        {
          "internalType": "uint256",
          "name": "amountOut",
          "type": "uint256"
        }
      ],
      "stateMutability": "pure",
      "type": "function"
    },
    {
      "inputs": [
        {
          "internalType": "uint256",
          "name": "amountOut",
          "type": "uint256"
        },
        {
          "internalType": "address[]",
          "name": "path",
          "type": "address[]"
        }
      ],
      "name": "getAmountsIn",
      "outputs": [
        {
          "internalType": "uint256[]",
          "name": "amounts",
          "type": "uint256[]"
        }
      ],
      "stateMutability": "view",
      "type": "function"
    },
    {
      "inputs": [
        {
          "internalType": "uint256",
          "name": "amountIn",
          "type": "uint256"
        },
        {
          "internalType": "address[]",
          "name": "path",
          "type": "address[]"
        }
      ],
      "name": "getAmountsOut",
      "outputs": [
        {
          "internalType": "uint256[]",
          "name": "amounts",
          "type": "uint256[]"
        }
      ],
      "stateMutability": "view",
      "type": "function"
    },
    {
      "inputs": [
        {
          "internalType": "address",
          "name": "_factory",
          "type": "address"
        },
        {
          "internalType": "uint256",
          "name": "_fee",
          "type": "uint256"
        },
        {
          "internalType": "address",
          "name": "_WETH",
          "type": "address"
        }
      ],
      "name": "initialize",
      "outputs": [],
      "stateMutability": "nonpayable",
      "type": "function"
    },
    {
      "inputs": [],
      "name": "owner",
      "outputs": [
        {
          "internalType": "address",
          "name": "",
          "type": "address"
        }
      ],
      "stateMutability": "view",
      "type": "function"
    },
    {
      "inputs": [
        {
          "internalType": "uint256",
          "name": "amountA",
          "type": "uint256"
        },
        {
          "internalType": "uint256",
          "name": "reserveA",
          "type": "uint256"
        },
        {
          "internalType": "uint256",
          "name": "reserveB",
          "type": "uint256"
        }
      ],
      "name": "quote",
      "outputs": [
        {
          "internalType": "uint256",
          "name": "amountB",
          "type": "uint256"
        }
      ],
      "stateMutability": "pure",
      "type": "function"
    },
    {
      "inputs": [
        {
          "internalType": "address",
          "name": "tokenA",
          "type": "address"
        },
        {
          "internalType": "address",
          "name": "tokenB",
          "type": "address"
        },
        {
          "internalType": "uint256",
          "name": "liquidity",
          "type": "uint256"
        },
        {
          "internalType": "uint256",
          "name": "amountAMin",
          "type": "uint256"
        },
        {
          "internalType": "uint256",
          "name": "amountBMin",
          "type": "uint256"
        },
        {
          "internalType": "address",
          "name": "to",
          "type": "address"
        },
        {
          "internalType": "uint256",
          "name": "deadline",
          "type": "uint256"
        }
      ],
      "name": "removeLiquidity",
      "outputs": [
        {
          "internalType": "uint256",
          "name": "amountA",
          "type": "uint256"
        },
        {
          "internalType": "uint256",
          "name": "amountB",
          "type": "uint256"
        }
      ],
      "stateMutability": "nonpayable",
      "type": "function"
    },
    {
      "inputs": [
        {
          "internalType": "address",
          "name": "token",
          "type": "address"
        },
        {
          "internalType": "uint256",
          "name": "liquidity",
          "type": "uint256"
        },
        {
          "internalType": "uint256",
          "name": "amountTokenMin",
          "type": "uint256"
        },
        {
          "internalType": "uint256",
          "name": "amountETHMin",
          "type": "uint256"
        },
        {
          "internalType": "address",
          "name": "to",
          "type": "address"
        },
        {
          "internalType": "uint256",
          "name": "deadline",
          "type": "uint256"
        }
      ],
      "name": "removeLiquidityETH",
      "outputs": [
        {
          "internalType": "uint256",
          "name": "amountToken",
          "type": "uint256"
        },
        {
          "internalType": "uint256",
          "name": "amountETH",
          "type": "uint256"
        }
      ],
      "stateMutability": "nonpayable",
      "type": "function"
    },
    {
      "inputs": [
        {
          "internalType": "address",
          "name": "token",
          "type": "address"
        },
        {
          "internalType": "uint256",
          "name": "liquidity",
          "type": "uint256"
        },
        {
          "internalType": "uint256",
          "name": "amountTokenMin",
          "type": "uint256"
        },
        {
          "internalType": "uint256",
          "name": "amountETHMin",
          "type": "uint256"
        },
        {
          "internalType": "address",
          "name": "to",
          "type": "address"
        },
        {
          "internalType": "uint256",
          "name": "deadline",
          "type": "uint256"
        }
      ],
      "name": "removeLiquidityETHSupportingFeeOnTransferTokens",
      "outputs": [
        {
          "internalType": "uint256",
          "name": "amountETH",
          "type": "uint256"
        }
      ],
      "stateMutability": "nonpayable",
      "type": "function"
    },
    {
      "inputs": [
        {
          "internalType": "address",
          "name": "token",
          "type": "address"
        },
        {
          "internalType": "uint256",
          "name": "liquidity",
          "type": "uint256"
        },
        {
          "internalType": "uint256",
          "name": "amountTokenMin",
          "type": "uint256"
        },
        {
          "internalType": "uint256",
          "name": "amountETHMin",
          "type": "uint256"
        },
        {
          "internalType": "address",
          "name": "to",
          "type": "address"
        },
        {
          "internalType": "uint256",
          "name": "deadline",
          "type": "uint256"
        },
        {
          "internalType": "bool",
          "name": "approveMax",
          "type": "bool"
        },
        {
          "internalType": "uint8",
          "name": "v",
          "type": "uint8"
        },
        {
          "internalType": "bytes32",
          "name": "r",
          "type": "bytes32"
        },
        {
          "internalType": "bytes32",
          "name": "s",
          "type": "bytes32"
        }
      ],
      "name": "removeLiquidityETHWithPermit",
      "outputs": [
        {
          "internalType": "uint256",
          "name": "amountToken",
          "type": "uint256"
        },
        {
          "internalType": "uint256",
          "name": "amountETH",
          "type": "uint256"
        }
      ],
      "stateMutability": "nonpayable",
      "type": "function"
    },
    {
      "inputs": [
        {
          "internalType": "address",
          "name": "token",
          "type": "address"
        },
        {
          "internalType": "uint256",
          "name": "liquidity",
          "type": "uint256"
        },
        {
          "internalType": "uint256",
          "name": "amountTokenMin",
          "type": "uint256"
        },
        {
          "internalType": "uint256",
          "name": "amountETHMin",
          "type": "uint256"
        },
        {
          "internalType": "address",
          "name": "to",
          "type": "address"
        },
        {
          "internalType": "uint256",
          "name": "deadline",
          "type": "uint256"
        },
        {
          "internalType": "bool",
          "name": "approveMax",
          "type": "bool"
        },
        {
          "internalType": "uint8",
          "name": "v",
          "type": "uint8"
        },
        {
          "internalType": "bytes32",
          "name": "r",
          "type": "bytes32"
        },
        {
          "internalType": "bytes32",
          "name": "s",
          "type": "bytes32"
        }
      ],
      "name": "removeLiquidityETHWithPermitSupportingFeeOnTransferTokens",
      "outputs": [
        {
          "internalType": "uint256",
          "name": "amountETH",
          "type": "uint256"
        }
      ],
      "stateMutability": "nonpayable",
      "type": "function"
    },
    {
      "inputs": [
        {
          "internalType": "address",
          "name": "tokenA",
          "type": "address"
        },
        {
          "internalType": "address",
          "name": "tokenB",
          "type": "address"
        },
        {
          "internalType": "uint256",
          "name": "liquidity",
          "type": "uint256"
        },
        {
          "internalType": "uint256",
          "name": "amountAMin",
          "type": "uint256"
        },
        {
          "internalType": "uint256",
          "name": "amountBMin",
          "type": "uint256"
        },
        {
          "internalType": "address",
          "name": "to",
          "type": "address"
        },
        {
          "internalType": "uint256",
          "name": "deadline",
          "type": "uint256"
        },
        {
          "internalType": "bool",
          "name": "approveMax",
          "type": "bool"
        },
        {
          "internalType": "uint8",
          "name": "v",
          "type": "uint8"
        },
        {
          "internalType": "bytes32",
          "name": "r",
          "type": "bytes32"
        },
        {
          "internalType": "bytes32",
          "name": "s",
          "type": "bytes32"
        }
      ],
      "name": "removeLiquidityWithPermit",
      "outputs": [
        {
          "internalType": "uint256",
          "name": "amountA",
          "type": "uint256"
        },
        {
          "internalType": "uint256",
          "name": "amountB",
          "type": "uint256"
        }
      ],
      "stateMutability": "nonpayable",
      "type": "function"
    },
    {
      "inputs": [
        {
          "internalType": "uint256",
          "name": "_id",
          "type": "uint256"
        },
        {
          "internalType": "address",
          "name": "_factory",
          "type": "address"
        },
        {
          "internalType": "uint256",
          "name": "_fee",
          "type": "uint256"
        }
      ],
      "name": "setFactoryAndFee",
      "outputs": [],
      "stateMutability": "nonpayable",
      "type": "function"
    },
    {
      "inputs": [
        {
          "internalType": "address",
          "name": "_swapMininng",
          "type": "address"
        }
      ],
      "name": "setSwapMining",
      "outputs": [],
      "stateMutability": "nonpayable",
      "type": "function"
    },
    {
      "inputs": [
        {
          "internalType": "address",
          "name": "_token",
          "type": "address"
        },
        {
          "internalType": "uint256",
          "name": "_amount",
          "type": "uint256"
        }
      ],
      "name": "setTokenMinAmount",
      "outputs": [],
      "stateMutability": "nonpayable",
      "type": "function"
    },
    {
      "inputs": [
        {
          "internalType": "uint256",
          "name": "amountOut",
          "type": "uint256"
        },
        {
          "internalType": "address[]",
          "name": "path",
          "type": "address[]"
        },
        {
          "internalType": "address",
          "name": "to",
          "type": "address"
        },
        {
          "internalType": "uint256",
          "name": "deadline",
          "type": "uint256"
        }
      ],
      "name": "swapETHForExactTokens",
      "outputs": [
        {
          "internalType": "uint256[]",
          "name": "amounts",
          "type": "uint256[]"
        }
      ],
      "stateMutability": "payable",
      "type": "function"
    },
    {
      "inputs": [
        {
          "internalType": "uint256",
          "name": "amountOutMin",
          "type": "uint256"
        },
        {
          "internalType": "address[]",
          "name": "path",
          "type": "address[]"
        },
        {
          "internalType": "address",
          "name": "to",
          "type": "address"
        },
        {
          "internalType": "uint256",
          "name": "deadline",
          "type": "uint256"
        }
      ],
      "name": "swapExactETHForTokens",
      "outputs": [
        {
          "internalType": "uint256[]",
          "name": "amounts",
          "type": "uint256[]"
        }
      ],
      "stateMutability": "payable",
      "type": "function"
    },
    {
      "inputs": [
        {
          "internalType": "uint256",
          "name": "amountOutMin",
          "type": "uint256"
        },
        {
          "internalType": "address[]",
          "name": "path",
          "type": "address[]"
        },
        {
          "internalType": "address",
          "name": "to",
          "type": "address"
        },
        {
          "internalType": "uint256",
          "name": "deadline",
          "type": "uint256"
        }
      ],
      "name": "swapExactETHForTokensSupportingFeeOnTransferTokens",
      "outputs": [],
      "stateMutability": "payable",
      "type": "function"
    },
    {
      "inputs": [
        {
          "internalType": "uint256",
          "name": "amountIn",
          "type": "uint256"
        },
        {
          "internalType": "uint256",
          "name": "amountOutMin",
          "type": "uint256"
        },
        {
          "internalType": "address[]",
          "name": "path",
          "type": "address[]"
        },
        {
          "internalType": "address",
          "name": "to",
          "type": "address"
        },
        {
          "internalType": "uint256",
          "name": "deadline",
          "type": "uint256"
        }
      ],
      "name": "swapExactTokensForETH",
      "outputs": [
        {
          "internalType": "uint256[]",
          "name": "amounts",
          "type": "uint256[]"
        }
      ],
      "stateMutability": "nonpayable",
      "type": "function"
    },
    {
      "inputs": [
        {
          "internalType": "uint256",
          "name": "amountIn",
          "type": "uint256"
        },
        {
          "internalType": "uint256",
          "name": "amountOutMin",
          "type": "uint256"
        },
        {
          "internalType": "address[]",
          "name": "path",
          "type": "address[]"
        },
        {
          "internalType": "address",
          "name": "to",
          "type": "address"
        },
        {
          "internalType": "uint256",
          "name": "deadline",
          "type": "uint256"
        }
      ],
      "name": "swapExactTokensForETHSupportingFeeOnTransferTokens",
      "outputs": [],
      "stateMutability": "nonpayable",
      "type": "function"
    },
    {
      "inputs": [
        {
          "internalType": "uint256",
          "name": "amountIn",
          "type": "uint256"
        },
        {
          "internalType": "uint256",
          "name": "amountOutMin",
          "type": "uint256"
        },
        {
          "internalType": "address[]",
          "name": "path",
          "type": "address[]"
        },
        {
          "internalType": "address",
          "name": "to",
          "type": "address"
        },
        {
          "internalType": "uint256",
          "name": "deadline",
          "type": "uint256"
        }
      ],
      "name": "swapExactTokensForTokens",
      "outputs": [
        {
          "internalType": "uint256[]",
          "name": "amounts",
          "type": "uint256[]"
        }
      ],
      "stateMutability": "nonpayable",
      "type": "function"
    },
    {
      "inputs": [
        {
          "internalType": "uint256",
          "name": "amountIn",
          "type": "uint256"
        },
        {
          "internalType": "uint256",
          "name": "amountOutMin",
          "type": "uint256"
        },
        {
          "internalType": "address[]",
          "name": "path",
          "type": "address[]"
        },
        {
          "internalType": "address",
          "name": "to",
          "type": "address"
        },
        {
          "internalType": "uint256",
          "name": "deadline",
          "type": "uint256"
        }
      ],
      "name": "swapExactTokensForTokensSupportingFeeOnTransferTokens",
      "outputs": [],
      "stateMutability": "nonpayable",
      "type": "function"
    },
    {
      "inputs": [],
      "name": "swapMining",
      "outputs": [
        {
          "internalType": "address",
          "name": "",
          "type": "address"
        }
      ],
      "stateMutability": "view",
      "type": "function"
    },
    {
      "inputs": [
        {
          "internalType": "uint256",
          "name": "amountOut",
          "type": "uint256"
        },
        {
          "internalType": "uint256",
          "name": "amountInMax",
          "type": "uint256"
        },
        {
          "internalType": "address[]",
          "name": "path",
          "type": "address[]"
        },
        {
          "internalType": "address",
          "name": "to",
          "type": "address"
        },
        {
          "internalType": "uint256",
          "name": "deadline",
          "type": "uint256"
        }
      ],
      "name": "swapTokensForExactETH",
      "outputs": [
        {
          "internalType": "uint256[]",
          "name": "amounts",
          "type": "uint256[]"
        }
      ],
      "stateMutability": "nonpayable",
      "type": "function"
    },
    {
      "inputs": [
        {
          "internalType": "uint256",
          "name": "amountOut",
          "type": "uint256"
        },
        {
          "internalType": "uint256",
          "name": "amountInMax",
          "type": "uint256"
        },
        {
          "internalType": "address[]",
          "name": "path",
          "type": "address[]"
        },
        {
          "internalType": "address",
          "name": "to",
          "type": "address"
        },
        {
          "internalType": "uint256",
          "name": "deadline",
          "type": "uint256"
        }
      ],
      "name": "swapTokensForExactTokens",
      "outputs": [
        {
          "internalType": "uint256[]",
          "name": "amounts",
          "type": "uint256[]"
        }
      ],
      "stateMutability": "nonpayable",
      "type": "function"
    },
    {
      "inputs": [
        {
          "internalType": "address",
          "name": "",
          "type": "address"
        }
      ],
      "name": "tokenMinAmount",
      "outputs": [
        {
          "internalType": "uint256",
          "name": "",
          "type": "uint256"
        }
      ],
      "stateMutability": "view",
      "type": "function"
    },
    {
      "stateMutability": "payable",
      "type": "receive"
    }
  ],
  "bytecode": "0x608060405234801561001057600080fd5b5061691680620000216000396000f3fe60806040526004361061018d5760003560e01c806302751cec146101c1578063054d50d4146101fb57806318cbafe5146102295780631a65bf7b146102565780631f00ca74146102765780632195995c1461029657806323a5199c146102b657806338ed1739146102d65780634a25d94a146102f65780634acc79ed146103165780634dae755c146103365780634e5eda11146103635780634f887183146103905780635b0d5984146103b05780635c11d795146103d0578063672383c4146103f0578063791ac947146104105780637ff36ab51461043057806385f8c259146104435780638803dbee146104635780638da5cb5b14610483578063abaa93a014610498578063ad5c4648146104b8578063ad615dec146104d8578063af2979eb146104f8578063b6f9de9514610518578063baa2abde1461052b578063c350a1b51461054b578063c45a01551461056b578063d06ca61f1461058b578063ded9382a146105ab578063e8e33700146105cb578063f305d71914610606578063fb3bdb411461061957600080fd5b366101bc576004546001600160a01b031633146101ba57634e487b7160e01b600052600160045260246000fd5b005b600080fd5b3480156101cd57600080fd5b506101e16101dc366004615ef9565b61062c565b604080519283526020830191909152015b60405180910390f35b34801561020757600080fd5b5061021b61021636600461627a565b6106f7565b6040519081526020016101f2565b34801561023557600080fd5b5061024961024436600461620a565b61070c565b6040516101f291906163c3565b34801561026257600080fd5b506101ba610271366004615e8d565b610c0a565b34801561028257600080fd5b50610249610291366004616115565b610c55565b3480156102a257600080fd5b506101e16102b1366004615d69565b610e03565b3480156102c257600080fd5b506101ba6102d136600461607a565b610ec8565b3480156102e257600080fd5b506102496102f136600461620a565b61103a565b34801561030257600080fd5b5061024961031136600461620a565b6112fc565b34801561032257600080fd5b5061021b61033136600461604a565b611629565b34801561034257600080fd5b5061021b610351366004615cc0565b60036020526000908152604090205481565b34801561036f57600080fd5b50600554610383906001600160a01b031681565b6040516101f291906162ed565b34801561039c57600080fd5b506101ba6103ab366004615cc0565b61164a565b3480156103bc57600080fd5b5061021b6103cb366004615f56565b61169b565b3480156103dc57600080fd5b506101ba6103eb36600461620a565b61175b565b3480156103fc57600080fd5b5061038361040b36600461604a565b611a88565b34801561041c57600080fd5b506101ba61042b36600461620a565b611ab2565b61024961043e3660046160b1565b611d68565b34801561044f57600080fd5b5061021b61045e36600461627a565b61224a565b34801561046f57600080fd5b5061024961047e36600461620a565b612257565b34801561048f57600080fd5b506103836124a9565b3480156104a457600080fd5b506101ba6104b336600461604a565b6124b8565b3480156104c457600080fd5b50600454610383906001600160a01b031681565b3480156104e457600080fd5b5061021b6104f336600461627a565b612619565b34801561050457600080fd5b5061021b610513366004615ef9565b612626565b6101ba6105263660046160b1565b612763565b34801561053757600080fd5b506101e1610546366004615cf8565b612b39565b34801561055757600080fd5b506101ba610566366004615eb8565b612d3e565b34801561057757600080fd5b50600054610383906001600160a01b031681565b34801561059757600080fd5b506102496105a6366004616115565b612e6e565b3480156105b757600080fd5b506101e16105c6366004615f56565b613013565b3480156105d757600080fd5b506105eb6105e6366004615e12565b6130ee565b604080519384526020840192909252908201526060016101f2565b6105eb610614366004615ef9565b6131eb565b6102496106273660046160b1565b613404565b60008082428110156106595760405162461bcd60e51b8152600401610650906164d2565b60405180910390fd5b600454610675908a906001600160a01b03168a8a8a308a612b39565b90935091506106858986856138d7565b60048054604051632e1a7d4d60e01b81529182018490526001600160a01b031690632e1a7d4d90602401600060405180830381600087803b1580156106c957600080fd5b505af11580156106dd573d6000803e3d6000fd5b505050506106eb85836139f4565b50965096945050505050565b6000610704848484613abd565b949350505050565b6060814281101561072f5760405162461bcd60e51b8152600401610650906164d2565b6000856001600160401b0381111561075757634e487b7160e01b600052604160045260246000fd5b604051908082528060200260200182016040528015610780578160200160208202803683370190505b50905060005b8681101561082557600360008989848181106107b257634e487b7160e01b600052603260045260246000fd5b90506020020160208101906107c79190615cc0565b6001600160a01b03166001600160a01b031681526020019081526020016000205482828151811061080857634e487b7160e01b600052603260045260246000fd5b60209081029190910101528061081d81616836565b915050610786565b506004546060906001600160a01b031688886108426001826167dc565b81811061085f57634e487b7160e01b600052603260045260246000fd5b90506020020160208101906108749190615cc0565b6001600160a01b03161461089a5760405162461bcd60e51b8152600401610650906166ee565b61098460018054806020026020016040519081016040528092919081815260200182805480156108f357602002820191906000526020600020905b81546001600160a01b031681526001909101906020018083116108d5575b5050505050600280548060200260200160405190810160405280929190818152602001828054801561094457602002820191906000526020600020905b815481526020019060010190808311610930575b5050505050848d8c8c80806020026020016040519081016040528093929190818152602001838360200280828437600092019190915250613b5792505050565b815191955091508990859061099b906001906167dc565b815181106109b957634e487b7160e01b600052603260045260246000fd5b602002602001015110156109df5760405162461bcd60e51b8152600401610650906165c6565b610ae488886000818110610a0357634e487b7160e01b600052603260045260246000fd5b9050602002016020810190610a189190615cc0565b33610ab684600081518110610a3d57634e487b7160e01b600052603260045260246000fd5b60200260200101518c8c6000818110610a6657634e487b7160e01b600052603260045260246000fd5b9050602002016020810190610a7b9190615cc0565b8d8d6001818110610a9c57634e487b7160e01b600052603260045260246000fd5b9050602002016020810190610ab19190615cc0565b61407a565b87600081518110610ad757634e487b7160e01b600052603260045260246000fd5b60200260200101516140fb565b610b2484828a8a80806020026020016040519081016040528093929190818152602001838360200280828437600092019190915250309250614227915050565b60045484516001600160a01b0390911690632e1a7d4d908690610b49906001906167dc565b81518110610b6757634e487b7160e01b600052603260045260246000fd5b60200260200101516040518263ffffffff1660e01b8152600401610b8d91815260200190565b600060405180830381600087803b158015610ba757600080fd5b505af1158015610bbb573d6000803e3d6000fd5b50505050610bfd868560018751610bd291906167dc565b81518110610bf057634e487b7160e01b600052603260045260246000fd5b60200260200101516139f4565b5050509695505050505050565b32610c136124a9565b6001600160a01b031614610c395760405162461bcd60e51b81526004016106509061660d565b6001600160a01b03909116600090815260036020526040902055565b6060600082516001600160401b03811115610c8057634e487b7160e01b600052604160045260246000fd5b604051908082528060200260200182016040528015610ca9578160200160208202803683370190505b50905060005b8351811015610d425760036000858381518110610cdc57634e487b7160e01b600052603260045260246000fd5b60200260200101516001600160a01b03166001600160a01b0316815260200190815260200160002054828281518110610d2557634e487b7160e01b600052603260045260246000fd5b602090810291909101015280610d3a81616836565b915050610caf565b50610dfa6001805480602002602001604051908101604052809291908181526020018280548015610d9c57602002820191906000526020600020905b81546001600160a01b03168152600190910190602001808311610d7e575b50505050506002805480602002602001604051908101604052809291908181526020018280548015610ded57602002820191906000526020600020905b815481526020019060010190808311610dd9575b5050505050838787614571565b50949350505050565b6000805481908190610e1f906001600160a01b03168f8f61407a565b9050600087610e2e578c610e32565b6000195b60405163d505accf60e01b81529091506001600160a01b0383169063d505accf90610e6d903390309086908f908e908e908e90600401616369565b600060405180830381600087803b158015610e8757600080fd5b505af1158015610e9b573d6000803e3d6000fd5b50505050610eae8f8f8f8f8f8f8f612b39565b809450819550505050509b509b9950505050505050505050565b32610ed16124a9565b6001600160a01b031614610ef75760405162461bcd60e51b81526004016106509061660d565b60008311610f175760405162461bcd60e51b815260040161065090616642565b600154831015610fa4578160018481548110610f4357634e487b7160e01b600052603260045260246000fd5b9060005260206000200160006101000a8154816001600160a01b0302191690836001600160a01b031602179055508060028481548110610f9357634e487b7160e01b600052603260045260246000fd5b600091825260209091200155505050565b6001548314610fe35760405162461bcd60e51b815260206004820152600b60248201526a0d2d8d8cacec2d840d2c8f60ab1b6044820152606401610650565b6001805480820182556000805160206168c18339815191520180546001600160a01b0319166001600160a01b0385161790556002805491820181556000526000805160206168a1833981519152018190555b505050565b6060814281101561105d5760405162461bcd60e51b8152600401610650906164d2565b6000856001600160401b0381111561108557634e487b7160e01b600052604160045260246000fd5b6040519080825280602002602001820160405280156110ae578160200160208202803683370190505b50905060005b8681101561115357600360008989848181106110e057634e487b7160e01b600052603260045260246000fd5b90506020020160208101906110f59190615cc0565b6001600160a01b03166001600160a01b031681526020019081526020016000205482828151811061113657634e487b7160e01b600052603260045260246000fd5b60209081029190910101528061114b81616836565b9150506110b4565b50606061123c60018054806020026020016040519081016040528092919081815260200182805480156108f3576020028201919060005260206000209081546001600160a01b031681526001909101906020018083116108d557505050505060028054806020026020016040519081016040528092919081815260200182805480156109445760200282019190600052602060002090815481526020019060010190808311610930575050505050848d8c8c80806020026020016040519081016040528093929190818152602001838360200280828437600092019190915250613b5792505050565b8151919550915089908590611253906001906167dc565b8151811061127157634e487b7160e01b600052603260045260246000fd5b602002602001015110156112975760405162461bcd60e51b8152600401610650906165c6565b6112bb88886000818110610a0357634e487b7160e01b600052603260045260246000fd5b610bfd848989808060200260200160405190810160405280939291908181526020018383602002808284376000920191909152508692508b91506142279050565b6060814281101561131f5760405162461bcd60e51b8152600401610650906164d2565b6000856001600160401b0381111561134757634e487b7160e01b600052604160045260246000fd5b604051908082528060200260200182016040528015611370578160200160208202803683370190505b50905060005b8681101561141557600360008989848181106113a257634e487b7160e01b600052603260045260246000fd5b90506020020160208101906113b79190615cc0565b6001600160a01b03166001600160a01b03168152602001908152602001600020548282815181106113f857634e487b7160e01b600052603260045260246000fd5b60209081029190910101528061140d81616836565b915050611376565b506004546060906001600160a01b031688886114326001826167dc565b81811061144f57634e487b7160e01b600052603260045260246000fd5b90506020020160208101906114649190615cc0565b6001600160a01b03161461148a5760405162461bcd60e51b8152600401610650906166ee565b61157460018054806020026020016040519081016040528092919081815260200182805480156114e357602002820191906000526020600020905b81546001600160a01b031681526001909101906020018083116114c5575b5050505050600280548060200260200160405190810160405280929190818152602001828054801561153457602002820191906000526020600020905b815481526020019060010190808311611520575b5050505050848d8c8c8080602002602001604051908101604052809392919081815260200183836020028082843760009201919091525061457192505050565b8092508195505050888460008151811061159e57634e487b7160e01b600052603260045260246000fd5b602002602001015111156115c45760405162461bcd60e51b81526004016106509061653b565b6115e888886000818110610a0357634e487b7160e01b600052603260045260246000fd5b610b24848989808060200260200160405190810160405280939291908181526020018383602002808284376000920191909152508692503091506142279050565b6002818154811061163957600080fd5b600091825260209091200154905081565b326116536124a9565b6001600160a01b0316146116795760405162461bcd60e51b81526004016106509061660d565b600580546001600160a01b0319166001600160a01b0392909216919091179055565b6000805460045482916116bc916001600160a01b03918216918f911661407a565b90506000866116cb578b6116cf565b6000195b60405163d505accf60e01b81529091506001600160a01b0383169063d505accf9061170a903390309086908e908d908d908d90600401616369565b600060405180830381600087803b15801561172457600080fd5b505af1158015611738573d6000803e3d6000fd5b5050505061174a8d8d8d8d8d8d612626565b9d9c50505050505050505050505050565b804281101561177c5760405162461bcd60e51b8152600401610650906164d2565b6000846001600160401b038111156117a457634e487b7160e01b600052604160045260246000fd5b6040519080825280602002602001820160405280156117cd578160200160208202803683370190505b5090506000856001600160401b038111156117f857634e487b7160e01b600052604160045260246000fd5b604051908082528060200260200182016040528015611821578160200160208202803683370190505b50905061182e87876149d2565b909250905061189a878760008161185557634e487b7160e01b600052603260045260246000fd5b905060200201602081019061186a9190615cc0565b338460018151811061188c57634e487b7160e01b600052603260045260246000fd5b60200260200101518c6140fb565b600087876118a96001826167dc565b8181106118c657634e487b7160e01b600052603260045260246000fd5b90506020020160208101906118db9190615cc0565b6001600160a01b03166370a08231876040518263ffffffff1660e01b815260040161190691906162ed565b60206040518083038186803b15801561191e57600080fd5b505afa158015611932573d6000803e3d6000fd5b505050506040513d601f19601f820116820180604052508101906119569190616062565b90506119998888808060200260200160405190810160405280939291908181526020018383602002808284376000920191909152508792508691508a9050614f5d565b88611a5e828a8a6119ab6001826167dc565b8181106119c857634e487b7160e01b600052603260045260246000fd5b90506020020160208101906119dd9190615cc0565b6001600160a01b03166370a082318a6040518263ffffffff1660e01b8152600401611a0891906162ed565b60206040518083038186803b158015611a2057600080fd5b505afa158015611a34573d6000803e3d6000fd5b505050506040513d601f19601f82011682018060405250810190611a589190616062565b90615398565b1015611a7c5760405162461bcd60e51b8152600401610650906164d2565b50505050505050505050565b60018181548110611a9857600080fd5b6000918252602090912001546001600160a01b0316905081565b8042811015611ad35760405162461bcd60e51b8152600401610650906164d2565b6004546001600160a01b03168585611aec6001826167dc565b818110611b0957634e487b7160e01b600052603260045260246000fd5b9050602002016020810190611b1e9190615cc0565b6001600160a01b031614611b445760405162461bcd60e51b8152600401610650906166ee565b6000846001600160401b03811115611b6c57634e487b7160e01b600052604160045260246000fd5b604051908082528060200260200182016040528015611b95578160200160208202803683370190505b5090506000856001600160401b03811115611bc057634e487b7160e01b600052604160045260246000fd5b604051908082528060200260200182016040528015611be9578160200160208202803683370190505b509050611bf687876149d2565b9092509050611c1d878760008161185557634e487b7160e01b600052603260045260246000fd5b611c5e878780806020026020016040519081016040528093929190818152602001838360200280828437600092019190915250869250859150309050614f5d565b600480546040516370a0823160e01b81526000926001600160a01b03909216916370a0823191611c90913091016162ed565b60206040518083038186803b158015611ca857600080fd5b505afa158015611cbc573d6000803e3d6000fd5b505050506040513d601f19601f82011682018060405250810190611ce09190616062565b905088811015611d025760405162461bcd60e51b8152600401610650906165c6565b60048054604051632e1a7d4d60e01b81529182018390526001600160a01b031690632e1a7d4d90602401600060405180830381600087803b158015611d4657600080fd5b505af1158015611d5a573d6000803e3d6000fd5b50505050611a7c86826139f4565b60608142811015611d8b5760405162461bcd60e51b8152600401610650906164d2565b6000856001600160401b03811115611db357634e487b7160e01b600052604160045260246000fd5b604051908082528060200260200182016040528015611ddc578160200160208202803683370190505b50905060005b86811015611e815760036000898984818110611e0e57634e487b7160e01b600052603260045260246000fd5b9050602002016020810190611e239190615cc0565b6001600160a01b03166001600160a01b0316815260200190815260200160002054828281518110611e6457634e487b7160e01b600052603260045260246000fd5b602090810291909101015280611e7981616836565b915050611de2565b506004546060906001600160a01b03168888600081611eb057634e487b7160e01b600052603260045260246000fd5b9050602002016020810190611ec59190615cc0565b6001600160a01b031614611eeb5760405162461bcd60e51b8152600401610650906166ee565b611fd56001805480602002602001604051908101604052809291908181526020018280548015611f4457602002820191906000526020600020905b81546001600160a01b03168152600190910190602001808311611f26575b50505050506002805480602002602001604051908101604052809291908181526020018280548015611f9557602002820191906000526020600020905b815481526020019060010190808311611f81575b505050505084348c8c80806020026020016040519081016040528093929190818152602001838360200280828437600092019190915250613b5792505050565b8151919550915089908590611fec906001906167dc565b8151811061200a57634e487b7160e01b600052603260045260246000fd5b602002602001015110156120305760405162461bcd60e51b8152600401610650906165c6565b60045484516001600160a01b039091169063d0e30db090869060009061206657634e487b7160e01b600052603260045260246000fd5b60200260200101516040518263ffffffff1660e01b81526004016000604051808303818588803b15801561209957600080fd5b505af11580156120ad573d6000803e3d6000fd5b505060045484516001600160a01b03909116935063a9059cbb925061214b915084906000906120ec57634e487b7160e01b600052603260045260246000fd5b60200260200101518b8b600081811061211557634e487b7160e01b600052603260045260246000fd5b905060200201602081019061212a9190615cc0565b8c8c6001818110610a9c57634e487b7160e01b600052603260045260246000fd5b8660008151811061216c57634e487b7160e01b600052603260045260246000fd5b60200260200101516040518363ffffffff1660e01b81526004016121919291906163aa565b602060405180830381600087803b1580156121ab57600080fd5b505af11580156121bf573d6000803e3d6000fd5b505050506040513d601f19601f820116820180604052508101906121e39190615feb565b6121fd57634e487b7160e01b600052600160045260246000fd5b61223e848989808060200260200160405190810160405280939291908181526020018383602002808284376000920191909152508692508b91506142279050565b50505095945050505050565b60006107048484846153e3565b6060814281101561227a5760405162461bcd60e51b8152600401610650906164d2565b6000856001600160401b038111156122a257634e487b7160e01b600052604160045260246000fd5b6040519080825280602002602001820160405280156122cb578160200160208202803683370190505b50905060005b8681101561237057600360008989848181106122fd57634e487b7160e01b600052603260045260246000fd5b90506020020160208101906123129190615cc0565b6001600160a01b03166001600160a01b031681526020019081526020016000205482828151811061235357634e487b7160e01b600052603260045260246000fd5b60209081029190910101528061236881616836565b9150506122d1565b50606061245960018054806020026020016040519081016040528092919081815260200182805480156114e3576020028201919060005260206000209081546001600160a01b031681526001909101906020018083116114c557505050505060028054806020026020016040519081016040528092919081815260200182805480156115345760200282019190600052602060002090815481526020019060010190808311611520575050505050848d8c8c8080602002602001604051908101604052809392919081815260200183836020028082843760009201919091525061457192505050565b8092508195505050888460008151811061248357634e487b7160e01b600052603260045260246000fd5b602002602001015111156112975760405162461bcd60e51b81526004016106509061653b565b6006546001600160a01b031690565b326124c16124a9565b6001600160a01b0316146124e75760405162461bcd60e51b81526004016106509061660d565b600081116125075760405162461bcd60e51b815260040161065090616642565b6001805461251591906167dc565b81141561259557600180548061253b57634e487b7160e01b600052603160045260246000fd5b600082815260209020810160001990810180546001600160a01b0319169055019055600280548061257c57634e487b7160e01b600052603160045260246000fd5b6001900381819060005260206000200160009055905550565b6000600182815481106125b857634e487b7160e01b600052603260045260246000fd5b9060005260206000200160006101000a8154816001600160a01b0302191690836001600160a01b0316021790555060006002828154811061260957634e487b7160e01b600052603260045260246000fd5b6000918252602090912001555b50565b6000610704848484615477565b600081428110156126495760405162461bcd60e51b8152600401610650906164d2565b6004546126659089906001600160a01b03168989893089612b39565b6040516370a0823160e01b81529093506126f29150899086906001600160a01b038316906370a082319061269d9030906004016162ed565b60206040518083038186803b1580156126b557600080fd5b505afa1580156126c9573d6000803e3d6000fd5b505050506040513d601f19601f820116820180604052508101906126ed9190616062565b6138d7565b60048054604051632e1a7d4d60e01b81529182018490526001600160a01b031690632e1a7d4d90602401600060405180830381600087803b15801561273657600080fd5b505af115801561274a573d6000803e3d6000fd5b5050505061275884836139f4565b509695505050505050565b80428110156127845760405162461bcd60e51b8152600401610650906164d2565b6004546001600160a01b031685856000816127af57634e487b7160e01b600052603260045260246000fd5b90506020020160208101906127c49190615cc0565b6001600160a01b0316146127ea5760405162461bcd60e51b8152600401610650906164d2565b6004805460408051630d0e30db60e41b8152905134936001600160a01b039093169263d0e30db09285928183019260009282900301818588803b15801561283057600080fd5b505af1158015612844573d6000803e3d6000fd5b506000935088925050506001600160401b0381111561287357634e487b7160e01b600052604160045260246000fd5b60405190808252806020026020018201604052801561289c578160200160208202803683370190505b5090506000866001600160401b038111156128c757634e487b7160e01b600052604160045260246000fd5b6040519080825280602002602001820160405280156128f0578160200160208202803683370190505b5090506128fd88886149d2565b60045482519294509092506001600160a01b03169063a9059cbb908490600190811061293957634e487b7160e01b600052603260045260246000fd5b6020026020010151856040518363ffffffff1660e01b815260040161295f9291906163aa565b602060405180830381600087803b15801561297957600080fd5b505af115801561298d573d6000803e3d6000fd5b505050506040513d601f19601f820116820180604052508101906129b19190615feb565b6129cb57634e487b7160e01b600052600160045260246000fd5b600088886129da6001826167dc565b8181106129f757634e487b7160e01b600052603260045260246000fd5b9050602002016020810190612a0c9190615cc0565b6001600160a01b03166370a08231886040518263ffffffff1660e01b8152600401612a3791906162ed565b60206040518083038186803b158015612a4f57600080fd5b505afa158015612a63573d6000803e3d6000fd5b505050506040513d601f19601f82011682018060405250810190612a879190616062565b9050612aca8989808060200260200160405190810160405280939291908181526020018383602002808284376000920191909152508792508691508b9050614f5d565b89611a5e828b8b612adc6001826167dc565b818110612af957634e487b7160e01b600052603260045260246000fd5b9050602002016020810190612b0e9190615cc0565b6001600160a01b03166370a082318b6040518263ffffffff1660e01b8152600401611a0891906162ed565b6000808242811015612b5d5760405162461bcd60e51b8152600401610650906164d2565b60008054612b75906001600160a01b03168c8c61407a565b6040516323b872dd60e01b81529091506001600160a01b038216906323b872dd90612ba890339085908e90600401616345565b602060405180830381600087803b158015612bc257600080fd5b505af1158015612bd6573d6000803e3d6000fd5b505050506040513d601f19601f82011682018060405250810190612bfa9190615feb565b50612c3260405180604001604052806016815260200175535741502052656d6f766564206c697175696469747960501b815250615513565b600080826001600160a01b03166389afcb44896040518263ffffffff1660e01b8152600401612c6191906162ed565b6040805180830381600087803b158015612c7a57600080fd5b505af1158015612c8e573d6000803e3d6000fd5b505050506040513d601f19601f82011682018060405250810190612cb291906161e7565b915091506000612cc28e8e615556565b509050806001600160a01b03168e6001600160a01b031614612ce5578183612ce8565b82825b90975095508a871015612d0d5760405162461bcd60e51b81526004016106509061644e565b89861015612d2d5760405162461bcd60e51b815260040161065090616490565b505050505097509795505050505050565b600654600160a01b900460ff16612dae5760405162461bcd60e51b815260206004820152602e60248201527f496e697469616c697a61626c653a20636f6e747261637420697320616c72656160448201526d191e481a5b9a5d1a585b1a5e995960921b6064820152608401610650565b600654600160a81b900460ff16158015612dd8576006805461ffff60a01b191661010160a01b1790555b60068054326001600160a01b0319918216179091556000805482166001600160a01b0387811691821783556004805485169187169190911790556001805480820182556000805160206168c183398151915201805490941690911790925560028054928301815590526000805160206168a1833981519152018390558015612e68576006805460ff60a81b191690555b50505050565b6060600082516001600160401b03811115612e9957634e487b7160e01b600052604160045260246000fd5b604051908082528060200260200182016040528015612ec2578160200160208202803683370190505b50905060005b8351811015612f5b5760036000858381518110612ef557634e487b7160e01b600052603260045260246000fd5b60200260200101516001600160a01b03166001600160a01b0316815260200190815260200160002054828281518110612f3e57634e487b7160e01b600052603260045260246000fd5b602090810291909101015280612f5381616836565b915050612ec8565b50610dfa6001805480602002602001604051908101604052809291908181526020018280548015612fb557602002820191906000526020600020905b81546001600160a01b03168152600190910190602001808311612f97575b5050505050600280548060200260200160405190810160405280929190818152602001828054801561300657602002820191906000526020600020905b815481526020019060010190808311612ff2575b5050505050838787613b57565b600080600061304b60008054906101000a90046001600160a01b03168e600460009054906101000a90046001600160a01b031661407a565b905060008761305a578c61305e565b6000195b60405163d505accf60e01b81529091506001600160a01b0383169063d505accf90613099903390309086908f908e908e908e90600401616369565b600060405180830381600087803b1580156130b357600080fd5b505af11580156130c7573d6000803e3d6000fd5b505050506130d98e8e8e8e8e8e61062c565b909f909e509c50505050505050505050505050565b600080600083428110156131145760405162461bcd60e51b8152600401610650906164d2565b6131228c8c8c8c8c8c615647565b6000805492965090945090613141906001600160a01b03168e8e61407a565b905061314f8d3383886140fb565b61315b8c3383876140fb565b6040516335313c2160e11b81526001600160a01b03821690636a62784290613187908a906004016162ed565b602060405180830381600087803b1580156131a157600080fd5b505af11580156131b5573d6000803e3d6000fd5b505050506040513d601f19601f820116820180604052508101906131d99190616062565b92505050985098509895505050505050565b600080600083428110156132115760405162461bcd60e51b8152600401610650906164d2565b60045461322c908b906001600160a01b03168b348c8c615647565b6000805460045493975091955091613252916001600160a01b03908116918e911661407a565b90506132608b3383886140fb565b6004805460408051630d0e30db60e41b815290516001600160a01b039092169263d0e30db0928892808301926000929182900301818588803b1580156132a557600080fd5b505af11580156132b9573d6000803e3d6000fd5b50506004805460405163a9059cbb60e01b81526001600160a01b03909116945063a9059cbb93506132ef925085918991016163aa565b602060405180830381600087803b15801561330957600080fd5b505af115801561331d573d6000803e3d6000fd5b505050506040513d601f19601f820116820180604052508101906133419190615feb565b61335b57634e487b7160e01b600052600160045260246000fd5b6040516335313c2160e11b81526001600160a01b03821690636a62784290613387908a906004016162ed565b602060405180830381600087803b1580156133a157600080fd5b505af11580156133b5573d6000803e3d6000fd5b505050506040513d601f19601f820116820180604052508101906133d99190616062565b9250833411156133f6576133f6336133f186346167dc565b6139f4565b505096509650969350505050565b606081428110156134275760405162461bcd60e51b8152600401610650906164d2565b6000856001600160401b0381111561344f57634e487b7160e01b600052604160045260246000fd5b604051908082528060200260200182016040528015613478578160200160208202803683370190505b50905060005b8681101561351d57600360008989848181106134aa57634e487b7160e01b600052603260045260246000fd5b90506020020160208101906134bf9190615cc0565b6001600160a01b03166001600160a01b031681526020019081526020016000205482828151811061350057634e487b7160e01b600052603260045260246000fd5b60209081029190910101528061351581616836565b91505061347e565b506004546060906001600160a01b0316888860008161354c57634e487b7160e01b600052603260045260246000fd5b90506020020160208101906135619190615cc0565b6001600160a01b0316146135875760405162461bcd60e51b8152600401610650906166ee565b61367160018054806020026020016040519081016040528092919081815260200182805480156135e057602002820191906000526020600020905b81546001600160a01b031681526001909101906020018083116135c2575b5050505050600280548060200260200160405190810160405280929190818152602001828054801561363157602002820191906000526020600020905b81548152602001906001019080831161361d575b5050505050848c8c8c8080602002602001604051908101604052809392919081815260200183836020028082843760009201919091525061457192505050565b8092508195505050348460008151811061369b57634e487b7160e01b600052603260045260246000fd5b602002602001015111156136c15760405162461bcd60e51b81526004016106509061653b565b60045484516001600160a01b039091169063d0e30db09086906000906136f757634e487b7160e01b600052603260045260246000fd5b60200260200101516040518263ffffffff1660e01b81526004016000604051808303818588803b15801561372a57600080fd5b505af115801561373e573d6000803e3d6000fd5b505060045484516001600160a01b03909116935063a9059cbb925061377d915084906000906120ec57634e487b7160e01b600052603260045260246000fd5b8660008151811061379e57634e487b7160e01b600052603260045260246000fd5b60200260200101516040518363ffffffff1660e01b81526004016137c39291906163aa565b602060405180830381600087803b1580156137dd57600080fd5b505af11580156137f1573d6000803e3d6000fd5b505050506040513d601f19601f820116820180604052508101906138159190615feb565b61382f57634e487b7160e01b600052600160045260246000fd5b61386f84828a8a808060200260200160405190810160405280939291908181526020018383602002808284376000920191909152508c9250614227915050565b8360008151811061389057634e487b7160e01b600052603260045260246000fd5b602002602001015134111561223e5761223e33856000815181106138c457634e487b7160e01b600052603260045260246000fd5b6020026020010151346133f191906167dc565b600080846001600160a01b031663a9059cbb85856040516024016138fc9291906163aa565b6040516020818303038152906040529060e01b6020820180516001600160e01b03838183161783525050505060405161393591906162d1565b6000604051808303816000865af19150503d8060008114613972576040519150601f19603f3d011682016040523d82523d6000602084013e613977565b606091505b50915091508180156139a15750805115806139a15750808060200190518101906139a19190615feb565b6139ed5760405162461bcd60e51b815260206004820152601f60248201527f5472616e7366657248656c7065723a205452414e534645525f4641494c4544006044820152606401610650565b5050505050565b604080516000808252602082019092526001600160a01b038416908390604051613a1e91906162d1565b60006040518083038185875af1925050503d8060008114613a5b576040519150601f19603f3d011682016040523d82523d6000602084013e613a60565b606091505b50509050806110355760405162461bcd60e51b815260206004820152602360248201527f5472616e7366657248656c7065723a204554485f5452414e534645525f46414960448201526213115160ea1b6064820152608401610650565b6000808411613ade5760405162461bcd60e51b815260040161065090616671565b600083118015613aee5750600082115b613b0a5760405162461bcd60e51b8152600401610650906164f7565b6000613b18856103e5615842565b90506000613b268285615842565b90506000613b4083613b3a886103e8615842565b906158c1565b9050613b4c818361679d565b979650505050505050565b606080600283511015613b7c5760405162461bcd60e51b81526004016106509061641a565b85518751148015613b8e575084518351145b613baa5760405162461bcd60e51b8152600401610650906166b8565b600187511015613bcc5760405162461bcd60e51b815260040161065090616721565b60018351613bda91906167dc565b6001600160401b03811115613bff57634e487b7160e01b600052604160045260246000fd5b604051908082528060200260200182016040528015613c28578160200160208202803683370190505b50905086600081518110613c4c57634e487b7160e01b600052603260045260246000fd5b602002602001015181600081518110613c7557634e487b7160e01b600052603260045260246000fd5b60200260200101906001600160a01b031690816001600160a01b03168152505082516001600160401b03811115613cbc57634e487b7160e01b600052604160045260246000fd5b604051908082528060200260200182016040528015613ce5578160200160208202803683370190505b5091508382600081518110613d0a57634e487b7160e01b600052603260045260246000fd5b60200260200101818152505060005b60018451613d2791906167dc565b81101561406f5760005b8851811015613fa15760006001600160a01b0316898281518110613d6557634e487b7160e01b600052603260045260246000fd5b60200260200101516001600160a01b03161415613d8157613f8f565b600080613e108b8481518110613da757634e487b7160e01b600052603260045260246000fd5b6020026020010151888681518110613dcf57634e487b7160e01b600052603260045260246000fd5b602002602001015189876001613de59190616785565b81518110613e0357634e487b7160e01b600052603260045260246000fd5b602002602001015161591e565b91509150613e6e868581518110613e3757634e487b7160e01b600052603260045260246000fd5b602002602001015183838d8781518110613e6157634e487b7160e01b600052603260045260246000fd5b6020026020010151615a03565b86613e7a866001616785565b81518110613e9857634e487b7160e01b600052603260045260246000fd5b6020026020010181815250508a8381518110613ec457634e487b7160e01b600052603260045260246000fd5b602002602001015185856001613eda9190616785565b81518110613ef857634e487b7160e01b600052603260045260246000fd5b60200260200101906001600160a01b031690816001600160a01b031681525050888481518110613f3857634e487b7160e01b600052603260045260246000fd5b60200260200101518210158015613f80575088613f56856001616785565b81518110613f7457634e487b7160e01b600052603260045260246000fd5b60200260200101518110155b15613f8c575050613fa1565b50505b80613f9981616836565b915050613d31565b885181141561405c57600080613fd18b600081518110613da757634e487b7160e01b600052603260045260246000fd5b91509150614023868581518110613ff857634e487b7160e01b600052603260045260246000fd5b602002602001015183838d600081518110613e6157634e487b7160e01b600052603260045260246000fd5b8661402f866001616785565b8151811061404d57634e487b7160e01b600052603260045260246000fd5b60200260200101818152505050505b508061406781616836565b915050613d19565b509550959350505050565b60405163e6a4390560e01b81526000906001600160a01b0385169063e6a43905906140ab9086908690600401616301565b60206040518083038186803b1580156140c357600080fd5b505afa1580156140d7573d6000803e3d6000fd5b505050506040513d601f19601f820116820180604052508101906107049190615cdc565b600080856001600160a01b03166323b872dd86868660405160240161412293929190616345565b6040516020818303038152906040529060e01b6020820180516001600160e01b03838183161783525050505060405161415b91906162d1565b6000604051808303816000865af19150503d8060008114614198576040519150601f19603f3d011682016040523d82523d6000602084013e61419d565b606091505b50915091508180156141c75750805115806141c75750808060200190518101906141c79190615feb565b61421f5760405162461bcd60e51b8152602060048201526024808201527f5472616e7366657248656c7065723a205452414e534645525f46524f4d5f46416044820152631253115160e21b6064820152608401610650565b505050505050565b60005b6001845161423891906167dc565b8110156139ed5760008085838151811061426257634e487b7160e01b600052603260045260246000fd5b6020026020010151868460016142789190616785565b8151811061429657634e487b7160e01b600052603260045260246000fd5b60200260200101519150915060006142ae8383615556565b5090506000886142bf866001616785565b815181106142dd57634e487b7160e01b600052603260045260246000fd5b60209081029190910101516005549091506001600160a01b031615801590614344575060005487516001600160a01b039091169088908790811061433157634e487b7160e01b600052603260045260246000fd5b60200260200101516001600160a01b0316145b156143d35760055460405163152cf14360e31b81526001600160a01b039091169063a9678a189061437f90339088908890879060040161631b565b602060405180830381600087803b15801561439957600080fd5b505af11580156143ad573d6000803e3d6000fd5b505050506040513d601f19601f820116820180604052508101906143d19190615feb565b505b600080836001600160a01b0316866001600160a01b0316146143f7578260006143fb565b6000835b91509150600060028b5161440f91906167dc565b881061441b578861448a565b61448a8a61442a8a6002616785565b8151811061444857634e487b7160e01b600052603260045260246000fd5b6020026020010151878d8b600261445f9190616785565b8151811061447d57634e487b7160e01b600052603260045260246000fd5b602002602001015161407a565b90506144c88a61449b8a6001616785565b815181106144b957634e487b7160e01b600052603260045260246000fd5b6020026020010151888861407a565b6001600160a01b031663022c0d9f84848460006040519080825280601f01601f191660200182016040528015614505576020820181803683370190505b506040518563ffffffff1660e01b81526004016145259493929190616758565b600060405180830381600087803b15801561453f57600080fd5b505af1158015614553573d6000803e3d6000fd5b5050505050505050505050808061456990616836565b91505061422a565b6060806002835110156145965760405162461bcd60e51b81526004016106509061641a565b855187511480156145a8575084518351145b6145c45760405162461bcd60e51b8152600401610650906166b8565b6001875110156145e65760405162461bcd60e51b815260040161065090616721565b600183516145f491906167dc565b6001600160401b0381111561461957634e487b7160e01b600052604160045260246000fd5b604051908082528060200260200182016040528015614642578160200160208202803683370190505b5090508660008151811061466657634e487b7160e01b600052603260045260246000fd5b6020026020010151816001845161467d91906167dc565b8151811061469b57634e487b7160e01b600052603260045260246000fd5b60200260200101906001600160a01b031690816001600160a01b03168152505082516001600160401b038111156146e257634e487b7160e01b600052604160045260246000fd5b60405190808252806020026020018201604052801561470b578160200160208202803683370190505b50915083826001845161471e91906167dc565b8151811061473c57634e487b7160e01b600052603260045260246000fd5b60200260200101818152505060006001845161475891906167dc565b90505b801561406f5760005b88518110156149bf5760006001600160a01b031689828151811061479857634e487b7160e01b600052603260045260246000fd5b60200260200101516001600160a01b031614156147b4576149ad565b6000806148368b84815181106147da57634e487b7160e01b600052603260045260246000fd5b6020026020010151886001876147f091906167dc565b8151811061480e57634e487b7160e01b600052603260045260246000fd5b6020026020010151898781518110613e0357634e487b7160e01b600052603260045260246000fd5b9150915061489486858151811061485d57634e487b7160e01b600052603260045260246000fd5b602002602001015183838d878151811061488757634e487b7160e01b600052603260045260246000fd5b6020026020010151615a96565b866148a06001876167dc565b815181106148be57634e487b7160e01b600052603260045260246000fd5b6020026020010181815250508a83815181106148ea57634e487b7160e01b600052603260045260246000fd5b60200260200101518560018661490091906167dc565b8151811061491e57634e487b7160e01b600052603260045260246000fd5b6001600160a01b0390921660209283029190910190910152886149426001866167dc565b8151811061496057634e487b7160e01b600052603260045260246000fd5b6020026020010151821015801561499e575088848151811061499257634e487b7160e01b600052603260045260246000fd5b60200260200101518110155b156149aa5750506149bf565b50505b806149b781616836565b915050614764565b50806149ca8161681f565b91505061475b565b6060806000836001600160401b038111156149fd57634e487b7160e01b600052604160045260246000fd5b604051908082528060200260200182016040528015614a26578160200160208202803683370190505b50905060005b84811015614acb5760036000878784818110614a5857634e487b7160e01b600052603260045260246000fd5b9050602002016020810190614a6d9190615cc0565b6001600160a01b03166001600160a01b0316815260200190815260200160002054828281518110614aae57634e487b7160e01b600052603260045260246000fd5b602090810291909101015280614ac381616836565b915050614a2c565b5060005b614ada6001866167dc565b811015614f5457600080878784818110614b0457634e487b7160e01b600052603260045260246000fd5b9050602002016020810190614b199190615cc0565b8888614b26866001616785565b818110614b4357634e487b7160e01b600052603260045260246000fd5b9050602002016020810190614b589190615cc0565b915091506000614b688383615556565b50905060005b600154811015614e07576000614c1260018381548110614b9e57634e487b7160e01b600052603260045260246000fd5b6000918252602090912001546001600160a01b03168c8c89818110614bd357634e487b7160e01b600052603260045260246000fd5b9050602002016020810190614be89190615cc0565b8d8d614bf58b6001616785565b818110610a9c57634e487b7160e01b600052603260045260246000fd5b9050600080826001600160a01b0316630902f1ac6040518163ffffffff1660e01b815260040160606040518083038186803b158015614c5057600080fd5b505afa158015614c64573d6000803e3d6000fd5b505050506040513d601f19601f82011682018060405250810190614c889190616007565b506001600160701b031691506001600160701b03169150600080866001600160a01b0316896001600160a01b031614614cc2578284614cc5565b83835b915091508a8a81518110614ce957634e487b7160e01b600052603260045260246000fd5b60200260200101518210158015614d3157508a614d078b6001616785565b81518110614d2557634e487b7160e01b600052603260045260246000fd5b60200260200101518110155b15614def57848d614d438c6001616785565b81518110614d6157634e487b7160e01b600052603260045260246000fd5b60200260200101906001600160a01b031690816001600160a01b03168152505060028681548110614da257634e487b7160e01b600052603260045260246000fd5b90600052602060002001548c8b6001614dbb9190616785565b81518110614dd957634e487b7160e01b600052603260045260246000fd5b6020026020010181815250505050505050614e07565b50505050508080614dff90616836565b915050614b6e565b600154811415614f3d57614e8d6001600081548110614e3657634e487b7160e01b600052603260045260246000fd5b6000918252602090912001546001600160a01b03168b8b88818110614e6b57634e487b7160e01b600052603260045260246000fd5b9050602002016020810190614e809190615cc0565b8c8c614bf58a6001616785565b88614e99876001616785565b81518110614eb757634e487b7160e01b600052603260045260246000fd5b60200260200101906001600160a01b031690816001600160a01b0316815250506002600081548110614ef957634e487b7160e01b600052603260045260246000fd5b906000526020600020015487866001614f129190616785565b81518110614f3057634e487b7160e01b600052603260045260246000fd5b6020026020010181815250505b505050508080614f4c90616836565b915050614acf565b50509250929050565b60005b60018551614f6e91906167dc565b8110156139ed57600080868381518110614f9857634e487b7160e01b600052603260045260246000fd5b602002602001015187846001614fae9190616785565b81518110614fcc57634e487b7160e01b600052603260045260246000fd5b602002602001015191509150600080600061501b89876001614fee9190616785565b8151811061500c57634e487b7160e01b600052603260045260246000fd5b60200260200101518686615b18565b91945092509050600080615086856001600160a01b0389166370a082318e6150448d6001616785565b8151811061506257634e487b7160e01b600052603260045260246000fd5b60200260200101516040518263ffffffff1660e01b8152600401611a0891906162ed565b91506150b88286868d61509a8d6001616785565b81518110613e6157634e487b7160e01b600052603260045260246000fd5b6005549091506001600160a01b03161580159061518957506000546001600160a01b03168b6150e88a6001616785565b8151811061510657634e487b7160e01b600052603260045260246000fd5b60200260200101516001600160a01b031663c45a01556040518163ffffffff1660e01b815260040160206040518083038186803b15801561514657600080fd5b505afa15801561515a573d6000803e3d6000fd5b505050506040513d601f19601f8201168201806040525081019061517e9190615cdc565b6001600160a01b0316145b156152185760055460405163152cf14360e31b81526001600160a01b039091169063a9678a18906151c49033908b908b90879060040161631b565b602060405180830381600087803b1580156151de57600080fd5b505af11580156151f2573d6000803e3d6000fd5b505050506040513d601f19601f820116820180604052508101906152169190615feb565b505b600080846001600160a01b0316896001600160a01b03161461523c57826000615240565b6000835b91509150600060028f5161525491906167dc565b8b10615260578b615293565b8d61526c8c6002616785565b8151811061528a57634e487b7160e01b600052603260045260246000fd5b60200260200101515b90508d6152a18c6001616785565b815181106152bf57634e487b7160e01b600052603260045260246000fd5b60200260200101516001600160a01b031663022c0d9f84848460006001600160401b038111156152ff57634e487b7160e01b600052604160045260246000fd5b6040519080825280601f01601f191660200182016040528015615329576020820181803683370190505b506040518563ffffffff1660e01b81526004016153499493929190616758565b600060405180830381600087803b15801561536357600080fd5b505af1158015615377573d6000803e3d6000fd5b5050505050505050505050505050808061539090616836565b915050614f60565b60006153da83836040518060400160405280601e81526020017f536166654d6174683a207375627472616374696f6e206f766572666c6f770000815250615beb565b90505b92915050565b60008084116154045760405162461bcd60e51b81526004016106509061657e565b6000831180156154145750600082115b6154305760405162461bcd60e51b8152600401610650906164f7565b60006154486103e86154428688615842565b90615842565b9050600061545c6103e56154428689615398565b905061546d6001613b3a838561679d565b9695505050505050565b60008084116154d25760405162461bcd60e51b815260206004820152602160248201527f436169726f4c6962726172793a20494e53554646494349454e545f414d4f554e6044820152601560fa1b6064820152608401610650565b6000831180156154e25750600082115b6154fe5760405162461bcd60e51b8152600401610650906164f7565b826155098584615842565b610704919061679d565b612616816040516024016155279190616407565b60408051601f198184030181529190526020810180516001600160e01b031663104c13eb60e21b179052615c25565b600080826001600160a01b0316846001600160a01b031614156155c55760405162461bcd60e51b815260206004820152602160248201527f436169726f4c6962726172793a204944454e544943414c5f41444452455353456044820152605360f81b6064820152608401610650565b826001600160a01b0316846001600160a01b0316106155e55782846155e8565b83835b90925090506001600160a01b0382166156405760405162461bcd60e51b815260206004820152601a602482015279436169726f4c6962726172793a205a45524f5f4144445245535360301b6044820152606401610650565b9250929050565b6000805460405163e6a4390560e01b8152829182916001600160a01b039091169063e6a439059061567e908c908c90600401616301565b60206040518083038186803b15801561569657600080fd5b505afa1580156156aa573d6000803e3d6000fd5b505050506040513d601f19601f820116820180604052508101906156ce9190615cdc565b6001600160a01b03161415615763576000546040516364e329cb60e11b81526001600160a01b039091169063c9c653969061570f908b908b90600401616301565b602060405180830381600087803b15801561572957600080fd5b505af115801561573d573d6000803e3d6000fd5b505050506040513d601f19601f820116820180604052508101906157619190615cdc565b505b60008054819061577d906001600160a01b03168b8b61591e565b9150915081600014801561578f575080155b1561579f57879350869250615835565b60006157ac898484615477565b90508781116157e057858110156157d55760405162461bcd60e51b815260040161065090616490565b889450925082615833565b60006157ed898486615477565b90508981111561580d57634e487b7160e01b600052600160045260246000fd5b8781101561582d5760405162461bcd60e51b81526004016106509061644e565b94508793505b505b5050965096945050505050565b600082615851575060006153dd565b600061585d83856167bd565b90508261586a858361679d565b146153da5760405162461bcd60e51b815260206004820152602160248201527f536166654d6174683a206d756c7469706c69636174696f6e206f766572666c6f6044820152607760f81b6064820152608401610650565b6000806158ce8385616785565b9050838110156153da5760405162461bcd60e51b815260206004820152601b60248201527a536166654d6174683a206164646974696f6e206f766572666c6f7760281b6044820152606401610650565b600080600061592d8585615556565b50905061593b86868661407a565b5060008061594a88888861407a565b6001600160a01b0316630902f1ac6040518163ffffffff1660e01b815260040160606040518083038186803b15801561598257600080fd5b505afa158015615996573d6000803e3d6000fd5b505050506040513d601f19601f820116820180604052508101906159ba9190616007565b506001600160701b031691506001600160701b03169150826001600160a01b0316876001600160a01b0316146159f15780826159f4565b81815b90999098509650505050505050565b6000808511615a245760405162461bcd60e51b815260040161065090616671565b600084118015615a345750600083115b615a505760405162461bcd60e51b8152600401610650906164f7565b6000615a5c8684615842565b90506000615a6a8286615842565b90506000615a7e83613b3a89612710615842565b9050615a8a818361679d565b98975050505050505050565b6000808511615ab75760405162461bcd60e51b81526004016106509061657e565b600084118015615ac75750600083115b615ae35760405162461bcd60e51b8152600401610650906164f7565b6000615af56127106154428789615842565b90506000615b0784615442878a615398565b9050613b4c6001613b3a838561679d565b6000806000615b278585615556565b5080915050600080876001600160a01b0316630902f1ac6040518163ffffffff1660e01b815260040160606040518083038186803b158015615b6857600080fd5b505afa158015615b7c573d6000803e3d6000fd5b505050506040513d601f19601f82011682018060405250810190615ba09190616007565b506001600160701b031691506001600160701b03169150826001600160a01b0316876001600160a01b031614615bd7578082615bda565b81815b909990985092965091945050505050565b60008184841115615c0f5760405162461bcd60e51b81526004016106509190616407565b506000615c1c84866167dc565b95945050505050565b80516a636f6e736f6c652e6c6f67602083016000808483855afa5050505050565b8035615c518161687d565b919050565b60008083601f840112615c67578081fd5b5081356001600160401b03811115615c7d578182fd5b6020830191508360208260051b850101111561564057600080fd5b80516001600160701b0381168114615c5157600080fd5b803560ff81168114615c5157600080fd5b600060208284031215615cd1578081fd5b81356153da8161687d565b600060208284031215615ced578081fd5b81516153da8161687d565b600080600080600080600060e0888a031215615d12578283fd5b8735615d1d8161687d565b96506020880135615d2d8161687d565b955060408801359450606088013593506080880135925060a0880135615d528161687d565b8092505060c0880135905092959891949750929550565b60008060008060008060008060008060006101608c8e031215615d8a578384fd5b8b35615d958161687d565b9a5060208c0135615da58161687d565b995060408c0135985060608c0135975060808c0135965060a08c0135615dca8161687d565b955060c08c0135945060e08c0135615de181616892565b9350615df06101008d01615caf565b92506101208c013591506101408c013590509295989b509295989b9093969950565b600080600080600080600080610100898b031215615e2e578384fd5b8835615e398161687d565b97506020890135615e498161687d565b965060408901359550606089013594506080890135935060a0890135925060c0890135615e758161687d565b8092505060e089013590509295985092959890939650565b60008060408385031215615e9f578182fd5b8235615eaa8161687d565b946020939093013593505050565b600080600060608486031215615ecc578081fd5b8335615ed78161687d565b9250602084013591506040840135615eee8161687d565b809150509250925092565b60008060008060008060c08789031215615f11578384fd5b8635615f1c8161687d565b95506020870135945060408701359350606087013592506080870135615f418161687d565b8092505060a087013590509295509295509295565b6000806000806000806000806000806101408b8d031215615f75578384fd5b8a35615f808161687d565b995060208b0135985060408b0135975060608b0135965060808b0135615fa58161687d565b955060a08b0135945060c08b0135615fbc81616892565b9350615fca60e08c01615caf565b92506101008b013591506101208b013590509295989b9194979a5092959850565b600060208284031215615ffc578081fd5b81516153da81616892565b60008060006060848603121561601b578081fd5b61602484615c98565b925061603260208501615c98565b9150604084015163ffffffff81168114615eee578182fd5b60006020828403121561605b578081fd5b5035919050565b600060208284031215616073578081fd5b5051919050565b60008060006060848603121561608e578081fd5b8335925060208401356160a08161687d565b929592945050506040919091013590565b6000806000806000608086880312156160c8578283fd5b8535945060208601356001600160401b038111156160e4578384fd5b6160f088828901615c56565b90955093505060408601356161048161687d565b949793965091946060013592915050565b60008060408385031215616127578182fd5b823591506020808401356001600160401b0380821115616145578384fd5b818601915086601f830112616158578384fd5b81358181111561616a5761616a616867565b8060051b604051601f19603f8301168101818110858211171561618f5761618f616867565b604052828152858101935084860182860187018b10156161ad578788fd5b8795505b838610156161d6576161c281615c46565b8552600195909501949386019386016161b1565b508096505050505050509250929050565b600080604083850312156161f9578182fd5b505080516020909101519092909150565b60008060008060008060a08789031215616222578384fd5b863595506020870135945060408701356001600160401b03811115616245578485fd5b61625189828a01615c56565b90955093505060608701356162658161687d565b80925050608087013590509295509295509295565b60008060006060848603121561628e578081fd5b505081359360208301359350604090920135919050565b600081518084526162bd8160208601602086016167f3565b601f01601f19169290920160200192915050565b600082516162e38184602087016167f3565b9190910192915050565b6001600160a01b0391909116815260200190565b6001600160a01b0392831681529116602082015260400190565b6001600160a01b039485168152928416602084015292166040820152606081019190915260800190565b6001600160a01b039384168152919092166020820152604081019190915260600190565b6001600160a01b0397881681529590961660208601526040850193909352606084019190915260ff16608083015260a082015260c081019190915260e00190565b6001600160a01b03929092168252602082015260400190565b6020808252825182820181905260009190848201906040850190845b818110156163fb578351835292840192918401916001016163df565b50909695505050505050565b6020815260006153da60208301846162a5565b6020808252601a9082015279086c2d2e4de98d2c4e4c2e4f27440929cac82989288bea082a8960331b604082015260600190565b60208082526022908201527f436169726f526f757465723a20494e53554646494349454e545f415f414d4f55604082015261139560f21b606082015260800190565b60208082526022908201527f436169726f526f757465723a20494e53554646494349454e545f425f414d4f55604082015261139560f21b606082015260800190565b6020808252600b908201526a21b0b4b937a937baba32b960a91b604082015260600190565b60208082526024908201527f436169726f4c6962726172793a20494e53554646494349454e545f4c495155496040820152634449545960e01b606082015260800190565b60208082526023908201527f436169726f526f757465723a204558434553534956455f494e5055545f414d4f60408201526215539560ea1b606082015260800190565b60208082526028908201527f436169726f4c6962726172793a20494e53554646494349454e545f4f555450556040820152671517d05353d5539560c21b606082015260800190565b60208082526027908201527f436169726f526f757465723a20494e53554646494349454e545f4f555450555460408201526617d05353d5539560ca1b606082015260800190565b6020808252818101527f4f776e61626c653a2063616c6c6572206973206e6f7420746865206f776e6572604082015260600190565b6020808252601590820152741a5b99195e080c0818d85b9b9bdd081899481cd95d605a1b604082015260600190565b60208082526027908201527f436169726f4c6962726172793a20494e53554646494349454e545f494e50555460408201526617d05353d5539560ca1b606082015260800190565b6020808252601c908201527b10d85a5c9bd31a589c985c9e4e881253959053125117d05353d5539560221b604082015260600190565b602080825260199082015278086c2d2e4dea4deeae8cae47440929cac82989288bea082a89603b1b604082015260600190565b6020808252601d908201527f436169726f4c6962726172793a20494e56414c49445f464143544f5259000000604082015260600190565b84815283602082015260018060a01b038316604082015260806060820152600061546d60808301846162a5565b6000821982111561679857616798616851565b500190565b6000826167b857634e487b7160e01b81526012600452602481fd5b500490565b60008160001904831182151516156167d7576167d7616851565b500290565b6000828210156167ee576167ee616851565b500390565b60005b8381101561680e5781810151838201526020016167f6565b83811115612e685750506000910152565b60008161682e5761682e616851565b506000190190565b600060001982141561684a5761684a616851565b5060010190565b634e487b7160e01b600052601160045260246000fd5b634e487b7160e01b600052604160045260246000fd5b6001600160a01b038116811461261657600080fd5b801515811461261657600080fdfe405787fa12a823e0f2b7631cc41b3ba8828b3321ca811111fa75cd3aa3bb5aceb10e2d527612073b26eecdfd717e6a320cf44b4afac2b0732d9fcbe2b7fa0cf6a2646970667358221220ab086268a3fd474d10aabd8aa836dce88119f09a3c430de0d56689c90b75ebf464736f6c63430008040033",
  "linkReferences": {},
  "deployedLinkReferences": {}
}