{
  "_format": "hh-sol-artifact-1",
  "contractName": "IDO",
  "sourceName": "contracts/ido/IDO.sol",
  "abi": [
    {
      "anonymous": false,
      "inputs": [
        {
          "indexed": false,
          "internalType": "uint256",
          "name": "issue",
          "type": "uint256"
        },
        {
          "indexed": false,
          "internalType": "uint256",
          "name": "receiveValue",
          "type": "uint256"
        },
        {
          "indexed": false,
          "internalType": "uint256",
          "name": "leftValue",
          "type": "uint256"
        }
      ],
      "name": "IDOCharge",
      "type": "event"
    },
    {
      "anonymous": false,
      "inputs": [
        {
          "indexed": false,
          "internalType": "uint256",
          "name": "issue",
          "type": "uint256"
        },
        {
          "indexed": false,
          "internalType": "address",
          "name": "idoToken",
          "type": "address"
        },
        {
          "indexed": false,
          "internalType": "address",
          "name": "receiveToken",
          "type": "address"
        },
        {
          "indexed": false,
          "internalType": "uint256",
          "name": "price",
          "type": "uint256"
        },
        {
          "indexed": false,
          "internalType": "uint256",
          "name": "maxLimit",
          "type": "uint256"
        },
        {
          "indexed": false,
          "internalType": "uint256",
          "name": "idoTotal",
          "type": "uint256"
        },
        {
          "indexed": false,
          "internalType": "uint256",
          "name": "startTime",
          "type": "uint256"
        },
        {
          "indexed": false,
          "internalType": "uint256",
          "name": "duration",
          "type": "uint256"
        }
      ],
      "name": "IDOCreate",
      "type": "event"
    },
    {
      "anonymous": false,
      "inputs": [
        {
          "indexed": false,
          "internalType": "uint256",
          "name": "issue",
          "type": "uint256"
        }
      ],
      "name": "IDORemove",
      "type": "event"
    },
    {
      "anonymous": false,
      "inputs": [
        {
          "indexed": true,
          "internalType": "address",
          "name": "previousOwner",
          "type": "address"
        },
        {
          "indexed": true,
          "internalType": "address",
          "name": "newOwner",
          "type": "address"
        }
      ],
      "name": "OwnershipTransferred",
      "type": "event"
    },
    {
      "anonymous": false,
      "inputs": [
        {
          "indexed": false,
          "internalType": "uint256",
          "name": "issue",
          "type": "uint256"
        },
        {
          "indexed": false,
          "internalType": "address",
          "name": "account",
          "type": "address"
        },
        {
          "indexed": false,
          "internalType": "uint256",
          "name": "value",
          "type": "uint256"
        }
      ],
      "name": "Staked",
      "type": "event"
    },
    {
      "anonymous": false,
      "inputs": [
        {
          "indexed": false,
          "internalType": "uint256",
          "name": "issue",
          "type": "uint256"
        },
        {
          "indexed": false,
          "internalType": "address",
          "name": "account",
          "type": "address"
        },
        {
          "indexed": false,
          "internalType": "uint256",
          "name": "idoValue",
          "type": "uint256"
        },
        {
          "indexed": false,
          "internalType": "uint256",
          "name": "backValue",
          "type": "uint256"
        }
      ],
      "name": "Withdraw",
      "type": "event"
    },
    {
      "inputs": [
        {
          "internalType": "uint256",
          "name": "",
          "type": "uint256"
        }
      ],
      "name": "IDODB",
      "outputs": [
        {
          "internalType": "uint256",
          "name": "issue",
          "type": "uint256"
        },
        {
          "internalType": "contract IBEP20",
          "name": "idoToken",
          "type": "address"
        },
        {
          "internalType": "contract IBEP20",
          "name": "receiveToken",
          "type": "address"
        },
        {
          "internalType": "uint256",
          "name": "price",
          "type": "uint256"
        },
        {
          "internalType": "uint256",
          "name": "idoTotal",
          "type": "uint256"
        },
        {
          "internalType": "uint256",
          "name": "startTime",
          "type": "uint256"
        },
        {
          "internalType": "uint256",
          "name": "duration",
          "type": "uint256"
        },
        {
          "internalType": "uint256",
          "name": "maxLimit",
          "type": "uint256"
        },
        {
          "internalType": "uint256",
          "name": "receivedTotal",
          "type": "uint256"
        }
      ],
      "stateMutability": "view",
      "type": "function"
    },
    {
      "inputs": [],
      "name": "IDOIssue",
      "outputs": [
        {
          "internalType": "uint256",
          "name": "",
          "type": "uint256"
        }
      ],
      "stateMutability": "view",
      "type": "function"
    },
    {
      "inputs": [
        {
          "internalType": "address",
          "name": "account",
          "type": "address"
        },
        {
          "internalType": "uint256",
          "name": "issue",
          "type": "uint256"
        }
      ],
      "name": "available",
      "outputs": [
        {
          "internalType": "uint256",
          "name": "_idoAmount",
          "type": "uint256"
        },
        {
          "internalType": "uint256",
          "name": "_sendBack",
          "type": "uint256"
        }
      ],
      "stateMutability": "view",
      "type": "function"
    },
    {
      "inputs": [
        {
          "internalType": "uint256",
          "name": "issue",
          "type": "uint256"
        }
      ],
      "name": "chargeIDO",
      "outputs": [],
      "stateMutability": "nonpayable",
      "type": "function"
    },
    {
      "inputs": [
        {
          "internalType": "contract IBEP20",
          "name": "idoToken",
          "type": "address"
        },
        {
          "internalType": "contract IBEP20",
          "name": "receiveToken",
          "type": "address"
        },
        {
          "internalType": "uint256",
          "name": "price",
          "type": "uint256"
        },
        {
          "internalType": "uint256",
          "name": "idoTotal",
          "type": "uint256"
        },
        {
          "internalType": "uint256",
          "name": "maxLimit",
          "type": "uint256"
        },
        {
          "internalType": "uint256",
          "name": "startTime",
          "type": "uint256"
        },
        {
          "internalType": "uint256",
          "name": "duration",
          "type": "uint256"
        }
      ],
      "name": "createIDO",
      "outputs": [],
      "stateMutability": "nonpayable",
      "type": "function"
    },
    {
      "inputs": [
        {
          "internalType": "uint256",
          "name": "issue",
          "type": "uint256"
        },
        {
          "internalType": "address",
          "name": "account",
          "type": "address"
        }
      ],
      "name": "isWithdraw",
      "outputs": [
        {
          "internalType": "bool",
          "name": "",
          "type": "bool"
        }
      ],
      "stateMutability": "view",
      "type": "function"
    },
    {
      "inputs": [],
      "name": "owner",
      "outputs": [
        {
          "internalType": "address",
          "name": "",
          "type": "address"
        }
      ],
      "stateMutability": "view",
      "type": "function"
    },
    {
      "inputs": [],
      "name": "removeIDO",
      "outputs": [],
      "stateMutability": "nonpayable",
      "type": "function"
    },
    {
      "inputs": [],
      "name": "renounceOwnership",
      "outputs": [],
      "stateMutability": "nonpayable",
      "type": "function"
    },
    {
      "inputs": [
        {
          "internalType": "uint256",
          "name": "value",
          "type": "uint256"
        }
      ],
      "name": "stake",
      "outputs": [],
      "stateMutability": "nonpayable",
      "type": "function"
    },
    {
      "inputs": [
        {
          "internalType": "address",
          "name": "newOwner",
          "type": "address"
        }
      ],
      "name": "transferOwnership",
      "outputs": [],
      "stateMutability": "nonpayable",
      "type": "function"
    },
    {
      "inputs": [
        {
          "internalType": "uint256",
          "name": "issue",
          "type": "uint256"
        },
        {
          "internalType": "address",
          "name": "account",
          "type": "address"
        }
      ],
      "name": "userPayValue",
      "outputs": [
        {
          "internalType": "uint256",
          "name": "",
          "type": "uint256"
        }
      ],
      "stateMutability": "view",
      "type": "function"
    },
    {
      "inputs": [
        {
          "internalType": "uint256",
          "name": "issue",
          "type": "uint256"
        }
      ],
      "name": "withdraw",
      "outputs": [],
      "stateMutability": "nonpayable",
      "type": "function"
    }
  ],
  "bytecode": "0x6080604052600060015534801561001557600080fd5b5060006100266100c960201b60201c565b9050806000806101000a81548173ffffffffffffffffffffffffffffffffffffffff021916908373ffffffffffffffffffffffffffffffffffffffff1602179055508073ffffffffffffffffffffffffffffffffffffffff16600073ffffffffffffffffffffffffffffffffffffffff167f8be0079c531659141344cd1fd0a4f28419497f9722a3daafe3b4186f6b6457e060405160405180910390a3506100d1565b600033905090565b612c8b80620000e16000396000f3fe608060405234801561001057600080fd5b50600436106100af5760003560e01c806305bdb4d8146100b45780632e1a7d4d146100e4578063715018a6146101005780638da5cb5b1461010a5780639ff2627a14610128578063a694fc3a14610144578063ac0f7bee14610160578063ad3cef2d1461017e578063b1a69a411461019a578063ef115456146101ca578063f15c9c5d146101d4578063f2fde38b1461020c578063f8724aba14610228575b600080fd5b6100ce60048036038101906100c99190611f5f565b610259565b6040516100db91906122bd565b60405180910390f35b6100fe60048036038101906100f99190611f36565b6102c4565b005b610108610583565b005b6101126106bd565b60405161011f9190612242565b60405180910390f35b610142600480360381019061013d9190611e98565b6106e6565b005b61015e60048036038101906101599190611f36565b610a36565b005b610168610ce3565b60405161017591906124ba565b60405180910390f35b61019860048036038101906101939190611f36565b610ce9565b005b6101b460048036038101906101af9190611f5f565b6110de565b6040516101c191906124ba565b60405180910390f35b6101d261113c565b005b6101ee60048036038101906101e99190611f36565b611381565b604051610203999897969594939291906125cf565b60405180910390f35b61022660048036038101906102219190611e0a565b61140f565b005b610242600480360381019061023d9190611e33565b6115b8565b60405161025092919061265c565b60405180910390f35b600060026000848152602001908152602001600020600a0160008373ffffffffffffffffffffffffffffffffffffffff1673ffffffffffffffffffffffffffffffffffffffff16815260200190815260200160002060009054906101000a900460ff16905092915050565b60015481111580156102d65750600081115b610315576040517f08c379a000000000000000000000000000000000000000000000000000000000815260040161030c9061247a565b60405180910390fd5b60006002600083815260200190815260200160002090506103598160060154600260008581526020019081526020016000206005015461181f90919063ffffffff16565b421161039a576040517f08c379a00000000000000000000000000000000000000000000000000000000081526004016103919061245a565b60405180910390fd5b80600a0160003373ffffffffffffffffffffffffffffffffffffffff1673ffffffffffffffffffffffffffffffffffffffff16815260200190815260200160002060009054906101000a900460ff1615610429576040517f08c379a00000000000000000000000000000000000000000000000000000000081526004016104209061233a565b60405180910390fd5b600080600183600a0160003373ffffffffffffffffffffffffffffffffffffffff1673ffffffffffffffffffffffffffffffffffffffff16815260200190815260200160002060006101000a81548160ff02191690831515021790555061049033856115b8565b80925081935050506104e733838560010160009054906101000a900473ffffffffffffffffffffffffffffffffffffffff1673ffffffffffffffffffffffffffffffffffffffff1661187d9092919063ffffffff16565b60008111156105405761053f33828560020160009054906101000a900473ffffffffffffffffffffffffffffffffffffffff1673ffffffffffffffffffffffffffffffffffffffff1661187d9092919063ffffffff16565b5b7fb0ecf14e184effded5473bba77dcfab32b094b77ac1fbb36beec2aef5558797084338484604051610575949392919061258a565b60405180910390a150505050565b61058b611903565b73ffffffffffffffffffffffffffffffffffffffff166105a96106bd565b73ffffffffffffffffffffffffffffffffffffffff16146105ff576040517f08c379a00000000000000000000000000000000000000000000000000000000081526004016105f6906123ba565b60405180910390fd5b600073ffffffffffffffffffffffffffffffffffffffff1660008054906101000a900473ffffffffffffffffffffffffffffffffffffffff1673ffffffffffffffffffffffffffffffffffffffff167f8be0079c531659141344cd1fd0a4f28419497f9722a3daafe3b4186f6b6457e060405160405180910390a360008060006101000a81548173ffffffffffffffffffffffffffffffffffffffff021916908373ffffffffffffffffffffffffffffffffffffffff160217905550565b60008060009054906101000a900473ffffffffffffffffffffffffffffffffffffffff16905090565b6106ee611903565b73ffffffffffffffffffffffffffffffffffffffff1661070c6106bd565b73ffffffffffffffffffffffffffffffffffffffff1614610762576040517f08c379a0000000000000000000000000000000000000000000000000000000008152600401610759906123ba565b60405180910390fd5b6107a5600260006001548152602001908152602001600020600601546002600060015481526020019081526020016000206005015461181f90919063ffffffff16565b42116107e6576040517f08c379a00000000000000000000000000000000000000000000000000000000081526004016107dd9061245a565b60405180910390fd5b600073ffffffffffffffffffffffffffffffffffffffff168773ffffffffffffffffffffffffffffffffffffffff161415610856576040517f08c379a000000000000000000000000000000000000000000000000000000000815260040161084d9061237a565b60405180910390fd5b600073ffffffffffffffffffffffffffffffffffffffff168673ffffffffffffffffffffffffffffffffffffffff1614156108c6576040517f08c379a00000000000000000000000000000000000000000000000000000000081526004016108bd906123fa565b60405180910390fd5b6108db6001805461181f90919063ffffffff16565b600181905550600060026000600154815260200190815260200160002090506001548160000181905550878160010160006101000a81548173ffffffffffffffffffffffffffffffffffffffff021916908373ffffffffffffffffffffffffffffffffffffffff160217905550868160020160006101000a81548173ffffffffffffffffffffffffffffffffffffffff021916908373ffffffffffffffffffffffffffffffffffffffff1602179055508581600301819055508381600701819055508481600401819055508281600501819055508181600601819055506109e53330878b73ffffffffffffffffffffffffffffffffffffffff1661190b909392919063ffffffff16565b7f5ad99f837520e1304d89d3ef33e4c51c50dd5cb2736d30689cf5fa8af6cddebc600154898989888a8989604051610a249897969594939291906124d5565b60405180910390a15050505050505050565b600060015411610a7b576040517f08c379a0000000000000000000000000000000000000000000000000000000008152600401610a729061247a565b60405180910390fd5b60006002600060015481526020019081526020016000209050806005015442118015610ac05750610abd8160060154826005015461181f90919063ffffffff16565b42105b610aff576040517f08c379a0000000000000000000000000000000000000000000000000000000008152600401610af69061249a565b60405180910390fd5b8060070154610b58838360090160003373ffffffffffffffffffffffffffffffffffffffff1673ffffffffffffffffffffffffffffffffffffffff1681526020019081526020016000205461181f90919063ffffffff16565b1115610b99576040517f08c379a0000000000000000000000000000000000000000000000000000000008152600401610b909061243a565b60405180910390fd5b610bed828260090160003373ffffffffffffffffffffffffffffffffffffffff1673ffffffffffffffffffffffffffffffffffffffff1681526020019081526020016000205461181f90919063ffffffff16565b8160090160003373ffffffffffffffffffffffffffffffffffffffff1673ffffffffffffffffffffffffffffffffffffffff16815260200190815260200160002081905550610c4982826008015461181f90919063ffffffff16565b8160080181905550610ca23330848460020160009054906101000a900473ffffffffffffffffffffffffffffffffffffffff1673ffffffffffffffffffffffffffffffffffffffff1661190b909392919063ffffffff16565b7f18dcd430020e4d4899772fd94a8b40451dc5044dfb70bc46b532eeae431c864f6001543384604051610cd793929190612553565b60405180910390a15050565b60015481565b610cf1611903565b73ffffffffffffffffffffffffffffffffffffffff16610d0f6106bd565b73ffffffffffffffffffffffffffffffffffffffff1614610d65576040517f08c379a0000000000000000000000000000000000000000000000000000000008152600401610d5c906123ba565b60405180910390fd5b60006002600083815260200190815260200160002090506001548211158015610d8e5750600082115b610dcd576040517f08c379a0000000000000000000000000000000000000000000000000000000008152600401610dc49061247a565b60405180910390fd5b6003600083815260200190815260200160002060009054906101000a900460ff1615610e2e576040517f08c379a0000000000000000000000000000000000000000000000000000000008152600401610e259061233a565b60405180910390fd5b610e498160060154826005015461181f90919063ffffffff16565b4211610e8a576040517f08c379a0000000000000000000000000000000000000000000000000000000008152600401610e819061245a565b60405180910390fd5b60008060016003600086815260200190815260200160002060006101000a81548160ff0219169083151502179055506000610f0d610ed98560030154866004015461199490919063ffffffff16565b610eff6ec097ce7bc90715b34b9f1000000000876008015461199490919063ffffffff16565b611a0f90919063ffffffff16565b9050670de0b6b3a76400008110610fa957610f53670de0b6b3a7640000610f458660030154876004015461199490919063ffffffff16565b611a0f90919063ffffffff16565b9250610fa433848660020160009054906101000a900473ffffffffffffffffffffffffffffffffffffffff1673ffffffffffffffffffffffffffffffffffffffff1661187d9092919063ffffffff16565b61109c565b836008015492506110033385600801548660020160009054906101000a900473ffffffffffffffffffffffffffffffffffffffff1673ffffffffffffffffffffffffffffffffffffffff1661187d9092919063ffffffff16565b61104a611037670de0b6b3a764000061102984886004015461199490919063ffffffff16565b611a0f90919063ffffffff16565b8560040154611a5990919063ffffffff16565b915061109b33838660010160009054906101000a900473ffffffffffffffffffffffffffffffffffffffff1673ffffffffffffffffffffffffffffffffffffffff1661187d9092919063ffffffff16565b5b7f9d25a809e06fd4eff5b9ccc67acacbeaa4544bdbe618468068f3be55ebf961488584846040516110cf93929190612685565b60405180910390a15050505050565b60006002600084815260200190815260200160002060090160008373ffffffffffffffffffffffffffffffffffffffff1673ffffffffffffffffffffffffffffffffffffffff16815260200190815260200160002054905092915050565b611144611903565b73ffffffffffffffffffffffffffffffffffffffff166111626106bd565b73ffffffffffffffffffffffffffffffffffffffff16146111b8576040517f08c379a00000000000000000000000000000000000000000000000000000000081526004016111af906123ba565b60405180910390fd5b426002600060015481526020019081526020016000206005015411611212576040517f08c379a0000000000000000000000000000000000000000000000000000000008152600401611209906123da565b60405180910390fd5b61128d336002600060015481526020019081526020016000206004015460026000600154815260200190815260200160002060010160009054906101000a900473ffffffffffffffffffffffffffffffffffffffff1673ffffffffffffffffffffffffffffffffffffffff1661187d9092919063ffffffff16565b6002600060015481526020019081526020016000206000808201600090556001820160006101000a81549073ffffffffffffffffffffffffffffffffffffffff02191690556002820160006101000a81549073ffffffffffffffffffffffffffffffffffffffff021916905560038201600090556004820160009055600582016000905560068201600090556007820160009055600882016000905550507f063d5d62e7ac8263afaa587c5bdb4b844f29613ef64330771f00e31a63fd25b260015460405161135c91906124ba565b60405180910390a161137960018054611a5990919063ffffffff16565b600181905550565b60026020528060005260406000206000915090508060000154908060010160009054906101000a900473ffffffffffffffffffffffffffffffffffffffff16908060020160009054906101000a900473ffffffffffffffffffffffffffffffffffffffff16908060030154908060040154908060050154908060060154908060070154908060080154905089565b611417611903565b73ffffffffffffffffffffffffffffffffffffffff166114356106bd565b73ffffffffffffffffffffffffffffffffffffffff161461148b576040517f08c379a0000000000000000000000000000000000000000000000000000000008152600401611482906123ba565b60405180910390fd5b600073ffffffffffffffffffffffffffffffffffffffff168173ffffffffffffffffffffffffffffffffffffffff1614156114fb576040517f08c379a00000000000000000000000000000000000000000000000000000000081526004016114f29061231a565b60405180910390fd5b8073ffffffffffffffffffffffffffffffffffffffff1660008054906101000a900473ffffffffffffffffffffffffffffffffffffffff1673ffffffffffffffffffffffffffffffffffffffff167f8be0079c531659141344cd1fd0a4f28419497f9722a3daafe3b4186f6b6457e060405160405180910390a3806000806101000a81548173ffffffffffffffffffffffffffffffffffffffff021916908373ffffffffffffffffffffffffffffffffffffffff16021790555050565b600080600060026000858152602001908152602001600020905060015484111580156115e45750600084115b611623576040517f08c379a000000000000000000000000000000000000000000000000000000000815260040161161a9061247a565b60405180910390fd5b60006116776116438360030154846004015461199490919063ffffffff16565b6116696ec097ce7bc90715b34b9f1000000000856008015461199490919063ffffffff16565b611a0f90919063ffffffff16565b9050670de0b6b3a76400008111156117a1576117148260030154611706836116f86ec097ce7bc90715b34b9f10000000008760090160008d73ffffffffffffffffffffffffffffffffffffffff1673ffffffffffffffffffffffffffffffffffffffff1681526020019081526020016000205461199490919063ffffffff16565b611a0f90919063ffffffff16565b611a0f90919063ffffffff16565b935061179a61174a670de0b6b3a764000061173c85600301548861199490919063ffffffff16565b611a0f90919063ffffffff16565b8360090160008973ffffffffffffffffffffffffffffffffffffffff1673ffffffffffffffffffffffffffffffffffffffff16815260200190815260200160002054611a5990919063ffffffff16565b9250611816565b6118138260030154611805670de0b6b3a76400008560090160008b73ffffffffffffffffffffffffffffffffffffffff1673ffffffffffffffffffffffffffffffffffffffff1681526020019081526020016000205461199490919063ffffffff16565b611a0f90919063ffffffff16565b93505b50509250929050565b600080828461182e91906126ee565b905083811015611873576040517f08c379a000000000000000000000000000000000000000000000000000000000815260040161186a9061235a565b60405180910390fd5b8091505092915050565b6118fe8363a9059cbb60e01b848460405160240161189c929190612294565b604051602081830303815290604052907bffffffffffffffffffffffffffffffffffffffffffffffffffffffff19166020820180517bffffffffffffffffffffffffffffffffffffffffffffffffffffffff8381831617835250505050611aa3565b505050565b600033905090565b61198e846323b872dd60e01b85858560405160240161192c9392919061225d565b604051602081830303815290604052907bffffffffffffffffffffffffffffffffffffffffffffffffffffffff19166020820180517bffffffffffffffffffffffffffffffffffffffffffffffffffffffff8381831617835250505050611aa3565b50505050565b6000808314156119a75760009050611a09565b600082846119b59190612775565b90508284826119c49190612744565b14611a04576040517f08c379a00000000000000000000000000000000000000000000000000000000081526004016119fb9061239a565b60405180910390fd5b809150505b92915050565b6000611a5183836040518060400160405280601a81526020017f536166654d6174683a206469766973696f6e206279207a65726f000000000000815250611b6a565b905092915050565b6000611a9b83836040518060400160405280601e81526020017f536166654d6174683a207375627472616374696f6e206f766572666c6f770000815250611bcd565b905092915050565b6000611b05826040518060400160405280602081526020017f5361666542455032303a206c6f772d6c6576656c2063616c6c206661696c65648152508573ffffffffffffffffffffffffffffffffffffffff16611c319092919063ffffffff16565b9050600081511115611b655780806020019051810190611b259190611e6f565b611b64576040517f08c379a0000000000000000000000000000000000000000000000000000000008152600401611b5b906122fa565b60405180910390fd5b5b505050565b60008083118290611bb1576040517f08c379a0000000000000000000000000000000000000000000000000000000008152600401611ba891906122d8565b60405180910390fd5b5060008385611bc09190612744565b9050809150509392505050565b6000838311158290611c15576040517f08c379a0000000000000000000000000000000000000000000000000000000008152600401611c0c91906122d8565b60405180910390fd5b5060008385611c2491906127cf565b9050809150509392505050565b6060611c408484600085611c49565b90509392505050565b6060611c5485611d6b565b611c93576040517f08c379a0000000000000000000000000000000000000000000000000000000008152600401611c8a9061241a565b60405180910390fd5b6000808673ffffffffffffffffffffffffffffffffffffffff168587604051611cbc919061222b565b60006040518083038185875af1925050503d8060008114611cf9576040519150601f19603f3d011682016040523d82523d6000602084013e611cfe565b606091505b50915091508115611d13578092505050611d63565b600081511115611d265780518082602001fd5b836040517f08c379a0000000000000000000000000000000000000000000000000000000008152600401611d5a91906122d8565b60405180910390fd5b949350505050565b60008060007fc5d2460186f7233c927e7db2dcc703c0e500b653ca82273b7bfad8045d85a47060001b9050833f9150808214158015611dad57506000801b8214155b92505050919050565b600081359050611dc581612bf9565b92915050565b600081519050611dda81612c10565b92915050565b600081359050611def81612c27565b92915050565b600081359050611e0481612c3e565b92915050565b600060208284031215611e1c57600080fd5b6000611e2a84828501611db6565b91505092915050565b60008060408385031215611e4657600080fd5b6000611e5485828601611db6565b9250506020611e6585828601611df5565b9150509250929050565b600060208284031215611e8157600080fd5b6000611e8f84828501611dcb565b91505092915050565b600080600080600080600060e0888a031215611eb357600080fd5b6000611ec18a828b01611de0565b9750506020611ed28a828b01611de0565b9650506040611ee38a828b01611df5565b9550506060611ef48a828b01611df5565b9450506080611f058a828b01611df5565b93505060a0611f168a828b01611df5565b92505060c0611f278a828b01611df5565b91505092959891949750929550565b600060208284031215611f4857600080fd5b6000611f5684828501611df5565b91505092915050565b60008060408385031215611f7257600080fd5b6000611f8085828601611df5565b9250506020611f9185828601611db6565b9150509250929050565b611fa481612803565b82525050565b611fb381612815565b82525050565b6000611fc4826126bc565b611fce81856126d2565b9350611fde818560208601612881565b80840191505092915050565b611ff38161285d565b82525050565b6000612004826126c7565b61200e81856126dd565b935061201e818560208601612881565b61202781612912565b840191505092915050565b600061203f602a836126dd565b915061204a82612923565b604082019050919050565b60006120626026836126dd565b915061206d82612972565b604082019050919050565b60006120856018836126dd565b9150612090826129c1565b602082019050919050565b60006120a8601b836126dd565b91506120b3826129ea565b602082019050919050565b60006120cb601c836126dd565b91506120d682612a13565b602082019050919050565b60006120ee6021836126dd565b91506120f982612a3c565b604082019050919050565b60006121116020836126dd565b915061211c82612a8b565b602082019050919050565b60006121346024836126dd565b915061213f82612ab4565b604082019050919050565b60006121576020836126dd565b915061216282612b03565b602082019050919050565b600061217a601d836126dd565b915061218582612b2c565b602082019050919050565b600061219d600e836126dd565b91506121a882612b55565b602082019050919050565b60006121c06014836126dd565b91506121cb82612b7e565b602082019050919050565b60006121e36018836126dd565b91506121ee82612ba7565b602082019050919050565b60006122066017836126dd565b915061221182612bd0565b602082019050919050565b61222581612853565b82525050565b60006122378284611fb9565b915081905092915050565b60006020820190506122576000830184611f9b565b92915050565b60006060820190506122726000830186611f9b565b61227f6020830185611f9b565b61228c604083018461221c565b949350505050565b60006040820190506122a96000830185611f9b565b6122b6602083018461221c565b9392505050565b60006020820190506122d26000830184611faa565b92915050565b600060208201905081810360008301526122f28184611ff9565b905092915050565b6000602082019050818103600083015261231381612032565b9050919050565b6000602082019050818103600083015261233381612055565b9050919050565b6000602082019050818103600083015261235381612078565b9050919050565b600060208201905081810360008301526123738161209b565b9050919050565b60006020820190508181036000830152612393816120be565b9050919050565b600060208201905081810360008301526123b3816120e1565b9050919050565b600060208201905081810360008301526123d381612104565b9050919050565b600060208201905081810360008301526123f381612127565b9050919050565b600060208201905081810360008301526124138161214a565b9050919050565b600060208201905081810360008301526124338161216d565b9050919050565b6000602082019050818103600083015261245381612190565b9050919050565b60006020820190508181036000830152612473816121b3565b9050919050565b60006020820190508181036000830152612493816121d6565b9050919050565b600060208201905081810360008301526124b3816121f9565b9050919050565b60006020820190506124cf600083018461221c565b92915050565b6000610100820190506124eb600083018b61221c565b6124f8602083018a611f9b565b6125056040830189611f9b565b612512606083018861221c565b61251f608083018761221c565b61252c60a083018661221c565b61253960c083018561221c565b61254660e083018461221c565b9998505050505050505050565b6000606082019050612568600083018661221c565b6125756020830185611f9b565b612582604083018461221c565b949350505050565b600060808201905061259f600083018761221c565b6125ac6020830186611f9b565b6125b9604083018561221c565b6125c6606083018461221c565b95945050505050565b6000610120820190506125e5600083018c61221c565b6125f2602083018b611fea565b6125ff604083018a611fea565b61260c606083018961221c565b612619608083018861221c565b61262660a083018761221c565b61263360c083018661221c565b61264060e083018561221c565b61264e61010083018461221c565b9a9950505050505050505050565b6000604082019050612671600083018561221c565b61267e602083018461221c565b9392505050565b600060608201905061269a600083018661221c565b6126a7602083018561221c565b6126b4604083018461221c565b949350505050565b600081519050919050565b600081519050919050565b600081905092915050565b600082825260208201905092915050565b60006126f982612853565b915061270483612853565b9250827fffffffffffffffffffffffffffffffffffffffffffffffffffffffffffffffff03821115612739576127386128b4565b5b828201905092915050565b600061274f82612853565b915061275a83612853565b92508261276a576127696128e3565b5b828204905092915050565b600061278082612853565b915061278b83612853565b9250817fffffffffffffffffffffffffffffffffffffffffffffffffffffffffffffffff04831182151516156127c4576127c36128b4565b5b828202905092915050565b60006127da82612853565b91506127e583612853565b9250828210156127f8576127f76128b4565b5b828203905092915050565b600061280e82612833565b9050919050565b60008115159050919050565b600061282c82612803565b9050919050565b600073ffffffffffffffffffffffffffffffffffffffff82169050919050565b6000819050919050565b60006128688261286f565b9050919050565b600061287a82612833565b9050919050565b60005b8381101561289f578082015181840152602081019050612884565b838111156128ae576000848401525b50505050565b7f4e487b7100000000000000000000000000000000000000000000000000000000600052601160045260246000fd5b7f4e487b7100000000000000000000000000000000000000000000000000000000600052601260045260246000fd5b6000601f19601f8301169050919050565b7f5361666542455032303a204245503230206f7065726174696f6e20646964206e60008201527f6f74207375636365656400000000000000000000000000000000000000000000602082015250565b7f4f776e61626c653a206e6577206f776e657220697320746865207a65726f206160008201527f6464726573730000000000000000000000000000000000000000000000000000602082015250565b7f43616e6e6f7420636c61696d2072657065617465646c792e0000000000000000600082015250565b7f536166654d6174683a206164646974696f6e206f766572666c6f770000000000600082015250565b7f69646f546f6b656e20616464726573732063616e6e6f74206265203000000000600082015250565b7f536166654d6174683a206d756c7469706c69636174696f6e206f766572666c6f60008201527f7700000000000000000000000000000000000000000000000000000000000000602082015250565b7f4f776e61626c653a2063616c6c6572206973206e6f7420746865206f776e6572600082015250565b7f5468657265206973206e6f2069646f20746861742063616e2062652064656c6560008201527f7465642e00000000000000000000000000000000000000000000000000000000602082015250565b7f72656365697665546f6b656e20616464726573732063616e6e6f742062652030600082015250565b7f416464726573733a2063616c6c20746f206e6f6e2d636f6e7472616374000000600082015250565b7f4c696d6974204578636565646564000000000000000000000000000000000000600082015250565b7f69646f206973206e6f74206f766572207965742e000000000000000000000000600082015250565b7f49444f207468617420646f6573206e6f742065786973742e0000000000000000600082015250565b7f49444f206973206e6f7420696e2070726f67726573732e000000000000000000600082015250565b612c0281612803565b8114612c0d57600080fd5b50565b612c1981612815565b8114612c2457600080fd5b50565b612c3081612821565b8114612c3b57600080fd5b50565b612c4781612853565b8114612c5257600080fd5b5056fea264697066735822122077d82729d6836691ba9201b83c3c1f488e7946e188f8a2a7f1b5660a8233d4ac64736f6c63430008040033",
  "linkReferences": {},
  "deployedLinkReferences": {}
}