{
  "_format": "hh-sol-artifact-1",
  "contractName": "IDO",
  "sourceName": "contracts/ido/IDO.sol",
  "abi": [
    {
      "anonymous": false,
      "inputs": [
        {
          "indexed": false,
          "internalType": "uint256",
          "name": "issue",
          "type": "uint256"
        },
        {
          "indexed": false,
          "internalType": "uint256",
          "name": "receiveValue",
          "type": "uint256"
        },
        {
          "indexed": false,
          "internalType": "uint256",
          "name": "leftValue",
          "type": "uint256"
        }
      ],
      "name": "IDOCharge",
      "type": "event"
    },
    {
      "anonymous": false,
      "inputs": [
        {
          "indexed": false,
          "internalType": "uint256",
          "name": "issue",
          "type": "uint256"
        },
        {
          "indexed": false,
          "internalType": "address",
          "name": "idoToken",
          "type": "address"
        },
        {
          "indexed": false,
          "internalType": "address",
          "name": "receiveToken",
          "type": "address"
        },
        {
          "indexed": false,
          "internalType": "uint256",
          "name": "price",
          "type": "uint256"
        },
        {
          "indexed": false,
          "internalType": "uint256",
          "name": "maxLimit",
          "type": "uint256"
        },
        {
          "indexed": false,
          "internalType": "uint256",
          "name": "idoTotal",
          "type": "uint256"
        },
        {
          "indexed": false,
          "internalType": "uint256",
          "name": "startTime",
          "type": "uint256"
        },
        {
          "indexed": false,
          "internalType": "uint256",
          "name": "duration",
          "type": "uint256"
        }
      ],
      "name": "IDOCreate",
      "type": "event"
    },
    {
      "anonymous": false,
      "inputs": [
        {
          "indexed": false,
          "internalType": "uint256",
          "name": "issue",
          "type": "uint256"
        }
      ],
      "name": "IDORemove",
      "type": "event"
    },
    {
      "anonymous": false,
      "inputs": [
        {
          "indexed": true,
          "internalType": "address",
          "name": "previousOwner",
          "type": "address"
        },
        {
          "indexed": true,
          "internalType": "address",
          "name": "newOwner",
          "type": "address"
        }
      ],
      "name": "OwnershipTransferred",
      "type": "event"
    },
    {
      "anonymous": false,
      "inputs": [
        {
          "indexed": false,
          "internalType": "uint256",
          "name": "issue",
          "type": "uint256"
        },
        {
          "indexed": false,
          "internalType": "address",
          "name": "account",
          "type": "address"
        },
        {
          "indexed": false,
          "internalType": "uint256",
          "name": "value",
          "type": "uint256"
        }
      ],
      "name": "Staked",
      "type": "event"
    },
    {
      "anonymous": false,
      "inputs": [
        {
          "indexed": false,
          "internalType": "uint256",
          "name": "issue",
          "type": "uint256"
        },
        {
          "indexed": false,
          "internalType": "address",
          "name": "account",
          "type": "address"
        },
        {
          "indexed": false,
          "internalType": "uint256",
          "name": "idoValue",
          "type": "uint256"
        },
        {
          "indexed": false,
          "internalType": "uint256",
          "name": "backValue",
          "type": "uint256"
        }
      ],
      "name": "Withdraw",
      "type": "event"
    },
    {
      "inputs": [
        {
          "internalType": "uint256",
          "name": "",
          "type": "uint256"
        }
      ],
      "name": "IDODB",
      "outputs": [
        {
          "internalType": "uint256",
          "name": "issue",
          "type": "uint256"
        },
        {
          "internalType": "contract IBEP20",
          "name": "idoToken",
          "type": "address"
        },
        {
          "internalType": "contract IBEP20",
          "name": "receiveToken",
          "type": "address"
        },
        {
          "internalType": "uint256",
          "name": "price",
          "type": "uint256"
        },
        {
          "internalType": "uint256",
          "name": "idoTotal",
          "type": "uint256"
        },
        {
          "internalType": "uint256",
          "name": "startTime",
          "type": "uint256"
        },
        {
          "internalType": "uint256",
          "name": "duration",
          "type": "uint256"
        },
        {
          "internalType": "uint256",
          "name": "maxLimit",
          "type": "uint256"
        },
        {
          "internalType": "uint256",
          "name": "receivedTotal",
          "type": "uint256"
        }
      ],
      "stateMutability": "view",
      "type": "function"
    },
    {
      "inputs": [],
      "name": "IDOIssue",
      "outputs": [
        {
          "internalType": "uint256",
          "name": "",
          "type": "uint256"
        }
      ],
      "stateMutability": "view",
      "type": "function"
    },
    {
      "inputs": [
        {
          "internalType": "address",
          "name": "account",
          "type": "address"
        },
        {
          "internalType": "uint256",
          "name": "issue",
          "type": "uint256"
        }
      ],
      "name": "available",
      "outputs": [
        {
          "internalType": "uint256",
          "name": "_idoAmount",
          "type": "uint256"
        },
        {
          "internalType": "uint256",
          "name": "_sendBack",
          "type": "uint256"
        }
      ],
      "stateMutability": "view",
      "type": "function"
    },
    {
      "inputs": [
        {
          "internalType": "uint256",
          "name": "issue",
          "type": "uint256"
        }
      ],
      "name": "chargeIDO",
      "outputs": [],
      "stateMutability": "nonpayable",
      "type": "function"
    },
    {
      "inputs": [
        {
          "internalType": "contract IBEP20",
          "name": "idoToken",
          "type": "address"
        },
        {
          "internalType": "contract IBEP20",
          "name": "receiveToken",
          "type": "address"
        },
        {
          "internalType": "uint256",
          "name": "price",
          "type": "uint256"
        },
        {
          "internalType": "uint256",
          "name": "idoTotal",
          "type": "uint256"
        },
        {
          "internalType": "uint256",
          "name": "maxLimit",
          "type": "uint256"
        },
        {
          "internalType": "uint256",
          "name": "startTime",
          "type": "uint256"
        },
        {
          "internalType": "uint256",
          "name": "duration",
          "type": "uint256"
        }
      ],
      "name": "createIDO",
      "outputs": [],
      "stateMutability": "nonpayable",
      "type": "function"
    },
    {
      "inputs": [
        {
          "internalType": "uint256",
          "name": "issue",
          "type": "uint256"
        },
        {
          "internalType": "address",
          "name": "account",
          "type": "address"
        }
      ],
      "name": "isWithdraw",
      "outputs": [
        {
          "internalType": "bool",
          "name": "",
          "type": "bool"
        }
      ],
      "stateMutability": "view",
      "type": "function"
    },
    {
      "inputs": [],
      "name": "owner",
      "outputs": [
        {
          "internalType": "address",
          "name": "",
          "type": "address"
        }
      ],
      "stateMutability": "view",
      "type": "function"
    },
    {
      "inputs": [],
      "name": "removeIDO",
      "outputs": [],
      "stateMutability": "nonpayable",
      "type": "function"
    },
    {
      "inputs": [],
      "name": "renounceOwnership",
      "outputs": [],
      "stateMutability": "nonpayable",
      "type": "function"
    },
    {
      "inputs": [
        {
          "internalType": "uint256",
          "name": "value",
          "type": "uint256"
        }
      ],
      "name": "stake",
      "outputs": [],
      "stateMutability": "nonpayable",
      "type": "function"
    },
    {
      "inputs": [
        {
          "internalType": "address",
          "name": "newOwner",
          "type": "address"
        }
      ],
      "name": "transferOwnership",
      "outputs": [],
      "stateMutability": "nonpayable",
      "type": "function"
    },
    {
      "inputs": [
        {
          "internalType": "uint256",
          "name": "issue",
          "type": "uint256"
        },
        {
          "internalType": "address",
          "name": "account",
          "type": "address"
        }
      ],
      "name": "userPayValue",
      "outputs": [
        {
          "internalType": "uint256",
          "name": "",
          "type": "uint256"
        }
      ],
      "stateMutability": "view",
      "type": "function"
    },
    {
      "inputs": [
        {
          "internalType": "uint256",
          "name": "issue",
          "type": "uint256"
        }
      ],
      "name": "withdraw",
      "outputs": [],
      "stateMutability": "nonpayable",
      "type": "function"
    }
  ],
  "bytecode": "0x6080604052600060015534801561001557600080fd5b50600080546001600160a01b031916339081178255604051909182917f8be0079c531659141344cd1fd0a4f28419497f9722a3daafe3b4186f6b6457e0908290a350611639806100666000396000f3fe608060405234801561001057600080fd5b50600436106100cf5760003560e01c8063ac0f7bee1161008c578063ef11545611610066578063ef115456146101be578063f15c9c5d146101c6578063f2fde38b1461027b578063f8724aba1461028e57600080fd5b8063ac0f7bee1461015a578063ad3cef2d14610171578063b1a69a411461018457600080fd5b806305bdb4d8146100d45780632e1a7d4d146100fc578063715018a6146101115780638da5cb5b146101195780639ff2627a14610134578063a694fc3a14610147575b600080fd5b6100e76100e2366004611423565b6102b6565b60405190151581526020015b60405180910390f35b61010f61010a36600461140b565b6102e6565b005b61010f61046c565b6000546040516001600160a01b0390911681526020016100f3565b61010f6101423660046113aa565b6104e0565b61010f61015536600461140b565b6106fa565b61016360015481565b6040519081526020016100f3565b61010f61017f36600461140b565b61089f565b610163610192366004611423565b60008281526002602090815260408083206001600160a01b038516845260090190915290205492915050565b61010f610af8565b61022b6101d436600461140b565b600260208190526000918252604090912080546001820154928201546003830154600484015460058501546006860154600787015460089097015495976001600160a01b0390811697951695939492939192909189565b60408051998a526001600160a01b0398891660208b015296909716958801959095526060870193909352608086019190915260a085015260c084015260e0830152610100820152610120016100f3565b61010f610289366004611343565b610c69565b6102a161029c36600461135f565b610d53565b604080519283526020830191909152016100f3565b60008281526002602090815260408083206001600160a01b0385168452600a0190915290205460ff165b92915050565b60015481111580156102f85750600081115b61031d5760405162461bcd60e51b815260040161031490611504565b60405180910390fd5b60008181526002602052604090206006810154600582015461033e91610eb7565b421161035c5760405162461bcd60e51b8152600401610314906114d6565b336000908152600a8201602052604090205460ff16156103b95760405162461bcd60e51b815260206004820152601860248201527721b0b73737ba1031b630b4b6903932b832b0ba32b2363c9760411b6044820152606401610314565b336000818152600a830160205260408120805460ff191660011790559081906103e29085610d53565b60018501549193509150610400906001600160a01b03163384610f1d565b801561041f57600283015461041f906001600160a01b03163383610f1d565b60408051858152336020820152908101839052606081018290527fb0ecf14e184effded5473bba77dcfab32b094b77ac1fbb36beec2aef555879709060800160405180910390a150505050565b6000546001600160a01b031633146104965760405162461bcd60e51b8152600401610314906114a1565b600080546040516001600160a01b03909116907f8be0079c531659141344cd1fd0a4f28419497f9722a3daafe3b4186f6b6457e0908390a3600080546001600160a01b0319169055565b6000546001600160a01b0316331461050a5760405162461bcd60e51b8152600401610314906114a1565b6001546000908152600260205260409020600681015460059091015461052f91610eb7565b421161054d5760405162461bcd60e51b8152600401610314906114d6565b6001600160a01b0387166105a35760405162461bcd60e51b815260206004820152601c60248201527f69646f546f6b656e20616464726573732063616e6e6f742062652030000000006044820152606401610314565b6001600160a01b0386166105f95760405162461bcd60e51b815260206004820181905260248201527f72656365697665546f6b656e20616464726573732063616e6e6f7420626520306044820152606401610314565b6001805461060691610eb7565b6001818155600082815260026020819052604090912092835590820180546001600160a01b03199081166001600160a01b038c81169182179093559284018054909116918a16919091179055600382018790556007820185905560048201869055600582018490556006820183905561068190333088610f85565b600154604080519182526001600160a01b038a81166020840152891682820152606082018890526080820186905260a0820187905260c0820185905260e08201849052517f5ad99f837520e1304d89d3ef33e4c51c50dd5cb2736d30689cf5fa8af6cddebc918190036101000190a15050505050505050565b60006001541161071c5760405162461bcd60e51b815260040161031490611504565b600154600090815260026020526040902060058101544211801561075157506006810154600582015461074e91610eb7565b42105b61079d5760405162461bcd60e51b815260206004820152601760248201527f49444f206973206e6f7420696e2070726f67726573732e0000000000000000006044820152606401610314565b60078101543360009081526009830160205260409020546107be9084610eb7565b11156107fd5760405162461bcd60e51b815260206004820152600e60248201526d131a5b5a5d08115e18d95959195960921b6044820152606401610314565b3360009081526009820160205260409020546108199083610eb7565b336000908152600983016020526040902055600881015461083a9083610eb7565b60088201556002810154610859906001600160a01b0316333085610f85565b6001546040805191825233602083015281018390527f18dcd430020e4d4899772fd94a8b40451dc5044dfb70bc46b532eeae431c864f9060600160405180910390a15050565b6000546001600160a01b031633146108c95760405162461bcd60e51b8152600401610314906114a1565b600081815260026020526040902060015482118015906108e95750600082115b6109055760405162461bcd60e51b815260040161031490611504565b60008281526003602052604090205460ff161561095f5760405162461bcd60e51b815260206004820152601860248201527721b0b73737ba1031b630b4b6903932b832b0ba32b2363c9760411b6044820152606401610314565b6006810154600582015461097291610eb7565b42116109905760405162461bcd60e51b8152600401610314906114d6565b60008281526003602081905260408220805460ff191660011790558201546004830154829182916109e9916109c59190610fc3565b60088601546109e3906ec097ce7bc90715b34b9f1000000000610fc3565b90611042565b9050670de0b6b3a76400008110610a4257610a21670de0b6b3a76400006109e386600301548760040154610fc390919063ffffffff16565b6002850154909350610a3d906001600160a01b03163385610f1d565b610ab0565b60088401546002850154909350610a63906001600160a01b03163385610f1d565b610a94610a89670de0b6b3a76400006109e3848860040154610fc390919063ffffffff16565b600486015490611084565b6001850154909250610ab0906001600160a01b03163384610f1d565b60408051868152602081018590529081018390527f9d25a809e06fd4eff5b9ccc67acacbeaa4544bdbe618468068f3be55ebf961489060600160405180910390a15050505050565b6000546001600160a01b03163314610b225760405162461bcd60e51b8152600401610314906114a1565b6001546000908152600260205260409020600501544210610b915760405162461bcd60e51b8152602060048201526024808201527f5468657265206973206e6f2069646f20746861742063616e2062652064656c656044820152633a32b21760e11b6064820152608401610314565b6001805460009081526002602052604090206004810154910154610bc2916001600160a01b03909116903390610f1d565b60018054600090815260026020818152604080842084815580860180546001600160a01b031990811690915593810180549094169093556003830184905560048301849055600583018490556006830184905560078301849055600890920192909255915491519182527f063d5d62e7ac8263afaa587c5bdb4b844f29613ef64330771f00e31a63fd25b2910160405180910390a160018054610c6491611084565b600155565b6000546001600160a01b03163314610c935760405162461bcd60e51b8152600401610314906114a1565b6001600160a01b038116610cf85760405162461bcd60e51b815260206004820152602660248201527f4f776e61626c653a206e6577206f776e657220697320746865207a65726f206160448201526564647265737360d01b6064820152608401610314565b600080546040516001600160a01b03808516939216917f8be0079c531659141344cd1fd0a4f28419497f9722a3daafe3b4186f6b6457e091a3600080546001600160a01b0319166001600160a01b0392909216919091179055565b60008181526002602052604081206001548291908411801590610d765750600084115b610d925760405162461bcd60e51b815260040161031490611504565b6000610dd0610db283600301548460040154610fc390919063ffffffff16565b60088401546109e3906ec097ce7bc90715b34b9f1000000000610fc3565b9050670de0b6b3a7640000811115610e745760038201546001600160a01b0387166000908152600984016020526040902054610e2491906109e390849082906ec097ce7bc90715b34b9f1000000000610fc3565b9350610e6d610e4c670de0b6b3a76400006109e3856003015488610fc390919063ffffffff16565b6001600160a01b038816600090815260098501602052604090205490611084565b9250610eae565b60038201546001600160a01b0387166000908152600984016020526040902054610eab91906109e390670de0b6b3a7640000610fc3565b93505b50509250929050565b600080610ec4838561153b565b905083811015610f165760405162461bcd60e51b815260206004820152601b60248201527f536166654d6174683a206164646974696f6e206f766572666c6f7700000000006044820152606401610314565b9392505050565b6040516001600160a01b038316602482015260448101829052610f8090849063a9059cbb60e01b906064015b60408051601f198184030181529190526020810180516001600160e01b03166001600160e01b0319909316929092179091526110c6565b505050565b6040516001600160a01b0380851660248301528316604482015260648101829052610fbd9085906323b872dd60e01b90608401610f49565b50505050565b600082610fd2575060006102e0565b6000610fde8385611573565b905082610feb8583611553565b14610f165760405162461bcd60e51b815260206004820152602160248201527f536166654d6174683a206d756c7469706c69636174696f6e206f766572666c6f6044820152607760f81b6064820152608401610314565b6000610f1683836040518060400160405280601a81526020017f536166654d6174683a206469766973696f6e206279207a65726f000000000000815250611198565b6000610f1683836040518060400160405280601e81526020017f536166654d6174683a207375627472616374696f6e206f766572666c6f7700008152506111cf565b600061111b826040518060400160405280602081526020017f5361666542455032303a206c6f772d6c6576656c2063616c6c206661696c6564815250856001600160a01b03166112009092919063ffffffff16565b805190915015610f805780806020019051810190611139919061138a565b610f805760405162461bcd60e51b815260206004820152602a60248201527f5361666542455032303a204245503230206f7065726174696f6e20646964206e6044820152691bdd081cdd58d8d9595960b21b6064820152608401610314565b600081836111b95760405162461bcd60e51b8152600401610314919061146e565b5060006111c68486611553565b95945050505050565b600081848411156111f35760405162461bcd60e51b8152600401610314919061146e565b5060006111c68486611592565b606061120f8484600085611217565b949350505050565b60606112228561130a565b61126e5760405162461bcd60e51b815260206004820152601d60248201527f416464726573733a2063616c6c20746f206e6f6e2d636f6e74726163740000006044820152606401610314565b600080866001600160a01b0316858760405161128a9190611452565b60006040518083038185875af1925050503d80600081146112c7576040519150601f19603f3d011682016040523d82523d6000602084013e6112cc565b606091505b509150915081156112e057915061120f9050565b8051156112f05780518082602001fd5b8360405162461bcd60e51b8152600401610314919061146e565b6000813f7fc5d2460186f7233c927e7db2dcc703c0e500b653ca82273b7bfad8045d85a47081811480159061120f575050151592915050565b600060208284031215611354578081fd5b8135610f16816115eb565b60008060408385031215611371578081fd5b823561137c816115eb565b946020939093013593505050565b60006020828403121561139b578081fd5b81518015158114610f16578182fd5b600080600080600080600060e0888a0312156113c4578283fd5b87356113cf816115eb565b965060208801356113df816115eb565b96999698505050506040850135946060810135946080820135945060a0820135935060c0909101359150565b60006020828403121561141c578081fd5b5035919050565b60008060408385031215611435578182fd5b823591506020830135611447816115eb565b809150509250929050565b600082516114648184602087016115a9565b9190910192915050565b602081526000825180602084015261148d8160408501602087016115a9565b601f01601f19169190910160400192915050565b6020808252818101527f4f776e61626c653a2063616c6c6572206973206e6f7420746865206f776e6572604082015260600190565b60208082526014908201527334b2379034b9903737ba1037bb32b9103cb2ba1760611b604082015260600190565b60208082526018908201527f49444f207468617420646f6573206e6f742065786973742e0000000000000000604082015260600190565b6000821982111561154e5761154e6115d5565b500190565b60008261156e57634e487b7160e01b81526012600452602481fd5b500490565b600081600019048311821515161561158d5761158d6115d5565b500290565b6000828210156115a4576115a46115d5565b500390565b60005b838110156115c45781810151838201526020016115ac565b83811115610fbd5750506000910152565b634e487b7160e01b600052601160045260246000fd5b6001600160a01b038116811461160057600080fd5b5056fea26469706673582212205e0b58835e48ecb1012718eac8829c858351aae1e49d1158ca0807d1ba9260f264736f6c63430008040033",
  "linkReferences": {},
  "deployedLinkReferences": {}
}