{
  "_format": "hh-sol-artifact-1",
  "contractName": "Pyramid",
  "sourceName": "contracts/farm/Pyramid.sol",
  "abi": [
    {
      "inputs": [
        {
          "internalType": "contract MasterChef",
          "name": "_masterChef",
          "type": "address"
        },
        {
          "internalType": "contract IBEP20",
          "name": "_cairoToken",
          "type": "address"
        },
        {
          "internalType": "uint256",
          "name": "_beginAt",
          "type": "uint256"
        }
      ],
      "stateMutability": "nonpayable",
      "type": "constructor"
    },
    {
      "anonymous": false,
      "inputs": [
        {
          "indexed": true,
          "internalType": "uint256",
          "name": "voteId",
          "type": "uint256"
        },
        {
          "indexed": true,
          "internalType": "address",
          "name": "user",
          "type": "address"
        },
        {
          "indexed": true,
          "internalType": "address",
          "name": "forUser",
          "type": "address"
        },
        {
          "indexed": false,
          "internalType": "uint256",
          "name": "amount",
          "type": "uint256"
        }
      ],
      "name": "Claim",
      "type": "event"
    },
    {
      "anonymous": false,
      "inputs": [
        {
          "indexed": true,
          "internalType": "uint256",
          "name": "voteId",
          "type": "uint256"
        }
      ],
      "name": "DeleteVote",
      "type": "event"
    },
    {
      "anonymous": false,
      "inputs": [
        {
          "indexed": true,
          "internalType": "uint256",
          "name": "voteId",
          "type": "uint256"
        },
        {
          "indexed": true,
          "internalType": "address",
          "name": "user",
          "type": "address"
        },
        {
          "indexed": true,
          "internalType": "address",
          "name": "forUser",
          "type": "address"
        },
        {
          "indexed": false,
          "internalType": "uint256",
          "name": "amount",
          "type": "uint256"
        }
      ],
      "name": "Deposit",
      "type": "event"
    },
    {
      "anonymous": false,
      "inputs": [
        {
          "indexed": true,
          "internalType": "uint256",
          "name": "voteId",
          "type": "uint256"
        },
        {
          "indexed": false,
          "internalType": "uint256",
          "name": "beginAt",
          "type": "uint256"
        },
        {
          "indexed": false,
          "internalType": "uint256",
          "name": "voteAt",
          "type": "uint256"
        },
        {
          "indexed": false,
          "internalType": "uint256",
          "name": "unlockAt",
          "type": "uint256"
        },
        {
          "indexed": false,
          "internalType": "uint256",
          "name": "finishAt",
          "type": "uint256"
        }
      ],
      "name": "NewVote",
      "type": "event"
    },
    {
      "anonymous": false,
      "inputs": [
        {
          "indexed": true,
          "internalType": "address",
          "name": "previousOwner",
          "type": "address"
        },
        {
          "indexed": true,
          "internalType": "address",
          "name": "newOwner",
          "type": "address"
        }
      ],
      "name": "OwnershipTransferred",
      "type": "event"
    },
    {
      "anonymous": false,
      "inputs": [
        {
          "indexed": true,
          "internalType": "uint256",
          "name": "voteId",
          "type": "uint256"
        },
        {
          "indexed": true,
          "internalType": "address",
          "name": "user",
          "type": "address"
        },
        {
          "indexed": true,
          "internalType": "address",
          "name": "forUser",
          "type": "address"
        },
        {
          "indexed": false,
          "internalType": "uint256",
          "name": "amount",
          "type": "uint256"
        }
      ],
      "name": "Withdraw",
      "type": "event"
    },
    {
      "inputs": [],
      "name": "CLEAN_DURATION",
      "outputs": [
        {
          "internalType": "uint256",
          "name": "",
          "type": "uint256"
        }
      ],
      "stateMutability": "view",
      "type": "function"
    },
    {
      "inputs": [],
      "name": "PREPARE_DURATION",
      "outputs": [
        {
          "internalType": "uint256",
          "name": "",
          "type": "uint256"
        }
      ],
      "stateMutability": "view",
      "type": "function"
    },
    {
      "inputs": [],
      "name": "RATIO",
      "outputs": [
        {
          "internalType": "uint256",
          "name": "",
          "type": "uint256"
        }
      ],
      "stateMutability": "view",
      "type": "function"
    },
    {
      "inputs": [],
      "name": "VOTE_DURATION",
      "outputs": [
        {
          "internalType": "uint256",
          "name": "",
          "type": "uint256"
        }
      ],
      "stateMutability": "view",
      "type": "function"
    },
    {
      "inputs": [],
      "name": "beginAt",
      "outputs": [
        {
          "internalType": "uint256",
          "name": "",
          "type": "uint256"
        }
      ],
      "stateMutability": "view",
      "type": "function"
    },
    {
      "inputs": [],
      "name": "cairoToken",
      "outputs": [
        {
          "internalType": "contract IBEP20",
          "name": "",
          "type": "address"
        }
      ],
      "stateMutability": "view",
      "type": "function"
    },
    {
      "inputs": [
        {
          "internalType": "uint256",
          "name": "_voteId",
          "type": "uint256"
        },
        {
          "internalType": "address",
          "name": "_user",
          "type": "address"
        },
        {
          "internalType": "address",
          "name": "_for",
          "type": "address"
        }
      ],
      "name": "claim",
      "outputs": [],
      "stateMutability": "nonpayable",
      "type": "function"
    },
    {
      "inputs": [
        {
          "internalType": "uint256",
          "name": "_voteId",
          "type": "uint256"
        },
        {
          "internalType": "address",
          "name": "_user",
          "type": "address"
        },
        {
          "internalType": "address[]",
          "name": "_forUsers",
          "type": "address[]"
        }
      ],
      "name": "claimAll",
      "outputs": [],
      "stateMutability": "nonpayable",
      "type": "function"
    },
    {
      "inputs": [],
      "name": "createPool",
      "outputs": [
        {
          "internalType": "uint256",
          "name": "",
          "type": "uint256"
        }
      ],
      "stateMutability": "nonpayable",
      "type": "function"
    },
    {
      "inputs": [],
      "name": "currentVoteId",
      "outputs": [
        {
          "internalType": "uint256",
          "name": "",
          "type": "uint256"
        }
      ],
      "stateMutability": "view",
      "type": "function"
    },
    {
      "inputs": [
        {
          "internalType": "uint256",
          "name": "_voteId",
          "type": "uint256"
        },
        {
          "internalType": "address",
          "name": "_for",
          "type": "address"
        },
        {
          "internalType": "uint256",
          "name": "amount",
          "type": "uint256"
        }
      ],
      "name": "deposit",
      "outputs": [],
      "stateMutability": "nonpayable",
      "type": "function"
    },
    {
      "inputs": [
        {
          "internalType": "uint256",
          "name": "",
          "type": "uint256"
        },
        {
          "internalType": "address",
          "name": "",
          "type": "address"
        }
      ],
      "name": "getVotes",
      "outputs": [
        {
          "internalType": "uint256",
          "name": "",
          "type": "uint256"
        }
      ],
      "stateMutability": "view",
      "type": "function"
    },
    {
      "inputs": [],
      "name": "masterChef",
      "outputs": [
        {
          "internalType": "contract MasterChef",
          "name": "",
          "type": "address"
        }
      ],
      "stateMutability": "view",
      "type": "function"
    },
    {
      "inputs": [],
      "name": "owner",
      "outputs": [
        {
          "internalType": "address",
          "name": "",
          "type": "address"
        }
      ],
      "stateMutability": "view",
      "type": "function"
    },
    {
      "inputs": [
        {
          "internalType": "uint256",
          "name": "_voteId",
          "type": "uint256"
        },
        {
          "internalType": "address",
          "name": "_for",
          "type": "address"
        },
        {
          "internalType": "address",
          "name": "_user",
          "type": "address"
        }
      ],
      "name": "pending",
      "outputs": [
        {
          "internalType": "uint256",
          "name": "",
          "type": "uint256"
        }
      ],
      "stateMutability": "view",
      "type": "function"
    },
    {
      "inputs": [
        {
          "internalType": "uint256",
          "name": "",
          "type": "uint256"
        }
      ],
      "name": "poolInfo",
      "outputs": [
        {
          "internalType": "bool",
          "name": "avaliable",
          "type": "bool"
        },
        {
          "internalType": "uint256",
          "name": "startAt",
          "type": "uint256"
        },
        {
          "internalType": "uint256",
          "name": "voteAt",
          "type": "uint256"
        },
        {
          "internalType": "uint256",
          "name": "unlockAt",
          "type": "uint256"
        },
        {
          "internalType": "uint256",
          "name": "finishAt",
          "type": "uint256"
        },
        {
          "internalType": "uint256",
          "name": "totalAmount",
          "type": "uint256"
        }
      ],
      "stateMutability": "view",
      "type": "function"
    },
    {
      "inputs": [],
      "name": "renounceOwnership",
      "outputs": [],
      "stateMutability": "nonpayable",
      "type": "function"
    },
    {
      "inputs": [
        {
          "internalType": "address",
          "name": "newOwner",
          "type": "address"
        }
      ],
      "name": "transferOwnership",
      "outputs": [],
      "stateMutability": "nonpayable",
      "type": "function"
    },
    {
      "inputs": [
        {
          "internalType": "uint256",
          "name": "",
          "type": "uint256"
        },
        {
          "internalType": "address",
          "name": "",
          "type": "address"
        },
        {
          "internalType": "address",
          "name": "",
          "type": "address"
        }
      ],
      "name": "userInfo",
      "outputs": [
        {
          "internalType": "uint256",
          "name": "amount",
          "type": "uint256"
        },
        {
          "internalType": "uint256",
          "name": "rewardDebt",
          "type": "uint256"
        },
        {
          "internalType": "uint256",
          "name": "pending",
          "type": "uint256"
        }
      ],
      "stateMutability": "view",
      "type": "function"
    },
    {
      "inputs": [
        {
          "internalType": "uint256",
          "name": "_voteId",
          "type": "uint256"
        },
        {
          "internalType": "address",
          "name": "_for",
          "type": "address"
        }
      ],
      "name": "withdraw",
      "outputs": [],
      "stateMutability": "nonpayable",
      "type": "function"
    }
  ],
  "bytecode": "0x60e0604052600060025560006003553480156200001b57600080fd5b5060405162004a5a38038062004a5a833981810160405281019062000041919062000526565b6000620000536200043e60201b60201c565b9050806000806101000a81548173ffffffffffffffffffffffffffffffffffffffff021916908373ffffffffffffffffffffffffffffffffffffffff1602179055508073ffffffffffffffffffffffffffffffffffffffff16600073ffffffffffffffffffffffffffffffffffffffff167f8be0079c531659141344cd1fd0a4f28419497f9722a3daafe3b4186f6b6457e060405160405180910390a350600180819055506200011562054600826200044660201b62002b7f1790919060201c565b4211156200015a576040517f08c379a000000000000000000000000000000000000000000000000000000000815260040162000151906200066d565b60405180910390fd5b600073ffffffffffffffffffffffffffffffffffffffff168373ffffffffffffffffffffffffffffffffffffffff161415620001cd576040517f08c379a0000000000000000000000000000000000000000000000000000000008152600401620001c4906200068f565b60405180910390fd5b600073ffffffffffffffffffffffffffffffffffffffff168273ffffffffffffffffffffffffffffffffffffffff16141562000240576040517f08c379a0000000000000000000000000000000000000000000000000000000008152600401620002379062000629565b60405180910390fd5b8273ffffffffffffffffffffffffffffffffffffffff1660808173ffffffffffffffffffffffffffffffffffffffff1660601b815250508173ffffffffffffffffffffffffffffffffffffffff1660a08173ffffffffffffffffffffffffffffffffffffffff1660601b815250508060c08181525050620002c0620004a9565b81816020018181525050620002eb6205460082602001516200044660201b62002b7f1790919060201c565b816040018181525050620003156201518082604001516200044660201b62002b7f1790919060201c565b8160600181815250506200033f6202a2ff82606001516200044660201b62002b7f1790919060201c565b8160800181815250506001816000019015159081151581525050600060038190555060016005546200037291906200070f565b6005819055508060046000600554815260200190815260200160002060008201518160000160006101000a81548160ff0219169083151502179055506020820151816001015560408201518160020155606082015181600301556080820151816004015560a0820151816005015590505060007f170d78ac8113080054464c41c8e1de98bb458b0835052a8fa66c40146e626b6082602001518360400151846060015185608001516040516200042c9493929190620006b1565b60405180910390a250505050620008f3565b600033905090565b60008082846200045791906200070f565b9050838110156200049f576040517f08c379a000000000000000000000000000000000000000000000000000000000815260040162000496906200064b565b60405180910390fd5b8091505092915050565b6040518060c0016040528060001515815260200160008152602001600081526020016000815260200160008152602001600081525090565b600081519050620004f281620008a5565b92915050565b6000815190506200050981620008bf565b92915050565b6000815190506200052081620008d9565b92915050565b6000806000606084860312156200053c57600080fd5b60006200054c86828701620004f8565b93505060206200055f86828701620004e1565b925050604062000572868287016200050f565b9150509250925092565b60006200058b601f83620006fe565b9150620005988262000801565b602082019050919050565b6000620005b2601b83620006fe565b9150620005bf826200082a565b602082019050919050565b6000620005d9600f83620006fe565b9150620005e68262000853565b602082019050919050565b600062000600601f83620006fe565b91506200060d826200087c565b602082019050919050565b6200062381620007c8565b82525050565b6000602082019050818103600083015262000644816200057c565b9050919050565b600060208201905081810360008301526200066681620005a3565b9050919050565b600060208201905081810360008301526200068881620005ca565b9050919050565b60006020820190508181036000830152620006aa81620005f1565b9050919050565b6000608082019050620006c8600083018762000618565b620006d7602083018662000618565b620006e6604083018562000618565b620006f5606083018462000618565b95945050505050565b600082825260208201905092915050565b60006200071c82620007c8565b91506200072983620007c8565b9250827fffffffffffffffffffffffffffffffffffffffffffffffffffffffffffffffff03821115620007615762000760620007d2565b5b828201905092915050565b60006200077982620007a8565b9050919050565b60006200078d826200076c565b9050919050565b6000620007a1826200076c565b9050919050565b600073ffffffffffffffffffffffffffffffffffffffff82169050919050565b6000819050919050565b7f4e487b7100000000000000000000000000000000000000000000000000000000600052601160045260246000fd5b7f5f636169726f546f6b656e20616464726573732063616e6e6f74206265203000600082015250565b7f536166654d6174683a206164646974696f6e206f766572666c6f770000000000600082015250565b7f696c6c6567616c20626567696e41740000000000000000000000000000000000600082015250565b7f5f6d61737465724368656620616464726573732063616e6e6f74206265203000600082015250565b620008b08162000780565b8114620008bc57600080fd5b50565b620008ca8162000794565b8114620008d657600080fd5b50565b620008e481620007c8565b8114620008f057600080fd5b50565b60805160601c60a05160601c60c051614089620009d16000396000610d930152600081816105de015281816107170152818161096401528181610ae501528181610db701528181610ff10152818161112a01528181611371015281816114f201528181611df901528181611e2401528181611f5d015261201f015260008181610689015281816108c2015281816109a001528181610a440152818161109c015281816112cf015281816113ad015281816114510152818161173c01528181611ecf0152818161205b015281816120ff01526126bb01526140896000f3fe608060405234801561001057600080fd5b50600436106100fb5760003560e01c8062f714ce146101005780630a68aba41461011c57806311af210e1461013a5780631526fe2714610158578063297aca771461018d5780632cd1b113146101ab5780632e0a62bc146101c75780634654ff05146101f9578063575a86b21461021757806359e741d2146102355780636819736014610253578063715018a6146102835780638da5cb5b1461028d5780639100b5dd146102ab5780639a06b113146102c95780639ae052eb146102e7578063ab0470fa14610303578063bc157ac114610321578063ef42829a1461033d578063f2fde38b1461036d575b600080fd5b61011a600480360381019061011591906132dc565b610389565b005b610124610d91565b6040516101319190613994565b60405180910390f35b610142610db5565b60405161014f9190613778565b60405180910390f35b610172600480360381019061016d919061328a565b610dd9565b60405161018496959493929190613717565b60405180910390f35b610195610e22565b6040516101a29190613994565b60405180910390f35b6101c560048036038101906101c09190613318565b610e29565b005b6101e160048036038101906101dc9190613318565b6116ef565b6040516101f0939291906139af565b60405180910390f35b610201611733565b60405161020e9190613994565b60405180910390f35b61021f61173a565b60405161022c9190613793565b60405180910390f35b61023d61175e565b60405161024a9190613994565b60405180910390f35b61026d600480360381019061026891906132dc565b61176a565b60405161027a9190613994565b60405180910390f35b61028b61178f565b005b6102956118c9565b6040516102a2919061369c565b60405180910390f35b6102b36118f2565b6040516102c09190613994565b60405180910390f35b6102d16118f8565b6040516102de9190613994565b60405180910390f35b61030160048036038101906102fc9190613367565b611bac565b005b61030b611c1c565b6040516103189190613994565b60405180910390f35b61033b600480360381019061033691906133ce565b611c23565b005b61035760048036038101906103529190613318565b6126b6565b6040516103649190613994565b60405180910390f35b61038760048036038101906103829190613238565b6129d6565b005b600260015414156103cf576040517f08c379a00000000000000000000000000000000000000000000000000000000081526004016103c690613954565b60405180910390fd5b60026001819055506103df6118f8565b506000600460008481526020019081526020016000206040518060c00160405290816000820160009054906101000a900460ff161515151581526020016001820154815260200160028201548152602001600382015481526020016004820154815260200160058201548152505090508060000151610493576040517f08c379a000000000000000000000000000000000000000000000000000000000815260040161048a90613874565b60405180910390fd5b806060015142116104d9576040517f08c379a00000000000000000000000000000000000000000000000000000000081526004016104d090613934565b60405180910390fd5b60006006600085815260200190815260200160002060003373ffffffffffffffffffffffffffffffffffffffff1673ffffffffffffffffffffffffffffffffffffffff16815260200190815260200160002060008473ffffffffffffffffffffffffffffffffffffffff1673ffffffffffffffffffffffffffffffffffffffff1681526020019081526020016000206040518060600160405290816000820154815260200160018201548152602001600282015481525050905060008160000151116105da576040517f08c379a00000000000000000000000000000000000000000000000000000000081526004016105d190613894565b60405180910390fd5b60007f000000000000000000000000000000000000000000000000000000000000000073ffffffffffffffffffffffffffffffffffffffff166370a08231306040518263ffffffff1660e01b8152600401610635919061369c565b60206040518083038186803b15801561064d57600080fd5b505afa158015610661573d6000803e3d6000fd5b505050506040513d601f19601f8201168201806040525081019061068591906132b3565b90507f000000000000000000000000000000000000000000000000000000000000000073ffffffffffffffffffffffffffffffffffffffff16631058d28160006040518263ffffffff1660e01b81526004016106e191906137ae565b600060405180830381600087803b1580156106fb57600080fd5b505af115801561070f573d6000803e3d6000fd5b5050505060007f000000000000000000000000000000000000000000000000000000000000000073ffffffffffffffffffffffffffffffffffffffff166370a08231306040518263ffffffff1660e01b815260040161076e919061369c565b60206040518083038186803b15801561078657600080fd5b505afa15801561079a573d6000803e3d6000fd5b505050506040513d601f19601f820116820180604052508101906107be91906132b3565b905060006107d58383612bdd90919063ffffffff16565b9050600060025490506000821180156107ee5750600081115b1561083b5761083461082382610815670de0b6b3a764000086612c2790919063ffffffff16565b612ca290919063ffffffff16565b600354612b7f90919063ffffffff16565b6003819055505b600061089c610889876020015161087b670de0b6b3a764000061086d6003548c60000151612c2790919063ffffffff16565b612ca290919063ffffffff16565b612bdd90919063ffffffff16565b8760400151612b7f90919063ffffffff16565b905060006108b7876000015183612b7f90919063ffffffff16565b9050838110610962577f000000000000000000000000000000000000000000000000000000000000000073ffffffffffffffffffffffffffffffffffffffff16631058d28161090f8684612bdd90919063ffffffff16565b6040518263ffffffff1660e01b815260040161092b9190613994565b600060405180830381600087803b15801561094557600080fd5b505af1158015610959573d6000803e3d6000fd5b50505050610ae0565b7f000000000000000000000000000000000000000000000000000000000000000073ffffffffffffffffffffffffffffffffffffffff1663095ea7b37f00000000000000000000000000000000000000000000000000000000000000006109d28488612bdd90919063ffffffff16565b6040518363ffffffff1660e01b81526004016109ef9291906136ee565b602060405180830381600087803b158015610a0957600080fd5b505af1158015610a1d573d6000803e3d6000fd5b505050506040513d601f19601f82011682018060405250810190610a419190613261565b507f000000000000000000000000000000000000000000000000000000000000000073ffffffffffffffffffffffffffffffffffffffff166341441d3b610a918387612bdd90919063ffffffff16565b6040518263ffffffff1660e01b8152600401610aad9190613994565b600060405180830381600087803b158015610ac757600080fd5b505af1158015610adb573d6000803e3d6000fd5b505050505b610b0b7f00000000000000000000000000000000000000000000000000000000000000003383612cec565b6000821115610b7b578873ffffffffffffffffffffffffffffffffffffffff163373ffffffffffffffffffffffffffffffffffffffff168b7fa27580a77a01c86ee8598d930ae5f9a0ec6f146c6e0e9e9f50b95bacb337871885604051610b729190613994565b60405180910390a45b610b92876000015184612bdd90919063ffffffff16565b600281905550610bb387600001518960a00151612bdd90919063ffffffff16565b600460008c815260200190815260200160002060050181905550600660008b815260200190815260200160002060003373ffffffffffffffffffffffffffffffffffffffff1673ffffffffffffffffffffffffffffffffffffffff16815260200190815260200160002060008a73ffffffffffffffffffffffffffffffffffffffff1673ffffffffffffffffffffffffffffffffffffffff1681526020019081526020016000206000808201600090556001820160009055600282016000905550506000600460008c8152602001908152602001600020600501541415610d1457600460008b8152602001908152602001600020600080820160006101000a81549060ff0219169055600182016000905560028201600090556003820160009055600482016000905560058201600090555050897f62b40dbdd398afbdb101b84e7af81b1d58422a4ace252a0ee804c175f812d65d60405160405180910390a25b8873ffffffffffffffffffffffffffffffffffffffff163373ffffffffffffffffffffffffffffffffffffffff168b7ffeb2000dca3e617cd6f3a8bbb63014bb54a124aac6ccbf73ee7229b4cd01f1208a60000151604051610d769190613994565b60405180910390a45050505050505050600180819055505050565b7f000000000000000000000000000000000000000000000000000000000000000081565b7f000000000000000000000000000000000000000000000000000000000000000081565b60046020528060005260406000206000915090508060000160009054906101000a900460ff16908060010154908060020154908060030154908060040154908060050154905086565b6205460081565b60026001541415610e6f576040517f08c379a0000000000000000000000000000000000000000000000000000000008152600401610e6690613954565b60405180910390fd5b6002600181905550610e7f6118f8565b506000600460008581526020019081526020016000206040518060c00160405290816000820160009054906101000a900460ff161515151581526020016001820154815260200160028201548152602001600382015481526020016004820154815260200160058201548152505090508060000151610f33576040517f08c379a0000000000000000000000000000000000000000000000000000000008152600401610f2a906138b4565b60405180910390fd5b60006006600086815260200190815260200160002060008573ffffffffffffffffffffffffffffffffffffffff1673ffffffffffffffffffffffffffffffffffffffff16815260200190815260200160002060008473ffffffffffffffffffffffffffffffffffffffff1673ffffffffffffffffffffffffffffffffffffffff1681526020019081526020016000206040518060600160405290816000820154815260200160018201548152602001600282015481525050905060007f000000000000000000000000000000000000000000000000000000000000000073ffffffffffffffffffffffffffffffffffffffff166370a08231306040518263ffffffff1660e01b8152600401611048919061369c565b60206040518083038186803b15801561106057600080fd5b505afa158015611074573d6000803e3d6000fd5b505050506040513d601f19601f8201168201806040525081019061109891906132b3565b90507f000000000000000000000000000000000000000000000000000000000000000073ffffffffffffffffffffffffffffffffffffffff16631058d28160006040518263ffffffff1660e01b81526004016110f491906137ae565b600060405180830381600087803b15801561110e57600080fd5b505af1158015611122573d6000803e3d6000fd5b5050505060007f000000000000000000000000000000000000000000000000000000000000000073ffffffffffffffffffffffffffffffffffffffff166370a08231306040518263ffffffff1660e01b8152600401611181919061369c565b60206040518083038186803b15801561119957600080fd5b505afa1580156111ad573d6000803e3d6000fd5b505050506040513d601f19601f820116820180604052508101906111d191906132b3565b905060006111e88383612bdd90919063ffffffff16565b9050600060025490506000821180156112015750600081115b1561124e5761124761123682611228670de0b6b3a764000086612c2790919063ffffffff16565b612ca290919063ffffffff16565b600354612b7f90919063ffffffff16565b6003819055505b60006112af61129c876020015161128e670de0b6b3a76400006112806003548c60000151612c2790919063ffffffff16565b612ca290919063ffffffff16565b612bdd90919063ffffffff16565b8760400151612b7f90919063ffffffff16565b905060008114156112c657505050505050506116e3565b82811061136f577f000000000000000000000000000000000000000000000000000000000000000073ffffffffffffffffffffffffffffffffffffffff16631058d28161131c8584612bdd90919063ffffffff16565b6040518263ffffffff1660e01b81526004016113389190613994565b600060405180830381600087803b15801561135257600080fd5b505af1158015611366573d6000803e3d6000fd5b505050506114ed565b7f000000000000000000000000000000000000000000000000000000000000000073ffffffffffffffffffffffffffffffffffffffff1663095ea7b37f00000000000000000000000000000000000000000000000000000000000000006113df8487612bdd90919063ffffffff16565b6040518363ffffffff1660e01b81526004016113fc9291906136ee565b602060405180830381600087803b15801561141657600080fd5b505af115801561142a573d6000803e3d6000fd5b505050506040513d601f19601f8201168201806040525081019061144e9190613261565b507f000000000000000000000000000000000000000000000000000000000000000073ffffffffffffffffffffffffffffffffffffffff166341441d3b61149e8386612bdd90919063ffffffff16565b6040518263ffffffff1660e01b81526004016114ba9190613994565b600060405180830381600087803b1580156114d457600080fd5b505af11580156114e8573d6000803e3d6000fd5b505050505b6115187f00000000000000000000000000000000000000000000000000000000000000008a83612cec565b8773ffffffffffffffffffffffffffffffffffffffff168973ffffffffffffffffffffffffffffffffffffffff168b7fa27580a77a01c86ee8598d930ae5f9a0ec6f146c6e0e9e9f50b95bacb3378718846040516115769190613994565b60405180910390a46115b1670de0b6b3a76400006115a36003548960000151612c2790919063ffffffff16565b612ca290919063ffffffff16565b600660008c815260200190815260200160002060008b73ffffffffffffffffffffffffffffffffffffffff1673ffffffffffffffffffffffffffffffffffffffff16815260200190815260200160002060008a73ffffffffffffffffffffffffffffffffffffffff1673ffffffffffffffffffffffffffffffffffffffff168152602001908152602001600020600101819055506000600660008c815260200190815260200160002060008b73ffffffffffffffffffffffffffffffffffffffff1673ffffffffffffffffffffffffffffffffffffffff16815260200190815260200160002060008a73ffffffffffffffffffffffffffffffffffffffff1673ffffffffffffffffffffffffffffffffffffffff16815260200190815260200160002060020181905550505050505050505b60018081905550505050565b600660205282600052604060002060205281600052604060002060205280600052604060002060009250925050508060000154908060010154908060020154905083565b6201518081565b7f000000000000000000000000000000000000000000000000000000000000000081565b670de0b6b3a764000081565b6007602052816000526040600020602052806000526040600020600091509150505481565b611797612d72565b73ffffffffffffffffffffffffffffffffffffffff166117b56118c9565b73ffffffffffffffffffffffffffffffffffffffff161461180b576040517f08c379a0000000000000000000000000000000000000000000000000000000008152600401611802906138f4565b60405180910390fd5b600073ffffffffffffffffffffffffffffffffffffffff1660008054906101000a900473ffffffffffffffffffffffffffffffffffffffff1673ffffffffffffffffffffffffffffffffffffffff167f8be0079c531659141344cd1fd0a4f28419497f9722a3daafe3b4186f6b6457e060405160405180910390a360008060006101000a81548173ffffffffffffffffffffffffffffffffffffffff021916908373ffffffffffffffffffffffffffffffffffffffff160217905550565b60008060009054906101000a900473ffffffffffffffffffffffffffffffffffffffff16905090565b60055481565b60008060055490506000600460008381526020019081526020016000206040518060c00160405290816000820160009054906101000a900460ff1615151515815260200160018201548152602001600282015481526020016003820154815260200160048201548152602001600582015481525050905080608001514210611ba357611982613116565b61199a60018360800151612b7f90919063ffffffff16565b8160200181815250506119bd620546008260200151612b7f90919063ffffffff16565b8160400181815250506119e0620151808260400151612b7f90919063ffffffff16565b816060018181525050611a036202a2ff8260600151612b7f90919063ffffffff16565b8160800181815250506001816000019015159081151581525050600183611a2a9190613aae565b6005819055508060046000600186611a429190613aae565b815260200190815260200160002060008201518160000160006101000a81548160ff0219169083151502179055506020820151816001015560408201518160020155606082015181600301556080820151816004015560a0820151816005015590505060008260a001511415611b325760046000848152602001908152602001600020600080820160006101000a81549060ff0219169055600182016000905560028201600090556003820160009055600482016000905560058201600090555050827f62b40dbdd398afbdb101b84e7af81b1d58422a4ace252a0ee804c175f812d65d60405160405180910390a25b600183611b3f9190613aae565b7f170d78ac8113080054464c41c8e1de98bb458b0835052a8fa66c40146e626b608260200151836040015184606001518560800151604051611b8494939291906139e6565b60405180910390a2600183611b999190613aae565b9350505050611ba9565b81925050505b90565b60005b8151811015611c1657611c038484848481518110611bf6577f4e487b7100000000000000000000000000000000000000000000000000000000600052603260045260246000fd5b6020026020010151610e29565b8080611c0e90613cc9565b915050611baf565b50505050565b6202a2ff81565b60026001541415611c69576040517f08c379a0000000000000000000000000000000000000000000000000000000008152600401611c6090613954565b60405180910390fd5b6002600181905550600073ffffffffffffffffffffffffffffffffffffffff168273ffffffffffffffffffffffffffffffffffffffff161415611ce1576040517f08c379a0000000000000000000000000000000000000000000000000000000008152600401611cd890613974565b60405180910390fd5b611ce96118f8565b506000600460008581526020019081526020016000206040518060c00160405290816000820160009054906101000a900460ff161515151581526020016001820154815260200160028201548152602001600382015481526020016004820154815260200160058201548152505090508060000151611d9d576040517f08c379a0000000000000000000000000000000000000000000000000000000008152600401611d9490613874565b60405180910390fd5b80604001514210158015611db5575080606001514211155b611df4576040517f08c379a0000000000000000000000000000000000000000000000000000000008152600401611deb90613934565b60405180910390fd5b611e207f0000000000000000000000000000000000000000000000000000000000000000333085612d7a565b60007f000000000000000000000000000000000000000000000000000000000000000073ffffffffffffffffffffffffffffffffffffffff166370a08231306040518263ffffffff1660e01b8152600401611e7b919061369c565b60206040518083038186803b158015611e9357600080fd5b505afa158015611ea7573d6000803e3d6000fd5b505050506040513d601f19601f82011682018060405250810190611ecb91906132b3565b90507f000000000000000000000000000000000000000000000000000000000000000073ffffffffffffffffffffffffffffffffffffffff16631058d28160006040518263ffffffff1660e01b8152600401611f2791906137ae565b600060405180830381600087803b158015611f4157600080fd5b505af1158015611f55573d6000803e3d6000fd5b5050505060007f000000000000000000000000000000000000000000000000000000000000000073ffffffffffffffffffffffffffffffffffffffff166370a08231306040518263ffffffff1660e01b8152600401611fb4919061369c565b60206040518083038186803b158015611fcc57600080fd5b505afa158015611fe0573d6000803e3d6000fd5b505050506040513d601f19601f8201168201806040525081019061200491906132b3565b9050600061201b8383612bdd90919063ffffffff16565b90507f000000000000000000000000000000000000000000000000000000000000000073ffffffffffffffffffffffffffffffffffffffff1663095ea7b37f000000000000000000000000000000000000000000000000000000000000000061208d8489612b7f90919063ffffffff16565b6040518363ffffffff1660e01b81526004016120aa9291906136ee565b602060405180830381600087803b1580156120c457600080fd5b505af11580156120d8573d6000803e3d6000fd5b505050506040513d601f19601f820116820180604052508101906120fc9190613261565b507f000000000000000000000000000000000000000000000000000000000000000073ffffffffffffffffffffffffffffffffffffffff166341441d3b61214c8388612b7f90919063ffffffff16565b6040518263ffffffff1660e01b81526004016121689190613994565b600060405180830381600087803b15801561218257600080fd5b505af1158015612196573d6000803e3d6000fd5b50505050600060025490506000821180156121b15750600081115b156121fe576121f76121e6826121d8670de0b6b3a764000086612c2790919063ffffffff16565b612ca290919063ffffffff16565b600354612b7f90919063ffffffff16565b6003819055505b6000600660008a815260200190815260200160002060003373ffffffffffffffffffffffffffffffffffffffff1673ffffffffffffffffffffffffffffffffffffffff16815260200190815260200160002060008973ffffffffffffffffffffffffffffffffffffffff1673ffffffffffffffffffffffffffffffffffffffff168152602001908152602001600020604051806060016040529081600082015481526020016001820154815260200160028201548152505090506000816000015111156123b9576123246123118260200151612303670de0b6b3a76400006122f56003548760000151612c2790919063ffffffff16565b612ca290919063ffffffff16565b612bdd90919063ffffffff16565b8260400151612b7f90919063ffffffff16565b600660008b815260200190815260200160002060003373ffffffffffffffffffffffffffffffffffffffff1673ffffffffffffffffffffffffffffffffffffffff16815260200190815260200160002060008a73ffffffffffffffffffffffffffffffffffffffff1673ffffffffffffffffffffffffffffffffffffffff168152602001908152602001600020600201819055505b6123d0878260000151612b7f90919063ffffffff16565b600660008b815260200190815260200160002060003373ffffffffffffffffffffffffffffffffffffffff1673ffffffffffffffffffffffffffffffffffffffff16815260200190815260200160002060008a73ffffffffffffffffffffffffffffffffffffffff1673ffffffffffffffffffffffffffffffffffffffff168152602001908152602001600020600001819055506124a9670de0b6b3a764000061249b61248a8a8560000151612b7f90919063ffffffff16565b600354612c2790919063ffffffff16565b612ca290919063ffffffff16565b600660008b815260200190815260200160002060003373ffffffffffffffffffffffffffffffffffffffff1673ffffffffffffffffffffffffffffffffffffffff16815260200190815260200160002060008a73ffffffffffffffffffffffffffffffffffffffff1673ffffffffffffffffffffffffffffffffffffffff16815260200190815260200160002060010181905550612554878760a00151612b7f90919063ffffffff16565b600460008b8152602001908152602001600020600501819055506125818783612b7f90919063ffffffff16565b6002819055506125ea87600760008c815260200190815260200160002060008b73ffffffffffffffffffffffffffffffffffffffff1673ffffffffffffffffffffffffffffffffffffffff16815260200190815260200160002054612b7f90919063ffffffff16565b600760008b815260200190815260200160002060008a73ffffffffffffffffffffffffffffffffffffffff1673ffffffffffffffffffffffffffffffffffffffff168152602001908152602001600020819055508773ffffffffffffffffffffffffffffffffffffffff163373ffffffffffffffffffffffffffffffffffffffff168a7f2c0f148b435140de488c1b34647f1511c646f7077e87007bacf22ef9977a16d88a60405161269c9190613994565b60405180910390a450505050505060018081905550505050565b6000807f000000000000000000000000000000000000000000000000000000000000000073ffffffffffffffffffffffffffffffffffffffff16631175a1dd6000306040518363ffffffff1660e01b81526004016127159291906137c9565b60206040518083038186803b15801561272d57600080fd5b505afa158015612741573d6000803e3d6000fd5b505050506040513d601f19601f8201168201806040525081019061276591906132b3565b90506000600254141561277c5760009150506129cf565b60006127c16127b06002546127a2670de0b6b3a764000086612c2790919063ffffffff16565b612ca290919063ffffffff16565b600354612b7f90919063ffffffff16565b905060006129c6612927600660008a815260200190815260200160002060008873ffffffffffffffffffffffffffffffffffffffff1673ffffffffffffffffffffffffffffffffffffffff16815260200190815260200160002060008973ffffffffffffffffffffffffffffffffffffffff1673ffffffffffffffffffffffffffffffffffffffff16815260200190815260200160002060010154612919670de0b6b3a764000061290b87600660008f815260200190815260200160002060008d73ffffffffffffffffffffffffffffffffffffffff1673ffffffffffffffffffffffffffffffffffffffff16815260200190815260200160002060008e73ffffffffffffffffffffffffffffffffffffffff1673ffffffffffffffffffffffffffffffffffffffff16815260200190815260200160002060000154612c2790919063ffffffff16565b612ca290919063ffffffff16565b612bdd90919063ffffffff16565b600660008a815260200190815260200160002060008873ffffffffffffffffffffffffffffffffffffffff1673ffffffffffffffffffffffffffffffffffffffff16815260200190815260200160002060008973ffffffffffffffffffffffffffffffffffffffff1673ffffffffffffffffffffffffffffffffffffffff16815260200190815260200160002060020154612b7f90919063ffffffff16565b90508093505050505b9392505050565b6129de612d72565b73ffffffffffffffffffffffffffffffffffffffff166129fc6118c9565b73ffffffffffffffffffffffffffffffffffffffff1614612a52576040517f08c379a0000000000000000000000000000000000000000000000000000000008152600401612a49906138f4565b60405180910390fd5b600073ffffffffffffffffffffffffffffffffffffffff168173ffffffffffffffffffffffffffffffffffffffff161415612ac2576040517f08c379a0000000000000000000000000000000000000000000000000000000008152600401612ab990613834565b60405180910390fd5b8073ffffffffffffffffffffffffffffffffffffffff1660008054906101000a900473ffffffffffffffffffffffffffffffffffffffff1673ffffffffffffffffffffffffffffffffffffffff167f8be0079c531659141344cd1fd0a4f28419497f9722a3daafe3b4186f6b6457e060405160405180910390a3806000806101000a81548173ffffffffffffffffffffffffffffffffffffffff021916908373ffffffffffffffffffffffffffffffffffffffff16021790555050565b6000808284612b8e9190613aae565b905083811015612bd3576040517f08c379a0000000000000000000000000000000000000000000000000000000008152600401612bca90613854565b60405180910390fd5b8091505092915050565b6000612c1f83836040518060400160405280601e81526020017f536166654d6174683a207375627472616374696f6e206f766572666c6f770000815250612e03565b905092915050565b600080831415612c3a5760009050612c9c565b60008284612c489190613b35565b9050828482612c579190613b04565b14612c97576040517f08c379a0000000000000000000000000000000000000000000000000000000008152600401612c8e906138d4565b60405180910390fd5b809150505b92915050565b6000612ce483836040518060400160405280601a81526020017f536166654d6174683a206469766973696f6e206279207a65726f000000000000815250612e67565b905092915050565b612d6d8363a9059cbb60e01b8484604051602401612d0b9291906136ee565b604051602081830303815290604052907bffffffffffffffffffffffffffffffffffffffffffffffffffffffff19166020820180517bffffffffffffffffffffffffffffffffffffffffffffffffffffffff8381831617835250505050612eca565b505050565b600033905090565b612dfd846323b872dd60e01b858585604051602401612d9b939291906136b7565b604051602081830303815290604052907bffffffffffffffffffffffffffffffffffffffffffffffffffffffff19166020820180517bffffffffffffffffffffffffffffffffffffffffffffffffffffffff8381831617835250505050612eca565b50505050565b6000838311158290612e4b576040517f08c379a0000000000000000000000000000000000000000000000000000000008152600401612e4291906137f2565b60405180910390fd5b5060008385612e5a9190613b8f565b9050809150509392505050565b60008083118290612eae576040517f08c379a0000000000000000000000000000000000000000000000000000000008152600401612ea591906137f2565b60405180910390fd5b5060008385612ebd9190613b04565b9050809150509392505050565b6000612f2c826040518060400160405280602081526020017f5361666542455032303a206c6f772d6c6576656c2063616c6c206661696c65648152508573ffffffffffffffffffffffffffffffffffffffff16612f919092919063ffffffff16565b9050600081511115612f8c5780806020019051810190612f4c9190613261565b612f8b576040517f08c379a0000000000000000000000000000000000000000000000000000000008152600401612f8290613814565b60405180910390fd5b5b505050565b6060612fa08484600085612fa9565b90509392505050565b6060612fb4856130cb565b612ff3576040517f08c379a0000000000000000000000000000000000000000000000000000000008152600401612fea90613914565b60405180910390fd5b6000808673ffffffffffffffffffffffffffffffffffffffff16858760405161301c9190613685565b60006040518083038185875af1925050503d8060008114613059576040519150601f19603f3d011682016040523d82523d6000602084013e61305e565b606091505b509150915081156130735780925050506130c3565b6000815111156130865780518082602001fd5b836040517f08c379a00000000000000000000000000000000000000000000000000000000081526004016130ba91906137f2565b60405180910390fd5b949350505050565b60008060007fc5d2460186f7233c927e7db2dcc703c0e500b653ca82273b7bfad8045d85a47060001b9050833f915080821415801561310d57506000801b8214155b92505050919050565b6040518060c0016040528060001515815260200160008152602001600081526020016000815260200160008152602001600081525090565b600061316161315c84613a50565b613a2b565b9050808382526020820190508285602086028201111561318057600080fd5b60005b858110156131b0578161319688826131ba565b845260208401935060208301925050600181019050613183565b5050509392505050565b6000813590506131c98161400e565b92915050565b600082601f8301126131e057600080fd5b81356131f084826020860161314e565b91505092915050565b60008151905061320881614025565b92915050565b60008135905061321d8161403c565b92915050565b6000815190506132328161403c565b92915050565b60006020828403121561324a57600080fd5b6000613258848285016131ba565b91505092915050565b60006020828403121561327357600080fd5b6000613281848285016131f9565b91505092915050565b60006020828403121561329c57600080fd5b60006132aa8482850161320e565b91505092915050565b6000602082840312156132c557600080fd5b60006132d384828501613223565b91505092915050565b600080604083850312156132ef57600080fd5b60006132fd8582860161320e565b925050602061330e858286016131ba565b9150509250929050565b60008060006060848603121561332d57600080fd5b600061333b8682870161320e565b935050602061334c868287016131ba565b925050604061335d868287016131ba565b9150509250925092565b60008060006060848603121561337c57600080fd5b600061338a8682870161320e565b935050602061339b868287016131ba565b925050604084013567ffffffffffffffff8111156133b857600080fd5b6133c4868287016131cf565b9150509250925092565b6000806000606084860312156133e357600080fd5b60006133f18682870161320e565b9350506020613402868287016131ba565b92505060406134138682870161320e565b9150509250925092565b61342681613bc3565b82525050565b61343581613bd5565b82525050565b600061344682613a7c565b6134508185613a92565b9350613460818560208601613c65565b80840191505092915050565b61347581613c0b565b82525050565b61348481613c2f565b82525050565b61349381613c53565b82525050565b60006134a482613a87565b6134ae8185613a9d565b93506134be818560208601613c65565b6134c781613d9f565b840191505092915050565b60006134df602a83613a9d565b91506134ea82613db0565b604082019050919050565b6000613502602683613a9d565b915061350d82613dff565b604082019050919050565b6000613525601b83613a9d565b915061353082613e4e565b602082019050919050565b6000613548600e83613a9d565b915061355382613e77565b602082019050919050565b600061356b600e83613a9d565b915061357682613ea0565b602082019050919050565b600061358e600e83613a9d565b915061359982613ec9565b602082019050919050565b60006135b1602183613a9d565b91506135bc82613ef2565b604082019050919050565b60006135d4602083613a9d565b91506135df82613f41565b602082019050919050565b60006135f7601d83613a9d565b915061360282613f6a565b602082019050919050565b600061361a601283613a9d565b915061362582613f93565b602082019050919050565b600061363d601f83613a9d565b915061364882613fbc565b602082019050919050565b6000613660601883613a9d565b915061366b82613fe5565b602082019050919050565b61367f81613c01565b82525050565b6000613691828461343b565b915081905092915050565b60006020820190506136b1600083018461341d565b92915050565b60006060820190506136cc600083018661341d565b6136d9602083018561341d565b6136e66040830184613676565b949350505050565b6000604082019050613703600083018561341d565b6137106020830184613676565b9392505050565b600060c08201905061372c600083018961342c565b6137396020830188613676565b6137466040830187613676565b6137536060830186613676565b6137606080830185613676565b61376d60a0830184613676565b979650505050505050565b600060208201905061378d600083018461346c565b92915050565b60006020820190506137a8600083018461347b565b92915050565b60006020820190506137c3600083018461348a565b92915050565b60006040820190506137de600083018561348a565b6137eb602083018461341d565b9392505050565b6000602082019050818103600083015261380c8184613499565b905092915050565b6000602082019050818103600083015261382d816134d2565b9050919050565b6000602082019050818103600083015261384d816134f5565b9050919050565b6000602082019050818103600083015261386d81613518565b9050919050565b6000602082019050818103600083015261388d8161353b565b9050919050565b600060208201905081810360008301526138ad8161355e565b9050919050565b600060208201905081810360008301526138cd81613581565b9050919050565b600060208201905081810360008301526138ed816135a4565b9050919050565b6000602082019050818103600083015261390d816135c7565b9050919050565b6000602082019050818103600083015261392d816135ea565b9050919050565b6000602082019050818103600083015261394d8161360d565b9050919050565b6000602082019050818103600083015261396d81613630565b9050919050565b6000602082019050818103600083015261398d81613653565b9050919050565b60006020820190506139a96000830184613676565b92915050565b60006060820190506139c46000830186613676565b6139d16020830185613676565b6139de6040830184613676565b949350505050565b60006080820190506139fb6000830187613676565b613a086020830186613676565b613a156040830185613676565b613a226060830184613676565b95945050505050565b6000613a35613a46565b9050613a418282613c98565b919050565b6000604051905090565b600067ffffffffffffffff821115613a6b57613a6a613d70565b5b602082029050602081019050919050565b600081519050919050565b600081519050919050565b600081905092915050565b600082825260208201905092915050565b6000613ab982613c01565b9150613ac483613c01565b9250827fffffffffffffffffffffffffffffffffffffffffffffffffffffffffffffffff03821115613af957613af8613d12565b5b828201905092915050565b6000613b0f82613c01565b9150613b1a83613c01565b925082613b2a57613b29613d41565b5b828204905092915050565b6000613b4082613c01565b9150613b4b83613c01565b9250817fffffffffffffffffffffffffffffffffffffffffffffffffffffffffffffffff0483118215151615613b8457613b83613d12565b5b828202905092915050565b6000613b9a82613c01565b9150613ba583613c01565b925082821015613bb857613bb7613d12565b5b828203905092915050565b6000613bce82613be1565b9050919050565b60008115159050919050565b600073ffffffffffffffffffffffffffffffffffffffff82169050919050565b6000819050919050565b6000613c1682613c1d565b9050919050565b6000613c2882613be1565b9050919050565b6000613c3a82613c41565b9050919050565b6000613c4c82613be1565b9050919050565b6000613c5e82613c01565b9050919050565b60005b83811015613c83578082015181840152602081019050613c68565b83811115613c92576000848401525b50505050565b613ca182613d9f565b810181811067ffffffffffffffff82111715613cc057613cbf613d70565b5b80604052505050565b6000613cd482613c01565b91507fffffffffffffffffffffffffffffffffffffffffffffffffffffffffffffffff821415613d0757613d06613d12565b5b600182019050919050565b7f4e487b7100000000000000000000000000000000000000000000000000000000600052601160045260246000fd5b7f4e487b7100000000000000000000000000000000000000000000000000000000600052601260045260246000fd5b7f4e487b7100000000000000000000000000000000000000000000000000000000600052604160045260246000fd5b6000601f19601f8301169050919050565b7f5361666542455032303a204245503230206f7065726174696f6e20646964206e60008201527f6f74207375636365656400000000000000000000000000000000000000000000602082015250565b7f4f776e61626c653a206e6577206f776e657220697320746865207a65726f206160008201527f6464726573730000000000000000000000000000000000000000000000000000602082015250565b7f536166654d6174683a206164646974696f6e206f766572666c6f770000000000600082015250565b7f696c6c6567616c20766f74654964000000000000000000000000000000000000600082015250565b7f696c6c6567616c20616d6f756e74000000000000000000000000000000000000600082015250565b7f696c6c6561676c20766f74654964000000000000000000000000000000000000600082015250565b7f536166654d6174683a206d756c7469706c69636174696f6e206f766572666c6f60008201527f7700000000000000000000000000000000000000000000000000000000000000602082015250565b7f4f776e61626c653a2063616c6c6572206973206e6f7420746865206f776e6572600082015250565b7f416464726573733a2063616c6c20746f206e6f6e2d636f6e7472616374000000600082015250565b7f6e6f74207468652072696768742074696d650000000000000000000000000000600082015250565b7f5265656e7472616e637947756172643a207265656e7472616e742063616c6c00600082015250565b7f5f666f7220616464726573732063616e6e6f7420626520300000000000000000600082015250565b61401781613bc3565b811461402257600080fd5b50565b61402e81613bd5565b811461403957600080fd5b50565b61404581613c01565b811461405057600080fd5b5056fea26469706673582212205651df3e80cee868932c67f9dbd0da140df4054020936a033b4f9bb5dcfda07a64736f6c63430008040033",
  "linkReferences": {},
  "deployedLinkReferences": {}
}