{
  "_format": "hh-sol-artifact-1",
  "contractName": "Pyramid",
  "sourceName": "contracts/farm/Pyramid.sol",
  "abi": [
    {
      "inputs": [
        {
          "internalType": "contract MasterChef",
          "name": "_masterChef",
          "type": "address"
        },
        {
          "internalType": "contract IBEP20",
          "name": "_cairoToken",
          "type": "address"
        },
        {
          "internalType": "uint256",
          "name": "_beginAt",
          "type": "uint256"
        }
      ],
      "stateMutability": "nonpayable",
      "type": "constructor"
    },
    {
      "anonymous": false,
      "inputs": [
        {
          "indexed": true,
          "internalType": "uint256",
          "name": "voteId",
          "type": "uint256"
        },
        {
          "indexed": true,
          "internalType": "address",
          "name": "user",
          "type": "address"
        },
        {
          "indexed": true,
          "internalType": "address",
          "name": "forUser",
          "type": "address"
        },
        {
          "indexed": false,
          "internalType": "uint256",
          "name": "amount",
          "type": "uint256"
        }
      ],
      "name": "Claim",
      "type": "event"
    },
    {
      "anonymous": false,
      "inputs": [
        {
          "indexed": true,
          "internalType": "uint256",
          "name": "voteId",
          "type": "uint256"
        }
      ],
      "name": "DeleteVote",
      "type": "event"
    },
    {
      "anonymous": false,
      "inputs": [
        {
          "indexed": true,
          "internalType": "uint256",
          "name": "voteId",
          "type": "uint256"
        },
        {
          "indexed": true,
          "internalType": "address",
          "name": "user",
          "type": "address"
        },
        {
          "indexed": true,
          "internalType": "address",
          "name": "forUser",
          "type": "address"
        },
        {
          "indexed": false,
          "internalType": "uint256",
          "name": "amount",
          "type": "uint256"
        }
      ],
      "name": "Deposit",
      "type": "event"
    },
    {
      "anonymous": false,
      "inputs": [
        {
          "indexed": true,
          "internalType": "uint256",
          "name": "voteId",
          "type": "uint256"
        },
        {
          "indexed": false,
          "internalType": "uint256",
          "name": "beginAt",
          "type": "uint256"
        },
        {
          "indexed": false,
          "internalType": "uint256",
          "name": "voteAt",
          "type": "uint256"
        },
        {
          "indexed": false,
          "internalType": "uint256",
          "name": "unlockAt",
          "type": "uint256"
        },
        {
          "indexed": false,
          "internalType": "uint256",
          "name": "finishAt",
          "type": "uint256"
        }
      ],
      "name": "NewVote",
      "type": "event"
    },
    {
      "anonymous": false,
      "inputs": [
        {
          "indexed": true,
          "internalType": "address",
          "name": "previousOwner",
          "type": "address"
        },
        {
          "indexed": true,
          "internalType": "address",
          "name": "newOwner",
          "type": "address"
        }
      ],
      "name": "OwnershipTransferred",
      "type": "event"
    },
    {
      "anonymous": false,
      "inputs": [
        {
          "indexed": true,
          "internalType": "uint256",
          "name": "voteId",
          "type": "uint256"
        },
        {
          "indexed": true,
          "internalType": "address",
          "name": "user",
          "type": "address"
        },
        {
          "indexed": true,
          "internalType": "address",
          "name": "forUser",
          "type": "address"
        },
        {
          "indexed": false,
          "internalType": "uint256",
          "name": "amount",
          "type": "uint256"
        }
      ],
      "name": "Withdraw",
      "type": "event"
    },
    {
      "inputs": [],
      "name": "CLEAN_DURATION",
      "outputs": [
        {
          "internalType": "uint256",
          "name": "",
          "type": "uint256"
        }
      ],
      "stateMutability": "view",
      "type": "function"
    },
    {
      "inputs": [],
      "name": "PREPARE_DURATION",
      "outputs": [
        {
          "internalType": "uint256",
          "name": "",
          "type": "uint256"
        }
      ],
      "stateMutability": "view",
      "type": "function"
    },
    {
      "inputs": [],
      "name": "RATIO",
      "outputs": [
        {
          "internalType": "uint256",
          "name": "",
          "type": "uint256"
        }
      ],
      "stateMutability": "view",
      "type": "function"
    },
    {
      "inputs": [],
      "name": "VOTE_DURATION",
      "outputs": [
        {
          "internalType": "uint256",
          "name": "",
          "type": "uint256"
        }
      ],
      "stateMutability": "view",
      "type": "function"
    },
    {
      "inputs": [],
      "name": "beginAt",
      "outputs": [
        {
          "internalType": "uint256",
          "name": "",
          "type": "uint256"
        }
      ],
      "stateMutability": "view",
      "type": "function"
    },
    {
      "inputs": [],
      "name": "cairoToken",
      "outputs": [
        {
          "internalType": "contract IBEP20",
          "name": "",
          "type": "address"
        }
      ],
      "stateMutability": "view",
      "type": "function"
    },
    {
      "inputs": [
        {
          "internalType": "uint256",
          "name": "_voteId",
          "type": "uint256"
        },
        {
          "internalType": "address",
          "name": "_user",
          "type": "address"
        },
        {
          "internalType": "address",
          "name": "_for",
          "type": "address"
        }
      ],
      "name": "claim",
      "outputs": [],
      "stateMutability": "nonpayable",
      "type": "function"
    },
    {
      "inputs": [
        {
          "internalType": "uint256",
          "name": "_voteId",
          "type": "uint256"
        },
        {
          "internalType": "address",
          "name": "_user",
          "type": "address"
        },
        {
          "internalType": "address[]",
          "name": "_forUsers",
          "type": "address[]"
        }
      ],
      "name": "claimAll",
      "outputs": [],
      "stateMutability": "nonpayable",
      "type": "function"
    },
    {
      "inputs": [],
      "name": "createPool",
      "outputs": [
        {
          "internalType": "uint256",
          "name": "",
          "type": "uint256"
        }
      ],
      "stateMutability": "nonpayable",
      "type": "function"
    },
    {
      "inputs": [],
      "name": "currentVoteId",
      "outputs": [
        {
          "internalType": "uint256",
          "name": "",
          "type": "uint256"
        }
      ],
      "stateMutability": "view",
      "type": "function"
    },
    {
      "inputs": [
        {
          "internalType": "uint256",
          "name": "_voteId",
          "type": "uint256"
        },
        {
          "internalType": "address",
          "name": "_for",
          "type": "address"
        },
        {
          "internalType": "uint256",
          "name": "amount",
          "type": "uint256"
        }
      ],
      "name": "deposit",
      "outputs": [],
      "stateMutability": "nonpayable",
      "type": "function"
    },
    {
      "inputs": [
        {
          "internalType": "uint256",
          "name": "",
          "type": "uint256"
        },
        {
          "internalType": "address",
          "name": "",
          "type": "address"
        }
      ],
      "name": "getVotes",
      "outputs": [
        {
          "internalType": "uint256",
          "name": "",
          "type": "uint256"
        }
      ],
      "stateMutability": "view",
      "type": "function"
    },
    {
      "inputs": [],
      "name": "masterChef",
      "outputs": [
        {
          "internalType": "contract MasterChef",
          "name": "",
          "type": "address"
        }
      ],
      "stateMutability": "view",
      "type": "function"
    },
    {
      "inputs": [],
      "name": "owner",
      "outputs": [
        {
          "internalType": "address",
          "name": "",
          "type": "address"
        }
      ],
      "stateMutability": "view",
      "type": "function"
    },
    {
      "inputs": [
        {
          "internalType": "uint256",
          "name": "_voteId",
          "type": "uint256"
        },
        {
          "internalType": "address",
          "name": "_for",
          "type": "address"
        },
        {
          "internalType": "address",
          "name": "_user",
          "type": "address"
        }
      ],
      "name": "pending",
      "outputs": [
        {
          "internalType": "uint256",
          "name": "",
          "type": "uint256"
        }
      ],
      "stateMutability": "view",
      "type": "function"
    },
    {
      "inputs": [
        {
          "internalType": "uint256",
          "name": "",
          "type": "uint256"
        }
      ],
      "name": "poolInfo",
      "outputs": [
        {
          "internalType": "bool",
          "name": "avaliable",
          "type": "bool"
        },
        {
          "internalType": "uint256",
          "name": "startAt",
          "type": "uint256"
        },
        {
          "internalType": "uint256",
          "name": "voteAt",
          "type": "uint256"
        },
        {
          "internalType": "uint256",
          "name": "unlockAt",
          "type": "uint256"
        },
        {
          "internalType": "uint256",
          "name": "finishAt",
          "type": "uint256"
        },
        {
          "internalType": "uint256",
          "name": "totalAmount",
          "type": "uint256"
        }
      ],
      "stateMutability": "view",
      "type": "function"
    },
    {
      "inputs": [],
      "name": "renounceOwnership",
      "outputs": [],
      "stateMutability": "nonpayable",
      "type": "function"
    },
    {
      "inputs": [
        {
          "internalType": "address",
          "name": "newOwner",
          "type": "address"
        }
      ],
      "name": "transferOwnership",
      "outputs": [],
      "stateMutability": "nonpayable",
      "type": "function"
    },
    {
      "inputs": [
        {
          "internalType": "uint256",
          "name": "",
          "type": "uint256"
        },
        {
          "internalType": "address",
          "name": "",
          "type": "address"
        },
        {
          "internalType": "address",
          "name": "",
          "type": "address"
        }
      ],
      "name": "userInfo",
      "outputs": [
        {
          "internalType": "uint256",
          "name": "amount",
          "type": "uint256"
        },
        {
          "internalType": "uint256",
          "name": "rewardDebt",
          "type": "uint256"
        },
        {
          "internalType": "uint256",
          "name": "pending",
          "type": "uint256"
        }
      ],
      "stateMutability": "view",
      "type": "function"
    },
    {
      "inputs": [
        {
          "internalType": "uint256",
          "name": "_voteId",
          "type": "uint256"
        },
        {
          "internalType": "address",
          "name": "_for",
          "type": "address"
        }
      ],
      "name": "withdraw",
      "outputs": [],
      "stateMutability": "nonpayable",
      "type": "function"
    }
  ],
  "bytecode": "0x60e0604052600060025560006003553480156200001b57600080fd5b5060405162002b5e38038062002b5e8339810160408190526200003e9162000374565b600080546001600160a01b031916339081178255604051909182917f8be0079c531659141344cd1fd0a4f28419497f9722a3daafe3b4186f6b6457e0908290a350600180556200009e81620546006200030a602090811b62001e5f17901c565b421115620000e55760405162461bcd60e51b815260206004820152600f60248201526e1a5b1b1959d85b08189959da5b905d608a1b60448201526064015b60405180910390fd5b6001600160a01b0383166200013d5760405162461bcd60e51b815260206004820152601f60248201527f5f6d61737465724368656620616464726573732063616e6e6f742062652030006044820152606401620000dc565b6001600160a01b038216620001955760405162461bcd60e51b815260206004820152601f60248201527f5f636169726f546f6b656e20616464726573732063616e6e6f742062652030006044820152606401620000dc565b6001600160601b0319606084811b8216608090815284821b90921660a090815260c08481526040805191820181526000808352908201819052928101839052928301829052820152602080820183905262000200908390620546009062001e5f6200030a821b17901c565b604082018190526200022290620151806200030a602090811b62001e5f17901c565b6060820181905262000244906202a2ff6200030a602090811b62001e5f17901c565b6080820152600180825260006003556005546200026191620003bb565b600581815560009182526004602081815260408085208651815460ff1916901515178155868301516001820181905587830151600283018190556060808a0151600385018190556080808c015198860189905560a08c0151959099019490945584519283529482015291820152908101919091527f170d78ac8113080054464c41c8e1de98bb458b0835052a8fa66c40146e626b60910160405180910390a250505050620003f9565b600080620003198385620003bb565b9050838110156200036d5760405162461bcd60e51b815260206004820152601b60248201527f536166654d6174683a206164646974696f6e206f766572666c6f7700000000006044820152606401620000dc565b9392505050565b60008060006060848603121562000389578283fd5b83516200039681620003e0565b6020850151909350620003a981620003e0565b80925050604084015190509250925092565b60008219821115620003db57634e487b7160e01b81526011600452602481fd5b500190565b6001600160a01b0381168114620003f657600080fd5b50565b60805160601c60a05160601c60c051612687620004d7600039600061014a015260008181610184015281816105560152818161066c0152818161083a0152818161099801528181610c6801528181610d7801528181610f24015281816110820152818161162d0152818161166c01528181611782015261181f0152600081816102bb015281816105f1015281816107ac015281816108610152818161091301528181610cfd01528181610e9601528181610f4b01528181610ffd0152818161170701528181611846015281816118f80152611bef01526126876000f3fe608060405234801561001057600080fd5b506004361061012b5760003560e01c806368197360116100ad5780639ae052eb116100715780639ae052eb14610341578063ab0470fa14610354578063bc157ac11461035e578063ef42829a14610371578063f2fde38b1461038457600080fd5b806368197360146102ec578063715018a6146103175780638da5cb5b1461031f5780639100b5dd146103305780639a06b1131461033957600080fd5b80632cd1b113116100f45780632cd1b1131461023e5780632e0a62bc146102515780634654ff05146102ac578063575a86b2146102b657806359e741d2146102dd57600080fd5b8062f714ce146101305780630a68aba41461014557806311af210e1461017f5780631526fe27146101be578063297aca7714610234575b600080fd5b61014361013e36600461236d565b610397565b005b61016c7f000000000000000000000000000000000000000000000000000000000000000081565b6040519081526020015b60405180910390f35b6101a67f000000000000000000000000000000000000000000000000000000000000000081565b6040516001600160a01b039091168152602001610176565b6102056101cc36600461233d565b600460208190526000918252604090912080546001820154600283015460038401549484015460059094015460ff909316949193909286565b6040805196151587526020870195909552938501929092526060840152608083015260a082015260c001610176565b61016c6205460081565b61014361024c366004612398565b610b3b565b61029161025f366004612398565b600660209081526000938452604080852082529284528284209052825290208054600182015460029092015490919083565b60408051938452602084019290925290820152606001610176565b61016c6201518081565b6101a67f000000000000000000000000000000000000000000000000000000000000000081565b61016c670de0b6b3a764000081565b61016c6102fa36600461236d565b600760209081526000928352604080842090915290825290205481565b61014361115f565b6000546001600160a01b03166101a6565b61016c60055481565b61016c611203565b61014361034f3660046123d3565b61145b565b61016c6202a2ff81565b61014361036c3660046124b6565b6114b1565b61016c61037f366004612398565b611bc6565b610143610392366004612303565b611d45565b600260015414156103c35760405162461bcd60e51b81526004016103ba90612539565b60405180910390fd5b60026001556103d0611203565b50600082815260046020818152604092839020835160c081018552815460ff1615158082526001830154938201939093526002820154948101949094526003810154606085015291820154608084015260059091015460a08301526104685760405162461bcd60e51b815260206004820152600e60248201526d1a5b1b1959d85b081d9bdd19525960921b60448201526064016103ba565b806060015142116104b05760405162461bcd60e51b81526020600482015260126024820152716e6f74207468652072696768742074696d6560701b60448201526064016103ba565b600083815260066020908152604080832033845282528083206001600160a01b0386168452825291829020825160608101845281548082526001830154938201939093526002909101549281019290925261053e5760405162461bcd60e51b815260206004820152600e60248201526d1a5b1b1959d85b08185b5bdd5b9d60921b60448201526064016103ba565b6040516370a0823160e01b81523060048201526000907f00000000000000000000000000000000000000000000000000000000000000006001600160a01b0316906370a082319060240160206040518083038186803b1580156105a057600080fd5b505afa1580156105b4573d6000803e3d6000fd5b505050506040513d601f19601f820116820180604052508101906105d89190612355565b604051631058d28160e01b8152600060048201529091507f00000000000000000000000000000000000000000000000000000000000000006001600160a01b031690631058d28190602401600060405180830381600087803b15801561063d57600080fd5b505af1158015610651573d6000803e3d6000fd5b50506040516370a0823160e01b8152306004820152600092507f00000000000000000000000000000000000000000000000000000000000000006001600160a01b031691506370a082319060240160206040518083038186803b1580156106b757600080fd5b505afa1580156106cb573d6000803e3d6000fd5b505050506040513d601f19601f820116820180604052508101906106ef9190612355565b905060006106fd8284611ec7565b60025490915081158015906107125750600081115b156107435761073f6107368261073085670de0b6b3a7640000611f09565b90611f88565b60035490611e5f565b6003555b600061078661077b8760200151610775670de0b6b3a76400006107306003548c60000151611f0990919063ffffffff16565b90611ec7565b604088015190611e5f565b8651909150600090610799908390611e5f565b9050838110610830576001600160a01b037f000000000000000000000000000000000000000000000000000000000000000016631058d2816107db8387611ec7565b6040518263ffffffff1660e01b81526004016107f991815260200190565b600060405180830381600087803b15801561081357600080fd5b505af1158015610827573d6000803e3d6000fd5b50505050610993565b6001600160a01b037f00000000000000000000000000000000000000000000000000000000000000001663095ea7b37f000000000000000000000000000000000000000000000000000000000000000061088a8785611ec7565b6040516001600160e01b031960e085901b1681526001600160a01b0390921660048301526024820152604401602060405180830381600087803b1580156108d057600080fd5b505af11580156108e4573d6000803e3d6000fd5b505050506040513d601f19601f82011682018060405250810190610908919061231d565b506001600160a01b037f0000000000000000000000000000000000000000000000000000000000000000166341441d3b6109428684611ec7565b6040518263ffffffff1660e01b815260040161096091815260200190565b600060405180830381600087803b15801561097a57600080fd5b505af115801561098e573d6000803e3d6000fd5b505050505b6109be7f00000000000000000000000000000000000000000000000000000000000000003383611fca565b8115610a1357886001600160a01b0316336001600160a01b03168b7fa27580a77a01c86ee8598d930ae5f9a0ec6f146c6e0e9e9f50b95bacb337871885604051610a0a91815260200190565b60405180910390a45b8651610a20908490611ec7565b600255865160a0890151610a3391611ec7565b60008b81526004602081815260408084206005019485556006825280842033855282528084206001600160a01b038f1685528252832083815560018101849055600201839055918d9052905254610ae75760008a8152600460208190526040808320805460ff191681556001810184905560028101849055600381018490559182018390556005909101829055518b917f62b40dbdd398afbdb101b84e7af81b1d58422a4ace252a0ee804c175f812d65d91a25b86516040519081526001600160a01b038a169033908c907ffeb2000dca3e617cd6f3a8bbb63014bb54a124aac6ccbf73ee7229b4cd01f1209060200160405180910390a45050600180555050505050505050565b60026001541415610b5e5760405162461bcd60e51b81526004016103ba90612539565b6002600155610b6b611203565b50600083815260046020818152604092839020835160c081018552815460ff1615158082526001830154938201939093526002820154948101949094526003810154606085015291820154608084015260059091015460a0830152610c035760405162461bcd60e51b815260206004820152600e60248201526d1a5b1b195859db081d9bdd19525960921b60448201526064016103ba565b60008481526006602090815260408083206001600160a01b03878116855290835281842086821685528352818420825160608101845281548152600182015494810194909452600201548383015290516370a0823160e01b81523060048201529192917f0000000000000000000000000000000000000000000000000000000000000000909116906370a082319060240160206040518083038186803b158015610cac57600080fd5b505afa158015610cc0573d6000803e3d6000fd5b505050506040513d601f19601f82011682018060405250810190610ce49190612355565b604051631058d28160e01b8152600060048201529091507f00000000000000000000000000000000000000000000000000000000000000006001600160a01b031690631058d28190602401600060405180830381600087803b158015610d4957600080fd5b505af1158015610d5d573d6000803e3d6000fd5b50506040516370a0823160e01b8152306004820152600092507f00000000000000000000000000000000000000000000000000000000000000006001600160a01b031691506370a082319060240160206040518083038186803b158015610dc357600080fd5b505afa158015610dd7573d6000803e3d6000fd5b505050506040513d601f19601f82011682018060405250810190610dfb9190612355565b90506000610e098284611ec7565b6002549091508115801590610e1e5750600081115b15610e4057610e3c6107368261073085670de0b6b3a7640000611f09565b6003555b6000610e7261077b8760200151610775670de0b6b3a76400006107306003548c60000151611f0990919063ffffffff16565b905080610e855750505050505050611156565b828110610f1a576001600160a01b037f000000000000000000000000000000000000000000000000000000000000000016631058d281610ec58386611ec7565b6040518263ffffffff1660e01b8152600401610ee391815260200190565b600060405180830381600087803b158015610efd57600080fd5b505af1158015610f11573d6000803e3d6000fd5b5050505061107d565b6001600160a01b037f00000000000000000000000000000000000000000000000000000000000000001663095ea7b37f0000000000000000000000000000000000000000000000000000000000000000610f748685611ec7565b6040516001600160e01b031960e085901b1681526001600160a01b0390921660048301526024820152604401602060405180830381600087803b158015610fba57600080fd5b505af1158015610fce573d6000803e3d6000fd5b505050506040513d601f19601f82011682018060405250810190610ff2919061231d565b506001600160a01b037f0000000000000000000000000000000000000000000000000000000000000000166341441d3b61102c8584611ec7565b6040518263ffffffff1660e01b815260040161104a91815260200190565b600060405180830381600087803b15801561106457600080fd5b505af1158015611078573d6000803e3d6000fd5b505050505b6110a87f00000000000000000000000000000000000000000000000000000000000000008a83611fca565b876001600160a01b0316896001600160a01b03168b7fa27580a77a01c86ee8598d930ae5f9a0ec6f146c6e0e9e9f50b95bacb3378718846040516110ee91815260200190565b60405180910390a4600354865161111291670de0b6b3a76400009161073091611f09565b60008b81526006602090815260408083206001600160a01b038e81168552908352818420908d16845290915281206001810192909255600290910155505050505050505b50506001805550565b6000546001600160a01b031633146111b95760405162461bcd60e51b815260206004820181905260248201527f4f776e61626c653a2063616c6c6572206973206e6f7420746865206f776e657260448201526064016103ba565b600080546040516001600160a01b03909116907f8be0079c531659141344cd1fd0a4f28419497f9722a3daafe3b4186f6b6457e0908390a3600080546001600160a01b0319169055565b600580546000818152600460208181526040808420815160c081018352815460ff1615158152600182015493810193909352600281015491830191909152600381015460608301529182015460808201819052919094015460a08501529092904210611455576112a46040518060c0016040528060001515815260200160008152602001600081526020016000815260200160008152602001600081525090565b60808201516112b4906001611e5f565b602082018190526112c89062054600611e5f565b604082018190526112dc9062015180611e5f565b606082018190526112f0906202a2ff611e5f565b60808201526001808252611305908490612570565b6005558060046000611318866001612570565b815260208082019290925260409081016000208351815460ff19169015151781559183015160018301558201516002820155606082015160038201556080820151600482015560a0918201516005909101558201516113d4576000838152600460208190526040808320805460ff1916815560018101849055600281018490556003810184905591820183905560059091018290555184917f62b40dbdd398afbdb101b84e7af81b1d58422a4ace252a0ee804c175f812d65d91a25b6113df836001612570565b7f170d78ac8113080054464c41c8e1de98bb458b0835052a8fa66c40146e626b60826020015183604001518460600151856080015160405161143a949392919093845260208401929092526040830152606082015260800190565b60405180910390a261144d836001612570565b935050505090565b50919050565b60005b81518110156114ab57611499848484848151811061148c57634e487b7160e01b600052603260045260246000fd5b6020026020010151610b3b565b806114a38161260a565b91505061145e565b50505050565b600260015414156114d45760405162461bcd60e51b81526004016103ba90612539565b60026001556001600160a01b03821661152f5760405162461bcd60e51b815260206004820152601860248201527f5f666f7220616464726573732063616e6e6f742062652030000000000000000060448201526064016103ba565b611537611203565b50600083815260046020818152604092839020835160c081018552815460ff1615158082526001830154938201939093526002820154948101949094526003810154606085015291820154608084015260059091015460a08301526115cf5760405162461bcd60e51b815260206004820152600e60248201526d1a5b1b1959d85b081d9bdd19525960921b60448201526064016103ba565b806040015142101580156115e7575080606001514211155b6116285760405162461bcd60e51b81526020600482015260126024820152716e6f74207468652072696768742074696d6560701b60448201526064016103ba565b6116547f0000000000000000000000000000000000000000000000000000000000000000333085612032565b6040516370a0823160e01b81523060048201526000907f00000000000000000000000000000000000000000000000000000000000000006001600160a01b0316906370a082319060240160206040518083038186803b1580156116b657600080fd5b505afa1580156116ca573d6000803e3d6000fd5b505050506040513d601f19601f820116820180604052508101906116ee9190612355565b604051631058d28160e01b8152600060048201529091507f00000000000000000000000000000000000000000000000000000000000000006001600160a01b031690631058d28190602401600060405180830381600087803b15801561175357600080fd5b505af1158015611767573d6000803e3d6000fd5b50506040516370a0823160e01b8152306004820152600092507f00000000000000000000000000000000000000000000000000000000000000006001600160a01b031691506370a082319060240160206040518083038186803b1580156117cd57600080fd5b505afa1580156117e1573d6000803e3d6000fd5b505050506040513d601f19601f820116820180604052508101906118059190612355565b905060006118138284611ec7565b90506001600160a01b037f00000000000000000000000000000000000000000000000000000000000000001663095ea7b37f000000000000000000000000000000000000000000000000000000000000000061186f8885611e5f565b6040516001600160e01b031960e085901b1681526001600160a01b0390921660048301526024820152604401602060405180830381600087803b1580156118b557600080fd5b505af11580156118c9573d6000803e3d6000fd5b505050506040513d601f19601f820116820180604052508101906118ed919061231d565b506001600160a01b037f0000000000000000000000000000000000000000000000000000000000000000166341441d3b6119278784611e5f565b6040518263ffffffff1660e01b815260040161194591815260200190565b600060405180830381600087803b15801561195f57600080fd5b505af1158015611973573d6000803e3d6000fd5b5050600254915050811580159061198a5750600081115b156119ac576119a86107368261073085670de0b6b3a7640000611f09565b6003555b600088815260066020908152604080832033845282528083206001600160a01b038b168452825291829020825160608101845281548082526001830154938201939093526002909101549281019290925215611a6c57611a3d611a328260200151610775670de0b6b3a76400006107306003548760000151611f0990919063ffffffff16565b604083015190611e5f565b60008a815260066020908152604080832033845282528083206001600160a01b038d1684529091529020600201555b8051611a789088611e5f565b60008a815260066020908152604080832033845282528083206001600160a01b038d1684529091529020558051611aca90670de0b6b3a76400009061073090611ac1908b611e5f565b60035490611f09565b60008a815260066020908152604080832033845282528083206001600160a01b038d16845290915290206001015560a0860151611b079088611e5f565b60008a815260046020526040902060050155611b238288611e5f565b60025560008981526007602090815260408083206001600160a01b038c168452909152902054611b539088611e5f565b60008a81526007602090815260408083206001600160a01b038d16808552925291829020929092555133908b907f2c0f148b435140de488c1b34647f1511c646f7077e87007bacf22ef9977a16d890611baf908c815260200190565b60405180910390a450506001805550505050505050565b604051631175a1dd60e01b81526000600482018190523060248301529081906001600160a01b037f00000000000000000000000000000000000000000000000000000000000000001690631175a1dd9060440160206040518083038186803b158015611c3157600080fd5b505afa158015611c45573d6000803e3d6000fd5b505050506040513d601f19601f82011682018060405250810190611c699190612355565b905060025460001415611c80576000915050611d3e565b6000611ca6610736600254610730670de0b6b3a764000086611f0990919063ffffffff16565b60008781526006602090815260408083206001600160a01b038981168552908352818420908a1684529091528120600181015490549293509091611d3891611d009161077590670de0b6b3a7640000906107309088611f09565b60008981526006602090815260408083206001600160a01b03808c168552908352818420908c16845290915290206002015490611e5f565b93505050505b9392505050565b6000546001600160a01b03163314611d9f5760405162461bcd60e51b815260206004820181905260248201527f4f776e61626c653a2063616c6c6572206973206e6f7420746865206f776e657260448201526064016103ba565b6001600160a01b038116611e045760405162461bcd60e51b815260206004820152602660248201527f4f776e61626c653a206e6577206f776e657220697320746865207a65726f206160448201526564647265737360d01b60648201526084016103ba565b600080546040516001600160a01b03808516939216917f8be0079c531659141344cd1fd0a4f28419497f9722a3daafe3b4186f6b6457e091a3600080546001600160a01b0319166001600160a01b0392909216919091179055565b600080611e6c8385612570565b905083811015611ebe5760405162461bcd60e51b815260206004820152601b60248201527f536166654d6174683a206164646974696f6e206f766572666c6f77000000000060448201526064016103ba565b90505b92915050565b6000611ebe83836040518060400160405280601e81526020017f536166654d6174683a207375627472616374696f6e206f766572666c6f77000081525061206a565b600082611f1857506000611ec1565b6000611f2483856125a8565b905082611f318583612588565b14611ebe5760405162461bcd60e51b815260206004820152602160248201527f536166654d6174683a206d756c7469706c69636174696f6e206f766572666c6f6044820152607760f81b60648201526084016103ba565b6000611ebe83836040518060400160405280601a81526020017f536166654d6174683a206469766973696f6e206279207a65726f0000000000008152506120a4565b6040516001600160a01b03831660248201526044810182905261202d90849063a9059cbb60e01b906064015b60408051601f198184030181529190526020810180516001600160e01b03166001600160e01b0319909316929092179091526120d2565b505050565b6040516001600160a01b03808516602483015283166044820152606481018290526114ab9085906323b872dd60e01b90608401611ff6565b6000818484111561208e5760405162461bcd60e51b81526004016103ba9190612506565b50600061209b84866125c7565b95945050505050565b600081836120c55760405162461bcd60e51b81526004016103ba9190612506565b50600061209b8486612588565b6000612127826040518060400160405280602081526020017f5361666542455032303a206c6f772d6c6576656c2063616c6c206661696c6564815250856001600160a01b03166121a49092919063ffffffff16565b80519091501561202d5780806020019051810190612145919061231d565b61202d5760405162461bcd60e51b815260206004820152602a60248201527f5361666542455032303a204245503230206f7065726174696f6e20646964206e6044820152691bdd081cdd58d8d9595960b21b60648201526084016103ba565b60606121b384846000856121bb565b949350505050565b60606121c6856122ae565b6122125760405162461bcd60e51b815260206004820152601d60248201527f416464726573733a2063616c6c20746f206e6f6e2d636f6e747261637400000060448201526064016103ba565b600080866001600160a01b0316858760405161222e91906124ea565b60006040518083038185875af1925050503d806000811461226b576040519150601f19603f3d011682016040523d82523d6000602084013e612270565b606091505b509150915081156122845791506121b39050565b8051156122945780518082602001fd5b8360405162461bcd60e51b81526004016103ba9190612506565b6000813f7fc5d2460186f7233c927e7db2dcc703c0e500b653ca82273b7bfad8045d85a4708181148015906121b3575050151592915050565b80356001600160a01b03811681146122fe57600080fd5b919050565b600060208284031215612314578081fd5b611ebe826122e7565b60006020828403121561232e578081fd5b81518015158114611ebe578182fd5b60006020828403121561234e578081fd5b5035919050565b600060208284031215612366578081fd5b5051919050565b6000806040838503121561237f578081fd5b8235915061238f602084016122e7565b90509250929050565b6000806000606084860312156123ac578081fd5b833592506123bc602085016122e7565b91506123ca604085016122e7565b90509250925092565b6000806000606084860312156123e7578283fd5b8335925060206123f88186016122e7565b9250604085013567ffffffffffffffff80821115612414578384fd5b818701915087601f830112612427578384fd5b8135818111156124395761243961263b565b8060051b604051601f19603f8301168101818110858211171561245e5761245e61263b565b604052828152858101935084860182860187018c101561247c578788fd5b8795505b838610156124a557612491816122e7565b855260019590950194938601938601612480565b508096505050505050509250925092565b6000806000606084860312156124ca578283fd5b833592506124da602085016122e7565b9150604084013590509250925092565b600082516124fc8184602087016125de565b9190910192915050565b60208152600082518060208401526125258160408501602087016125de565b601f01601f19169190910160400192915050565b6020808252601f908201527f5265656e7472616e637947756172643a207265656e7472616e742063616c6c00604082015260600190565b6000821982111561258357612583612625565b500190565b6000826125a357634e487b7160e01b81526012600452602481fd5b500490565b60008160001904831182151516156125c2576125c2612625565b500290565b6000828210156125d9576125d9612625565b500390565b60005b838110156125f95781810151838201526020016125e1565b838111156114ab5750506000910152565b600060001982141561261e5761261e612625565b5060010190565b634e487b7160e01b600052601160045260246000fd5b634e487b7160e01b600052604160045260246000fdfea2646970667358221220c283b2fb2d3be629efe1065a72a8ab611515de01f37c286902ebd41b4f36732064736f6c63430008040033",
  "linkReferences": {},
  "deployedLinkReferences": {}
}