{
  "_format": "hh-sol-artifact-1",
  "contractName": "SmartChefInitializable",
  "sourceName": "contracts/farm/PoolFactory.sol",
  "abi": [
    {
      "inputs": [],
      "stateMutability": "nonpayable",
      "type": "constructor"
    },
    {
      "anonymous": false,
      "inputs": [
        {
          "indexed": false,
          "internalType": "address",
          "name": "tokenRecovered",
          "type": "address"
        },
        {
          "indexed": false,
          "internalType": "uint256",
          "name": "amount",
          "type": "uint256"
        }
      ],
      "name": "AdminTokenRecovery",
      "type": "event"
    },
    {
      "anonymous": false,
      "inputs": [
        {
          "indexed": true,
          "internalType": "address",
          "name": "user",
          "type": "address"
        },
        {
          "indexed": false,
          "internalType": "uint256",
          "name": "amount",
          "type": "uint256"
        }
      ],
      "name": "Deposit",
      "type": "event"
    },
    {
      "anonymous": false,
      "inputs": [
        {
          "indexed": true,
          "internalType": "address",
          "name": "user",
          "type": "address"
        },
        {
          "indexed": false,
          "internalType": "uint256",
          "name": "amount",
          "type": "uint256"
        }
      ],
      "name": "EmergencyWithdraw",
      "type": "event"
    },
    {
      "anonymous": false,
      "inputs": [
        {
          "indexed": false,
          "internalType": "uint256",
          "name": "poolLimitPerUser",
          "type": "uint256"
        }
      ],
      "name": "NewPoolLimit",
      "type": "event"
    },
    {
      "anonymous": false,
      "inputs": [
        {
          "indexed": false,
          "internalType": "uint256",
          "name": "rewardPerBlock",
          "type": "uint256"
        }
      ],
      "name": "NewRewardPerBlock",
      "type": "event"
    },
    {
      "anonymous": false,
      "inputs": [
        {
          "indexed": false,
          "internalType": "uint256",
          "name": "startBlock",
          "type": "uint256"
        },
        {
          "indexed": false,
          "internalType": "uint256",
          "name": "endBlock",
          "type": "uint256"
        }
      ],
      "name": "NewStartAndEndBlocks",
      "type": "event"
    },
    {
      "anonymous": false,
      "inputs": [
        {
          "indexed": true,
          "internalType": "address",
          "name": "previousOwner",
          "type": "address"
        },
        {
          "indexed": true,
          "internalType": "address",
          "name": "newOwner",
          "type": "address"
        }
      ],
      "name": "OwnershipTransferred",
      "type": "event"
    },
    {
      "anonymous": false,
      "inputs": [
        {
          "indexed": false,
          "internalType": "uint256",
          "name": "blockNumber",
          "type": "uint256"
        }
      ],
      "name": "RewardsStop",
      "type": "event"
    },
    {
      "anonymous": false,
      "inputs": [
        {
          "indexed": true,
          "internalType": "address",
          "name": "user",
          "type": "address"
        },
        {
          "indexed": false,
          "internalType": "uint256",
          "name": "amount",
          "type": "uint256"
        }
      ],
      "name": "Withdraw",
      "type": "event"
    },
    {
      "inputs": [],
      "name": "PRECISION_FACTOR",
      "outputs": [
        {
          "internalType": "uint256",
          "name": "",
          "type": "uint256"
        }
      ],
      "stateMutability": "view",
      "type": "function"
    },
    {
      "inputs": [],
      "name": "SMART_CHEF_FACTORY",
      "outputs": [
        {
          "internalType": "address",
          "name": "",
          "type": "address"
        }
      ],
      "stateMutability": "view",
      "type": "function"
    },
    {
      "inputs": [],
      "name": "accTokenPerShare",
      "outputs": [
        {
          "internalType": "uint256",
          "name": "",
          "type": "uint256"
        }
      ],
      "stateMutability": "view",
      "type": "function"
    },
    {
      "inputs": [],
      "name": "bonusEndBlock",
      "outputs": [
        {
          "internalType": "uint256",
          "name": "",
          "type": "uint256"
        }
      ],
      "stateMutability": "view",
      "type": "function"
    },
    {
      "inputs": [
        {
          "internalType": "uint256",
          "name": "_amount",
          "type": "uint256"
        }
      ],
      "name": "deposit",
      "outputs": [],
      "stateMutability": "nonpayable",
      "type": "function"
    },
    {
      "inputs": [
        {
          "internalType": "uint256",
          "name": "_amount",
          "type": "uint256"
        }
      ],
      "name": "emergencyRewardWithdraw",
      "outputs": [],
      "stateMutability": "nonpayable",
      "type": "function"
    },
    {
      "inputs": [],
      "name": "emergencyWithdraw",
      "outputs": [],
      "stateMutability": "nonpayable",
      "type": "function"
    },
    {
      "inputs": [],
      "name": "hasUserLimit",
      "outputs": [
        {
          "internalType": "bool",
          "name": "",
          "type": "bool"
        }
      ],
      "stateMutability": "view",
      "type": "function"
    },
    {
      "inputs": [
        {
          "internalType": "contract IBEP20",
          "name": "_stakedToken",
          "type": "address"
        },
        {
          "internalType": "contract IBEP20",
          "name": "_rewardToken",
          "type": "address"
        },
        {
          "internalType": "uint256",
          "name": "_rewardPerBlock",
          "type": "uint256"
        },
        {
          "internalType": "uint256",
          "name": "_startBlock",
          "type": "uint256"
        },
        {
          "internalType": "uint256",
          "name": "_bonusEndBlock",
          "type": "uint256"
        },
        {
          "internalType": "uint256",
          "name": "_poolLimitPerUser",
          "type": "uint256"
        },
        {
          "internalType": "address",
          "name": "_admin",
          "type": "address"
        }
      ],
      "name": "initialize",
      "outputs": [],
      "stateMutability": "nonpayable",
      "type": "function"
    },
    {
      "inputs": [],
      "name": "isInitialized",
      "outputs": [
        {
          "internalType": "bool",
          "name": "",
          "type": "bool"
        }
      ],
      "stateMutability": "view",
      "type": "function"
    },
    {
      "inputs": [],
      "name": "lastRewardBlock",
      "outputs": [
        {
          "internalType": "uint256",
          "name": "",
          "type": "uint256"
        }
      ],
      "stateMutability": "view",
      "type": "function"
    },
    {
      "inputs": [],
      "name": "owner",
      "outputs": [
        {
          "internalType": "address",
          "name": "",
          "type": "address"
        }
      ],
      "stateMutability": "view",
      "type": "function"
    },
    {
      "inputs": [
        {
          "internalType": "address",
          "name": "_user",
          "type": "address"
        }
      ],
      "name": "pendingReward",
      "outputs": [
        {
          "internalType": "uint256",
          "name": "",
          "type": "uint256"
        }
      ],
      "stateMutability": "view",
      "type": "function"
    },
    {
      "inputs": [],
      "name": "poolLimitPerUser",
      "outputs": [
        {
          "internalType": "uint256",
          "name": "",
          "type": "uint256"
        }
      ],
      "stateMutability": "view",
      "type": "function"
    },
    {
      "inputs": [
        {
          "internalType": "address",
          "name": "_tokenAddress",
          "type": "address"
        },
        {
          "internalType": "uint256",
          "name": "_tokenAmount",
          "type": "uint256"
        }
      ],
      "name": "recoverWrongTokens",
      "outputs": [],
      "stateMutability": "nonpayable",
      "type": "function"
    },
    {
      "inputs": [],
      "name": "renounceOwnership",
      "outputs": [],
      "stateMutability": "nonpayable",
      "type": "function"
    },
    {
      "inputs": [],
      "name": "rewardPerBlock",
      "outputs": [
        {
          "internalType": "uint256",
          "name": "",
          "type": "uint256"
        }
      ],
      "stateMutability": "view",
      "type": "function"
    },
    {
      "inputs": [],
      "name": "rewardToken",
      "outputs": [
        {
          "internalType": "contract IBEP20",
          "name": "",
          "type": "address"
        }
      ],
      "stateMutability": "view",
      "type": "function"
    },
    {
      "inputs": [],
      "name": "stakedToken",
      "outputs": [
        {
          "internalType": "contract IBEP20",
          "name": "",
          "type": "address"
        }
      ],
      "stateMutability": "view",
      "type": "function"
    },
    {
      "inputs": [],
      "name": "startBlock",
      "outputs": [
        {
          "internalType": "uint256",
          "name": "",
          "type": "uint256"
        }
      ],
      "stateMutability": "view",
      "type": "function"
    },
    {
      "inputs": [],
      "name": "stopReward",
      "outputs": [],
      "stateMutability": "nonpayable",
      "type": "function"
    },
    {
      "inputs": [
        {
          "internalType": "address",
          "name": "newOwner",
          "type": "address"
        }
      ],
      "name": "transferOwnership",
      "outputs": [],
      "stateMutability": "nonpayable",
      "type": "function"
    },
    {
      "inputs": [
        {
          "internalType": "bool",
          "name": "_hasUserLimit",
          "type": "bool"
        },
        {
          "internalType": "uint256",
          "name": "_poolLimitPerUser",
          "type": "uint256"
        }
      ],
      "name": "updatePoolLimitPerUser",
      "outputs": [],
      "stateMutability": "nonpayable",
      "type": "function"
    },
    {
      "inputs": [
        {
          "internalType": "uint256",
          "name": "_rewardPerBlock",
          "type": "uint256"
        }
      ],
      "name": "updateRewardPerBlock",
      "outputs": [],
      "stateMutability": "nonpayable",
      "type": "function"
    },
    {
      "inputs": [
        {
          "internalType": "uint256",
          "name": "_startBlock",
          "type": "uint256"
        },
        {
          "internalType": "uint256",
          "name": "_bonusEndBlock",
          "type": "uint256"
        }
      ],
      "name": "updateStartAndEndBlocks",
      "outputs": [],
      "stateMutability": "nonpayable",
      "type": "function"
    },
    {
      "inputs": [
        {
          "internalType": "address",
          "name": "",
          "type": "address"
        }
      ],
      "name": "userInfo",
      "outputs": [
        {
          "internalType": "uint256",
          "name": "amount",
          "type": "uint256"
        },
        {
          "internalType": "uint256",
          "name": "rewardDebt",
          "type": "uint256"
        }
      ],
      "stateMutability": "view",
      "type": "function"
    },
    {
      "inputs": [
        {
          "internalType": "uint256",
          "name": "_amount",
          "type": "uint256"
        }
      ],
      "name": "withdraw",
      "outputs": [],
      "stateMutability": "nonpayable",
      "type": "function"
    }
  ],
  "bytecode": "0x608060405234801561001057600080fd5b50600080546001600160a01b031916339081178255604051909182917f8be0079c531659141344cd1fd0a4f28419497f9722a3daafe3b4186f6b6457e0908290a35060018055600280546001600160a01b03191633179055611a9b806100776000396000f3fe608060405234801561001057600080fd5b50600436106101a95760003560e01c80638da5cb5b116100f9578063bd61719111610097578063db2e21bc11610071578063db2e21bc14610369578063f2fde38b14610371578063f40f0f5214610384578063f7c618c11461039757600080fd5b8063bd6171911461033a578063cc7a262e1461034d578063ccd34cd51461036057600080fd5b80639513997f116100d35780639513997f146102f8578063a0b409051461030b578063a9f8d1811461031e578063b6b55f251461032757600080fd5b80638da5cb5b146102b65780638f662915146102db57806392e8990e146102e457600080fd5b80633f138d4b11610166578063715018a611610140578063715018a61461028a57806380dc06721461029257806383a5041c1461029a5780638ae39cac146102ad57600080fd5b80633f138d4b1461026557806348cd4cb11461027857806366fe9f8a1461028157600080fd5b806301f8a976146101ae5780631959a002146101c35780631aed6553146102045780632e1a7d4d1461021b5780633279beab1461022e578063392e53cd14610241575b600080fd5b6101c16101bc36600461177a565b6103aa565b005b6101ea6101d1366004611689565b600c602052600090815260409020805460019091015482565b604080519283526020830191909152015b60405180910390f35b61020d60045481565b6040519081526020016101fb565b6101c161022936600461177a565b61045c565b6101c161023c36600461177a565b6105c5565b60025461025590600160a81b900460ff1681565b60405190151581526020016101fb565b6101c16102733660046116a5565b610609565b61020d60055481565b61020d60075481565b6101c161073c565b6101c16107b0565b6101c16102a8366004611709565b6107e0565b61020d60085481565b6000546001600160a01b03165b6040516001600160a01b0390911681526020016101fb565b61020d60035481565b60025461025590600160a01b900460ff1681565b6101c16103063660046117aa565b6109e6565b6101c16103193660046116ec565b610b67565b61020d60065481565b6101c161033536600461177a565b610c89565b6002546102c3906001600160a01b031681565b600b546102c3906001600160a01b031681565b61020d60095481565b6101c1610e10565b6101c161037f366004611689565b610ea5565b61020d610392366004611689565b610f8f565b600a546102c3906001600160a01b031681565b6000546001600160a01b031633146103dd5760405162461bcd60e51b81526004016103d49061183b565b60405180910390fd5b60055443106104215760405162461bcd60e51b815260206004820152601060248201526f141bdbdb081a185cc81cdd185c9d195960821b60448201526064016103d4565b60088190556040518181527f0c4d677eef92893ac7ec52faf8140fc6c851ab4736302b4f3a89dfb20696a0df9060200160405180910390a150565b6002600154141561047f5760405162461bcd60e51b81526004016103d490611870565b6002600155336000908152600c6020526040902080548211156104e45760405162461bcd60e51b815260206004820152601b60248201527f416d6f756e7420746f20776974686472617720746f6f2068696768000000000060448201526064016103d4565b6104ec6110e9565b6000610521826001015461051b60095461051560035487600001546111cf90919063ffffffff16565b90611257565b906112b2565b9050821561054e57815461053590846112b2565b8255600b5461054e906001600160a01b0316338561130e565b801561056b57600a5461056b906001600160a01b0316338361130e565b6009546003548354610582929161051591906111cf565b600183015560405183815233907f884edad9ce6fa2440d8a54cc123490eb96d2768479d49ff9c7366125a94243649060200160405180910390a250506001805550565b6000546001600160a01b031633146105ef5760405162461bcd60e51b81526004016103d49061183b565b600a54610606906001600160a01b0316338361130e565b50565b6000546001600160a01b031633146106335760405162461bcd60e51b81526004016103d49061183b565b600b546001600160a01b038381169116141561068a5760405162461bcd60e51b815260206004820152601660248201527521b0b73737ba1031329039ba30b5b2b2103a37b5b2b760511b60448201526064016103d4565b600a546001600160a01b03838116911614156106e15760405162461bcd60e51b815260206004820152601660248201527521b0b73737ba103132903932bbb0b932103a37b5b2b760511b60448201526064016103d4565b6106f56001600160a01b038316338361130e565b604080516001600160a01b0384168152602081018390527f74545154aac348a3eac92596bd1971957ca94795f4e954ec5f613b55fab7812991015b60405180910390a15050565b6000546001600160a01b031633146107665760405162461bcd60e51b81526004016103d49061183b565b600080546040516001600160a01b03909116907f8be0079c531659141344cd1fd0a4f28419497f9722a3daafe3b4186f6b6457e0908390a3600080546001600160a01b0319169055565b6000546001600160a01b031633146107da5760405162461bcd60e51b81526004016103d49061183b565b43600455565b600254600160a81b900460ff16156108305760405162461bcd60e51b8152602060048201526013602482015272105b1c9958591e481a5b9a5d1a585b1a5e9959606a1b60448201526064016103d4565b6002546001600160a01b031633146108785760405162461bcd60e51b815260206004820152600b60248201526a4e6f7420666163746f727960a81b60448201526064016103d4565b6002805460ff60a81b1916600160a81b179055600b80546001600160a01b03808a166001600160a01b031992831617909255600a80549289169290911691909117905560088590556005849055600483905581156108e9576002805460ff60a01b1916600160a01b17905560078290555b600a546040805163313ce56760e01b815290516000926001600160a01b03169163313ce567916004808301926020929190829003018186803b15801561092e57600080fd5b505afa158015610942573d6000803e3d6000fd5b505050506040513d601f19601f8201168201806040525081019061096691906117cb565b60ff169050601e81106109b45760405162461bcd60e51b815260206004820152601660248201527504d75737420626520696e666572696f7220746f2033360541b60448201526064016103d4565b6109bf601e826112b2565b6109ca90600a611922565b6009556005546006556109dc82610ea5565b5050505050505050565b6000546001600160a01b03163314610a105760405162461bcd60e51b81526004016103d49061183b565b6005544310610a545760405162461bcd60e51b815260206004820152601060248201526f141bdbdb081a185cc81cdd185c9d195960821b60448201526064016103d4565b808210610aba5760405162461bcd60e51b815260206004820152602e60248201527f4e6577207374617274426c6f636b206d757374206265206c6f7765722074686160448201526d6e206e657720656e64426c6f636b60901b60648201526084016103d4565b814310610b225760405162461bcd60e51b815260206004820152603060248201527f4e6577207374617274426c6f636b206d7573742062652068696768657220746860448201526f616e2063757272656e7420626c6f636b60801b60648201526084016103d4565b60058290556004819055600682905560408051838152602081018390527f7cd0ab87d19036f3dfadadb232c78aa4879dda3f0c994a9d637532410ee2ce069101610730565b6000546001600160a01b03163314610b915760405162461bcd60e51b81526004016103d49061183b565b600254600160a01b900460ff16610bd85760405162461bcd60e51b815260206004820152600b60248201526a135d5cdd081899481cd95d60aa1b60448201526064016103d4565b8115610c39576007548111610c2f5760405162461bcd60e51b815260206004820152601860248201527f4e6577206c696d6974206d75737420626520686967686572000000000000000060448201526064016103d4565b6007819055610c56565b6002805460ff60a01b1916600160a01b8415150217905560006007555b7f241f67ee5f41b7a5cabf911367329be7215900f602ebfc47f89dce2a6bcd847c60075460405161073091815260200190565b60026001541415610cac5760405162461bcd60e51b81526004016103d490611870565b60026001819055336000908152600c602052604090209054600160a01b900460ff1615610d31576007548154610ce3908490611376565b1115610d315760405162461bcd60e51b815260206004820152601760248201527f5573657220616d6f756e742061626f7665206c696d697400000000000000000060448201526064016103d4565b610d396110e9565b805415610d8a576000610d69826001015461051b60095461051560035487600001546111cf90919063ffffffff16565b90508015610d8857600a54610d88906001600160a01b0316338361130e565b505b8115610db6578054610d9c9083611376565b8155600b54610db6906001600160a01b03163330856113d5565b6009546003548254610dcd929161051591906111cf565b600182015560405182815233907fe1fffcc4923d04b559f4d29a8bfc6cda04eb5b0d3c460751c2402c5c5cc9109c906020015b60405180910390a2505060018055565b60026001541415610e335760405162461bcd60e51b81526004016103d490611870565b60026001908155336000908152600c60205260408120805482825592810191909155908015610e7357600b54610e73906001600160a01b0316338361130e565b60405181815233907f5fafa99d0643513820be26656b45130b01e1c03062e1266bf36f88cbd3bd969590602001610e00565b6000546001600160a01b03163314610ecf5760405162461bcd60e51b81526004016103d49061183b565b6001600160a01b038116610f345760405162461bcd60e51b815260206004820152602660248201527f4f776e61626c653a206e6577206f776e657220697320746865207a65726f206160448201526564647265737360d01b60648201526084016103d4565b600080546040516001600160a01b03808516939216917f8be0079c531659141344cd1fd0a4f28419497f9722a3daafe3b4186f6b6457e091a3600080546001600160a01b0319166001600160a01b0392909216919091179055565b6001600160a01b038181166000908152600c6020526040808220600b5491516370a0823160e01b8152306004820152929390928492909116906370a082319060240160206040518083038186803b158015610fe957600080fd5b505afa158015610ffd573d6000803e3d6000fd5b505050506040513d601f19601f820116820180604052508101906110219190611792565b90506006544311801561103357508015155b156110ba57600061104660065443611413565b9050600061105f600854836111cf90919063ffffffff16565b9050600061108861107f85610515600954866111cf90919063ffffffff16565b60035490611376565b90506110af856001015461051b600954610515858a600001546111cf90919063ffffffff16565b979650505050505050565b6110e1826001015461051b60095461051560035487600001546111cf90919063ffffffff16565b949350505050565b60065443116110f457565b600b546040516370a0823160e01b81523060048201526000916001600160a01b0316906370a082319060240160206040518083038186803b15801561113857600080fd5b505afa15801561114c573d6000803e3d6000fd5b505050506040513d601f19601f820116820180604052508101906111709190611792565b90508061117e575043600655565b600061118c60065443611413565b905060006111a5600854836111cf90919063ffffffff16565b90506111c361107f84610515600954856111cf90919063ffffffff16565b60035550504360065550565b6000826111de57506000611251565b60006111ea83856119ca565b9050826111f785836118bf565b1461124e5760405162461bcd60e51b815260206004820152602160248201527f536166654d6174683a206d756c7469706c69636174696f6e206f766572666c6f6044820152607760f81b60648201526084016103d4565b90505b92915050565b60008082116112a85760405162461bcd60e51b815260206004820152601a60248201527f536166654d6174683a206469766973696f6e206279207a65726f00000000000060448201526064016103d4565b61124e82846118bf565b6000828211156113045760405162461bcd60e51b815260206004820152601e60248201527f536166654d6174683a207375627472616374696f6e206f766572666c6f77000060448201526064016103d4565b61124e82846119e9565b6040516001600160a01b03831660248201526044810182905261137190849063a9059cbb60e01b906064015b60408051601f198184030181529190526020810180516001600160e01b03166001600160e01b03199093169290921790915261144d565b505050565b60008061138383856118a7565b90508381101561124e5760405162461bcd60e51b815260206004820152601b60248201527f536166654d6174683a206164646974696f6e206f766572666c6f77000000000060448201526064016103d4565b6040516001600160a01b038085166024830152831660448201526064810182905261140d9085906323b872dd60e01b9060840161133a565b50505050565b6000600454821161142f5761142882846112b2565b9050611251565b600454831061144057506000611251565b60045461142890846112b2565b60006114a2826040518060400160405280602081526020017f5361666542455032303a206c6f772d6c6576656c2063616c6c206661696c6564815250856001600160a01b031661151f9092919063ffffffff16565b80519091501561137157808060200190518101906114c091906116d0565b6113715760405162461bcd60e51b815260206004820152602a60248201527f5361666542455032303a204245503230206f7065726174696f6e20646964206e6044820152691bdd081cdd58d8d9595960b21b60648201526084016103d4565b606061152e8484600085611538565b90505b9392505050565b6060824710156115995760405162461bcd60e51b815260206004820152602660248201527f416464726573733a20696e73756666696369656e742062616c616e636520666f6044820152651c8818d85b1b60d21b60648201526084016103d4565b843b6115e75760405162461bcd60e51b815260206004820152601d60248201527f416464726573733a2063616c6c20746f206e6f6e2d636f6e747261637400000060448201526064016103d4565b600080866001600160a01b0316858760405161160391906117ec565b60006040518083038185875af1925050503d8060008114611640576040519150601f19603f3d011682016040523d82523d6000602084013e611645565b606091505b50915091506110af8282866060831561165f575081611531565b82511561166f5782518084602001fd5b8160405162461bcd60e51b81526004016103d49190611808565b60006020828403121561169a578081fd5b813561124e81611a42565b600080604083850312156116b7578081fd5b82356116c281611a42565b946020939093013593505050565b6000602082840312156116e1578081fd5b815161124e81611a57565b600080604083850312156116fe578182fd5b82356116c281611a57565b600080600080600080600060e0888a031215611723578283fd5b873561172e81611a42565b9650602088013561173e81611a42565b955060408801359450606088013593506080880135925060a0880135915060c088013561176a81611a42565b8091505092959891949750929550565b60006020828403121561178b578081fd5b5035919050565b6000602082840312156117a3578081fd5b5051919050565b600080604083850312156117bc578182fd5b50508035926020909101359150565b6000602082840312156117dc578081fd5b815160ff8116811461124e578182fd5b600082516117fe818460208701611a00565b9190910192915050565b6020815260008251806020840152611827816040850160208701611a00565b601f01601f19169190910160400192915050565b6020808252818101527f4f776e61626c653a2063616c6c6572206973206e6f7420746865206f776e6572604082015260600190565b6020808252601f908201527f5265656e7472616e637947756172643a207265656e7472616e742063616c6c00604082015260600190565b600082198211156118ba576118ba611a2c565b500190565b6000826118da57634e487b7160e01b81526012600452602481fd5b500490565b600181815b8085111561191a57816000190482111561190057611900611a2c565b8085161561190d57918102915b93841c93908002906118e4565b509250929050565b600061124e838360008261193857506001611251565b8161194557506000611251565b816001811461195b576002811461196557611981565b6001915050611251565b60ff84111561197657611976611a2c565b50506001821b611251565b5060208310610133831016604e8410600b84101617156119a4575081810a611251565b6119ae83836118df565b80600019048211156119c2576119c2611a2c565b029392505050565b60008160001904831182151516156119e4576119e4611a2c565b500290565b6000828210156119fb576119fb611a2c565b500390565b60005b83811015611a1b578181015183820152602001611a03565b8381111561140d5750506000910152565b634e487b7160e01b600052601160045260246000fd5b6001600160a01b038116811461060657600080fd5b801515811461060657600080fdfea2646970667358221220829901f1de2a2b74a96d6b6ec7940ea3568628bf82b867c2cea40a9025c1796b64736f6c63430008040033",
  "linkReferences": {},
  "deployedLinkReferences": {}
}