{
  "_format": "hh-sol-artifact-1",
  "contractName": "SmartChefInitializable",
  "sourceName": "contracts/farm/PoolFactory.sol",
  "abi": [
    {
      "inputs": [],
      "stateMutability": "nonpayable",
      "type": "constructor"
    },
    {
      "anonymous": false,
      "inputs": [
        {
          "indexed": false,
          "internalType": "address",
          "name": "tokenRecovered",
          "type": "address"
        },
        {
          "indexed": false,
          "internalType": "uint256",
          "name": "amount",
          "type": "uint256"
        }
      ],
      "name": "AdminTokenRecovery",
      "type": "event"
    },
    {
      "anonymous": false,
      "inputs": [
        {
          "indexed": true,
          "internalType": "address",
          "name": "user",
          "type": "address"
        },
        {
          "indexed": false,
          "internalType": "uint256",
          "name": "amount",
          "type": "uint256"
        }
      ],
      "name": "Deposit",
      "type": "event"
    },
    {
      "anonymous": false,
      "inputs": [
        {
          "indexed": true,
          "internalType": "address",
          "name": "user",
          "type": "address"
        },
        {
          "indexed": false,
          "internalType": "uint256",
          "name": "amount",
          "type": "uint256"
        }
      ],
      "name": "EmergencyWithdraw",
      "type": "event"
    },
    {
      "anonymous": false,
      "inputs": [
        {
          "indexed": false,
          "internalType": "uint256",
          "name": "poolLimitPerUser",
          "type": "uint256"
        }
      ],
      "name": "NewPoolLimit",
      "type": "event"
    },
    {
      "anonymous": false,
      "inputs": [
        {
          "indexed": false,
          "internalType": "uint256",
          "name": "rewardPerBlock",
          "type": "uint256"
        }
      ],
      "name": "NewRewardPerBlock",
      "type": "event"
    },
    {
      "anonymous": false,
      "inputs": [
        {
          "indexed": false,
          "internalType": "uint256",
          "name": "startBlock",
          "type": "uint256"
        },
        {
          "indexed": false,
          "internalType": "uint256",
          "name": "endBlock",
          "type": "uint256"
        }
      ],
      "name": "NewStartAndEndBlocks",
      "type": "event"
    },
    {
      "anonymous": false,
      "inputs": [
        {
          "indexed": true,
          "internalType": "address",
          "name": "previousOwner",
          "type": "address"
        },
        {
          "indexed": true,
          "internalType": "address",
          "name": "newOwner",
          "type": "address"
        }
      ],
      "name": "OwnershipTransferred",
      "type": "event"
    },
    {
      "anonymous": false,
      "inputs": [
        {
          "indexed": false,
          "internalType": "uint256",
          "name": "blockNumber",
          "type": "uint256"
        }
      ],
      "name": "RewardsStop",
      "type": "event"
    },
    {
      "anonymous": false,
      "inputs": [
        {
          "indexed": true,
          "internalType": "address",
          "name": "user",
          "type": "address"
        },
        {
          "indexed": false,
          "internalType": "uint256",
          "name": "amount",
          "type": "uint256"
        }
      ],
      "name": "Withdraw",
      "type": "event"
    },
    {
      "inputs": [],
      "name": "PRECISION_FACTOR",
      "outputs": [
        {
          "internalType": "uint256",
          "name": "",
          "type": "uint256"
        }
      ],
      "stateMutability": "view",
      "type": "function"
    },
    {
      "inputs": [],
      "name": "SMART_CHEF_FACTORY",
      "outputs": [
        {
          "internalType": "address",
          "name": "",
          "type": "address"
        }
      ],
      "stateMutability": "view",
      "type": "function"
    },
    {
      "inputs": [],
      "name": "accTokenPerShare",
      "outputs": [
        {
          "internalType": "uint256",
          "name": "",
          "type": "uint256"
        }
      ],
      "stateMutability": "view",
      "type": "function"
    },
    {
      "inputs": [],
      "name": "bonusEndBlock",
      "outputs": [
        {
          "internalType": "uint256",
          "name": "",
          "type": "uint256"
        }
      ],
      "stateMutability": "view",
      "type": "function"
    },
    {
      "inputs": [
        {
          "internalType": "uint256",
          "name": "_amount",
          "type": "uint256"
        }
      ],
      "name": "deposit",
      "outputs": [],
      "stateMutability": "nonpayable",
      "type": "function"
    },
    {
      "inputs": [
        {
          "internalType": "uint256",
          "name": "_amount",
          "type": "uint256"
        }
      ],
      "name": "emergencyRewardWithdraw",
      "outputs": [],
      "stateMutability": "nonpayable",
      "type": "function"
    },
    {
      "inputs": [],
      "name": "emergencyWithdraw",
      "outputs": [],
      "stateMutability": "nonpayable",
      "type": "function"
    },
    {
      "inputs": [],
      "name": "hasUserLimit",
      "outputs": [
        {
          "internalType": "bool",
          "name": "",
          "type": "bool"
        }
      ],
      "stateMutability": "view",
      "type": "function"
    },
    {
      "inputs": [
        {
          "internalType": "contract IBEP20",
          "name": "_stakedToken",
          "type": "address"
        },
        {
          "internalType": "contract IBEP20",
          "name": "_rewardToken",
          "type": "address"
        },
        {
          "internalType": "uint256",
          "name": "_rewardPerBlock",
          "type": "uint256"
        },
        {
          "internalType": "uint256",
          "name": "_startBlock",
          "type": "uint256"
        },
        {
          "internalType": "uint256",
          "name": "_bonusEndBlock",
          "type": "uint256"
        },
        {
          "internalType": "uint256",
          "name": "_poolLimitPerUser",
          "type": "uint256"
        },
        {
          "internalType": "address",
          "name": "_admin",
          "type": "address"
        }
      ],
      "name": "initialize",
      "outputs": [],
      "stateMutability": "nonpayable",
      "type": "function"
    },
    {
      "inputs": [],
      "name": "isInitialized",
      "outputs": [
        {
          "internalType": "bool",
          "name": "",
          "type": "bool"
        }
      ],
      "stateMutability": "view",
      "type": "function"
    },
    {
      "inputs": [],
      "name": "lastRewardBlock",
      "outputs": [
        {
          "internalType": "uint256",
          "name": "",
          "type": "uint256"
        }
      ],
      "stateMutability": "view",
      "type": "function"
    },
    {
      "inputs": [],
      "name": "owner",
      "outputs": [
        {
          "internalType": "address",
          "name": "",
          "type": "address"
        }
      ],
      "stateMutability": "view",
      "type": "function"
    },
    {
      "inputs": [
        {
          "internalType": "address",
          "name": "_user",
          "type": "address"
        }
      ],
      "name": "pendingReward",
      "outputs": [
        {
          "internalType": "uint256",
          "name": "",
          "type": "uint256"
        }
      ],
      "stateMutability": "view",
      "type": "function"
    },
    {
      "inputs": [],
      "name": "poolLimitPerUser",
      "outputs": [
        {
          "internalType": "uint256",
          "name": "",
          "type": "uint256"
        }
      ],
      "stateMutability": "view",
      "type": "function"
    },
    {
      "inputs": [
        {
          "internalType": "address",
          "name": "_tokenAddress",
          "type": "address"
        },
        {
          "internalType": "uint256",
          "name": "_tokenAmount",
          "type": "uint256"
        }
      ],
      "name": "recoverWrongTokens",
      "outputs": [],
      "stateMutability": "nonpayable",
      "type": "function"
    },
    {
      "inputs": [],
      "name": "renounceOwnership",
      "outputs": [],
      "stateMutability": "nonpayable",
      "type": "function"
    },
    {
      "inputs": [],
      "name": "rewardPerBlock",
      "outputs": [
        {
          "internalType": "uint256",
          "name": "",
          "type": "uint256"
        }
      ],
      "stateMutability": "view",
      "type": "function"
    },
    {
      "inputs": [],
      "name": "rewardToken",
      "outputs": [
        {
          "internalType": "contract IBEP20",
          "name": "",
          "type": "address"
        }
      ],
      "stateMutability": "view",
      "type": "function"
    },
    {
      "inputs": [],
      "name": "stakedToken",
      "outputs": [
        {
          "internalType": "contract IBEP20",
          "name": "",
          "type": "address"
        }
      ],
      "stateMutability": "view",
      "type": "function"
    },
    {
      "inputs": [],
      "name": "startBlock",
      "outputs": [
        {
          "internalType": "uint256",
          "name": "",
          "type": "uint256"
        }
      ],
      "stateMutability": "view",
      "type": "function"
    },
    {
      "inputs": [],
      "name": "stopReward",
      "outputs": [],
      "stateMutability": "nonpayable",
      "type": "function"
    },
    {
      "inputs": [
        {
          "internalType": "address",
          "name": "newOwner",
          "type": "address"
        }
      ],
      "name": "transferOwnership",
      "outputs": [],
      "stateMutability": "nonpayable",
      "type": "function"
    },
    {
      "inputs": [
        {
          "internalType": "bool",
          "name": "_hasUserLimit",
          "type": "bool"
        },
        {
          "internalType": "uint256",
          "name": "_poolLimitPerUser",
          "type": "uint256"
        }
      ],
      "name": "updatePoolLimitPerUser",
      "outputs": [],
      "stateMutability": "nonpayable",
      "type": "function"
    },
    {
      "inputs": [
        {
          "internalType": "uint256",
          "name": "_rewardPerBlock",
          "type": "uint256"
        }
      ],
      "name": "updateRewardPerBlock",
      "outputs": [],
      "stateMutability": "nonpayable",
      "type": "function"
    },
    {
      "inputs": [
        {
          "internalType": "uint256",
          "name": "_startBlock",
          "type": "uint256"
        },
        {
          "internalType": "uint256",
          "name": "_bonusEndBlock",
          "type": "uint256"
        }
      ],
      "name": "updateStartAndEndBlocks",
      "outputs": [],
      "stateMutability": "nonpayable",
      "type": "function"
    },
    {
      "inputs": [
        {
          "internalType": "address",
          "name": "",
          "type": "address"
        }
      ],
      "name": "userInfo",
      "outputs": [
        {
          "internalType": "uint256",
          "name": "amount",
          "type": "uint256"
        },
        {
          "internalType": "uint256",
          "name": "rewardDebt",
          "type": "uint256"
        }
      ],
      "stateMutability": "view",
      "type": "function"
    },
    {
      "inputs": [
        {
          "internalType": "uint256",
          "name": "_amount",
          "type": "uint256"
        }
      ],
      "name": "withdraw",
      "outputs": [],
      "stateMutability": "nonpayable",
      "type": "function"
    }
  ],
  "bytecode": "0x608060405234801561001057600080fd5b50600080546001600160a01b031916339081178255604051909182917f8be0079c531659141344cd1fd0a4f28419497f9722a3daafe3b4186f6b6457e0908290a35060018055600280546001600160a01b03191633179055611a50806100776000396000f3fe608060405234801561001057600080fd5b50600436106101495760003560e01c806301f8a9761461014e5780631959a002146101635780631aed6553146101a45780632e1a7d4d146101bb5780633279beab146101ce578063392e53cd146101e15780633f138d4b1461020557806348cd4cb11461021857806366fe9f8a14610221578063715018a61461022a57806380dc06721461023257806383a5041c1461023a5780638ae39cac1461024d5780638da5cb5b146102565780638f6629151461026b57806392e8990e146102745780639513997f14610288578063a0b409051461029b578063a9f8d181146102ae578063b6b55f25146102b7578063bd617191146102ca578063cc7a262e146102dd578063ccd34cd5146102f0578063db2e21bc146102f9578063f2fde38b14610301578063f40f0f5214610314578063f7c618c114610327575b600080fd5b61016161015c3660046116b8565b61033a565b005b61018a6101713660046115c7565b600c602052600090815260409020805460019091015482565b604080519283526020830191909152015b60405180910390f35b6101ad60045481565b60405190815260200161019b565b6101616101c93660046116b8565b6103ce565b6101616101dc3660046116b8565b610535565b6002546101f590600160a81b900460ff1681565b604051901515815260200161019b565b6101616102133660046115e3565b61057e565b6101ad60055481565b6101ad60075481565b6101616106ac565b610161610713565b610161610248366004611647565b610748565b6101ad60085481565b61025e61094e565b60405161019b9190611746565b6101ad60035481565b6002546101f590600160a01b900460ff1681565b6101616102963660046116e8565b61095d565b6101616102a936600461162a565b610ac0565b6101ad60065481565b6101616102c53660046116b8565b610be2565b60025461025e906001600160a01b031681565b600b5461025e906001600160a01b031681565b6101ad60095481565b610161610d63565b61016161030f3660046115c7565b610df8565b6101ad6103223660046115c7565b610ed5565b600a5461025e906001600160a01b031681565b3361034361094e565b6001600160a01b0316146103725760405162461bcd60e51b8152600401610369906117d0565b60405180910390fd5b60055443106103935760405162461bcd60e51b8152600401610369906117a6565b60088190556040518181527f0c4d677eef92893ac7ec52faf8140fc6c851ab4736302b4f3a89dfb20696a0df9060200160405180910390a150565b600260015414156103f15760405162461bcd60e51b815260040161036990611805565b6002600155336000908152600c6020526040902080548211156104545760405162461bcd60e51b815260206004820152601b60248201527a082dadeeadce840e8de40eed2e8d0c8e4c2ee40e8dede40d0d2ced602b1b6044820152606401610369565b61045c611034565b6000610491826001015461048b600954610485600354876000015461111f90919063ffffffff16565b906111a7565b906111ff565b905082156104be5781546104a590846111ff565b8255600b546104be906001600160a01b0316338561125b565b80156104db57600a546104db906001600160a01b0316338361125b565b60095460035483546104f29291610485919061111f565b600183015560405183815233907f884edad9ce6fa2440d8a54cc123490eb96d2768479d49ff9c7366125a94243649060200160405180910390a250506001805550565b3361053e61094e565b6001600160a01b0316146105645760405162461bcd60e51b8152600401610369906117d0565b600a5461057b906001600160a01b0316338361125b565b50565b3361058761094e565b6001600160a01b0316146105ad5760405162461bcd60e51b8152600401610369906117d0565b600b546001600160a01b03838116911614156106045760405162461bcd60e51b815260206004820152601660248201527521b0b73737ba1031329039ba30b5b2b2103a37b5b2b760511b6044820152606401610369565b600a546001600160a01b038381169116141561065b5760405162461bcd60e51b815260206004820152601660248201527521b0b73737ba103132903932bbb0b932103a37b5b2b760511b6044820152606401610369565b61066f6001600160a01b038316338361125b565b7f74545154aac348a3eac92596bd1971957ca94795f4e954ec5f613b55fab7812982826040516106a092919061175a565b60405180910390a15050565b336106b561094e565b6001600160a01b0316146106db5760405162461bcd60e51b8152600401610369906117d0565b600080546040516001600160a01b03909116906000805160206119fb833981519152908390a3600080546001600160a01b0319169055565b3361071c61094e565b6001600160a01b0316146107425760405162461bcd60e51b8152600401610369906117d0565b43600455565b600254600160a81b900460ff16156107985760405162461bcd60e51b8152602060048201526013602482015272105b1c9958591e481a5b9a5d1a585b1a5e9959606a1b6044820152606401610369565b6002546001600160a01b031633146107e05760405162461bcd60e51b815260206004820152600b60248201526a4e6f7420666163746f727960a81b6044820152606401610369565b6002805460ff60a81b1916600160a81b179055600b80546001600160a01b03808a166001600160a01b031992831617909255600a8054928916929091169190911790556008859055600584905560048390558115610851576002805460ff60a01b1916600160a01b17905560078290555b600a546040805163313ce56760e01b815290516000926001600160a01b03169163313ce567916004808301926020929190829003018186803b15801561089657600080fd5b505afa1580156108aa573d6000803e3d6000fd5b505050506040513d601f19601f820116820180604052508101906108ce9190611709565b60ff169050601e811061091c5760405162461bcd60e51b815260206004820152601660248201527504d75737420626520696e666572696f7220746f2033360541b6044820152606401610369565b610927601e826111ff565b61093290600a6118b7565b60095560055460065561094482610df8565b5050505050505050565b6000546001600160a01b031690565b3361096661094e565b6001600160a01b03161461098c5760405162461bcd60e51b8152600401610369906117d0565b60055443106109ad5760405162461bcd60e51b8152600401610369906117a6565b808210610a135760405162461bcd60e51b815260206004820152602e60248201527f4e6577207374617274426c6f636b206d757374206265206c6f7765722074686160448201526d6e206e657720656e64426c6f636b60901b6064820152608401610369565b814310610a7b5760405162461bcd60e51b815260206004820152603060248201527f4e6577207374617274426c6f636b206d7573742062652068696768657220746860448201526f616e2063757272656e7420626c6f636b60801b6064820152608401610369565b60058290556004819055600682905560408051838152602081018390527f7cd0ab87d19036f3dfadadb232c78aa4879dda3f0c994a9d637532410ee2ce0691016106a0565b33610ac961094e565b6001600160a01b031614610aef5760405162461bcd60e51b8152600401610369906117d0565b600254600160a01b900460ff16610b365760405162461bcd60e51b815260206004820152600b60248201526a135d5cdd081899481cd95d60aa1b6044820152606401610369565b8115610b92576007548111610b885760405162461bcd60e51b81526020600482015260186024820152772732bb903634b6b4ba1036bab9ba103132903434b3b432b960411b6044820152606401610369565b6007819055610baf565b6002805460ff60a01b1916600160a01b8415150217905560006007555b7f241f67ee5f41b7a5cabf911367329be7215900f602ebfc47f89dce2a6bcd847c6007546040516106a091815260200190565b60026001541415610c055760405162461bcd60e51b815260040161036990611805565b60026001819055336000908152600c602052604090209054600160a01b900460ff1615610c84576007548154610c3c9084906112b6565b1115610c845760405162461bcd60e51b8152602060048201526017602482015276155cd95c88185b5bdd5b9d0818589bdd99481b1a5b5a5d604a1b6044820152606401610369565b610c8c611034565b805415610cdd576000610cbc826001015461048b600954610485600354876000015461111f90919063ffffffff16565b90508015610cdb57600a54610cdb906001600160a01b0316338361125b565b505b8115610d09578054610cef90836112b6565b8155600b54610d09906001600160a01b0316333085611313565b6009546003548254610d209291610485919061111f565b600182015560405182815233907fe1fffcc4923d04b559f4d29a8bfc6cda04eb5b0d3c460751c2402c5c5cc9109c906020015b60405180910390a2505060018055565b60026001541415610d865760405162461bcd60e51b815260040161036990611805565b60026001908155336000908152600c60205260408120805482825592810191909155908015610dc657600b54610dc6906001600160a01b0316338361125b565b60405181815233907f5fafa99d0643513820be26656b45130b01e1c03062e1266bf36f88cbd3bd969590602001610d53565b33610e0161094e565b6001600160a01b031614610e275760405162461bcd60e51b8152600401610369906117d0565b6001600160a01b038116610e8c5760405162461bcd60e51b815260206004820152602660248201527f4f776e61626c653a206e6577206f776e657220697320746865207a65726f206160448201526564647265737360d01b6064820152608401610369565b600080546040516001600160a01b03808516939216916000805160206119fb83398151915291a3600080546001600160a01b0319166001600160a01b0392909216919091179055565b6001600160a01b038082166000908152600c6020526040808220600b5491516370a0823160e01b8152929390928492909116906370a0823190610f1c903090600401611746565b60206040518083038186803b158015610f3457600080fd5b505afa158015610f48573d6000803e3d6000fd5b505050506040513d601f19601f82011682018060405250810190610f6c91906116d0565b905060065443118015610f7e57508015155b15611005576000610f9160065443611351565b90506000610faa6008548361111f90919063ffffffff16565b90506000610fd3610fca856104856009548661111f90919063ffffffff16565b600354906112b6565b9050610ffa856001015461048b600954610485858a6000015461111f90919063ffffffff16565b979650505050505050565b61102c826001015461048b600954610485600354876000015461111f90919063ffffffff16565b949350505050565b600654431161103f57565b600b546040516370a0823160e01b81526000916001600160a01b0316906370a0823190611070903090600401611746565b60206040518083038186803b15801561108857600080fd5b505afa15801561109c573d6000803e3d6000fd5b505050506040513d601f19601f820116820180604052508101906110c091906116d0565b9050806110ce575043600655565b60006110dc60065443611351565b905060006110f56008548361111f90919063ffffffff16565b9050611113610fca846104856009548561111f90919063ffffffff16565b60035550504360065550565b60008261112e575060006111a1565b600061113a838561195f565b9050826111478583611854565b1461119e5760405162461bcd60e51b815260206004820152602160248201527f536166654d6174683a206d756c7469706c69636174696f6e206f766572666c6f6044820152607760f81b6064820152608401610369565b90505b92915050565b60008082116111f55760405162461bcd60e51b815260206004820152601a602482015279536166654d6174683a206469766973696f6e206279207a65726f60301b6044820152606401610369565b61119e8284611854565b6000828211156112515760405162461bcd60e51b815260206004820152601e60248201527f536166654d6174683a207375627472616374696f6e206f766572666c6f7700006044820152606401610369565b61119e828461197e565b6112b18363a9059cbb60e01b848460405160240161127a92919061175a565b60408051601f198184030181529190526020810180516001600160e01b03166001600160e01b03199093169290921790915261138b565b505050565b6000806112c3838561183c565b90508381101561119e5760405162461bcd60e51b815260206004820152601b60248201527a536166654d6174683a206164646974696f6e206f766572666c6f7760281b6044820152606401610369565b6040516001600160a01b038085166024830152831660448201526064810182905261134b9085906323b872dd60e01b9060840161127a565b50505050565b6000600454821161136d5761136682846111ff565b90506111a1565b600454831061137e575060006111a1565b60045461136690846111ff565b60006113e0826040518060400160405280602081526020017f5361666542455032303a206c6f772d6c6576656c2063616c6c206661696c6564815250856001600160a01b031661145d9092919063ffffffff16565b8051909150156112b157808060200190518101906113fe919061160e565b6112b15760405162461bcd60e51b815260206004820152602a60248201527f5361666542455032303a204245503230206f7065726174696f6e20646964206e6044820152691bdd081cdd58d8d9595960b21b6064820152608401610369565b606061146c8484600085611476565b90505b9392505050565b6060824710156114d75760405162461bcd60e51b815260206004820152602660248201527f416464726573733a20696e73756666696369656e742062616c616e636520666f6044820152651c8818d85b1b60d21b6064820152608401610369565b843b6115255760405162461bcd60e51b815260206004820152601d60248201527f416464726573733a2063616c6c20746f206e6f6e2d636f6e74726163740000006044820152606401610369565b600080866001600160a01b03168587604051611541919061172a565b60006040518083038185875af1925050503d806000811461157e576040519150601f19603f3d011682016040523d82523d6000602084013e611583565b606091505b5091509150610ffa8282866060831561159d57508161146f565b8251156115ad5782518084602001fd5b8160405162461bcd60e51b81526004016103699190611773565b6000602082840312156115d8578081fd5b813561119e816119d7565b600080604083850312156115f5578081fd5b8235611600816119d7565b946020939093013593505050565b60006020828403121561161f578081fd5b815161119e816119ec565b6000806040838503121561163c578182fd5b8235611600816119ec565b600080600080600080600060e0888a031215611661578283fd5b873561166c816119d7565b9650602088013561167c816119d7565b955060408801359450606088013593506080880135925060a0880135915060c08801356116a8816119d7565b8091505092959891949750929550565b6000602082840312156116c9578081fd5b5035919050565b6000602082840312156116e1578081fd5b5051919050565b600080604083850312156116fa578182fd5b50508035926020909101359150565b60006020828403121561171a578081fd5b815160ff8116811461119e578182fd5b6000825161173c818460208701611995565b9190910192915050565b6001600160a01b0391909116815260200190565b6001600160a01b03929092168252602082015260400190565b6020815260008251806020840152611792816040850160208701611995565b601f01601f19169190910160400192915050565b60208082526010908201526f141bdbdb081a185cc81cdd185c9d195960821b604082015260600190565b6020808252818101527f4f776e61626c653a2063616c6c6572206973206e6f7420746865206f776e6572604082015260600190565b6020808252601f908201527f5265656e7472616e637947756172643a207265656e7472616e742063616c6c00604082015260600190565b6000821982111561184f5761184f6119c1565b500190565b60008261186f57634e487b7160e01b81526012600452602481fd5b500490565b600181815b808511156118af578160001904821115611895576118956119c1565b808516156118a257918102915b93841c9390800290611879565b509250929050565b600061119e83836000826118cd575060016111a1565b816118da575060006111a1565b81600181146118f057600281146118fa57611916565b60019150506111a1565b60ff84111561190b5761190b6119c1565b50506001821b6111a1565b5060208310610133831016604e8410600b8410161715611939575081810a6111a1565b6119438383611874565b8060001904821115611957576119576119c1565b029392505050565b6000816000190483118215151615611979576119796119c1565b500290565b600082821015611990576119906119c1565b500390565b60005b838110156119b0578181015183820152602001611998565b8381111561134b5750506000910152565b634e487b7160e01b600052601160045260246000fd5b6001600160a01b038116811461057b57600080fd5b801515811461057b57600080fdfe8be0079c531659141344cd1fd0a4f28419497f9722a3daafe3b4186f6b6457e0a264697066735822122058bd007ac3d5b4d99eae935b97c117aef567531228840da5aeb4d2f3a78af00364736f6c63430008040033",
  "linkReferences": {},
  "deployedLinkReferences": {}
}