{
  "_format": "hh-sol-artifact-1",
  "contractName": "SmartChefFactory",
  "sourceName": "contracts/farm/PoolFactory.sol",
  "abi": [
    {
      "inputs": [],
      "stateMutability": "nonpayable",
      "type": "constructor"
    },
    {
      "anonymous": false,
      "inputs": [
        {
          "indexed": true,
          "internalType": "address",
          "name": "smartChef",
          "type": "address"
        }
      ],
      "name": "NewSmartChefContract",
      "type": "event"
    },
    {
      "anonymous": false,
      "inputs": [
        {
          "indexed": true,
          "internalType": "address",
          "name": "previousOwner",
          "type": "address"
        },
        {
          "indexed": true,
          "internalType": "address",
          "name": "newOwner",
          "type": "address"
        }
      ],
      "name": "OwnershipTransferred",
      "type": "event"
    },
    {
      "inputs": [
        {
          "internalType": "contract IBEP20",
          "name": "_stakedToken",
          "type": "address"
        },
        {
          "internalType": "contract IBEP20",
          "name": "_rewardToken",
          "type": "address"
        },
        {
          "internalType": "uint256",
          "name": "_rewardPerBlock",
          "type": "uint256"
        },
        {
          "internalType": "uint256",
          "name": "_startBlock",
          "type": "uint256"
        },
        {
          "internalType": "uint256",
          "name": "_bonusEndBlock",
          "type": "uint256"
        },
        {
          "internalType": "uint256",
          "name": "_poolLimitPerUser",
          "type": "uint256"
        },
        {
          "internalType": "address",
          "name": "_admin",
          "type": "address"
        }
      ],
      "name": "deployPool",
      "outputs": [],
      "stateMutability": "nonpayable",
      "type": "function"
    },
    {
      "inputs": [],
      "name": "owner",
      "outputs": [
        {
          "internalType": "address",
          "name": "",
          "type": "address"
        }
      ],
      "stateMutability": "view",
      "type": "function"
    },
    {
      "inputs": [],
      "name": "renounceOwnership",
      "outputs": [],
      "stateMutability": "nonpayable",
      "type": "function"
    },
    {
      "inputs": [
        {
          "internalType": "address",
          "name": "newOwner",
          "type": "address"
        }
      ],
      "name": "transferOwnership",
      "outputs": [],
      "stateMutability": "nonpayable",
      "type": "function"
    }
  ],
  "bytecode": "0x608060405234801561001057600080fd5b5060006100216100c460201b60201c565b9050806000806101000a81548173ffffffffffffffffffffffffffffffffffffffff021916908373ffffffffffffffffffffffffffffffffffffffff1602179055508073ffffffffffffffffffffffffffffffffffffffff16600073ffffffffffffffffffffffffffffffffffffffff167f8be0079c531659141344cd1fd0a4f28419497f9722a3daafe3b4186f6b6457e060405160405180910390a3506100cc565b600033905090565b61426f806100db6000396000f3fe608060405234801561001057600080fd5b506004361061004c5760003560e01c8063715018a6146100515780638da5cb5b1461005b578063cc8402f514610079578063f2fde38b14610095575b600080fd5b6100596100b1565b005b6100636101eb565b6040516100709190610943565b60405180910390f35b610093600480360381019061008e919061077b565b610214565b005b6100af60048036038101906100aa9190610752565b610540565b005b6100b96106e9565b73ffffffffffffffffffffffffffffffffffffffff166100d76101eb565b73ffffffffffffffffffffffffffffffffffffffff161461012d576040517f08c379a000000000000000000000000000000000000000000000000000000000815260040161012490610a0d565b60405180910390fd5b600073ffffffffffffffffffffffffffffffffffffffff1660008054906101000a900473ffffffffffffffffffffffffffffffffffffffff1673ffffffffffffffffffffffffffffffffffffffff167f8be0079c531659141344cd1fd0a4f28419497f9722a3daafe3b4186f6b6457e060405160405180910390a360008060006101000a81548173ffffffffffffffffffffffffffffffffffffffff021916908373ffffffffffffffffffffffffffffffffffffffff160217905550565b60008060009054906101000a900473ffffffffffffffffffffffffffffffffffffffff16905090565b61021c6106e9565b73ffffffffffffffffffffffffffffffffffffffff1661023a6101eb565b73ffffffffffffffffffffffffffffffffffffffff1614610290576040517f08c379a000000000000000000000000000000000000000000000000000000000815260040161028790610a0d565b60405180910390fd5b60008773ffffffffffffffffffffffffffffffffffffffff166318160ddd6040518163ffffffff1660e01b815260040160206040518083038186803b1580156102d857600080fd5b505afa1580156102ec573d6000803e3d6000fd5b505050506040513d601f19601f820116820180604052508101906103109190610819565b101561031b57600080fd5b60008673ffffffffffffffffffffffffffffffffffffffff166318160ddd6040518163ffffffff1660e01b815260040160206040518083038186803b15801561036357600080fd5b505afa158015610377573d6000803e3d6000fd5b505050506040513d601f19601f8201168201806040525081019061039b9190610819565b10156103a657600080fd5b8573ffffffffffffffffffffffffffffffffffffffff168773ffffffffffffffffffffffffffffffffffffffff161415610415576040517f08c379a000000000000000000000000000000000000000000000000000000000815260040161040c906109ed565b60405180910390fd5b600060405180602001610427906106f1565b6020820181038252601f19601f820116604052509050600088888760405160200161045493929190610906565b6040516020818303038152906040528051906020012090506000818351602085016000f590508073ffffffffffffffffffffffffffffffffffffffff166383a5041c8b8b8b8b8b8b8b6040518863ffffffff1660e01b81526004016104bf979695949392919061095e565b600060405180830381600087803b1580156104d957600080fd5b505af11580156104ed573d6000803e3d6000fd5b505050508073ffffffffffffffffffffffffffffffffffffffff167fe0d103a92c6ff6c4aceb49d436f4028e0deb4884fdbcb9f32b03045eabb44a6c60405160405180910390a250505050505050505050565b6105486106e9565b73ffffffffffffffffffffffffffffffffffffffff166105666101eb565b73ffffffffffffffffffffffffffffffffffffffff16146105bc576040517f08c379a00000000000000000000000000000000000000000000000000000000081526004016105b390610a0d565b60405180910390fd5b600073ffffffffffffffffffffffffffffffffffffffff168173ffffffffffffffffffffffffffffffffffffffff16141561062c576040517f08c379a0000000000000000000000000000000000000000000000000000000008152600401610623906109cd565b60405180910390fd5b8073ffffffffffffffffffffffffffffffffffffffff1660008054906101000a900473ffffffffffffffffffffffffffffffffffffffff1673ffffffffffffffffffffffffffffffffffffffff167f8be0079c531659141344cd1fd0a4f28419497f9722a3daafe3b4186f6b6457e060405160405180910390a3806000806101000a81548173ffffffffffffffffffffffffffffffffffffffff021916908373ffffffffffffffffffffffffffffffffffffffff16021790555050565b600033905090565b61366880610bd283390190565b60008135905061070d81610b8c565b92915050565b60008135905061072281610ba3565b92915050565b60008135905061073781610bba565b92915050565b60008151905061074c81610bba565b92915050565b60006020828403121561076457600080fd5b6000610772848285016106fe565b91505092915050565b600080600080600080600060e0888a03121561079657600080fd5b60006107a48a828b01610713565b97505060206107b58a828b01610713565b96505060406107c68a828b01610728565b95505060606107d78a828b01610728565b94505060806107e88a828b01610728565b93505060a06107f98a828b01610728565b92505060c061080a8a828b016106fe565b91505092959891949750929550565b60006020828403121561082b57600080fd5b60006108398482850161073d565b91505092915050565b61084b81610a3e565b82525050565b61085a81610a8c565b82525050565b61087161086c82610a8c565b610ab0565b82525050565b6000610884602683610a2d565b915061088f82610aeb565b604082019050919050565b60006108a7601b83610a2d565b91506108b282610b3a565b602082019050919050565b60006108ca602083610a2d565b91506108d582610b63565b602082019050919050565b6108e981610a82565b82525050565b6109006108fb82610a82565b610ad4565b82525050565b60006109128286610860565b6014820191506109228285610860565b60148201915061093282846108ef565b602082019150819050949350505050565b60006020820190506109586000830184610842565b92915050565b600060e082019050610973600083018a610851565b6109806020830189610851565b61098d60408301886108e0565b61099a60608301876108e0565b6109a760808301866108e0565b6109b460a08301856108e0565b6109c160c0830184610842565b98975050505050505050565b600060208201905081810360008301526109e681610877565b9050919050565b60006020820190508181036000830152610a068161089a565b9050919050565b60006020820190508181036000830152610a26816108bd565b9050919050565b600082825260208201905092915050565b6000610a4982610a62565b9050919050565b6000610a5b82610a3e565b9050919050565b600073ffffffffffffffffffffffffffffffffffffffff82169050919050565b6000819050919050565b6000610a9782610a9e565b9050919050565b6000610aa982610a62565b9050919050565b6000610abb82610ac2565b9050919050565b6000610acd82610ade565b9050919050565b6000819050919050565b60008160601b9050919050565b7f4f776e61626c653a206e6577206f776e657220697320746865207a65726f206160008201527f6464726573730000000000000000000000000000000000000000000000000000602082015250565b7f546f6b656e73206d75737420626520626520646966666572656e740000000000600082015250565b7f4f776e61626c653a2063616c6c6572206973206e6f7420746865206f776e6572600082015250565b610b9581610a3e565b8114610ba057600080fd5b50565b610bac81610a50565b8114610bb757600080fd5b50565b610bc381610a82565b8114610bce57600080fd5b5056fe60806040523480156200001157600080fd5b506000620000246200011060201b60201c565b9050806000806101000a81548173ffffffffffffffffffffffffffffffffffffffff021916908373ffffffffffffffffffffffffffffffffffffffff1602179055508073ffffffffffffffffffffffffffffffffffffffff16600073ffffffffffffffffffffffffffffffffffffffff167f8be0079c531659141344cd1fd0a4f28419497f9722a3daafe3b4186f6b6457e060405160405180910390a3506001808190555033600260006101000a81548173ffffffffffffffffffffffffffffffffffffffff021916908373ffffffffffffffffffffffffffffffffffffffff16021790555062000118565b600033905090565b61354080620001286000396000f3fe608060405234801561001057600080fd5b50600436106101495760003560e01c806301f8a9761461014e5780631959a0021461016a5780631aed65531461019b5780632e1a7d4d146101b95780633279beab146101d5578063392e53cd146101f15780633f138d4b1461020f57806348cd4cb11461022b57806366fe9f8a14610249578063715018a61461026757806380dc06721461027157806383a5041c1461027b5780638ae39cac146102975780638da5cb5b146102b55780638f662915146102d357806392e8990e146102f15780639513997f1461030f578063a0b409051461032b578063a9f8d18114610347578063b6b55f2514610365578063bd61719114610381578063cc7a262e1461039f578063ccd34cd5146103bd578063db2e21bc146103db578063f2fde38b146103e5578063f40f0f5214610401578063f7c618c114610431575b600080fd5b610168600480360381019061016391906123ee565b61044f565b005b610184600480360381019061017f9190612286565b610550565b604051610192929190612c12565b60405180910390f35b6101a3610574565b6040516101b09190612bf7565b60405180910390f35b6101d360048036038101906101ce91906123ee565b61057a565b005b6101ef60048036038101906101ea91906123ee565b6107fd565b005b6101f96108c9565b60405161020691906128df565b60405180910390f35b610229600480360381019061022491906122af565b6108dc565b005b610233610ae2565b6040516102409190612bf7565b60405180910390f35b610251610ae8565b60405161025e9190612bf7565b60405180910390f35b61026f610aee565b005b610279610c28565b005b61029560048036038101906102909190612350565b610cad565b005b61029f610f97565b6040516102ac9190612bf7565b60405180910390f35b6102bd610f9d565b6040516102ca9190612864565b60405180910390f35b6102db610fc6565b6040516102e89190612bf7565b60405180910390f35b6102f9610fcc565b60405161030691906128df565b60405180910390f35b61032960048036038101906103249190612440565b610fdf565b005b61034560048036038101906103409190612314565b611177565b005b61034f6112f8565b60405161035c9190612bf7565b60405180910390f35b61037f600480360381019061037a91906123ee565b6112fe565b005b6103896115bb565b6040516103969190612864565b60405180910390f35b6103a76115e1565b6040516103b491906128fa565b60405180910390f35b6103c5611607565b6040516103d29190612bf7565b60405180910390f35b6103e361160d565b005b6103ff60048036038101906103fa9190612286565b61176b565b005b61041b60048036038101906104169190612286565b611914565b6040516104289190612bf7565b60405180910390f35b610439611b20565b60405161044691906128fa565b60405180910390f35b610457611b46565b73ffffffffffffffffffffffffffffffffffffffff16610475610f9d565b73ffffffffffffffffffffffffffffffffffffffff16146104cb576040517f08c379a00000000000000000000000000000000000000000000000000000000081526004016104c290612a77565b60405180910390fd5b600554431061050f576040517f08c379a000000000000000000000000000000000000000000000000000000000815260040161050690612977565b60405180910390fd5b806008819055507f0c4d677eef92893ac7ec52faf8140fc6c851ab4736302b4f3a89dfb20696a0df816040516105459190612bf7565b60405180910390a150565b600c6020528060005260406000206000915090508060000154908060010154905082565b60045481565b600260015414156105c0576040517f08c379a00000000000000000000000000000000000000000000000000000000081526004016105b790612b97565b60405180910390fd5b60026001819055506000600c60003373ffffffffffffffffffffffffffffffffffffffff1673ffffffffffffffffffffffffffffffffffffffff16815260200190815260200160002090508181600001541015610652576040517f08c379a000000000000000000000000000000000000000000000000000000000815260040161064990612b17565b60405180910390fd5b61065a611b4e565b600061069f82600101546106916009546106836003548760000154611c9890919063ffffffff16565b611d1390919063ffffffff16565b611d6b90919063ffffffff16565b90506000831115610717576106c1838360000154611d6b90919063ffffffff16565b82600001819055506107163384600b60009054906101000a900473ffffffffffffffffffffffffffffffffffffffff1673ffffffffffffffffffffffffffffffffffffffff16611dc49092919063ffffffff16565b5b600081111561076e5761076d3382600a60009054906101000a900473ffffffffffffffffffffffffffffffffffffffff1673ffffffffffffffffffffffffffffffffffffffff16611dc49092919063ffffffff16565b5b61079b60095461078d6003548560000154611c9890919063ffffffff16565b611d1390919063ffffffff16565b82600101819055503373ffffffffffffffffffffffffffffffffffffffff167f884edad9ce6fa2440d8a54cc123490eb96d2768479d49ff9c7366125a9424364846040516107e99190612bf7565b60405180910390a250506001808190555050565b610805611b46565b73ffffffffffffffffffffffffffffffffffffffff16610823610f9d565b73ffffffffffffffffffffffffffffffffffffffff1614610879576040517f08c379a000000000000000000000000000000000000000000000000000000000815260040161087090612a77565b60405180910390fd5b6108c63382600a60009054906101000a900473ffffffffffffffffffffffffffffffffffffffff1673ffffffffffffffffffffffffffffffffffffffff16611dc49092919063ffffffff16565b50565b600260159054906101000a900460ff1681565b6108e4611b46565b73ffffffffffffffffffffffffffffffffffffffff16610902610f9d565b73ffffffffffffffffffffffffffffffffffffffff1614610958576040517f08c379a000000000000000000000000000000000000000000000000000000000815260040161094f90612a77565b60405180910390fd5b600b60009054906101000a900473ffffffffffffffffffffffffffffffffffffffff1673ffffffffffffffffffffffffffffffffffffffff168273ffffffffffffffffffffffffffffffffffffffff1614156109e9576040517f08c379a00000000000000000000000000000000000000000000000000000000081526004016109e090612b57565b60405180910390fd5b600a60009054906101000a900473ffffffffffffffffffffffffffffffffffffffff1673ffffffffffffffffffffffffffffffffffffffff168273ffffffffffffffffffffffffffffffffffffffff161415610a7a576040517f08c379a0000000000000000000000000000000000000000000000000000000008152600401610a7190612af7565b60405180910390fd5b610aa533828473ffffffffffffffffffffffffffffffffffffffff16611dc49092919063ffffffff16565b7f74545154aac348a3eac92596bd1971957ca94795f4e954ec5f613b55fab781298282604051610ad69291906128b6565b60405180910390a15050565b60055481565b60075481565b610af6611b46565b73ffffffffffffffffffffffffffffffffffffffff16610b14610f9d565b73ffffffffffffffffffffffffffffffffffffffff1614610b6a576040517f08c379a0000000000000000000000000000000000000000000000000000000008152600401610b6190612a77565b60405180910390fd5b600073ffffffffffffffffffffffffffffffffffffffff1660008054906101000a900473ffffffffffffffffffffffffffffffffffffffff1673ffffffffffffffffffffffffffffffffffffffff167f8be0079c531659141344cd1fd0a4f28419497f9722a3daafe3b4186f6b6457e060405160405180910390a360008060006101000a81548173ffffffffffffffffffffffffffffffffffffffff021916908373ffffffffffffffffffffffffffffffffffffffff160217905550565b610c30611b46565b73ffffffffffffffffffffffffffffffffffffffff16610c4e610f9d565b73ffffffffffffffffffffffffffffffffffffffff1614610ca4576040517f08c379a0000000000000000000000000000000000000000000000000000000008152600401610c9b90612a77565b60405180910390fd5b43600481905550565b600260159054906101000a900460ff1615610cfd576040517f08c379a0000000000000000000000000000000000000000000000000000000008152600401610cf490612b77565b60405180910390fd5b600260009054906101000a900473ffffffffffffffffffffffffffffffffffffffff1673ffffffffffffffffffffffffffffffffffffffff163373ffffffffffffffffffffffffffffffffffffffff1614610d8d576040517f08c379a0000000000000000000000000000000000000000000000000000000008152600401610d8490612bb7565b60405180910390fd5b6001600260156101000a81548160ff02191690831515021790555086600b60006101000a81548173ffffffffffffffffffffffffffffffffffffffff021916908373ffffffffffffffffffffffffffffffffffffffff16021790555085600a60006101000a81548173ffffffffffffffffffffffffffffffffffffffff021916908373ffffffffffffffffffffffffffffffffffffffff1602179055508460088190555083600581905550826004819055506000821115610e6b576001600260146101000a81548160ff021916908315150217905550816007819055505b6000600a60009054906101000a900473ffffffffffffffffffffffffffffffffffffffff1673ffffffffffffffffffffffffffffffffffffffff1663313ce5676040518163ffffffff1660e01b815260040160206040518083038186803b158015610ed557600080fd5b505afa158015610ee9573d6000803e3d6000fd5b505050506040513d601f19601f82011682018060405250810190610f0d919061247c565b60ff169050601e8110610f55576040517f08c379a0000000000000000000000000000000000000000000000000000000008152600401610f4c90612bd7565b60405180910390fd5b610f6981601e611d6b90919063ffffffff16565b600a610f759190612d47565b600981905550600554600681905550610f8d8261176b565b5050505050505050565b60085481565b60008060009054906101000a900473ffffffffffffffffffffffffffffffffffffffff16905090565b60035481565b600260149054906101000a900460ff1681565b610fe7611b46565b73ffffffffffffffffffffffffffffffffffffffff16611005610f9d565b73ffffffffffffffffffffffffffffffffffffffff161461105b576040517f08c379a000000000000000000000000000000000000000000000000000000000815260040161105290612a77565b60405180910390fd5b600554431061109f576040517f08c379a000000000000000000000000000000000000000000000000000000000815260040161109690612977565b60405180910390fd5b8082106110e1576040517f08c379a00000000000000000000000000000000000000000000000000000000081526004016110d8906129d7565b60405180910390fd5b814310611123576040517f08c379a000000000000000000000000000000000000000000000000000000000815260040161111a90612a37565b60405180910390fd5b81600581905550806004819055506005546006819055507f7cd0ab87d19036f3dfadadb232c78aa4879dda3f0c994a9d637532410ee2ce06828260405161116b929190612c12565b60405180910390a15050565b61117f611b46565b73ffffffffffffffffffffffffffffffffffffffff1661119d610f9d565b73ffffffffffffffffffffffffffffffffffffffff16146111f3576040517f08c379a00000000000000000000000000000000000000000000000000000000081526004016111ea90612a77565b60405180910390fd5b600260149054906101000a900460ff16611242576040517f08c379a000000000000000000000000000000000000000000000000000000000815260040161123990612a97565b60405180910390fd5b811561129857600754811161128c576040517f08c379a000000000000000000000000000000000000000000000000000000000815260040161128390612ab7565b60405180910390fd5b806007819055506112bb565b81600260146101000a81548160ff02191690831515021790555060006007819055505b7f241f67ee5f41b7a5cabf911367329be7215900f602ebfc47f89dce2a6bcd847c6007546040516112ec9190612bf7565b60405180910390a15050565b60065481565b60026001541415611344576040517f08c379a000000000000000000000000000000000000000000000000000000000815260040161133b90612b97565b60405180910390fd5b60026001819055506000600c60003373ffffffffffffffffffffffffffffffffffffffff1673ffffffffffffffffffffffffffffffffffffffff1681526020019081526020016000209050600260149054906101000a900460ff1615611400576007546113be826000015484611e4a90919063ffffffff16565b11156113ff576040517f08c379a00000000000000000000000000000000000000000000000000000000081526004016113f690612ad7565b60405180910390fd5b5b611408611b4e565b6000816000015411156114b557600061145a826001015461144c60095461143e6003548760000154611c9890919063ffffffff16565b611d1390919063ffffffff16565b611d6b90919063ffffffff16565b905060008111156114b3576114b23382600a60009054906101000a900473ffffffffffffffffffffffffffffffffffffffff1673ffffffffffffffffffffffffffffffffffffffff16611dc49092919063ffffffff16565b5b505b600082111561152d576114d5828260000154611e4a90919063ffffffff16565b816000018190555061152c333084600b60009054906101000a900473ffffffffffffffffffffffffffffffffffffffff1673ffffffffffffffffffffffffffffffffffffffff16611ea8909392919063ffffffff16565b5b61155a60095461154c6003548460000154611c9890919063ffffffff16565b611d1390919063ffffffff16565b81600101819055503373ffffffffffffffffffffffffffffffffffffffff167fe1fffcc4923d04b559f4d29a8bfc6cda04eb5b0d3c460751c2402c5c5cc9109c836040516115a89190612bf7565b60405180910390a2506001808190555050565b600260009054906101000a900473ffffffffffffffffffffffffffffffffffffffff1681565b600b60009054906101000a900473ffffffffffffffffffffffffffffffffffffffff1681565b60095481565b60026001541415611653576040517f08c379a000000000000000000000000000000000000000000000000000000000815260040161164a90612b97565b60405180910390fd5b60026001819055506000600c60003373ffffffffffffffffffffffffffffffffffffffff1673ffffffffffffffffffffffffffffffffffffffff168152602001908152602001600020905060008160000154905060008260000181905550600082600101819055506000811115611712576117113382600b60009054906101000a900473ffffffffffffffffffffffffffffffffffffffff1673ffffffffffffffffffffffffffffffffffffffff16611dc49092919063ffffffff16565b5b3373ffffffffffffffffffffffffffffffffffffffff167f5fafa99d0643513820be26656b45130b01e1c03062e1266bf36f88cbd3bd9695826040516117589190612bf7565b60405180910390a2505060018081905550565b611773611b46565b73ffffffffffffffffffffffffffffffffffffffff16611791610f9d565b73ffffffffffffffffffffffffffffffffffffffff16146117e7576040517f08c379a00000000000000000000000000000000000000000000000000000000081526004016117de90612a77565b60405180910390fd5b600073ffffffffffffffffffffffffffffffffffffffff168173ffffffffffffffffffffffffffffffffffffffff161415611857576040517f08c379a000000000000000000000000000000000000000000000000000000000815260040161184e90612957565b60405180910390fd5b8073ffffffffffffffffffffffffffffffffffffffff1660008054906101000a900473ffffffffffffffffffffffffffffffffffffffff1673ffffffffffffffffffffffffffffffffffffffff167f8be0079c531659141344cd1fd0a4f28419497f9722a3daafe3b4186f6b6457e060405160405180910390a3806000806101000a81548173ffffffffffffffffffffffffffffffffffffffff021916908373ffffffffffffffffffffffffffffffffffffffff16021790555050565b600080600c60008473ffffffffffffffffffffffffffffffffffffffff1673ffffffffffffffffffffffffffffffffffffffff16815260200190815260200160002090506000600b60009054906101000a900473ffffffffffffffffffffffffffffffffffffffff1673ffffffffffffffffffffffffffffffffffffffff166370a08231306040518263ffffffff1660e01b81526004016119b59190612864565b60206040518083038186803b1580156119cd57600080fd5b505afa1580156119e1573d6000803e3d6000fd5b505050506040513d601f19601f82011682018060405250810190611a059190612417565b905060065443118015611a19575060008114155b15611ad3576000611a2c60065443611f31565b90506000611a4560085483611c9890919063ffffffff16565b90506000611a84611a7385611a6560095486611c9890919063ffffffff16565b611d1390919063ffffffff16565b600354611e4a90919063ffffffff16565b9050611ac78560010154611ab9600954611aab858a60000154611c9890919063ffffffff16565b611d1390919063ffffffff16565b611d6b90919063ffffffff16565b95505050505050611b1b565b611b168260010154611b08600954611afa6003548760000154611c9890919063ffffffff16565b611d1390919063ffffffff16565b611d6b90919063ffffffff16565b925050505b919050565b600a60009054906101000a900473ffffffffffffffffffffffffffffffffffffffff1681565b600033905090565b6006544311611b5c57611c96565b6000600b60009054906101000a900473ffffffffffffffffffffffffffffffffffffffff1673ffffffffffffffffffffffffffffffffffffffff166370a08231306040518263ffffffff1660e01b8152600401611bb99190612864565b60206040518083038186803b158015611bd157600080fd5b505afa158015611be5573d6000803e3d6000fd5b505050506040513d601f19601f82011682018060405250810190611c099190612417565b90506000811415611c21574360068190555050611c96565b6000611c2f60065443611f31565b90506000611c4860085483611c9890919063ffffffff16565b9050611c85611c7484611c6660095485611c9890919063ffffffff16565b611d1390919063ffffffff16565b600354611e4a90919063ffffffff16565b600381905550436006819055505050505b565b600080831415611cab5760009050611d0d565b60008284611cb99190612e65565b9050828482611cc89190612cc3565b14611d08576040517f08c379a0000000000000000000000000000000000000000000000000000000008152600401611cff90612a57565b60405180910390fd5b809150505b92915050565b6000808211611d57576040517f08c379a0000000000000000000000000000000000000000000000000000000008152600401611d4e90612a17565b60405180910390fd5b8183611d639190612cc3565b905092915050565b600082821115611db0576040517f08c379a0000000000000000000000000000000000000000000000000000000008152600401611da7906129b7565b60405180910390fd5b8183611dbc9190612ebf565b905092915050565b611e458363a9059cbb60e01b8484604051602401611de39291906128b6565b604051602081830303815290604052907bffffffffffffffffffffffffffffffffffffffffffffffffffffffff19166020820180517bffffffffffffffffffffffffffffffffffffffffffffffffffffffff8381831617835250505050611f86565b505050565b6000808284611e599190612c6d565b905083811015611e9e576040517f08c379a0000000000000000000000000000000000000000000000000000000008152600401611e9590612997565b60405180910390fd5b8091505092915050565b611f2b846323b872dd60e01b858585604051602401611ec99392919061287f565b604051602081830303815290604052907bffffffffffffffffffffffffffffffffffffffffffffffffffffffff19166020820180517bffffffffffffffffffffffffffffffffffffffffffffffffffffffff8381831617835250505050611f86565b50505050565b60006004548211611f5657611f4f8383611d6b90919063ffffffff16565b9050611f80565b6004548310611f685760009050611f80565b611f7d83600454611d6b90919063ffffffff16565b90505b92915050565b6000611fe8826040518060400160405280602081526020017f5361666542455032303a206c6f772d6c6576656c2063616c6c206661696c65648152508573ffffffffffffffffffffffffffffffffffffffff1661204d9092919063ffffffff16565b9050600081511115612048578080602001905181019061200891906122eb565b612047576040517f08c379a000000000000000000000000000000000000000000000000000000000815260040161203e90612937565b60405180910390fd5b5b505050565b606061205c8484600085612065565b90509392505050565b6060824710156120aa576040517f08c379a00000000000000000000000000000000000000000000000000000000081526004016120a1906129f7565b60405180910390fd5b6120b385612179565b6120f2576040517f08c379a00000000000000000000000000000000000000000000000000000000081526004016120e990612b37565b60405180910390fd5b6000808673ffffffffffffffffffffffffffffffffffffffff16858760405161211b919061284d565b60006040518083038185875af1925050503d8060008114612158576040519150601f19603f3d011682016040523d82523d6000602084013e61215d565b606091505b509150915061216d82828661218c565b92505050949350505050565b600080823b905060008111915050919050565b6060831561219c578290506121ec565b6000835111156121af5782518084602001fd5b816040517f08c379a00000000000000000000000000000000000000000000000000000000081526004016121e39190612915565b60405180910390fd5b9392505050565b60008135905061220281613497565b92915050565b600081359050612217816134ae565b92915050565b60008151905061222c816134ae565b92915050565b600081359050612241816134c5565b92915050565b600081359050612256816134dc565b92915050565b60008151905061226b816134dc565b92915050565b600081519050612280816134f3565b92915050565b60006020828403121561229857600080fd5b60006122a6848285016121f3565b91505092915050565b600080604083850312156122c257600080fd5b60006122d0858286016121f3565b92505060206122e185828601612247565b9150509250929050565b6000602082840312156122fd57600080fd5b600061230b8482850161221d565b91505092915050565b6000806040838503121561232757600080fd5b600061233585828601612208565b925050602061234685828601612247565b9150509250929050565b600080600080600080600060e0888a03121561236b57600080fd5b60006123798a828b01612232565b975050602061238a8a828b01612232565b965050604061239b8a828b01612247565b95505060606123ac8a828b01612247565b94505060806123bd8a828b01612247565b93505060a06123ce8a828b01612247565b92505060c06123df8a828b016121f3565b91505092959891949750929550565b60006020828403121561240057600080fd5b600061240e84828501612247565b91505092915050565b60006020828403121561242957600080fd5b60006124378482850161225c565b91505092915050565b6000806040838503121561245357600080fd5b600061246185828601612247565b925050602061247285828601612247565b9150509250929050565b60006020828403121561248e57600080fd5b600061249c84828501612271565b91505092915050565b6124ae81612ef3565b82525050565b6124bd81612f05565b82525050565b60006124ce82612c3b565b6124d88185612c51565b93506124e8818560208601612f7e565b80840191505092915050565b6124fd81612f5a565b82525050565b600061250e82612c46565b6125188185612c5c565b9350612528818560208601612f7e565b6125318161300f565b840191505092915050565b6000612549602a83612c5c565b91506125548261302d565b604082019050919050565b600061256c602683612c5c565b91506125778261307c565b604082019050919050565b600061258f601083612c5c565b915061259a826130cb565b602082019050919050565b60006125b2601b83612c5c565b91506125bd826130f4565b602082019050919050565b60006125d5601e83612c5c565b91506125e08261311d565b602082019050919050565b60006125f8602e83612c5c565b915061260382613146565b604082019050919050565b600061261b602683612c5c565b915061262682613195565b604082019050919050565b600061263e601a83612c5c565b9150612649826131e4565b602082019050919050565b6000612661603083612c5c565b915061266c8261320d565b604082019050919050565b6000612684602183612c5c565b915061268f8261325c565b604082019050919050565b60006126a7602083612c5c565b91506126b2826132ab565b602082019050919050565b60006126ca600b83612c5c565b91506126d5826132d4565b602082019050919050565b60006126ed601883612c5c565b91506126f8826132fd565b602082019050919050565b6000612710601783612c5c565b915061271b82613326565b602082019050919050565b6000612733601683612c5c565b915061273e8261334f565b602082019050919050565b6000612756601b83612c5c565b915061276182613378565b602082019050919050565b6000612779601d83612c5c565b9150612784826133a1565b602082019050919050565b600061279c601683612c5c565b91506127a7826133ca565b602082019050919050565b60006127bf601383612c5c565b91506127ca826133f3565b602082019050919050565b60006127e2601f83612c5c565b91506127ed8261341c565b602082019050919050565b6000612805600b83612c5c565b915061281082613445565b602082019050919050565b6000612828601683612c5c565b91506128338261346e565b602082019050919050565b61284781612f43565b82525050565b600061285982846124c3565b915081905092915050565b600060208201905061287960008301846124a5565b92915050565b600060608201905061289460008301866124a5565b6128a160208301856124a5565b6128ae604083018461283e565b949350505050565b60006040820190506128cb60008301856124a5565b6128d8602083018461283e565b9392505050565b60006020820190506128f460008301846124b4565b92915050565b600060208201905061290f60008301846124f4565b92915050565b6000602082019050818103600083015261292f8184612503565b905092915050565b600060208201905081810360008301526129508161253c565b9050919050565b600060208201905081810360008301526129708161255f565b9050919050565b6000602082019050818103600083015261299081612582565b9050919050565b600060208201905081810360008301526129b0816125a5565b9050919050565b600060208201905081810360008301526129d0816125c8565b9050919050565b600060208201905081810360008301526129f0816125eb565b9050919050565b60006020820190508181036000830152612a108161260e565b9050919050565b60006020820190508181036000830152612a3081612631565b9050919050565b60006020820190508181036000830152612a5081612654565b9050919050565b60006020820190508181036000830152612a7081612677565b9050919050565b60006020820190508181036000830152612a908161269a565b9050919050565b60006020820190508181036000830152612ab0816126bd565b9050919050565b60006020820190508181036000830152612ad0816126e0565b9050919050565b60006020820190508181036000830152612af081612703565b9050919050565b60006020820190508181036000830152612b1081612726565b9050919050565b60006020820190508181036000830152612b3081612749565b9050919050565b60006020820190508181036000830152612b508161276c565b9050919050565b60006020820190508181036000830152612b708161278f565b9050919050565b60006020820190508181036000830152612b90816127b2565b9050919050565b60006020820190508181036000830152612bb0816127d5565b9050919050565b60006020820190508181036000830152612bd0816127f8565b9050919050565b60006020820190508181036000830152612bf08161281b565b9050919050565b6000602082019050612c0c600083018461283e565b92915050565b6000604082019050612c27600083018561283e565b612c34602083018461283e565b9392505050565b600081519050919050565b600081519050919050565b600081905092915050565b600082825260208201905092915050565b6000612c7882612f43565b9150612c8383612f43565b9250827fffffffffffffffffffffffffffffffffffffffffffffffffffffffffffffffff03821115612cb857612cb7612fb1565b5b828201905092915050565b6000612cce82612f43565b9150612cd983612f43565b925082612ce957612ce8612fe0565b5b828204905092915050565b6000808291508390505b6001851115612d3e57808604811115612d1a57612d19612fb1565b5b6001851615612d295780820291505b8081029050612d3785613020565b9450612cfe565b94509492505050565b6000612d5282612f43565b9150612d5d83612f43565b9250612d8a7fffffffffffffffffffffffffffffffffffffffffffffffffffffffffffffffff8484612d92565b905092915050565b600082612da25760019050612e5e565b81612db05760009050612e5e565b8160018114612dc65760028114612dd057612dff565b6001915050612e5e565b60ff841115612de257612de1612fb1565b5b8360020a915084821115612df957612df8612fb1565b5b50612e5e565b5060208310610133831016604e8410600b8410161715612e345782820a905083811115612e2f57612e2e612fb1565b5b612e5e565b612e418484846001612cf4565b92509050818404811115612e5857612e57612fb1565b5b81810290505b9392505050565b6000612e7082612f43565b9150612e7b83612f43565b9250817fffffffffffffffffffffffffffffffffffffffffffffffffffffffffffffffff0483118215151615612eb457612eb3612fb1565b5b828202905092915050565b6000612eca82612f43565b9150612ed583612f43565b925082821015612ee857612ee7612fb1565b5b828203905092915050565b6000612efe82612f23565b9050919050565b60008115159050919050565b6000612f1c82612ef3565b9050919050565b600073ffffffffffffffffffffffffffffffffffffffff82169050919050565b6000819050919050565b600060ff82169050919050565b6000612f6582612f6c565b9050919050565b6000612f7782612f23565b9050919050565b60005b83811015612f9c578082015181840152602081019050612f81565b83811115612fab576000848401525b50505050565b7f4e487b7100000000000000000000000000000000000000000000000000000000600052601160045260246000fd5b7f4e487b7100000000000000000000000000000000000000000000000000000000600052601260045260246000fd5b6000601f19601f8301169050919050565b60008160011c9050919050565b7f5361666542455032303a204245503230206f7065726174696f6e20646964206e60008201527f6f74207375636365656400000000000000000000000000000000000000000000602082015250565b7f4f776e61626c653a206e6577206f776e657220697320746865207a65726f206160008201527f6464726573730000000000000000000000000000000000000000000000000000602082015250565b7f506f6f6c20686173207374617274656400000000000000000000000000000000600082015250565b7f536166654d6174683a206164646974696f6e206f766572666c6f770000000000600082015250565b7f536166654d6174683a207375627472616374696f6e206f766572666c6f770000600082015250565b7f4e6577207374617274426c6f636b206d757374206265206c6f7765722074686160008201527f6e206e657720656e64426c6f636b000000000000000000000000000000000000602082015250565b7f416464726573733a20696e73756666696369656e742062616c616e636520666f60008201527f722063616c6c0000000000000000000000000000000000000000000000000000602082015250565b7f536166654d6174683a206469766973696f6e206279207a65726f000000000000600082015250565b7f4e6577207374617274426c6f636b206d7573742062652068696768657220746860008201527f616e2063757272656e7420626c6f636b00000000000000000000000000000000602082015250565b7f536166654d6174683a206d756c7469706c69636174696f6e206f766572666c6f60008201527f7700000000000000000000000000000000000000000000000000000000000000602082015250565b7f4f776e61626c653a2063616c6c6572206973206e6f7420746865206f776e6572600082015250565b7f4d75737420626520736574000000000000000000000000000000000000000000600082015250565b7f4e6577206c696d6974206d757374206265206869676865720000000000000000600082015250565b7f5573657220616d6f756e742061626f7665206c696d6974000000000000000000600082015250565b7f43616e6e6f742062652072657761726420746f6b656e00000000000000000000600082015250565b7f416d6f756e7420746f20776974686472617720746f6f20686967680000000000600082015250565b7f416464726573733a2063616c6c20746f206e6f6e2d636f6e7472616374000000600082015250565b7f43616e6e6f74206265207374616b656420746f6b656e00000000000000000000600082015250565b7f416c726561647920696e697469616c697a656400000000000000000000000000600082015250565b7f5265656e7472616e637947756172643a207265656e7472616e742063616c6c00600082015250565b7f4e6f7420666163746f7279000000000000000000000000000000000000000000600082015250565b7f4d75737420626520696e666572696f7220746f20333000000000000000000000600082015250565b6134a081612ef3565b81146134ab57600080fd5b50565b6134b781612f05565b81146134c257600080fd5b50565b6134ce81612f11565b81146134d957600080fd5b50565b6134e581612f43565b81146134f057600080fd5b50565b6134fc81612f4d565b811461350757600080fd5b5056fea26469706673582212207dcbea9cd940ac84299f13750134e3235a334087c2408a778916499a3e22f52664736f6c63430008040033a264697066735822122050bf1414f27f3f4a10c61831510ca74978e5bf8ff6f073ee8d4d7a7aefaa36d164736f6c63430008040033",
  "linkReferences": {},
  "deployedLinkReferences": {}
}