{
  "_format": "hh-sol-artifact-1",
  "contractName": "IFO",
  "sourceName": "contracts/ido/IFO.sol",
  "abi": [
    {
      "anonymous": false,
      "inputs": [
        {
          "indexed": false,
          "internalType": "uint256",
          "name": "id",
          "type": "uint256"
        },
        {
          "indexed": false,
          "internalType": "address",
          "name": "account",
          "type": "address"
        },
        {
          "indexed": false,
          "internalType": "uint256",
          "name": "ifoValue",
          "type": "uint256"
        },
        {
          "indexed": false,
          "internalType": "uint256",
          "name": "fee",
          "type": "uint256"
        },
        {
          "indexed": false,
          "internalType": "uint256",
          "name": "backValue",
          "type": "uint256"
        }
      ],
      "name": "Collected",
      "type": "event"
    },
    {
      "anonymous": false,
      "inputs": [
        {
          "indexed": false,
          "internalType": "uint256",
          "name": "id",
          "type": "uint256"
        },
        {
          "indexed": false,
          "internalType": "address",
          "name": "exhibits",
          "type": "address"
        },
        {
          "indexed": false,
          "internalType": "address",
          "name": "currency",
          "type": "address"
        },
        {
          "indexed": false,
          "internalType": "address",
          "name": "recipient",
          "type": "address"
        },
        {
          "indexed": false,
          "internalType": "uint256",
          "name": "price",
          "type": "uint256"
        },
        {
          "indexed": false,
          "internalType": "uint256",
          "name": "hardcap",
          "type": "uint256"
        },
        {
          "indexed": false,
          "internalType": "uint256",
          "name": "totalSupply",
          "type": "uint256"
        },
        {
          "indexed": false,
          "internalType": "uint256",
          "name": "totalAmount",
          "type": "uint256"
        },
        {
          "indexed": false,
          "internalType": "uint256",
          "name": "startTime",
          "type": "uint256"
        },
        {
          "indexed": false,
          "internalType": "uint256",
          "name": "duration",
          "type": "uint256"
        }
      ],
      "name": "IFOLaunch",
      "type": "event"
    },
    {
      "anonymous": false,
      "inputs": [
        {
          "indexed": false,
          "internalType": "uint256",
          "name": "id",
          "type": "uint256"
        }
      ],
      "name": "IFORemove",
      "type": "event"
    },
    {
      "anonymous": false,
      "inputs": [
        {
          "indexed": false,
          "internalType": "uint256",
          "name": "id",
          "type": "uint256"
        },
        {
          "indexed": false,
          "internalType": "uint256",
          "name": "receiveValue",
          "type": "uint256"
        },
        {
          "indexed": false,
          "internalType": "uint256",
          "name": "leftValue",
          "type": "uint256"
        }
      ],
      "name": "IFOWithdraw",
      "type": "event"
    },
    {
      "anonymous": false,
      "inputs": [
        {
          "indexed": true,
          "internalType": "address",
          "name": "previousOwner",
          "type": "address"
        },
        {
          "indexed": true,
          "internalType": "address",
          "name": "newOwner",
          "type": "address"
        }
      ],
      "name": "OwnershipTransferred",
      "type": "event"
    },
    {
      "anonymous": false,
      "inputs": [
        {
          "indexed": false,
          "internalType": "uint256",
          "name": "id",
          "type": "uint256"
        },
        {
          "indexed": false,
          "internalType": "address",
          "name": "account",
          "type": "address"
        },
        {
          "indexed": false,
          "internalType": "uint256",
          "name": "value",
          "type": "uint256"
        }
      ],
      "name": "Staked",
      "type": "event"
    },
    {
      "inputs": [],
      "name": "MAX",
      "outputs": [
        {
          "internalType": "uint256",
          "name": "",
          "type": "uint256"
        }
      ],
      "stateMutability": "view",
      "type": "function"
    },
    {
      "inputs": [],
      "name": "ROUND",
      "outputs": [
        {
          "internalType": "uint256",
          "name": "",
          "type": "uint256"
        }
      ],
      "stateMutability": "view",
      "type": "function"
    },
    {
      "inputs": [
        {
          "internalType": "address",
          "name": "account",
          "type": "address"
        },
        {
          "internalType": "uint256",
          "name": "id",
          "type": "uint256"
        }
      ],
      "name": "available",
      "outputs": [
        {
          "internalType": "uint256",
          "name": "_ifoAmount",
          "type": "uint256"
        },
        {
          "internalType": "uint256",
          "name": "_sendBack",
          "type": "uint256"
        }
      ],
      "stateMutability": "view",
      "type": "function"
    },
    {
      "inputs": [
        {
          "internalType": "uint256",
          "name": "id",
          "type": "uint256"
        }
      ],
      "name": "collect",
      "outputs": [],
      "stateMutability": "nonpayable",
      "type": "function"
    },
    {
      "inputs": [
        {
          "internalType": "uint256",
          "name": "id",
          "type": "uint256"
        }
      ],
      "name": "getFeeRate",
      "outputs": [
        {
          "internalType": "uint256",
          "name": "",
          "type": "uint256"
        }
      ],
      "stateMutability": "view",
      "type": "function"
    },
    {
      "inputs": [],
      "name": "idIncrement",
      "outputs": [
        {
          "internalType": "uint256",
          "name": "",
          "type": "uint256"
        }
      ],
      "stateMutability": "view",
      "type": "function"
    },
    {
      "inputs": [
        {
          "internalType": "uint256",
          "name": "",
          "type": "uint256"
        }
      ],
      "name": "ifoInfos",
      "outputs": [
        {
          "internalType": "uint256",
          "name": "id",
          "type": "uint256"
        },
        {
          "internalType": "contract IBEP20",
          "name": "exhibits",
          "type": "address"
        },
        {
          "internalType": "contract IBEP20",
          "name": "currency",
          "type": "address"
        },
        {
          "internalType": "address",
          "name": "recipient",
          "type": "address"
        },
        {
          "internalType": "uint256",
          "name": "price",
          "type": "uint256"
        },
        {
          "internalType": "uint256",
          "name": "totalSupply",
          "type": "uint256"
        },
        {
          "internalType": "uint256",
          "name": "totalAmount",
          "type": "uint256"
        },
        {
          "internalType": "uint256",
          "name": "startTime",
          "type": "uint256"
        },
        {
          "internalType": "uint256",
          "name": "duration",
          "type": "uint256"
        },
        {
          "internalType": "uint256",
          "name": "hardcap",
          "type": "uint256"
        },
        {
          "internalType": "uint256",
          "name": "incomeTotal",
          "type": "uint256"
        }
      ],
      "stateMutability": "view",
      "type": "function"
    },
    {
      "inputs": [
        {
          "internalType": "uint256",
          "name": "id",
          "type": "uint256"
        },
        {
          "internalType": "address",
          "name": "account",
          "type": "address"
        }
      ],
      "name": "isCollected",
      "outputs": [
        {
          "internalType": "bool",
          "name": "",
          "type": "bool"
        }
      ],
      "stateMutability": "view",
      "type": "function"
    },
    {
      "inputs": [
        {
          "internalType": "contract IBEP20",
          "name": "exhibits",
          "type": "address"
        },
        {
          "internalType": "contract IBEP20",
          "name": "currency",
          "type": "address"
        },
        {
          "internalType": "address",
          "name": "recipient",
          "type": "address"
        },
        {
          "internalType": "uint256",
          "name": "totalAmount",
          "type": "uint256"
        },
        {
          "internalType": "uint256",
          "name": "totalSupply",
          "type": "uint256"
        },
        {
          "internalType": "uint256",
          "name": "hardcap",
          "type": "uint256"
        },
        {
          "internalType": "uint256",
          "name": "startTime",
          "type": "uint256"
        },
        {
          "internalType": "uint256",
          "name": "duration",
          "type": "uint256"
        }
      ],
      "name": "launch",
      "outputs": [],
      "stateMutability": "nonpayable",
      "type": "function"
    },
    {
      "inputs": [],
      "name": "owner",
      "outputs": [
        {
          "internalType": "address",
          "name": "",
          "type": "address"
        }
      ],
      "stateMutability": "view",
      "type": "function"
    },
    {
      "inputs": [],
      "name": "removeIFO",
      "outputs": [],
      "stateMutability": "nonpayable",
      "type": "function"
    },
    {
      "inputs": [],
      "name": "renounceOwnership",
      "outputs": [],
      "stateMutability": "nonpayable",
      "type": "function"
    },
    {
      "inputs": [
        {
          "internalType": "uint256",
          "name": "value",
          "type": "uint256"
        }
      ],
      "name": "stake",
      "outputs": [],
      "stateMutability": "nonpayable",
      "type": "function"
    },
    {
      "inputs": [
        {
          "internalType": "address",
          "name": "newOwner",
          "type": "address"
        }
      ],
      "name": "transferOwnership",
      "outputs": [],
      "stateMutability": "nonpayable",
      "type": "function"
    },
    {
      "inputs": [
        {
          "internalType": "uint256",
          "name": "id",
          "type": "uint256"
        },
        {
          "internalType": "address",
          "name": "account",
          "type": "address"
        }
      ],
      "name": "userPayValue",
      "outputs": [
        {
          "internalType": "uint256",
          "name": "",
          "type": "uint256"
        }
      ],
      "stateMutability": "view",
      "type": "function"
    },
    {
      "inputs": [
        {
          "internalType": "uint256",
          "name": "id",
          "type": "uint256"
        }
      ],
      "name": "withdraw",
      "outputs": [],
      "stateMutability": "nonpayable",
      "type": "function"
    }
  ],
  "bytecode": "0x6080604052600060015534801561001557600080fd5b50600080546001600160a01b031916339081178255604051909182917f8be0079c531659141344cd1fd0a4f28419497f9722a3daafe3b4186f6b6457e0908290a35061196e806100666000396000f3fe608060405234801561001057600080fd5b50600436106100d05760003560e01c8063150859fc146100d55780632e1a7d4d146100df5780633c896d48146100f2578063401ac257146101ce57806363057ac1146101f1578063715018a6146102045780638da5cb5b1461020c578063a694fc3a1461022c578063b1a69a411461023f578063b24ae1f814610287578063ce3f865f14610296578063cfedfeb3146102a9578063d2aaef4e146102b2578063d49d5181146102c5578063f2fde38b146102ce578063f8724aba146102e1575b600080fd5b6100dd610309565b005b6100dd6100ed3660046116e4565b61049f565b6101676101003660046116e4565b600260208190526000918252604090912080546001820154928201546003830154600484015460058501546006860154600787015460088801546009890154600a9099015497996001600160a01b039081169997811698961696949593949293919290918b565b604080519b8c526001600160a01b039a8b1660208d0152988a16988b0198909852979095166060890152608088019390935260a087019190915260c086015260e0850152610100840152610120830191909152610140820152610160015b60405180910390f35b6101e16101dc3660046116fc565b6106fe565b60405190151581526020016101c5565b6100dd6101ff36600461166e565b61072e565b6100dd610a68565b610214610acf565b6040516001600160a01b0390911681526020016101c5565b6100dd61023a3660046116e4565b610ade565b61027961024d3660046116fc565b60008281526002602090815260408083206001600160a01b0385168452600b0190915290205492915050565b6040519081526020016101c5565b610279670de0b6b3a764000081565b6100dd6102a43660046116e4565b610c87565b61027960015481565b6102796102c03660046116e4565b610e33565b61027960001981565b6100dd6102dc366004611607565b610f1e565b6102f46102ef366004611623565b610ffb565b604080519283526020830191909152016101c5565b33610312610acf565b6001600160a01b0316146103415760405162461bcd60e51b81526004016103389061181b565b60405180910390fd5b60015460009081526002602052604090206007015442106103b65760405162461bcd60e51b815260206004820152602960248201527f49464f3a207468657265206973206e6f2069666f20746861742063616e206265604482015268103232b632ba32b21760b91b6064820152608401610338565b60018054600090815260026020526040902060058101549101546103e7916001600160a01b03909116903390611187565b60018054600090815260026020818152604080842084815580860180546001600160a01b0319908116909155938101805485169055600381018054909416909355600483018490556005830184905560068301849055600783018490556008830184905560098301849055600a90920192909255915491519182527f773a806100f4c785509200b937a5ea4ba2be24f7a2234631414f3a43383e255b910160405180910390a16001805461049a916111ef565b600155565b336104a8610acf565b6001600160a01b0316146104ce5760405162461bcd60e51b81526004016103389061181b565b600081815260026020526040902060015482118015906104ee5750600082115b61050a5760405162461bcd60e51b8152600401610338906117e4565b60008281526003602052604090205460ff16156105395760405162461bcd60e51b81526004016103389061177a565b6008810154600782015461054c91611231565b421161056a5760405162461bcd60e51b8152600401610338906117b1565b6000828152600360205260408120805460ff1916600117905560048201546005830154829182916105d69161059f919061128e565b6105d0670de0b6b3a76400006105ca670de0b6b3a764000089600a015461128e90919063ffffffff16565b9061128e565b9061130d565b9050670de0b6b3a764000081106106375761060e670de0b6b3a76400006105d08660040154876005015461128e90919063ffffffff16565b60038501546002860154919450610632916001600160a01b03908116911685611187565b6106b5565b600a84015460038501546002860154919450610660916001600160a01b03908116911685611187565b610691610686670de0b6b3a76400006105d084886005015461128e90919063ffffffff16565b6005860154906111ef565b600385015460018601549193506106b5916001600160a01b03908116911684611187565b60408051868152602081018590529081018390527f7be3cf04f5b1b87b56474aef3d59baf98eccf63fe800cd9b5d0b3905a4789d28906060015b60405180910390a15050505050565b60008281526002602090815260408083206001600160a01b0385168452600c0190915290205460ff165b92915050565b33610737610acf565b6001600160a01b03161461075d5760405162461bcd60e51b81526004016103389061181b565b6001600160a01b0386166107be5760405162461bcd60e51b815260206004820152602260248201527f49464f3a20726563697069656e7420616464726573732063616e6e6f74206265604482015261020360f41b6064820152608401610338565b42821161081d5760405162461bcd60e51b815260206004820152602760248201527f49464f3a20737461727454696d652073686f756c64206265206c61746572207460448201526668616e206e6f7760c81b6064820152608401610338565b6001546000908152600260205260409020600881015460079091015461084291611231565b42116108605760405162461bcd60e51b8152600401610338906117b1565b6001600160a01b0388166108c05760405162461bcd60e51b815260206004820152602160248201527f49464f3a20657868696269747320616464726573732063616e6e6f74206265206044820152600360fc1b6064820152608401610338565b6001600160a01b0387166109205760405162461bcd60e51b815260206004820152602160248201527f49464f3a2063757272656e637920616464726573732063616e6e6f74206265206044820152600360fc1b6064820152608401610338565b6001805461092d91611231565b6001818155600082815260026020819052604090912092835590820180546001600160a01b03808d166001600160a01b03199283161790925591830180548b8316908416179055600383018054918a1691909216179055600681018690556109a1856105d088670de0b6b3a764000061128e565b6004820155600981018490556005810185905560078101839055600881018290556109d76001600160a01b038a1633308861134c565b6001546004820154604080519283526001600160a01b038c811660208501528b8116848301528a166060840152608083019190915260a0820186905260c0820187905260e0820188905261010082018590526101208201849052517f14cf72ff0b85bd854091600f2f7d8f56330736ce5c6e9b33df47e2e94967066e918190036101400190a1505050505050505050565b33610a71610acf565b6001600160a01b031614610a975760405162461bcd60e51b81526004016103389061181b565b600080546040516001600160a01b0390911690600080516020611919833981519152908390a3600080546001600160a01b0319169055565b6000546001600160a01b031690565b600060015411610b005760405162461bcd60e51b8152600401610338906117e4565b6001546000908152600260205260409020600781015442118015610b35575060088101546007820154610b3291611231565b42105b610b805760405162461bcd60e51b815260206004820152601c60248201527b24a3279d1034b3379034b9903737ba1034b710383937b3b932b9b99760211b6044820152606401610338565b6009810154336000908152600b83016020526040902054610ba19084611231565b1115610be55760405162461bcd60e51b8152602060048201526013602482015272125193ce881b1a5b5a5d08195e18d959591959606a1b6044820152606401610338565b336000908152600b82016020526040902054610c019083611231565b336000908152600b83016020526040902055600a810154610c229083611231565b600a8201556002810154610c41906001600160a01b031633308561134c565b6001546040805191825233602083015281018390527f18dcd430020e4d4899772fd94a8b40451dc5044dfb70bc46b532eeae431c864f9060600160405180910390a15050565b6001548111158015610c995750600081115b610cb55760405162461bcd60e51b8152600401610338906117e4565b600081815260026020526040902060088101546007820154610cd691611231565b4211610cf45760405162461bcd60e51b8152600401610338906117b1565b336000908152600c8201602052604090205460ff1615610d265760405162461bcd60e51b81526004016103389061177a565b336000818152600c830160205260408120805460ff19166001179055908190610d4f9085610ffb565b60018501549193509150610d6d906001600160a01b03163384611187565b60008115610de8576000610d8086610e33565b9050610d98670de0b6b3a76400006105d0858461128e565b91508115610dcd57610dc0610dab610acf565b60028701546001600160a01b03169084611187565b610dca83836111ef565b92505b6002850154610de6906001600160a01b03163385611187565b505b6040805186815233602082015290810184905260608101829052608081018390527fdc9135ce675b83d693202bca9b4cdd195eaf92e3f673e8b2ba9017b924c86b609060a0016106ef565b60008181526002602052604081206009015460001914610e5557506000919050565b60008281526002602052604081206006810154600a90910154610e779161130d565b90506101f48110610ea257610e9b6127106105d0670de0b6b3a7640000601461128e565b9392505050565b60fa8110610ec357610e9b6127106105d0670de0b6b3a7640000601961128e565b60648110610ee457610e9b6127106105d0670de0b6b3a7640000601e61128e565b60328110610f0557610e9b6127106105d0670de0b6b3a7640000603261128e565b610e9b6127106105d0670de0b6b3a7640000606461128e565b33610f27610acf565b6001600160a01b031614610f4d5760405162461bcd60e51b81526004016103389061181b565b6001600160a01b038116610fb25760405162461bcd60e51b815260206004820152602660248201527f4f776e61626c653a206e6577206f776e657220697320746865207a65726f206160448201526564647265737360d01b6064820152608401610338565b600080546040516001600160a01b038085169392169160008051602061191983398151915291a3600080546001600160a01b0319166001600160a01b0392909216919091179055565b6000818152600260205260408120600154829190841180159061101e5750600084115b61103a5760405162461bcd60e51b8152600401610338906117e4565b600061108561105a8360040154846005015461128e90919063ffffffff16565b6105d0670de0b6b3a76400006105ca670de0b6b3a764000087600a015461128e90919063ffffffff16565b9050670de0b6b3a76400008111156111445760048201546001600160a01b0387166000908152600b840160205260409020546110d891906105d09084908290670de0b6b3a7640000906105ca908261128e565b935061113d670de0b6b3a76400006105d061111c61110d8583600161110783611101898061128e565b90611231565b906111ef565b670de0b6b3a7640000906111ef565b6001600160a01b038a166000908152600b870160205260409020549061128e565b925061117e565b60048201546001600160a01b0387166000908152600b8401602052604090205461117b91906105d090670de0b6b3a764000061128e565b93505b50509250929050565b6040516001600160a01b0383166024820152604481018290526111ea90849063a9059cbb60e01b906064015b60408051601f198184030181529190526020810180516001600160e01b03166001600160e01b03199093169290921790915261138a565b505050565b6000610e9b83836040518060400160405280601e81526020017f536166654d6174683a207375627472616374696f6e206f766572666c6f77000081525061145c565b60008061123e8385611850565b905083811015610e9b5760405162461bcd60e51b815260206004820152601b60248201527a536166654d6174683a206164646974696f6e206f766572666c6f7760281b6044820152606401610338565b60008261129d57506000610728565b60006112a98385611888565b9050826112b68583611868565b14610e9b5760405162461bcd60e51b815260206004820152602160248201527f536166654d6174683a206d756c7469706c69636174696f6e206f766572666c6f6044820152607760f81b6064820152608401610338565b6000610e9b83836040518060400160405280601a815260200179536166654d6174683a206469766973696f6e206279207a65726f60301b815250611496565b6040516001600160a01b03808516602483015283166044820152606481018290526113849085906323b872dd60e01b906084016111b3565b50505050565b60006113df826040518060400160405280602081526020017f5361666542455032303a206c6f772d6c6576656c2063616c6c206661696c6564815250856001600160a01b03166114c49092919063ffffffff16565b8051909150156111ea57808060200190518101906113fd919061164e565b6111ea5760405162461bcd60e51b815260206004820152602a60248201527f5361666542455032303a204245503230206f7065726174696f6e20646964206e6044820152691bdd081cdd58d8d9595960b21b6064820152608401610338565b600081848411156114805760405162461bcd60e51b81526004016103389190611747565b50600061148d84866118a7565b95945050505050565b600081836114b75760405162461bcd60e51b81526004016103389190611747565b50600061148d8486611868565b60606114d384846000856114db565b949350505050565b60606114e6856115ce565b6115325760405162461bcd60e51b815260206004820152601d60248201527f416464726573733a2063616c6c20746f206e6f6e2d636f6e74726163740000006044820152606401610338565b600080866001600160a01b0316858760405161154e919061172b565b60006040518083038185875af1925050503d806000811461158b576040519150601f19603f3d011682016040523d82523d6000602084013e611590565b606091505b509150915081156115a45791506114d39050565b8051156115b45780518082602001fd5b8360405162461bcd60e51b81526004016103389190611747565b6000813f7fc5d2460186f7233c927e7db2dcc703c0e500b653ca82273b7bfad8045d85a4708181148015906114d3575050151592915050565b600060208284031215611618578081fd5b8135610e9b81611900565b60008060408385031215611635578081fd5b823561164081611900565b946020939093013593505050565b60006020828403121561165f578081fd5b81518015158114610e9b578182fd5b600080600080600080600080610100898b03121561168a578384fd5b883561169581611900565b975060208901356116a581611900565b965060408901356116b581611900565b979a96995096976060810135975060808101359660a0820135965060c0820135955060e0909101359350915050565b6000602082840312156116f5578081fd5b5035919050565b6000806040838503121561170e578182fd5b82359150602083013561172081611900565b809150509250929050565b6000825161173d8184602087016118be565b9190910192915050565b60208152600082518060208401526117668160408501602087016118be565b601f01601f19169190910160400192915050565b6020808252601d908201527f49464f3a2063616e6e6f7420636c61696d2072657065617465646c792e000000604082015260600190565b60208082526019908201527824a3279d1034b3379034b9903737ba1037bb32b9103cb2ba1760391b604082015260600190565b6020808252601d908201527f49464f3a2069666f207468617420646f6573206e6f742065786973742e000000604082015260600190565b6020808252818101527f4f776e61626c653a2063616c6c6572206973206e6f7420746865206f776e6572604082015260600190565b60008219821115611863576118636118ea565b500190565b60008261188357634e487b7160e01b81526012600452602481fd5b500490565b60008160001904831182151516156118a2576118a26118ea565b500290565b6000828210156118b9576118b96118ea565b500390565b60005b838110156118d95781810151838201526020016118c1565b838111156113845750506000910152565b634e487b7160e01b600052601160045260246000fd5b6001600160a01b038116811461191557600080fd5b5056fe8be0079c531659141344cd1fd0a4f28419497f9722a3daafe3b4186f6b6457e0a264697066735822122075406dbda55102e217af16872819a99591b74871e5abae7bbdde61d9991ddaf364736f6c63430008040033",
  "linkReferences": {},
  "deployedLinkReferences": {}
}