{
  "_format": "hh-sol-artifact-1",
  "contractName": "IFO",
  "sourceName": "contracts/ido/IFO.sol",
  "abi": [
    {
      "anonymous": false,
      "inputs": [
        {
          "indexed": false,
          "internalType": "uint256",
          "name": "id",
          "type": "uint256"
        },
        {
          "indexed": false,
          "internalType": "address",
          "name": "account",
          "type": "address"
        },
        {
          "indexed": false,
          "internalType": "uint256",
          "name": "ifoValue",
          "type": "uint256"
        },
        {
          "indexed": false,
          "internalType": "uint256",
          "name": "fee",
          "type": "uint256"
        },
        {
          "indexed": false,
          "internalType": "uint256",
          "name": "backValue",
          "type": "uint256"
        }
      ],
      "name": "Collected",
      "type": "event"
    },
    {
      "anonymous": false,
      "inputs": [
        {
          "indexed": false,
          "internalType": "uint256",
          "name": "id",
          "type": "uint256"
        },
        {
          "indexed": false,
          "internalType": "address",
          "name": "exhibits",
          "type": "address"
        },
        {
          "indexed": false,
          "internalType": "address",
          "name": "currency",
          "type": "address"
        },
        {
          "indexed": false,
          "internalType": "address",
          "name": "recipient",
          "type": "address"
        },
        {
          "indexed": false,
          "internalType": "uint256",
          "name": "price",
          "type": "uint256"
        },
        {
          "indexed": false,
          "internalType": "uint256",
          "name": "hardcap",
          "type": "uint256"
        },
        {
          "indexed": false,
          "internalType": "uint256",
          "name": "totalSupply",
          "type": "uint256"
        },
        {
          "indexed": false,
          "internalType": "uint256",
          "name": "totalAmount",
          "type": "uint256"
        },
        {
          "indexed": false,
          "internalType": "uint256",
          "name": "startTime",
          "type": "uint256"
        },
        {
          "indexed": false,
          "internalType": "uint256",
          "name": "duration",
          "type": "uint256"
        }
      ],
      "name": "IFOLaunch",
      "type": "event"
    },
    {
      "anonymous": false,
      "inputs": [
        {
          "indexed": false,
          "internalType": "uint256",
          "name": "id",
          "type": "uint256"
        }
      ],
      "name": "IFORemove",
      "type": "event"
    },
    {
      "anonymous": false,
      "inputs": [
        {
          "indexed": false,
          "internalType": "uint256",
          "name": "id",
          "type": "uint256"
        },
        {
          "indexed": false,
          "internalType": "uint256",
          "name": "receiveValue",
          "type": "uint256"
        },
        {
          "indexed": false,
          "internalType": "uint256",
          "name": "leftValue",
          "type": "uint256"
        }
      ],
      "name": "IFOWithdraw",
      "type": "event"
    },
    {
      "anonymous": false,
      "inputs": [
        {
          "indexed": true,
          "internalType": "address",
          "name": "previousOwner",
          "type": "address"
        },
        {
          "indexed": true,
          "internalType": "address",
          "name": "newOwner",
          "type": "address"
        }
      ],
      "name": "OwnershipTransferred",
      "type": "event"
    },
    {
      "anonymous": false,
      "inputs": [
        {
          "indexed": false,
          "internalType": "uint256",
          "name": "id",
          "type": "uint256"
        },
        {
          "indexed": false,
          "internalType": "address",
          "name": "account",
          "type": "address"
        },
        {
          "indexed": false,
          "internalType": "uint256",
          "name": "value",
          "type": "uint256"
        }
      ],
      "name": "Staked",
      "type": "event"
    },
    {
      "inputs": [],
      "name": "MAX",
      "outputs": [
        {
          "internalType": "uint256",
          "name": "",
          "type": "uint256"
        }
      ],
      "stateMutability": "view",
      "type": "function"
    },
    {
      "inputs": [],
      "name": "ROUND",
      "outputs": [
        {
          "internalType": "uint256",
          "name": "",
          "type": "uint256"
        }
      ],
      "stateMutability": "view",
      "type": "function"
    },
    {
      "inputs": [
        {
          "internalType": "address",
          "name": "account",
          "type": "address"
        },
        {
          "internalType": "uint256",
          "name": "id",
          "type": "uint256"
        }
      ],
      "name": "available",
      "outputs": [
        {
          "internalType": "uint256",
          "name": "_ifoAmount",
          "type": "uint256"
        },
        {
          "internalType": "uint256",
          "name": "_sendBack",
          "type": "uint256"
        }
      ],
      "stateMutability": "view",
      "type": "function"
    },
    {
      "inputs": [
        {
          "internalType": "uint256",
          "name": "id",
          "type": "uint256"
        }
      ],
      "name": "collect",
      "outputs": [],
      "stateMutability": "nonpayable",
      "type": "function"
    },
    {
      "inputs": [
        {
          "internalType": "uint256",
          "name": "id",
          "type": "uint256"
        }
      ],
      "name": "getFeeRate",
      "outputs": [
        {
          "internalType": "uint256",
          "name": "",
          "type": "uint256"
        }
      ],
      "stateMutability": "view",
      "type": "function"
    },
    {
      "inputs": [],
      "name": "idIncrement",
      "outputs": [
        {
          "internalType": "uint256",
          "name": "",
          "type": "uint256"
        }
      ],
      "stateMutability": "view",
      "type": "function"
    },
    {
      "inputs": [
        {
          "internalType": "uint256",
          "name": "",
          "type": "uint256"
        }
      ],
      "name": "ifoInfos",
      "outputs": [
        {
          "internalType": "uint256",
          "name": "id",
          "type": "uint256"
        },
        {
          "internalType": "contract IBEP20",
          "name": "exhibits",
          "type": "address"
        },
        {
          "internalType": "contract IBEP20",
          "name": "currency",
          "type": "address"
        },
        {
          "internalType": "address",
          "name": "recipient",
          "type": "address"
        },
        {
          "internalType": "uint256",
          "name": "price",
          "type": "uint256"
        },
        {
          "internalType": "uint256",
          "name": "totalSupply",
          "type": "uint256"
        },
        {
          "internalType": "uint256",
          "name": "totalAmount",
          "type": "uint256"
        },
        {
          "internalType": "uint256",
          "name": "startTime",
          "type": "uint256"
        },
        {
          "internalType": "uint256",
          "name": "duration",
          "type": "uint256"
        },
        {
          "internalType": "uint256",
          "name": "hardcap",
          "type": "uint256"
        },
        {
          "internalType": "uint256",
          "name": "incomeTotal",
          "type": "uint256"
        }
      ],
      "stateMutability": "view",
      "type": "function"
    },
    {
      "inputs": [
        {
          "internalType": "uint256",
          "name": "id",
          "type": "uint256"
        },
        {
          "internalType": "address",
          "name": "account",
          "type": "address"
        }
      ],
      "name": "isCollected",
      "outputs": [
        {
          "internalType": "bool",
          "name": "",
          "type": "bool"
        }
      ],
      "stateMutability": "view",
      "type": "function"
    },
    {
      "inputs": [
        {
          "internalType": "contract IBEP20",
          "name": "exhibits",
          "type": "address"
        },
        {
          "internalType": "contract IBEP20",
          "name": "currency",
          "type": "address"
        },
        {
          "internalType": "address",
          "name": "recipient",
          "type": "address"
        },
        {
          "internalType": "uint256",
          "name": "totalAmount",
          "type": "uint256"
        },
        {
          "internalType": "uint256",
          "name": "totalSupply",
          "type": "uint256"
        },
        {
          "internalType": "uint256",
          "name": "hardcap",
          "type": "uint256"
        },
        {
          "internalType": "uint256",
          "name": "startTime",
          "type": "uint256"
        },
        {
          "internalType": "uint256",
          "name": "duration",
          "type": "uint256"
        }
      ],
      "name": "launch",
      "outputs": [],
      "stateMutability": "nonpayable",
      "type": "function"
    },
    {
      "inputs": [],
      "name": "owner",
      "outputs": [
        {
          "internalType": "address",
          "name": "",
          "type": "address"
        }
      ],
      "stateMutability": "view",
      "type": "function"
    },
    {
      "inputs": [],
      "name": "removeIFO",
      "outputs": [],
      "stateMutability": "nonpayable",
      "type": "function"
    },
    {
      "inputs": [],
      "name": "renounceOwnership",
      "outputs": [],
      "stateMutability": "nonpayable",
      "type": "function"
    },
    {
      "inputs": [
        {
          "internalType": "uint256",
          "name": "value",
          "type": "uint256"
        }
      ],
      "name": "stake",
      "outputs": [],
      "stateMutability": "nonpayable",
      "type": "function"
    },
    {
      "inputs": [
        {
          "internalType": "address",
          "name": "newOwner",
          "type": "address"
        }
      ],
      "name": "transferOwnership",
      "outputs": [],
      "stateMutability": "nonpayable",
      "type": "function"
    },
    {
      "inputs": [
        {
          "internalType": "uint256",
          "name": "id",
          "type": "uint256"
        },
        {
          "internalType": "address",
          "name": "account",
          "type": "address"
        }
      ],
      "name": "userPayValue",
      "outputs": [
        {
          "internalType": "uint256",
          "name": "",
          "type": "uint256"
        }
      ],
      "stateMutability": "view",
      "type": "function"
    },
    {
      "inputs": [
        {
          "internalType": "uint256",
          "name": "id",
          "type": "uint256"
        }
      ],
      "name": "withdraw",
      "outputs": [],
      "stateMutability": "nonpayable",
      "type": "function"
    }
  ],
  "bytecode": "0x608060405260006001553480156200001657600080fd5b50600062000029620000cd60201b60201c565b9050806000806101000a81548173ffffffffffffffffffffffffffffffffffffffff021916908373ffffffffffffffffffffffffffffffffffffffff1602179055508073ffffffffffffffffffffffffffffffffffffffff16600073ffffffffffffffffffffffffffffffffffffffff167f8be0079c531659141344cd1fd0a4f28419497f9722a3daafe3b4186f6b6457e060405160405180910390a350620000d5565b600033905090565b61341780620000e56000396000f3fe608060405234801561001057600080fd5b50600436106100d05760003560e01c8063150859fc146100d55780632e1a7d4d146100df5780633c896d48146100fb578063401ac2571461013557806363057ac114610165578063715018a6146101815780638da5cb5b1461018b578063a694fc3a146101a9578063b1a69a41146101c5578063b24ae1f8146101f5578063ce3f865f14610213578063cfedfeb31461022f578063d2aaef4e1461024d578063d49d51811461027d578063f2fde38b1461029b578063f8724aba146102b7575b600080fd5b6100dd6102e8565b005b6100f960048036038101906100f49190612508565b61055c565b005b61011560048036038101906101109190612508565b6109cc565b60405161012c9b9a99989796959493929190612c53565b60405180910390f35b61014f600480360381019061014a9190612531565b610a86565b60405161015c91906128d5565b60405180910390f35b61017f600480360381019061017a9190612456565b610af1565b005b610189610f74565b005b6101936110ae565b6040516101a0919061285a565b60405180910390f35b6101c360048036038101906101be9190612508565b6110d7565b005b6101df60048036038101906101da9190612531565b611384565b6040516101ec9190612b12565b60405180910390f35b6101fd6113e2565b60405161020a9190612b12565b60405180910390f35b61022d60048036038101906102289190612508565b6113ee565b005b610237611763565b6040516102449190612b12565b60405180910390f35b61026760048036038101906102629190612508565b611769565b6040516102749190612b12565b60405180910390f35b61028561192e565b6040516102929190612b12565b60405180910390f35b6102b560048036038101906102b091906123c8565b611952565b005b6102d160048036038101906102cc91906123f1565b611afb565b6040516102df929190612cfe565b60405180910390f35b6102f0611ddd565b73ffffffffffffffffffffffffffffffffffffffff1661030e6110ae565b73ffffffffffffffffffffffffffffffffffffffff1614610364576040517f08c379a000000000000000000000000000000000000000000000000000000000815260040161035b90612a52565b60405180910390fd5b4260026000600154815260200190815260200160002060070154116103be576040517f08c379a00000000000000000000000000000000000000000000000000000000081526004016103b590612a72565b60405180910390fd5b610439336002600060015481526020019081526020016000206005015460026000600154815260200190815260200160002060010160009054906101000a900473ffffffffffffffffffffffffffffffffffffffff1673ffffffffffffffffffffffffffffffffffffffff16611de59092919063ffffffff16565b6002600060015481526020019081526020016000206000808201600090556001820160006101000a81549073ffffffffffffffffffffffffffffffffffffffff02191690556002820160006101000a81549073ffffffffffffffffffffffffffffffffffffffff02191690556003820160006101000a81549073ffffffffffffffffffffffffffffffffffffffff0219169055600482016000905560058201600090556006820160009055600782016000905560088201600090556009820160009055600a82016000905550507f773a806100f4c785509200b937a5ea4ba2be24f7a2234631414f3a43383e255b6001546040516105379190612b12565b60405180910390a161055460018054611e6b90919063ffffffff16565b600181905550565b610564611ddd565b73ffffffffffffffffffffffffffffffffffffffff166105826110ae565b73ffffffffffffffffffffffffffffffffffffffff16146105d8576040517f08c379a00000000000000000000000000000000000000000000000000000000081526004016105cf90612a52565b60405180910390fd5b600060026000838152602001908152602001600020905060015482111580156106015750600082115b610640576040517f08c379a0000000000000000000000000000000000000000000000000000000008152600401610637906129d2565b60405180910390fd5b6003600083815260200190815260200160002060009054906101000a900460ff16156106a1576040517f08c379a000000000000000000000000000000000000000000000000000000000815260040161069890612992565b60405180910390fd5b6106bc81600801548260070154611eb590919063ffffffff16565b42116106fd576040517f08c379a00000000000000000000000000000000000000000000000000000000081526004016106f4906129b2565b60405180910390fd5b60008060016003600086815260200190815260200160002060006101000a81548160ff021916908315150217905550600061079361074c85600401548660050154611f1390919063ffffffff16565b610785670de0b6b3a7640000610777670de0b6b3a764000089600a0154611f1390919063ffffffff16565b611f1390919063ffffffff16565b611f8e90919063ffffffff16565b9050670de0b6b3a76400008110610853576107d9670de0b6b3a76400006107cb86600401548760050154611f1390919063ffffffff16565b611f8e90919063ffffffff16565b925061084e8460030160009054906101000a900473ffffffffffffffffffffffffffffffffffffffff16848660020160009054906101000a900473ffffffffffffffffffffffffffffffffffffffff1673ffffffffffffffffffffffffffffffffffffffff16611de59092919063ffffffff16565b61098a565b83600a015492506108cd8460030160009054906101000a900473ffffffffffffffffffffffffffffffffffffffff16848660020160009054906101000a900473ffffffffffffffffffffffffffffffffffffffff1673ffffffffffffffffffffffffffffffffffffffff16611de59092919063ffffffff16565b610914610901670de0b6b3a76400006108f3848860050154611f1390919063ffffffff16565b611f8e90919063ffffffff16565b8560050154611e6b90919063ffffffff16565b91506109898460030160009054906101000a900473ffffffffffffffffffffffffffffffffffffffff16838660010160009054906101000a900473ffffffffffffffffffffffffffffffffffffffff1673ffffffffffffffffffffffffffffffffffffffff16611de59092919063ffffffff16565b5b7f7be3cf04f5b1b87b56474aef3d59baf98eccf63fe800cd9b5d0b3905a4789d288584846040516109bd93929190612d27565b60405180910390a15050505050565b60026020528060005260406000206000915090508060000154908060010160009054906101000a900473ffffffffffffffffffffffffffffffffffffffff16908060020160009054906101000a900473ffffffffffffffffffffffffffffffffffffffff16908060030160009054906101000a900473ffffffffffffffffffffffffffffffffffffffff169080600401549080600501549080600601549080600701549080600801549080600901549080600a015490508b565b600060026000848152602001908152602001600020600c0160008373ffffffffffffffffffffffffffffffffffffffff1673ffffffffffffffffffffffffffffffffffffffff16815260200190815260200160002060009054906101000a900460ff16905092915050565b610af9611ddd565b73ffffffffffffffffffffffffffffffffffffffff16610b176110ae565b73ffffffffffffffffffffffffffffffffffffffff1614610b6d576040517f08c379a0000000000000000000000000000000000000000000000000000000008152600401610b6490612a52565b60405180910390fd5b600073ffffffffffffffffffffffffffffffffffffffff168673ffffffffffffffffffffffffffffffffffffffff161415610bdd576040517f08c379a0000000000000000000000000000000000000000000000000000000008152600401610bd490612af2565b60405180910390fd5b428211610c1f576040517f08c379a0000000000000000000000000000000000000000000000000000000008152600401610c16906129f2565b60405180910390fd5b610c626002600060015481526020019081526020016000206008015460026000600154815260200190815260200160002060070154611eb590919063ffffffff16565b4211610ca3576040517f08c379a0000000000000000000000000000000000000000000000000000000008152600401610c9a906129b2565b60405180910390fd5b600073ffffffffffffffffffffffffffffffffffffffff168873ffffffffffffffffffffffffffffffffffffffff161415610d13576040517f08c379a0000000000000000000000000000000000000000000000000000000008152600401610d0a90612ad2565b60405180910390fd5b600073ffffffffffffffffffffffffffffffffffffffff168773ffffffffffffffffffffffffffffffffffffffff161415610d83576040517f08c379a0000000000000000000000000000000000000000000000000000000008152600401610d7a90612a12565b60405180910390fd5b610d9860018054611eb590919063ffffffff16565b600181905550600060026000600154815260200190815260200160002090506001548160000181905550888160010160006101000a81548173ffffffffffffffffffffffffffffffffffffffff021916908373ffffffffffffffffffffffffffffffffffffffff160217905550878160020160006101000a81548173ffffffffffffffffffffffffffffffffffffffff021916908373ffffffffffffffffffffffffffffffffffffffff160217905550868160030160006101000a81548173ffffffffffffffffffffffffffffffffffffffff021916908373ffffffffffffffffffffffffffffffffffffffff160217905550858160060181905550610ec185610eb3670de0b6b3a764000089611f1390919063ffffffff16565b611f8e90919063ffffffff16565b8160040181905550838160090181905550848160050181905550828160070181905550818160080181905550610f1a3330878c73ffffffffffffffffffffffffffffffffffffffff16611fd8909392919063ffffffff16565b7f14cf72ff0b85bd854091600f2f7d8f56330736ce5c6e9b33df47e2e94967066e6001548a8a8a8560040154898b8d8b8b604051610f619a99989796959493929190612b2d565b60405180910390a1505050505050505050565b610f7c611ddd565b73ffffffffffffffffffffffffffffffffffffffff16610f9a6110ae565b73ffffffffffffffffffffffffffffffffffffffff1614610ff0576040517f08c379a0000000000000000000000000000000000000000000000000000000008152600401610fe790612a52565b60405180910390fd5b600073ffffffffffffffffffffffffffffffffffffffff1660008054906101000a900473ffffffffffffffffffffffffffffffffffffffff1673ffffffffffffffffffffffffffffffffffffffff167f8be0079c531659141344cd1fd0a4f28419497f9722a3daafe3b4186f6b6457e060405160405180910390a360008060006101000a81548173ffffffffffffffffffffffffffffffffffffffff021916908373ffffffffffffffffffffffffffffffffffffffff160217905550565b60008060009054906101000a900473ffffffffffffffffffffffffffffffffffffffff16905090565b60006001541161111c576040517f08c379a0000000000000000000000000000000000000000000000000000000008152600401611113906129d2565b60405180910390fd5b60006002600060015481526020019081526020016000209050806007015442118015611161575061115e81600801548260070154611eb590919063ffffffff16565b42105b6111a0576040517f08c379a000000000000000000000000000000000000000000000000000000000815260040161119790612ab2565b60405180910390fd5b80600901546111f98383600b0160003373ffffffffffffffffffffffffffffffffffffffff1673ffffffffffffffffffffffffffffffffffffffff16815260200190815260200160002054611eb590919063ffffffff16565b111561123a576040517f08c379a000000000000000000000000000000000000000000000000000000000815260040161123190612912565b60405180910390fd5b61128e8282600b0160003373ffffffffffffffffffffffffffffffffffffffff1673ffffffffffffffffffffffffffffffffffffffff16815260200190815260200160002054611eb590919063ffffffff16565b81600b0160003373ffffffffffffffffffffffffffffffffffffffff1673ffffffffffffffffffffffffffffffffffffffff168152602001908152602001600020819055506112ea8282600a0154611eb590919063ffffffff16565b81600a01819055506113433330848460020160009054906101000a900473ffffffffffffffffffffffffffffffffffffffff1673ffffffffffffffffffffffffffffffffffffffff16611fd8909392919063ffffffff16565b7f18dcd430020e4d4899772fd94a8b40451dc5044dfb70bc46b532eeae431c864f600154338460405161137893929190612bc9565b60405180910390a15050565b600060026000848152602001908152602001600020600b0160008373ffffffffffffffffffffffffffffffffffffffff1673ffffffffffffffffffffffffffffffffffffffff16815260200190815260200160002054905092915050565b670de0b6b3a764000081565b60015481111580156114005750600081115b61143f576040517f08c379a0000000000000000000000000000000000000000000000000000000008152600401611436906129d2565b60405180910390fd5b600060026000838152602001908152602001600020905061148381600801546002600085815260200190815260200160002060070154611eb590919063ffffffff16565b42116114c4576040517f08c379a00000000000000000000000000000000000000000000000000000000081526004016114bb906129b2565b60405180910390fd5b80600c0160003373ffffffffffffffffffffffffffffffffffffffff1673ffffffffffffffffffffffffffffffffffffffff16815260200190815260200160002060009054906101000a900460ff1615611553576040517f08c379a000000000000000000000000000000000000000000000000000000000815260040161154a90612992565b60405180910390fd5b600080600183600c0160003373ffffffffffffffffffffffffffffffffffffffff1673ffffffffffffffffffffffffffffffffffffffff16815260200190815260200160002060006101000a81548160ff0219169083151502179055506115ba3385611afb565b809250819350505061161133838560010160009054906101000a900473ffffffffffffffffffffffffffffffffffffffff1673ffffffffffffffffffffffffffffffffffffffff16611de59092919063ffffffff16565b60008082111561171d57600061162686611769565b9050611655670de0b6b3a76400006116478386611f1390919063ffffffff16565b611f8e90919063ffffffff16565b915060008211156116cc576116b661166b6110ae565b838760020160009054906101000a900473ffffffffffffffffffffffffffffffffffffffff1673ffffffffffffffffffffffffffffffffffffffff16611de59092919063ffffffff16565b6116c98284611e6b90919063ffffffff16565b92505b61171b33848760020160009054906101000a900473ffffffffffffffffffffffffffffffffffffffff1673ffffffffffffffffffffffffffffffffffffffff16611de59092919063ffffffff16565b505b7fdc9135ce675b83d693202bca9b4cdd195eaf92e3f673e8b2ba9017b924c86b608533858486604051611754959493929190612c00565b60405180910390a15050505050565b60015481565b60007fffffffffffffffffffffffffffffffffffffffffffffffffffffffffffffffff6002600084815260200190815260200160002060090154146117b15760009050611929565b60006117f2600260008581526020019081526020016000206006015460026000868152602001908152602001600020600a0154611f8e90919063ffffffff16565b90506101f481106118355761182d61271061181f6014670de0b6b3a7640000611f1390919063ffffffff16565b611f8e90919063ffffffff16565b915050611929565b60fa81106118755761186d61271061185f6019670de0b6b3a7640000611f1390919063ffffffff16565b611f8e90919063ffffffff16565b915050611929565b606481106118b5576118ad61271061189f601e670de0b6b3a7640000611f1390919063ffffffff16565b611f8e90919063ffffffff16565b915050611929565b603281106118f5576118ed6127106118df6032670de0b6b3a7640000611f1390919063ffffffff16565b611f8e90919063ffffffff16565b915050611929565b6119256127106119176064670de0b6b3a7640000611f1390919063ffffffff16565b611f8e90919063ffffffff16565b9150505b919050565b7fffffffffffffffffffffffffffffffffffffffffffffffffffffffffffffffff81565b61195a611ddd565b73ffffffffffffffffffffffffffffffffffffffff166119786110ae565b73ffffffffffffffffffffffffffffffffffffffff16146119ce576040517f08c379a00000000000000000000000000000000000000000000000000000000081526004016119c590612a52565b60405180910390fd5b600073ffffffffffffffffffffffffffffffffffffffff168173ffffffffffffffffffffffffffffffffffffffff161415611a3e576040517f08c379a0000000000000000000000000000000000000000000000000000000008152600401611a3590612952565b60405180910390fd5b8073ffffffffffffffffffffffffffffffffffffffff1660008054906101000a900473ffffffffffffffffffffffffffffffffffffffff1673ffffffffffffffffffffffffffffffffffffffff167f8be0079c531659141344cd1fd0a4f28419497f9722a3daafe3b4186f6b6457e060405160405180910390a3806000806101000a81548173ffffffffffffffffffffffffffffffffffffffff021916908373ffffffffffffffffffffffffffffffffffffffff16021790555050565b60008060006002600085815260200190815260200160002090506001548411158015611b275750600084115b611b66576040517f08c379a0000000000000000000000000000000000000000000000000000000008152600401611b5d906129d2565b60405180910390fd5b6000611bcd611b8683600401548460050154611f1390919063ffffffff16565b611bbf670de0b6b3a7640000611bb1670de0b6b3a764000087600a0154611f1390919063ffffffff16565b611f1390919063ffffffff16565b611f8e90919063ffffffff16565b9050670de0b6b3a7640000811115611d5f57611c7d8260040154611c6f83611c61670de0b6b3a7640000611c53670de0b6b3a764000089600b0160008f73ffffffffffffffffffffffffffffffffffffffff1673ffffffffffffffffffffffffffffffffffffffff16815260200190815260200160002054611f1390919063ffffffff16565b611f1390919063ffffffff16565b611f8e90919063ffffffff16565b611f8e90919063ffffffff16565b9350611d58670de0b6b3a7640000611d4a611cfa611ce385611cd56001611cc789611cb9670de0b6b3a764000080611f1390919063ffffffff16565b611eb590919063ffffffff16565b611e6b90919063ffffffff16565b611f8e90919063ffffffff16565b670de0b6b3a7640000611e6b90919063ffffffff16565b85600b0160008b73ffffffffffffffffffffffffffffffffffffffff1673ffffffffffffffffffffffffffffffffffffffff16815260200190815260200160002054611f1390919063ffffffff16565b611f8e90919063ffffffff16565b9250611dd4565b611dd18260040154611dc3670de0b6b3a764000085600b0160008b73ffffffffffffffffffffffffffffffffffffffff1673ffffffffffffffffffffffffffffffffffffffff16815260200190815260200160002054611f1390919063ffffffff16565b611f8e90919063ffffffff16565b93505b50509250929050565b600033905090565b611e668363a9059cbb60e01b8484604051602401611e049291906128ac565b604051602081830303815290604052907bffffffffffffffffffffffffffffffffffffffffffffffffffffffff19166020820180517bffffffffffffffffffffffffffffffffffffffffffffffffffffffff8381831617835250505050612061565b505050565b6000611ead83836040518060400160405280601e81526020017f536166654d6174683a207375627472616374696f6e206f766572666c6f770000815250612128565b905092915050565b6000808284611ec49190612d90565b905083811015611f09576040517f08c379a0000000000000000000000000000000000000000000000000000000008152600401611f0090612972565b60405180910390fd5b8091505092915050565b600080831415611f265760009050611f88565b60008284611f349190612e17565b9050828482611f439190612de6565b14611f83576040517f08c379a0000000000000000000000000000000000000000000000000000000008152600401611f7a90612a32565b60405180910390fd5b809150505b92915050565b6000611fd083836040518060400160405280601a81526020017f536166654d6174683a206469766973696f6e206279207a65726f00000000000081525061218c565b905092915050565b61205b846323b872dd60e01b858585604051602401611ff993929190612875565b604051602081830303815290604052907bffffffffffffffffffffffffffffffffffffffffffffffffffffffff19166020820180517bffffffffffffffffffffffffffffffffffffffffffffffffffffffff8381831617835250505050612061565b50505050565b60006120c3826040518060400160405280602081526020017f5361666542455032303a206c6f772d6c6576656c2063616c6c206661696c65648152508573ffffffffffffffffffffffffffffffffffffffff166121ef9092919063ffffffff16565b905060008151111561212357808060200190518101906120e3919061242d565b612122576040517f08c379a000000000000000000000000000000000000000000000000000000000815260040161211990612932565b60405180910390fd5b5b505050565b6000838311158290612170576040517f08c379a000000000000000000000000000000000000000000000000000000000815260040161216791906128f0565b60405180910390fd5b506000838561217f9190612e71565b9050809150509392505050565b600080831182906121d3576040517f08c379a00000000000000000000000000000000000000000000000000000000081526004016121ca91906128f0565b60405180910390fd5b50600083856121e29190612de6565b9050809150509392505050565b60606121fe8484600085612207565b90509392505050565b606061221285612329565b612251576040517f08c379a000000000000000000000000000000000000000000000000000000000815260040161224890612a92565b60405180910390fd5b6000808673ffffffffffffffffffffffffffffffffffffffff16858760405161227a9190612843565b60006040518083038185875af1925050503d80600081146122b7576040519150601f19603f3d011682016040523d82523d6000602084013e6122bc565b606091505b509150915081156122d1578092505050612321565b6000815111156122e45780518082602001fd5b836040517f08c379a000000000000000000000000000000000000000000000000000000000815260040161231891906128f0565b60405180910390fd5b949350505050565b60008060007fc5d2460186f7233c927e7db2dcc703c0e500b653ca82273b7bfad8045d85a47060001b9050833f915080821415801561236b57506000801b8214155b92505050919050565b60008135905061238381613385565b92915050565b6000815190506123988161339c565b92915050565b6000813590506123ad816133b3565b92915050565b6000813590506123c2816133ca565b92915050565b6000602082840312156123da57600080fd5b60006123e884828501612374565b91505092915050565b6000806040838503121561240457600080fd5b600061241285828601612374565b9250506020612423858286016123b3565b9150509250929050565b60006020828403121561243f57600080fd5b600061244d84828501612389565b91505092915050565b600080600080600080600080610100898b03121561247357600080fd5b60006124818b828c0161239e565b98505060206124928b828c0161239e565b97505060406124a38b828c01612374565b96505060606124b48b828c016123b3565b95505060806124c58b828c016123b3565b94505060a06124d68b828c016123b3565b93505060c06124e78b828c016123b3565b92505060e06124f88b828c016123b3565b9150509295985092959890939650565b60006020828403121561251a57600080fd5b6000612528848285016123b3565b91505092915050565b6000806040838503121561254457600080fd5b6000612552858286016123b3565b925050602061256385828601612374565b9150509250929050565b61257681612ea5565b82525050565b61258581612eb7565b82525050565b600061259682612d5e565b6125a08185612d74565b93506125b0818560208601612f23565b80840191505092915050565b6125c581612eff565b82525050565b60006125d682612d69565b6125e08185612d7f565b93506125f0818560208601612f23565b6125f981612fb4565b840191505092915050565b6000612611601383612d7f565b915061261c82612fc5565b602082019050919050565b6000612634602a83612d7f565b915061263f82612fee565b604082019050919050565b6000612657602683612d7f565b91506126628261303d565b604082019050919050565b600061267a601b83612d7f565b91506126858261308c565b602082019050919050565b600061269d601d83612d7f565b91506126a8826130b5565b602082019050919050565b60006126c0601983612d7f565b91506126cb826130de565b602082019050919050565b60006126e3601d83612d7f565b91506126ee82613107565b602082019050919050565b6000612706602783612d7f565b915061271182613130565b604082019050919050565b6000612729602183612d7f565b91506127348261317f565b604082019050919050565b600061274c602183612d7f565b9150612757826131ce565b604082019050919050565b600061276f602083612d7f565b915061277a8261321d565b602082019050919050565b6000612792602983612d7f565b915061279d82613246565b604082019050919050565b60006127b5601d83612d7f565b91506127c082613295565b602082019050919050565b60006127d8601c83612d7f565b91506127e3826132be565b602082019050919050565b60006127fb602183612d7f565b9150612806826132e7565b604082019050919050565b600061281e602283612d7f565b915061282982613336565b604082019050919050565b61283d81612ef5565b82525050565b600061284f828461258b565b915081905092915050565b600060208201905061286f600083018461256d565b92915050565b600060608201905061288a600083018661256d565b612897602083018561256d565b6128a46040830184612834565b949350505050565b60006040820190506128c1600083018561256d565b6128ce6020830184612834565b9392505050565b60006020820190506128ea600083018461257c565b92915050565b6000602082019050818103600083015261290a81846125cb565b905092915050565b6000602082019050818103600083015261292b81612604565b9050919050565b6000602082019050818103600083015261294b81612627565b9050919050565b6000602082019050818103600083015261296b8161264a565b9050919050565b6000602082019050818103600083015261298b8161266d565b9050919050565b600060208201905081810360008301526129ab81612690565b9050919050565b600060208201905081810360008301526129cb816126b3565b9050919050565b600060208201905081810360008301526129eb816126d6565b9050919050565b60006020820190508181036000830152612a0b816126f9565b9050919050565b60006020820190508181036000830152612a2b8161271c565b9050919050565b60006020820190508181036000830152612a4b8161273f565b9050919050565b60006020820190508181036000830152612a6b81612762565b9050919050565b60006020820190508181036000830152612a8b81612785565b9050919050565b60006020820190508181036000830152612aab816127a8565b9050919050565b60006020820190508181036000830152612acb816127cb565b9050919050565b60006020820190508181036000830152612aeb816127ee565b9050919050565b60006020820190508181036000830152612b0b81612811565b9050919050565b6000602082019050612b276000830184612834565b92915050565b600061014082019050612b43600083018d612834565b612b50602083018c61256d565b612b5d604083018b61256d565b612b6a606083018a61256d565b612b776080830189612834565b612b8460a0830188612834565b612b9160c0830187612834565b612b9e60e0830186612834565b612bac610100830185612834565b612bba610120830184612834565b9b9a5050505050505050505050565b6000606082019050612bde6000830186612834565b612beb602083018561256d565b612bf86040830184612834565b949350505050565b600060a082019050612c156000830188612834565b612c22602083018761256d565b612c2f6040830186612834565b612c3c6060830185612834565b612c496080830184612834565b9695505050505050565b600061016082019050612c69600083018e612834565b612c76602083018d6125bc565b612c83604083018c6125bc565b612c90606083018b61256d565b612c9d608083018a612834565b612caa60a0830189612834565b612cb760c0830188612834565b612cc460e0830187612834565b612cd2610100830186612834565b612ce0610120830185612834565b612cee610140830184612834565b9c9b505050505050505050505050565b6000604082019050612d136000830185612834565b612d206020830184612834565b9392505050565b6000606082019050612d3c6000830186612834565b612d496020830185612834565b612d566040830184612834565b949350505050565b600081519050919050565b600081519050919050565b600081905092915050565b600082825260208201905092915050565b6000612d9b82612ef5565b9150612da683612ef5565b9250827fffffffffffffffffffffffffffffffffffffffffffffffffffffffffffffffff03821115612ddb57612dda612f56565b5b828201905092915050565b6000612df182612ef5565b9150612dfc83612ef5565b925082612e0c57612e0b612f85565b5b828204905092915050565b6000612e2282612ef5565b9150612e2d83612ef5565b9250817fffffffffffffffffffffffffffffffffffffffffffffffffffffffffffffffff0483118215151615612e6657612e65612f56565b5b828202905092915050565b6000612e7c82612ef5565b9150612e8783612ef5565b925082821015612e9a57612e99612f56565b5b828203905092915050565b6000612eb082612ed5565b9050919050565b60008115159050919050565b6000612ece82612ea5565b9050919050565b600073ffffffffffffffffffffffffffffffffffffffff82169050919050565b6000819050919050565b6000612f0a82612f11565b9050919050565b6000612f1c82612ed5565b9050919050565b60005b83811015612f41578082015181840152602081019050612f26565b83811115612f50576000848401525b50505050565b7f4e487b7100000000000000000000000000000000000000000000000000000000600052601160045260246000fd5b7f4e487b7100000000000000000000000000000000000000000000000000000000600052601260045260246000fd5b6000601f19601f8301169050919050565b7f49464f3a206c696d697420657863656564656400000000000000000000000000600082015250565b7f5361666542455032303a204245503230206f7065726174696f6e20646964206e60008201527f6f74207375636365656400000000000000000000000000000000000000000000602082015250565b7f4f776e61626c653a206e6577206f776e657220697320746865207a65726f206160008201527f6464726573730000000000000000000000000000000000000000000000000000602082015250565b7f536166654d6174683a206164646974696f6e206f766572666c6f770000000000600082015250565b7f49464f3a2063616e6e6f7420636c61696d2072657065617465646c792e000000600082015250565b7f49464f3a2069666f206973206e6f74206f766572207965742e00000000000000600082015250565b7f49464f3a2069666f207468617420646f6573206e6f742065786973742e000000600082015250565b7f49464f3a20737461727454696d652073686f756c64206265206c61746572207460008201527f68616e206e6f7700000000000000000000000000000000000000000000000000602082015250565b7f49464f3a2063757272656e637920616464726573732063616e6e6f742062652060008201527f3000000000000000000000000000000000000000000000000000000000000000602082015250565b7f536166654d6174683a206d756c7469706c69636174696f6e206f766572666c6f60008201527f7700000000000000000000000000000000000000000000000000000000000000602082015250565b7f4f776e61626c653a2063616c6c6572206973206e6f7420746865206f776e6572600082015250565b7f49464f3a207468657265206973206e6f2069666f20746861742063616e20626560008201527f2064656c657465642e0000000000000000000000000000000000000000000000602082015250565b7f416464726573733a2063616c6c20746f206e6f6e2d636f6e7472616374000000600082015250565b7f49464f3a2069666f206973206e6f7420696e2070726f67726573732e00000000600082015250565b7f49464f3a20657868696269747320616464726573732063616e6e6f742062652060008201527f3000000000000000000000000000000000000000000000000000000000000000602082015250565b7f49464f3a20726563697069656e7420616464726573732063616e6e6f7420626560008201527f2030000000000000000000000000000000000000000000000000000000000000602082015250565b61338e81612ea5565b811461339957600080fd5b50565b6133a581612eb7565b81146133b057600080fd5b50565b6133bc81612ec3565b81146133c757600080fd5b50565b6133d381612ef5565b81146133de57600080fd5b5056fea26469706673582212202dd4112249eb2ebe7b39a616d84e2abbe8b48bddf8f8f2db119328c0e759620d64736f6c63430008040033",
  "linkReferences": {},
  "deployedLinkReferences": {}
}