{
  "_format": "hh-sol-artifact-1",
  "contractName": "BnbStaking",
  "sourceName": "contracts/farm/BnbStaking.sol",
  "abi": [
    {
      "inputs": [
        {
          "internalType": "contract IBEP20",
          "name": "_lp",
          "type": "address"
        },
        {
          "internalType": "contract IBEP20",
          "name": "_rewardToken",
          "type": "address"
        },
        {
          "internalType": "uint256",
          "name": "_rewardPerBlock",
          "type": "uint256"
        },
        {
          "internalType": "uint256",
          "name": "_startBlock",
          "type": "uint256"
        },
        {
          "internalType": "uint256",
          "name": "_bonusEndBlock",
          "type": "uint256"
        },
        {
          "internalType": "address",
          "name": "_adminAddress",
          "type": "address"
        },
        {
          "internalType": "address",
          "name": "_wbnb",
          "type": "address"
        }
      ],
      "stateMutability": "nonpayable",
      "type": "constructor"
    },
    {
      "anonymous": false,
      "inputs": [
        {
          "indexed": true,
          "internalType": "address",
          "name": "user",
          "type": "address"
        },
        {
          "indexed": false,
          "internalType": "uint256",
          "name": "amount",
          "type": "uint256"
        }
      ],
      "name": "Deposit",
      "type": "event"
    },
    {
      "anonymous": false,
      "inputs": [
        {
          "indexed": true,
          "internalType": "address",
          "name": "user",
          "type": "address"
        },
        {
          "indexed": false,
          "internalType": "uint256",
          "name": "amount",
          "type": "uint256"
        }
      ],
      "name": "EmergencyWithdraw",
      "type": "event"
    },
    {
      "anonymous": false,
      "inputs": [
        {
          "indexed": true,
          "internalType": "address",
          "name": "previousOwner",
          "type": "address"
        },
        {
          "indexed": true,
          "internalType": "address",
          "name": "newOwner",
          "type": "address"
        }
      ],
      "name": "OwnershipTransferred",
      "type": "event"
    },
    {
      "anonymous": false,
      "inputs": [
        {
          "indexed": true,
          "internalType": "address",
          "name": "user",
          "type": "address"
        },
        {
          "indexed": false,
          "internalType": "uint256",
          "name": "amount",
          "type": "uint256"
        }
      ],
      "name": "Withdraw",
      "type": "event"
    },
    {
      "inputs": [],
      "name": "WBNB",
      "outputs": [
        {
          "internalType": "address",
          "name": "",
          "type": "address"
        }
      ],
      "stateMutability": "view",
      "type": "function"
    },
    {
      "inputs": [],
      "name": "adminAddress",
      "outputs": [
        {
          "internalType": "address",
          "name": "",
          "type": "address"
        }
      ],
      "stateMutability": "view",
      "type": "function"
    },
    {
      "inputs": [],
      "name": "bonusEndBlock",
      "outputs": [
        {
          "internalType": "uint256",
          "name": "",
          "type": "uint256"
        }
      ],
      "stateMutability": "view",
      "type": "function"
    },
    {
      "inputs": [],
      "name": "deposit",
      "outputs": [],
      "stateMutability": "payable",
      "type": "function"
    },
    {
      "inputs": [
        {
          "internalType": "uint256",
          "name": "_amount",
          "type": "uint256"
        }
      ],
      "name": "emergencyRewardWithdraw",
      "outputs": [],
      "stateMutability": "nonpayable",
      "type": "function"
    },
    {
      "inputs": [],
      "name": "emergencyWithdraw",
      "outputs": [],
      "stateMutability": "nonpayable",
      "type": "function"
    },
    {
      "inputs": [
        {
          "internalType": "uint256",
          "name": "_from",
          "type": "uint256"
        },
        {
          "internalType": "uint256",
          "name": "_to",
          "type": "uint256"
        }
      ],
      "name": "getMultiplier",
      "outputs": [
        {
          "internalType": "uint256",
          "name": "",
          "type": "uint256"
        }
      ],
      "stateMutability": "view",
      "type": "function"
    },
    {
      "inputs": [],
      "name": "limitAmount",
      "outputs": [
        {
          "internalType": "uint256",
          "name": "",
          "type": "uint256"
        }
      ],
      "stateMutability": "view",
      "type": "function"
    },
    {
      "inputs": [],
      "name": "massUpdatePools",
      "outputs": [],
      "stateMutability": "nonpayable",
      "type": "function"
    },
    {
      "inputs": [],
      "name": "owner",
      "outputs": [
        {
          "internalType": "address",
          "name": "",
          "type": "address"
        }
      ],
      "stateMutability": "view",
      "type": "function"
    },
    {
      "inputs": [
        {
          "internalType": "address",
          "name": "_user",
          "type": "address"
        }
      ],
      "name": "pendingReward",
      "outputs": [
        {
          "internalType": "uint256",
          "name": "",
          "type": "uint256"
        }
      ],
      "stateMutability": "view",
      "type": "function"
    },
    {
      "inputs": [
        {
          "internalType": "uint256",
          "name": "",
          "type": "uint256"
        }
      ],
      "name": "poolInfo",
      "outputs": [
        {
          "internalType": "contract IBEP20",
          "name": "lpToken",
          "type": "address"
        },
        {
          "internalType": "uint256",
          "name": "allocPoint",
          "type": "uint256"
        },
        {
          "internalType": "uint256",
          "name": "lastRewardBlock",
          "type": "uint256"
        },
        {
          "internalType": "uint256",
          "name": "accCakePerShare",
          "type": "uint256"
        }
      ],
      "stateMutability": "view",
      "type": "function"
    },
    {
      "inputs": [
        {
          "internalType": "address",
          "name": "_blacklistAddress",
          "type": "address"
        }
      ],
      "name": "removeBlackList",
      "outputs": [],
      "stateMutability": "nonpayable",
      "type": "function"
    },
    {
      "inputs": [],
      "name": "renounceOwnership",
      "outputs": [],
      "stateMutability": "nonpayable",
      "type": "function"
    },
    {
      "inputs": [],
      "name": "rewardPerBlock",
      "outputs": [
        {
          "internalType": "uint256",
          "name": "",
          "type": "uint256"
        }
      ],
      "stateMutability": "view",
      "type": "function"
    },
    {
      "inputs": [],
      "name": "rewardToken",
      "outputs": [
        {
          "internalType": "contract IBEP20",
          "name": "",
          "type": "address"
        }
      ],
      "stateMutability": "view",
      "type": "function"
    },
    {
      "inputs": [
        {
          "internalType": "address",
          "name": "_adminAddress",
          "type": "address"
        }
      ],
      "name": "setAdmin",
      "outputs": [],
      "stateMutability": "nonpayable",
      "type": "function"
    },
    {
      "inputs": [
        {
          "internalType": "address",
          "name": "_blacklistAddress",
          "type": "address"
        }
      ],
      "name": "setBlackList",
      "outputs": [],
      "stateMutability": "nonpayable",
      "type": "function"
    },
    {
      "inputs": [
        {
          "internalType": "uint256",
          "name": "_amount",
          "type": "uint256"
        }
      ],
      "name": "setLimitAmount",
      "outputs": [],
      "stateMutability": "nonpayable",
      "type": "function"
    },
    {
      "inputs": [],
      "name": "startBlock",
      "outputs": [
        {
          "internalType": "uint256",
          "name": "",
          "type": "uint256"
        }
      ],
      "stateMutability": "view",
      "type": "function"
    },
    {
      "inputs": [],
      "name": "totalAllocPoint",
      "outputs": [
        {
          "internalType": "uint256",
          "name": "",
          "type": "uint256"
        }
      ],
      "stateMutability": "view",
      "type": "function"
    },
    {
      "inputs": [
        {
          "internalType": "address",
          "name": "newOwner",
          "type": "address"
        }
      ],
      "name": "transferOwnership",
      "outputs": [],
      "stateMutability": "nonpayable",
      "type": "function"
    },
    {
      "inputs": [
        {
          "internalType": "uint256",
          "name": "_pid",
          "type": "uint256"
        }
      ],
      "name": "updatePool",
      "outputs": [],
      "stateMutability": "nonpayable",
      "type": "function"
    },
    {
      "inputs": [
        {
          "internalType": "address",
          "name": "",
          "type": "address"
        }
      ],
      "name": "userInfo",
      "outputs": [
        {
          "internalType": "uint256",
          "name": "amount",
          "type": "uint256"
        },
        {
          "internalType": "uint256",
          "name": "rewardDebt",
          "type": "uint256"
        },
        {
          "internalType": "bool",
          "name": "inBlackList",
          "type": "bool"
        }
      ],
      "stateMutability": "view",
      "type": "function"
    },
    {
      "inputs": [
        {
          "internalType": "uint256",
          "name": "_amount",
          "type": "uint256"
        }
      ],
      "name": "withdraw",
      "outputs": [],
      "stateMutability": "nonpayable",
      "type": "function"
    },
    {
      "stateMutability": "payable",
      "type": "receive"
    }
  ],
  "bytecode": "0x60a0604052678ac7230489e8000060065560006007553480156200002257600080fd5b506040516200320a3803806200320a8339818101604052810190620000489190620002f7565b60006200005a620002aa60201b60201c565b9050806000806101000a81548173ffffffffffffffffffffffffffffffffffffffff021916908373ffffffffffffffffffffffffffffffffffffffff1602179055508073ffffffffffffffffffffffffffffffffffffffff16600073ffffffffffffffffffffffffffffffffffffffff167f8be0079c531659141344cd1fd0a4f28419497f9722a3daafe3b4186f6b6457e060405160405180910390a35085600160006101000a81548173ffffffffffffffffffffffffffffffffffffffff021916908373ffffffffffffffffffffffffffffffffffffffff16021790555084600381905550836008819055508260098190555081600260006101000a81548173ffffffffffffffffffffffffffffffffffffffff021916908373ffffffffffffffffffffffffffffffffffffffff1602179055508073ffffffffffffffffffffffffffffffffffffffff1660808173ffffffffffffffffffffffffffffffffffffffff1660601b81525050600460405180608001604052808973ffffffffffffffffffffffffffffffffffffffff1681526020016103e8815260200160085481526020016000815250908060018154018082558091505060019003906000526020600020906004020160009091909190915060008201518160000160006101000a81548173ffffffffffffffffffffffffffffffffffffffff021916908373ffffffffffffffffffffffffffffffffffffffff16021790555060208201518160010155604082015181600201556060820151816003015550506103e86007819055505050505050505062000444565b600033905090565b600081519050620002c381620003f6565b92915050565b600081519050620002da8162000410565b92915050565b600081519050620002f1816200042a565b92915050565b600080600080600080600060e0888a0312156200031357600080fd5b6000620003238a828b01620002c9565b9750506020620003368a828b01620002c9565b9650506040620003498a828b01620002e0565b95505060606200035c8a828b01620002e0565b94505060806200036f8a828b01620002e0565b93505060a0620003828a828b01620002b2565b92505060c0620003958a828b01620002b2565b91505092959891949750929550565b6000620003b182620003cc565b9050919050565b6000620003c582620003a4565b9050919050565b600073ffffffffffffffffffffffffffffffffffffffff82169050919050565b6000819050919050565b6200040181620003a4565b81146200040d57600080fd5b50565b6200041b81620003b8565b81146200042757600080fd5b50565b6200043581620003ec565b81146200044157600080fd5b50565b60805160601c612d8b6200047f60003960008181610131015281816108bd015281816111190152818161133f01526113c00152612d8b6000f3fe60806040526004361061012a5760003560e01c80631526fe27146101b857806317caf6f1146101f85780631959a002146102235780631aed6553146102625780631f107a451461028d5780632e1a7d4d146102b65780633279beab146102df57806348cd4cb11461030857806351eb05a614610333578063630b5ba11461035c578063704b6c0214610373578063715018a61461039c57806372700241146103b357806378abafaf146103dc5780638ae39cac146104075780638da5cb5b146104325780638dbb1e3a1461045d5780638dd950021461049a578063d0e30db0146104c5578063db2e21bc146104cf578063e4997dc5146104e6578063f2fde38b1461050f578063f40f0f5214610538578063f7c618c114610575578063fc6f9468146105a0576101b3565b366101b3577f000000000000000000000000000000000000000000000000000000000000000073ffffffffffffffffffffffffffffffffffffffff163373ffffffffffffffffffffffffffffffffffffffff16146101b1577f4e487b7100000000000000000000000000000000000000000000000000000000600052600160045260246000fd5b005b600080fd5b3480156101c457600080fd5b506101df60048036038101906101da919061222c565b6105cb565b6040516101ef94939291906125b2565b60405180910390f35b34801561020457600080fd5b5061020d61062b565b60405161021a9190612799565b60405180910390f35b34801561022f57600080fd5b5061024a600480360381019061024591906121da565b610631565b604051610259939291906127b4565b60405180910390f35b34801561026e57600080fd5b50610277610668565b6040516102849190612799565b60405180910390f35b34801561029957600080fd5b506102b460048036038101906102af919061222c565b61066e565b005b3480156102c257600080fd5b506102dd60048036038101906102d8919061222c565b6106f4565b005b3480156102eb57600080fd5b506103066004803603810190610301919061222c565b6109df565b005b34801561031457600080fd5b5061031d610b97565b60405161032a9190612799565b60405180910390f35b34801561033f57600080fd5b5061035a6004803603810190610355919061222c565b610b9d565b005b34801561036857600080fd5b50610371610d72565b005b34801561037f57600080fd5b5061039a600480360381019061039591906121da565b610da5565b005b3480156103a857600080fd5b506103b1610e65565b005b3480156103bf57600080fd5b506103da60048036038101906103d591906121da565b610f9f565b005b3480156103e857600080fd5b506103f161108d565b6040516103fe9190612799565b60405180910390f35b34801561041357600080fd5b5061041c611093565b6040516104299190612799565b60405180910390f35b34801561043e57600080fd5b50610447611099565b6040516104549190612553565b60405180910390f35b34801561046957600080fd5b50610484600480360381019061047f919061227e565b6110c2565b6040516104919190612799565b60405180910390f35b3480156104a657600080fd5b506104af611117565b6040516104bc9190612553565b60405180910390f35b6104cd61113b565b005b3480156104db57600080fd5b506104e461154a565b005b3480156104f257600080fd5b5061050d600480360381019061050891906121da565b611697565b005b34801561051b57600080fd5b50610536600480360381019061053191906121da565b611785565b005b34801561054457600080fd5b5061055f600480360381019061055a91906121da565b61192e565b60405161056c9190612799565b60405180910390f35b34801561058157600080fd5b5061058a611b77565b6040516105979190612597565b60405180910390f35b3480156105ac57600080fd5b506105b5611b9d565b6040516105c29190612553565b60405180910390f35b600481815481106105db57600080fd5b90600052602060002090600402016000915090508060000160009054906101000a900473ffffffffffffffffffffffffffffffffffffffff16908060010154908060020154908060030154905084565b60075481565b60056020528060005260406000206000915090508060000154908060010154908060020160009054906101000a900460ff16905083565b60095481565b610676611bc3565b73ffffffffffffffffffffffffffffffffffffffff16610694611099565b73ffffffffffffffffffffffffffffffffffffffff16146106ea576040517f08c379a00000000000000000000000000000000000000000000000000000000081526004016106e1906126f9565b60405180910390fd5b8060068190555050565b60006004600081548110610731577f4e487b7100000000000000000000000000000000000000000000000000000000600052603260045260246000fd5b906000526020600020906004020190506000600560003373ffffffffffffffffffffffffffffffffffffffff1673ffffffffffffffffffffffffffffffffffffffff168152602001908152602001600020905082816000015410156107cb576040517f08c379a00000000000000000000000000000000000000000000000000000000081526004016107c290612759565b60405180910390fd5b6107d56000610b9d565b600061081f826001015461081164e8d4a5100061080387600301548760000154611bcb90919063ffffffff16565b611c4690919063ffffffff16565b611c9090919063ffffffff16565b905060008111801561084057508160020160009054906101000a900460ff16155b15610893576108923382600160009054906101000a900473ffffffffffffffffffffffffffffffffffffffff1673ffffffffffffffffffffffffffffffffffffffff16611cda9092919063ffffffff16565b5b6000841115610951576108b3848360000154611c9090919063ffffffff16565b82600001819055507f000000000000000000000000000000000000000000000000000000000000000073ffffffffffffffffffffffffffffffffffffffff16632e1a7d4d856040518263ffffffff1660e01b81526004016109149190612799565b600060405180830381600087803b15801561092e57600080fd5b505af1158015610942573d6000803e3d6000fd5b505050506109503385611d60565b5b61098364e8d4a5100061097585600301548560000154611bcb90919063ffffffff16565b611c4690919063ffffffff16565b82600101819055503373ffffffffffffffffffffffffffffffffffffffff167f884edad9ce6fa2440d8a54cc123490eb96d2768479d49ff9c7366125a9424364856040516109d19190612799565b60405180910390a250505050565b6109e7611bc3565b73ffffffffffffffffffffffffffffffffffffffff16610a05611099565b73ffffffffffffffffffffffffffffffffffffffff1614610a5b576040517f08c379a0000000000000000000000000000000000000000000000000000000008152600401610a52906126f9565b60405180910390fd5b600160009054906101000a900473ffffffffffffffffffffffffffffffffffffffff1673ffffffffffffffffffffffffffffffffffffffff166370a08231306040518263ffffffff1660e01b8152600401610ab69190612553565b60206040518083038186803b158015610ace57600080fd5b505afa158015610ae2573d6000803e3d6000fd5b505050506040513d601f19601f82011682018060405250810190610b069190612255565b8110610b47576040517f08c379a0000000000000000000000000000000000000000000000000000000008152600401610b3e906126b9565b60405180910390fd5b610b943382600160009054906101000a900473ffffffffffffffffffffffffffffffffffffffff1673ffffffffffffffffffffffffffffffffffffffff16611cda9092919063ffffffff16565b50565b60085481565b600060048281548110610bd9577f4e487b7100000000000000000000000000000000000000000000000000000000600052603260045260246000fd5b9060005260206000209060040201905080600201544311610bfa5750610d6f565b60008160000160009054906101000a900473ffffffffffffffffffffffffffffffffffffffff1673ffffffffffffffffffffffffffffffffffffffff166370a08231306040518263ffffffff1660e01b8152600401610c599190612553565b60206040518083038186803b158015610c7157600080fd5b505afa158015610c85573d6000803e3d6000fd5b505050506040513d601f19601f82011682018060405250810190610ca99190612255565b90506000811415610cc4574382600201819055505050610d6f565b6000610cd48360020154436110c2565b90506000610d17600754610d098660010154610cfb60035487611bcb90919063ffffffff16565b611bcb90919063ffffffff16565b611c4690919063ffffffff16565b9050610d59610d4684610d3864e8d4a5100085611bcb90919063ffffffff16565b611c4690919063ffffffff16565b8560030154611e1590919063ffffffff16565b8460030181905550438460020181905550505050505b50565b6000600480549050905060005b81811015610da157610d9081610b9d565b80610d9a906129d1565b9050610d7f565b5050565b610dad611bc3565b73ffffffffffffffffffffffffffffffffffffffff16610dcb611099565b73ffffffffffffffffffffffffffffffffffffffff1614610e21576040517f08c379a0000000000000000000000000000000000000000000000000000000008152600401610e18906126f9565b60405180910390fd5b80600260006101000a81548173ffffffffffffffffffffffffffffffffffffffff021916908373ffffffffffffffffffffffffffffffffffffffff16021790555050565b610e6d611bc3565b73ffffffffffffffffffffffffffffffffffffffff16610e8b611099565b73ffffffffffffffffffffffffffffffffffffffff1614610ee1576040517f08c379a0000000000000000000000000000000000000000000000000000000008152600401610ed8906126f9565b60405180910390fd5b600073ffffffffffffffffffffffffffffffffffffffff1660008054906101000a900473ffffffffffffffffffffffffffffffffffffffff1673ffffffffffffffffffffffffffffffffffffffff167f8be0079c531659141344cd1fd0a4f28419497f9722a3daafe3b4186f6b6457e060405160405180910390a360008060006101000a81548173ffffffffffffffffffffffffffffffffffffffff021916908373ffffffffffffffffffffffffffffffffffffffff160217905550565b600260009054906101000a900473ffffffffffffffffffffffffffffffffffffffff1673ffffffffffffffffffffffffffffffffffffffff163373ffffffffffffffffffffffffffffffffffffffff161461102f576040517f08c379a000000000000000000000000000000000000000000000000000000000815260040161102690612719565b60405180910390fd5b6001600560008373ffffffffffffffffffffffffffffffffffffffff1673ffffffffffffffffffffffffffffffffffffffff16815260200190815260200160002060020160006101000a81548160ff02191690831515021790555050565b60065481565b60035481565b60008060009054906101000a900473ffffffffffffffffffffffffffffffffffffffff16905090565b600060095482116110e7576110e08383611c9090919063ffffffff16565b9050611111565b60095483106110f95760009050611111565b61110e83600954611c9090919063ffffffff16565b90505b92915050565b7f000000000000000000000000000000000000000000000000000000000000000081565b60006004600081548110611178577f4e487b7100000000000000000000000000000000000000000000000000000000600052603260045260246000fd5b906000526020600020906004020190506000600560003373ffffffffffffffffffffffffffffffffffffffff1673ffffffffffffffffffffffffffffffffffffffff16815260200190815260200160002090506006546111e5348360000154611e1590919063ffffffff16565b1115611226576040517f08c379a000000000000000000000000000000000000000000000000000000000815260040161121d90612619565b60405180910390fd5b8060020160009054906101000a900460ff1615611278576040517f08c379a000000000000000000000000000000000000000000000000000000000815260040161126f90612699565b60405180910390fd5b6112826000610b9d565b6000816000015411156113345760006112d982600101546112cb64e8d4a510006112bd87600301548760000154611bcb90919063ffffffff16565b611c4690919063ffffffff16565b611c9090919063ffffffff16565b90506000811115611332576113313382600160009054906101000a900473ffffffffffffffffffffffffffffffffffffffff1673ffffffffffffffffffffffffffffffffffffffff16611cda9092919063ffffffff16565b5b505b60003411156114be577f000000000000000000000000000000000000000000000000000000000000000073ffffffffffffffffffffffffffffffffffffffff1663d0e30db0346040518263ffffffff1660e01b81526004016000604051808303818588803b1580156113a557600080fd5b505af11580156113b9573d6000803e3d6000fd5b50505050507f000000000000000000000000000000000000000000000000000000000000000073ffffffffffffffffffffffffffffffffffffffff1663a9059cbb30346040518363ffffffff1660e01b815260040161141992919061256e565b602060405180830381600087803b15801561143357600080fd5b505af1158015611447573d6000803e3d6000fd5b505050506040513d601f19601f8201168201806040525081019061146b9190612203565b61149e577f4e487b7100000000000000000000000000000000000000000000000000000000600052600160045260246000fd5b6114b5348260000154611e1590919063ffffffff16565b81600001819055505b6114f064e8d4a510006114e284600301548460000154611bcb90919063ffffffff16565b611c4690919063ffffffff16565b81600101819055503373ffffffffffffffffffffffffffffffffffffffff167fe1fffcc4923d04b559f4d29a8bfc6cda04eb5b0d3c460751c2402c5c5cc9109c3460405161153e9190612799565b60405180910390a25050565b60006004600081548110611587577f4e487b7100000000000000000000000000000000000000000000000000000000600052603260045260246000fd5b906000526020600020906004020190506000600560003373ffffffffffffffffffffffffffffffffffffffff1673ffffffffffffffffffffffffffffffffffffffff168152602001908152602001600020905061162d3382600001548460000160009054906101000a900473ffffffffffffffffffffffffffffffffffffffff1673ffffffffffffffffffffffffffffffffffffffff16611cda9092919063ffffffff16565b3373ffffffffffffffffffffffffffffffffffffffff167f5fafa99d0643513820be26656b45130b01e1c03062e1266bf36f88cbd3bd969582600001546040516116779190612799565b60405180910390a260008160000181905550600081600101819055505050565b600260009054906101000a900473ffffffffffffffffffffffffffffffffffffffff1673ffffffffffffffffffffffffffffffffffffffff163373ffffffffffffffffffffffffffffffffffffffff1614611727576040517f08c379a000000000000000000000000000000000000000000000000000000000815260040161171e90612719565b60405180910390fd5b6000600560008373ffffffffffffffffffffffffffffffffffffffff1673ffffffffffffffffffffffffffffffffffffffff16815260200190815260200160002060020160006101000a81548160ff02191690831515021790555050565b61178d611bc3565b73ffffffffffffffffffffffffffffffffffffffff166117ab611099565b73ffffffffffffffffffffffffffffffffffffffff1614611801576040517f08c379a00000000000000000000000000000000000000000000000000000000081526004016117f8906126f9565b60405180910390fd5b600073ffffffffffffffffffffffffffffffffffffffff168173ffffffffffffffffffffffffffffffffffffffff161415611871576040517f08c379a000000000000000000000000000000000000000000000000000000000815260040161186890612659565b60405180910390fd5b8073ffffffffffffffffffffffffffffffffffffffff1660008054906101000a900473ffffffffffffffffffffffffffffffffffffffff1673ffffffffffffffffffffffffffffffffffffffff167f8be0079c531659141344cd1fd0a4f28419497f9722a3daafe3b4186f6b6457e060405160405180910390a3806000806101000a81548173ffffffffffffffffffffffffffffffffffffffff021916908373ffffffffffffffffffffffffffffffffffffffff16021790555050565b600080600460008154811061196c577f4e487b7100000000000000000000000000000000000000000000000000000000600052603260045260246000fd5b906000526020600020906004020190506000600560008573ffffffffffffffffffffffffffffffffffffffff1673ffffffffffffffffffffffffffffffffffffffff168152602001908152602001600020905060008260030154905060008360000160009054906101000a900473ffffffffffffffffffffffffffffffffffffffff1673ffffffffffffffffffffffffffffffffffffffff166370a08231306040518263ffffffff1660e01b8152600401611a279190612553565b60206040518083038186803b158015611a3f57600080fd5b505afa158015611a53573d6000803e3d6000fd5b505050506040513d601f19601f82011682018060405250810190611a779190612255565b9050836002015443118015611a8d575060008114155b15611b28576000611aa28560020154436110c2565b90506000611ae5600754611ad78860010154611ac960035487611bcb90919063ffffffff16565b611bcb90919063ffffffff16565b611c4690919063ffffffff16565b9050611b23611b1484611b0664e8d4a5100085611bcb90919063ffffffff16565b611c4690919063ffffffff16565b85611e1590919063ffffffff16565b935050505b611b6c8360010154611b5e64e8d4a51000611b50868860000154611bcb90919063ffffffff16565b611c4690919063ffffffff16565b611c9090919063ffffffff16565b945050505050919050565b600160009054906101000a900473ffffffffffffffffffffffffffffffffffffffff1681565b600260009054906101000a900473ffffffffffffffffffffffffffffffffffffffff1681565b600033905090565b600080831415611bde5760009050611c40565b60008284611bec91906128a4565b9050828482611bfb9190612873565b14611c3b576040517f08c379a0000000000000000000000000000000000000000000000000000000008152600401611c32906126d9565b60405180910390fd5b809150505b92915050565b6000611c8883836040518060400160405280601a81526020017f536166654d6174683a206469766973696f6e206279207a65726f000000000000815250611e73565b905092915050565b6000611cd283836040518060400160405280601e81526020017f536166654d6174683a207375627472616374696f6e206f766572666c6f770000815250611ed6565b905092915050565b611d5b8363a9059cbb60e01b8484604051602401611cf992919061256e565b604051602081830303815290604052907bffffffffffffffffffffffffffffffffffffffffffffffffffffffff19166020820180517bffffffffffffffffffffffffffffffffffffffffffffffffffffffff8381831617835250505050611f3a565b505050565b60008273ffffffffffffffffffffffffffffffffffffffff166159d883604051611d899061253e565b600060405180830381858888f193505050503d8060008114611dc7576040519150601f19603f3d011682016040523d82523d6000602084013e611dcc565b606091505b5050905080611e10576040517f08c379a0000000000000000000000000000000000000000000000000000000008152600401611e0790612779565b60405180910390fd5b505050565b6000808284611e24919061281d565b905083811015611e69576040517f08c379a0000000000000000000000000000000000000000000000000000000008152600401611e6090612679565b60405180910390fd5b8091505092915050565b60008083118290611eba576040517f08c379a0000000000000000000000000000000000000000000000000000000008152600401611eb191906125f7565b60405180910390fd5b5060008385611ec99190612873565b9050809150509392505050565b6000838311158290611f1e576040517f08c379a0000000000000000000000000000000000000000000000000000000008152600401611f1591906125f7565b60405180910390fd5b5060008385611f2d91906128fe565b9050809150509392505050565b6000611f9c826040518060400160405280602081526020017f5361666542455032303a206c6f772d6c6576656c2063616c6c206661696c65648152508573ffffffffffffffffffffffffffffffffffffffff166120019092919063ffffffff16565b9050600081511115611ffc5780806020019051810190611fbc9190612203565b611ffb576040517f08c379a0000000000000000000000000000000000000000000000000000000008152600401611ff290612639565b60405180910390fd5b5b505050565b60606120108484600085612019565b90509392505050565b60606120248561213b565b612063576040517f08c379a000000000000000000000000000000000000000000000000000000000815260040161205a90612739565b60405180910390fd5b6000808673ffffffffffffffffffffffffffffffffffffffff16858760405161208c9190612527565b60006040518083038185875af1925050503d80600081146120c9576040519150601f19603f3d011682016040523d82523d6000602084013e6120ce565b606091505b509150915081156120e3578092505050612133565b6000815111156120f65780518082602001fd5b836040517f08c379a000000000000000000000000000000000000000000000000000000000815260040161212a91906125f7565b60405180910390fd5b949350505050565b60008060007fc5d2460186f7233c927e7db2dcc703c0e500b653ca82273b7bfad8045d85a47060001b9050833f915080821415801561217d57506000801b8214155b92505050919050565b60008135905061219581612d10565b92915050565b6000815190506121aa81612d27565b92915050565b6000813590506121bf81612d3e565b92915050565b6000815190506121d481612d3e565b92915050565b6000602082840312156121ec57600080fd5b60006121fa84828501612186565b91505092915050565b60006020828403121561221557600080fd5b60006122238482850161219b565b91505092915050565b60006020828403121561223e57600080fd5b600061224c848285016121b0565b91505092915050565b60006020828403121561226757600080fd5b6000612275848285016121c5565b91505092915050565b6000806040838503121561229157600080fd5b600061229f858286016121b0565b92505060206122b0858286016121b0565b9150509250929050565b6122c381612932565b82525050565b6122d281612944565b82525050565b60006122e3826127eb565b6122ed8185612801565b93506122fd81856020860161299e565b80840191505092915050565b6123128161297a565b82525050565b6000612323826127f6565b61232d818561280c565b935061233d81856020860161299e565b61234681612a78565b840191505092915050565b600061235e600e8361280c565b915061236982612a89565b602082019050919050565b6000612381602a8361280c565b915061238c82612ab2565b604082019050919050565b60006123a460268361280c565b91506123af82612b01565b604082019050919050565b60006123c7601b8361280c565b91506123d282612b50565b602082019050919050565b60006123ea600d8361280c565b91506123f582612b79565b602082019050919050565b600061240d60108361280c565b915061241882612ba2565b602082019050919050565b600061243060218361280c565b915061243b82612bcb565b604082019050919050565b600061245360208361280c565b915061245e82612c1a565b602082019050919050565b6000612476600b8361280c565b915061248182612c43565b602082019050919050565b6000612499600083612801565b91506124a482612c6c565b600082019050919050565b60006124bc601d8361280c565b91506124c782612c6f565b602082019050919050565b60006124df60128361280c565b91506124ea82612c98565b602082019050919050565b600061250260238361280c565b915061250d82612cc1565b604082019050919050565b61252181612970565b82525050565b600061253382846122d8565b915081905092915050565b60006125498261248c565b9150819050919050565b600060208201905061256860008301846122ba565b92915050565b600060408201905061258360008301856122ba565b6125906020830184612518565b9392505050565b60006020820190506125ac6000830184612309565b92915050565b60006080820190506125c76000830187612309565b6125d46020830186612518565b6125e16040830185612518565b6125ee6060830184612518565b95945050505050565b600060208201905081810360008301526126118184612318565b905092915050565b6000602082019050818103600083015261263281612351565b9050919050565b6000602082019050818103600083015261265281612374565b9050919050565b6000602082019050818103600083015261267281612397565b9050919050565b60006020820190508181036000830152612692816123ba565b9050919050565b600060208201905081810360008301526126b2816123dd565b9050919050565b600060208201905081810360008301526126d281612400565b9050919050565b600060208201905081810360008301526126f281612423565b9050919050565b6000602082019050818103600083015261271281612446565b9050919050565b6000602082019050818103600083015261273281612469565b9050919050565b60006020820190508181036000830152612752816124af565b9050919050565b60006020820190508181036000830152612772816124d2565b9050919050565b60006020820190508181036000830152612792816124f5565b9050919050565b60006020820190506127ae6000830184612518565b92915050565b60006060820190506127c96000830186612518565b6127d66020830185612518565b6127e360408301846122c9565b949350505050565b600081519050919050565b600081519050919050565b600081905092915050565b600082825260208201905092915050565b600061282882612970565b915061283383612970565b9250827fffffffffffffffffffffffffffffffffffffffffffffffffffffffffffffffff0382111561286857612867612a1a565b5b828201905092915050565b600061287e82612970565b915061288983612970565b92508261289957612898612a49565b5b828204905092915050565b60006128af82612970565b91506128ba83612970565b9250817fffffffffffffffffffffffffffffffffffffffffffffffffffffffffffffffff04831182151516156128f3576128f2612a1a565b5b828202905092915050565b600061290982612970565b915061291483612970565b92508282101561292757612926612a1a565b5b828203905092915050565b600061293d82612950565b9050919050565b60008115159050919050565b600073ffffffffffffffffffffffffffffffffffffffff82169050919050565b6000819050919050565b60006129858261298c565b9050919050565b600061299782612950565b9050919050565b60005b838110156129bc5780820151818401526020810190506129a1565b838111156129cb576000848401525b50505050565b60006129dc82612970565b91507fffffffffffffffffffffffffffffffffffffffffffffffffffffffffffffffff821415612a0f57612a0e612a1a565b5b600182019050919050565b7f4e487b7100000000000000000000000000000000000000000000000000000000600052601160045260246000fd5b7f4e487b7100000000000000000000000000000000000000000000000000000000600052601260045260246000fd5b6000601f19601f8301169050919050565b7f6578636565642074686520746f70000000000000000000000000000000000000600082015250565b7f5361666542455032303a204245503230206f7065726174696f6e20646964206e60008201527f6f74207375636365656400000000000000000000000000000000000000000000602082015250565b7f4f776e61626c653a206e6577206f776e657220697320746865207a65726f206160008201527f6464726573730000000000000000000000000000000000000000000000000000602082015250565b7f536166654d6174683a206164646974696f6e206f766572666c6f770000000000600082015250565b7f696e20626c61636b206c69737400000000000000000000000000000000000000600082015250565b7f6e6f7420656e6f75676820746f6b656e00000000000000000000000000000000600082015250565b7f536166654d6174683a206d756c7469706c69636174696f6e206f766572666c6f60008201527f7700000000000000000000000000000000000000000000000000000000000000602082015250565b7f4f776e61626c653a2063616c6c6572206973206e6f7420746865206f776e6572600082015250565b7f61646d696e3a207775743f000000000000000000000000000000000000000000600082015250565b50565b7f416464726573733a2063616c6c20746f206e6f6e2d636f6e7472616374000000600082015250565b7f77697468647261773a206e6f7420676f6f640000000000000000000000000000600082015250565b7f5472616e7366657248656c7065723a204554485f5452414e534645525f46414960008201527f4c45440000000000000000000000000000000000000000000000000000000000602082015250565b612d1981612932565b8114612d2457600080fd5b50565b612d3081612944565b8114612d3b57600080fd5b50565b612d4781612970565b8114612d5257600080fd5b5056fea264697066735822122068299bd635a2612696041a95ff5bbcee563c2c260fa994555366d84d9e05f11b64736f6c63430008040033",
  "linkReferences": {},
  "deployedLinkReferences": {}
}