{
  "_format": "hh-sol-artifact-1",
  "contractName": "BnbStaking",
  "sourceName": "contracts/farm/BnbStaking.sol",
  "abi": [
    {
      "inputs": [
        {
          "internalType": "contract IBEP20",
          "name": "_lp",
          "type": "address"
        },
        {
          "internalType": "contract IBEP20",
          "name": "_rewardToken",
          "type": "address"
        },
        {
          "internalType": "uint256",
          "name": "_rewardPerBlock",
          "type": "uint256"
        },
        {
          "internalType": "uint256",
          "name": "_startBlock",
          "type": "uint256"
        },
        {
          "internalType": "uint256",
          "name": "_bonusEndBlock",
          "type": "uint256"
        },
        {
          "internalType": "address",
          "name": "_adminAddress",
          "type": "address"
        },
        {
          "internalType": "address",
          "name": "_wbnb",
          "type": "address"
        }
      ],
      "stateMutability": "nonpayable",
      "type": "constructor"
    },
    {
      "anonymous": false,
      "inputs": [
        {
          "indexed": true,
          "internalType": "address",
          "name": "user",
          "type": "address"
        },
        {
          "indexed": false,
          "internalType": "uint256",
          "name": "amount",
          "type": "uint256"
        }
      ],
      "name": "Deposit",
      "type": "event"
    },
    {
      "anonymous": false,
      "inputs": [
        {
          "indexed": true,
          "internalType": "address",
          "name": "user",
          "type": "address"
        },
        {
          "indexed": false,
          "internalType": "uint256",
          "name": "amount",
          "type": "uint256"
        }
      ],
      "name": "EmergencyWithdraw",
      "type": "event"
    },
    {
      "anonymous": false,
      "inputs": [
        {
          "indexed": true,
          "internalType": "address",
          "name": "previousOwner",
          "type": "address"
        },
        {
          "indexed": true,
          "internalType": "address",
          "name": "newOwner",
          "type": "address"
        }
      ],
      "name": "OwnershipTransferred",
      "type": "event"
    },
    {
      "anonymous": false,
      "inputs": [
        {
          "indexed": true,
          "internalType": "address",
          "name": "user",
          "type": "address"
        },
        {
          "indexed": false,
          "internalType": "uint256",
          "name": "amount",
          "type": "uint256"
        }
      ],
      "name": "Withdraw",
      "type": "event"
    },
    {
      "inputs": [],
      "name": "WBNB",
      "outputs": [
        {
          "internalType": "address",
          "name": "",
          "type": "address"
        }
      ],
      "stateMutability": "view",
      "type": "function"
    },
    {
      "inputs": [],
      "name": "adminAddress",
      "outputs": [
        {
          "internalType": "address",
          "name": "",
          "type": "address"
        }
      ],
      "stateMutability": "view",
      "type": "function"
    },
    {
      "inputs": [],
      "name": "bonusEndBlock",
      "outputs": [
        {
          "internalType": "uint256",
          "name": "",
          "type": "uint256"
        }
      ],
      "stateMutability": "view",
      "type": "function"
    },
    {
      "inputs": [],
      "name": "deposit",
      "outputs": [],
      "stateMutability": "payable",
      "type": "function"
    },
    {
      "inputs": [
        {
          "internalType": "uint256",
          "name": "_amount",
          "type": "uint256"
        }
      ],
      "name": "emergencyRewardWithdraw",
      "outputs": [],
      "stateMutability": "nonpayable",
      "type": "function"
    },
    {
      "inputs": [],
      "name": "emergencyWithdraw",
      "outputs": [],
      "stateMutability": "nonpayable",
      "type": "function"
    },
    {
      "inputs": [
        {
          "internalType": "uint256",
          "name": "_from",
          "type": "uint256"
        },
        {
          "internalType": "uint256",
          "name": "_to",
          "type": "uint256"
        }
      ],
      "name": "getMultiplier",
      "outputs": [
        {
          "internalType": "uint256",
          "name": "",
          "type": "uint256"
        }
      ],
      "stateMutability": "view",
      "type": "function"
    },
    {
      "inputs": [],
      "name": "limitAmount",
      "outputs": [
        {
          "internalType": "uint256",
          "name": "",
          "type": "uint256"
        }
      ],
      "stateMutability": "view",
      "type": "function"
    },
    {
      "inputs": [],
      "name": "massUpdatePools",
      "outputs": [],
      "stateMutability": "nonpayable",
      "type": "function"
    },
    {
      "inputs": [],
      "name": "owner",
      "outputs": [
        {
          "internalType": "address",
          "name": "",
          "type": "address"
        }
      ],
      "stateMutability": "view",
      "type": "function"
    },
    {
      "inputs": [
        {
          "internalType": "address",
          "name": "_user",
          "type": "address"
        }
      ],
      "name": "pendingReward",
      "outputs": [
        {
          "internalType": "uint256",
          "name": "",
          "type": "uint256"
        }
      ],
      "stateMutability": "view",
      "type": "function"
    },
    {
      "inputs": [
        {
          "internalType": "uint256",
          "name": "",
          "type": "uint256"
        }
      ],
      "name": "poolInfo",
      "outputs": [
        {
          "internalType": "contract IBEP20",
          "name": "lpToken",
          "type": "address"
        },
        {
          "internalType": "uint256",
          "name": "allocPoint",
          "type": "uint256"
        },
        {
          "internalType": "uint256",
          "name": "lastRewardBlock",
          "type": "uint256"
        },
        {
          "internalType": "uint256",
          "name": "accCakePerShare",
          "type": "uint256"
        }
      ],
      "stateMutability": "view",
      "type": "function"
    },
    {
      "inputs": [
        {
          "internalType": "address",
          "name": "_blacklistAddress",
          "type": "address"
        }
      ],
      "name": "removeBlackList",
      "outputs": [],
      "stateMutability": "nonpayable",
      "type": "function"
    },
    {
      "inputs": [],
      "name": "renounceOwnership",
      "outputs": [],
      "stateMutability": "nonpayable",
      "type": "function"
    },
    {
      "inputs": [],
      "name": "rewardPerBlock",
      "outputs": [
        {
          "internalType": "uint256",
          "name": "",
          "type": "uint256"
        }
      ],
      "stateMutability": "view",
      "type": "function"
    },
    {
      "inputs": [],
      "name": "rewardToken",
      "outputs": [
        {
          "internalType": "contract IBEP20",
          "name": "",
          "type": "address"
        }
      ],
      "stateMutability": "view",
      "type": "function"
    },
    {
      "inputs": [
        {
          "internalType": "address",
          "name": "_adminAddress",
          "type": "address"
        }
      ],
      "name": "setAdmin",
      "outputs": [],
      "stateMutability": "nonpayable",
      "type": "function"
    },
    {
      "inputs": [
        {
          "internalType": "address",
          "name": "_blacklistAddress",
          "type": "address"
        }
      ],
      "name": "setBlackList",
      "outputs": [],
      "stateMutability": "nonpayable",
      "type": "function"
    },
    {
      "inputs": [
        {
          "internalType": "uint256",
          "name": "_amount",
          "type": "uint256"
        }
      ],
      "name": "setLimitAmount",
      "outputs": [],
      "stateMutability": "nonpayable",
      "type": "function"
    },
    {
      "inputs": [],
      "name": "startBlock",
      "outputs": [
        {
          "internalType": "uint256",
          "name": "",
          "type": "uint256"
        }
      ],
      "stateMutability": "view",
      "type": "function"
    },
    {
      "inputs": [],
      "name": "totalAllocPoint",
      "outputs": [
        {
          "internalType": "uint256",
          "name": "",
          "type": "uint256"
        }
      ],
      "stateMutability": "view",
      "type": "function"
    },
    {
      "inputs": [
        {
          "internalType": "address",
          "name": "newOwner",
          "type": "address"
        }
      ],
      "name": "transferOwnership",
      "outputs": [],
      "stateMutability": "nonpayable",
      "type": "function"
    },
    {
      "inputs": [
        {
          "internalType": "uint256",
          "name": "_pid",
          "type": "uint256"
        }
      ],
      "name": "updatePool",
      "outputs": [],
      "stateMutability": "nonpayable",
      "type": "function"
    },
    {
      "inputs": [
        {
          "internalType": "address",
          "name": "",
          "type": "address"
        }
      ],
      "name": "userInfo",
      "outputs": [
        {
          "internalType": "uint256",
          "name": "amount",
          "type": "uint256"
        },
        {
          "internalType": "uint256",
          "name": "rewardDebt",
          "type": "uint256"
        },
        {
          "internalType": "bool",
          "name": "inBlackList",
          "type": "bool"
        }
      ],
      "stateMutability": "view",
      "type": "function"
    },
    {
      "inputs": [
        {
          "internalType": "uint256",
          "name": "_amount",
          "type": "uint256"
        }
      ],
      "name": "withdraw",
      "outputs": [],
      "stateMutability": "nonpayable",
      "type": "function"
    },
    {
      "stateMutability": "payable",
      "type": "receive"
    }
  ],
  "bytecode": "0x60a0604052678ac7230489e8000060065560006007553480156200002257600080fd5b5060405162001b4b38038062001b4b8339810160408190526200004591620001c3565b600080546001600160a01b031916339081178255604051909182917f8be0079c531659141344cd1fd0a4f28419497f9722a3daafe3b4186f6b6457e0908290a350600180546001600160a01b03199081166001600160a01b03988916178255600396909655600885905560099390935560028054861692871692909217909155606090811b6001600160601b031916608090815260408051918201815296861681526103e86020820181815297820194855260009282018381526004805495860181559384905291517f8a35acfbc15ff81a39ae7d344fd709f28e8600b4aa8c65c6b64bfe7fe36bd19b949093029384018054909616929096169190911790935593517f8a35acfbc15ff81a39ae7d344fd709f28e8600b4aa8c65c6b64bfe7fe36bd19c850155517f8a35acfbc15ff81a39ae7d344fd709f28e8600b4aa8c65c6b64bfe7fe36bd19d840155517f8a35acfbc15ff81a39ae7d344fd709f28e8600b4aa8c65c6b64bfe7fe36bd19e9092019190915560075562000263565b600080600080600080600060e0888a031215620001de578283fd5b8751620001eb816200024a565b6020890151909750620001fe816200024a565b8096505060408801519450606088015193506080880151925060a088015162000227816200024a565b60c08901519092506200023a816200024a565b8091505092959891949750929550565b6001600160a01b03811681146200026057600080fd5b50565b60805160601c6118ad6200029e6000396000818161013a015281816103e10152818161066d01528181610c4e0152610cd401526118ad6000f3fe60806040526004361061012a5760003560e01c80631526fe271461017c57806317caf6f1146101cb5780631959a002146101ef5780631aed65531461024b5780631f107a45146102615780632e1a7d4d146102815780633279beab146102a157806348cd4cb1146102c157806351eb05a6146102d7578063630b5ba1146102f7578063704b6c021461030c578063715018a61461032c578063727002411461034157806378abafaf146103615780638ae39cac146103775780638da5cb5b1461038d5780638dbb1e3a146103af5780638dd95002146103cf578063d0e30db014610403578063db2e21bc1461040b578063e4997dc514610420578063f2fde38b14610440578063f40f0f5214610460578063f7c618c114610480578063fc6f9468146104a057600080fd5b3661017757336001600160a01b037f0000000000000000000000000000000000000000000000000000000000000000161461017557634e487b7160e01b600052600160045260246000fd5b005b600080fd5b34801561018857600080fd5b5061019c610197366004611661565b6104c0565b604080516001600160a01b03909516855260208501939093529183015260608201526080015b60405180910390f35b3480156101d757600080fd5b506101e160075481565b6040519081526020016101c2565b3480156101fb57600080fd5b5061022e61020a36600461161a565b60056020526000908152604090208054600182015460029092015490919060ff1683565b6040805193845260208401929092521515908201526060016101c2565b34801561025757600080fd5b506101e160095481565b34801561026d57600080fd5b5061017561027c366004611661565b610504565b34801561028d57600080fd5b5061017561029c366004611661565b610541565b3480156102ad57600080fd5b506101756102bc366004611661565b610736565b3480156102cd57600080fd5b506101e160085481565b3480156102e357600080fd5b506101756102f2366004611661565b610840565b34801561030357600080fd5b50610175610989565b34801561031857600080fd5b5061017561032736600461161a565b6109b4565b34801561033857600080fd5b50610175610a05565b34801561034d57600080fd5b5061017561035c36600461161a565b610a6c565b34801561036d57600080fd5b506101e160065481565b34801561038357600080fd5b506101e160035481565b34801561039957600080fd5b506103a2610abd565b6040516101c291906116ce565b3480156103bb57600080fd5b506101e16103ca366004611691565b610acc565b3480156103db57600080fd5b506103a27f000000000000000000000000000000000000000000000000000000000000000081565b610175610b0c565b34801561041757600080fd5b50610175610de2565b34801561042c57600080fd5b5061017561043b36600461161a565b610e89565b34801561044c57600080fd5b5061017561045b36600461161a565b610ed7565b34801561046c57600080fd5b506101e161047b36600461161a565b610fb4565b34801561048c57600080fd5b506001546103a2906001600160a01b031681565b3480156104ac57600080fd5b506002546103a2906001600160a01b031681565b600481815481106104d057600080fd5b600091825260209091206004909102018054600182015460028301546003909301546001600160a01b039092169350919084565b3361050d610abd565b6001600160a01b03161461053c5760405162461bcd60e51b81526004016105339061172e565b60405180910390fd5b600655565b6000600460008154811061056557634e487b7160e01b600052603260045260246000fd5b60009182526020808320338452600590915260409092208054600490920290920192508311156105cc5760405162461bcd60e51b81526020600482015260126024820152711dda5d1a191c985dce881b9bdd0819dbdbd960721b6044820152606401610533565b6105d66000610840565b6000610610826001015461060a64e8d4a510006106048760030154876000015461112b90919063ffffffff16565b906111b1565b906111f0565b90506000811180156106275750600282015460ff16155b1561064357600154610643906001600160a01b03163383611232565b83156106db57815461065590856111f0565b8255604051632e1a7d4d60e01b8152600481018590527f00000000000000000000000000000000000000000000000000000000000000006001600160a01b031690632e1a7d4d90602401600060405180830381600087803b1580156106b957600080fd5b505af11580156106cd573d6000803e3d6000fd5b505050506106db338561128d565b600383015482546106f69164e8d4a51000916106049161112b565b600183015560405184815233907f884edad9ce6fa2440d8a54cc123490eb96d2768479d49ff9c7366125a94243649060200160405180910390a250505050565b3361073f610abd565b6001600160a01b0316146107655760405162461bcd60e51b81526004016105339061172e565b6001546040516370a0823160e01b81526001600160a01b03909116906370a08231906107959030906004016116ce565b60206040518083038186803b1580156107ad57600080fd5b505afa1580156107c1573d6000803e3d6000fd5b505050506040513d601f19601f820116820180604052508101906107e59190611679565b81106108265760405162461bcd60e51b815260206004820152601060248201526f3737ba1032b737bab3b4103a37b5b2b760811b6044820152606401610533565b60015461083d906001600160a01b03163383611232565b50565b60006004828154811061086357634e487b7160e01b600052603260045260246000fd5b9060005260206000209060040201905080600201544311610882575050565b80546040516370a0823160e01b81526000916001600160a01b0316906370a08231906108b29030906004016116ce565b60206040518083038186803b1580156108ca57600080fd5b505afa1580156108de573d6000803e3d6000fd5b505050506040513d601f19601f820116820180604052508101906109029190611679565b90508061091457504360029091015550565b6000610924836002015443610acc565b90506000610951600754610604866001015461094b6003548761112b90919063ffffffff16565b9061112b565b9050610974610969846106048464e8d4a5100061112b565b600386015490611340565b60038501555050436002909201919091555050565b60045460005b818110156109b0576109a081610840565b6109a981611826565b905061098f565b5050565b336109bd610abd565b6001600160a01b0316146109e35760405162461bcd60e51b81526004016105339061172e565b600280546001600160a01b0319166001600160a01b0392909216919091179055565b33610a0e610abd565b6001600160a01b031614610a345760405162461bcd60e51b81526004016105339061172e565b600080546040516001600160a01b0390911690600080516020611858833981519152908390a3600080546001600160a01b0319169055565b6002546001600160a01b03163314610a965760405162461bcd60e51b815260040161053390611763565b6001600160a01b03166000908152600560205260409020600201805460ff19166001179055565b6000546001600160a01b031690565b60006009548211610ae857610ae182846111f0565b9050610b06565b6009548310610af957506000610b06565b600954610ae190846111f0565b92915050565b60006004600081548110610b3057634e487b7160e01b600052603260045260246000fd5b60009182526020808320338452600590915260409092206006548154600490930290930193509190610b629034611340565b1115610ba15760405162461bcd60e51b815260206004820152600e60248201526d06578636565642074686520746f760941b6044820152606401610533565b600281015460ff1615610be65760405162461bcd60e51b815260206004820152600d60248201526c1a5b88189b1858dac81b1a5cdd609a1b6044820152606401610533565b610bf06000610840565b805415610c46576000610c25826001015461060a64e8d4a510006106048760030154876000015461112b90919063ffffffff16565b90508015610c4457600154610c44906001600160a01b03163383611232565b505b3415610d89577f00000000000000000000000000000000000000000000000000000000000000006001600160a01b031663d0e30db0346040518263ffffffff1660e01b81526004016000604051808303818588803b158015610ca757600080fd5b505af1158015610cbb573d6000803e3d6000fd5b505060405163a9059cbb60e01b81526001600160a01b037f000000000000000000000000000000000000000000000000000000000000000016935063a9059cbb9250610d0e9150309034906004016116e2565b602060405180830381600087803b158015610d2857600080fd5b505af1158015610d3c573d6000803e3d6000fd5b505050506040513d601f19601f82011682018060405250810190610d609190611641565b610d7a57634e487b7160e01b600052600160045260246000fd5b8054610d869034611340565b81555b60038201548154610da49164e8d4a51000916106049161112b565b600182015560405134815233907fe1fffcc4923d04b559f4d29a8bfc6cda04eb5b0d3c460751c2402c5c5cc9109c9060200160405180910390a25050565b60006004600081548110610e0657634e487b7160e01b600052603260045260246000fd5b600091825260208083203380855260059092526040909320805460049093029093018054909450610e44926001600160a01b03919091169190611232565b805460405190815233907f5fafa99d0643513820be26656b45130b01e1c03062e1266bf36f88cbd3bd96959060200160405180910390a2600080825560019091015550565b6002546001600160a01b03163314610eb35760405162461bcd60e51b815260040161053390611763565b6001600160a01b03166000908152600560205260409020600201805460ff19169055565b33610ee0610abd565b6001600160a01b031614610f065760405162461bcd60e51b81526004016105339061172e565b6001600160a01b038116610f6b5760405162461bcd60e51b815260206004820152602660248201527f4f776e61626c653a206e6577206f776e657220697320746865207a65726f206160448201526564647265737360d01b6064820152608401610533565b600080546040516001600160a01b038085169392169160008051602061185883398151915291a3600080546001600160a01b0319166001600160a01b0392909216919091179055565b6000806004600081548110610fd957634e487b7160e01b600052603260045260246000fd5b600091825260208083206001600160a01b0387811685526005909252604080852060049485029092016003810154815492516370a0823160e01b815291975092959294929391909116916370a0823191611035913091016116ce565b60206040518083038186803b15801561104d57600080fd5b505afa158015611061573d6000803e3d6000fd5b505050506040513d601f19601f820116820180604052508101906110859190611679565b905083600201544311801561109957508015155b156110f95760006110ae856002015443610acc565b905060006110d5600754610604886001015461094b6003548761112b90919063ffffffff16565b90506110f46110ed846106048464e8d4a5100061112b565b8590611340565b935050505b611121836001015461060a64e8d4a5100061060486886000015461112b90919063ffffffff16565b9695505050505050565b60008261113a57506000610b06565b600061114683856117c0565b90508261115385836117a0565b146111aa5760405162461bcd60e51b815260206004820152602160248201527f536166654d6174683a206d756c7469706c69636174696f6e206f766572666c6f6044820152607760f81b6064820152608401610533565b9392505050565b60006111aa83836040518060400160405280601a815260200179536166654d6174683a206469766973696f6e206279207a65726f60301b81525061139d565b60006111aa83836040518060400160405280601e81526020017f536166654d6174683a207375627472616374696f6e206f766572666c6f7700008152506113d4565b6112888363a9059cbb60e01b84846040516024016112519291906116e2565b60408051601f198184030181529190526020810180516001600160e01b03166001600160e01b031990931692909217909152611405565b505050565b6000826001600160a01b03166159d883604051600060405180830381858888f193505050503d80600081146112de576040519150601f19603f3d011682016040523d82523d6000602084013e6112e3565b606091505b50509050806112885760405162461bcd60e51b815260206004820152602360248201527f5472616e7366657248656c7065723a204554485f5452414e534645525f46414960448201526213115160ea1b6064820152608401610533565b60008061134d8385611788565b9050838110156111aa5760405162461bcd60e51b815260206004820152601b60248201527a536166654d6174683a206164646974696f6e206f766572666c6f7760281b6044820152606401610533565b600081836113be5760405162461bcd60e51b815260040161053391906116fb565b5060006113cb84866117a0565b95945050505050565b600081848411156113f85760405162461bcd60e51b815260040161053391906116fb565b5060006113cb84866117df565b600061145a826040518060400160405280602081526020017f5361666542455032303a206c6f772d6c6576656c2063616c6c206661696c6564815250856001600160a01b03166114d79092919063ffffffff16565b80519091501561128857808060200190518101906114789190611641565b6112885760405162461bcd60e51b815260206004820152602a60248201527f5361666542455032303a204245503230206f7065726174696f6e20646964206e6044820152691bdd081cdd58d8d9595960b21b6064820152608401610533565b60606114e684846000856114ee565b949350505050565b60606114f9856115e1565b6115455760405162461bcd60e51b815260206004820152601d60248201527f416464726573733a2063616c6c20746f206e6f6e2d636f6e74726163740000006044820152606401610533565b600080866001600160a01b0316858760405161156191906116b2565b60006040518083038185875af1925050503d806000811461159e576040519150601f19603f3d011682016040523d82523d6000602084013e6115a3565b606091505b509150915081156115b75791506114e69050565b8051156115c75780518082602001fd5b8360405162461bcd60e51b815260040161053391906116fb565b6000813f7fc5d2460186f7233c927e7db2dcc703c0e500b653ca82273b7bfad8045d85a4708181148015906114e6575050151592915050565b60006020828403121561162b578081fd5b81356001600160a01b03811681146111aa578182fd5b600060208284031215611652578081fd5b815180151581146111aa578182fd5b600060208284031215611672578081fd5b5035919050565b60006020828403121561168a578081fd5b5051919050565b600080604083850312156116a3578081fd5b50508035926020909101359150565b600082516116c48184602087016117f6565b9190910192915050565b6001600160a01b0391909116815260200190565b6001600160a01b03929092168252602082015260400190565b602081526000825180602084015261171a8160408501602087016117f6565b601f01601f19169190910160400192915050565b6020808252818101527f4f776e61626c653a2063616c6c6572206973206e6f7420746865206f776e6572604082015260600190565b6020808252600b908201526a61646d696e3a207775743f60a81b604082015260600190565b6000821982111561179b5761179b611841565b500190565b6000826117bb57634e487b7160e01b81526012600452602481fd5b500490565b60008160001904831182151516156117da576117da611841565b500290565b6000828210156117f1576117f1611841565b500390565b60005b838110156118115781810151838201526020016117f9565b83811115611820576000848401525b50505050565b600060001982141561183a5761183a611841565b5060010190565b634e487b7160e01b600052601160045260246000fdfe8be0079c531659141344cd1fd0a4f28419497f9722a3daafe3b4186f6b6457e0a26469706673582212207a78f15bfc611a273d8d7f83ce5ae5077cb76dc855126025ed142cbf4f2e072164736f6c63430008040033",
  "linkReferences": {},
  "deployedLinkReferences": {}
}