{
  "_format": "hh-sol-artifact-1",
  "contractName": "ILO",
  "sourceName": "contracts/farm/ILO.sol",
  "abi": [
    {
      "inputs": [
        {
          "internalType": "contract IBEP20",
          "name": "_cake",
          "type": "address"
        },
        {
          "internalType": "uint256",
          "name": "_startBlock",
          "type": "uint256"
        },
        {
          "internalType": "uint256",
          "name": "_endBlock",
          "type": "uint256"
        }
      ],
      "stateMutability": "nonpayable",
      "type": "constructor"
    },
    {
      "anonymous": false,
      "inputs": [
        {
          "indexed": true,
          "internalType": "address",
          "name": "user",
          "type": "address"
        },
        {
          "indexed": true,
          "internalType": "uint256",
          "name": "pid",
          "type": "uint256"
        },
        {
          "indexed": false,
          "internalType": "uint256",
          "name": "amount",
          "type": "uint256"
        }
      ],
      "name": "Claim",
      "type": "event"
    },
    {
      "anonymous": false,
      "inputs": [
        {
          "indexed": true,
          "internalType": "address",
          "name": "user",
          "type": "address"
        },
        {
          "indexed": true,
          "internalType": "uint256",
          "name": "pid",
          "type": "uint256"
        },
        {
          "indexed": false,
          "internalType": "uint256",
          "name": "amount",
          "type": "uint256"
        }
      ],
      "name": "Deposit",
      "type": "event"
    },
    {
      "anonymous": false,
      "inputs": [
        {
          "indexed": true,
          "internalType": "address",
          "name": "previousOwner",
          "type": "address"
        },
        {
          "indexed": true,
          "internalType": "address",
          "name": "newOwner",
          "type": "address"
        }
      ],
      "name": "OwnershipTransferred",
      "type": "event"
    },
    {
      "anonymous": false,
      "inputs": [
        {
          "indexed": true,
          "internalType": "address",
          "name": "user",
          "type": "address"
        },
        {
          "indexed": true,
          "internalType": "uint256",
          "name": "pid",
          "type": "uint256"
        },
        {
          "indexed": false,
          "internalType": "uint256",
          "name": "amount",
          "type": "uint256"
        }
      ],
      "name": "Withdraw",
      "type": "event"
    },
    {
      "inputs": [
        {
          "internalType": "uint256",
          "name": "_allocPoint",
          "type": "uint256"
        },
        {
          "internalType": "contract IBEP20",
          "name": "_lpToken",
          "type": "address"
        }
      ],
      "name": "add",
      "outputs": [],
      "stateMutability": "nonpayable",
      "type": "function"
    },
    {
      "inputs": [],
      "name": "cake",
      "outputs": [
        {
          "internalType": "contract IBEP20",
          "name": "",
          "type": "address"
        }
      ],
      "stateMutability": "view",
      "type": "function"
    },
    {
      "inputs": [
        {
          "internalType": "uint256",
          "name": "_pid",
          "type": "uint256"
        },
        {
          "internalType": "uint256",
          "name": "_amount",
          "type": "uint256"
        }
      ],
      "name": "deposit",
      "outputs": [],
      "stateMutability": "nonpayable",
      "type": "function"
    },
    {
      "inputs": [],
      "name": "endBlock",
      "outputs": [
        {
          "internalType": "uint256",
          "name": "",
          "type": "uint256"
        }
      ],
      "stateMutability": "view",
      "type": "function"
    },
    {
      "inputs": [],
      "name": "owner",
      "outputs": [
        {
          "internalType": "address",
          "name": "",
          "type": "address"
        }
      ],
      "stateMutability": "view",
      "type": "function"
    },
    {
      "inputs": [
        {
          "internalType": "address",
          "name": "_to",
          "type": "address"
        },
        {
          "internalType": "uint256",
          "name": "_amount",
          "type": "uint256"
        }
      ],
      "name": "ownerWithdraw",
      "outputs": [],
      "stateMutability": "nonpayable",
      "type": "function"
    },
    {
      "inputs": [
        {
          "internalType": "uint256",
          "name": "_pid",
          "type": "uint256"
        },
        {
          "internalType": "address",
          "name": "_user",
          "type": "address"
        }
      ],
      "name": "pendingCairo",
      "outputs": [
        {
          "internalType": "uint256",
          "name": "",
          "type": "uint256"
        }
      ],
      "stateMutability": "view",
      "type": "function"
    },
    {
      "inputs": [
        {
          "internalType": "uint256",
          "name": "",
          "type": "uint256"
        }
      ],
      "name": "poolInfo",
      "outputs": [
        {
          "internalType": "contract IBEP20",
          "name": "lpToken",
          "type": "address"
        },
        {
          "internalType": "uint256",
          "name": "allocPoint",
          "type": "uint256"
        },
        {
          "internalType": "uint256",
          "name": "totalAmount",
          "type": "uint256"
        }
      ],
      "stateMutability": "view",
      "type": "function"
    },
    {
      "inputs": [],
      "name": "poolLength",
      "outputs": [
        {
          "internalType": "uint256",
          "name": "",
          "type": "uint256"
        }
      ],
      "stateMutability": "view",
      "type": "function"
    },
    {
      "inputs": [],
      "name": "renounceOwnership",
      "outputs": [],
      "stateMutability": "nonpayable",
      "type": "function"
    },
    {
      "inputs": [
        {
          "internalType": "uint256",
          "name": "blockNumber",
          "type": "uint256"
        }
      ],
      "name": "setEndBlock",
      "outputs": [],
      "stateMutability": "nonpayable",
      "type": "function"
    },
    {
      "inputs": [
        {
          "internalType": "uint256",
          "name": "blockNumber",
          "type": "uint256"
        }
      ],
      "name": "setStartBlock",
      "outputs": [],
      "stateMutability": "nonpayable",
      "type": "function"
    },
    {
      "inputs": [],
      "name": "startBlock",
      "outputs": [
        {
          "internalType": "uint256",
          "name": "",
          "type": "uint256"
        }
      ],
      "stateMutability": "view",
      "type": "function"
    },
    {
      "inputs": [],
      "name": "totalAllocPoint",
      "outputs": [
        {
          "internalType": "uint256",
          "name": "",
          "type": "uint256"
        }
      ],
      "stateMutability": "view",
      "type": "function"
    },
    {
      "inputs": [
        {
          "internalType": "address",
          "name": "newOwner",
          "type": "address"
        }
      ],
      "name": "transferOwnership",
      "outputs": [],
      "stateMutability": "nonpayable",
      "type": "function"
    },
    {
      "inputs": [
        {
          "internalType": "uint256",
          "name": "",
          "type": "uint256"
        },
        {
          "internalType": "address",
          "name": "",
          "type": "address"
        }
      ],
      "name": "userInfo",
      "outputs": [
        {
          "internalType": "uint256",
          "name": "amount",
          "type": "uint256"
        },
        {
          "internalType": "uint256",
          "name": "lastTime",
          "type": "uint256"
        }
      ],
      "stateMutability": "view",
      "type": "function"
    },
    {
      "inputs": [
        {
          "internalType": "uint256",
          "name": "_pid",
          "type": "uint256"
        }
      ],
      "name": "withdraw",
      "outputs": [],
      "stateMutability": "nonpayable",
      "type": "function"
    }
  ],
  "bytecode": "0x6080604052600060045534801561001557600080fd5b50604051611270380380611270833981016040819052610034916100a1565b600080546001600160a01b031916339081178255604051909182917f8be0079c531659141344cd1fd0a4f28419497f9722a3daafe3b4186f6b6457e0908290a350600180546001600160a01b0319166001600160a01b0394909416939093179092556005556006556100e2565b6000806000606084860312156100b5578283fd5b83516001600160a01b03811681146100cb578384fd5b602085015160409095015190969495509392505050565b61117f806100f16000396000f3fe608060405234801561001057600080fd5b50600436106100db5760003560e01c8063081e3eda146100e0578063083c6323146100f75780631526fe271461010057806317caf6f1146101385780632b8bbbe8146101415780632e1a7d4d1461015657806337a34baf1461016957806348cd4cb11461017c578063715018a6146101855780638da5cb5b1461018d57806393f1a40b146101a2578063c713aa94146101e9578063d9c88e14146101fc578063dce174841461020f578063e2bbb15814610222578063f2fde38b14610235578063f35e4a6e14610248575b600080fd5b6002545b6040519081526020015b60405180910390f35b6100e460065481565b61011361010e366004610f60565b61025b565b604080516001600160a01b0390941684526020840192909252908201526060016100ee565b6100e460045481565b61015461014f366004610f90565b610298565b005b610154610164366004610f60565b61039f565b6100e4610177366004610f90565b6104eb565b6100e460055481565b61015461065b565b6101956106c2565b6040516100ee9190610ffc565b6101d46101b0366004610f90565b60036020908152600092835260408084209091529082529020805460019091015482565b604080519283526020830191909152016100ee565b6101546101f7366004610f60565b6106d1565b61015461020a366004610f15565b610705565b600154610195906001600160a01b031681565b610154610230366004610fbf565b6107a1565b610154610243366004610ef9565b610934565b610154610256366004610f60565b610a11565b6002818154811061026b57600080fd5b60009182526020909120600390910201805460018201546002909201546001600160a01b03909116925083565b336102a16106c2565b6001600160a01b0316146102d05760405162461bcd60e51b81526004016102c790611043565b60405180910390fd5b6004546102dd9083610a45565b600455604080516060810182526001600160a01b03928316815260208101938452600091810182815260028054600181018255935290517f405787fa12a823e0f2b7631cc41b3ba8828b3321ca811111fa75cd3aa3bb5ace600390930292830180546001600160a01b031916919094161790925591517f405787fa12a823e0f2b7631cc41b3ba8828b3321ca811111fa75cd3aa3bb5acf830155517f405787fa12a823e0f2b7631cc41b3ba8828b3321ca811111fa75cd3aa3bb5ad090910155565b60065443116103e45760405162461bcd60e51b815260206004820152601160248201527043616e206e6f7420636c61696d206e6f7760781b60448201526064016102c7565b60006002828154811061040757634e487b7160e01b600052603260045260246000fd5b6000918252602080832085845260038083526040808620338088529452852093020193509091906104399085906104eb565b905080156104835761044b3382610aa9565b604051818152849033907f34fcbac0073d7c3d388e51312faf357774904998eeb8fca628b9e6f65ee1cbf79060200160405180910390a35b8154156104e55781546000835542600184015583546104ac906001600160a01b03163383610b54565b604051818152859033907ff279e6a1f5e320cca91135676d9cb6e44ca8a08c0b88342bcdb1144f6511b5689060200160405180910390a3505b50505050565b6000806002848154811061050f57634e487b7160e01b600052603260045260246000fd5b60009182526020808320878452600380835260408086206001600160a01b038a81168852945280862060015491516370a0823160e01b815295909202909201955093929116906370a0823190610569903090600401610ffc565b60206040518083038186803b15801561058157600080fd5b505afa158015610595573d6000803e3d6000fd5b505050506040513d601f19601f820116820180604052508101906105b99190610f78565b9050806105cc5760009350505050610655565b60006105f16004546105eb866001015485610bb790919063ffffffff16565b90610c36565b905080610605576000945050505050610655565b600284015461061b576000945050505050610655565b61064e84600201546105eb6004546105eb87600001546106488a6001015489610bb790919063ffffffff16565b90610bb7565b9450505050505b92915050565b336106646106c2565b6001600160a01b03161461068a5760405162461bcd60e51b81526004016102c790611043565b600080546040516001600160a01b039091169060008051602061112a833981519152908390a3600080546001600160a01b0319169055565b6000546001600160a01b031690565b336106da6106c2565b6001600160a01b0316146107005760405162461bcd60e51b81526004016102c790611043565b600655565b3361070e6106c2565b6001600160a01b0316146107345760405162461bcd60e51b81526004016102c790611043565b600554431080610753575060065461074f9062062700611078565b4310155b6107935760405162461bcd60e51b8152602060048201526011602482015270125313c8185b1c9958591e481cdd185c9d607a1b60448201526064016102c7565b61079d8282610aa9565b5050565b6000600283815481106107c457634e487b7160e01b600052603260045260246000fd5b6000918252602080832086845260038083526040808620338752909352919093206005549290910290920192504310156108305760405162461bcd60e51b815260206004820152600d60248201526c24a627903737ba103132b3b4b760991b60448201526064016102c7565b6006544311156108775760405162461bcd60e51b8152602060048201526012602482015271092989e40c2d8e4cac2c8f240ccd2dcd2e6d60731b60448201526064016102c7565b600083116108b85760405162461bcd60e51b815260206004820152600e60248201526d1a5b1b1959d85b08185b5bdd5b9d60921b60448201526064016102c7565b80546108c49084610a45565b815542600182015560028201546108db9084610a45565b600283015581546108f7906001600160a01b0316333086610c75565b604051838152849033907f90890809c654f11d6e72a28fa60149770a0d11ec6c92319d6ceb2bb0a4ea1a159060200160405180910390a350505050565b3361093d6106c2565b6001600160a01b0316146109635760405162461bcd60e51b81526004016102c790611043565b6001600160a01b0381166109c85760405162461bcd60e51b815260206004820152602660248201527f4f776e61626c653a206e6577206f776e657220697320746865207a65726f206160448201526564647265737360d01b60648201526084016102c7565b600080546040516001600160a01b038085169392169160008051602061112a83398151915291a3600080546001600160a01b0319166001600160a01b0392909216919091179055565b33610a1a6106c2565b6001600160a01b031614610a405760405162461bcd60e51b81526004016102c790611043565b600555565b600080610a528385611078565b905083811015610aa25760405162461bcd60e51b815260206004820152601b60248201527a536166654d6174683a206164646974696f6e206f766572666c6f7760281b60448201526064016102c7565b9392505050565b6001546040516370a0823160e01b81526000916001600160a01b0316906370a0823190610ada903090600401610ffc565b60206040518083038186803b158015610af257600080fd5b505afa158015610b06573d6000803e3d6000fd5b505050506040513d601f19601f82011682018060405250810190610b2a9190610f78565b905080821115610b38578091505b600154610b4f906001600160a01b03168484610b54565b505050565b6040516001600160a01b038316602482015260448101829052610b4f90849063a9059cbb60e01b906064015b60408051601f198184030181529190526020810180516001600160e01b03166001600160e01b031990931692909217909152610cad565b600082610bc657506000610655565b6000610bd283856110b0565b905082610bdf8583611090565b14610aa25760405162461bcd60e51b815260206004820152602160248201527f536166654d6174683a206d756c7469706c69636174696f6e206f766572666c6f6044820152607760f81b60648201526084016102c7565b6000610aa283836040518060400160405280601a815260200179536166654d6174683a206469766973696f6e206279207a65726f60301b815250610d7f565b6040516001600160a01b03808516602483015283166044820152606481018290526104e59085906323b872dd60e01b90608401610b80565b6000610d02826040518060400160405280602081526020017f5361666542455032303a206c6f772d6c6576656c2063616c6c206661696c6564815250856001600160a01b0316610db69092919063ffffffff16565b805190915015610b4f5780806020019051810190610d209190610f40565b610b4f5760405162461bcd60e51b815260206004820152602a60248201527f5361666542455032303a204245503230206f7065726174696f6e20646964206e6044820152691bdd081cdd58d8d9595960b21b60648201526084016102c7565b60008183610da05760405162461bcd60e51b81526004016102c79190611010565b506000610dad8486611090565b95945050505050565b6060610dc58484600085610dcd565b949350505050565b6060610dd885610ec0565b610e245760405162461bcd60e51b815260206004820152601d60248201527f416464726573733a2063616c6c20746f206e6f6e2d636f6e747261637400000060448201526064016102c7565b600080866001600160a01b03168587604051610e409190610fe0565b60006040518083038185875af1925050503d8060008114610e7d576040519150601f19603f3d011682016040523d82523d6000602084013e610e82565b606091505b50915091508115610e96579150610dc59050565b805115610ea65780518082602001fd5b8360405162461bcd60e51b81526004016102c79190611010565b6000813f7fc5d2460186f7233c927e7db2dcc703c0e500b653ca82273b7bfad8045d85a470818114801590610dc5575050151592915050565b600060208284031215610f0a578081fd5b8135610aa281611111565b60008060408385031215610f27578081fd5b8235610f3281611111565b946020939093013593505050565b600060208284031215610f51578081fd5b81518015158114610aa2578182fd5b600060208284031215610f71578081fd5b5035919050565b600060208284031215610f89578081fd5b5051919050565b60008060408385031215610fa2578182fd5b823591506020830135610fb481611111565b809150509250929050565b60008060408385031215610fd1578182fd5b50508035926020909101359150565b60008251610ff28184602087016110cf565b9190910192915050565b6001600160a01b0391909116815260200190565b602081526000825180602084015261102f8160408501602087016110cf565b601f01601f19169190910160400192915050565b6020808252818101527f4f776e61626c653a2063616c6c6572206973206e6f7420746865206f776e6572604082015260600190565b6000821982111561108b5761108b6110fb565b500190565b6000826110ab57634e487b7160e01b81526012600452602481fd5b500490565b60008160001904831182151516156110ca576110ca6110fb565b500290565b60005b838110156110ea5781810151838201526020016110d2565b838111156104e55750506000910152565b634e487b7160e01b600052601160045260246000fd5b6001600160a01b038116811461112657600080fd5b5056fe8be0079c531659141344cd1fd0a4f28419497f9722a3daafe3b4186f6b6457e0a26469706673582212202fccc3866ed8fb80d5c3cab3efee0f9fb3f020ec88cd85bc3aec82af5971d63264736f6c63430008040033",
  "linkReferences": {},
  "deployedLinkReferences": {}
}