{
  "_format": "hh-sol-artifact-1",
  "contractName": "ILO",
  "sourceName": "contracts/farm/ILO.sol",
  "abi": [
    {
      "inputs": [
        {
          "internalType": "contract IBEP20",
          "name": "_cake",
          "type": "address"
        },
        {
          "internalType": "uint256",
          "name": "_startBlock",
          "type": "uint256"
        },
        {
          "internalType": "uint256",
          "name": "_endBlock",
          "type": "uint256"
        }
      ],
      "stateMutability": "nonpayable",
      "type": "constructor"
    },
    {
      "anonymous": false,
      "inputs": [
        {
          "indexed": true,
          "internalType": "address",
          "name": "user",
          "type": "address"
        },
        {
          "indexed": true,
          "internalType": "uint256",
          "name": "pid",
          "type": "uint256"
        },
        {
          "indexed": false,
          "internalType": "uint256",
          "name": "amount",
          "type": "uint256"
        }
      ],
      "name": "Claim",
      "type": "event"
    },
    {
      "anonymous": false,
      "inputs": [
        {
          "indexed": true,
          "internalType": "address",
          "name": "user",
          "type": "address"
        },
        {
          "indexed": true,
          "internalType": "uint256",
          "name": "pid",
          "type": "uint256"
        },
        {
          "indexed": false,
          "internalType": "uint256",
          "name": "amount",
          "type": "uint256"
        }
      ],
      "name": "Deposit",
      "type": "event"
    },
    {
      "anonymous": false,
      "inputs": [
        {
          "indexed": true,
          "internalType": "address",
          "name": "previousOwner",
          "type": "address"
        },
        {
          "indexed": true,
          "internalType": "address",
          "name": "newOwner",
          "type": "address"
        }
      ],
      "name": "OwnershipTransferred",
      "type": "event"
    },
    {
      "anonymous": false,
      "inputs": [
        {
          "indexed": true,
          "internalType": "address",
          "name": "user",
          "type": "address"
        },
        {
          "indexed": true,
          "internalType": "uint256",
          "name": "pid",
          "type": "uint256"
        },
        {
          "indexed": false,
          "internalType": "uint256",
          "name": "amount",
          "type": "uint256"
        }
      ],
      "name": "Withdraw",
      "type": "event"
    },
    {
      "inputs": [
        {
          "internalType": "uint256",
          "name": "_allocPoint",
          "type": "uint256"
        },
        {
          "internalType": "contract IBEP20",
          "name": "_lpToken",
          "type": "address"
        }
      ],
      "name": "add",
      "outputs": [],
      "stateMutability": "nonpayable",
      "type": "function"
    },
    {
      "inputs": [],
      "name": "cake",
      "outputs": [
        {
          "internalType": "contract IBEP20",
          "name": "",
          "type": "address"
        }
      ],
      "stateMutability": "view",
      "type": "function"
    },
    {
      "inputs": [
        {
          "internalType": "uint256",
          "name": "_pid",
          "type": "uint256"
        },
        {
          "internalType": "uint256",
          "name": "_amount",
          "type": "uint256"
        }
      ],
      "name": "deposit",
      "outputs": [],
      "stateMutability": "nonpayable",
      "type": "function"
    },
    {
      "inputs": [],
      "name": "endBlock",
      "outputs": [
        {
          "internalType": "uint256",
          "name": "",
          "type": "uint256"
        }
      ],
      "stateMutability": "view",
      "type": "function"
    },
    {
      "inputs": [],
      "name": "owner",
      "outputs": [
        {
          "internalType": "address",
          "name": "",
          "type": "address"
        }
      ],
      "stateMutability": "view",
      "type": "function"
    },
    {
      "inputs": [
        {
          "internalType": "address",
          "name": "_to",
          "type": "address"
        },
        {
          "internalType": "uint256",
          "name": "_amount",
          "type": "uint256"
        }
      ],
      "name": "ownerWithdraw",
      "outputs": [],
      "stateMutability": "nonpayable",
      "type": "function"
    },
    {
      "inputs": [
        {
          "internalType": "uint256",
          "name": "_pid",
          "type": "uint256"
        },
        {
          "internalType": "address",
          "name": "_user",
          "type": "address"
        }
      ],
      "name": "pendingCairo",
      "outputs": [
        {
          "internalType": "uint256",
          "name": "",
          "type": "uint256"
        }
      ],
      "stateMutability": "view",
      "type": "function"
    },
    {
      "inputs": [
        {
          "internalType": "uint256",
          "name": "",
          "type": "uint256"
        }
      ],
      "name": "poolInfo",
      "outputs": [
        {
          "internalType": "contract IBEP20",
          "name": "lpToken",
          "type": "address"
        },
        {
          "internalType": "uint256",
          "name": "allocPoint",
          "type": "uint256"
        },
        {
          "internalType": "uint256",
          "name": "totalAmount",
          "type": "uint256"
        }
      ],
      "stateMutability": "view",
      "type": "function"
    },
    {
      "inputs": [],
      "name": "poolLength",
      "outputs": [
        {
          "internalType": "uint256",
          "name": "",
          "type": "uint256"
        }
      ],
      "stateMutability": "view",
      "type": "function"
    },
    {
      "inputs": [],
      "name": "renounceOwnership",
      "outputs": [],
      "stateMutability": "nonpayable",
      "type": "function"
    },
    {
      "inputs": [
        {
          "internalType": "uint256",
          "name": "blockNumber",
          "type": "uint256"
        }
      ],
      "name": "setEndBlock",
      "outputs": [],
      "stateMutability": "nonpayable",
      "type": "function"
    },
    {
      "inputs": [
        {
          "internalType": "uint256",
          "name": "blockNumber",
          "type": "uint256"
        }
      ],
      "name": "setStartBlock",
      "outputs": [],
      "stateMutability": "nonpayable",
      "type": "function"
    },
    {
      "inputs": [],
      "name": "startBlock",
      "outputs": [
        {
          "internalType": "uint256",
          "name": "",
          "type": "uint256"
        }
      ],
      "stateMutability": "view",
      "type": "function"
    },
    {
      "inputs": [],
      "name": "totalAllocPoint",
      "outputs": [
        {
          "internalType": "uint256",
          "name": "",
          "type": "uint256"
        }
      ],
      "stateMutability": "view",
      "type": "function"
    },
    {
      "inputs": [
        {
          "internalType": "address",
          "name": "newOwner",
          "type": "address"
        }
      ],
      "name": "transferOwnership",
      "outputs": [],
      "stateMutability": "nonpayable",
      "type": "function"
    },
    {
      "inputs": [
        {
          "internalType": "uint256",
          "name": "",
          "type": "uint256"
        },
        {
          "internalType": "address",
          "name": "",
          "type": "address"
        }
      ],
      "name": "userInfo",
      "outputs": [
        {
          "internalType": "uint256",
          "name": "amount",
          "type": "uint256"
        },
        {
          "internalType": "uint256",
          "name": "lastTime",
          "type": "uint256"
        }
      ],
      "stateMutability": "view",
      "type": "function"
    },
    {
      "inputs": [
        {
          "internalType": "uint256",
          "name": "_pid",
          "type": "uint256"
        }
      ],
      "name": "withdraw",
      "outputs": [],
      "stateMutability": "nonpayable",
      "type": "function"
    }
  ],
  "bytecode": "0x608060405260006004553480156200001657600080fd5b50604051620024d6380380620024d683398181016040528101906200003c91906200017a565b60006200004e6200014460201b60201c565b9050806000806101000a81548173ffffffffffffffffffffffffffffffffffffffff021916908373ffffffffffffffffffffffffffffffffffffffff1602179055508073ffffffffffffffffffffffffffffffffffffffff16600073ffffffffffffffffffffffffffffffffffffffff167f8be0079c531659141344cd1fd0a4f28419497f9722a3daafe3b4186f6b6457e060405160405180910390a35082600160006101000a81548173ffffffffffffffffffffffffffffffffffffffff021916908373ffffffffffffffffffffffffffffffffffffffff160217905550816005819055508060068190555050505062000256565b600033905090565b6000815190506200015d8162000222565b92915050565b60008151905062000174816200023c565b92915050565b6000806000606084860312156200019057600080fd5b6000620001a0868287016200014c565b9350506020620001b38682870162000163565b9250506040620001c68682870162000163565b9150509250925092565b6000620001dd82620001f8565b9050919050565b6000620001f182620001d0565b9050919050565b600073ffffffffffffffffffffffffffffffffffffffff82169050919050565b6000819050919050565b6200022d81620001e4565b81146200023957600080fd5b50565b620002478162000218565b81146200025357600080fd5b50565b61227080620002666000396000f3fe608060405234801561001057600080fd5b50600436106100db5760003560e01c8063081e3eda146100e0578063083c6323146100fe5780631526fe271461011c57806317caf6f11461014e5780632b8bbbe81461016c5780632e1a7d4d1461018857806337a34baf146101a457806348cd4cb1146101d4578063715018a6146101f25780638da5cb5b146101fc57806393f1a40b1461021a578063c713aa941461024b578063d9c88e1414610267578063dce1748414610283578063e2bbb158146102a1578063f2fde38b146102bd578063f35e4a6e146102d9575b600080fd5b6100e86102f5565b6040516100f59190611d32565b60405180910390f35b610106610302565b6040516101139190611d32565b60405180910390f35b610136600480360381019061013191906117ae565b610308565b60405161014593929190611b79565b60405180910390f35b610156610362565b6040516101639190611d32565b60405180910390f35b6101866004803603810190610181919061183c565b610368565b005b6101a2600480360381019061019d91906117ae565b6104bd565b005b6101be60048036038101906101b99190611800565b6106e1565b6040516101cb9190611d32565b60405180910390f35b6101dc610909565b6040516101e99190611d32565b60405180910390f35b6101fa61090f565b005b610204610a49565b6040516102119190611ae3565b60405180910390f35b610234600480360381019061022f9190611800565b610a72565b604051610242929190611d4d565b60405180910390f35b610265600480360381019061026091906117ae565b610aa3565b005b610281600480360381019061027c9190611749565b610b29565b005b61028b610c12565b6040516102989190611b5e565b60405180910390f35b6102bb60048036038101906102b69190611878565b610c38565b005b6102d760048036038101906102d29190611720565b610e92565b005b6102f360048036038101906102ee91906117ae565b61103b565b005b6000600280549050905090565b60065481565b6002818154811061031857600080fd5b90600052602060002090600302016000915090508060000160009054906101000a900473ffffffffffffffffffffffffffffffffffffffff16908060010154908060020154905083565b60045481565b6103706110c1565b73ffffffffffffffffffffffffffffffffffffffff1661038e610a49565b73ffffffffffffffffffffffffffffffffffffffff16146103e4576040517f08c379a00000000000000000000000000000000000000000000000000000000081526004016103db90611cd2565b60405180910390fd5b6103f9826004546110c990919063ffffffff16565b600481905550600260405180606001604052808373ffffffffffffffffffffffffffffffffffffffff1681526020018481526020016000815250908060018154018082558091505060019003906000526020600020906003020160009091909190915060008201518160000160006101000a81548173ffffffffffffffffffffffffffffffffffffffff021916908373ffffffffffffffffffffffffffffffffffffffff160217905550602082015181600101556040820151816002015550505050565b6006544311610501576040517f08c379a00000000000000000000000000000000000000000000000000000000081526004016104f890611cf2565b60405180910390fd5b60006002828154811061053d577f4e487b7100000000000000000000000000000000000000000000000000000000600052603260045260246000fd5b9060005260206000209060030201905060006003600084815260200190815260200160002060003373ffffffffffffffffffffffffffffffffffffffff1673ffffffffffffffffffffffffffffffffffffffff168152602001908152602001600020905060006105ad84336106e1565b90506000811115610612576105c23382611127565b833373ffffffffffffffffffffffffffffffffffffffff167f34fcbac0073d7c3d388e51312faf357774904998eeb8fca628b9e6f65ee1cbf7836040516106099190611d32565b60405180910390a35b6000826000015411156106db576000826000015490506000836000018190555042836001018190555061068a33828660000160009054906101000a900473ffffffffffffffffffffffffffffffffffffffff1673ffffffffffffffffffffffffffffffffffffffff166112349092919063ffffffff16565b843373ffffffffffffffffffffffffffffffffffffffff167ff279e6a1f5e320cca91135676d9cb6e44ca8a08c0b88342bcdb1144f6511b568836040516106d19190611d32565b60405180910390a3505b50505050565b6000806002848154811061071e577f4e487b7100000000000000000000000000000000000000000000000000000000600052603260045260246000fd5b9060005260206000209060030201905060006003600086815260200190815260200160002060008573ffffffffffffffffffffffffffffffffffffffff1673ffffffffffffffffffffffffffffffffffffffff16815260200190815260200160002090506000600160009054906101000a900473ffffffffffffffffffffffffffffffffffffffff1673ffffffffffffffffffffffffffffffffffffffff166370a08231306040518263ffffffff1660e01b81526004016107df9190611ae3565b60206040518083038186803b1580156107f757600080fd5b505afa15801561080b573d6000803e3d6000fd5b505050506040513d601f19601f8201168201806040525081019061082f91906117d7565b905060008114156108465760009350505050610903565b60006108736004546108658660010154856112ba90919063ffffffff16565b61133590919063ffffffff16565b9050600081141561088b576000945050505050610903565b6000846002015414156108a5576000945050505050610903565b6108fc84600201546108ee6004546108e087600001546108d28a60010154896112ba90919063ffffffff16565b6112ba90919063ffffffff16565b61133590919063ffffffff16565b61133590919063ffffffff16565b9450505050505b92915050565b60055481565b6109176110c1565b73ffffffffffffffffffffffffffffffffffffffff16610935610a49565b73ffffffffffffffffffffffffffffffffffffffff161461098b576040517f08c379a000000000000000000000000000000000000000000000000000000000815260040161098290611cd2565b60405180910390fd5b600073ffffffffffffffffffffffffffffffffffffffff1660008054906101000a900473ffffffffffffffffffffffffffffffffffffffff1673ffffffffffffffffffffffffffffffffffffffff167f8be0079c531659141344cd1fd0a4f28419497f9722a3daafe3b4186f6b6457e060405160405180910390a360008060006101000a81548173ffffffffffffffffffffffffffffffffffffffff021916908373ffffffffffffffffffffffffffffffffffffffff160217905550565b60008060009054906101000a900473ffffffffffffffffffffffffffffffffffffffff16905090565b6003602052816000526040600020602052806000526040600020600091509150508060000154908060010154905082565b610aab6110c1565b73ffffffffffffffffffffffffffffffffffffffff16610ac9610a49565b73ffffffffffffffffffffffffffffffffffffffff1614610b1f576040517f08c379a0000000000000000000000000000000000000000000000000000000008152600401610b1690611cd2565b60405180910390fd5b8060068190555050565b610b316110c1565b73ffffffffffffffffffffffffffffffffffffffff16610b4f610a49565b73ffffffffffffffffffffffffffffffffffffffff1614610ba5576040517f08c379a0000000000000000000000000000000000000000000000000000000008152600401610b9c90611cd2565b60405180910390fd5b600554431080610bc5575062062700600654610bc19190611da8565b4310155b610c04576040517f08c379a0000000000000000000000000000000000000000000000000000000008152600401610bfb90611bf2565b60405180910390fd5b610c0e8282611127565b5050565b600160009054906101000a900473ffffffffffffffffffffffffffffffffffffffff1681565b600060028381548110610c74577f4e487b7100000000000000000000000000000000000000000000000000000000600052603260045260246000fd5b9060005260206000209060030201905060006003600085815260200190815260200160002060003373ffffffffffffffffffffffffffffffffffffffff1673ffffffffffffffffffffffffffffffffffffffff1681526020019081526020016000209050600554431015610d1d576040517f08c379a0000000000000000000000000000000000000000000000000000000008152600401610d1490611bd2565b60405180910390fd5b600654431115610d62576040517f08c379a0000000000000000000000000000000000000000000000000000000008152600401610d5990611c92565b60405180910390fd5b60008311610da5576040517f08c379a0000000000000000000000000000000000000000000000000000000008152600401610d9c90611c72565b60405180910390fd5b610dbc8382600001546110c990919063ffffffff16565b8160000181905550428160010181905550610de48383600201546110c990919063ffffffff16565b8260020181905550610e3d3330858560000160009054906101000a900473ffffffffffffffffffffffffffffffffffffffff1673ffffffffffffffffffffffffffffffffffffffff1661137f909392919063ffffffff16565b833373ffffffffffffffffffffffffffffffffffffffff167f90890809c654f11d6e72a28fa60149770a0d11ec6c92319d6ceb2bb0a4ea1a1585604051610e849190611d32565b60405180910390a350505050565b610e9a6110c1565b73ffffffffffffffffffffffffffffffffffffffff16610eb8610a49565b73ffffffffffffffffffffffffffffffffffffffff1614610f0e576040517f08c379a0000000000000000000000000000000000000000000000000000000008152600401610f0590611cd2565b60405180910390fd5b600073ffffffffffffffffffffffffffffffffffffffff168173ffffffffffffffffffffffffffffffffffffffff161415610f7e576040517f08c379a0000000000000000000000000000000000000000000000000000000008152600401610f7590611c32565b60405180910390fd5b8073ffffffffffffffffffffffffffffffffffffffff1660008054906101000a900473ffffffffffffffffffffffffffffffffffffffff1673ffffffffffffffffffffffffffffffffffffffff167f8be0079c531659141344cd1fd0a4f28419497f9722a3daafe3b4186f6b6457e060405160405180910390a3806000806101000a81548173ffffffffffffffffffffffffffffffffffffffff021916908373ffffffffffffffffffffffffffffffffffffffff16021790555050565b6110436110c1565b73ffffffffffffffffffffffffffffffffffffffff16611061610a49565b73ffffffffffffffffffffffffffffffffffffffff16146110b7576040517f08c379a00000000000000000000000000000000000000000000000000000000081526004016110ae90611cd2565b60405180910390fd5b8060058190555050565b600033905090565b60008082846110d89190611da8565b90508381101561111d576040517f08c379a000000000000000000000000000000000000000000000000000000000815260040161111490611c52565b60405180910390fd5b8091505092915050565b6000600160009054906101000a900473ffffffffffffffffffffffffffffffffffffffff1673ffffffffffffffffffffffffffffffffffffffff166370a08231306040518263ffffffff1660e01b81526004016111849190611ae3565b60206040518083038186803b15801561119c57600080fd5b505afa1580156111b0573d6000803e3d6000fd5b505050506040513d601f19601f820116820180604052508101906111d491906117d7565b9050808211156111e2578091505b61122f8383600160009054906101000a900473ffffffffffffffffffffffffffffffffffffffff1673ffffffffffffffffffffffffffffffffffffffff166112349092919063ffffffff16565b505050565b6112b58363a9059cbb60e01b8484604051602401611253929190611b35565b604051602081830303815290604052907bffffffffffffffffffffffffffffffffffffffffffffffffffffffff19166020820180517bffffffffffffffffffffffffffffffffffffffffffffffffffffffff8381831617835250505050611408565b505050565b6000808314156112cd576000905061132f565b600082846112db9190611e2f565b90508284826112ea9190611dfe565b1461132a576040517f08c379a000000000000000000000000000000000000000000000000000000000815260040161132190611cb2565b60405180910390fd5b809150505b92915050565b600061137783836040518060400160405280601a81526020017f536166654d6174683a206469766973696f6e206279207a65726f0000000000008152506114cf565b905092915050565b611402846323b872dd60e01b8585856040516024016113a093929190611afe565b604051602081830303815290604052907bffffffffffffffffffffffffffffffffffffffffffffffffffffffff19166020820180517bffffffffffffffffffffffffffffffffffffffffffffffffffffffff8381831617835250505050611408565b50505050565b600061146a826040518060400160405280602081526020017f5361666542455032303a206c6f772d6c6576656c2063616c6c206661696c65648152508573ffffffffffffffffffffffffffffffffffffffff166115329092919063ffffffff16565b90506000815111156114ca578080602001905181019061148a9190611785565b6114c9576040517f08c379a00000000000000000000000000000000000000000000000000000000081526004016114c090611c12565b60405180910390fd5b5b505050565b60008083118290611516576040517f08c379a000000000000000000000000000000000000000000000000000000000815260040161150d9190611bb0565b60405180910390fd5b50600083856115259190611dfe565b9050809150509392505050565b6060611541848460008561154a565b90509392505050565b60606115558561166c565b611594576040517f08c379a000000000000000000000000000000000000000000000000000000000815260040161158b90611d12565b60405180910390fd5b6000808673ffffffffffffffffffffffffffffffffffffffff1685876040516115bd9190611acc565b60006040518083038185875af1925050503d80600081146115fa576040519150601f19603f3d011682016040523d82523d6000602084013e6115ff565b606091505b50915091508115611614578092505050611664565b6000815111156116275780518082602001fd5b836040517f08c379a000000000000000000000000000000000000000000000000000000000815260040161165b9190611bb0565b60405180910390fd5b949350505050565b60008060007fc5d2460186f7233c927e7db2dcc703c0e500b653ca82273b7bfad8045d85a47060001b9050833f91508082141580156116ae57506000801b8214155b92505050919050565b6000813590506116c6816121de565b92915050565b6000815190506116db816121f5565b92915050565b6000813590506116f08161220c565b92915050565b60008135905061170581612223565b92915050565b60008151905061171a81612223565b92915050565b60006020828403121561173257600080fd5b6000611740848285016116b7565b91505092915050565b6000806040838503121561175c57600080fd5b600061176a858286016116b7565b925050602061177b858286016116f6565b9150509250929050565b60006020828403121561179757600080fd5b60006117a5848285016116cc565b91505092915050565b6000602082840312156117c057600080fd5b60006117ce848285016116f6565b91505092915050565b6000602082840312156117e957600080fd5b60006117f78482850161170b565b91505092915050565b6000806040838503121561181357600080fd5b6000611821858286016116f6565b9250506020611832858286016116b7565b9150509250929050565b6000806040838503121561184f57600080fd5b600061185d858286016116f6565b925050602061186e858286016116e1565b9150509250929050565b6000806040838503121561188b57600080fd5b6000611899858286016116f6565b92505060206118aa858286016116f6565b9150509250929050565b6118bd81611e89565b82525050565b60006118ce82611d76565b6118d88185611d8c565b93506118e8818560208601611f07565b80840191505092915050565b6118fd81611ee3565b82525050565b600061190e82611d81565b6119188185611d97565b9350611928818560208601611f07565b61193181611f98565b840191505092915050565b6000611949600d83611d97565b915061195482611fa9565b602082019050919050565b600061196c601183611d97565b915061197782611fd2565b602082019050919050565b600061198f602a83611d97565b915061199a82611ffb565b604082019050919050565b60006119b2602683611d97565b91506119bd8261204a565b604082019050919050565b60006119d5601b83611d97565b91506119e082612099565b602082019050919050565b60006119f8600e83611d97565b9150611a03826120c2565b602082019050919050565b6000611a1b601283611d97565b9150611a26826120eb565b602082019050919050565b6000611a3e602183611d97565b9150611a4982612114565b604082019050919050565b6000611a61602083611d97565b9150611a6c82612163565b602082019050919050565b6000611a84601183611d97565b9150611a8f8261218c565b602082019050919050565b6000611aa7601d83611d97565b9150611ab2826121b5565b602082019050919050565b611ac681611ed9565b82525050565b6000611ad882846118c3565b915081905092915050565b6000602082019050611af860008301846118b4565b92915050565b6000606082019050611b1360008301866118b4565b611b2060208301856118b4565b611b2d6040830184611abd565b949350505050565b6000604082019050611b4a60008301856118b4565b611b576020830184611abd565b9392505050565b6000602082019050611b7360008301846118f4565b92915050565b6000606082019050611b8e60008301866118f4565b611b9b6020830185611abd565b611ba86040830184611abd565b949350505050565b60006020820190508181036000830152611bca8184611903565b905092915050565b60006020820190508181036000830152611beb8161193c565b9050919050565b60006020820190508181036000830152611c0b8161195f565b9050919050565b60006020820190508181036000830152611c2b81611982565b9050919050565b60006020820190508181036000830152611c4b816119a5565b9050919050565b60006020820190508181036000830152611c6b816119c8565b9050919050565b60006020820190508181036000830152611c8b816119eb565b9050919050565b60006020820190508181036000830152611cab81611a0e565b9050919050565b60006020820190508181036000830152611ccb81611a31565b9050919050565b60006020820190508181036000830152611ceb81611a54565b9050919050565b60006020820190508181036000830152611d0b81611a77565b9050919050565b60006020820190508181036000830152611d2b81611a9a565b9050919050565b6000602082019050611d476000830184611abd565b92915050565b6000604082019050611d626000830185611abd565b611d6f6020830184611abd565b9392505050565b600081519050919050565b600081519050919050565b600081905092915050565b600082825260208201905092915050565b6000611db382611ed9565b9150611dbe83611ed9565b9250827fffffffffffffffffffffffffffffffffffffffffffffffffffffffffffffffff03821115611df357611df2611f3a565b5b828201905092915050565b6000611e0982611ed9565b9150611e1483611ed9565b925082611e2457611e23611f69565b5b828204905092915050565b6000611e3a82611ed9565b9150611e4583611ed9565b9250817fffffffffffffffffffffffffffffffffffffffffffffffffffffffffffffffff0483118215151615611e7e57611e7d611f3a565b5b828202905092915050565b6000611e9482611eb9565b9050919050565b60008115159050919050565b6000611eb282611e89565b9050919050565b600073ffffffffffffffffffffffffffffffffffffffff82169050919050565b6000819050919050565b6000611eee82611ef5565b9050919050565b6000611f0082611eb9565b9050919050565b60005b83811015611f25578082015181840152602081019050611f0a565b83811115611f34576000848401525b50505050565b7f4e487b7100000000000000000000000000000000000000000000000000000000600052601160045260246000fd5b7f4e487b7100000000000000000000000000000000000000000000000000000000600052601260045260246000fd5b6000601f19601f8301169050919050565b7f494c4f206e6f7420626567696e00000000000000000000000000000000000000600082015250565b7f494c4f20616c7265616479207374617274000000000000000000000000000000600082015250565b7f5361666542455032303a204245503230206f7065726174696f6e20646964206e60008201527f6f74207375636365656400000000000000000000000000000000000000000000602082015250565b7f4f776e61626c653a206e6577206f776e657220697320746865207a65726f206160008201527f6464726573730000000000000000000000000000000000000000000000000000602082015250565b7f536166654d6174683a206164646974696f6e206f766572666c6f770000000000600082015250565b7f696c6c6567616c20616d6f756e74000000000000000000000000000000000000600082015250565b7f494c4f20616c72656164792066696e6973680000000000000000000000000000600082015250565b7f536166654d6174683a206d756c7469706c69636174696f6e206f766572666c6f60008201527f7700000000000000000000000000000000000000000000000000000000000000602082015250565b7f4f776e61626c653a2063616c6c6572206973206e6f7420746865206f776e6572600082015250565b7f43616e206e6f7420636c61696d206e6f77000000000000000000000000000000600082015250565b7f416464726573733a2063616c6c20746f206e6f6e2d636f6e7472616374000000600082015250565b6121e781611e89565b81146121f257600080fd5b50565b6121fe81611e9b565b811461220957600080fd5b50565b61221581611ea7565b811461222057600080fd5b50565b61222c81611ed9565b811461223757600080fd5b5056fea264697066735822122002c88f4806063fb039f13647979ad195807e23a181a804115568aa8a6d85731e64736f6c63430008040033",
  "linkReferences": {},
  "deployedLinkReferences": {}
}