{
  "_format": "hh-sol-artifact-1",
  "contractName": "CairoRouter",
  "sourceName": "contracts/router/CairoRouter02.sol",
  "abi": [
    {
      "inputs": [
        {
          "internalType": "address",
          "name": "_oldRouter",
          "type": "address"
        },
        {
          "internalType": "address",
          "name": "_factory",
          "type": "address"
        },
        {
          "internalType": "uint256",
          "name": "_fee",
          "type": "uint256"
        },
        {
          "internalType": "address",
          "name": "_WETH",
          "type": "address"
        }
      ],
      "stateMutability": "nonpayable",
      "type": "constructor"
    },
    {
      "anonymous": false,
      "inputs": [
        {
          "indexed": true,
          "internalType": "address",
          "name": "previousOwner",
          "type": "address"
        },
        {
          "indexed": true,
          "internalType": "address",
          "name": "newOwner",
          "type": "address"
        }
      ],
      "name": "OwnershipTransferred",
      "type": "event"
    },
    {
      "inputs": [],
      "name": "WETH",
      "outputs": [
        {
          "internalType": "address",
          "name": "",
          "type": "address"
        }
      ],
      "stateMutability": "view",
      "type": "function"
    },
    {
      "inputs": [
        {
          "internalType": "address",
          "name": "tokenA",
          "type": "address"
        },
        {
          "internalType": "address",
          "name": "tokenB",
          "type": "address"
        },
        {
          "internalType": "uint256",
          "name": "amountADesired",
          "type": "uint256"
        },
        {
          "internalType": "uint256",
          "name": "amountBDesired",
          "type": "uint256"
        },
        {
          "internalType": "uint256",
          "name": "amountAMin",
          "type": "uint256"
        },
        {
          "internalType": "uint256",
          "name": "amountBMin",
          "type": "uint256"
        },
        {
          "internalType": "address",
          "name": "to",
          "type": "address"
        },
        {
          "internalType": "uint256",
          "name": "deadline",
          "type": "uint256"
        }
      ],
      "name": "addLiquidity",
      "outputs": [
        {
          "internalType": "uint256",
          "name": "amountA",
          "type": "uint256"
        },
        {
          "internalType": "uint256",
          "name": "amountB",
          "type": "uint256"
        },
        {
          "internalType": "uint256",
          "name": "liquidity",
          "type": "uint256"
        }
      ],
      "stateMutability": "nonpayable",
      "type": "function"
    },
    {
      "inputs": [
        {
          "internalType": "address",
          "name": "token",
          "type": "address"
        },
        {
          "internalType": "uint256",
          "name": "amountTokenDesired",
          "type": "uint256"
        },
        {
          "internalType": "uint256",
          "name": "amountTokenMin",
          "type": "uint256"
        },
        {
          "internalType": "uint256",
          "name": "amountETHMin",
          "type": "uint256"
        },
        {
          "internalType": "address",
          "name": "to",
          "type": "address"
        },
        {
          "internalType": "uint256",
          "name": "deadline",
          "type": "uint256"
        }
      ],
      "name": "addLiquidityETH",
      "outputs": [
        {
          "internalType": "uint256",
          "name": "amountToken",
          "type": "uint256"
        },
        {
          "internalType": "uint256",
          "name": "amountETH",
          "type": "uint256"
        },
        {
          "internalType": "uint256",
          "name": "liquidity",
          "type": "uint256"
        }
      ],
      "stateMutability": "payable",
      "type": "function"
    },
    {
      "inputs": [
        {
          "internalType": "uint256",
          "name": "_id",
          "type": "uint256"
        }
      ],
      "name": "delFactoryAndFee",
      "outputs": [],
      "stateMutability": "nonpayable",
      "type": "function"
    },
    {
      "inputs": [
        {
          "internalType": "uint256",
          "name": "",
          "type": "uint256"
        }
      ],
      "name": "factories",
      "outputs": [
        {
          "internalType": "address",
          "name": "",
          "type": "address"
        }
      ],
      "stateMutability": "view",
      "type": "function"
    },
    {
      "inputs": [],
      "name": "factory",
      "outputs": [
        {
          "internalType": "address",
          "name": "",
          "type": "address"
        }
      ],
      "stateMutability": "view",
      "type": "function"
    },
    {
      "inputs": [
        {
          "internalType": "uint256",
          "name": "",
          "type": "uint256"
        }
      ],
      "name": "fees",
      "outputs": [
        {
          "internalType": "uint256",
          "name": "",
          "type": "uint256"
        }
      ],
      "stateMutability": "view",
      "type": "function"
    },
    {
      "inputs": [
        {
          "internalType": "uint256",
          "name": "amountOut",
          "type": "uint256"
        },
        {
          "internalType": "uint256",
          "name": "reserveIn",
          "type": "uint256"
        },
        {
          "internalType": "uint256",
          "name": "reserveOut",
          "type": "uint256"
        }
      ],
      "name": "getAmountIn",
      "outputs": [
        {
          "internalType": "uint256",
          "name": "amountIn",
          "type": "uint256"
        }
      ],
      "stateMutability": "pure",
      "type": "function"
    },
    {
      "inputs": [
        {
          "internalType": "uint256",
          "name": "amountIn",
          "type": "uint256"
        },
        {
          "internalType": "uint256",
          "name": "reserveIn",
          "type": "uint256"
        },
        {
          "internalType": "uint256",
          "name": "reserveOut",
          "type": "uint256"
        }
      ],
      "name": "getAmountOut",
      "outputs": [
        {
          "internalType": "uint256",
          "name": "amountOut",
          "type": "uint256"
        }
      ],
      "stateMutability": "pure",
      "type": "function"
    },
    {
      "inputs": [
        {
          "internalType": "uint256",
          "name": "amountOut",
          "type": "uint256"
        },
        {
          "internalType": "address[]",
          "name": "path",
          "type": "address[]"
        }
      ],
      "name": "getAmountsIn",
      "outputs": [
        {
          "internalType": "uint256[]",
          "name": "amounts",
          "type": "uint256[]"
        }
      ],
      "stateMutability": "view",
      "type": "function"
    },
    {
      "inputs": [
        {
          "internalType": "uint256",
          "name": "amountIn",
          "type": "uint256"
        },
        {
          "internalType": "address[]",
          "name": "path",
          "type": "address[]"
        }
      ],
      "name": "getAmountsOut",
      "outputs": [
        {
          "internalType": "uint256[]",
          "name": "amounts",
          "type": "uint256[]"
        }
      ],
      "stateMutability": "view",
      "type": "function"
    },
    {
      "inputs": [],
      "name": "owner",
      "outputs": [
        {
          "internalType": "address",
          "name": "",
          "type": "address"
        }
      ],
      "stateMutability": "view",
      "type": "function"
    },
    {
      "inputs": [
        {
          "internalType": "uint256",
          "name": "amountA",
          "type": "uint256"
        },
        {
          "internalType": "uint256",
          "name": "reserveA",
          "type": "uint256"
        },
        {
          "internalType": "uint256",
          "name": "reserveB",
          "type": "uint256"
        }
      ],
      "name": "quote",
      "outputs": [
        {
          "internalType": "uint256",
          "name": "amountB",
          "type": "uint256"
        }
      ],
      "stateMutability": "pure",
      "type": "function"
    },
    {
      "inputs": [
        {
          "internalType": "address",
          "name": "tokenA",
          "type": "address"
        },
        {
          "internalType": "address",
          "name": "tokenB",
          "type": "address"
        },
        {
          "internalType": "uint256",
          "name": "liquidity",
          "type": "uint256"
        },
        {
          "internalType": "uint256",
          "name": "amountAMin",
          "type": "uint256"
        },
        {
          "internalType": "uint256",
          "name": "amountBMin",
          "type": "uint256"
        },
        {
          "internalType": "address",
          "name": "to",
          "type": "address"
        },
        {
          "internalType": "uint256",
          "name": "deadline",
          "type": "uint256"
        }
      ],
      "name": "removeLiquidity",
      "outputs": [
        {
          "internalType": "uint256",
          "name": "amountA",
          "type": "uint256"
        },
        {
          "internalType": "uint256",
          "name": "amountB",
          "type": "uint256"
        }
      ],
      "stateMutability": "nonpayable",
      "type": "function"
    },
    {
      "inputs": [
        {
          "internalType": "address",
          "name": "token",
          "type": "address"
        },
        {
          "internalType": "uint256",
          "name": "liquidity",
          "type": "uint256"
        },
        {
          "internalType": "uint256",
          "name": "amountTokenMin",
          "type": "uint256"
        },
        {
          "internalType": "uint256",
          "name": "amountETHMin",
          "type": "uint256"
        },
        {
          "internalType": "address",
          "name": "to",
          "type": "address"
        },
        {
          "internalType": "uint256",
          "name": "deadline",
          "type": "uint256"
        }
      ],
      "name": "removeLiquidityETH",
      "outputs": [
        {
          "internalType": "uint256",
          "name": "amountToken",
          "type": "uint256"
        },
        {
          "internalType": "uint256",
          "name": "amountETH",
          "type": "uint256"
        }
      ],
      "stateMutability": "nonpayable",
      "type": "function"
    },
    {
      "inputs": [
        {
          "internalType": "address",
          "name": "token",
          "type": "address"
        },
        {
          "internalType": "uint256",
          "name": "liquidity",
          "type": "uint256"
        },
        {
          "internalType": "uint256",
          "name": "amountTokenMin",
          "type": "uint256"
        },
        {
          "internalType": "uint256",
          "name": "amountETHMin",
          "type": "uint256"
        },
        {
          "internalType": "address",
          "name": "to",
          "type": "address"
        },
        {
          "internalType": "uint256",
          "name": "deadline",
          "type": "uint256"
        }
      ],
      "name": "removeLiquidityETHSupportingFeeOnTransferTokens",
      "outputs": [
        {
          "internalType": "uint256",
          "name": "amountETH",
          "type": "uint256"
        }
      ],
      "stateMutability": "nonpayable",
      "type": "function"
    },
    {
      "inputs": [
        {
          "internalType": "address",
          "name": "token",
          "type": "address"
        },
        {
          "internalType": "uint256",
          "name": "liquidity",
          "type": "uint256"
        },
        {
          "internalType": "uint256",
          "name": "amountTokenMin",
          "type": "uint256"
        },
        {
          "internalType": "uint256",
          "name": "amountETHMin",
          "type": "uint256"
        },
        {
          "internalType": "address",
          "name": "to",
          "type": "address"
        },
        {
          "internalType": "uint256",
          "name": "deadline",
          "type": "uint256"
        },
        {
          "internalType": "bool",
          "name": "approveMax",
          "type": "bool"
        },
        {
          "internalType": "uint8",
          "name": "v",
          "type": "uint8"
        },
        {
          "internalType": "bytes32",
          "name": "r",
          "type": "bytes32"
        },
        {
          "internalType": "bytes32",
          "name": "s",
          "type": "bytes32"
        }
      ],
      "name": "removeLiquidityETHWithPermit",
      "outputs": [
        {
          "internalType": "uint256",
          "name": "amountToken",
          "type": "uint256"
        },
        {
          "internalType": "uint256",
          "name": "amountETH",
          "type": "uint256"
        }
      ],
      "stateMutability": "nonpayable",
      "type": "function"
    },
    {
      "inputs": [
        {
          "internalType": "address",
          "name": "token",
          "type": "address"
        },
        {
          "internalType": "uint256",
          "name": "liquidity",
          "type": "uint256"
        },
        {
          "internalType": "uint256",
          "name": "amountTokenMin",
          "type": "uint256"
        },
        {
          "internalType": "uint256",
          "name": "amountETHMin",
          "type": "uint256"
        },
        {
          "internalType": "address",
          "name": "to",
          "type": "address"
        },
        {
          "internalType": "uint256",
          "name": "deadline",
          "type": "uint256"
        },
        {
          "internalType": "bool",
          "name": "approveMax",
          "type": "bool"
        },
        {
          "internalType": "uint8",
          "name": "v",
          "type": "uint8"
        },
        {
          "internalType": "bytes32",
          "name": "r",
          "type": "bytes32"
        },
        {
          "internalType": "bytes32",
          "name": "s",
          "type": "bytes32"
        }
      ],
      "name": "removeLiquidityETHWithPermitSupportingFeeOnTransferTokens",
      "outputs": [
        {
          "internalType": "uint256",
          "name": "amountETH",
          "type": "uint256"
        }
      ],
      "stateMutability": "nonpayable",
      "type": "function"
    },
    {
      "inputs": [
        {
          "internalType": "address",
          "name": "tokenA",
          "type": "address"
        },
        {
          "internalType": "address",
          "name": "tokenB",
          "type": "address"
        },
        {
          "internalType": "uint256",
          "name": "liquidity",
          "type": "uint256"
        },
        {
          "internalType": "uint256",
          "name": "amountAMin",
          "type": "uint256"
        },
        {
          "internalType": "uint256",
          "name": "amountBMin",
          "type": "uint256"
        },
        {
          "internalType": "address",
          "name": "to",
          "type": "address"
        },
        {
          "internalType": "uint256",
          "name": "deadline",
          "type": "uint256"
        },
        {
          "internalType": "bool",
          "name": "approveMax",
          "type": "bool"
        },
        {
          "internalType": "uint8",
          "name": "v",
          "type": "uint8"
        },
        {
          "internalType": "bytes32",
          "name": "r",
          "type": "bytes32"
        },
        {
          "internalType": "bytes32",
          "name": "s",
          "type": "bytes32"
        }
      ],
      "name": "removeLiquidityWithPermit",
      "outputs": [
        {
          "internalType": "uint256",
          "name": "amountA",
          "type": "uint256"
        },
        {
          "internalType": "uint256",
          "name": "amountB",
          "type": "uint256"
        }
      ],
      "stateMutability": "nonpayable",
      "type": "function"
    },
    {
      "inputs": [],
      "name": "renounceOwnership",
      "outputs": [],
      "stateMutability": "nonpayable",
      "type": "function"
    },
    {
      "inputs": [
        {
          "internalType": "uint256",
          "name": "_id",
          "type": "uint256"
        },
        {
          "internalType": "address",
          "name": "_factory",
          "type": "address"
        },
        {
          "internalType": "uint256",
          "name": "_fee",
          "type": "uint256"
        }
      ],
      "name": "setFactoryAndFee",
      "outputs": [],
      "stateMutability": "nonpayable",
      "type": "function"
    },
    {
      "inputs": [
        {
          "internalType": "address",
          "name": "_swapMininng",
          "type": "address"
        }
      ],
      "name": "setSwapMining",
      "outputs": [],
      "stateMutability": "nonpayable",
      "type": "function"
    },
    {
      "inputs": [
        {
          "internalType": "address",
          "name": "_token",
          "type": "address"
        },
        {
          "internalType": "uint256",
          "name": "_amount",
          "type": "uint256"
        }
      ],
      "name": "setTokenMinAmount",
      "outputs": [],
      "stateMutability": "nonpayable",
      "type": "function"
    },
    {
      "inputs": [
        {
          "internalType": "uint256",
          "name": "amountOut",
          "type": "uint256"
        },
        {
          "internalType": "address[]",
          "name": "path",
          "type": "address[]"
        },
        {
          "internalType": "address",
          "name": "to",
          "type": "address"
        },
        {
          "internalType": "uint256",
          "name": "deadline",
          "type": "uint256"
        }
      ],
      "name": "swapETHForExactTokens",
      "outputs": [
        {
          "internalType": "uint256[]",
          "name": "amounts",
          "type": "uint256[]"
        }
      ],
      "stateMutability": "payable",
      "type": "function"
    },
    {
      "inputs": [
        {
          "internalType": "uint256",
          "name": "amountOutMin",
          "type": "uint256"
        },
        {
          "internalType": "address[]",
          "name": "path",
          "type": "address[]"
        },
        {
          "internalType": "address",
          "name": "to",
          "type": "address"
        },
        {
          "internalType": "uint256",
          "name": "deadline",
          "type": "uint256"
        }
      ],
      "name": "swapExactETHForTokens",
      "outputs": [
        {
          "internalType": "uint256[]",
          "name": "amounts",
          "type": "uint256[]"
        }
      ],
      "stateMutability": "payable",
      "type": "function"
    },
    {
      "inputs": [
        {
          "internalType": "uint256",
          "name": "amountOutMin",
          "type": "uint256"
        },
        {
          "internalType": "address[]",
          "name": "path",
          "type": "address[]"
        },
        {
          "internalType": "address",
          "name": "to",
          "type": "address"
        },
        {
          "internalType": "uint256",
          "name": "deadline",
          "type": "uint256"
        }
      ],
      "name": "swapExactETHForTokensSupportingFeeOnTransferTokens",
      "outputs": [],
      "stateMutability": "payable",
      "type": "function"
    },
    {
      "inputs": [
        {
          "internalType": "uint256",
          "name": "amountIn",
          "type": "uint256"
        },
        {
          "internalType": "uint256",
          "name": "amountOutMin",
          "type": "uint256"
        },
        {
          "internalType": "address[]",
          "name": "path",
          "type": "address[]"
        },
        {
          "internalType": "address",
          "name": "to",
          "type": "address"
        },
        {
          "internalType": "uint256",
          "name": "deadline",
          "type": "uint256"
        }
      ],
      "name": "swapExactTokensForETH",
      "outputs": [
        {
          "internalType": "uint256[]",
          "name": "amounts",
          "type": "uint256[]"
        }
      ],
      "stateMutability": "nonpayable",
      "type": "function"
    },
    {
      "inputs": [
        {
          "internalType": "uint256",
          "name": "amountIn",
          "type": "uint256"
        },
        {
          "internalType": "uint256",
          "name": "amountOutMin",
          "type": "uint256"
        },
        {
          "internalType": "address[]",
          "name": "path",
          "type": "address[]"
        },
        {
          "internalType": "address",
          "name": "to",
          "type": "address"
        },
        {
          "internalType": "uint256",
          "name": "deadline",
          "type": "uint256"
        }
      ],
      "name": "swapExactTokensForETHSupportingFeeOnTransferTokens",
      "outputs": [],
      "stateMutability": "nonpayable",
      "type": "function"
    },
    {
      "inputs": [
        {
          "internalType": "uint256",
          "name": "amountIn",
          "type": "uint256"
        },
        {
          "internalType": "uint256",
          "name": "amountOutMin",
          "type": "uint256"
        },
        {
          "internalType": "address[]",
          "name": "path",
          "type": "address[]"
        },
        {
          "internalType": "address",
          "name": "to",
          "type": "address"
        },
        {
          "internalType": "uint256",
          "name": "deadline",
          "type": "uint256"
        }
      ],
      "name": "swapExactTokensForTokens",
      "outputs": [
        {
          "internalType": "uint256[]",
          "name": "amounts",
          "type": "uint256[]"
        }
      ],
      "stateMutability": "nonpayable",
      "type": "function"
    },
    {
      "inputs": [
        {
          "internalType": "uint256",
          "name": "amountIn",
          "type": "uint256"
        },
        {
          "internalType": "uint256",
          "name": "amountOutMin",
          "type": "uint256"
        },
        {
          "internalType": "address[]",
          "name": "path",
          "type": "address[]"
        },
        {
          "internalType": "address",
          "name": "to",
          "type": "address"
        },
        {
          "internalType": "uint256",
          "name": "deadline",
          "type": "uint256"
        }
      ],
      "name": "swapExactTokensForTokensSupportingFeeOnTransferTokens",
      "outputs": [],
      "stateMutability": "nonpayable",
      "type": "function"
    },
    {
      "inputs": [],
      "name": "swapMining",
      "outputs": [
        {
          "internalType": "address",
          "name": "",
          "type": "address"
        }
      ],
      "stateMutability": "view",
      "type": "function"
    },
    {
      "inputs": [
        {
          "internalType": "uint256",
          "name": "amountOut",
          "type": "uint256"
        },
        {
          "internalType": "uint256",
          "name": "amountInMax",
          "type": "uint256"
        },
        {
          "internalType": "address[]",
          "name": "path",
          "type": "address[]"
        },
        {
          "internalType": "address",
          "name": "to",
          "type": "address"
        },
        {
          "internalType": "uint256",
          "name": "deadline",
          "type": "uint256"
        }
      ],
      "name": "swapTokensForExactETH",
      "outputs": [
        {
          "internalType": "uint256[]",
          "name": "amounts",
          "type": "uint256[]"
        }
      ],
      "stateMutability": "nonpayable",
      "type": "function"
    },
    {
      "inputs": [
        {
          "internalType": "uint256",
          "name": "amountOut",
          "type": "uint256"
        },
        {
          "internalType": "uint256",
          "name": "amountInMax",
          "type": "uint256"
        },
        {
          "internalType": "address[]",
          "name": "path",
          "type": "address[]"
        },
        {
          "internalType": "address",
          "name": "to",
          "type": "address"
        },
        {
          "internalType": "uint256",
          "name": "deadline",
          "type": "uint256"
        }
      ],
      "name": "swapTokensForExactTokens",
      "outputs": [
        {
          "internalType": "uint256[]",
          "name": "amounts",
          "type": "uint256[]"
        }
      ],
      "stateMutability": "nonpayable",
      "type": "function"
    },
    {
      "inputs": [
        {
          "internalType": "address",
          "name": "",
          "type": "address"
        }
      ],
      "name": "tokenMinAmount",
      "outputs": [
        {
          "internalType": "uint256",
          "name": "",
          "type": "uint256"
        }
      ],
      "stateMutability": "view",
      "type": "function"
    },
    {
      "inputs": [
        {
          "internalType": "address",
          "name": "newOwner",
          "type": "address"
        }
      ],
      "name": "transferOwnership",
      "outputs": [],
      "stateMutability": "nonpayable",
      "type": "function"
    },
    {
      "stateMutability": "payable",
      "type": "receive"
    }
  ],
  "bytecode": "0x60e06040523480156200001157600080fd5b506040516200667438038062006674833981016040819052620000349162000134565b600080546001600160a01b031916339081178255604051909182917f8be0079c531659141344cd1fd0a4f28419497f9722a3daafe3b4186f6b6457e0908290a3506001600160601b0319606094851b811660a05283851b8116608052931b90921660c0526001805480820182557fb10e2d527612073b26eecdfd717e6a320cf44b4afac2b0732d9fcbe2b7fa0cf60180546001600160a01b0319166001600160a01b0393909316929092179091556002805491820181556000527f405787fa12a823e0f2b7631cc41b3ba8828b3321ca811111fa75cd3aa3bb5ace015562000187565b80516001600160a01b03811681146200012f57600080fd5b919050565b600080600080608085870312156200014a578384fd5b620001558562000117565b9350620001656020860162000117565b9250604085015191506200017c6060860162000117565b905092959194509250565b60805160601c60a05160601c60c05160601c6164056200026f600039600081816102180152818161058c0152818161091a01528181610c2b0152818161156001528181611c8701528181611e3e01528181611ef8015281816120840152818161224f015281816122eb0152818161297f01528181612a0a01528181612b3a01528181613439015281816135f9015261369501526000818161074701528181610f23015281816117f6015281816128c501528181612dc90152818161300e015281816130d301526132820152600081816106330152818161413601526150a301526164056000f3fe6080604052600436106102085760003560e01c8063791ac94711610118578063b6f9de95116100a0578063ded9382a1161006f578063ded9382a14610675578063e8e3370014610695578063f2fde38b146106d0578063f305d719146106f0578063fb3bdb411461070357600080fd5b8063b6f9de95146105ee578063baa2abde14610601578063c45a015514610621578063d06ca61f1461065557600080fd5b80638da5cb5b116100e75780638da5cb5b1461053c578063abaa93a01461055a578063ad5c46481461057a578063ad615dec146105ae578063af2979eb146105ce57600080fd5b8063791ac947146104c95780637ff36ab5146104e957806385f8c259146104fc5780638803dbee1461051c57600080fd5b80634a25d94a1161019b5780634f8871831161016a5780634f887183146104345780635b0d5984146104545780635c11d79514610474578063672383c414610494578063715018a6146104b457600080fd5b80634a25d94a1461038f5780634acc79ed146103af5780634dae755c146103cf5780634e5eda11146103fc57600080fd5b80631f00ca74116101d75780631f00ca741461030f5780632195995c1461032f57806323a5199c1461034f57806338ed17391461036f57600080fd5b806302751cec1461025a578063054d50d41461029457806318cbafe5146102c25780631a65bf7b146102ef57600080fd5b3661025557336001600160a01b037f0000000000000000000000000000000000000000000000000000000000000000161461025357634e487b7160e01b600052600160045260246000fd5b005b600080fd5b34801561026657600080fd5b5061027a610275366004615c52565b610716565b604080519283526020830191909152015b60405180910390f35b3480156102a057600080fd5b506102b46102af366004615fbb565b6107df565b60405190815260200161028b565b3480156102ce57600080fd5b506102e26102dd366004615f4b565b6107f4565b60405161028b919061603e565b3480156102fb57600080fd5b5061025361030a366004615c27565b610d28565b34801561031b57600080fd5b506102e261032a366004615e79565b610d6e565b34801561033b57600080fd5b5061027a61034a366004615b03565b610f1c565b34801561035b57600080fd5b5061025361036a366004615dde565b610fbf565b34801561037b57600080fd5b506102e261038a366004615f4b565b611178565b34801561039b57600080fd5b506102e26103aa366004615f4b565b61143a565b3480156103bb57600080fd5b506102b46103ca366004615dae565b611784565b3480156103db57600080fd5b506102b46103ea366004615a5a565b60036020526000908152604090205481565b34801561040857600080fd5b5060045461041c906001600160a01b031681565b6040516001600160a01b03909116815260200161028b565b34801561044057600080fd5b5061025361044f366004615a5a565b6117a5565b34801561046057600080fd5b506102b461046f366004615caf565b6117f1565b34801561048057600080fd5b5061025361048f366004615f4b565b611890565b3480156104a057600080fd5b5061041c6104af366004615dae565b611bbe565b3480156104c057600080fd5b50610253611be8565b3480156104d557600080fd5b506102536104e4366004615f4b565b611c5c565b6102e26104f7366004615e15565b611f66565b34801561050857600080fd5b506102b4610517366004615fbb565b6124ae565b34801561052857600080fd5b506102e2610537366004615f4b565b6124bb565b34801561054857600080fd5b506000546001600160a01b031661041c565b34801561056657600080fd5b50610253610575366004615dae565b61270d565b34801561058657600080fd5b5061041c7f000000000000000000000000000000000000000000000000000000000000000081565b3480156105ba57600080fd5b506102b46105c9366004615fbb565b612891565b3480156105da57600080fd5b506102b46105e9366004615c52565b61289e565b6102536105fc366004615e15565b61295c565b34801561060d57600080fd5b5061027a61061c366004615a92565b612da1565b34801561062d57600080fd5b5061041c7f000000000000000000000000000000000000000000000000000000000000000081565b34801561066157600080fd5b506102e2610670366004615e79565b612e62565b34801561068157600080fd5b5061027a610690366004615caf565b613007565b3480156106a157600080fd5b506106b56106b0366004615bac565b6130a9565b6040805193845260208401929092529082015260600161028b565b3480156106dc57600080fd5b506102536106eb366004615a5a565b61316e565b6106b56106fe366004615c52565b613258565b6102e2610711366004615e15565b61331b565b60008082428110156107435760405162461bcd60e51b815260040161073a90616095565b60405180910390fd5b60007f00000000000000000000000000000000000000000000000000000000000000006001600160a01b0316600036604051610780929190616012565b600060405180830381855af49150503d80600081146107bb576040519150601f19603f3d011682016040523d82523d6000602084013e6107c0565b606091505b5050905060008114156107d257600080fd5b5050965096945050505050565b60006107ec848484613859565b949350505050565b606081428110156108175760405162461bcd60e51b815260040161073a90616095565b6000856001600160401b0381111561083f57634e487b7160e01b600052604160045260246000fd5b604051908082528060200260200182016040528015610868578160200160208202803683370190505b50905060005b8681101561090d576003600089898481811061089a57634e487b7160e01b600052603260045260246000fd5b90506020020160208101906108af9190615a5a565b6001600160a01b03166001600160a01b03168152602001908152602001600020548282815181106108f057634e487b7160e01b600052603260045260246000fd5b60209081029190910101528061090581616365565b91505061086e565b5060606001600160a01b037f0000000000000000000000000000000000000000000000000000000000000000168888610947600182616307565b81811061096457634e487b7160e01b600052603260045260246000fd5b90506020020160208101906109799190615a5a565b6001600160a01b03161461099f5760405162461bcd60e51b815260040161073a9061624c565b610a8960018054806020026020016040519081016040528092919081815260200182805480156109f857602002820191906000526020600020905b81546001600160a01b031681526001909101906020018083116109da575b50505050506002805480602002602001604051908101604052809291908181526020018280548015610a4957602002820191906000526020600020905b815481526020019060010190808311610a35575b5050505050848d8c8c808060200260200160405190810160405280939291908181526020018383602002808284376000920191909152506138f392505050565b8151919550915089908590610aa090600190616307565b81518110610abe57634e487b7160e01b600052603260045260246000fd5b60200260200101511015610ae45760405162461bcd60e51b815260040161073a90616189565b610be988886000818110610b0857634e487b7160e01b600052603260045260246000fd5b9050602002016020810190610b1d9190615a5a565b33610bbb84600081518110610b4257634e487b7160e01b600052603260045260246000fd5b60200260200101518c8c6000818110610b6b57634e487b7160e01b600052603260045260246000fd5b9050602002016020810190610b809190615a5a565b8d8d6001818110610ba157634e487b7160e01b600052603260045260246000fd5b9050602002016020810190610bb69190615a5a565b613ea6565b87600081518110610bdc57634e487b7160e01b600052603260045260246000fd5b6020026020010151613f2b565b610c2984828a8a8080602002602001604051908101604052809392919081815260200183836020028082843760009201919091525030925061405b915050565b7f00000000000000000000000000000000000000000000000000000000000000006001600160a01b0316632e1a7d4d8560018751610c679190616307565b81518110610c8557634e487b7160e01b600052603260045260246000fd5b60200260200101516040518263ffffffff1660e01b8152600401610cab91815260200190565b600060405180830381600087803b158015610cc557600080fd5b505af1158015610cd9573d6000803e3d6000fd5b50505050610d1b868560018751610cf09190616307565b81518110610d0e57634e487b7160e01b600052603260045260246000fd5b60200260200101516143d2565b5050509695505050505050565b6000546001600160a01b03163314610d525760405162461bcd60e51b815260040161073a906161d0565b6001600160a01b03909116600090815260036020526040902055565b6060600082516001600160401b03811115610d9957634e487b7160e01b600052604160045260246000fd5b604051908082528060200260200182016040528015610dc2578160200160208202803683370190505b50905060005b8351811015610e5b5760036000858381518110610df557634e487b7160e01b600052603260045260246000fd5b60200260200101516001600160a01b03166001600160a01b0316815260200190815260200160002054828281518110610e3e57634e487b7160e01b600052603260045260246000fd5b602090810291909101015280610e5381616365565b915050610dc8565b50610f136001805480602002602001604051908101604052809291908181526020018280548015610eb557602002820191906000526020600020905b81546001600160a01b03168152600190910190602001808311610e97575b50505050506002805480602002602001604051908101604052809291908181526020018280548015610f0657602002820191906000526020600020905b815481526020019060010190808311610ef2575b505050505083878761449b565b50949350505050565b60008060007f00000000000000000000000000000000000000000000000000000000000000006001600160a01b0316600036604051610f5c929190616012565b600060405180830381855af49150503d8060008114610f97576040519150601f19603f3d011682016040523d82523d6000602084013e610f9c565b606091505b505090506000811415610fae57600080fd5b509b509b9950505050505050505050565b6000546001600160a01b03163314610fe95760405162461bcd60e51b815260040161073a906161d0565b600083116110315760405162461bcd60e51b81526020600482015260156024820152741a5b99195e080c0818d85b9b9bdd081899481cd95d605a1b604482015260640161073a565b6001548310156110be57816001848154811061105d57634e487b7160e01b600052603260045260246000fd5b9060005260206000200160006101000a8154816001600160a01b0302191690836001600160a01b0316021790555080600284815481106110ad57634e487b7160e01b600052603260045260246000fd5b600091825260209091200155505050565b60015483146110fd5760405162461bcd60e51b815260206004820152600b60248201526a0d2d8d8cacec2d840d2c8f60ab1b604482015260640161073a565b6001805480820182557fb10e2d527612073b26eecdfd717e6a320cf44b4afac2b0732d9fcbe2b7fa0cf60180546001600160a01b0319166001600160a01b0385161790556002805491820181556000527f405787fa12a823e0f2b7631cc41b3ba8828b3321ca811111fa75cd3aa3bb5ace018190555b505050565b6060814281101561119b5760405162461bcd60e51b815260040161073a90616095565b6000856001600160401b038111156111c357634e487b7160e01b600052604160045260246000fd5b6040519080825280602002602001820160405280156111ec578160200160208202803683370190505b50905060005b86811015611291576003600089898481811061121e57634e487b7160e01b600052603260045260246000fd5b90506020020160208101906112339190615a5a565b6001600160a01b03166001600160a01b031681526020019081526020016000205482828151811061127457634e487b7160e01b600052603260045260246000fd5b60209081029190910101528061128981616365565b9150506111f2565b50606061137a60018054806020026020016040519081016040528092919081815260200182805480156109f8576020028201919060005260206000209081546001600160a01b031681526001909101906020018083116109da5750505050506002805480602002602001604051908101604052809291908181526020018280548015610a495760200282019190600052602060002090815481526020019060010190808311610a35575050505050848d8c8c808060200260200160405190810160405280939291908181526020018383602002808284376000920191909152506138f392505050565b815191955091508990859061139190600190616307565b815181106113af57634e487b7160e01b600052603260045260246000fd5b602002602001015110156113d55760405162461bcd60e51b815260040161073a90616189565b6113f988886000818110610b0857634e487b7160e01b600052603260045260246000fd5b610d1b848989808060200260200160405190810160405280939291908181526020018383602002808284376000920191909152508692508b915061405b9050565b6060814281101561145d5760405162461bcd60e51b815260040161073a90616095565b6000856001600160401b0381111561148557634e487b7160e01b600052604160045260246000fd5b6040519080825280602002602001820160405280156114ae578160200160208202803683370190505b50905060005b8681101561155357600360008989848181106114e057634e487b7160e01b600052603260045260246000fd5b90506020020160208101906114f59190615a5a565b6001600160a01b03166001600160a01b031681526020019081526020016000205482828151811061153657634e487b7160e01b600052603260045260246000fd5b60209081029190910101528061154b81616365565b9150506114b4565b5060606001600160a01b037f000000000000000000000000000000000000000000000000000000000000000016888861158d600182616307565b8181106115aa57634e487b7160e01b600052603260045260246000fd5b90506020020160208101906115bf9190615a5a565b6001600160a01b0316146115e55760405162461bcd60e51b815260040161073a9061624c565b6116cf600180548060200260200160405190810160405280929190818152602001828054801561163e57602002820191906000526020600020905b81546001600160a01b03168152600190910190602001808311611620575b5050505050600280548060200260200160405190810160405280929190818152602001828054801561168f57602002820191906000526020600020905b81548152602001906001019080831161167b575b5050505050848d8c8c8080602002602001604051908101604052809392919081815260200183836020028082843760009201919091525061449b92505050565b809250819550505088846000815181106116f957634e487b7160e01b600052603260045260246000fd5b6020026020010151111561171f5760405162461bcd60e51b815260040161073a906160fe565b61174388886000818110610b0857634e487b7160e01b600052603260045260246000fd5b610c298489898080602002602001604051908101604052809392919081815260200183836020028082843760009201919091525086925030915061405b9050565b6002818154811061179457600080fd5b600091825260209091200154905081565b6000546001600160a01b031633146117cf5760405162461bcd60e51b815260040161073a906161d0565b600480546001600160a01b0319166001600160a01b0392909216919091179055565b6000807f00000000000000000000000000000000000000000000000000000000000000006001600160a01b031660003660405161182f929190616012565b600060405180830381855af49150503d806000811461186a576040519150601f19603f3d011682016040523d82523d6000602084013e61186f565b606091505b50509050600081141561188157600080fd5b509a9950505050505050505050565b80428110156118b15760405162461bcd60e51b815260040161073a90616095565b6000846001600160401b038111156118d957634e487b7160e01b600052604160045260246000fd5b604051908082528060200260200182016040528015611902578160200160208202803683370190505b5090506000856001600160401b0381111561192d57634e487b7160e01b600052604160045260246000fd5b604051908082528060200260200182016040528015611956578160200160208202803683370190505b509050611963878761498c565b90925090506119cf878760008161198a57634e487b7160e01b600052603260045260246000fd5b905060200201602081019061199f9190615a5a565b33846001815181106119c157634e487b7160e01b600052603260045260246000fd5b60200260200101518c613f2b565b600087876119de600182616307565b8181106119fb57634e487b7160e01b600052603260045260246000fd5b9050602002016020810190611a109190615a5a565b6040516370a0823160e01b81526001600160a01b03888116600483015291909116906370a082319060240160206040518083038186803b158015611a5357600080fd5b505afa158015611a67573d6000803e3d6000fd5b505050506040513d601f19601f82011682018060405250810190611a8b9190615dc6565b9050611ace8888808060200260200160405190810160405280939291908181526020018383602002808284376000920191909152508792508691508a9050614f17565b88611b94828a8a611ae0600182616307565b818110611afd57634e487b7160e01b600052603260045260246000fd5b9050602002016020810190611b129190615a5a565b6040516370a0823160e01b81526001600160a01b038b8116600483015291909116906370a08231906024015b60206040518083038186803b158015611b5657600080fd5b505afa158015611b6a573d6000803e3d6000fd5b505050506040513d601f19601f82011682018060405250810190611b8e9190615dc6565b9061538c565b1015611bb25760405162461bcd60e51b815260040161073a90616095565b50505050505050505050565b60018181548110611bce57600080fd5b6000918252602090912001546001600160a01b0316905081565b6000546001600160a01b03163314611c125760405162461bcd60e51b815260040161073a906161d0565b600080546040516001600160a01b03909116907f8be0079c531659141344cd1fd0a4f28419497f9722a3daafe3b4186f6b6457e0908390a3600080546001600160a01b0319169055565b8042811015611c7d5760405162461bcd60e51b815260040161073a90616095565b6001600160a01b037f0000000000000000000000000000000000000000000000000000000000000000168585611cb4600182616307565b818110611cd157634e487b7160e01b600052603260045260246000fd5b9050602002016020810190611ce69190615a5a565b6001600160a01b031614611d0c5760405162461bcd60e51b815260040161073a9061624c565b6000846001600160401b03811115611d3457634e487b7160e01b600052604160045260246000fd5b604051908082528060200260200182016040528015611d5d578160200160208202803683370190505b5090506000856001600160401b03811115611d8857634e487b7160e01b600052604160045260246000fd5b604051908082528060200260200182016040528015611db1578160200160208202803683370190505b509050611dbe878761498c565b9092509050611de5878760008161198a57634e487b7160e01b600052603260045260246000fd5b611e26878780806020026020016040519081016040528093929190818152602001838360200280828437600092019190915250869250859150309050614f17565b6040516370a0823160e01b81523060048201526000907f00000000000000000000000000000000000000000000000000000000000000006001600160a01b0316906370a082319060240160206040518083038186803b158015611e8857600080fd5b505afa158015611e9c573d6000803e3d6000fd5b505050506040513d601f19601f82011682018060405250810190611ec09190615dc6565b905088811015611ee25760405162461bcd60e51b815260040161073a90616189565b604051632e1a7d4d60e01b8152600481018290527f00000000000000000000000000000000000000000000000000000000000000006001600160a01b031690632e1a7d4d90602401600060405180830381600087803b158015611f4457600080fd5b505af1158015611f58573d6000803e3d6000fd5b50505050611bb286826143d2565b60608142811015611f895760405162461bcd60e51b815260040161073a90616095565b6000856001600160401b03811115611fb157634e487b7160e01b600052604160045260246000fd5b604051908082528060200260200182016040528015611fda578160200160208202803683370190505b50905060005b8681101561207f576003600089898481811061200c57634e487b7160e01b600052603260045260246000fd5b90506020020160208101906120219190615a5a565b6001600160a01b03166001600160a01b031681526020019081526020016000205482828151811061206257634e487b7160e01b600052603260045260246000fd5b60209081029190910101528061207781616365565b915050611fe0565b5060607f00000000000000000000000000000000000000000000000000000000000000006001600160a01b0316888860008181106120cd57634e487b7160e01b600052603260045260246000fd5b90506020020160208101906120e29190615a5a565b6001600160a01b0316146121085760405162461bcd60e51b815260040161073a9061624c565b6121f2600180548060200260200160405190810160405280929190818152602001828054801561216157602002820191906000526020600020905b81546001600160a01b03168152600190910190602001808311612143575b505050505060028054806020026020016040519081016040528092919081815260200182805480156121b257602002820191906000526020600020905b81548152602001906001019080831161219e575b505050505084348c8c808060200260200160405190810160405280939291908181526020018383602002808284376000920191909152506138f392505050565b815191955091508990859061220990600190616307565b8151811061222757634e487b7160e01b600052603260045260246000fd5b6020026020010151101561224d5760405162461bcd60e51b815260040161073a90616189565b7f00000000000000000000000000000000000000000000000000000000000000006001600160a01b031663d0e30db08560008151811061229d57634e487b7160e01b600052603260045260246000fd5b60200260200101516040518263ffffffff1660e01b81526004016000604051808303818588803b1580156122d057600080fd5b505af11580156122e4573d6000803e3d6000fd5b50505050507f00000000000000000000000000000000000000000000000000000000000000006001600160a01b031663a9059cbb61239b8360008151811061233c57634e487b7160e01b600052603260045260246000fd5b60200260200101518b8b600081811061236557634e487b7160e01b600052603260045260246000fd5b905060200201602081019061237a9190615a5a565b8c8c6001818110610ba157634e487b7160e01b600052603260045260246000fd5b866000815181106123bc57634e487b7160e01b600052603260045260246000fd5b60200260200101516040518363ffffffff1660e01b81526004016123f59291906001600160a01b03929092168252602082015260400190565b602060405180830381600087803b15801561240f57600080fd5b505af1158015612423573d6000803e3d6000fd5b505050506040513d601f19601f820116820180604052508101906124479190615d44565b61246157634e487b7160e01b600052600160045260246000fd5b6124a2848989808060200260200160405190810160405280939291908181526020018383602002808284376000920191909152508692508b915061405b9050565b50505095945050505050565b60006107ec8484846153d7565b606081428110156124de5760405162461bcd60e51b815260040161073a90616095565b6000856001600160401b0381111561250657634e487b7160e01b600052604160045260246000fd5b60405190808252806020026020018201604052801561252f578160200160208202803683370190505b50905060005b868110156125d4576003600089898481811061256157634e487b7160e01b600052603260045260246000fd5b90506020020160208101906125769190615a5a565b6001600160a01b03166001600160a01b03168152602001908152602001600020548282815181106125b757634e487b7160e01b600052603260045260246000fd5b6020908102919091010152806125cc81616365565b915050612535565b5060606126bd600180548060200260200160405190810160405280929190818152602001828054801561163e576020028201919060005260206000209081546001600160a01b03168152600190910190602001808311611620575050505050600280548060200260200160405190810160405280929190818152602001828054801561168f576020028201919060005260206000209081548152602001906001019080831161167b575050505050848d8c8c8080602002602001604051908101604052809392919081815260200183836020028082843760009201919091525061449b92505050565b809250819550505088846000815181106126e757634e487b7160e01b600052603260045260246000fd5b602002602001015111156113d55760405162461bcd60e51b815260040161073a906160fe565b6000546001600160a01b031633146127375760405162461bcd60e51b815260040161073a906161d0565b6000811161277f5760405162461bcd60e51b81526020600482015260156024820152741a5b99195e080c0818d85b9b9bdd081899481cd95d605a1b604482015260640161073a565b6001805461278d9190616307565b81141561280d5760018054806127b357634e487b7160e01b600052603160045260246000fd5b600082815260209020810160001990810180546001600160a01b031916905501905560028054806127f457634e487b7160e01b600052603160045260246000fd5b6001900381819060005260206000200160009055905550565b60006001828154811061283057634e487b7160e01b600052603260045260246000fd5b9060005260206000200160006101000a8154816001600160a01b0302191690836001600160a01b0316021790555060006002828154811061288157634e487b7160e01b600052603260045260246000fd5b6000918252602090912001555b50565b60006107ec84848461546b565b600081428110156128c15760405162461bcd60e51b815260040161073a90616095565b60007f00000000000000000000000000000000000000000000000000000000000000006001600160a01b03166000366040516128fe929190616012565b600060405180830381855af49150503d8060008114612939576040519150601f19603f3d011682016040523d82523d6000602084013e61293e565b606091505b50509050600081141561295057600080fd5b50509695505050505050565b804281101561297d5760405162461bcd60e51b815260040161073a90616095565b7f00000000000000000000000000000000000000000000000000000000000000006001600160a01b0316858560008181106129c857634e487b7160e01b600052603260045260246000fd5b90506020020160208101906129dd9190615a5a565b6001600160a01b031614612a035760405162461bcd60e51b815260040161073a90616095565b60003490507f00000000000000000000000000000000000000000000000000000000000000006001600160a01b031663d0e30db0826040518263ffffffff1660e01b81526004016000604051808303818588803b158015612a6357600080fd5b505af1158015612a77573d6000803e3d6000fd5b506000935088925050506001600160401b03811115612aa657634e487b7160e01b600052604160045260246000fd5b604051908082528060200260200182016040528015612acf578160200160208202803683370190505b5090506000866001600160401b03811115612afa57634e487b7160e01b600052604160045260246000fd5b604051908082528060200260200182016040528015612b23578160200160208202803683370190505b509050612b30888861498c565b80925081935050507f00000000000000000000000000000000000000000000000000000000000000006001600160a01b031663a9059cbb83600181518110612b8857634e487b7160e01b600052603260045260246000fd5b6020026020010151856040518363ffffffff1660e01b8152600401612bc29291906001600160a01b03929092168252602082015260400190565b602060405180830381600087803b158015612bdc57600080fd5b505af1158015612bf0573d6000803e3d6000fd5b505050506040513d601f19601f82011682018060405250810190612c149190615d44565b612c2e57634e487b7160e01b600052600160045260246000fd5b60008888612c3d600182616307565b818110612c5a57634e487b7160e01b600052603260045260246000fd5b9050602002016020810190612c6f9190615a5a565b6040516370a0823160e01b81526001600160a01b03898116600483015291909116906370a082319060240160206040518083038186803b158015612cb257600080fd5b505afa158015612cc6573d6000803e3d6000fd5b505050506040513d601f19601f82011682018060405250810190612cea9190615dc6565b9050612d2d8989808060200260200160405190810160405280939291908181526020018383602002808284376000920191909152508792508691508b9050614f17565b89611b94828b8b612d3f600182616307565b818110612d5c57634e487b7160e01b600052603260045260246000fd5b9050602002016020810190612d719190615a5a565b6040516370a0823160e01b81526001600160a01b038c8116600483015291909116906370a0823190602401611b3e565b6000808242811015612dc55760405162461bcd60e51b815260040161073a90616095565b60007f00000000000000000000000000000000000000000000000000000000000000006001600160a01b0316600036604051612e02929190616012565b600060405180830381855af49150503d8060008114612e3d576040519150601f19603f3d011682016040523d82523d6000602084013e612e42565b606091505b505090506000811415612e5457600080fd5b505097509795505050505050565b6060600082516001600160401b03811115612e8d57634e487b7160e01b600052604160045260246000fd5b604051908082528060200260200182016040528015612eb6578160200160208202803683370190505b50905060005b8351811015612f4f5760036000858381518110612ee957634e487b7160e01b600052603260045260246000fd5b60200260200101516001600160a01b03166001600160a01b0316815260200190815260200160002054828281518110612f3257634e487b7160e01b600052603260045260246000fd5b602090810291909101015280612f4781616365565b915050612ebc565b50610f136001805480602002602001604051908101604052809291908181526020018280548015612fa957602002820191906000526020600020905b81546001600160a01b03168152600190910190602001808311612f8b575b50505050506002805480602002602001604051908101604052809291908181526020018280548015612ffa57602002820191906000526020600020905b815481526020019060010190808311612fe6575b50505050508387876138f3565b60008060007f00000000000000000000000000000000000000000000000000000000000000006001600160a01b0316600036604051613047929190616012565b600060405180830381855af49150503d8060008114613082576040519150601f19603f3d011682016040523d82523d6000602084013e613087565b606091505b50509050600081141561309957600080fd5b509a509a98505050505050505050565b600080600083428110156130cf5760405162461bcd60e51b815260040161073a90616095565b60007f00000000000000000000000000000000000000000000000000000000000000006001600160a01b031660003660405161310c929190616012565b600060405180830381855af49150503d8060008114613147576040519150601f19603f3d011682016040523d82523d6000602084013e61314c565b606091505b50509050600081141561315e57600080fd5b5050985098509895505050505050565b6000546001600160a01b031633146131985760405162461bcd60e51b815260040161073a906161d0565b6001600160a01b0381166131fd5760405162461bcd60e51b815260206004820152602660248201527f4f776e61626c653a206e6577206f776e657220697320746865207a65726f206160448201526564647265737360d01b606482015260840161073a565b600080546040516001600160a01b03808516939216917f8be0079c531659141344cd1fd0a4f28419497f9722a3daafe3b4186f6b6457e091a3600080546001600160a01b0319166001600160a01b0392909216919091179055565b6000806000834281101561327e5760405162461bcd60e51b815260040161073a90616095565b60007f00000000000000000000000000000000000000000000000000000000000000006001600160a01b03166000366040516132bb929190616012565b600060405180830381855af49150503d80600081146132f6576040519150601f19603f3d011682016040523d82523d6000602084013e6132fb565b606091505b50509050600081141561330d57600080fd5b505096509650969350505050565b6060814281101561333e5760405162461bcd60e51b815260040161073a90616095565b6000856001600160401b0381111561336657634e487b7160e01b600052604160045260246000fd5b60405190808252806020026020018201604052801561338f578160200160208202803683370190505b50905060005b8681101561343457600360008989848181106133c157634e487b7160e01b600052603260045260246000fd5b90506020020160208101906133d69190615a5a565b6001600160a01b03166001600160a01b031681526020019081526020016000205482828151811061341757634e487b7160e01b600052603260045260246000fd5b60209081029190910101528061342c81616365565b915050613395565b5060607f00000000000000000000000000000000000000000000000000000000000000006001600160a01b03168888600081811061348257634e487b7160e01b600052603260045260246000fd5b90506020020160208101906134979190615a5a565b6001600160a01b0316146134bd5760405162461bcd60e51b815260040161073a9061624c565b6135a7600180548060200260200160405190810160405280929190818152602001828054801561351657602002820191906000526020600020905b81546001600160a01b031681526001909101906020018083116134f8575b5050505050600280548060200260200160405190810160405280929190818152602001828054801561356757602002820191906000526020600020905b815481526020019060010190808311613553575b5050505050848c8c8c8080602002602001604051908101604052809392919081815260200183836020028082843760009201919091525061449b92505050565b809250819550505034846000815181106135d157634e487b7160e01b600052603260045260246000fd5b602002602001015111156135f75760405162461bcd60e51b815260040161073a906160fe565b7f00000000000000000000000000000000000000000000000000000000000000006001600160a01b031663d0e30db08560008151811061364757634e487b7160e01b600052603260045260246000fd5b60200260200101516040518263ffffffff1660e01b81526004016000604051808303818588803b15801561367a57600080fd5b505af115801561368e573d6000803e3d6000fd5b50505050507f00000000000000000000000000000000000000000000000000000000000000006001600160a01b031663a9059cbb6136e68360008151811061233c57634e487b7160e01b600052603260045260246000fd5b8660008151811061370757634e487b7160e01b600052603260045260246000fd5b60200260200101516040518363ffffffff1660e01b81526004016137409291906001600160a01b03929092168252602082015260400190565b602060405180830381600087803b15801561375a57600080fd5b505af115801561376e573d6000803e3d6000fd5b505050506040513d601f19601f820116820180604052508101906137929190615d44565b6137ac57634e487b7160e01b600052600160045260246000fd5b6137ec84828a8a808060200260200160405190810160405280939291908181526020018383602002808284376000920191909152508c925061405b915050565b8360008151811061380d57634e487b7160e01b600052603260045260246000fd5b60200260200101513411156124a2576124a2338560008151811061384157634e487b7160e01b600052603260045260246000fd5b6020026020010151346138549190616307565b6143d2565b600080841161387a5760405162461bcd60e51b815260040161073a90616205565b60008311801561388a5750600082115b6138a65760405162461bcd60e51b815260040161073a906160ba565b60006138b4856103e5615507565b905060006138c28285615507565b905060006138dc836138d6886103e8615507565b90615586565b90506138e881836162c8565b979650505050505050565b6060806002835110156139485760405162461bcd60e51b815260206004820152601a60248201527f436169726f4c6962726172793a20494e56414c49445f50415448000000000000604482015260640161073a565b8551875114801561395a575084518351145b6139a65760405162461bcd60e51b815260206004820152601c60248201527f436169726f4c6962726172793a20494e56414c49445f414d4f554e5400000000604482015260640161073a565b6001875110156139f85760405162461bcd60e51b815260206004820152601d60248201527f436169726f4c6962726172793a20494e56414c49445f464143544f5259000000604482015260640161073a565b60018351613a069190616307565b6001600160401b03811115613a2b57634e487b7160e01b600052604160045260246000fd5b604051908082528060200260200182016040528015613a54578160200160208202803683370190505b50905086600081518110613a7857634e487b7160e01b600052603260045260246000fd5b602002602001015181600081518110613aa157634e487b7160e01b600052603260045260246000fd5b60200260200101906001600160a01b031690816001600160a01b03168152505082516001600160401b03811115613ae857634e487b7160e01b600052604160045260246000fd5b604051908082528060200260200182016040528015613b11578160200160208202803683370190505b5091508382600081518110613b3657634e487b7160e01b600052603260045260246000fd5b60200260200101818152505060005b60018451613b539190616307565b811015613e9b5760005b8851811015613dcd5760006001600160a01b0316898281518110613b9157634e487b7160e01b600052603260045260246000fd5b60200260200101516001600160a01b03161415613bad57613dbb565b600080613c3c8b8481518110613bd357634e487b7160e01b600052603260045260246000fd5b6020026020010151888681518110613bfb57634e487b7160e01b600052603260045260246000fd5b602002602001015189876001613c1191906162b0565b81518110613c2f57634e487b7160e01b600052603260045260246000fd5b60200260200101516155e5565b91509150613c9a868581518110613c6357634e487b7160e01b600052603260045260246000fd5b602002602001015183838d8781518110613c8d57634e487b7160e01b600052603260045260246000fd5b60200260200101516156ca565b86613ca68660016162b0565b81518110613cc457634e487b7160e01b600052603260045260246000fd5b6020026020010181815250508a8381518110613cf057634e487b7160e01b600052603260045260246000fd5b602002602001015185856001613d0691906162b0565b81518110613d2457634e487b7160e01b600052603260045260246000fd5b60200260200101906001600160a01b031690816001600160a01b031681525050888481518110613d6457634e487b7160e01b600052603260045260246000fd5b60200260200101518210158015613dac575088613d828560016162b0565b81518110613da057634e487b7160e01b600052603260045260246000fd5b60200260200101518110155b15613db8575050613dcd565b50505b80613dc581616365565b915050613b5d565b8851811415613e8857600080613dfd8b600081518110613bd357634e487b7160e01b600052603260045260246000fd5b91509150613e4f868581518110613e2457634e487b7160e01b600052603260045260246000fd5b602002602001015183838d600081518110613c8d57634e487b7160e01b600052603260045260246000fd5b86613e5b8660016162b0565b81518110613e7957634e487b7160e01b600052603260045260246000fd5b60200260200101818152505050505b5080613e9381616365565b915050613b45565b509550959350505050565b60405163e6a4390560e01b81526001600160a01b03838116600483015282811660248301526000919085169063e6a439059060440160206040518083038186803b158015613ef357600080fd5b505afa158015613f07573d6000803e3d6000fd5b505050506040513d601f19601f820116820180604052508101906107ec9190615a76565b604080516001600160a01b0385811660248301528481166044830152606480830185905283518084039091018152608490920183526020820180516001600160e01b03166323b872dd60e01b1790529151600092839290881691613f8f9190616022565b6000604051808303816000865af19150503d8060008114613fcc576040519150601f19603f3d011682016040523d82523d6000602084013e613fd1565b606091505b5091509150818015613ffb575080511580613ffb575080806020019051810190613ffb9190615d44565b6140535760405162461bcd60e51b8152602060048201526024808201527f5472616e7366657248656c7065723a205452414e534645525f46524f4d5f46416044820152631253115160e21b606482015260840161073a565b505050505050565b60005b6001845161406c9190616307565b8110156143cb5760008085838151811061409657634e487b7160e01b600052603260045260246000fd5b6020026020010151868460016140ac91906162b0565b815181106140ca57634e487b7160e01b600052603260045260246000fd5b60200260200101519150915060006140e2838361575d565b5090506000886140f38660016162b0565b8151811061411157634e487b7160e01b600052603260045260246000fd5b60209081029190910101516004549091506001600160a01b03161580159061419157507f00000000000000000000000000000000000000000000000000000000000000006001600160a01b031687868151811061417e57634e487b7160e01b600052603260045260246000fd5b60200260200101516001600160a01b0316145b1561422d576004805460405163152cf14360e31b815233928101929092526001600160a01b038681166024840152858116604484015260648301849052169063a9678a1890608401602060405180830381600087803b1580156141f357600080fd5b505af1158015614207573d6000803e3d6000fd5b505050506040513d601f19601f8201168201806040525081019061422b9190615d44565b505b600080836001600160a01b0316866001600160a01b03161461425157826000614255565b6000835b91509150600060028b516142699190616307565b881061427557886142e4565b6142e48a6142848a60026162b0565b815181106142a257634e487b7160e01b600052603260045260246000fd5b6020026020010151878d8b60026142b991906162b0565b815181106142d757634e487b7160e01b600052603260045260246000fd5b6020026020010151613ea6565b90506143228a6142f58a60016162b0565b8151811061431357634e487b7160e01b600052603260045260246000fd5b60200260200101518888613ea6565b6001600160a01b031663022c0d9f84848460006040519080825280601f01601f19166020018201604052801561435f576020820181803683370190505b506040518563ffffffff1660e01b815260040161437f9493929190616283565b600060405180830381600087803b15801561439957600080fd5b505af11580156143ad573d6000803e3d6000fd5b505050505050505050505080806143c390616365565b91505061405e565b5050505050565b604080516000808252602082019092526001600160a01b0384169083906040516143fc9190616022565b60006040518083038185875af1925050503d8060008114614439576040519150601f19603f3d011682016040523d82523d6000602084013e61443e565b606091505b50509050806111735760405162461bcd60e51b815260206004820152602360248201527f5472616e7366657248656c7065723a204554485f5452414e534645525f46414960448201526213115160ea1b606482015260840161073a565b6060806002835110156144f05760405162461bcd60e51b815260206004820152601a60248201527f436169726f4c6962726172793a20494e56414c49445f50415448000000000000604482015260640161073a565b85518751148015614502575084518351145b61454e5760405162461bcd60e51b815260206004820152601c60248201527f436169726f4c6962726172793a20494e56414c49445f414d4f554e5400000000604482015260640161073a565b6001875110156145a05760405162461bcd60e51b815260206004820152601d60248201527f436169726f4c6962726172793a20494e56414c49445f464143544f5259000000604482015260640161073a565b600183516145ae9190616307565b6001600160401b038111156145d357634e487b7160e01b600052604160045260246000fd5b6040519080825280602002602001820160405280156145fc578160200160208202803683370190505b5090508660008151811061462057634e487b7160e01b600052603260045260246000fd5b602002602001015181600184516146379190616307565b8151811061465557634e487b7160e01b600052603260045260246000fd5b60200260200101906001600160a01b031690816001600160a01b03168152505082516001600160401b0381111561469c57634e487b7160e01b600052604160045260246000fd5b6040519080825280602002602001820160405280156146c5578160200160208202803683370190505b5091508382600184516146d89190616307565b815181106146f657634e487b7160e01b600052603260045260246000fd5b6020026020010181815250506000600184516147129190616307565b90505b8015613e9b5760005b88518110156149795760006001600160a01b031689828151811061475257634e487b7160e01b600052603260045260246000fd5b60200260200101516001600160a01b0316141561476e57614967565b6000806147f08b848151811061479457634e487b7160e01b600052603260045260246000fd5b6020026020010151886001876147aa9190616307565b815181106147c857634e487b7160e01b600052603260045260246000fd5b6020026020010151898781518110613c2f57634e487b7160e01b600052603260045260246000fd5b9150915061484e86858151811061481757634e487b7160e01b600052603260045260246000fd5b602002602001015183838d878151811061484157634e487b7160e01b600052603260045260246000fd5b6020026020010151615851565b8661485a600187616307565b8151811061487857634e487b7160e01b600052603260045260246000fd5b6020026020010181815250508a83815181106148a457634e487b7160e01b600052603260045260246000fd5b6020026020010151856001866148ba9190616307565b815181106148d857634e487b7160e01b600052603260045260246000fd5b6001600160a01b0390921660209283029190910190910152886148fc600186616307565b8151811061491a57634e487b7160e01b600052603260045260246000fd5b60200260200101518210158015614958575088848151811061494c57634e487b7160e01b600052603260045260246000fd5b60200260200101518110155b15614964575050614979565b50505b8061497181616365565b91505061471e565b50806149848161634e565b915050614715565b6060806000836001600160401b038111156149b757634e487b7160e01b600052604160045260246000fd5b6040519080825280602002602001820160405280156149e0578160200160208202803683370190505b50905060005b84811015614a855760036000878784818110614a1257634e487b7160e01b600052603260045260246000fd5b9050602002016020810190614a279190615a5a565b6001600160a01b03166001600160a01b0316815260200190815260200160002054828281518110614a6857634e487b7160e01b600052603260045260246000fd5b602090810291909101015280614a7d81616365565b9150506149e6565b5060005b614a94600186616307565b811015614f0e57600080878784818110614abe57634e487b7160e01b600052603260045260246000fd5b9050602002016020810190614ad39190615a5a565b8888614ae08660016162b0565b818110614afd57634e487b7160e01b600052603260045260246000fd5b9050602002016020810190614b129190615a5a565b915091506000614b22838361575d565b50905060005b600154811015614dc1576000614bcc60018381548110614b5857634e487b7160e01b600052603260045260246000fd5b6000918252602090912001546001600160a01b03168c8c89818110614b8d57634e487b7160e01b600052603260045260246000fd5b9050602002016020810190614ba29190615a5a565b8d8d614baf8b60016162b0565b818110610ba157634e487b7160e01b600052603260045260246000fd5b9050600080826001600160a01b0316630902f1ac6040518163ffffffff1660e01b815260040160606040518083038186803b158015614c0a57600080fd5b505afa158015614c1e573d6000803e3d6000fd5b505050506040513d601f19601f82011682018060405250810190614c429190615d60565b506001600160701b031691506001600160701b03169150600080866001600160a01b0316896001600160a01b031614614c7c578284614c7f565b83835b915091508a8a81518110614ca357634e487b7160e01b600052603260045260246000fd5b60200260200101518210158015614ceb57508a614cc18b60016162b0565b81518110614cdf57634e487b7160e01b600052603260045260246000fd5b60200260200101518110155b15614da957848d614cfd8c60016162b0565b81518110614d1b57634e487b7160e01b600052603260045260246000fd5b60200260200101906001600160a01b031690816001600160a01b03168152505060028681548110614d5c57634e487b7160e01b600052603260045260246000fd5b90600052602060002001548c8b6001614d7591906162b0565b81518110614d9357634e487b7160e01b600052603260045260246000fd5b6020026020010181815250505050505050614dc1565b50505050508080614db990616365565b915050614b28565b600154811415614ef757614e476001600081548110614df057634e487b7160e01b600052603260045260246000fd5b6000918252602090912001546001600160a01b03168b8b88818110614e2557634e487b7160e01b600052603260045260246000fd5b9050602002016020810190614e3a9190615a5a565b8c8c614baf8a60016162b0565b88614e538760016162b0565b81518110614e7157634e487b7160e01b600052603260045260246000fd5b60200260200101906001600160a01b031690816001600160a01b0316815250506002600081548110614eb357634e487b7160e01b600052603260045260246000fd5b906000526020600020015487866001614ecc91906162b0565b81518110614eea57634e487b7160e01b600052603260045260246000fd5b6020026020010181815250505b505050508080614f0690616365565b915050614a89565b50509250929050565b60005b60018551614f289190616307565b8110156143cb57600080868381518110614f5257634e487b7160e01b600052603260045260246000fd5b602002602001015187846001614f6891906162b0565b81518110614f8657634e487b7160e01b600052603260045260246000fd5b6020026020010151915091506000806000614fd589876001614fa891906162b0565b81518110614fc657634e487b7160e01b600052603260045260246000fd5b602002602001015186866158d3565b9194509250905060008061504f856001600160a01b0389166370a082318e614ffe8d60016162b0565b8151811061501c57634e487b7160e01b600052603260045260246000fd5b60200260200101516040518263ffffffff1660e01b8152600401611b3e91906001600160a01b0391909116815260200190565b91506150818286868d6150638d60016162b0565b81518110613c8d57634e487b7160e01b600052603260045260246000fd5b6004549091506001600160a01b03161580159061517057506001600160a01b037f0000000000000000000000000000000000000000000000000000000000000000168b6150cf8a60016162b0565b815181106150ed57634e487b7160e01b600052603260045260246000fd5b60200260200101516001600160a01b031663c45a01556040518163ffffffff1660e01b815260040160206040518083038186803b15801561512d57600080fd5b505afa158015615141573d6000803e3d6000fd5b505050506040513d601f19601f820116820180604052508101906151659190615a76565b6001600160a01b0316145b1561520c576004805460405163152cf14360e31b815233928101929092526001600160a01b038981166024840152888116604484015260648301849052169063a9678a1890608401602060405180830381600087803b1580156151d257600080fd5b505af11580156151e6573d6000803e3d6000fd5b505050506040513d601f19601f8201168201806040525081019061520a9190615d44565b505b600080846001600160a01b0316896001600160a01b03161461523057826000615234565b6000835b91509150600060028f516152489190616307565b8b10615254578b615287565b8d6152608c60026162b0565b8151811061527e57634e487b7160e01b600052603260045260246000fd5b60200260200101515b90508d6152958c60016162b0565b815181106152b357634e487b7160e01b600052603260045260246000fd5b60200260200101516001600160a01b031663022c0d9f84848460006001600160401b038111156152f357634e487b7160e01b600052604160045260246000fd5b6040519080825280601f01601f19166020018201604052801561531d576020820181803683370190505b506040518563ffffffff1660e01b815260040161533d9493929190616283565b600060405180830381600087803b15801561535757600080fd5b505af115801561536b573d6000803e3d6000fd5b5050505050505050505050505050808061538490616365565b915050614f1a565b60006153ce83836040518060400160405280601e81526020017f536166654d6174683a207375627472616374696f6e206f766572666c6f7700008152506159a6565b90505b92915050565b60008084116153f85760405162461bcd60e51b815260040161073a90616141565b6000831180156154085750600082115b6154245760405162461bcd60e51b815260040161073a906160ba565b600061543c6103e86154368688615507565b90615507565b905060006154506103e5615436868961538c565b905061546160016138d683856162c8565b9695505050505050565b60008084116154c65760405162461bcd60e51b815260206004820152602160248201527f436169726f4c6962726172793a20494e53554646494349454e545f414d4f554e6044820152601560fa1b606482015260840161073a565b6000831180156154d65750600082115b6154f25760405162461bcd60e51b815260040161073a906160ba565b826154fd8584615507565b6107ec91906162c8565b600082615516575060006153d1565b600061552283856162e8565b90508261552f85836162c8565b146153ce5760405162461bcd60e51b815260206004820152602160248201527f536166654d6174683a206d756c7469706c69636174696f6e206f766572666c6f6044820152607760f81b606482015260840161073a565b60008061559383856162b0565b9050838110156153ce5760405162461bcd60e51b815260206004820152601b60248201527f536166654d6174683a206164646974696f6e206f766572666c6f770000000000604482015260640161073a565b60008060006155f4858561575d565b509050615602868686613ea6565b50600080615611888888613ea6565b6001600160a01b0316630902f1ac6040518163ffffffff1660e01b815260040160606040518083038186803b15801561564957600080fd5b505afa15801561565d573d6000803e3d6000fd5b505050506040513d601f19601f820116820180604052508101906156819190615d60565b506001600160701b031691506001600160701b03169150826001600160a01b0316876001600160a01b0316146156b85780826156bb565b81815b90999098509650505050505050565b60008085116156eb5760405162461bcd60e51b815260040161073a90616205565b6000841180156156fb5750600083115b6157175760405162461bcd60e51b815260040161073a906160ba565b60006157238684615507565b905060006157318286615507565b90506000615745836138d689612710615507565b905061575181836162c8565b98975050505050505050565b600080826001600160a01b0316846001600160a01b031614156157cc5760405162461bcd60e51b815260206004820152602160248201527f436169726f4c6962726172793a204944454e544943414c5f41444452455353456044820152605360f81b606482015260840161073a565b826001600160a01b0316846001600160a01b0316106157ec5782846157ef565b83835b90925090506001600160a01b03821661584a5760405162461bcd60e51b815260206004820152601a60248201527f436169726f4c6962726172793a205a45524f5f41444452455353000000000000604482015260640161073a565b9250929050565b60008085116158725760405162461bcd60e51b815260040161073a90616141565b6000841180156158825750600083115b61589e5760405162461bcd60e51b815260040161073a906160ba565b60006158b06127106154368789615507565b905060006158c284615436878a61538c565b90506138e860016138d683856162c8565b60008060006158e2858561575d565b5080915050600080876001600160a01b0316630902f1ac6040518163ffffffff1660e01b815260040160606040518083038186803b15801561592357600080fd5b505afa158015615937573d6000803e3d6000fd5b505050506040513d601f19601f8201168201806040525081019061595b9190615d60565b506001600160701b031691506001600160701b03169150826001600160a01b0316876001600160a01b031614615992578082615995565b81815b909990985092965091945050505050565b600081848411156159ca5760405162461bcd60e51b815260040161073a9190616082565b5060006159d78486616307565b95945050505050565b80356159eb816163ac565b919050565b60008083601f840112615a01578081fd5b5081356001600160401b03811115615a17578182fd5b6020830191508360208260051b850101111561584a57600080fd5b80516001600160701b03811681146159eb57600080fd5b803560ff811681146159eb57600080fd5b600060208284031215615a6b578081fd5b81356153ce816163ac565b600060208284031215615a87578081fd5b81516153ce816163ac565b600080600080600080600060e0888a031215615aac578283fd5b8735615ab7816163ac565b96506020880135615ac7816163ac565b955060408801359450606088013593506080880135925060a0880135615aec816163ac565b8092505060c0880135905092959891949750929550565b60008060008060008060008060008060006101608c8e031215615b24578384fd5b8b35615b2f816163ac565b9a5060208c0135615b3f816163ac565b995060408c0135985060608c0135975060808c0135965060a08c0135615b64816163ac565b955060c08c0135945060e08c0135615b7b816163c1565b9350615b8a6101008d01615a49565b92506101208c013591506101408c013590509295989b509295989b9093969950565b600080600080600080600080610100898b031215615bc8578384fd5b8835615bd3816163ac565b97506020890135615be3816163ac565b965060408901359550606089013594506080890135935060a0890135925060c0890135615c0f816163ac565b8092505060e089013590509295985092959890939650565b60008060408385031215615c39578182fd5b8235615c44816163ac565b946020939093013593505050565b60008060008060008060c08789031215615c6a578384fd5b8635615c75816163ac565b95506020870135945060408701359350606087013592506080870135615c9a816163ac565b8092505060a087013590509295509295509295565b6000806000806000806000806000806101408b8d031215615cce578384fd5b8a35615cd9816163ac565b995060208b0135985060408b0135975060608b0135965060808b0135615cfe816163ac565b955060a08b0135945060c08b0135615d15816163c1565b9350615d2360e08c01615a49565b92506101008b013591506101208b013590509295989b9194979a5092959850565b600060208284031215615d55578081fd5b81516153ce816163c1565b600080600060608486031215615d74578081fd5b615d7d84615a32565b9250615d8b60208501615a32565b9150604084015163ffffffff81168114615da3578182fd5b809150509250925092565b600060208284031215615dbf578081fd5b5035919050565b600060208284031215615dd7578081fd5b5051919050565b600080600060608486031215615df2578081fd5b833592506020840135615e04816163ac565b929592945050506040919091013590565b600080600080600060808688031215615e2c578283fd5b8535945060208601356001600160401b03811115615e48578384fd5b615e54888289016159f0565b9095509350506040860135615e68816163ac565b949793965091946060013592915050565b60008060408385031215615e8b578182fd5b823591506020808401356001600160401b0380821115615ea9578384fd5b818601915086601f830112615ebc578384fd5b813581811115615ece57615ece616396565b8060051b604051601f19603f83011681018181108582111715615ef357615ef3616396565b604052828152858101935084860182860187018b1015615f11578788fd5b8795505b83861015615f3a57615f26816159e0565b855260019590950194938601938601615f15565b508096505050505050509250929050565b60008060008060008060a08789031215615f63578384fd5b863595506020870135945060408701356001600160401b03811115615f86578485fd5b615f9289828a016159f0565b9095509350506060870135615fa6816163ac565b80925050608087013590509295509295509295565b600080600060608486031215615fcf578081fd5b505081359360208301359350604090920135919050565b60008151808452615ffe81602086016020860161631e565b601f01601f19169290920160200192915050565b8183823760009101908152919050565b6000825161603481846020870161631e565b9190910192915050565b6020808252825182820181905260009190848201906040850190845b818110156160765783518352928401929184019160010161605a565b50909695505050505050565b6020815260006153ce6020830184615fe6565b6020808252600b908201526a21b0b4b937a937baba32b960a91b604082015260600190565b60208082526024908201527f436169726f4c6962726172793a20494e53554646494349454e545f4c495155496040820152634449545960e01b606082015260800190565b60208082526023908201527f436169726f526f757465723a204558434553534956455f494e5055545f414d4f60408201526215539560ea1b606082015260800190565b60208082526028908201527f436169726f4c6962726172793a20494e53554646494349454e545f4f555450556040820152671517d05353d5539560c21b606082015260800190565b60208082526027908201527f436169726f526f757465723a20494e53554646494349454e545f4f555450555460408201526617d05353d5539560ca1b606082015260800190565b6020808252818101527f4f776e61626c653a2063616c6c6572206973206e6f7420746865206f776e6572604082015260600190565b60208082526027908201527f436169726f4c6962726172793a20494e53554646494349454e545f494e50555460408201526617d05353d5539560ca1b606082015260800190565b60208082526019908201527f436169726f526f757465723a20494e56414c49445f5041544800000000000000604082015260600190565b84815283602082015260018060a01b03831660408201526080606082015260006154616080830184615fe6565b600082198211156162c3576162c3616380565b500190565b6000826162e357634e487b7160e01b81526012600452602481fd5b500490565b600081600019048311821515161561630257616302616380565b500290565b60008282101561631957616319616380565b500390565b60005b83811015616339578181015183820152602001616321565b83811115616348576000848401525b50505050565b60008161635d5761635d616380565b506000190190565b600060001982141561637957616379616380565b5060010190565b634e487b7160e01b600052601160045260246000fd5b634e487b7160e01b600052604160045260246000fd5b6001600160a01b038116811461288e57600080fd5b801515811461288e57600080fdfea264697066735822122035aec50d09c7ff85081b66ccc8f82eb835649d483951990190e2d9ba67dbc52b64736f6c63430008040033",
  "linkReferences": {},
  "deployedLinkReferences": {}
}