{
  "_format": "hh-sol-artifact-1",
  "contractName": "SwapMining",
  "sourceName": "contracts/farm/SwapMining.sol",
  "abi": [
    {
      "inputs": [
        {
          "internalType": "contract CairoToken",
          "name": "_cairoToken",
          "type": "address"
        },
        {
          "internalType": "contract ICairoFactory",
          "name": "_factory",
          "type": "address"
        },
        {
          "internalType": "contract IOracle",
          "name": "_oracle",
          "type": "address"
        },
        {
          "internalType": "address",
          "name": "_router",
          "type": "address"
        },
        {
          "internalType": "address",
          "name": "_targetToken",
          "type": "address"
        },
        {
          "internalType": "uint256",
          "name": "_cairoPerBlock",
          "type": "uint256"
        },
        {
          "internalType": "uint256",
          "name": "_startBlock",
          "type": "uint256"
        }
      ],
      "stateMutability": "nonpayable",
      "type": "constructor"
    },
    {
      "anonymous": false,
      "inputs": [
        {
          "indexed": true,
          "internalType": "address",
          "name": "previousOwner",
          "type": "address"
        },
        {
          "indexed": true,
          "internalType": "address",
          "name": "newOwner",
          "type": "address"
        }
      ],
      "name": "OwnershipTransferred",
      "type": "event"
    },
    {
      "inputs": [
        {
          "internalType": "uint256",
          "name": "_allocPoint",
          "type": "uint256"
        },
        {
          "internalType": "address",
          "name": "_pair",
          "type": "address"
        },
        {
          "internalType": "bool",
          "name": "_withUpdate",
          "type": "bool"
        }
      ],
      "name": "addPair",
      "outputs": [],
      "stateMutability": "nonpayable",
      "type": "function"
    },
    {
      "inputs": [
        {
          "internalType": "address",
          "name": "_addToken",
          "type": "address"
        }
      ],
      "name": "addWhitelist",
      "outputs": [
        {
          "internalType": "bool",
          "name": "",
          "type": "bool"
        }
      ],
      "stateMutability": "nonpayable",
      "type": "function"
    },
    {
      "inputs": [],
      "name": "cairoPerBlock",
      "outputs": [
        {
          "internalType": "uint256",
          "name": "",
          "type": "uint256"
        }
      ],
      "stateMutability": "view",
      "type": "function"
    },
    {
      "inputs": [],
      "name": "cairoToken",
      "outputs": [
        {
          "internalType": "contract CairoToken",
          "name": "",
          "type": "address"
        }
      ],
      "stateMutability": "view",
      "type": "function"
    },
    {
      "inputs": [
        {
          "internalType": "address",
          "name": "_delToken",
          "type": "address"
        }
      ],
      "name": "delWhitelist",
      "outputs": [
        {
          "internalType": "bool",
          "name": "",
          "type": "bool"
        }
      ],
      "stateMutability": "nonpayable",
      "type": "function"
    },
    {
      "inputs": [],
      "name": "factory",
      "outputs": [
        {
          "internalType": "contract ICairoFactory",
          "name": "",
          "type": "address"
        }
      ],
      "stateMutability": "view",
      "type": "function"
    },
    {
      "inputs": [
        {
          "internalType": "uint256",
          "name": "_lastRewardBlock",
          "type": "uint256"
        }
      ],
      "name": "getCairoReward",
      "outputs": [
        {
          "internalType": "uint256",
          "name": "",
          "type": "uint256"
        }
      ],
      "stateMutability": "view",
      "type": "function"
    },
    {
      "inputs": [
        {
          "internalType": "uint256",
          "name": "_pid",
          "type": "uint256"
        }
      ],
      "name": "getPoolInfo",
      "outputs": [
        {
          "internalType": "address",
          "name": "",
          "type": "address"
        },
        {
          "internalType": "address",
          "name": "",
          "type": "address"
        },
        {
          "internalType": "uint256",
          "name": "",
          "type": "uint256"
        },
        {
          "internalType": "uint256",
          "name": "",
          "type": "uint256"
        },
        {
          "internalType": "uint256",
          "name": "",
          "type": "uint256"
        },
        {
          "internalType": "uint256",
          "name": "",
          "type": "uint256"
        }
      ],
      "stateMutability": "view",
      "type": "function"
    },
    {
      "inputs": [
        {
          "internalType": "address",
          "name": "outputToken",
          "type": "address"
        },
        {
          "internalType": "uint256",
          "name": "outputAmount",
          "type": "uint256"
        },
        {
          "internalType": "address",
          "name": "anchorToken",
          "type": "address"
        }
      ],
      "name": "getQuantity",
      "outputs": [
        {
          "internalType": "uint256",
          "name": "",
          "type": "uint256"
        }
      ],
      "stateMutability": "view",
      "type": "function"
    },
    {
      "inputs": [
        {
          "internalType": "uint256",
          "name": "_pid",
          "type": "uint256"
        },
        {
          "internalType": "address",
          "name": "_user",
          "type": "address"
        }
      ],
      "name": "getUserReward",
      "outputs": [
        {
          "internalType": "uint256",
          "name": "",
          "type": "uint256"
        },
        {
          "internalType": "uint256",
          "name": "",
          "type": "uint256"
        }
      ],
      "stateMutability": "view",
      "type": "function"
    },
    {
      "inputs": [
        {
          "internalType": "uint256",
          "name": "_index",
          "type": "uint256"
        }
      ],
      "name": "getWhitelist",
      "outputs": [
        {
          "internalType": "address",
          "name": "",
          "type": "address"
        }
      ],
      "stateMutability": "view",
      "type": "function"
    },
    {
      "inputs": [],
      "name": "getWhitelistLength",
      "outputs": [
        {
          "internalType": "uint256",
          "name": "",
          "type": "uint256"
        }
      ],
      "stateMutability": "view",
      "type": "function"
    },
    {
      "inputs": [],
      "name": "halvingPeriod",
      "outputs": [
        {
          "internalType": "uint256",
          "name": "",
          "type": "uint256"
        }
      ],
      "stateMutability": "view",
      "type": "function"
    },
    {
      "inputs": [
        {
          "internalType": "address",
          "name": "_token",
          "type": "address"
        }
      ],
      "name": "isWhitelist",
      "outputs": [
        {
          "internalType": "bool",
          "name": "",
          "type": "bool"
        }
      ],
      "stateMutability": "view",
      "type": "function"
    },
    {
      "inputs": [],
      "name": "massMintPools",
      "outputs": [],
      "stateMutability": "nonpayable",
      "type": "function"
    },
    {
      "inputs": [
        {
          "internalType": "uint256",
          "name": "_pid",
          "type": "uint256"
        }
      ],
      "name": "mint",
      "outputs": [
        {
          "internalType": "bool",
          "name": "",
          "type": "bool"
        }
      ],
      "stateMutability": "nonpayable",
      "type": "function"
    },
    {
      "inputs": [],
      "name": "oracle",
      "outputs": [
        {
          "internalType": "contract IOracle",
          "name": "",
          "type": "address"
        }
      ],
      "stateMutability": "view",
      "type": "function"
    },
    {
      "inputs": [],
      "name": "owner",
      "outputs": [
        {
          "internalType": "address",
          "name": "",
          "type": "address"
        }
      ],
      "stateMutability": "view",
      "type": "function"
    },
    {
      "inputs": [
        {
          "internalType": "address",
          "name": "_to",
          "type": "address"
        },
        {
          "internalType": "uint256",
          "name": "_amount",
          "type": "uint256"
        }
      ],
      "name": "ownerWithdraw",
      "outputs": [],
      "stateMutability": "nonpayable",
      "type": "function"
    },
    {
      "inputs": [
        {
          "internalType": "address",
          "name": "",
          "type": "address"
        }
      ],
      "name": "pairOfPid",
      "outputs": [
        {
          "internalType": "uint256",
          "name": "",
          "type": "uint256"
        }
      ],
      "stateMutability": "view",
      "type": "function"
    },
    {
      "inputs": [
        {
          "internalType": "uint256",
          "name": "blockNumber",
          "type": "uint256"
        }
      ],
      "name": "phase",
      "outputs": [
        {
          "internalType": "uint256",
          "name": "",
          "type": "uint256"
        }
      ],
      "stateMutability": "view",
      "type": "function"
    },
    {
      "inputs": [],
      "name": "phase",
      "outputs": [
        {
          "internalType": "uint256",
          "name": "",
          "type": "uint256"
        }
      ],
      "stateMutability": "view",
      "type": "function"
    },
    {
      "inputs": [
        {
          "internalType": "uint256",
          "name": "",
          "type": "uint256"
        }
      ],
      "name": "poolInfo",
      "outputs": [
        {
          "internalType": "address",
          "name": "pair",
          "type": "address"
        },
        {
          "internalType": "uint256",
          "name": "quantity",
          "type": "uint256"
        },
        {
          "internalType": "uint256",
          "name": "totalQuantity",
          "type": "uint256"
        },
        {
          "internalType": "uint256",
          "name": "allocPoint",
          "type": "uint256"
        },
        {
          "internalType": "uint256",
          "name": "allocMdxAmount",
          "type": "uint256"
        },
        {
          "internalType": "uint256",
          "name": "lastRewardBlock",
          "type": "uint256"
        }
      ],
      "stateMutability": "view",
      "type": "function"
    },
    {
      "inputs": [],
      "name": "poolLength",
      "outputs": [
        {
          "internalType": "uint256",
          "name": "",
          "type": "uint256"
        }
      ],
      "stateMutability": "view",
      "type": "function"
    },
    {
      "inputs": [],
      "name": "renounceOwnership",
      "outputs": [],
      "stateMutability": "nonpayable",
      "type": "function"
    },
    {
      "inputs": [],
      "name": "reward",
      "outputs": [
        {
          "internalType": "uint256",
          "name": "",
          "type": "uint256"
        }
      ],
      "stateMutability": "view",
      "type": "function"
    },
    {
      "inputs": [
        {
          "internalType": "uint256",
          "name": "blockNumber",
          "type": "uint256"
        }
      ],
      "name": "reward",
      "outputs": [
        {
          "internalType": "uint256",
          "name": "",
          "type": "uint256"
        }
      ],
      "stateMutability": "view",
      "type": "function"
    },
    {
      "inputs": [],
      "name": "router",
      "outputs": [
        {
          "internalType": "address",
          "name": "",
          "type": "address"
        }
      ],
      "stateMutability": "view",
      "type": "function"
    },
    {
      "inputs": [
        {
          "internalType": "uint256",
          "name": "_newPerBlock",
          "type": "uint256"
        }
      ],
      "name": "setCairoPerBlock",
      "outputs": [],
      "stateMutability": "nonpayable",
      "type": "function"
    },
    {
      "inputs": [
        {
          "internalType": "uint256",
          "name": "_block",
          "type": "uint256"
        }
      ],
      "name": "setHalvingPeriod",
      "outputs": [],
      "stateMutability": "nonpayable",
      "type": "function"
    },
    {
      "inputs": [
        {
          "internalType": "contract IOracle",
          "name": "_oracle",
          "type": "address"
        }
      ],
      "name": "setOracle",
      "outputs": [],
      "stateMutability": "nonpayable",
      "type": "function"
    },
    {
      "inputs": [
        {
          "internalType": "uint256",
          "name": "_pid",
          "type": "uint256"
        },
        {
          "internalType": "uint256",
          "name": "_allocPoint",
          "type": "uint256"
        },
        {
          "internalType": "bool",
          "name": "_withUpdate",
          "type": "bool"
        }
      ],
      "name": "setPair",
      "outputs": [],
      "stateMutability": "nonpayable",
      "type": "function"
    },
    {
      "inputs": [
        {
          "internalType": "address",
          "name": "newRouter",
          "type": "address"
        }
      ],
      "name": "setRouter",
      "outputs": [],
      "stateMutability": "nonpayable",
      "type": "function"
    },
    {
      "inputs": [],
      "name": "startBlock",
      "outputs": [
        {
          "internalType": "uint256",
          "name": "",
          "type": "uint256"
        }
      ],
      "stateMutability": "view",
      "type": "function"
    },
    {
      "inputs": [
        {
          "internalType": "address",
          "name": "account",
          "type": "address"
        },
        {
          "internalType": "address",
          "name": "input",
          "type": "address"
        },
        {
          "internalType": "address",
          "name": "output",
          "type": "address"
        },
        {
          "internalType": "uint256",
          "name": "amount",
          "type": "uint256"
        }
      ],
      "name": "swap",
      "outputs": [
        {
          "internalType": "bool",
          "name": "",
          "type": "bool"
        }
      ],
      "stateMutability": "nonpayable",
      "type": "function"
    },
    {
      "inputs": [],
      "name": "takerWithdraw",
      "outputs": [],
      "stateMutability": "nonpayable",
      "type": "function"
    },
    {
      "inputs": [],
      "name": "targetToken",
      "outputs": [
        {
          "internalType": "address",
          "name": "",
          "type": "address"
        }
      ],
      "stateMutability": "view",
      "type": "function"
    },
    {
      "inputs": [],
      "name": "totalAllocPoint",
      "outputs": [
        {
          "internalType": "uint256",
          "name": "",
          "type": "uint256"
        }
      ],
      "stateMutability": "view",
      "type": "function"
    },
    {
      "inputs": [
        {
          "internalType": "address",
          "name": "newOwner",
          "type": "address"
        }
      ],
      "name": "transferOwnership",
      "outputs": [],
      "stateMutability": "nonpayable",
      "type": "function"
    },
    {
      "inputs": [
        {
          "internalType": "uint256",
          "name": "",
          "type": "uint256"
        },
        {
          "internalType": "address",
          "name": "",
          "type": "address"
        }
      ],
      "name": "userInfo",
      "outputs": [
        {
          "internalType": "uint256",
          "name": "quantity",
          "type": "uint256"
        },
        {
          "internalType": "uint256",
          "name": "blockNumber",
          "type": "uint256"
        }
      ],
      "stateMutability": "view",
      "type": "function"
    }
  ],
  "bytecode": "0x60806040526250334060055560006006553480156200001d57600080fd5b5060405162002a7338038062002a73833981016040819052620000409162000238565b600080546001600160a01b031916339081178255604051909182917f8be0079c531659141344cd1fd0a4f28419497f9722a3daafe3b4186f6b6457e0908290a3506001600160a01b038716620000cf5760405162461bcd60e51b815260206004820152600f60248201526e696c6c6567616c206164647265737360881b60448201526064015b60405180910390fd5b600a80546001600160a01b0319166001600160a01b03898116919091179091558616620001315760405162461bcd60e51b815260206004820152600f60248201526e696c6c6567616c206164647265737360881b6044820152606401620000c6565b600980546001600160a01b0319166001600160a01b03888116919091179091558516620001935760405162461bcd60e51b815260206004820152600f60248201526e696c6c6567616c206164647265737360881b6044820152606401620000c6565b600780546001600160a01b0319166001600160a01b03878116919091179091558416620001f55760405162461bcd60e51b815260206004820152600f60248201526e696c6c6567616c206164647265737360881b6044820152606401620000c6565b600880546001600160a01b039586166001600160a01b031991821617909155600b80549490951693169290921790925560039190915560045550620002e3915050565b600080600080600080600060e0888a03121562000253578283fd5b87516200026081620002ca565b60208901519097506200027381620002ca565b60408901519096506200028681620002ca565b60608901519095506200029981620002ca565b6080890151909450620002ac81620002ca565b8093505060a0880151915060c0880151905092959891949750929550565b6001600160a01b0381168114620002e057600080fd5b50565b61278080620002f36000396000f3fe608060405234801561001057600080fd5b50600436106102485760003560e01c806393f1a40b1161013b578063b5ec5c99116100b8578063d9c88e141161007c578063d9c88e141461055c578063f2fde38b1461056f578063f80f5dd514610582578063f887ea4014610595578063f9d181f9146105a857600080fd5b8063b5ec5c9914610508578063b872dd0e1461051b578063c0d7865514610523578063c45a015514610536578063c683630d1461054957600080fd5b8063a13202e9116100ff578063a13202e9146104bf578063a7ef67f6146104c7578063a9678a18146104da578063a9fb763c146104ed578063b1c9fe6e1461050057600080fd5b806393f1a40b1461043c57806396db752a1461046e57806397ecfaab146104815780639f4ece2e146104a4578063a0712d68146104ac57600080fd5b80632f380b35116101c95780635a3e251f1161018d5780635a3e251f146103f4578063715018a6146103fd5780637adbf973146104055780637dc0d1d0146104185780638da5cb5b1461042b57600080fd5b80632f380b3514610367578063327107f7146103b257806348cd4cb1146103c55780634abebdad146103ce5780634c6c378e146103e157600080fd5b80631526fe27116102105780631526fe27146102cf57806317caf6f114610319578063190cf6c9146103225780632099920e14610337578063228cb7331461035f57600080fd5b80630495de501461024d578063081e3eda1461028057806311af210e1461028857806311b26fdd146102b3578063135f8aa7146102bc575b600080fd5b61026d61025b3660046122fe565b600c6020526000908152604090205481565b6040519081526020015b60405180910390f35b600d5461026d565b600a5461029b906001600160a01b031681565b6040516001600160a01b039091168152602001610277565b61026d60035481565b61026d6102ca36600461240e565b6105bb565b6102e26102dd36600461240e565b610614565b604080516001600160a01b0390971687526020870195909552938501929092526060840152608083015260a082015260c001610277565b61026d60065481565b6103356103303660046124a3565b610664565b005b61034a61034536600461243e565b610738565b60408051928352602083019190915201610277565b61026d6108cd565b61037a61037536600461240e565b6108dd565b604080516001600160a01b039788168152969095166020870152938501929092526060840152608083015260a082015260c001610277565b600b5461029b906001600160a01b031681565b61026d60045481565b6103356103dc36600461240e565b610b1a565b61026d6103ef36600461240e565b610b51565b61026d60055481565b610335610c64565b6103356104133660046122fe565b610cd8565b60075461029b906001600160a01b031681565b6000546001600160a01b031661029b565b61034a61044a36600461243e565b600e6020908152600092835260408084209091529082529020805460019091015482565b61029b61047c36600461240e565b610d8d565b61049461048f3660046122fe565b610dfd565b6040519015158152602001610277565b610335610e59565b6104946104ba36600461240e565b610e85565b61026d610f37565b61026d6104d53660046123b1565b610f43565b6104946104e8366004612336565b611320565b61026d6104fb36600461240e565b61167f565b61026d6116ab565b61033561051636600461240e565b6116b6565b6103356116e5565b6103356105313660046122fe565b61186d565b60095461029b906001600160a01b031681565b6104946105573660046122fe565b611922565b61033561056a366004612386565b61192f565b61033561057d3660046122fe565b611963565b6104946105903660046122fe565b611a4d565b60085461029b906001600160a01b031681565b6103356105b636600461246d565b611aa9565b6000600554600014156105d057506000919050565b60045482111561060c5761060660055461060060016105fa60045487611cd790919063ffffffff16565b90611cd7565b90611d19565b92915050565b506000919050565b600d818154811061062457600080fd5b60009182526020909120600690910201805460018201546002830154600384015460048501546005909501546001600160a01b0390941695509193909286565b6000546001600160a01b031633146106975760405162461bcd60e51b815260040161068e90612568565b60405180910390fd5b80156106a5576106a5610e59565b6106f6826106f0600d86815481106106cd57634e487b7160e01b600052603260045260246000fd5b906000526020600020906006020160030154600654611cd790919063ffffffff16565b90611d5b565b60068190555081600d848154811061071e57634e487b7160e01b600052603260045260246000fd5b906000526020600020906006020160030181905550505050565b600d54600090819061074c906001906126df565b84111561079b5760405162461bcd60e51b815260206004820152601e60248201527f537761704d696e696e673a204e6f742066696e64207468697320706f6f6c0000604482015260640161068e565b600080600d86815481106107bf57634e487b7160e01b600052603260045260246000fd5b600091825260208083206040805160c081018252600690940290910180546001600160a01b03908116855260018083015486860152600283015486850152600383015460608701526004830154608087015260059092015460a08601528b8652600e8452828620908b168652835293819020815180830190925280548083529401549181019190915290925090156108bf5760006108608360a00151610b51565b90506000610881600654610600866060015185611dba90919063ffffffff16565b90506108ba6108b3856020015161060086600001516108ad868a60800151611d5b90919063ffffffff16565b90611dba565b8690611d5b565b945050505b519196919550909350505050565b60006108d84361167f565b905090565b6000806000806000806001600d805490506108f891906126df565b8711156109475760405162461bcd60e51b815260206004820152601e60248201527f537761704d696e696e673a204e6f742066696e64207468697320706f6f6c0000604482015260640161068e565b6000600d888154811061096a57634e487b7160e01b600052603260045260246000fd5b600091825260208083206040805160c081018252600690940290910180546001600160a01b031680855260018201548585015260028201548584015260038201546060860152600480830154608087015260059092015460a08601528251630dfe168160e01b8152925194965093630dfe16819383830193909290829003018186803b1580156109f957600080fd5b505afa158015610a0d573d6000803e3d6000fd5b505050506040513d601f19601f82011682018060405250810190610a31919061231a565b9050600082600001516001600160a01b031663d21220a76040518163ffffffff1660e01b815260040160206040518083038186803b158015610a7257600080fd5b505afa158015610a86573d6000803e3d6000fd5b505050506040513d601f19601f82011682018060405250810190610aaa919061231a565b90506000836080015190506000610ac48560a00151610b51565b90506000610ae5600654610600886060015185611dba90919063ffffffff16565b9050610af18382611d5b565b60408701516020880151606090980151969f959e50909c509a5094985092965090945050505050565b6000546001600160a01b03163314610b445760405162461bcd60e51b815260040161068e90612568565b610b4c610e59565b600355565b600043821115610bc15760405162461bcd60e51b815260206004820152603560248201527f537761704d696e696e673a206d757374206c6974746c65207468616e207468656044820152741031bab93932b73a10313637b1b590373ab6b132b960591b606482015260840161068e565b600080610bcd846105bb565b90506000610bda436105bb565b90505b80821015610c3b5781610bef816126f6565b9250506000610c0f6004546106f060055486611dba90919063ffffffff16565b9050610c31610c2a610c208361167f565b6108ad848a611cd7565b8590611d5b565b9095509250610bdd565b610c5b610c54610c4a4361167f565b6108ad4389611cd7565b8490611d5b565b95945050505050565b6000546001600160a01b03163314610c8e5760405162461bcd60e51b815260040161068e90612568565b600080546040516001600160a01b03909116907f8be0079c531659141344cd1fd0a4f28419497f9722a3daafe3b4186f6b6457e0908390a3600080546001600160a01b0319169055565b6000546001600160a01b03163314610d025760405162461bcd60e51b815260040161068e90612568565b6001600160a01b038116610d6b5760405162461bcd60e51b815260206004820152602a60248201527f537761704d696e696e673a206e6577206f7261636c6520697320746865207a65604482015269726f206164647265737360b01b606482015260840161068e565b600780546001600160a01b0319166001600160a01b0392909216919091179055565b60006001610d99610f37565b610da391906126df565b821115610df25760405162461bcd60e51b815260206004820152601f60248201527f537761704d696e696e673a20696e646578206f7574206f6620626f756e647300604482015260640161068e565b610606600183611e39565b600080546001600160a01b03163314610e285760405162461bcd60e51b815260040161068e90612568565b6001600160a01b038216610e4e5760405162461bcd60e51b815260040161068e90612523565b610606600183611e45565b600d5460005b81811015610e8157610e7081610e85565b50610e7a816126f6565b9050610e5f565b5050565b600080600d8381548110610ea957634e487b7160e01b600052603260045260246000fd5b9060005260206000209060060201905080600501544311610ecd5750600092915050565b6000610edc8260050154610b51565b905060008111610ef0575060009392505050565b6000610f0f600654610600856003015485611dba90919063ffffffff16565b6004840154909150610f219082611d5b565b6004840155505043600590910155506001919050565b60006108d86001611e5a565b6000806001600160a01b038581169084161415610f61575082611318565b60095460405163e6a4390560e01b81526001600160a01b0387811660048301528581166024830152600092169063e6a439059060440160206040518083038186803b158015610faf57600080fd5b505afa158015610fc3573d6000803e3d6000fd5b505050506040513d601f19601f82011682018060405250810190610fe7919061231a565b6001600160a01b03161461108857600754604051632321bc7960e21b81526001600160a01b03878116600483015260248201879052858116604483015290911690638c86f1e49060640160206040518083038186803b15801561104957600080fd5b505afa15801561105d573d6000803e3d6000fd5b505050506040513d601f19601f820116820180604052508101906110819190612426565b9050611318565b6000611092610f37565b905060005b818110156113155760006110aa82610d8d565b60095460405163e6a4390560e01b81526001600160a01b038b8116600483015280841660248301529293506000929091169063e6a439059060440160206040518083038186803b1580156110fd57600080fd5b505afa158015611111573d6000803e3d6000fd5b505050506040513d601f19601f82011682018060405250810190611135919061231a565b6001600160a01b0316141580156111d9575060095460405163e6a4390560e01b81526001600160a01b0383811660048301528881166024830152600092169063e6a439059060440160206040518083038186803b15801561119557600080fd5b505afa1580156111a9573d6000803e3d6000fd5b505050506040513d601f19601f820116820180604052508101906111cd919061231a565b6001600160a01b031614155b1561130257600754604051632321bc7960e21b81526001600160a01b038a81166004830152602482018a905283811660448301526000921690638c86f1e49060640160206040518083038186803b15801561123357600080fd5b505afa158015611247573d6000803e3d6000fd5b505050506040513d601f19601f8201168201806040525081019061126b9190612426565b600754604051632321bc7960e21b81526001600160a01b038581166004830152602482018490528a81166044830152929350911690638c86f1e49060640160206040518083038186803b1580156112c157600080fd5b505afa1580156112d5573d6000803e3d6000fd5b505050506040513d601f19601f820116820180604052508101906112f99190612426565b94505050611315565b508061130d816126f6565b915050611097565b50505b949350505050565b6008546000906001600160a01b031633146113895760405162461bcd60e51b8152602060048201526024808201527f537761704d696e696e673a2063616c6c6572206973206e6f742074686520726f6044820152633aba32b960e11b606482015260840161068e565b6001600160a01b0385166113fa5760405162461bcd60e51b815260206004820152603260248201527f537761704d696e696e673a2074616b65722073776170206163636f756e7420696044820152717320746865207a65726f206164647265737360701b606482015260840161068e565b6001600160a01b0384166114695760405162461bcd60e51b815260206004820152603060248201527f537761704d696e696e673a2074616b6572207377617020696e7075742069732060448201526f746865207a65726f206164647265737360801b606482015260840161068e565b6001600160a01b0383166114d95760405162461bcd60e51b815260206004820152603160248201527f537761704d696e696e673a2074616b65722073776170206f757470757420697360448201527020746865207a65726f206164647265737360781b606482015260840161068e565b60006114e4600d5490565b116114f157506000611318565b6114fa84611922565b158061150c575061150a83611922565b155b1561151957506000611318565b600954600090611533906001600160a01b03168686611e64565b6001600160a01b0381166000908152600c6020526040812054600d80549394509192811061157157634e487b7160e01b600052603260045260246000fd5b6000918252602090912060069091020180549091506001600160a01b0383811691161415806115a257506003810154155b156115b257600092505050611318565b600b546000906115ce90879087906001600160a01b0316610f43565b9050600081116115e45760009350505050611318565b6001600160a01b0383166000908152600c602052604090205461160690610e85565b5060018201546116169082611d5b565b6001830155600282015461162a9082611d5b565b60028301556001600160a01b038084166000908152600c60209081526040808320548352600e8252808320938c16835292905220805461166a9083611d5b565b81554360019182015598975050505050505050565b60008061168b836105bb565b90506116a461169b826002612618565b60035490611d19565b9392505050565b60006108d8436105bb565b6000546001600160a01b031633146116e05760405162461bcd60e51b815260040161068e90612568565b600555565b600d54600090815b818110156117ce576000600d828154811061171857634e487b7160e01b600052603260045260246000fd5b60009182526020808320858452600e825260408085203386529092529220805460069092029092019250156117bb5761175083610e85565b506000611776836001015461060084600001548660040154611dba90919063ffffffff16565b8254600185015491925061178a9190611cd7565b6001840155600483015461179e9082611cd7565b6004840155600082554360018301556117b78682611d5b565b9550505b5050806117c7906126f6565b90506116ed565b50600082116117db575050565b6117e482611ee9565b600a5460405163a9059cbb60e01b8152336004820152602481018490526001600160a01b039091169063a9059cbb90604401602060405180830381600087803b15801561183057600080fd5b505af1158015611844573d6000803e3d6000fd5b505050506040513d601f19601f8201168201806040525081019061186891906123f2565b505050565b6000546001600160a01b031633146118975760405162461bcd60e51b815260040161068e90612568565b6001600160a01b0381166119005760405162461bcd60e51b815260206004820152602a60248201527f537761704d696e696e673a206e657720726f7574657220697320746865207a65604482015269726f206164647265737360b01b606482015260840161068e565b600880546001600160a01b0319166001600160a01b0392909216919091179055565b6000610606600183611f31565b6000546001600160a01b031633146119595760405162461bcd60e51b815260040161068e90612568565b610e818282611f53565b6000546001600160a01b0316331461198d5760405162461bcd60e51b815260040161068e90612568565b6001600160a01b0381166119f25760405162461bcd60e51b815260206004820152602660248201527f4f776e61626c653a206e6577206f776e657220697320746865207a65726f206160448201526564647265737360d01b606482015260840161068e565b600080546040516001600160a01b03808516939216917f8be0079c531659141344cd1fd0a4f28419497f9722a3daafe3b4186f6b6457e091a3600080546001600160a01b0319166001600160a01b0392909216919091179055565b600080546001600160a01b03163314611a785760405162461bcd60e51b815260040161068e90612568565b6001600160a01b038216611a9e5760405162461bcd60e51b815260040161068e90612523565b610606600183612069565b6000546001600160a01b03163314611ad35760405162461bcd60e51b815260040161068e90612568565b6001600160a01b038216611b295760405162461bcd60e51b815260206004820152601960248201527f5f7061697220697320746865207a65726f206164647265737300000000000000604482015260640161068e565b8015611b3757611b37610e59565b60006004544311611b4a57600454611b4c565b435b600654909150611b5c9085611d5b565b60069081556040805160c0810182526001600160a01b038681168252600060208301818152938301818152606084018a81526080850183815260a08601898152600d8054600180820183559682905297517fd7b6990105719101dabeb77144f2a3385c8033acd3af97e9423a695e81ad1eb598909a0297880180546001600160a01b0319169a9097169990991790955595517fd7b6990105719101dabeb77144f2a3385c8033acd3af97e9423a695e81ad1eb686015590517fd7b6990105719101dabeb77144f2a3385c8033acd3af97e9423a695e81ad1eb7850155517fd7b6990105719101dabeb77144f2a3385c8033acd3af97e9423a695e81ad1eb884015592517fd7b6990105719101dabeb77144f2a3385c8033acd3af97e9423a695e81ad1eb9830155517fd7b6990105719101dabeb77144f2a3385c8033acd3af97e9423a695e81ad1eba909101559054611cb591906126df565b6001600160a01b039093166000908152600c6020526040902092909255505050565b60006116a483836040518060400160405280601e81526020017f536166654d6174683a207375627472616374696f6e206f766572666c6f77000081525061207e565b60006116a483836040518060400160405280601a81526020017f536166654d6174683a206469766973696f6e206279207a65726f0000000000008152506120af565b600080611d68838561259d565b9050838110156116a45760405162461bcd60e51b815260206004820152601b60248201527f536166654d6174683a206164646974696f6e206f766572666c6f770000000000604482015260640161068e565b600082611dc957506000610606565b6000611dd583856126c0565b905082611de285836125b5565b146116a45760405162461bcd60e51b815260206004820152602160248201527f536166654d6174683a206d756c7469706c69636174696f6e206f766572666c6f6044820152607760f81b606482015260840161068e565b60006116a483836120dd565b60006116a4836001600160a01b038416612171565b6000610606825490565b60405163e6a4390560e01b81526001600160a01b03838116600483015282811660248301526000919085169063e6a439059060440160206040518083038186803b158015611eb157600080fd5b505afa158015611ec5573d6000803e3d6000fd5b505050506040513d601f19601f82011682018060405250810190611318919061231a565b611f2e81604051602401611eff91815260200190565b60408051601f198184030181529190526020810180516001600160e01b031663f5b1bba960e01b17905261228e565b50565b6001600160a01b038116600090815260018301602052604081205415156116a4565b600a546040516370a0823160e01b81523060048201526000916001600160a01b0316906370a082319060240160206040518083038186803b158015611f9757600080fd5b505afa158015611fab573d6000803e3d6000fd5b505050506040513d601f19601f82011682018060405250810190611fcf9190612426565b905080821115611fdd578091505b600a5460405163a9059cbb60e01b81526001600160a01b038581166004830152602482018590529091169063a9059cbb90604401602060405180830381600087803b15801561202b57600080fd5b505af115801561203f573d6000803e3d6000fd5b505050506040513d601f19601f8201168201806040525081019061206391906123f2565b50505050565b60006116a4836001600160a01b0384166122af565b600081848411156120a25760405162461bcd60e51b815260040161068e91906124d0565b506000610c5b84866126df565b600081836120d05760405162461bcd60e51b815260040161068e91906124d0565b506000610c5b84866125b5565b8154600090821061213b5760405162461bcd60e51b815260206004820152602260248201527f456e756d657261626c655365743a20696e646578206f7574206f6620626f756e604482015261647360f01b606482015260840161068e565b82600001828154811061215e57634e487b7160e01b600052603260045260246000fd5b9060005260206000200154905092915050565b600081815260018301602052604081205480156122845760006121956001836126df565b85549091506000906121a9906001906126df565b905060008660000182815481106121d057634e487b7160e01b600052603260045260246000fd5b906000526020600020015490508087600001848154811061220157634e487b7160e01b600052603260045260246000fd5b60009182526020909120015561221883600161259d565b6000828152600189016020526040902055865487908061224857634e487b7160e01b600052603160045260246000fd5b60019003818190600052602060002001600090559055866001016000878152602001908152602001600020600090556001945050505050610606565b6000915050610606565b80516a636f6e736f6c652e6c6f67602083016000808483855afa5050505050565b60008181526001830160205260408120546122f657508154600181810184556000848152602080822090930184905584548482528286019093526040902091909155610606565b506000610606565b60006020828403121561230f578081fd5b81356116a481612727565b60006020828403121561232b578081fd5b81516116a481612727565b6000806000806080858703121561234b578283fd5b843561235681612727565b9350602085013561236681612727565b9250604085013561237681612727565b9396929550929360600135925050565b60008060408385031215612398578182fd5b82356123a381612727565b946020939093013593505050565b6000806000606084860312156123c5578283fd5b83356123d081612727565b92506020840135915060408401356123e781612727565b809150509250925092565b600060208284031215612403578081fd5b81516116a48161273c565b60006020828403121561241f578081fd5b5035919050565b600060208284031215612437578081fd5b5051919050565b60008060408385031215612450578182fd5b82359150602083013561246281612727565b809150509250929050565b600080600060608486031215612481578283fd5b83359250602084013561249381612727565b915060408401356123e78161273c565b6000806000606084860312156124b7578283fd5b833592506020840135915060408401356123e78161273c565b6000602080835283518082850152825b818110156124fc578581018301518582016040015282016124e0565b8181111561250d5783604083870101525b50601f01601f1916929092016040019392505050565b60208082526025908201527f537761704d696e696e673a20746f6b656e20697320746865207a65726f206164604082015264647265737360d81b606082015260800190565b6020808252818101527f4f776e61626c653a2063616c6c6572206973206e6f7420746865206f776e6572604082015260600190565b600082198211156125b0576125b0612711565b500190565b6000826125d057634e487b7160e01b81526012600452602481fd5b500490565b600181815b808511156126105781600019048211156125f6576125f6612711565b8085161561260357918102915b93841c93908002906125da565b509250929050565b60006116a4838360008261262e57506001610606565b8161263b57506000610606565b8160018114612651576002811461265b57612677565b6001915050610606565b60ff84111561266c5761266c612711565b50506001821b610606565b5060208310610133831016604e8410600b841016171561269a575081810a610606565b6126a483836125d5565b80600019048211156126b8576126b8612711565b029392505050565b60008160001904831182151516156126da576126da612711565b500290565b6000828210156126f1576126f1612711565b500390565b600060001982141561270a5761270a612711565b5060010190565b634e487b7160e01b600052601160045260246000fd5b6001600160a01b0381168114611f2e57600080fd5b8015158114611f2e57600080fdfea26469706673582212208a3ec67f934e2b26f58031de411a16dd512bd16e39cfb51b299785c67ce1ae8964736f6c63430008040033",
  "linkReferences": {},
  "deployedLinkReferences": {}
}