{
  "_format": "hh-sol-artifact-1",
  "contractName": "SwapMining",
  "sourceName": "contracts/farm/SwapMining.sol",
  "abi": [
    {
      "inputs": [
        {
          "internalType": "contract CairoToken",
          "name": "_cairoToken",
          "type": "address"
        },
        {
          "internalType": "contract ICairoFactory",
          "name": "_factory",
          "type": "address"
        },
        {
          "internalType": "contract IOracle",
          "name": "_oracle",
          "type": "address"
        },
        {
          "internalType": "address",
          "name": "_router",
          "type": "address"
        },
        {
          "internalType": "address",
          "name": "_targetToken",
          "type": "address"
        },
        {
          "internalType": "uint256",
          "name": "_cairoPerBlock",
          "type": "uint256"
        },
        {
          "internalType": "uint256",
          "name": "_startBlock",
          "type": "uint256"
        }
      ],
      "stateMutability": "nonpayable",
      "type": "constructor"
    },
    {
      "anonymous": false,
      "inputs": [
        {
          "indexed": true,
          "internalType": "address",
          "name": "previousOwner",
          "type": "address"
        },
        {
          "indexed": true,
          "internalType": "address",
          "name": "newOwner",
          "type": "address"
        }
      ],
      "name": "OwnershipTransferred",
      "type": "event"
    },
    {
      "inputs": [
        {
          "internalType": "uint256",
          "name": "_allocPoint",
          "type": "uint256"
        },
        {
          "internalType": "address",
          "name": "_pair",
          "type": "address"
        },
        {
          "internalType": "bool",
          "name": "_withUpdate",
          "type": "bool"
        }
      ],
      "name": "addPair",
      "outputs": [],
      "stateMutability": "nonpayable",
      "type": "function"
    },
    {
      "inputs": [
        {
          "internalType": "address",
          "name": "_addToken",
          "type": "address"
        }
      ],
      "name": "addWhitelist",
      "outputs": [
        {
          "internalType": "bool",
          "name": "",
          "type": "bool"
        }
      ],
      "stateMutability": "nonpayable",
      "type": "function"
    },
    {
      "inputs": [],
      "name": "cairoPerBlock",
      "outputs": [
        {
          "internalType": "uint256",
          "name": "",
          "type": "uint256"
        }
      ],
      "stateMutability": "view",
      "type": "function"
    },
    {
      "inputs": [],
      "name": "cairoToken",
      "outputs": [
        {
          "internalType": "contract CairoToken",
          "name": "",
          "type": "address"
        }
      ],
      "stateMutability": "view",
      "type": "function"
    },
    {
      "inputs": [
        {
          "internalType": "address",
          "name": "_delToken",
          "type": "address"
        }
      ],
      "name": "delWhitelist",
      "outputs": [
        {
          "internalType": "bool",
          "name": "",
          "type": "bool"
        }
      ],
      "stateMutability": "nonpayable",
      "type": "function"
    },
    {
      "inputs": [],
      "name": "factory",
      "outputs": [
        {
          "internalType": "contract ICairoFactory",
          "name": "",
          "type": "address"
        }
      ],
      "stateMutability": "view",
      "type": "function"
    },
    {
      "inputs": [
        {
          "internalType": "uint256",
          "name": "_lastRewardBlock",
          "type": "uint256"
        }
      ],
      "name": "getCairoReward",
      "outputs": [
        {
          "internalType": "uint256",
          "name": "",
          "type": "uint256"
        }
      ],
      "stateMutability": "view",
      "type": "function"
    },
    {
      "inputs": [
        {
          "internalType": "uint256",
          "name": "_pid",
          "type": "uint256"
        }
      ],
      "name": "getPoolInfo",
      "outputs": [
        {
          "internalType": "address",
          "name": "",
          "type": "address"
        },
        {
          "internalType": "address",
          "name": "",
          "type": "address"
        },
        {
          "internalType": "uint256",
          "name": "",
          "type": "uint256"
        },
        {
          "internalType": "uint256",
          "name": "",
          "type": "uint256"
        },
        {
          "internalType": "uint256",
          "name": "",
          "type": "uint256"
        },
        {
          "internalType": "uint256",
          "name": "",
          "type": "uint256"
        }
      ],
      "stateMutability": "view",
      "type": "function"
    },
    {
      "inputs": [
        {
          "internalType": "address",
          "name": "outputToken",
          "type": "address"
        },
        {
          "internalType": "uint256",
          "name": "outputAmount",
          "type": "uint256"
        },
        {
          "internalType": "address",
          "name": "anchorToken",
          "type": "address"
        }
      ],
      "name": "getQuantity",
      "outputs": [
        {
          "internalType": "uint256",
          "name": "",
          "type": "uint256"
        }
      ],
      "stateMutability": "view",
      "type": "function"
    },
    {
      "inputs": [
        {
          "internalType": "uint256",
          "name": "_pid",
          "type": "uint256"
        },
        {
          "internalType": "address",
          "name": "_user",
          "type": "address"
        }
      ],
      "name": "getUserReward",
      "outputs": [
        {
          "internalType": "uint256",
          "name": "",
          "type": "uint256"
        },
        {
          "internalType": "uint256",
          "name": "",
          "type": "uint256"
        }
      ],
      "stateMutability": "view",
      "type": "function"
    },
    {
      "inputs": [
        {
          "internalType": "uint256",
          "name": "_index",
          "type": "uint256"
        }
      ],
      "name": "getWhitelist",
      "outputs": [
        {
          "internalType": "address",
          "name": "",
          "type": "address"
        }
      ],
      "stateMutability": "view",
      "type": "function"
    },
    {
      "inputs": [],
      "name": "getWhitelistLength",
      "outputs": [
        {
          "internalType": "uint256",
          "name": "",
          "type": "uint256"
        }
      ],
      "stateMutability": "view",
      "type": "function"
    },
    {
      "inputs": [],
      "name": "halvingPeriod",
      "outputs": [
        {
          "internalType": "uint256",
          "name": "",
          "type": "uint256"
        }
      ],
      "stateMutability": "view",
      "type": "function"
    },
    {
      "inputs": [
        {
          "internalType": "address",
          "name": "_token",
          "type": "address"
        }
      ],
      "name": "isWhitelist",
      "outputs": [
        {
          "internalType": "bool",
          "name": "",
          "type": "bool"
        }
      ],
      "stateMutability": "view",
      "type": "function"
    },
    {
      "inputs": [],
      "name": "massMintPools",
      "outputs": [],
      "stateMutability": "nonpayable",
      "type": "function"
    },
    {
      "inputs": [
        {
          "internalType": "uint256",
          "name": "_pid",
          "type": "uint256"
        }
      ],
      "name": "mint",
      "outputs": [
        {
          "internalType": "bool",
          "name": "",
          "type": "bool"
        }
      ],
      "stateMutability": "nonpayable",
      "type": "function"
    },
    {
      "inputs": [],
      "name": "oracle",
      "outputs": [
        {
          "internalType": "contract IOracle",
          "name": "",
          "type": "address"
        }
      ],
      "stateMutability": "view",
      "type": "function"
    },
    {
      "inputs": [],
      "name": "owner",
      "outputs": [
        {
          "internalType": "address",
          "name": "",
          "type": "address"
        }
      ],
      "stateMutability": "view",
      "type": "function"
    },
    {
      "inputs": [
        {
          "internalType": "address",
          "name": "_to",
          "type": "address"
        },
        {
          "internalType": "uint256",
          "name": "_amount",
          "type": "uint256"
        }
      ],
      "name": "ownerWithdraw",
      "outputs": [],
      "stateMutability": "nonpayable",
      "type": "function"
    },
    {
      "inputs": [
        {
          "internalType": "address",
          "name": "",
          "type": "address"
        }
      ],
      "name": "pairOfPid",
      "outputs": [
        {
          "internalType": "uint256",
          "name": "",
          "type": "uint256"
        }
      ],
      "stateMutability": "view",
      "type": "function"
    },
    {
      "inputs": [
        {
          "internalType": "uint256",
          "name": "blockNumber",
          "type": "uint256"
        }
      ],
      "name": "phase",
      "outputs": [
        {
          "internalType": "uint256",
          "name": "",
          "type": "uint256"
        }
      ],
      "stateMutability": "view",
      "type": "function"
    },
    {
      "inputs": [],
      "name": "phase",
      "outputs": [
        {
          "internalType": "uint256",
          "name": "",
          "type": "uint256"
        }
      ],
      "stateMutability": "view",
      "type": "function"
    },
    {
      "inputs": [
        {
          "internalType": "uint256",
          "name": "",
          "type": "uint256"
        }
      ],
      "name": "poolInfo",
      "outputs": [
        {
          "internalType": "address",
          "name": "pair",
          "type": "address"
        },
        {
          "internalType": "uint256",
          "name": "quantity",
          "type": "uint256"
        },
        {
          "internalType": "uint256",
          "name": "totalQuantity",
          "type": "uint256"
        },
        {
          "internalType": "uint256",
          "name": "allocPoint",
          "type": "uint256"
        },
        {
          "internalType": "uint256",
          "name": "allocMdxAmount",
          "type": "uint256"
        },
        {
          "internalType": "uint256",
          "name": "lastRewardBlock",
          "type": "uint256"
        }
      ],
      "stateMutability": "view",
      "type": "function"
    },
    {
      "inputs": [],
      "name": "poolLength",
      "outputs": [
        {
          "internalType": "uint256",
          "name": "",
          "type": "uint256"
        }
      ],
      "stateMutability": "view",
      "type": "function"
    },
    {
      "inputs": [],
      "name": "renounceOwnership",
      "outputs": [],
      "stateMutability": "nonpayable",
      "type": "function"
    },
    {
      "inputs": [],
      "name": "reward",
      "outputs": [
        {
          "internalType": "uint256",
          "name": "",
          "type": "uint256"
        }
      ],
      "stateMutability": "view",
      "type": "function"
    },
    {
      "inputs": [
        {
          "internalType": "uint256",
          "name": "blockNumber",
          "type": "uint256"
        }
      ],
      "name": "reward",
      "outputs": [
        {
          "internalType": "uint256",
          "name": "",
          "type": "uint256"
        }
      ],
      "stateMutability": "view",
      "type": "function"
    },
    {
      "inputs": [],
      "name": "router",
      "outputs": [
        {
          "internalType": "address",
          "name": "",
          "type": "address"
        }
      ],
      "stateMutability": "view",
      "type": "function"
    },
    {
      "inputs": [
        {
          "internalType": "uint256",
          "name": "_newPerBlock",
          "type": "uint256"
        }
      ],
      "name": "setCairoPerBlock",
      "outputs": [],
      "stateMutability": "nonpayable",
      "type": "function"
    },
    {
      "inputs": [
        {
          "internalType": "uint256",
          "name": "_block",
          "type": "uint256"
        }
      ],
      "name": "setHalvingPeriod",
      "outputs": [],
      "stateMutability": "nonpayable",
      "type": "function"
    },
    {
      "inputs": [
        {
          "internalType": "contract IOracle",
          "name": "_oracle",
          "type": "address"
        }
      ],
      "name": "setOracle",
      "outputs": [],
      "stateMutability": "nonpayable",
      "type": "function"
    },
    {
      "inputs": [
        {
          "internalType": "uint256",
          "name": "_pid",
          "type": "uint256"
        },
        {
          "internalType": "uint256",
          "name": "_allocPoint",
          "type": "uint256"
        },
        {
          "internalType": "bool",
          "name": "_withUpdate",
          "type": "bool"
        }
      ],
      "name": "setPair",
      "outputs": [],
      "stateMutability": "nonpayable",
      "type": "function"
    },
    {
      "inputs": [
        {
          "internalType": "address",
          "name": "newRouter",
          "type": "address"
        }
      ],
      "name": "setRouter",
      "outputs": [],
      "stateMutability": "nonpayable",
      "type": "function"
    },
    {
      "inputs": [],
      "name": "startBlock",
      "outputs": [
        {
          "internalType": "uint256",
          "name": "",
          "type": "uint256"
        }
      ],
      "stateMutability": "view",
      "type": "function"
    },
    {
      "inputs": [
        {
          "internalType": "address",
          "name": "account",
          "type": "address"
        },
        {
          "internalType": "address",
          "name": "input",
          "type": "address"
        },
        {
          "internalType": "address",
          "name": "output",
          "type": "address"
        },
        {
          "internalType": "uint256",
          "name": "amount",
          "type": "uint256"
        }
      ],
      "name": "swap",
      "outputs": [
        {
          "internalType": "bool",
          "name": "",
          "type": "bool"
        }
      ],
      "stateMutability": "nonpayable",
      "type": "function"
    },
    {
      "inputs": [],
      "name": "takerWithdraw",
      "outputs": [],
      "stateMutability": "nonpayable",
      "type": "function"
    },
    {
      "inputs": [],
      "name": "targetToken",
      "outputs": [
        {
          "internalType": "address",
          "name": "",
          "type": "address"
        }
      ],
      "stateMutability": "view",
      "type": "function"
    },
    {
      "inputs": [],
      "name": "totalAllocPoint",
      "outputs": [
        {
          "internalType": "uint256",
          "name": "",
          "type": "uint256"
        }
      ],
      "stateMutability": "view",
      "type": "function"
    },
    {
      "inputs": [
        {
          "internalType": "address",
          "name": "newOwner",
          "type": "address"
        }
      ],
      "name": "transferOwnership",
      "outputs": [],
      "stateMutability": "nonpayable",
      "type": "function"
    },
    {
      "inputs": [
        {
          "internalType": "uint256",
          "name": "",
          "type": "uint256"
        },
        {
          "internalType": "address",
          "name": "",
          "type": "address"
        }
      ],
      "name": "userInfo",
      "outputs": [
        {
          "internalType": "uint256",
          "name": "quantity",
          "type": "uint256"
        },
        {
          "internalType": "uint256",
          "name": "blockNumber",
          "type": "uint256"
        }
      ],
      "stateMutability": "view",
      "type": "function"
    }
  ],
  "bytecode": "0x60806040526250334060055560006006553480156200001d57600080fd5b5060405162004e0a38038062004e0a83398181016040528101906200004391906200049a565b6000620000556200041f60201b60201c565b9050806000806101000a81548173ffffffffffffffffffffffffffffffffffffffff021916908373ffffffffffffffffffffffffffffffffffffffff1602179055508073ffffffffffffffffffffffffffffffffffffffff16600073ffffffffffffffffffffffffffffffffffffffff167f8be0079c531659141344cd1fd0a4f28419497f9722a3daafe3b4186f6b6457e060405160405180910390a350600073ffffffffffffffffffffffffffffffffffffffff168773ffffffffffffffffffffffffffffffffffffffff16141562000166576040517f08c379a00000000000000000000000000000000000000000000000000000000081526004016200015d906200056e565b60405180910390fd5b86600a60006101000a81548173ffffffffffffffffffffffffffffffffffffffff021916908373ffffffffffffffffffffffffffffffffffffffff160217905550600073ffffffffffffffffffffffffffffffffffffffff168673ffffffffffffffffffffffffffffffffffffffff1614156200021a576040517f08c379a000000000000000000000000000000000000000000000000000000000815260040162000211906200056e565b60405180910390fd5b85600960006101000a81548173ffffffffffffffffffffffffffffffffffffffff021916908373ffffffffffffffffffffffffffffffffffffffff160217905550600073ffffffffffffffffffffffffffffffffffffffff168573ffffffffffffffffffffffffffffffffffffffff161415620002ce576040517f08c379a0000000000000000000000000000000000000000000000000000000008152600401620002c5906200056e565b60405180910390fd5b84600760006101000a81548173ffffffffffffffffffffffffffffffffffffffff021916908373ffffffffffffffffffffffffffffffffffffffff160217905550600073ffffffffffffffffffffffffffffffffffffffff168473ffffffffffffffffffffffffffffffffffffffff16141562000382576040517f08c379a000000000000000000000000000000000000000000000000000000000815260040162000379906200056e565b60405180910390fd5b83600860006101000a81548173ffffffffffffffffffffffffffffffffffffffff021916908373ffffffffffffffffffffffffffffffffffffffff16021790555082600b60006101000a81548173ffffffffffffffffffffffffffffffffffffffff021916908373ffffffffffffffffffffffffffffffffffffffff160217905550816003819055508060048190555050505050505050620006c6565b600033905090565b600081519050620004388162000644565b92915050565b6000815190506200044f816200065e565b92915050565b600081519050620004668162000678565b92915050565b6000815190506200047d8162000692565b92915050565b6000815190506200049481620006ac565b92915050565b600080600080600080600060e0888a031215620004b657600080fd5b6000620004c68a828b016200043e565b9750506020620004d98a828b0162000455565b9650506040620004ec8a828b016200046c565b9550506060620004ff8a828b0162000427565b9450506080620005128a828b0162000427565b93505060a0620005258a828b0162000483565b92505060c0620005388a828b0162000483565b91505092959891949750929550565b600062000556600f8362000590565b915062000563826200061b565b602082019050919050565b60006020820190508181036000830152620005898162000547565b9050919050565b600082825260208201905092915050565b6000620005ae82620005f1565b9050919050565b6000620005c282620005a1565b9050919050565b6000620005d682620005a1565b9050919050565b6000620005ea82620005a1565b9050919050565b600073ffffffffffffffffffffffffffffffffffffffff82169050919050565b6000819050919050565b7f696c6c6567616c20616464726573730000000000000000000000000000000000600082015250565b6200064f81620005a1565b81146200065b57600080fd5b50565b6200066981620005b5565b81146200067557600080fd5b50565b6200068381620005c9565b81146200068f57600080fd5b50565b6200069d81620005dd565b8114620006a957600080fd5b50565b620006b78162000611565b8114620006c357600080fd5b50565b61473480620006d66000396000f3fe608060405234801561001057600080fd5b50600436106101d85760003560e01c80630495de50146101dd578063081e3eda1461020d57806311af210e1461022b57806311b26fdd14610249578063135f8aa7146102675780631526fe271461029757806317caf6f1146102cc578063190cf6c9146102ea5780632099920e14610306578063228cb733146103375780632f380b3514610355578063327107f71461038a57806348cd4cb1146103a85780634abebdad146103c65780634c6c378e146103e25780635a3e251f14610412578063715018a6146104305780637adbf9731461043a5780637dc0d1d0146104565780638da5cb5b1461047457806393f1a40b1461049257806396db752a146104c357806397ecfaab146104f35780639f4ece2e14610523578063a0712d681461052d578063a13202e91461055d578063a7ef67f61461057b578063a9678a18146105ab578063a9fb763c146105db578063b1c9fe6e1461060b578063b5ec5c9914610629578063b872dd0e14610645578063c0d786551461064f578063c45a01551461066b578063c683630d14610689578063d9c88e14146106b9578063f2fde38b146106d5578063f80f5dd5146106f1578063f887ea4014610721578063f9d181f91461073f575b600080fd5b6101f760048036038101906101f29190613457565b61075b565b6040516102049190613dcc565b60405180910390f35b610215610773565b6040516102229190613dcc565b60405180910390f35b610233610780565b6040516102409190613b59565b60405180910390f35b6102516107a6565b60405161025e9190613dcc565b60405180910390f35b610281600480360381019061027c91906135e9565b6107ac565b60405161028e9190613dcc565b60405180910390f35b6102b160048036038101906102ac91906135e9565b610818565b6040516102c396959493929190613add565b60405180910390f35b6102d4610884565b6040516102e19190613dcc565b60405180910390f35b61030460048036038101906102ff91906136c6565b61088a565b005b610320600480360381019061031b919061363b565b6109e2565b60405161032e929190613de7565b60405180910390f35b61033f610c47565b60405161034c9190613dcc565b60405180910390f35b61036f600480360381019061036a91906135e9565b610c57565b60405161038196959493929190613a1c565b60405180910390f35b610392610f2a565b60405161039f91906139d8565b60405180910390f35b6103b0610f50565b6040516103bd9190613dcc565b60405180910390f35b6103e060048036038101906103db91906135e9565b610f56565b005b6103fc60048036038101906103f791906135e9565b610fe4565b6040516104099190613dcc565b60405180910390f35b61041a61111e565b6040516104279190613dcc565b60405180910390f35b610438611124565b005b610454600480360381019061044f91906135c0565b61125e565b005b61045e61138e565b60405161046b9190613b8f565b60405180910390f35b61047c6113b4565b60405161048991906139d8565b60405180910390f35b6104ac60048036038101906104a7919061363b565b6113dd565b6040516104ba929190613de7565b60405180910390f35b6104dd60048036038101906104d891906135e9565b61140e565b6040516104ea91906139d8565b60405180910390f35b61050d60048036038101906105089190613457565b611478565b60405161051a9190613b3e565b60405180910390f35b61052b611578565b005b610547600480360381019061054291906135e9565b6115ac565b6040516105549190613b3e565b60405180910390f35b610565611696565b6040516105729190613dcc565b60405180910390f35b61059560048036038101906105909190613548565b6116a7565b6040516105a29190613dcc565b60405180910390f35b6105c560048036038101906105c091906134a9565b611bf9565b6040516105d29190613b3e565b60405180910390f35b6105f560048036038101906105f091906135e9565b6120e4565b6040516106029190613dcc565b60405180910390f35b61061361211b565b6040516106209190613dcc565b60405180910390f35b610643600480360381019061063e91906135e9565b61212b565b005b61064d6121b1565b005b61066960048036038101906106649190613457565b612400565b005b610673612530565b6040516106809190613b74565b60405180910390f35b6106a3600480360381019061069e9190613457565b612556565b6040516106b09190613b3e565b60405180910390f35b6106d360048036038101906106ce919061350c565b61256a565b005b6106ef60048036038101906106ea9190613457565b6125f4565b005b61070b60048036038101906107069190613457565b61279d565b6040516107189190613b3e565b60405180910390f35b61072961289d565b60405161073691906139d8565b60405180910390f35b61075960048036038101906107549190613677565b6128c3565b005b600c6020528060005260406000206000915090505481565b6000600d80549050905090565b600a60009054906101000a900473ffffffffffffffffffffffffffffffffffffffff1681565b60035481565b60008060055414156107c15760009050610813565b60045482111561080e576108076005546107f960016107eb60045487612b3990919063ffffffff16565b612b3990919063ffffffff16565b612b8390919063ffffffff16565b9050610813565b600090505b919050565b600d818154811061082857600080fd5b90600052602060002090600602016000915090508060000160009054906101000a900473ffffffffffffffffffffffffffffffffffffffff16908060010154908060020154908060030154908060040154908060050154905086565b60065481565b610892612bcd565b73ffffffffffffffffffffffffffffffffffffffff166108b06113b4565b73ffffffffffffffffffffffffffffffffffffffff1614610906576040517f08c379a00000000000000000000000000000000000000000000000000000000081526004016108fd90613d4c565b60405180910390fd5b801561091557610914611578565b5b61098782610979600d8681548110610956577f4e487b7100000000000000000000000000000000000000000000000000000000600052603260045260246000fd5b906000526020600020906006020160030154600654612b3990919063ffffffff16565b612bd590919063ffffffff16565b60068190555081600d84815481106109c8577f4e487b7100000000000000000000000000000000000000000000000000000000600052603260045260246000fd5b906000526020600020906006020160030181905550505050565b6000806001600d805490506109f7919061407e565b841115610a39576040517f08c379a0000000000000000000000000000000000000000000000000000000008152600401610a3090613d0c565b60405180910390fd5b600080600d8681548110610a76577f4e487b7100000000000000000000000000000000000000000000000000000000600052603260045260246000fd5b90600052602060002090600602016040518060c00160405290816000820160009054906101000a900473ffffffffffffffffffffffffffffffffffffffff1673ffffffffffffffffffffffffffffffffffffffff1673ffffffffffffffffffffffffffffffffffffffff1681526020016001820154815260200160028201548152602001600382015481526020016004820154815260200160058201548152505090506000600e600088815260200190815260200160002060008773ffffffffffffffffffffffffffffffffffffffff1673ffffffffffffffffffffffffffffffffffffffff168152602001908152602001600020604051806040016040529081600082015481526020016001820154815250509050600081600001511115610c33576000610ba88360a00151610fe4565b90506000610bd7600654610bc9866060015185612c3390919063ffffffff16565b612b8390919063ffffffff16565b9050610c2e610c1f8560200151610c118660000151610c03868a60800151612bd590919063ffffffff16565b612c3390919063ffffffff16565b612b8390919063ffffffff16565b86612bd590919063ffffffff16565b945050505b828160000151945094505050509250929050565b6000610c52436120e4565b905090565b6000806000806000806001600d80549050610c72919061407e565b871115610cb4576040517f08c379a0000000000000000000000000000000000000000000000000000000008152600401610cab90613d0c565b60405180910390fd5b6000600d8881548110610cf0577f4e487b7100000000000000000000000000000000000000000000000000000000600052603260045260246000fd5b90600052602060002090600602016040518060c00160405290816000820160009054906101000a900473ffffffffffffffffffffffffffffffffffffffff1673ffffffffffffffffffffffffffffffffffffffff1673ffffffffffffffffffffffffffffffffffffffff1681526020016001820154815260200160028201548152602001600382015481526020016004820154815260200160058201548152505090506000816000015173ffffffffffffffffffffffffffffffffffffffff16630dfe16816040518163ffffffff1660e01b815260040160206040518083038186803b158015610ddf57600080fd5b505afa158015610df3573d6000803e3d6000fd5b505050506040513d601f19601f82011682018060405250810190610e179190613480565b90506000826000015173ffffffffffffffffffffffffffffffffffffffff1663d21220a76040518163ffffffff1660e01b815260040160206040518083038186803b158015610e6557600080fd5b505afa158015610e79573d6000803e3d6000fd5b505050506040513d601f19601f82011682018060405250810190610e9d9190613480565b90506000836080015190506000610eb78560a00151610fe4565b90506000610ee6600654610ed8886060015185612c3390919063ffffffff16565b612b8390919063ffffffff16565b9050610efb8184612bd590919063ffffffff16565b9250848484886040015189602001518a606001519b509b509b509b509b509b5050505050505091939550919395565b600b60009054906101000a900473ffffffffffffffffffffffffffffffffffffffff1681565b60045481565b610f5e612bcd565b73ffffffffffffffffffffffffffffffffffffffff16610f7c6113b4565b73ffffffffffffffffffffffffffffffffffffffff1614610fd2576040517f08c379a0000000000000000000000000000000000000000000000000000000008152600401610fc990613d4c565b60405180910390fd5b610fda611578565b8060038190555050565b600043821115611029576040517f08c379a000000000000000000000000000000000000000000000000000000000815260040161102090613c2c565b60405180910390fd5b600080611035846107ac565b90506000611042436107ac565b90505b808210156110d2578180611058906141ab565b925050600061108660045461107860055486612c3390919063ffffffff16565b612bd590919063ffffffff16565b90506110c76110b8611097836120e4565b6110aa8985612b3990919063ffffffff16565b612c3390919063ffffffff16565b85612bd590919063ffffffff16565b935080955050611045565b6111116111026110e1436120e4565b6110f48843612b3990919063ffffffff16565b612c3390919063ffffffff16565b84612bd590919063ffffffff16565b9250829350505050919050565b60055481565b61112c612bcd565b73ffffffffffffffffffffffffffffffffffffffff1661114a6113b4565b73ffffffffffffffffffffffffffffffffffffffff16146111a0576040517f08c379a000000000000000000000000000000000000000000000000000000000815260040161119790613d4c565b60405180910390fd5b600073ffffffffffffffffffffffffffffffffffffffff1660008054906101000a900473ffffffffffffffffffffffffffffffffffffffff1673ffffffffffffffffffffffffffffffffffffffff167f8be0079c531659141344cd1fd0a4f28419497f9722a3daafe3b4186f6b6457e060405160405180910390a360008060006101000a81548173ffffffffffffffffffffffffffffffffffffffff021916908373ffffffffffffffffffffffffffffffffffffffff160217905550565b611266612bcd565b73ffffffffffffffffffffffffffffffffffffffff166112846113b4565b73ffffffffffffffffffffffffffffffffffffffff16146112da576040517f08c379a00000000000000000000000000000000000000000000000000000000081526004016112d190613d4c565b60405180910390fd5b600073ffffffffffffffffffffffffffffffffffffffff168173ffffffffffffffffffffffffffffffffffffffff16141561134a576040517f08c379a000000000000000000000000000000000000000000000000000000000815260040161134190613ccc565b60405180910390fd5b80600760006101000a81548173ffffffffffffffffffffffffffffffffffffffff021916908373ffffffffffffffffffffffffffffffffffffffff16021790555050565b600760009054906101000a900473ffffffffffffffffffffffffffffffffffffffff1681565b60008060009054906101000a900473ffffffffffffffffffffffffffffffffffffffff16905090565b600e602052816000526040600020602052806000526040600020600091509150508060000154908060010154905082565b6000600161141a611696565b611424919061407e565b821115611466576040517f08c379a000000000000000000000000000000000000000000000000000000000815260040161145d90613d8c565b60405180910390fd5b611471600183612cae565b9050919050565b6000611482612bcd565b73ffffffffffffffffffffffffffffffffffffffff166114a06113b4565b73ffffffffffffffffffffffffffffffffffffffff16146114f6576040517f08c379a00000000000000000000000000000000000000000000000000000000081526004016114ed90613d4c565b60405180910390fd5b600073ffffffffffffffffffffffffffffffffffffffff168273ffffffffffffffffffffffffffffffffffffffff161415611566576040517f08c379a000000000000000000000000000000000000000000000000000000000815260040161155d90613c6c565b60405180910390fd5b611571600183612cc8565b9050919050565b6000600d80549050905060005b818110156115a857611596816115ac565b50806115a1906141ab565b9050611585565b5050565b600080600d83815481106115e9577f4e487b7100000000000000000000000000000000000000000000000000000000600052603260045260246000fd5b906000526020600020906006020190508060050154431161160e576000915050611691565b600061161d8260050154610fe4565b90506000811161163257600092505050611691565b600061165f600654611651856003015485612c3390919063ffffffff16565b612b8390919063ffffffff16565b9050611678818460040154612bd590919063ffffffff16565b8360040181905550438360050181905550600193505050505b919050565b60006116a26001612cf8565b905090565b600080600090508273ffffffffffffffffffffffffffffffffffffffff168573ffffffffffffffffffffffffffffffffffffffff1614156116ea57839050611bee565b600073ffffffffffffffffffffffffffffffffffffffff16600960009054906101000a900473ffffffffffffffffffffffffffffffffffffffff1673ffffffffffffffffffffffffffffffffffffffff1663e6a4390587866040518363ffffffff1660e01b815260040161175f9291906139f3565b60206040518083038186803b15801561177757600080fd5b505afa15801561178b573d6000803e3d6000fd5b505050506040513d601f19601f820116820180604052508101906117af9190613480565b73ffffffffffffffffffffffffffffffffffffffff161461188057600760009054906101000a900473ffffffffffffffffffffffffffffffffffffffff1673ffffffffffffffffffffffffffffffffffffffff16638c86f1e48686866040518463ffffffff1660e01b815260040161182993929190613aa6565b60206040518083038186803b15801561184157600080fd5b505afa158015611855573d6000803e3d6000fd5b505050506040513d601f19601f820116820180604052508101906118799190613612565b9050611bed565b600061188a611696565b905060005b81811015611bea5760006118a28261140e565b9050600073ffffffffffffffffffffffffffffffffffffffff16600960009054906101000a900473ffffffffffffffffffffffffffffffffffffffff1673ffffffffffffffffffffffffffffffffffffffff1663e6a439058a846040518363ffffffff1660e01b81526004016119199291906139f3565b60206040518083038186803b15801561193157600080fd5b505afa158015611945573d6000803e3d6000fd5b505050506040513d601f19601f820116820180604052508101906119699190613480565b73ffffffffffffffffffffffffffffffffffffffff1614158015611a665750600073ffffffffffffffffffffffffffffffffffffffff16600960009054906101000a900473ffffffffffffffffffffffffffffffffffffffff1673ffffffffffffffffffffffffffffffffffffffff1663e6a4390583896040518363ffffffff1660e01b81526004016119fd9291906139f3565b60206040518083038186803b158015611a1557600080fd5b505afa158015611a29573d6000803e3d6000fd5b505050506040513d601f19601f82011682018060405250810190611a4d9190613480565b73ffffffffffffffffffffffffffffffffffffffff1614155b15611bd6576000600760009054906101000a900473ffffffffffffffffffffffffffffffffffffffff1673ffffffffffffffffffffffffffffffffffffffff16638c86f1e48a8a856040518463ffffffff1660e01b8152600401611acc93929190613aa6565b60206040518083038186803b158015611ae457600080fd5b505afa158015611af8573d6000803e3d6000fd5b505050506040513d601f19601f82011682018060405250810190611b1c9190613612565b9050600760009054906101000a900473ffffffffffffffffffffffffffffffffffffffff1673ffffffffffffffffffffffffffffffffffffffff16638c86f1e483838a6040518463ffffffff1660e01b8152600401611b7d93929190613aa6565b60206040518083038186803b158015611b9557600080fd5b505afa158015611ba9573d6000803e3d6000fd5b505050506040513d601f19601f82011682018060405250810190611bcd9190613612565b94505050611bea565b508080611be2906141ab565b91505061188f565b50505b5b809150509392505050565b6000600860009054906101000a900473ffffffffffffffffffffffffffffffffffffffff1673ffffffffffffffffffffffffffffffffffffffff163373ffffffffffffffffffffffffffffffffffffffff1614611c8b576040517f08c379a0000000000000000000000000000000000000000000000000000000008152600401611c8290613cec565b60405180910390fd5b600073ffffffffffffffffffffffffffffffffffffffff168573ffffffffffffffffffffffffffffffffffffffff161415611cfb576040517f08c379a0000000000000000000000000000000000000000000000000000000008152600401611cf290613d6c565b60405180910390fd5b600073ffffffffffffffffffffffffffffffffffffffff168473ffffffffffffffffffffffffffffffffffffffff161415611d6b576040517f08c379a0000000000000000000000000000000000000000000000000000000008152600401611d6290613dac565b60405180910390fd5b600073ffffffffffffffffffffffffffffffffffffffff168373ffffffffffffffffffffffffffffffffffffffff161415611ddb576040517f08c379a0000000000000000000000000000000000000000000000000000000008152600401611dd290613cac565b60405180910390fd5b6000611de5610773565b11611df357600090506120dc565b611dfc84612556565b1580611e0e5750611e0c83612556565b155b15611e1c57600090506120dc565b6000611e4b600960009054906101000a900473ffffffffffffffffffffffffffffffffffffffff168686612d0d565b90506000600d600c60008473ffffffffffffffffffffffffffffffffffffffff1673ffffffffffffffffffffffffffffffffffffffff1681526020019081526020016000205481548110611ec8577f4e487b7100000000000000000000000000000000000000000000000000000000600052603260045260246000fd5b906000526020600020906006020190508173ffffffffffffffffffffffffffffffffffffffff168160000160009054906101000a900473ffffffffffffffffffffffffffffffffffffffff1673ffffffffffffffffffffffffffffffffffffffff16141580611f3c57506000816003015411155b15611f4c576000925050506120dc565b6000611f7b8686600b60009054906101000a900473ffffffffffffffffffffffffffffffffffffffff166116a7565b905060008111611f9157600093505050506120dc565b611fd9600c60008573ffffffffffffffffffffffffffffffffffffffff1673ffffffffffffffffffffffffffffffffffffffff168152602001908152602001600020546115ac565b50611ff1818360010154612bd590919063ffffffff16565b8260010181905550612010818360020154612bd590919063ffffffff16565b82600201819055506000600e6000600c60008773ffffffffffffffffffffffffffffffffffffffff1673ffffffffffffffffffffffffffffffffffffffff16815260200190815260200160002054815260200190815260200160002060008a73ffffffffffffffffffffffffffffffffffffffff1673ffffffffffffffffffffffffffffffffffffffff16815260200190815260200160002090506120c2828260000154612bd590919063ffffffff16565b816000018190555043816001018190555060019450505050505b949350505050565b6000806120f0836107ac565b90506121138160026121029190613f06565b600354612b8390919063ffffffff16565b915050919050565b6000612126436107ac565b905090565b612133612bcd565b73ffffffffffffffffffffffffffffffffffffffff166121516113b4565b73ffffffffffffffffffffffffffffffffffffffff16146121a7576040517f08c379a000000000000000000000000000000000000000000000000000000000815260040161219e90613d4c565b60405180910390fd5b8060058190555050565b600080600d80549050905060005b81811015612332576000600d8281548110612203577f4e487b7100000000000000000000000000000000000000000000000000000000600052603260045260246000fd5b906000526020600020906006020190506000600e600084815260200190815260200160002060003373ffffffffffffffffffffffffffffffffffffffff1673ffffffffffffffffffffffffffffffffffffffff168152602001908152602001600020905060008160000154111561231f5761227d836115ac565b5060006122b183600101546122a384600001548660040154612c3390919063ffffffff16565b612b8390919063ffffffff16565b90506122ce82600001548460010154612b3990919063ffffffff16565b83600101819055506122ed818460040154612b3990919063ffffffff16565b83600401819055506000826000018190555043826001018190555061231b8187612bd590919063ffffffff16565b9550505b50508061232b906141ab565b90506121bf565b50600082116123425750506123fe565b61234b82612da3565b600a60009054906101000a900473ffffffffffffffffffffffffffffffffffffffff1673ffffffffffffffffffffffffffffffffffffffff1663a9059cbb33846040518363ffffffff1660e01b81526004016123a8929190613a7d565b602060405180830381600087803b1580156123c257600080fd5b505af11580156123d6573d6000803e3d6000fd5b505050506040513d601f19601f820116820180604052508101906123fa9190613597565b5050505b565b612408612bcd565b73ffffffffffffffffffffffffffffffffffffffff166124266113b4565b73ffffffffffffffffffffffffffffffffffffffff161461247c576040517f08c379a000000000000000000000000000000000000000000000000000000000815260040161247390613d4c565b60405180910390fd5b600073ffffffffffffffffffffffffffffffffffffffff168173ffffffffffffffffffffffffffffffffffffffff1614156124ec576040517f08c379a00000000000000000000000000000000000000000000000000000000081526004016124e390613bec565b60405180910390fd5b80600860006101000a81548173ffffffffffffffffffffffffffffffffffffffff021916908373ffffffffffffffffffffffffffffffffffffffff16021790555050565b600960009054906101000a900473ffffffffffffffffffffffffffffffffffffffff1681565b6000612563600183612e3c565b9050919050565b612572612bcd565b73ffffffffffffffffffffffffffffffffffffffff166125906113b4565b73ffffffffffffffffffffffffffffffffffffffff16146125e6576040517f08c379a00000000000000000000000000000000000000000000000000000000081526004016125dd90613d4c565b60405180910390fd5b6125f08282612e6c565b5050565b6125fc612bcd565b73ffffffffffffffffffffffffffffffffffffffff1661261a6113b4565b73ffffffffffffffffffffffffffffffffffffffff1614612670576040517f08c379a000000000000000000000000000000000000000000000000000000000815260040161266790613d4c565b60405180910390fd5b600073ffffffffffffffffffffffffffffffffffffffff168173ffffffffffffffffffffffffffffffffffffffff1614156126e0576040517f08c379a00000000000000000000000000000000000000000000000000000000081526004016126d790613c0c565b60405180910390fd5b8073ffffffffffffffffffffffffffffffffffffffff1660008054906101000a900473ffffffffffffffffffffffffffffffffffffffff1673ffffffffffffffffffffffffffffffffffffffff167f8be0079c531659141344cd1fd0a4f28419497f9722a3daafe3b4186f6b6457e060405160405180910390a3806000806101000a81548173ffffffffffffffffffffffffffffffffffffffff021916908373ffffffffffffffffffffffffffffffffffffffff16021790555050565b60006127a7612bcd565b73ffffffffffffffffffffffffffffffffffffffff166127c56113b4565b73ffffffffffffffffffffffffffffffffffffffff161461281b576040517f08c379a000000000000000000000000000000000000000000000000000000000815260040161281290613d4c565b60405180910390fd5b600073ffffffffffffffffffffffffffffffffffffffff168273ffffffffffffffffffffffffffffffffffffffff16141561288b576040517f08c379a000000000000000000000000000000000000000000000000000000000815260040161288290613c6c565b60405180910390fd5b612896600183612fdc565b9050919050565b600860009054906101000a900473ffffffffffffffffffffffffffffffffffffffff1681565b6128cb612bcd565b73ffffffffffffffffffffffffffffffffffffffff166128e96113b4565b73ffffffffffffffffffffffffffffffffffffffff161461293f576040517f08c379a000000000000000000000000000000000000000000000000000000000815260040161293690613d4c565b60405180910390fd5b600073ffffffffffffffffffffffffffffffffffffffff168273ffffffffffffffffffffffffffffffffffffffff1614156129af576040517f08c379a00000000000000000000000000000000000000000000000000000000081526004016129a690613c4c565b60405180910390fd5b80156129be576129bd611578565b5b600060045443116129d1576004546129d3565b435b90506129ea84600654612bd590919063ffffffff16565b600681905550600d6040518060c001604052808573ffffffffffffffffffffffffffffffffffffffff16815260200160008152602001600081526020018681526020016000815260200183815250908060018154018082558091505060019003906000526020600020906006020160009091909190915060008201518160000160006101000a81548173ffffffffffffffffffffffffffffffffffffffff021916908373ffffffffffffffffffffffffffffffffffffffff1602179055506020820151816001015560408201518160020155606082015181600301556080820151816004015560a0820151816005015550506001612ae6610773565b612af0919061407e565b600c60008573ffffffffffffffffffffffffffffffffffffffff1673ffffffffffffffffffffffffffffffffffffffff1681526020019081526020016000208190555050505050565b6000612b7b83836040518060400160405280601e81526020017f536166654d6174683a207375627472616374696f6e206f766572666c6f77000081525061300c565b905092915050565b6000612bc583836040518060400160405280601a81526020017f536166654d6174683a206469766973696f6e206279207a65726f000000000000815250613070565b905092915050565b600033905090565b6000808284612be49190613e2c565b905083811015612c29576040517f08c379a0000000000000000000000000000000000000000000000000000000008152600401612c2090613c8c565b60405180910390fd5b8091505092915050565b600080831415612c465760009050612ca8565b60008284612c549190614024565b9050828482612c639190613e82565b14612ca3576040517f08c379a0000000000000000000000000000000000000000000000000000000008152600401612c9a90613d2c565b60405180910390fd5b809150505b92915050565b6000612cbd83600001836130d3565b60001c905092915050565b6000612cf0836000018373ffffffffffffffffffffffffffffffffffffffff1660001b61316d565b905092915050565b6000612d06826000016132f7565b9050919050565b60008373ffffffffffffffffffffffffffffffffffffffff1663e6a4390584846040518363ffffffff1660e01b8152600401612d4a9291906139f3565b60206040518083038186803b158015612d6257600080fd5b505afa158015612d76573d6000803e3d6000fd5b505050506040513d601f19601f82011682018060405250810190612d9a9190613480565b90509392505050565b612e3981604051602401612db79190613dcc565b6040516020818303038152906040527ff5b1bba9000000000000000000000000000000000000000000000000000000007bffffffffffffffffffffffffffffffffffffffffffffffffffffffff19166020820180517bffffffffffffffffffffffffffffffffffffffffffffffffffffffff8381831617835250505050613308565b50565b6000612e64836000018373ffffffffffffffffffffffffffffffffffffffff1660001b613331565b905092915050565b6000600a60009054906101000a900473ffffffffffffffffffffffffffffffffffffffff1673ffffffffffffffffffffffffffffffffffffffff166370a08231306040518263ffffffff1660e01b8152600401612ec991906139d8565b60206040518083038186803b158015612ee157600080fd5b505afa158015612ef5573d6000803e3d6000fd5b505050506040513d601f19601f82011682018060405250810190612f199190613612565b905080821115612f27578091505b600a60009054906101000a900473ffffffffffffffffffffffffffffffffffffffff1673ffffffffffffffffffffffffffffffffffffffff1663a9059cbb84846040518363ffffffff1660e01b8152600401612f84929190613a7d565b602060405180830381600087803b158015612f9e57600080fd5b505af1158015612fb2573d6000803e3d6000fd5b505050506040513d601f19601f82011682018060405250810190612fd69190613597565b50505050565b6000613004836000018373ffffffffffffffffffffffffffffffffffffffff1660001b613354565b905092915050565b6000838311158290613054576040517f08c379a000000000000000000000000000000000000000000000000000000000815260040161304b9190613baa565b60405180910390fd5b5060008385613063919061407e565b9050809150509392505050565b600080831182906130b7576040517f08c379a00000000000000000000000000000000000000000000000000000000081526004016130ae9190613baa565b60405180910390fd5b50600083856130c69190613e82565b9050809150509392505050565b60008183600001805490501161311e576040517f08c379a000000000000000000000000000000000000000000000000000000000815260040161311590613bcc565b60405180910390fd5b82600001828154811061315a577f4e487b7100000000000000000000000000000000000000000000000000000000600052603260045260246000fd5b9060005260206000200154905092915050565b600080836001016000848152602001908152602001600020549050600081146132eb57600060018261319f919061407e565b90506000600186600001805490506131b7919061407e565b905060008660000182815481106131f7577f4e487b7100000000000000000000000000000000000000000000000000000000600052603260045260246000fd5b9060005260206000200154905080876000018481548110613241577f4e487b7100000000000000000000000000000000000000000000000000000000600052603260045260246000fd5b906000526020600020018190555060018361325c9190613e2c565b87600101600083815260200190815260200160002081905550866000018054806132af577f4e487b7100000000000000000000000000000000000000000000000000000000600052603160045260246000fd5b600190038181906000526020600020016000905590558660010160008781526020019081526020016000206000905560019450505050506132f1565b60009150505b92915050565b600081600001805490509050919050565b60008151905060006a636f6e736f6c652e6c6f679050602083016000808483855afa5050505050565b600080836001016000848152602001908152602001600020541415905092915050565b60006133608383613331565b6133b95782600001829080600181540180825580915050600190039060005260206000200160009091909190915055826000018054905083600101600084815260200190815260200160002081905550600190506133be565b600090505b92915050565b6000813590506133d3816146a2565b92915050565b6000815190506133e8816146a2565b92915050565b6000813590506133fd816146b9565b92915050565b600081519050613412816146b9565b92915050565b600081359050613427816146d0565b92915050565b60008135905061343c816146e7565b92915050565b600081519050613451816146e7565b92915050565b60006020828403121561346957600080fd5b6000613477848285016133c4565b91505092915050565b60006020828403121561349257600080fd5b60006134a0848285016133d9565b91505092915050565b600080600080608085870312156134bf57600080fd5b60006134cd878288016133c4565b94505060206134de878288016133c4565b93505060406134ef878288016133c4565b92505060606135008782880161342d565b91505092959194509250565b6000806040838503121561351f57600080fd5b600061352d858286016133c4565b925050602061353e8582860161342d565b9150509250929050565b60008060006060848603121561355d57600080fd5b600061356b868287016133c4565b935050602061357c8682870161342d565b925050604061358d868287016133c4565b9150509250925092565b6000602082840312156135a957600080fd5b60006135b784828501613403565b91505092915050565b6000602082840312156135d257600080fd5b60006135e084828501613418565b91505092915050565b6000602082840312156135fb57600080fd5b60006136098482850161342d565b91505092915050565b60006020828403121561362457600080fd5b600061363284828501613442565b91505092915050565b6000806040838503121561364e57600080fd5b600061365c8582860161342d565b925050602061366d858286016133c4565b9150509250929050565b60008060006060848603121561368c57600080fd5b600061369a8682870161342d565b93505060206136ab868287016133c4565b92505060406136bc868287016133ee565b9150509250925092565b6000806000606084860312156136db57600080fd5b60006136e98682870161342d565b93505060206136fa8682870161342d565b925050604061370b868287016133ee565b9150509250925092565b61371e816140b2565b82525050565b61372d816140c4565b82525050565b61373c8161410c565b82525050565b61374b81614130565b82525050565b61375a81614154565b82525050565b600061376b82613e10565b6137758185613e1b565b9350613785818560208601614178565b61378e81614252565b840191505092915050565b60006137a6602283613e1b565b91506137b182614270565b604082019050919050565b60006137c9602a83613e1b565b91506137d4826142bf565b604082019050919050565b60006137ec602683613e1b565b91506137f78261430e565b604082019050919050565b600061380f603583613e1b565b915061381a8261435d565b604082019050919050565b6000613832601983613e1b565b915061383d826143ac565b602082019050919050565b6000613855602583613e1b565b9150613860826143d5565b604082019050919050565b6000613878601b83613e1b565b915061388382614424565b602082019050919050565b600061389b603183613e1b565b91506138a68261444d565b604082019050919050565b60006138be602a83613e1b565b91506138c98261449c565b604082019050919050565b60006138e1602483613e1b565b91506138ec826144eb565b604082019050919050565b6000613904601e83613e1b565b915061390f8261453a565b602082019050919050565b6000613927602183613e1b565b915061393282614563565b604082019050919050565b600061394a602083613e1b565b9150613955826145b2565b602082019050919050565b600061396d603283613e1b565b9150613978826145db565b604082019050919050565b6000613990601f83613e1b565b915061399b8261462a565b602082019050919050565b60006139b3603083613e1b565b91506139be82614653565b604082019050919050565b6139d281614102565b82525050565b60006020820190506139ed6000830184613715565b92915050565b6000604082019050613a086000830185613715565b613a156020830184613715565b9392505050565b600060c082019050613a316000830189613715565b613a3e6020830188613715565b613a4b60408301876139c9565b613a5860608301866139c9565b613a6560808301856139c9565b613a7260a08301846139c9565b979650505050505050565b6000604082019050613a926000830185613715565b613a9f60208301846139c9565b9392505050565b6000606082019050613abb6000830186613715565b613ac860208301856139c9565b613ad56040830184613715565b949350505050565b600060c082019050613af26000830189613715565b613aff60208301886139c9565b613b0c60408301876139c9565b613b1960608301866139c9565b613b2660808301856139c9565b613b3360a08301846139c9565b979650505050505050565b6000602082019050613b536000830184613724565b92915050565b6000602082019050613b6e6000830184613733565b92915050565b6000602082019050613b896000830184613742565b92915050565b6000602082019050613ba46000830184613751565b92915050565b60006020820190508181036000830152613bc48184613760565b905092915050565b60006020820190508181036000830152613be581613799565b9050919050565b60006020820190508181036000830152613c05816137bc565b9050919050565b60006020820190508181036000830152613c25816137df565b9050919050565b60006020820190508181036000830152613c4581613802565b9050919050565b60006020820190508181036000830152613c6581613825565b9050919050565b60006020820190508181036000830152613c8581613848565b9050919050565b60006020820190508181036000830152613ca58161386b565b9050919050565b60006020820190508181036000830152613cc58161388e565b9050919050565b60006020820190508181036000830152613ce5816138b1565b9050919050565b60006020820190508181036000830152613d05816138d4565b9050919050565b60006020820190508181036000830152613d25816138f7565b9050919050565b60006020820190508181036000830152613d458161391a565b9050919050565b60006020820190508181036000830152613d658161393d565b9050919050565b60006020820190508181036000830152613d8581613960565b9050919050565b60006020820190508181036000830152613da581613983565b9050919050565b60006020820190508181036000830152613dc5816139a6565b9050919050565b6000602082019050613de160008301846139c9565b92915050565b6000604082019050613dfc60008301856139c9565b613e0960208301846139c9565b9392505050565b600081519050919050565b600082825260208201905092915050565b6000613e3782614102565b9150613e4283614102565b9250827fffffffffffffffffffffffffffffffffffffffffffffffffffffffffffffffff03821115613e7757613e766141f4565b5b828201905092915050565b6000613e8d82614102565b9150613e9883614102565b925082613ea857613ea7614223565b5b828204905092915050565b6000808291508390505b6001851115613efd57808604811115613ed957613ed86141f4565b5b6001851615613ee85780820291505b8081029050613ef685614263565b9450613ebd565b94509492505050565b6000613f1182614102565b9150613f1c83614102565b9250613f497fffffffffffffffffffffffffffffffffffffffffffffffffffffffffffffffff8484613f51565b905092915050565b600082613f61576001905061401d565b81613f6f576000905061401d565b8160018114613f855760028114613f8f57613fbe565b600191505061401d565b60ff841115613fa157613fa06141f4565b5b8360020a915084821115613fb857613fb76141f4565b5b5061401d565b5060208310610133831016604e8410600b8410161715613ff35782820a905083811115613fee57613fed6141f4565b5b61401d565b6140008484846001613eb3565b92509050818404811115614017576140166141f4565b5b81810290505b9392505050565b600061402f82614102565b915061403a83614102565b9250817fffffffffffffffffffffffffffffffffffffffffffffffffffffffffffffffff0483118215151615614073576140726141f4565b5b828202905092915050565b600061408982614102565b915061409483614102565b9250828210156140a7576140a66141f4565b5b828203905092915050565b60006140bd826140e2565b9050919050565b60008115159050919050565b60006140db826140b2565b9050919050565b600073ffffffffffffffffffffffffffffffffffffffff82169050919050565b6000819050919050565b60006141178261411e565b9050919050565b6000614129826140e2565b9050919050565b600061413b82614142565b9050919050565b600061414d826140e2565b9050919050565b600061415f82614166565b9050919050565b6000614171826140e2565b9050919050565b60005b8381101561419657808201518184015260208101905061417b565b838111156141a5576000848401525b50505050565b60006141b682614102565b91507fffffffffffffffffffffffffffffffffffffffffffffffffffffffffffffffff8214156141e9576141e86141f4565b5b600182019050919050565b7f4e487b7100000000000000000000000000000000000000000000000000000000600052601160045260246000fd5b7f4e487b7100000000000000000000000000000000000000000000000000000000600052601260045260246000fd5b6000601f19601f8301169050919050565b60008160011c9050919050565b7f456e756d657261626c655365743a20696e646578206f7574206f6620626f756e60008201527f6473000000000000000000000000000000000000000000000000000000000000602082015250565b7f537761704d696e696e673a206e657720726f7574657220697320746865207a6560008201527f726f206164647265737300000000000000000000000000000000000000000000602082015250565b7f4f776e61626c653a206e6577206f776e657220697320746865207a65726f206160008201527f6464726573730000000000000000000000000000000000000000000000000000602082015250565b7f537761704d696e696e673a206d757374206c6974746c65207468616e2074686560008201527f2063757272656e7420626c6f636b206e756d6265720000000000000000000000602082015250565b7f5f7061697220697320746865207a65726f206164647265737300000000000000600082015250565b7f537761704d696e696e673a20746f6b656e20697320746865207a65726f20616460008201527f6472657373000000000000000000000000000000000000000000000000000000602082015250565b7f536166654d6174683a206164646974696f6e206f766572666c6f770000000000600082015250565b7f537761704d696e696e673a2074616b65722073776170206f757470757420697360008201527f20746865207a65726f2061646472657373000000000000000000000000000000602082015250565b7f537761704d696e696e673a206e6577206f7261636c6520697320746865207a6560008201527f726f206164647265737300000000000000000000000000000000000000000000602082015250565b7f537761704d696e696e673a2063616c6c6572206973206e6f742074686520726f60008201527f7574657200000000000000000000000000000000000000000000000000000000602082015250565b7f537761704d696e696e673a204e6f742066696e64207468697320706f6f6c0000600082015250565b7f536166654d6174683a206d756c7469706c69636174696f6e206f766572666c6f60008201527f7700000000000000000000000000000000000000000000000000000000000000602082015250565b7f4f776e61626c653a2063616c6c6572206973206e6f7420746865206f776e6572600082015250565b7f537761704d696e696e673a2074616b65722073776170206163636f756e74206960008201527f7320746865207a65726f20616464726573730000000000000000000000000000602082015250565b7f537761704d696e696e673a20696e646578206f7574206f6620626f756e647300600082015250565b7f537761704d696e696e673a2074616b6572207377617020696e7075742069732060008201527f746865207a65726f206164647265737300000000000000000000000000000000602082015250565b6146ab816140b2565b81146146b657600080fd5b50565b6146c2816140c4565b81146146cd57600080fd5b50565b6146d9816140d0565b81146146e457600080fd5b50565b6146f081614102565b81146146fb57600080fd5b5056fea26469706673582212205214ac9d41ba893c65a7508d17605f2ec8efdb925b1a16a07de10305894fc0d364736f6c63430008040033",
  "linkReferences": {},
  "deployedLinkReferences": {}
}