{
  "_format": "hh-sol-artifact-1",
  "contractName": "CairoMaximizerV1",
  "sourceName": "contracts/maximizer/CairoMaximizer.sol",
  "abi": [
    {
      "anonymous": false,
      "inputs": [
        {
          "indexed": true,
          "internalType": "address",
          "name": "_src",
          "type": "address"
        },
        {
          "indexed": true,
          "internalType": "address",
          "name": "_dest",
          "type": "address"
        },
        {
          "indexed": false,
          "internalType": "uint256",
          "name": "_deposits",
          "type": "uint256"
        },
        {
          "indexed": false,
          "internalType": "uint256",
          "name": "_payouts",
          "type": "uint256"
        }
      ],
      "name": "BalanceTransfer",
      "type": "event"
    },
    {
      "anonymous": false,
      "inputs": [
        {
          "indexed": true,
          "internalType": "address",
          "name": "addr",
          "type": "address"
        },
        {
          "indexed": true,
          "internalType": "address",
          "name": "beneficiary",
          "type": "address"
        }
      ],
      "name": "BeneficiaryUpdate",
      "type": "event"
    },
    {
      "anonymous": false,
      "inputs": [
        {
          "indexed": true,
          "internalType": "address",
          "name": "addr",
          "type": "address"
        },
        {
          "indexed": false,
          "internalType": "uint256",
          "name": "timestamp",
          "type": "uint256"
        }
      ],
      "name": "Checkin",
      "type": "event"
    },
    {
      "anonymous": false,
      "inputs": [
        {
          "indexed": true,
          "internalType": "address",
          "name": "addr",
          "type": "address"
        },
        {
          "indexed": true,
          "internalType": "address",
          "name": "from",
          "type": "address"
        },
        {
          "indexed": false,
          "internalType": "uint256",
          "name": "amount",
          "type": "uint256"
        }
      ],
      "name": "DirectPayout",
      "type": "event"
    },
    {
      "anonymous": false,
      "inputs": [
        {
          "indexed": true,
          "internalType": "address",
          "name": "addr",
          "type": "address"
        },
        {
          "indexed": false,
          "internalType": "uint256",
          "name": "timestamp",
          "type": "uint256"
        }
      ],
      "name": "HeartBeat",
      "type": "event"
    },
    {
      "anonymous": false,
      "inputs": [
        {
          "indexed": true,
          "internalType": "address",
          "name": "addr",
          "type": "address"
        },
        {
          "indexed": false,
          "internalType": "uint256",
          "name": "interval",
          "type": "uint256"
        }
      ],
      "name": "HeartBeatIntervalUpdate",
      "type": "event"
    },
    {
      "anonymous": false,
      "inputs": [
        {
          "indexed": true,
          "internalType": "address",
          "name": "addr",
          "type": "address"
        },
        {
          "indexed": false,
          "internalType": "uint256",
          "name": "referrals",
          "type": "uint256"
        },
        {
          "indexed": false,
          "internalType": "uint256",
          "name": "total_deposits",
          "type": "uint256"
        },
        {
          "indexed": false,
          "internalType": "uint256",
          "name": "total_payouts",
          "type": "uint256"
        },
        {
          "indexed": false,
          "internalType": "uint256",
          "name": "total_structure",
          "type": "uint256"
        }
      ],
      "name": "Leaderboard",
      "type": "event"
    },
    {
      "anonymous": false,
      "inputs": [
        {
          "indexed": true,
          "internalType": "address",
          "name": "addr",
          "type": "address"
        },
        {
          "indexed": false,
          "internalType": "uint256",
          "name": "amount",
          "type": "uint256"
        }
      ],
      "name": "LimitReached",
      "type": "event"
    },
    {
      "anonymous": false,
      "inputs": [
        {
          "indexed": true,
          "internalType": "address",
          "name": "addr",
          "type": "address"
        },
        {
          "indexed": true,
          "internalType": "address",
          "name": "manager",
          "type": "address"
        },
        {
          "indexed": false,
          "internalType": "uint256",
          "name": "timestamp",
          "type": "uint256"
        }
      ],
      "name": "ManagerUpdate",
      "type": "event"
    },
    {
      "anonymous": false,
      "inputs": [
        {
          "indexed": true,
          "internalType": "address",
          "name": "addr",
          "type": "address"
        },
        {
          "indexed": true,
          "internalType": "address",
          "name": "from",
          "type": "address"
        },
        {
          "indexed": false,
          "internalType": "uint256",
          "name": "amount",
          "type": "uint256"
        }
      ],
      "name": "MatchPayout",
      "type": "event"
    },
    {
      "anonymous": false,
      "inputs": [
        {
          "indexed": true,
          "internalType": "address",
          "name": "from",
          "type": "address"
        },
        {
          "indexed": true,
          "internalType": "address",
          "name": "to",
          "type": "address"
        },
        {
          "indexed": false,
          "internalType": "uint256",
          "name": "amount",
          "type": "uint256"
        },
        {
          "indexed": false,
          "internalType": "uint256",
          "name": "timestamp",
          "type": "uint256"
        }
      ],
      "name": "NewAirdrop",
      "type": "event"
    },
    {
      "anonymous": false,
      "inputs": [
        {
          "indexed": true,
          "internalType": "address",
          "name": "addr",
          "type": "address"
        },
        {
          "indexed": false,
          "internalType": "uint256",
          "name": "amount",
          "type": "uint256"
        }
      ],
      "name": "NewDeposit",
      "type": "event"
    },
    {
      "anonymous": false,
      "inputs": [
        {
          "indexed": true,
          "internalType": "address",
          "name": "previousOwner",
          "type": "address"
        },
        {
          "indexed": true,
          "internalType": "address",
          "name": "newOwner",
          "type": "address"
        }
      ],
      "name": "OwnershipTransferred",
      "type": "event"
    },
    {
      "anonymous": false,
      "inputs": [
        {
          "indexed": true,
          "internalType": "address",
          "name": "addr",
          "type": "address"
        },
        {
          "indexed": true,
          "internalType": "address",
          "name": "upline",
          "type": "address"
        }
      ],
      "name": "Upline",
      "type": "event"
    },
    {
      "anonymous": false,
      "inputs": [
        {
          "indexed": true,
          "internalType": "address",
          "name": "addr",
          "type": "address"
        },
        {
          "indexed": false,
          "internalType": "uint256",
          "name": "amount",
          "type": "uint256"
        }
      ],
      "name": "Withdraw",
      "type": "event"
    },
    {
      "stateMutability": "payable",
      "type": "fallback"
    },
    {
      "inputs": [],
      "name": "CompoundTax",
      "outputs": [
        {
          "internalType": "uint256",
          "name": "",
          "type": "uint256"
        }
      ],
      "stateMutability": "view",
      "type": "function"
    },
    {
      "inputs": [],
      "name": "ExitTax",
      "outputs": [
        {
          "internalType": "uint256",
          "name": "",
          "type": "uint256"
        }
      ],
      "stateMutability": "view",
      "type": "function"
    },
    {
      "inputs": [],
      "name": "MAX_UINT",
      "outputs": [
        {
          "internalType": "uint256",
          "name": "",
          "type": "uint256"
        }
      ],
      "stateMutability": "view",
      "type": "function"
    },
    {
      "inputs": [
        {
          "internalType": "address",
          "name": "_to",
          "type": "address"
        },
        {
          "internalType": "uint256",
          "name": "_amount",
          "type": "uint256"
        }
      ],
      "name": "airdrop",
      "outputs": [],
      "stateMutability": "nonpayable",
      "type": "function"
    },
    {
      "inputs": [
        {
          "internalType": "address",
          "name": "",
          "type": "address"
        }
      ],
      "name": "airdrops",
      "outputs": [
        {
          "internalType": "uint256",
          "name": "airdrops",
          "type": "uint256"
        },
        {
          "internalType": "uint256",
          "name": "airdrops_received",
          "type": "uint256"
        },
        {
          "internalType": "uint256",
          "name": "last_airdrop",
          "type": "uint256"
        }
      ],
      "stateMutability": "view",
      "type": "function"
    },
    {
      "inputs": [
        {
          "internalType": "address",
          "name": "_addr",
          "type": "address"
        }
      ],
      "name": "balanceLevel",
      "outputs": [
        {
          "internalType": "uint8",
          "name": "",
          "type": "uint8"
        }
      ],
      "stateMutability": "view",
      "type": "function"
    },
    {
      "inputs": [],
      "name": "cairoVaultAddress",
      "outputs": [
        {
          "internalType": "address",
          "name": "",
          "type": "address"
        }
      ],
      "stateMutability": "view",
      "type": "function"
    },
    {
      "inputs": [],
      "name": "checkin",
      "outputs": [],
      "stateMutability": "nonpayable",
      "type": "function"
    },
    {
      "inputs": [],
      "name": "claim",
      "outputs": [],
      "stateMutability": "nonpayable",
      "type": "function"
    },
    {
      "inputs": [
        {
          "internalType": "address",
          "name": "_addr",
          "type": "address"
        }
      ],
      "name": "claimsAvailable",
      "outputs": [
        {
          "internalType": "uint256",
          "name": "",
          "type": "uint256"
        }
      ],
      "stateMutability": "view",
      "type": "function"
    },
    {
      "inputs": [],
      "name": "contractInfo",
      "outputs": [
        {
          "internalType": "uint256",
          "name": "_total_users",
          "type": "uint256"
        },
        {
          "internalType": "uint256",
          "name": "_total_deposited",
          "type": "uint256"
        },
        {
          "internalType": "uint256",
          "name": "_total_withdraw",
          "type": "uint256"
        },
        {
          "internalType": "uint256",
          "name": "_total_bnb",
          "type": "uint256"
        },
        {
          "internalType": "uint256",
          "name": "_total_txs",
          "type": "uint256"
        },
        {
          "internalType": "uint256",
          "name": "_total_airdrops",
          "type": "uint256"
        }
      ],
      "stateMutability": "view",
      "type": "function"
    },
    {
      "inputs": [
        {
          "internalType": "address",
          "name": "_addr",
          "type": "address"
        }
      ],
      "name": "creditsAndDebits",
      "outputs": [
        {
          "internalType": "uint256",
          "name": "_credits",
          "type": "uint256"
        },
        {
          "internalType": "uint256",
          "name": "_debits",
          "type": "uint256"
        }
      ],
      "stateMutability": "view",
      "type": "function"
    },
    {
      "inputs": [
        {
          "internalType": "address",
          "name": "",
          "type": "address"
        }
      ],
      "name": "custody",
      "outputs": [
        {
          "internalType": "address",
          "name": "manager",
          "type": "address"
        },
        {
          "internalType": "address",
          "name": "beneficiary",
          "type": "address"
        },
        {
          "internalType": "uint256",
          "name": "last_heartbeat",
          "type": "uint256"
        },
        {
          "internalType": "uint256",
          "name": "last_checkin",
          "type": "uint256"
        },
        {
          "internalType": "uint256",
          "name": "heartbeat_interval",
          "type": "uint256"
        }
      ],
      "stateMutability": "view",
      "type": "function"
    },
    {
      "inputs": [
        {
          "internalType": "address",
          "name": "_upline",
          "type": "address"
        },
        {
          "internalType": "uint256",
          "name": "_amount",
          "type": "uint256"
        }
      ],
      "name": "deposit",
      "outputs": [],
      "stateMutability": "nonpayable",
      "type": "function"
    },
    {
      "inputs": [],
      "name": "deposit_bracket_size",
      "outputs": [
        {
          "internalType": "uint256",
          "name": "",
          "type": "uint256"
        }
      ],
      "stateMutability": "view",
      "type": "function"
    },
    {
      "inputs": [
        {
          "internalType": "address",
          "name": "_addr",
          "type": "address"
        }
      ],
      "name": "getCustody",
      "outputs": [
        {
          "internalType": "address",
          "name": "_beneficiary",
          "type": "address"
        },
        {
          "internalType": "uint256",
          "name": "_heartbeat_interval",
          "type": "uint256"
        },
        {
          "internalType": "address",
          "name": "_manager",
          "type": "address"
        }
      ],
      "stateMutability": "view",
      "type": "function"
    },
    {
      "inputs": [],
      "name": "initialize",
      "outputs": [],
      "stateMutability": "nonpayable",
      "type": "function"
    },
    {
      "inputs": [
        {
          "internalType": "address",
          "name": "_addr",
          "type": "address"
        },
        {
          "internalType": "uint8",
          "name": "_level",
          "type": "uint8"
        }
      ],
      "name": "isBalanceCovered",
      "outputs": [
        {
          "internalType": "bool",
          "name": "",
          "type": "bool"
        }
      ],
      "stateMutability": "view",
      "type": "function"
    },
    {
      "inputs": [
        {
          "internalType": "address",
          "name": "_addr",
          "type": "address"
        }
      ],
      "name": "isNetPositive",
      "outputs": [
        {
          "internalType": "bool",
          "name": "",
          "type": "bool"
        }
      ],
      "stateMutability": "view",
      "type": "function"
    },
    {
      "inputs": [
        {
          "internalType": "address",
          "name": "_addr",
          "type": "address"
        }
      ],
      "name": "lastActivity",
      "outputs": [
        {
          "internalType": "uint256",
          "name": "_heartbeat",
          "type": "uint256"
        },
        {
          "internalType": "uint256",
          "name": "_lapsed_heartbeat",
          "type": "uint256"
        },
        {
          "internalType": "uint256",
          "name": "_checkin",
          "type": "uint256"
        },
        {
          "internalType": "uint256",
          "name": "_lapsed_checkin",
          "type": "uint256"
        }
      ],
      "stateMutability": "view",
      "type": "function"
    },
    {
      "inputs": [
        {
          "internalType": "uint256",
          "name": "_amount",
          "type": "uint256"
        }
      ],
      "name": "maxPayoutOf",
      "outputs": [
        {
          "internalType": "uint256",
          "name": "",
          "type": "uint256"
        }
      ],
      "stateMutability": "pure",
      "type": "function"
    },
    {
      "inputs": [],
      "name": "max_payout_cap",
      "outputs": [
        {
          "internalType": "uint256",
          "name": "",
          "type": "uint256"
        }
      ],
      "stateMutability": "view",
      "type": "function"
    },
    {
      "inputs": [],
      "name": "owner",
      "outputs": [
        {
          "internalType": "address",
          "name": "",
          "type": "address"
        }
      ],
      "stateMutability": "view",
      "type": "function"
    },
    {
      "inputs": [
        {
          "internalType": "address",
          "name": "_addr",
          "type": "address"
        }
      ],
      "name": "payoutOf",
      "outputs": [
        {
          "internalType": "uint256",
          "name": "payout",
          "type": "uint256"
        },
        {
          "internalType": "uint256",
          "name": "max_payout",
          "type": "uint256"
        },
        {
          "internalType": "uint256",
          "name": "net_payout",
          "type": "uint256"
        },
        {
          "internalType": "uint256",
          "name": "sustainability_fee",
          "type": "uint256"
        }
      ],
      "stateMutability": "view",
      "type": "function"
    },
    {
      "inputs": [
        {
          "internalType": "uint256",
          "name": "",
          "type": "uint256"
        }
      ],
      "name": "ref_balances",
      "outputs": [
        {
          "internalType": "uint256",
          "name": "",
          "type": "uint256"
        }
      ],
      "stateMutability": "view",
      "type": "function"
    },
    {
      "inputs": [],
      "name": "renounceOwnership",
      "outputs": [],
      "stateMutability": "nonpayable",
      "type": "function"
    },
    {
      "inputs": [],
      "name": "roll",
      "outputs": [],
      "stateMutability": "nonpayable",
      "type": "function"
    },
    {
      "inputs": [
        {
          "internalType": "address",
          "name": "_addr",
          "type": "address"
        },
        {
          "internalType": "uint256",
          "name": "_pendingDiv",
          "type": "uint256"
        }
      ],
      "name": "sustainabilityFeeV2",
      "outputs": [
        {
          "internalType": "uint256",
          "name": "",
          "type": "uint256"
        }
      ],
      "stateMutability": "view",
      "type": "function"
    },
    {
      "inputs": [],
      "name": "total_airdrops",
      "outputs": [
        {
          "internalType": "uint256",
          "name": "",
          "type": "uint256"
        }
      ],
      "stateMutability": "view",
      "type": "function"
    },
    {
      "inputs": [],
      "name": "total_bnb",
      "outputs": [
        {
          "internalType": "uint256",
          "name": "",
          "type": "uint256"
        }
      ],
      "stateMutability": "view",
      "type": "function"
    },
    {
      "inputs": [],
      "name": "total_deposited",
      "outputs": [
        {
          "internalType": "uint256",
          "name": "",
          "type": "uint256"
        }
      ],
      "stateMutability": "view",
      "type": "function"
    },
    {
      "inputs": [],
      "name": "total_txs",
      "outputs": [
        {
          "internalType": "uint256",
          "name": "",
          "type": "uint256"
        }
      ],
      "stateMutability": "view",
      "type": "function"
    },
    {
      "inputs": [],
      "name": "total_users",
      "outputs": [
        {
          "internalType": "uint256",
          "name": "",
          "type": "uint256"
        }
      ],
      "stateMutability": "view",
      "type": "function"
    },
    {
      "inputs": [],
      "name": "total_withdraw",
      "outputs": [
        {
          "internalType": "uint256",
          "name": "",
          "type": "uint256"
        }
      ],
      "stateMutability": "view",
      "type": "function"
    },
    {
      "inputs": [
        {
          "internalType": "address",
          "name": "newOwner",
          "type": "address"
        }
      ],
      "name": "transferOwnership",
      "outputs": [],
      "stateMutability": "nonpayable",
      "type": "function"
    },
    {
      "inputs": [
        {
          "internalType": "uint256",
          "name": "_newCompoundTax",
          "type": "uint256"
        }
      ],
      "name": "updateCompoundTax",
      "outputs": [],
      "stateMutability": "nonpayable",
      "type": "function"
    },
    {
      "inputs": [
        {
          "internalType": "uint256",
          "name": "_newBracketSize",
          "type": "uint256"
        }
      ],
      "name": "updateDepositBracketSize",
      "outputs": [],
      "stateMutability": "nonpayable",
      "type": "function"
    },
    {
      "inputs": [
        {
          "internalType": "uint256",
          "name": "_newExitTax",
          "type": "uint256"
        }
      ],
      "name": "updateExitTax",
      "outputs": [],
      "stateMutability": "nonpayable",
      "type": "function"
    },
    {
      "inputs": [
        {
          "internalType": "uint256[]",
          "name": "_newRefBalances",
          "type": "uint256[]"
        }
      ],
      "name": "updateHoldRequirements",
      "outputs": [],
      "stateMutability": "nonpayable",
      "type": "function"
    },
    {
      "inputs": [
        {
          "internalType": "uint256",
          "name": "_newInitialDeposit",
          "type": "uint256"
        }
      ],
      "name": "updateInitialDeposit",
      "outputs": [],
      "stateMutability": "nonpayable",
      "type": "function"
    },
    {
      "inputs": [
        {
          "internalType": "uint256",
          "name": "_newPayoutCap",
          "type": "uint256"
        }
      ],
      "name": "updateMaxPayoutCap",
      "outputs": [],
      "stateMutability": "nonpayable",
      "type": "function"
    },
    {
      "inputs": [
        {
          "internalType": "uint256",
          "name": "_newPayoutRate",
          "type": "uint256"
        }
      ],
      "name": "updatePayoutRate",
      "outputs": [],
      "stateMutability": "nonpayable",
      "type": "function"
    },
    {
      "inputs": [
        {
          "internalType": "uint256",
          "name": "_newRefBonus",
          "type": "uint256"
        }
      ],
      "name": "updateRefBonus",
      "outputs": [],
      "stateMutability": "nonpayable",
      "type": "function"
    },
    {
      "inputs": [
        {
          "internalType": "uint256",
          "name": "_newRefDepth",
          "type": "uint256"
        }
      ],
      "name": "updateRefDepth",
      "outputs": [],
      "stateMutability": "nonpayable",
      "type": "function"
    },
    {
      "inputs": [
        {
          "internalType": "address",
          "name": "_addr",
          "type": "address"
        }
      ],
      "name": "userInfo",
      "outputs": [
        {
          "internalType": "address",
          "name": "upline",
          "type": "address"
        },
        {
          "internalType": "uint256",
          "name": "deposit_time",
          "type": "uint256"
        },
        {
          "internalType": "uint256",
          "name": "deposits",
          "type": "uint256"
        },
        {
          "internalType": "uint256",
          "name": "payouts",
          "type": "uint256"
        },
        {
          "internalType": "uint256",
          "name": "direct_bonus",
          "type": "uint256"
        },
        {
          "internalType": "uint256",
          "name": "match_bonus",
          "type": "uint256"
        },
        {
          "internalType": "uint256",
          "name": "last_airdrop",
          "type": "uint256"
        }
      ],
      "stateMutability": "view",
      "type": "function"
    },
    {
      "inputs": [
        {
          "internalType": "address",
          "name": "_addr",
          "type": "address"
        }
      ],
      "name": "userInfoTotals",
      "outputs": [
        {
          "internalType": "uint256",
          "name": "referrals",
          "type": "uint256"
        },
        {
          "internalType": "uint256",
          "name": "total_deposits",
          "type": "uint256"
        },
        {
          "internalType": "uint256",
          "name": "total_payouts",
          "type": "uint256"
        },
        {
          "internalType": "uint256",
          "name": "total_structure",
          "type": "uint256"
        },
        {
          "internalType": "uint256",
          "name": "airdrops_total",
          "type": "uint256"
        },
        {
          "internalType": "uint256",
          "name": "airdrops_received",
          "type": "uint256"
        }
      ],
      "stateMutability": "view",
      "type": "function"
    },
    {
      "inputs": [
        {
          "internalType": "address",
          "name": "",
          "type": "address"
        }
      ],
      "name": "users",
      "outputs": [
        {
          "internalType": "address",
          "name": "upline",
          "type": "address"
        },
        {
          "internalType": "uint256",
          "name": "referrals",
          "type": "uint256"
        },
        {
          "internalType": "uint256",
          "name": "total_structure",
          "type": "uint256"
        },
        {
          "internalType": "uint256",
          "name": "direct_bonus",
          "type": "uint256"
        },
        {
          "internalType": "uint256",
          "name": "match_bonus",
          "type": "uint256"
        },
        {
          "internalType": "uint256",
          "name": "deposits",
          "type": "uint256"
        },
        {
          "internalType": "uint256",
          "name": "deposit_time",
          "type": "uint256"
        },
        {
          "internalType": "uint256",
          "name": "payouts",
          "type": "uint256"
        },
        {
          "internalType": "uint256",
          "name": "rolls",
          "type": "uint256"
        },
        {
          "internalType": "uint256",
          "name": "ref_claim_pos",
          "type": "uint256"
        },
        {
          "internalType": "uint256",
          "name": "accumulatedDiv",
          "type": "uint256"
        }
      ],
      "stateMutability": "view",
      "type": "function"
    }
  ],
  "bytecode": "0x608060405234801561001057600080fd5b50612ec3806100206000396000f3fe6080604052600436106102735760003560e01c80638bf70ae51161014e578063cb65d1ba116100bb578063e5d7e8e411610077578063e5d7e8e414610a39578063e7cc62bd14610a59578063e812b20214610a6f578063ea2caab314610a85578063f07e96b314610a9b578063f2fde38b14610abb57005b8063cb65d1ba1461092f578063cd5e3c5d1461094f578063d20ecd2014610964578063de560cca14610984578063e41e91ef1461099a578063e5b5019a14610a2357005b8063a87430ba1161010a578063a87430ba146107c9578063b12b34c4146108a4578063baeb0718146108c4578063c5e63fd6146108d9578063c635701f146108ef578063ca3f83d41461090f57005b80638bf70ae5146106de5780638c86f0a7146106fe5780638da5cb5b14610755578063941b16e4146107735780639a8318f4146107935780639dd46297146107a957005b80635432d271116101ec578063715018a6116101a8578063715018a6146105f957806372fcfe411461060e57806374b95b2d146106245780638129fc1c146106895780638959af3c1461069e5780638ba4cc3c146106be57005b80635432d2711461051b578063639a0b26146105315780636a372c2c146105475780636da61d1e146105675780636da7cd3d146105a75780636de081cf146105c757005b806319d7152c1161023b57806319d7152c146103f45780632f9685081461046857806335bbc397146104a057806347b8e6a3146104b657806347e7ef24146104e65780634e71d92d1461050657005b80630709f1b8146102755780630e09b64c146102af57806314766fc3146102cf57806315c43aaf146102fd5780631959a0021461034a575b005b34801561028157600080fd5b50610295610290366004612b4f565b610adb565b604080519283526020830191909152015b60405180910390f35b3480156102bb57600080fd5b506102736102ca366004612ca0565b610bd2565b3480156102db57600080fd5b506102ef6102ea366004612b4f565b610c18565b6040519081526020016102a6565b34801561030957600080fd5b50607954607a54607b54607c54607d546078545b604080519687526020870195909552938501929092526060840152608083015260a082015260c0016102a6565b34801561035657600080fd5b506103b5610365366004612b4f565b6001600160a01b039081166000908152606a6020908152604080832080546006820154600583015460078401546003850154600490950154606b9097529490962060020154919096169692939192565b604080516001600160a01b0390981688526020880196909652948601939093526060850191909152608084015260a083015260c082015260e0016102a6565b34801561040057600080fd5b5061043e61040f366004612b4f565b6001600160a01b039081166000908152606c602052604090206001810154600482015491549083169391921690565b604080516001600160a01b03948516815260208101939093529216918101919091526060016102a6565b34801561047457600080fd5b50606554610488906001600160a01b031681565b6040516001600160a01b0390911681526020016102a6565b3480156104ac57600080fd5b506102ef606d5481565b3480156104c257600080fd5b506104d66104d1366004612b4f565b610c36565b60405190151581526020016102a6565b3480156104f257600080fd5b50610273610501366004612b69565b610c4d565b34801561051257600080fd5b50610273610f96565b34801561052757600080fd5b506102ef607c5481565b34801561053d57600080fd5b506102ef606e5481565b34801561055357600080fd5b50610273610562366004612bcd565b610fab565b34801561057357600080fd5b50610587610582366004612b4f565b61105a565b6040805194855260208501939093529183015260608201526080016102a6565b3480156105b357600080fd5b506102736105c2366004612ca0565b611208565b3480156105d357600080fd5b506105e76105e2366004612b4f565b611237565b60405160ff90911681526020016102a6565b34801561060557600080fd5b50610273611327565b34801561061a57600080fd5b506102ef60755481565b34801561063057600080fd5b5061031d61063f366004612b4f565b6001600160a01b03166000908152606a6020908152604080832060018082015460058301546007840154600290940154606b90965293909520805491015494959294919392909190565b34801561069557600080fd5b5061027361135d565b3480156106aa57600080fd5b506102ef6106b9366004612ca0565b61141d565b3480156106ca57600080fd5b506102736106d9366004612b69565b61143d565b3480156106ea57600080fd5b506102736106f9366004612ca0565b6117b5565b34801561070a57600080fd5b5061073a610719366004612b4f565b606b6020526000908152604090208054600182015460029092015490919083565b604080519384526020840192909252908201526060016102a6565b34801561076157600080fd5b506033546001600160a01b0316610488565b34801561077f57600080fd5b506102ef61078e366004612b69565b6117e4565b34801561079f57600080fd5b506102ef607b5481565b3480156107b557600080fd5b506104d66107c4366004612b92565b611839565b3480156107d557600080fd5b506108476107e4366004612b4f565b606a60205260009081526040902080546001820154600283015460038401546004850154600586015460068701546007880154600889015460098a0154600a909a01546001600160a01b039099169997989697959694959394929391929091908b565b604080516001600160a01b03909c168c5260208c019a909a52988a01979097526060890195909552608088019390935260a087019190915260c086015260e0850152610100840152610120830152610140820152610160016102a6565b3480156108b057600080fd5b506102736108bf366004612ca0565b61187b565b3480156108d057600080fd5b506102736118aa565b3480156108e557600080fd5b506102ef607d5481565b3480156108fb57600080fd5b506102ef61090a366004612ca0565b611901565b34801561091b57600080fd5b5061027361092a366004612ca0565b611922565b34801561093b57600080fd5b5061027361094a366004612ca0565b611951565b34801561095b57600080fd5b5061027361198e565b34801561097057600080fd5b5061027361097f366004612ca0565b6119a0565b34801561099057600080fd5b506102ef607a5481565b3480156109a657600080fd5b506109f06109b5366004612b4f565b606c60205260009081526040902080546001820154600283015460038401546004909401546001600160a01b03938416949390921692909185565b604080516001600160a01b039687168152959094166020860152928401919091526060830152608082015260a0016102a6565b348015610a2f57600080fd5b506102ef60001981565b348015610a4557600080fd5b50610273610a54366004612ca0565b6119cf565b348015610a6557600080fd5b506102ef60795481565b348015610a7b57600080fd5b506102ef60785481565b348015610a9157600080fd5b506102ef60745481565b348015610aa757600080fd5b50610587610ab6366004612b4f565b6119fe565b348015610ac757600080fd5b50610273610ad6366004612b4f565b611a5b565b6001600160a01b038082166000818152606a6020908152604080832081516101608101835281549096168652600180820154878501526002808301548885015260038301546060808a0191909152600484015460808a0152600584015460a08a01908152600685015460c08b0152600785015460e08b015260088501546101008b0190815260098601546101208c0152600a909501546101408b0152978752606b8652848720855191820186528054808352938101549682019690965294015492840192909252935193519294859490939091610bb89190612d73565b610bc29190612d73565b93508160e0015192505050915091565b6033546001600160a01b03163314610c055760405162461bcd60e51b8152600401610bfc90612cf3565b60405180910390fd5b6014811115610c1357600080fd5b606e55565b6000806000806000610c298661105a565b5098975050505050505050565b6000806000610c4484610adb565b10949350505050565b6068546040516379a5b22760e01b81523360048201819052602482018490529160009182916001600160a01b0316906379a5b22790604401604080518083038186803b158015610c9c57600080fd5b505afa158015610cb0573d6000803e3d6000fd5b505050506040513d601f19601f82011682018060405250810190610cd49190612cd0565b909250905081610ce26118aa565b607354851015610d265760405162461bcd60e51b815260206004820152600f60248201526e135a5b9a5b5d5b4819195c1bdcda5d608a1b6044820152606401610bfc565b6001600160a01b0384166000908152606a6020526040902060050154610d9857607254851015610d985760405162461bcd60e51b815260206004820152601760248201527f496e697469616c206465706f73697420746f6f206c6f770000000000000000006044820152606401610bfc565b610da28487611af3565b6000610daf606487612db0565b610db886610c18565b1115610e0c576000610dcb866001611caa565b9050610def6064610de9610de26064606d54611f11565b8490611f42565b90611f83565b9150610dfb8284612d73565b9250610e08600283612db0565b9150505b6068546065546040516323b872dd60e01b81526001600160a01b0388811660048301529182166024820152604481018990529116906323b872dd90606401602060405180830381600087803b158015610e6457600080fd5b505af1158015610e78573d6000803e3d6000fd5b505050506040513d601f19601f82011682018060405250810190610e9c9190612c80565b610ee85760405162461bcd60e51b815260206004820152601b60248201527f434149524f20746f6b656e207472616e73666572206661696c656400000000006044820152606401610bfc565b610ef28583611f8f565b610f0885610f008387612d73565b607154612092565b6001600160a01b0385166000818152606a60209081526040918290206001810154600582015460078301546002909301548551928352938201529283015260608201527f51e3415e8dd1b315ada9b5823098637d5b45e2c277bbc5069a7be8a834c5bf019060800160405180910390a2607d8054906000610f8883612e06565b919050555050505050505050565b610f9e6118aa565b33610fa881612635565b50565b6033546001600160a01b03163314610fd55760405162461bcd60e51b8152600401610bfc90612cf3565b607054815114610fe457600080fd5b610ff060776000612b01565b60005b6070548160ff161015611056576077828260ff168151811061102557634e487b7160e01b600052603260045260246000fd5b602090810291909101810151825460018101845560009384529190922001558061104e81612e21565b915050610ff3565b5050565b60008060008061109d607554611097606a6000896001600160a01b03166001600160a01b031681526020019081526020016000206005015461141d565b906128f8565b6001600160a01b0386166000908152606a6020526040812060070154919450908411156112005761111362015180610de968056bc75e2d63100000610de9606f54670de0b6b3a76400006110f19190612dd0565b6001600160a01b038c166000908152606a602052604090206005015490611f42565b6001600160a01b0387166000908152606a602052604090206006015490915061113d90429061290e565b6111479082612dd0565b6001600160a01b0387166000908152606a60205260409020600a01549095506111709086612d73565b6001600160a01b0387166000908152606a6020526040902060070154909550849061119c908790612d73565b11156111cc576001600160a01b0386166000908152606a60205260409020600701546111c990859061290e565b94505b60006111d887876117e4565b905060646111e68288612dd0565b6111f09190612db0565b92506111fc868461290e565b9350505b509193509193565b6033546001600160a01b031633146112325760405162461bcd60e51b8152600401610bfc90612cf3565b606f55565b600080805b6070548160ff1610156113205760778160ff168154811061126d57634e487b7160e01b600052603260045260246000fd5b6000918252602090912001546067546040516370a0823160e01b81526001600160a01b038781166004830152909116906370a082319060240160206040518083038186803b1580156112be57600080fd5b505afa1580156112d2573d6000803e3d6000fd5b505050506040513d601f19601f820116820180604052508101906112f69190612cb8565b101561130157611320565b61130c600183612d8b565b91508061131881612e21565b91505061123c565b5092915050565b6033546001600160a01b031633146113515760405162461bcd60e51b8152600401610bfc90612cf3565b61135b6000612931565b565b600054610100900460ff166113785760005460ff161561137c565b303b155b6113df5760405162461bcd60e51b815260206004820152602e60248201527f496e697469616c697a61626c653a20636f6e747261637420697320616c72656160448201526d191e481a5b9a5d1a585b1a5e995960921b6064820152608401610bfc565b600054610100900460ff16158015611401576000805461ffff19166101011790555b611409612983565b8015610fa8576000805461ff001916905550565b6000606461142d8361016d612dd0565b6114379190612db0565b92915050565b6068546040516379a5b22760e01b81523360048201819052602482018490529160009182916001600160a01b0316906379a5b22790604401604080518083038186803b15801561148c57600080fd5b505afa1580156114a0573d6000803e3d6000fd5b505050506040513d601f19601f820116820180604052508101906114c49190612cd0565b6068546065546040516323b872dd60e01b81526001600160a01b03888116600483015291821660248201526044810189905293955091935016906323b872dd90606401602060405180830381600087803b15801561152157600080fd5b505af1158015611535573d6000803e3d6000fd5b505050506040513d601f19601f820116820180604052508101906115599190612c80565b6115db5760405162461bcd60e51b815260206004820152604760248201527f434149524f20746f20636f6e7472616374207472616e73666572206661696c6560448201527f643b20636865636b2062616c616e636520616e6420616c6c6f77616e63652c20606482015266061697264726f760cc1b608482015260a401610bfc565b6001600160a01b038581166000908152606a6020526040902054166116325760405162461bcd60e51b815260206004820152600d60248201526c17dd1bc81b9bdd08199bdd5b99609a1b6044820152606401610bfc565b600061163d8661105a565b5050506001600160a01b0387166000908152606a60205260408120600a810183905560050180549293508592909190611677908490612d73565b90915550506001600160a01b038087166000908152606a60209081526040808320426006909101559287168252606b905290812080548592906116bb908490612d73565b90915550506001600160a01b038085166000908152606b602052604080822042600290910155918816815290812060010180548592906116fc908490612d73565b9250508190555082607860008282546117159190612d73565b925050819055506001607d600082825461172f9190612d73565b9091555050604080518481524260208201526001600160a01b0380891692908716917ff6cef455daa2f0926726c225d4ab406e2be4fb2f4d92b0b4bd58e9127d501e18910160405180910390a3856001600160a01b0316600080516020612e6e833981519152846040516117a591815260200190565b60405180910390a2505050505050565b6033546001600160a01b031633146117df5760405162461bcd60e51b8152600401610bfc90612cf3565b607155565b6074546001600160a01b0383166000908152606a6020526040812060070154909182916118169190610de990866129b2565b9050611824816076546128f8565b9050611831816005612dd0565b949350505050565b6001600160a01b038281166000908152606a602052604081205490911661186257506001611437565b8160ff1661186f84611237565b60ff1610159392505050565b6033546001600160a01b031633146118a55760405162461bcd60e51b8152600401610bfc90612cf3565b607255565b336000818152606c602052604090819020426003909101819055905182917fda763d657043a37d5b6727921f1afb11f752742cbbd2590d990a8d3b9ff357ae916118f691815260200190565b60405180910390a250565b6077818154811061191157600080fd5b600091825260209091200154905081565b6033546001600160a01b0316331461194c5760405162461bcd60e51b8152600401610bfc90612cf3565b607055565b6033546001600160a01b0316331461197b5760405162461bcd60e51b8152600401610bfc90612cf3565b601481111561198957600080fd5b606d55565b6119966118aa565b33610fa8816129de565b6033546001600160a01b031633146119ca5760405162461bcd60e51b8152600401610bfc90612cf3565b607455565b6033546001600160a01b031633146119f95760405162461bcd60e51b8152600401610bfc90612cf3565b607555565b6001600160a01b0381166000908152606c6020526040812060020154908080611a27428561290e565b6001600160a01b0386166000908152606c60205260409020600301549093509150611a52428361290e565b90509193509193565b6033546001600160a01b03163314611a855760405162461bcd60e51b8152600401610bfc90612cf3565b6001600160a01b038116611aea5760405162461bcd60e51b815260206004820152602660248201527f4f776e61626c653a206e6577206f776e657220697320746865207a65726f206160448201526564647265737360d01b6064820152608401610bfc565b610fa881612931565b6001600160a01b038281166000908152606a602052604090205416158015611b2d5750816001600160a01b0316816001600160a01b031614155b8015611b4757506033546001600160a01b03838116911614155b8015611b8457506001600160a01b0381166000908152606a6020526040902060060154151580611b8457506033546001600160a01b038281169116145b15611056576001600160a01b038281166000908152606a602052604080822080546001600160a01b0319169385169384179055918152908120600101805491611bcc83612e06565b9190505550806001600160a01b0316826001600160a01b03167f9f4d150e5193cfa9a87226111d3b60b624d97ccc056eeeac1569af1ea27bf64160405160405180910390a360798054906000611c2183612e06565b919050555060005b6070548160ff161015611ca5576001600160a01b038216611c4957505050565b6001600160a01b0382166000908152606a60205260408120600201805491611c7083612e06565b90915550506001600160a01b039182166000908152606a60205260409020549091169080611c9d81612e21565b915050611c29565b505050565b6000806000806000611cbb8761105a565b6001600160a01b038b166000908152606a6020526040902060070154939750919550935091508311611d1e5760405162461bcd60e51b815260206004820152600c60248201526b46756c6c207061796f75747360a01b6044820152606401610bfc565b8115611de1576001600160a01b0387166000908152606a60205260409020600701548390611d4d908490612d73565b1115611d7d576001600160a01b0387166000908152606a6020526040902060070154611d7a90849061290e565b91505b6001600160a01b0387166000908152606a602052604081206007018054869290611da8908490612d73565b90915550869050611de1576000611dd16064610de9611dca6064606d54611f11565b8690611f42565b9050611ddf88826005612092565b505b60008211611e1f5760405162461bcd60e51b815260206004820152600b60248201526a16995c9bc81c185e5bdd5d60aa1b6044820152606401610bfc565b81607b6000828254611e319190612d73565b90915550506001600160a01b0387166000818152606a6020526040808220426006820155600a0191909155517f884edad9ce6fa2440d8a54cc123490eb96d2768479d49ff9c7366125a942436490611e8c9085815260200190565b60405180910390a26001600160a01b0387166000908152606a60205260409020600701548311611f07576001600160a01b0387166000818152606a60209081526040918290206007015491519182527f97ddeb77c85e6a1dd99a34fe2bb1a4f9b211d5ffced7a707de9dbeb24363d0e4910160405180910390a25b5095945050505050565b600082821115611f3157634e487b7160e01b600052600160045260246000fd5b611f3b8284612def565b9392505050565b600082611f5157506000611437565b611f5b8284612dd0565b905081611f688483612db0565b1461143757634e487b7160e01b600052600160045260246000fd5b6000611f3b8284612db0565b6001600160a01b038281166000908152606a602052604090205416151580611fc457506033546001600160a01b038381169116145b611ffc5760405162461bcd60e51b81526020600482015260096024820152684e6f2075706c696e6560b81b6044820152606401610bfc565b6001600160a01b0382166000908152606a602052604081206005018054839290612027908490612d73565b90915550506001600160a01b0382166000908152606a6020526040812042600690910155607a805483929061205d908490612d73565b90915550506040518181526001600160a01b03831690600080516020612e6e8339815191529060200160405180910390a25050565b6001600160a01b038084166000908152606a60205260408120549091169060646120bc8486612dd0565b6120c69190612db0565b905060006120d5600483612db0565b905060006120e38383611f11565b90506000805b6070548160ff1610156125b8576001600160a01b038616612128576070546001600160a01b038a166000908152606a60205260409020600901556125b8565b6001600160a01b0389166000908152606a602052604090206009015460ff821614156125885761215d866107c4836001612d8b565b801561216d575061216d86610c36565b15612556576001600160a01b0386166000908152606a602052604090206001015460051180159061219c575081155b15612417576001915060006121b08761105a565b5050506001600160a01b0388166000908152606a60205260408120600a8101839055600501805492935086929091906121ea908490612d73565b90915550506001600160a01b0387166000908152606a60205260408120426006909101556122178b61105a565b5050506001600160a01b038c166000908152606a60205260408120600a810183905560050180549293508892909190612251908490612d73565b90915550506001600160a01b03808c166000908152606a602052604080822042600690910155918a1681529081206004018054879290612292908490612d73565b90915550506001600160a01b0388166000908152606b6020526040812080548892906122bf908490612d73565b90915550506001600160a01b038089166000908152606b602052604080822042600290910155918d1681529081206001018054889290612300908490612d73565b9250508190555085607860008282546123199190612d73565b90915550506040518681526001600160a01b038c1690600080516020612e6e8339815191529060200160405180910390a2876001600160a01b0316600080516020612e6e8339815191528660405161237391815260200190565b60405180910390a2604080518781524260208201526001600160a01b03808e1692908b16917ff6cef455daa2f0926726c225d4ab406e2be4fb2f4d92b0b4bd58e9127d501e18910160405180910390a38a6001600160a01b0316886001600160a01b03167f16e746f9be6c4b545700b04df27afb9fceabf59b94ef1c816e78a435059fabea8760405161240891815260200190565b60405180910390a35050612512565b60006124228761105a565b5050506001600160a01b0388166000908152606a60205260408120600a81018390556005018054929350889290919061245c908490612d73565b90915550506001600160a01b0387166000908152606a602052604081204260068201556004018054889290612492908490612d73565b90915550506040518681526001600160a01b03881690600080516020612e6e8339815191529060200160405180910390a2896001600160a01b0316876001600160a01b03167f16e746f9be6c4b545700b04df27afb9fceabf59b94ef1c816e78a435059fabea8860405161250891815260200190565b60405180910390a3505b6001600160a01b038681166000908152606a602052604090205416612551576070546001600160a01b038a166000908152606a60205260409020600901555b6125b8565b6001600160a01b0389166000908152606a60205260408120600901805460019290612582908490612d73565b90915550505b6001600160a01b039586166000908152606a602052604090205490951694806125b081612e21565b9150506120e9565b506001600160a01b0388166000908152606a602052604081206009018054600192906125e5908490612d73565b90915550506070546001600160a01b0389166000908152606a60205260409020600901541061262b576001600160a01b0388166000908152606a60205260408120600901555b5050505050505050565b6000612642826001611caa565b6068546065546040516370a0823160e01b81526001600160a01b0391821660048201529293506000929116906370a082319060240160206040518083038186803b15801561268f57600080fd5b505afa1580156126a3573d6000803e3d6000fd5b505050506040513d601f19601f820116820180604052508101906126c79190612cb8565b90508181101561276a5760006126dd8383611f11565b6066546065546040516340c10f1960e01b81526001600160a01b0391821660048201526024810184905292935016906340c10f1990604401602060405180830381600087803b15801561272f57600080fd5b505af1158015612743573d6000803e3d6000fd5b505050506040513d601f19601f820116820180604052508101906127679190612cb8565b50505b606954604051632e1a7d4d60e01b8152600481018490526001600160a01b0390911690632e1a7d4d90602401600060405180830381600087803b1580156127b057600080fd5b505af11580156127c4573d6000803e3d6000fd5b5050505060006127df6064610de9611dca6064606e54611f11565b60685460405163a9059cbb60e01b8152336004820152602481018390529192506001600160a01b03169063a9059cbb90604401602060405180830381600087803b15801561282c57600080fd5b505af1158015612840573d6000803e3d6000fd5b505050506040513d601f19601f820116820180604052508101906128649190612c80565b61286d57600080fd5b6001600160a01b0384166000818152606a60209081526040918290206001810154600582015460078301546002909301548551928352938201529283015260608201527f51e3415e8dd1b315ada9b5823098637d5b45e2c277bbc5069a7be8a834c5bf019060800160405180910390a2607d80549060006128ed83612e06565b919050555050505050565b60008183106129075781611f3b565b5090919050565b60008282111561292057506000611437565b61292a8284612def565b9050611437565b603380546001600160a01b038381166001600160a01b0319831681179093556040519116919082907f8be0079c531659141344cd1fd0a4f28419497f9722a3daafe3b4186f6b6457e090600090a35050565b600054610100900460ff166129aa5760405162461bcd60e51b8152600401610bfc90612d28565b61135b612ad1565b60006129be8284612d73565b90508281101561143757634e487b7160e01b600052600160045260246000fd5b60006129eb826000611caa565b90506000612a0b6064610de9612a046064606d54611f11565b8590611f42565b9050612a178382611f8f565b6001600160a01b0383166000908152606a602052604081206008018054839290612a42908490612d73565b90915550506001600160a01b0383166000818152606a60209081526040918290206001810154600582015460078301546002909301548551928352938201529283015260608201527f51e3415e8dd1b315ada9b5823098637d5b45e2c277bbc5069a7be8a834c5bf019060800160405180910390a2607d8054906000612ac783612e06565b9190505550505050565b600054610100900460ff16612af85760405162461bcd60e51b8152600401610bfc90612d28565b61135b33612931565b5080546000825590600052602060002090810190610fa891905b80821115612b2f5760008155600101612b1b565b5090565b80356001600160a01b0381168114612b4a57600080fd5b919050565b600060208284031215612b60578081fd5b611f3b82612b33565b60008060408385031215612b7b578081fd5b612b8483612b33565b946020939093013593505050565b60008060408385031215612ba4578182fd5b612bad83612b33565b9150602083013560ff81168114612bc2578182fd5b809150509250929050565b60006020808385031215612bdf578182fd5b823567ffffffffffffffff80821115612bf6578384fd5b818501915085601f830112612c09578384fd5b813581811115612c1b57612c1b612e57565b8060051b604051601f19603f83011681018181108582111715612c4057612c40612e57565b604052828152858101935084860182860187018a1015612c5e578788fd5b8795505b83861015610c29578035855260019590950194938601938601612c62565b600060208284031215612c91578081fd5b81518015158114611f3b578182fd5b600060208284031215612cb1578081fd5b5035919050565b600060208284031215612cc9578081fd5b5051919050565b60008060408385031215612ce2578182fd5b505080516020909101519092909150565b6020808252818101527f4f776e61626c653a2063616c6c6572206973206e6f7420746865206f776e6572604082015260600190565b6020808252602b908201527f496e697469616c697a61626c653a20636f6e7472616374206973206e6f74206960408201526a6e697469616c697a696e6760a81b606082015260800190565b60008219821115612d8657612d86612e41565b500190565b600060ff821660ff84168060ff03821115612da857612da8612e41565b019392505050565b600082612dcb57634e487b7160e01b81526012600452602481fd5b500490565b6000816000190483118215151615612dea57612dea612e41565b500290565b600082821015612e0157612e01612e41565b500390565b6000600019821415612e1a57612e1a612e41565b5060010190565b600060ff821660ff811415612e3857612e38612e41565b60010192915050565b634e487b7160e01b600052601160045260246000fd5b634e487b7160e01b600052604160045260246000fdfe2cb77763bc1e8490c1a904905c4d74b4269919aca114464f4bb4d911e60de364a2646970667358221220439a990816d5acd109f800415df70e216c6387b41f46d79908464d18622c3aff64736f6c63430008040033",
  "linkReferences": {},
  "deployedLinkReferences": {}
}