{
  "_format": "hh-sol-artifact-1",
  "contractName": "MasterChefTimelock",
  "sourceName": "contracts/farm/MasterChefTimelock.sol",
  "abi": [
    {
      "inputs": [
        {
          "internalType": "contract MasterChef",
          "name": "masterChef_",
          "type": "address"
        },
        {
          "internalType": "address",
          "name": "admin_",
          "type": "address"
        },
        {
          "internalType": "uint256",
          "name": "delay_",
          "type": "uint256"
        }
      ],
      "stateMutability": "nonpayable",
      "type": "constructor"
    },
    {
      "anonymous": false,
      "inputs": [
        {
          "indexed": true,
          "internalType": "bytes32",
          "name": "txHash",
          "type": "bytes32"
        },
        {
          "indexed": true,
          "internalType": "address",
          "name": "target",
          "type": "address"
        },
        {
          "indexed": false,
          "internalType": "uint256",
          "name": "value",
          "type": "uint256"
        },
        {
          "indexed": false,
          "internalType": "string",
          "name": "signature",
          "type": "string"
        },
        {
          "indexed": false,
          "internalType": "bytes",
          "name": "data",
          "type": "bytes"
        },
        {
          "indexed": false,
          "internalType": "uint256",
          "name": "eta",
          "type": "uint256"
        }
      ],
      "name": "CancelTransaction",
      "type": "event"
    },
    {
      "anonymous": false,
      "inputs": [
        {
          "indexed": true,
          "internalType": "bytes32",
          "name": "txHash",
          "type": "bytes32"
        },
        {
          "indexed": true,
          "internalType": "address",
          "name": "target",
          "type": "address"
        },
        {
          "indexed": false,
          "internalType": "uint256",
          "name": "value",
          "type": "uint256"
        },
        {
          "indexed": false,
          "internalType": "string",
          "name": "signature",
          "type": "string"
        },
        {
          "indexed": false,
          "internalType": "bytes",
          "name": "data",
          "type": "bytes"
        },
        {
          "indexed": false,
          "internalType": "uint256",
          "name": "eta",
          "type": "uint256"
        }
      ],
      "name": "ExecuteTransaction",
      "type": "event"
    },
    {
      "anonymous": false,
      "inputs": [
        {
          "indexed": true,
          "internalType": "address",
          "name": "newAdmin",
          "type": "address"
        }
      ],
      "name": "NewAdmin",
      "type": "event"
    },
    {
      "anonymous": false,
      "inputs": [
        {
          "indexed": true,
          "internalType": "uint256",
          "name": "newDelay",
          "type": "uint256"
        }
      ],
      "name": "NewDelay",
      "type": "event"
    },
    {
      "anonymous": false,
      "inputs": [
        {
          "indexed": true,
          "internalType": "address",
          "name": "newPendingAdmin",
          "type": "address"
        }
      ],
      "name": "NewPendingAdmin",
      "type": "event"
    },
    {
      "anonymous": false,
      "inputs": [
        {
          "indexed": true,
          "internalType": "bytes32",
          "name": "txHash",
          "type": "bytes32"
        },
        {
          "indexed": true,
          "internalType": "address",
          "name": "target",
          "type": "address"
        },
        {
          "indexed": false,
          "internalType": "uint256",
          "name": "value",
          "type": "uint256"
        },
        {
          "indexed": false,
          "internalType": "string",
          "name": "signature",
          "type": "string"
        },
        {
          "indexed": false,
          "internalType": "bytes",
          "name": "data",
          "type": "bytes"
        },
        {
          "indexed": false,
          "internalType": "uint256",
          "name": "eta",
          "type": "uint256"
        }
      ],
      "name": "QueueTransaction",
      "type": "event"
    },
    {
      "inputs": [],
      "name": "GRACE_PERIOD",
      "outputs": [
        {
          "internalType": "uint256",
          "name": "",
          "type": "uint256"
        }
      ],
      "stateMutability": "view",
      "type": "function"
    },
    {
      "inputs": [],
      "name": "MAXIMUM_DELAY",
      "outputs": [
        {
          "internalType": "uint256",
          "name": "",
          "type": "uint256"
        }
      ],
      "stateMutability": "view",
      "type": "function"
    },
    {
      "inputs": [],
      "name": "MINIMUM_DELAY",
      "outputs": [
        {
          "internalType": "uint256",
          "name": "",
          "type": "uint256"
        }
      ],
      "stateMutability": "view",
      "type": "function"
    },
    {
      "inputs": [],
      "name": "acceptAdmin",
      "outputs": [],
      "stateMutability": "nonpayable",
      "type": "function"
    },
    {
      "inputs": [
        {
          "internalType": "uint256",
          "name": "_allocPoint",
          "type": "uint256"
        },
        {
          "internalType": "contract IBEP20",
          "name": "_lpToken",
          "type": "address"
        },
        {
          "internalType": "bool",
          "name": "_withUpdate",
          "type": "bool"
        }
      ],
      "name": "add",
      "outputs": [],
      "stateMutability": "nonpayable",
      "type": "function"
    },
    {
      "inputs": [
        {
          "internalType": "address",
          "name": "pool",
          "type": "address"
        },
        {
          "internalType": "uint256",
          "name": "pid",
          "type": "uint256"
        }
      ],
      "name": "addExistsPools",
      "outputs": [],
      "stateMutability": "nonpayable",
      "type": "function"
    },
    {
      "inputs": [],
      "name": "admin",
      "outputs": [
        {
          "internalType": "address",
          "name": "",
          "type": "address"
        }
      ],
      "stateMutability": "view",
      "type": "function"
    },
    {
      "inputs": [],
      "name": "admin_initialized",
      "outputs": [
        {
          "internalType": "bool",
          "name": "",
          "type": "bool"
        }
      ],
      "stateMutability": "view",
      "type": "function"
    },
    {
      "inputs": [
        {
          "internalType": "address",
          "name": "target",
          "type": "address"
        },
        {
          "internalType": "uint256",
          "name": "value",
          "type": "uint256"
        },
        {
          "internalType": "string",
          "name": "signature",
          "type": "string"
        },
        {
          "internalType": "bytes",
          "name": "data",
          "type": "bytes"
        },
        {
          "internalType": "uint256",
          "name": "eta",
          "type": "uint256"
        }
      ],
      "name": "cancelTransaction",
      "outputs": [],
      "stateMutability": "nonpayable",
      "type": "function"
    },
    {
      "inputs": [
        {
          "internalType": "address",
          "name": "pool",
          "type": "address"
        }
      ],
      "name": "delExistsPools",
      "outputs": [],
      "stateMutability": "nonpayable",
      "type": "function"
    },
    {
      "inputs": [],
      "name": "delay",
      "outputs": [
        {
          "internalType": "uint256",
          "name": "",
          "type": "uint256"
        }
      ],
      "stateMutability": "view",
      "type": "function"
    },
    {
      "inputs": [
        {
          "internalType": "uint256",
          "name": "_pid",
          "type": "uint256"
        }
      ],
      "name": "excludedPidUpdate",
      "outputs": [],
      "stateMutability": "nonpayable",
      "type": "function"
    },
    {
      "inputs": [],
      "name": "executeSetMigrator",
      "outputs": [],
      "stateMutability": "nonpayable",
      "type": "function"
    },
    {
      "inputs": [
        {
          "internalType": "address",
          "name": "target",
          "type": "address"
        },
        {
          "internalType": "uint256",
          "name": "value",
          "type": "uint256"
        },
        {
          "internalType": "string",
          "name": "signature",
          "type": "string"
        },
        {
          "internalType": "bytes",
          "name": "data",
          "type": "bytes"
        },
        {
          "internalType": "uint256",
          "name": "eta",
          "type": "uint256"
        }
      ],
      "name": "executeTransaction",
      "outputs": [
        {
          "internalType": "bytes",
          "name": "",
          "type": "bytes"
        }
      ],
      "stateMutability": "payable",
      "type": "function"
    },
    {
      "inputs": [],
      "name": "executeTransferCairoOwnership",
      "outputs": [],
      "stateMutability": "nonpayable",
      "type": "function"
    },
    {
      "inputs": [],
      "name": "executeTransferOwnership",
      "outputs": [],
      "stateMutability": "nonpayable",
      "type": "function"
    },
    {
      "inputs": [],
      "name": "executeTransferSyrupOwnership",
      "outputs": [],
      "stateMutability": "nonpayable",
      "type": "function"
    },
    {
      "inputs": [
        {
          "internalType": "address",
          "name": "",
          "type": "address"
        }
      ],
      "name": "existsPools",
      "outputs": [
        {
          "internalType": "bool",
          "name": "",
          "type": "bool"
        }
      ],
      "stateMutability": "view",
      "type": "function"
    },
    {
      "inputs": [
        {
          "internalType": "uint256",
          "name": "_pid",
          "type": "uint256"
        }
      ],
      "name": "includePidUpdate",
      "outputs": [],
      "stateMutability": "nonpayable",
      "type": "function"
    },
    {
      "inputs": [
        {
          "internalType": "uint256",
          "name": "",
          "type": "uint256"
        }
      ],
      "name": "isExcludedPidUpdate",
      "outputs": [
        {
          "internalType": "bool",
          "name": "",
          "type": "bool"
        }
      ],
      "stateMutability": "view",
      "type": "function"
    },
    {
      "inputs": [],
      "name": "massUpdatePools",
      "outputs": [],
      "stateMutability": "nonpayable",
      "type": "function"
    },
    {
      "inputs": [],
      "name": "pendingAdmin",
      "outputs": [
        {
          "internalType": "address",
          "name": "",
          "type": "address"
        }
      ],
      "stateMutability": "view",
      "type": "function"
    },
    {
      "inputs": [
        {
          "internalType": "address",
          "name": "",
          "type": "address"
        }
      ],
      "name": "pidOfPool",
      "outputs": [
        {
          "internalType": "uint256",
          "name": "",
          "type": "uint256"
        }
      ],
      "stateMutability": "view",
      "type": "function"
    },
    {
      "inputs": [
        {
          "internalType": "address",
          "name": "target",
          "type": "address"
        },
        {
          "internalType": "uint256",
          "name": "value",
          "type": "uint256"
        },
        {
          "internalType": "string",
          "name": "signature",
          "type": "string"
        },
        {
          "internalType": "bytes",
          "name": "data",
          "type": "bytes"
        },
        {
          "internalType": "uint256",
          "name": "eta",
          "type": "uint256"
        }
      ],
      "name": "queueTransaction",
      "outputs": [
        {
          "internalType": "bytes32",
          "name": "",
          "type": "bytes32"
        }
      ],
      "stateMutability": "nonpayable",
      "type": "function"
    },
    {
      "inputs": [
        {
          "internalType": "bytes32",
          "name": "",
          "type": "bytes32"
        }
      ],
      "name": "queuedTransactions",
      "outputs": [
        {
          "internalType": "bool",
          "name": "",
          "type": "bool"
        }
      ],
      "stateMutability": "view",
      "type": "function"
    },
    {
      "inputs": [
        {
          "internalType": "uint256",
          "name": "_pid",
          "type": "uint256"
        },
        {
          "internalType": "uint256",
          "name": "_allocPoint",
          "type": "uint256"
        },
        {
          "internalType": "bool",
          "name": "_withUpdate",
          "type": "bool"
        }
      ],
      "name": "set",
      "outputs": [],
      "stateMutability": "nonpayable",
      "type": "function"
    },
    {
      "inputs": [
        {
          "internalType": "uint256",
          "name": "delay_",
          "type": "uint256"
        }
      ],
      "name": "setDelay",
      "outputs": [],
      "stateMutability": "nonpayable",
      "type": "function"
    },
    {
      "inputs": [
        {
          "internalType": "contract IMigratorChef",
          "name": "_migrator",
          "type": "address"
        }
      ],
      "name": "setMigrator",
      "outputs": [],
      "stateMutability": "nonpayable",
      "type": "function"
    },
    {
      "inputs": [
        {
          "internalType": "address",
          "name": "pendingAdmin_",
          "type": "address"
        }
      ],
      "name": "setPendingAdmin",
      "outputs": [],
      "stateMutability": "nonpayable",
      "type": "function"
    },
    {
      "inputs": [
        {
          "internalType": "address",
          "name": "newOwner",
          "type": "address"
        }
      ],
      "name": "transferCairoTokenOwnerShip",
      "outputs": [],
      "stateMutability": "nonpayable",
      "type": "function"
    },
    {
      "inputs": [
        {
          "internalType": "address",
          "name": "newOwner",
          "type": "address"
        }
      ],
      "name": "transferOwnership",
      "outputs": [],
      "stateMutability": "nonpayable",
      "type": "function"
    },
    {
      "inputs": [
        {
          "internalType": "address",
          "name": "newOwner",
          "type": "address"
        }
      ],
      "name": "transferSyrupTokenOwnerShip",
      "outputs": [],
      "stateMutability": "nonpayable",
      "type": "function"
    },
    {
      "inputs": [
        {
          "internalType": "uint256",
          "name": "multiplierNumber",
          "type": "uint256"
        }
      ],
      "name": "updateMultiplier",
      "outputs": [],
      "stateMutability": "nonpayable",
      "type": "function"
    },
    {
      "stateMutability": "payable",
      "type": "receive"
    }
  ],
  "bytecode": "0x60806040523480156200001157600080fd5b506040516200279b3803806200279b833981016040819052620000349162000206565b8181615460811015620000a35760405162461bcd60e51b815260206004820152603760248201526000805160206200277b83398151915260448201527f7420657863656564206d696e696d756d2064656c61792e00000000000000000060648201526084015b60405180910390fd5b62278d008111156200010d5760405162461bcd60e51b815260206004820152603b60248201526000805160206200277b83398151915260448201527f74206e6f7420657863656564206d6178696d756d2064656c61792e000000000060648201526084016200009a565b600080546001600160a01b0319166001600160a01b039384161790556002556003805460ff191690558316620001865760405162461bcd60e51b815260206004820152601a60248201527f696c6c6567616c206d617374657243686566206164647265737300000000000060448201526064016200009a565b6001600160a01b038216620001de5760405162461bcd60e51b815260206004820152601560248201527f696c6c6567616c2061646d696e2061646472657373000000000000000000000060448201526064016200009a565b5050600880546001600160a01b0319166001600160a01b039290921691909117905562000266565b6000806000606084860312156200021b578283fd5b835162000228816200024d565b60208501519093506200023b816200024d565b80925050604084015190509250925092565b6001600160a01b03811681146200026357600080fd5b50565b61250580620002766000396000f3fe6080604052600436106101825760003560e01c80630825f38f1461018e5780630da1c585146101b75780630e18b681146101d95780631eaaa045146101ee57806323cf31181461020e578063267822471461022e5780633a66f9011461025b578063482a8c70146102895780634dd18bf5146102a95780634ee01821146102c957806352692d86146102f6578063568e41501461030b578063591fcdfe1461034b5780635ffe61461461036b578063630b5ba11461038b57806364482f79146103a0578063686d5075146103c05780636a0cc67d146103d55780636a42b8f8146103ea5780636fc1f57e146104005780637074af5c1461041a578063781821ab1461042f5780637d645fab1461044f578063b1b43ae514610466578063b8b203871461047c578063c1a287e21461049c578063c3e11524146104b3578063d146bd61146104d3578063d6e2ff1d14610503578063e177246e14610523578063f2b0653714610543578063f2fde38b14610573578063f851a4401461059357600080fd5b3661018957005b600080fd5b6101a161019c3660046120bb565b6105b3565b6040516101ae91906122d9565b60405180910390f35b3480156101c357600080fd5b506101d76101d2366004612074565b61091f565b005b3480156101e557600080fd5b506101d7610a64565b3480156101fa57600080fd5b506101d7610209366004612198565b610b28565b34801561021a57600080fd5b506101d7610229366004612074565b610d8e565b34801561023a57600080fd5b5060015461024e906001600160a01b031681565b6040516101ae9190612279565b34801561026757600080fd5b5061027b6102763660046120bb565b610f22565b6040519081526020016101ae565b34801561029557600080fd5b506101d76102a4366004612168565b6110d5565b3480156102b557600080fd5b506101d76102c4366004612074565b611117565b3480156102d557600080fd5b5061027b6102e4366004612074565b60066020526000908152604090205481565b34801561030257600080fd5b506101d761126d565b34801561031757600080fd5b5061033b610326366004612074565b60056020526000908152604090205460ff1681565b60405190151581526020016101ae565b34801561035757600080fd5b506101d76103663660046120bb565b611346565b34801561037757600080fd5b506101d7610386366004612168565b611448565b34801561039757600080fd5b506101d76114d3565b3480156103ac57600080fd5b506101d76103bb3660046121d5565b6115e6565b3480156103cc57600080fd5b506101d7611759565b3480156103e157600080fd5b506101d7611832565b3480156103f657600080fd5b5061027b60025481565b34801561040c57600080fd5b5060035461033b9060ff1681565b34801561042657600080fd5b506101d761190b565b34801561043b57600080fd5b506101d761044a366004612074565b6119e4565b34801561045b57600080fd5b5061027b62278d0081565b34801561047257600080fd5b5061027b61546081565b34801561048857600080fd5b506101d7610497366004612168565b611b29565b3480156104a857600080fd5b5061027b6212750081565b3480156104bf57600080fd5b506101d76104ce366004612090565b611b6e565b3480156104df57600080fd5b5061033b6104ee366004612168565b60076020526000908152604090205460ff1681565b34801561050f57600080fd5b506101d761051e366004612074565b611c02565b34801561052f57600080fd5b506101d761053e366004612168565b611cc2565b34801561054f57600080fd5b5061033b61055e366004612168565b60046020526000908152604090205460ff1681565b34801561057f57600080fd5b506101d761058e366004612074565b611e41565b34801561059f57600080fd5b5060005461024e906001600160a01b031681565b6000546060906001600160a01b031633146106365760405162461bcd60e51b815260206004820152603860248201527f54696d656c6f636b3a3a657865637574655472616e73616374696f6e3a20436160448201527736361036bab9ba1031b7b6b290333937b69030b236b4b71760411b60648201526084015b60405180910390fd5b6000868686868660405160200161065195949392919061228d565b60408051601f1981840301815291815281516020928301206000818152600490935291205490915060ff166106dc5760405162461bcd60e51b815260206004820152603d60248201526000805160206124b083398151915260448201527f616e73616374696f6e206861736e2774206265656e207175657565642e000000606482015260840161062d565b8242101561074e5760405162461bcd60e51b815260206004820152604560248201526000805160206124b083398151915260448201527f616e73616374696f6e206861736e2774207375727061737365642074696d65206064820152643637b1b59760d91b608482015260a40161062d565b61075b8362127500611f86565b4211156107b45760405162461bcd60e51b815260206004820152603360248201526000805160206124b083398151915260448201527230b739b0b1ba34b7b71034b99039ba30b6329760691b606482015260840161062d565b6000818152600460205260409020805460ff1916905584516060906107da575083610806565b8580519060200120856040516020016107f492919061222c565b60405160208183030381529060405290505b600080896001600160a01b03168984604051610822919061225d565b60006040518083038185875af1925050503d806000811461085f576040519150601f19603f3d011682016040523d82523d6000602084013e610864565b606091505b5091509150816108ca5760405162461bcd60e51b815260206004820152603d60248201526000805160206124b083398151915260448201527f616e73616374696f6e20657865637574696f6e2072657665727465642e000000606482015260840161062d565b896001600160a01b0316847fa560e3198060a2f10670c1ec5b403077ea6ae93ca8de1c32b451dc1a943cd6e78b8b8b8b60405161090a94939291906123ab565b60405180910390a39998505050505050505050565b6000546001600160a01b031633146109495760405162461bcd60e51b815260040161062d90612365565b60145460ff16156109bf5760085460408051602081018252600080825260125492516109bf946001600160a01b039081169492939261098d92911690602401612279565b60408051601f198184030181529190526020810180516001600160e01b03166304682a6b60e01b179052601354611346565b6008546040805160208101825260008082529151610a28936001600160a01b03169291906109f1908690602401612279565b60408051601f198184030181529190526020810180516001600160e01b03166304682a6b60e01b17905260025461027690426123e8565b50601280546001600160a01b0319166001600160a01b038316179055600254610a5190426123e8565b601355506014805460ff19166001179055565b6001546001600160a01b03163314610adf5760405162461bcd60e51b815260206004820152603860248201527f54696d656c6f636b3a3a61636365707441646d696e3a2043616c6c206d7573746044820152771031b7b6b290333937b6903832b73234b733a0b236b4b71760411b606482015260840161062d565b60008054336001600160a01b0319918216811783556001805490921690915560405190917f71614071b88dee5e0b2ae578a9dd7b2ebbe9ae832ba419dc0242cd065a290b6c91a2565b6000546001600160a01b03163314610b525760405162461bcd60e51b815260040161062d90612365565b6001600160a01b038216610ba75760405162461bcd60e51b815260206004820152601c60248201527b05f6c70546f6b656e20616464726573732063616e6e6f7420626520360241b604482015260640161062d565b6001600160a01b03821660009081526005602052604090205460ff1615610be05760405162461bcd60e51b815260040161062d906122ec565b6040516370a0823160e01b81526001600160a01b038316906370a0823190610c0c903390600401612279565b60206040518083038186803b158015610c2457600080fd5b505afa158015610c38573d6000803e3d6000fd5b505050506040513d601f19601f82011682018060405250810190610c5c9190612180565b506008546040805163040f1f6d60e11b815290516000926001600160a01b03169163081e3eda916004808301926020929190829003018186803b158015610ca257600080fd5b505afa158015610cb6573d6000803e3d6000fd5b505050506040513d601f19601f82011682018060405250810190610cda9190612180565b600854604051631eaaa04560e01b8152600481018790526001600160a01b03868116602483015260006044830152929350911690631eaaa04590606401600060405180830381600087803b158015610d3157600080fd5b505af1158015610d45573d6000803e3d6000fd5b505050508115610d5757610d576114d3565b6001600160a01b039092166000908152600660209081526040808320949094556005905291909120805460ff191660011790555050565b6000546001600160a01b03163314610db85760405162461bcd60e51b815260040161062d90612365565b6001600160a01b038116610e0e5760405162461bcd60e51b815260206004820152601d60248201527f5f6d69677261746f7220616464726573732063616e6e6f742062652030000000604482015260640161062d565b600b5460ff1615610e7d576008546040805160208101825260008082529151610e7d936001600160a01b0316929190610e4b908690602401612279565b60408051601f198184030181529190526020810180516001600160e01b0316630479e62360e31b179052600a54611346565b6008546040805160208101825260008082529151610ee6936001600160a01b0316929190610eaf908690602401612279565b60408051601f198184030181529190526020810180516001600160e01b0316630479e62360e31b17905260025461027690426123e8565b50600980546001600160a01b0319166001600160a01b038316179055600254610f0f90426123e8565b600a5550600b805460ff19166001179055565b600080546001600160a01b03163314610f9c5760405162461bcd60e51b815260206004820152603660248201527f54696d656c6f636b3a3a71756575655472616e73616374696f6e3a2043616c6c6044820152751036bab9ba1031b7b6b290333937b69030b236b4b71760511b606482015260840161062d565b610faf600254610fa94290565b90611f86565b8210156110365760405162461bcd60e51b815260206004820152604960248201527f54696d656c6f636b3a3a71756575655472616e73616374696f6e3a204573746960448201527f6d6174656420657865637574696f6e20626c6f636b206d757374207361746973606482015268333c903232b630bc9760b91b608482015260a40161062d565b6000868686868660405160200161105195949392919061228d565b60408051601f19818403018152828252805160209182012060008181526004909252919020805460ff1916600117905591506001600160a01b0388169082907f76e2796dc3a81d57b0e8504b647febcbeeb5f4af818e164f11eef8131a6a763f906110c3908a908a908a908a906123ab565b60405180910390a39695505050505050565b6000546001600160a01b031633146110ff5760405162461bcd60e51b815260040161062d90612365565b6000908152600760205260409020805460ff19169055565b60035460ff1615611197573330146111925760405162461bcd60e51b815260206004820152603860248201527f54696d656c6f636b3a3a73657450656e64696e6741646d696e3a2043616c6c2060448201527736bab9ba1031b7b6b290333937b6902a34b6b2b637b1b59760411b606482015260840161062d565b611223565b6000546001600160a01b031633146112155760405162461bcd60e51b815260206004820152603b60248201527f54696d656c6f636b3a3a73657450656e64696e6741646d696e3a20466972737460448201527a1031b0b6361036bab9ba1031b7b6b290333937b69030b236b4b71760291b606482015260840161062d565b6003805460ff191660011790555b600180546001600160a01b0319166001600160a01b0383169081179091556040517f69d78e38a01985fbb1462961809b4b2d65531bc93b2b94037f3334b82ca4a75690600090a250565b6000546001600160a01b031633146112975760405162461bcd60e51b815260040161062d90612365565b60115460ff166112b95760405162461bcd60e51b815260040161062d90612323565b600854604080516020810182526000808252600f549251611324946001600160a01b03908116949293926112f292911690602401612279565b60408051601f198184030181529190526020810180516001600160e01b031663781821ab60e01b1790526010546105b3565b50600f80546001600160a01b031916905560006010556011805460ff19169055565b6000546001600160a01b031633146113ae5760405162461bcd60e51b81526020600482015260376024820152600080516020612490833981519152604482015276361036bab9ba1031b7b6b290333937b69030b236b4b71760491b606482015260840161062d565b600085858585856040516020016113c995949392919061228d565b60408051601f19818403018152828252805160209182012060008181526004909252919020805460ff1916905591506001600160a01b0387169082907f2fffc091a501fd91bfbff27141450d3acb40fb8e6d8382b243ec7a812a3aaf87906114389089908990899089906123ab565b60405180910390a3505050505050565b6000546001600160a01b031633146114725760405162461bcd60e51b815260040161062d90612365565b600854604051632fff30a360e11b8152600481018390526001600160a01b0390911690635ffe614690602401600060405180830381600087803b1580156114b857600080fd5b505af11580156114cc573d6000803e3d6000fd5b5050505050565b6008546040805163040f1f6d60e11b815290516000926001600160a01b03169163081e3eda916004808301926020929190829003018186803b15801561151857600080fd5b505afa15801561152c573d6000803e3d6000fd5b505050506040513d601f19601f820116820180604052508101906115509190612180565b905060005b818110156115e25760008181526007602052604090205460ff166115d2576008546040516328f582d360e11b8152600481018390526001600160a01b03909116906351eb05a690602401600060405180830381600087803b1580156115b957600080fd5b505af11580156115cd573d6000803e3d6000fd5b505050505b6115db81612430565b9050611555565b5050565b6000546001600160a01b031633146116105760405162461bcd60e51b815260040161062d90612365565b600860009054906101000a90046001600160a01b03166001600160a01b031663081e3eda6040518163ffffffff1660e01b815260040160206040518083038186803b15801561165e57600080fd5b505afa158015611672573d6000803e3d6000fd5b505050506040513d601f19601f820116820180604052508101906116969190612180565b83106116da5760405162461bcd60e51b8152602060048201526013602482015272141bdbdb08191bd95cc81b9bdd08195e1a5cdd606a1b604482015260640161062d565b6008546040516364482f7960e01b81526004810185905260248101849052600060448201526001600160a01b03909116906364482f7990606401600060405180830381600087803b15801561172e57600080fd5b505af1158015611742573d6000803e3d6000fd5b505050508015611754576117546114d3565b505050565b6000546001600160a01b031633146117835760405162461bcd60e51b815260040161062d90612365565b600b5460ff166117a55760405162461bcd60e51b815260040161062d90612323565b6008546040805160208101825260008082526009549251611810946001600160a01b03908116949293926117de92911690602401612279565b60408051601f198184030181529190526020810180516001600160e01b0316630479e62360e31b179052600a546105b3565b50600980546001600160a01b03191690556000600a55600b805460ff19169055565b6000546001600160a01b0316331461185c5760405162461bcd60e51b815260040161062d90612365565b60145460ff1661187e5760405162461bcd60e51b815260040161062d90612323565b60085460408051602081018252600080825260125492516118e9946001600160a01b03908116949293926118b792911690602401612279565b60408051601f198184030181529190526020810180516001600160e01b03166304682a6b60e01b1790526013546105b3565b50601280546001600160a01b031916905560006013556014805460ff19169055565b6000546001600160a01b031633146119355760405162461bcd60e51b815260040161062d90612365565b600e5460ff166119575760405162461bcd60e51b815260040161062d90612323565b600854604080516020810182526000808252600c5492516119c2946001600160a01b039081169492939261199092911690602401612279565b60408051601f198184030181529190526020810180516001600160e01b031663f2fde38b60e01b179052600d546105b3565b50600c80546001600160a01b03191690556000600d55600e805460ff19169055565b6000546001600160a01b03163314611a0e5760405162461bcd60e51b815260040161062d90612365565b60115460ff1615611a8457600854604080516020810182526000808252600f549251611a84946001600160a01b0390811694929392611a5292911690602401612279565b60408051601f198184030181529190526020810180516001600160e01b031663781821ab60e01b179052601054611346565b6008546040805160208101825260008082529151611aed936001600160a01b0316929190611ab6908690602401612279565b60408051601f198184030181529190526020810180516001600160e01b031663781821ab60e01b17905260025461027690426123e8565b50600f80546001600160a01b0319166001600160a01b038316179055600254611b1690426123e8565b601055506011805460ff19166001179055565b6000546001600160a01b03163314611b535760405162461bcd60e51b815260040161062d90612365565b6000908152600760205260409020805460ff19166001179055565b6000546001600160a01b03163314611b985760405162461bcd60e51b815260040161062d90612365565b6001600160a01b03821660009081526005602052604090205460ff1615611bd15760405162461bcd60e51b815260040161062d906122ec565b6001600160a01b039091166000908152600560209081526040808320805460ff191660011790556006909152902055565b6000546001600160a01b03163314611c2c5760405162461bcd60e51b815260040161062d90612365565b6001600160a01b03811660009081526005602052604090205460ff161515600114611c965760405162461bcd60e51b815260206004820152601a60248201527954696d656c6f636b3a3a2070616972206e6f742065786973747360301b604482015260640161062d565b6001600160a01b03166000908152600560209081526040808320805460ff191690556006909152812055565b333014611d2b5760405162461bcd60e51b815260206004820152603160248201527f54696d656c6f636b3a3a73657444656c61793a2043616c6c206d75737420636f60448201527036b290333937b6902a34b6b2b637b1b59760791b606482015260840161062d565b615460811015611d9a5760405162461bcd60e51b815260206004820152603460248201527f54696d656c6f636b3a3a73657444656c61793a2044656c6179206d75737420656044820152733c31b2b2b21036b4b734b6bab6903232b630bc9760611b606482015260840161062d565b62278d00811115611e0e5760405162461bcd60e51b815260206004820152603860248201527f54696d656c6f636b3a3a73657444656c61793a2044656c6179206d757374206e60448201527737ba1032bc31b2b2b21036b0bc34b6bab6903232b630bc9760411b606482015260840161062d565b600281905560405181907f948b1f6a42ee138b7e34058ba85a37f716d55ff25ff05a763f15bed6a04c8d2c90600090a250565b6000546001600160a01b03163314611e6b5760405162461bcd60e51b815260040161062d90612365565b600e5460ff1615611ee157600854604080516020810182526000808252600c549251611ee1946001600160a01b0390811694929392611eaf92911690602401612279565b60408051601f198184030181529190526020810180516001600160e01b031663f2fde38b60e01b179052600d54611346565b6008546040805160208101825260008082529151611f4a936001600160a01b0316929190611f13908690602401612279565b60408051601f198184030181529190526020810180516001600160e01b031663f2fde38b60e01b17905260025461027690426123e8565b50600c80546001600160a01b0319166001600160a01b038316179055600254611f7390426123e8565b600d5550600e805460ff19166001179055565b600080611f9383856123e8565b905083811015611fe35760405162461bcd60e51b815260206004820152601b60248201527a536166654d6174683a206164646974696f6e206f766572666c6f7760281b604482015260640161062d565b9392505050565b60006001600160401b038084111561200457612004612461565b604051601f8501601f19908116603f0116810190828211818310171561202c5761202c612461565b8160405280935085815286868601111561204557600080fd5b858560208301376000602087830101525050509392505050565b8035801515811461206f57600080fd5b919050565b600060208284031215612085578081fd5b8135611fe381612477565b600080604083850312156120a2578081fd5b82356120ad81612477565b946020939093013593505050565b600080600080600060a086880312156120d2578081fd5b85356120dd81612477565b94506020860135935060408601356001600160401b03808211156120ff578283fd5b818801915088601f830112612112578283fd5b61212189833560208501611fea565b94506060880135915080821115612136578283fd5b508601601f81018813612147578182fd5b61215688823560208401611fea565b95989497509295608001359392505050565b600060208284031215612179578081fd5b5035919050565b600060208284031215612191578081fd5b5051919050565b6000806000606084860312156121ac578283fd5b8335925060208401356121be81612477565b91506121cc6040850161205f565b90509250925092565b6000806000606084860312156121e9578283fd5b83359250602084013591506121cc6040850161205f565b60008151808452612218816020860160208601612400565b601f01601f19169290920160200192915050565b6001600160e01b031983168152815160009061224f816004850160208701612400565b919091016004019392505050565b6000825161226f818460208701612400565b9190910192915050565b6001600160a01b0391909116815260200190565b60018060a01b038616815284602082015260a0604082015260006122b460a0830186612200565b82810360608401526122c68186612200565b9150508260808301529695505050505050565b602081526000611fe36020830184612200565b6020808252601e908201527f54696d656c6f636b3a3a207061697220616c7265616479206578697374730000604082015260600190565b60208082526022908201527f54696d656c6f636b3a3a7365744d69677261746f72206e6f7420707265706172604082015261195960f21b606082015260800190565b60208082526038908201526000805160206124908339815191526040820152776c206d75737420636f6d652066726f6d2061646d696e2e3f60401b606082015260800190565b8481526080602082015260006123c46080830186612200565b82810360408401526123d68186612200565b91505082606083015295945050505050565b600082198211156123fb576123fb61244b565b500190565b60005b8381101561241b578181015183820152602001612403565b8381111561242a576000848401525b50505050565b60006000198214156124445761244461244b565b5060010190565b634e487b7160e01b600052601160045260246000fd5b634e487b7160e01b600052604160045260246000fd5b6001600160a01b038116811461248c57600080fd5b5056fe54696d656c6f636b3a3a63616e63656c5472616e73616374696f6e3a2043616c54696d656c6f636b3a3a657865637574655472616e73616374696f6e3a205472a264697066735822122037e82091b3d07d9b608fbe23aed8a273d8e892d7d5036ac2d0700001017c179264736f6c6343000804003354696d656c6f636b3a3a636f6e7374727563746f723a2044656c6179206d7573",
  "linkReferences": {},
  "deployedLinkReferences": {}
}