{
  "_format": "hh-sol-artifact-1",
  "contractName": "MasterChefTimelock",
  "sourceName": "contracts/farm/MasterChefTimelock.sol",
  "abi": [
    {
      "inputs": [
        {
          "internalType": "contract MasterChef",
          "name": "masterChef_",
          "type": "address"
        },
        {
          "internalType": "address",
          "name": "admin_",
          "type": "address"
        },
        {
          "internalType": "uint256",
          "name": "delay_",
          "type": "uint256"
        }
      ],
      "stateMutability": "nonpayable",
      "type": "constructor"
    },
    {
      "anonymous": false,
      "inputs": [
        {
          "indexed": true,
          "internalType": "bytes32",
          "name": "txHash",
          "type": "bytes32"
        },
        {
          "indexed": true,
          "internalType": "address",
          "name": "target",
          "type": "address"
        },
        {
          "indexed": false,
          "internalType": "uint256",
          "name": "value",
          "type": "uint256"
        },
        {
          "indexed": false,
          "internalType": "string",
          "name": "signature",
          "type": "string"
        },
        {
          "indexed": false,
          "internalType": "bytes",
          "name": "data",
          "type": "bytes"
        },
        {
          "indexed": false,
          "internalType": "uint256",
          "name": "eta",
          "type": "uint256"
        }
      ],
      "name": "CancelTransaction",
      "type": "event"
    },
    {
      "anonymous": false,
      "inputs": [
        {
          "indexed": true,
          "internalType": "bytes32",
          "name": "txHash",
          "type": "bytes32"
        },
        {
          "indexed": true,
          "internalType": "address",
          "name": "target",
          "type": "address"
        },
        {
          "indexed": false,
          "internalType": "uint256",
          "name": "value",
          "type": "uint256"
        },
        {
          "indexed": false,
          "internalType": "string",
          "name": "signature",
          "type": "string"
        },
        {
          "indexed": false,
          "internalType": "bytes",
          "name": "data",
          "type": "bytes"
        },
        {
          "indexed": false,
          "internalType": "uint256",
          "name": "eta",
          "type": "uint256"
        }
      ],
      "name": "ExecuteTransaction",
      "type": "event"
    },
    {
      "anonymous": false,
      "inputs": [
        {
          "indexed": true,
          "internalType": "address",
          "name": "newAdmin",
          "type": "address"
        }
      ],
      "name": "NewAdmin",
      "type": "event"
    },
    {
      "anonymous": false,
      "inputs": [
        {
          "indexed": true,
          "internalType": "uint256",
          "name": "newDelay",
          "type": "uint256"
        }
      ],
      "name": "NewDelay",
      "type": "event"
    },
    {
      "anonymous": false,
      "inputs": [
        {
          "indexed": true,
          "internalType": "address",
          "name": "newPendingAdmin",
          "type": "address"
        }
      ],
      "name": "NewPendingAdmin",
      "type": "event"
    },
    {
      "anonymous": false,
      "inputs": [
        {
          "indexed": true,
          "internalType": "bytes32",
          "name": "txHash",
          "type": "bytes32"
        },
        {
          "indexed": true,
          "internalType": "address",
          "name": "target",
          "type": "address"
        },
        {
          "indexed": false,
          "internalType": "uint256",
          "name": "value",
          "type": "uint256"
        },
        {
          "indexed": false,
          "internalType": "string",
          "name": "signature",
          "type": "string"
        },
        {
          "indexed": false,
          "internalType": "bytes",
          "name": "data",
          "type": "bytes"
        },
        {
          "indexed": false,
          "internalType": "uint256",
          "name": "eta",
          "type": "uint256"
        }
      ],
      "name": "QueueTransaction",
      "type": "event"
    },
    {
      "inputs": [],
      "name": "GRACE_PERIOD",
      "outputs": [
        {
          "internalType": "uint256",
          "name": "",
          "type": "uint256"
        }
      ],
      "stateMutability": "view",
      "type": "function"
    },
    {
      "inputs": [],
      "name": "MAXIMUM_DELAY",
      "outputs": [
        {
          "internalType": "uint256",
          "name": "",
          "type": "uint256"
        }
      ],
      "stateMutability": "view",
      "type": "function"
    },
    {
      "inputs": [],
      "name": "MINIMUM_DELAY",
      "outputs": [
        {
          "internalType": "uint256",
          "name": "",
          "type": "uint256"
        }
      ],
      "stateMutability": "view",
      "type": "function"
    },
    {
      "inputs": [],
      "name": "acceptAdmin",
      "outputs": [],
      "stateMutability": "nonpayable",
      "type": "function"
    },
    {
      "inputs": [
        {
          "internalType": "uint256",
          "name": "_allocPoint",
          "type": "uint256"
        },
        {
          "internalType": "contract IBEP20",
          "name": "_lpToken",
          "type": "address"
        },
        {
          "internalType": "bool",
          "name": "_withUpdate",
          "type": "bool"
        }
      ],
      "name": "add",
      "outputs": [],
      "stateMutability": "nonpayable",
      "type": "function"
    },
    {
      "inputs": [
        {
          "internalType": "address",
          "name": "pool",
          "type": "address"
        },
        {
          "internalType": "uint256",
          "name": "pid",
          "type": "uint256"
        }
      ],
      "name": "addExistsPools",
      "outputs": [],
      "stateMutability": "nonpayable",
      "type": "function"
    },
    {
      "inputs": [],
      "name": "admin",
      "outputs": [
        {
          "internalType": "address",
          "name": "",
          "type": "address"
        }
      ],
      "stateMutability": "view",
      "type": "function"
    },
    {
      "inputs": [],
      "name": "admin_initialized",
      "outputs": [
        {
          "internalType": "bool",
          "name": "",
          "type": "bool"
        }
      ],
      "stateMutability": "view",
      "type": "function"
    },
    {
      "inputs": [
        {
          "internalType": "address",
          "name": "target",
          "type": "address"
        },
        {
          "internalType": "uint256",
          "name": "value",
          "type": "uint256"
        },
        {
          "internalType": "string",
          "name": "signature",
          "type": "string"
        },
        {
          "internalType": "bytes",
          "name": "data",
          "type": "bytes"
        },
        {
          "internalType": "uint256",
          "name": "eta",
          "type": "uint256"
        }
      ],
      "name": "cancelTransaction",
      "outputs": [],
      "stateMutability": "nonpayable",
      "type": "function"
    },
    {
      "inputs": [
        {
          "internalType": "address",
          "name": "pool",
          "type": "address"
        }
      ],
      "name": "delExistsPools",
      "outputs": [],
      "stateMutability": "nonpayable",
      "type": "function"
    },
    {
      "inputs": [],
      "name": "delay",
      "outputs": [
        {
          "internalType": "uint256",
          "name": "",
          "type": "uint256"
        }
      ],
      "stateMutability": "view",
      "type": "function"
    },
    {
      "inputs": [
        {
          "internalType": "uint256",
          "name": "_pid",
          "type": "uint256"
        }
      ],
      "name": "excludedPidUpdate",
      "outputs": [],
      "stateMutability": "nonpayable",
      "type": "function"
    },
    {
      "inputs": [],
      "name": "executeSetMigrator",
      "outputs": [],
      "stateMutability": "nonpayable",
      "type": "function"
    },
    {
      "inputs": [
        {
          "internalType": "address",
          "name": "target",
          "type": "address"
        },
        {
          "internalType": "uint256",
          "name": "value",
          "type": "uint256"
        },
        {
          "internalType": "string",
          "name": "signature",
          "type": "string"
        },
        {
          "internalType": "bytes",
          "name": "data",
          "type": "bytes"
        },
        {
          "internalType": "uint256",
          "name": "eta",
          "type": "uint256"
        }
      ],
      "name": "executeTransaction",
      "outputs": [
        {
          "internalType": "bytes",
          "name": "",
          "type": "bytes"
        }
      ],
      "stateMutability": "payable",
      "type": "function"
    },
    {
      "inputs": [],
      "name": "executeTransferCairoOwnership",
      "outputs": [],
      "stateMutability": "nonpayable",
      "type": "function"
    },
    {
      "inputs": [],
      "name": "executeTransferOwnership",
      "outputs": [],
      "stateMutability": "nonpayable",
      "type": "function"
    },
    {
      "inputs": [],
      "name": "executeTransferSyrupOwnership",
      "outputs": [],
      "stateMutability": "nonpayable",
      "type": "function"
    },
    {
      "inputs": [
        {
          "internalType": "address",
          "name": "",
          "type": "address"
        }
      ],
      "name": "existsPools",
      "outputs": [
        {
          "internalType": "bool",
          "name": "",
          "type": "bool"
        }
      ],
      "stateMutability": "view",
      "type": "function"
    },
    {
      "inputs": [
        {
          "internalType": "uint256",
          "name": "_pid",
          "type": "uint256"
        }
      ],
      "name": "includePidUpdate",
      "outputs": [],
      "stateMutability": "nonpayable",
      "type": "function"
    },
    {
      "inputs": [
        {
          "internalType": "uint256",
          "name": "",
          "type": "uint256"
        }
      ],
      "name": "isExcludedPidUpdate",
      "outputs": [
        {
          "internalType": "bool",
          "name": "",
          "type": "bool"
        }
      ],
      "stateMutability": "view",
      "type": "function"
    },
    {
      "inputs": [],
      "name": "massUpdatePools",
      "outputs": [],
      "stateMutability": "nonpayable",
      "type": "function"
    },
    {
      "inputs": [],
      "name": "pendingAdmin",
      "outputs": [
        {
          "internalType": "address",
          "name": "",
          "type": "address"
        }
      ],
      "stateMutability": "view",
      "type": "function"
    },
    {
      "inputs": [
        {
          "internalType": "address",
          "name": "",
          "type": "address"
        }
      ],
      "name": "pidOfPool",
      "outputs": [
        {
          "internalType": "uint256",
          "name": "",
          "type": "uint256"
        }
      ],
      "stateMutability": "view",
      "type": "function"
    },
    {
      "inputs": [
        {
          "internalType": "address",
          "name": "target",
          "type": "address"
        },
        {
          "internalType": "uint256",
          "name": "value",
          "type": "uint256"
        },
        {
          "internalType": "string",
          "name": "signature",
          "type": "string"
        },
        {
          "internalType": "bytes",
          "name": "data",
          "type": "bytes"
        },
        {
          "internalType": "uint256",
          "name": "eta",
          "type": "uint256"
        }
      ],
      "name": "queueTransaction",
      "outputs": [
        {
          "internalType": "bytes32",
          "name": "",
          "type": "bytes32"
        }
      ],
      "stateMutability": "nonpayable",
      "type": "function"
    },
    {
      "inputs": [
        {
          "internalType": "bytes32",
          "name": "",
          "type": "bytes32"
        }
      ],
      "name": "queuedTransactions",
      "outputs": [
        {
          "internalType": "bool",
          "name": "",
          "type": "bool"
        }
      ],
      "stateMutability": "view",
      "type": "function"
    },
    {
      "inputs": [
        {
          "internalType": "uint256",
          "name": "_pid",
          "type": "uint256"
        },
        {
          "internalType": "uint256",
          "name": "_allocPoint",
          "type": "uint256"
        },
        {
          "internalType": "bool",
          "name": "_withUpdate",
          "type": "bool"
        }
      ],
      "name": "set",
      "outputs": [],
      "stateMutability": "nonpayable",
      "type": "function"
    },
    {
      "inputs": [
        {
          "internalType": "uint256",
          "name": "delay_",
          "type": "uint256"
        }
      ],
      "name": "setDelay",
      "outputs": [],
      "stateMutability": "nonpayable",
      "type": "function"
    },
    {
      "inputs": [
        {
          "internalType": "contract IMigratorChef",
          "name": "_migrator",
          "type": "address"
        }
      ],
      "name": "setMigrator",
      "outputs": [],
      "stateMutability": "nonpayable",
      "type": "function"
    },
    {
      "inputs": [
        {
          "internalType": "address",
          "name": "pendingAdmin_",
          "type": "address"
        }
      ],
      "name": "setPendingAdmin",
      "outputs": [],
      "stateMutability": "nonpayable",
      "type": "function"
    },
    {
      "inputs": [
        {
          "internalType": "address",
          "name": "newOwner",
          "type": "address"
        }
      ],
      "name": "transferCairoTokenOwnerShip",
      "outputs": [],
      "stateMutability": "nonpayable",
      "type": "function"
    },
    {
      "inputs": [
        {
          "internalType": "address",
          "name": "newOwner",
          "type": "address"
        }
      ],
      "name": "transferOwnership",
      "outputs": [],
      "stateMutability": "nonpayable",
      "type": "function"
    },
    {
      "inputs": [
        {
          "internalType": "address",
          "name": "newOwner",
          "type": "address"
        }
      ],
      "name": "transferSyrupTokenOwnerShip",
      "outputs": [],
      "stateMutability": "nonpayable",
      "type": "function"
    },
    {
      "inputs": [
        {
          "internalType": "uint256",
          "name": "multiplierNumber",
          "type": "uint256"
        }
      ],
      "name": "updateMultiplier",
      "outputs": [],
      "stateMutability": "nonpayable",
      "type": "function"
    },
    {
      "stateMutability": "payable",
      "type": "receive"
    }
  ],
  "bytecode": "0x60806040523480156200001157600080fd5b506040516200282f3803806200282f833981016040819052620000349162000206565b8181615460811015620000a35760405162461bcd60e51b815260206004820152603760248201526000805160206200280f83398151915260448201527f7420657863656564206d696e696d756d2064656c61792e00000000000000000060648201526084015b60405180910390fd5b62278d008111156200010d5760405162461bcd60e51b815260206004820152603b60248201526000805160206200280f83398151915260448201527f74206e6f7420657863656564206d6178696d756d2064656c61792e000000000060648201526084016200009a565b600080546001600160a01b0319166001600160a01b039384161790556002556003805460ff191690558316620001865760405162461bcd60e51b815260206004820152601a60248201527f696c6c6567616c206d617374657243686566206164647265737300000000000060448201526064016200009a565b6001600160a01b038216620001de5760405162461bcd60e51b815260206004820152601560248201527f696c6c6567616c2061646d696e2061646472657373000000000000000000000060448201526064016200009a565b5050600880546001600160a01b0319166001600160a01b039290921691909117905562000266565b6000806000606084860312156200021b578283fd5b835162000228816200024d565b60208501519093506200023b816200024d565b80925050604084015190509250925092565b6001600160a01b03811681146200026357600080fd5b50565b61259980620002766000396000f3fe6080604052600436106101f25760003560e01c8063686d50751161010d578063b8b20387116100a0578063d6e2ff1d1161006f578063d6e2ff1d1461057e578063e177246e1461059e578063f2b06537146105be578063f2fde38b146105ee578063f851a4401461060e57600080fd5b8063b8b20387146104f7578063c1a287e214610517578063c3e115241461052e578063d146bd611461054e57600080fd5b80637074af5c116100dc5780637074af5c14610495578063781821ab146104aa5780637d645fab146104ca578063b1b43ae5146104e157600080fd5b8063686d50751461043b5780636a0cc67d146104505780636a42b8f8146104655780636fc1f57e1461047b57600080fd5b80634dd18bf511610185578063591fcdfe11610154578063591fcdfe146103c65780635ffe6146146103e6578063630b5ba11461040657806364482f791461041b57600080fd5b80634dd18bf5146103245780634ee018211461034457806352692d8614610371578063568e41501461038657600080fd5b806323cf3118116101c157806323cf31181461027e578063267822471461029e5780633a66f901146102d6578063482a8c701461030457600080fd5b80630825f38f146101fe5780630da1c585146102275780630e18b681146102495780631eaaa0451461025e57600080fd5b366101f957005b600080fd5b61021161020c3660046121a2565b61062e565b60405161021e91906123ad565b60405180910390f35b34801561023357600080fd5b5061024761024236600461215b565b61099f565b005b34801561025557600080fd5b50610247610ade565b34801561026a57600080fd5b50610247610279366004612280565b610ba7565b34801561028a57600080fd5b5061024761029936600461215b565b610e39565b3480156102aa57600080fd5b506001546102be906001600160a01b031681565b6040516001600160a01b03909116815260200161021e565b3480156102e257600080fd5b506102f66102f13660046121a2565b610fc7565b60405190815260200161021e565b34801561031057600080fd5b5061024761031f366004612250565b61117a565b34801561033057600080fd5b5061024761033f36600461215b565b6111bc565b34801561035057600080fd5b506102f661035f36600461215b565b60066020526000908152604090205481565b34801561037d57600080fd5b50610247611319565b34801561039257600080fd5b506103b66103a136600461215b565b60056020526000908152604090205460ff1681565b604051901515815260200161021e565b3480156103d257600080fd5b506102476103e13660046121a2565b6113ef565b3480156103f257600080fd5b50610247610401366004612250565b611509565b34801561041257600080fd5b50610247611594565b34801561042757600080fd5b506102476104363660046122bd565b6116a7565b34801561044757600080fd5b5061024761181a565b34801561045c57600080fd5b506102476118f0565b34801561047157600080fd5b506102f660025481565b34801561048757600080fd5b506003546103b69060ff1681565b3480156104a157600080fd5b506102476119c6565b3480156104b657600080fd5b506102476104c536600461215b565b611a9c565b3480156104d657600080fd5b506102f662278d0081565b3480156104ed57600080fd5b506102f661546081565b34801561050357600080fd5b50610247610512366004612250565b611bdb565b34801561052357600080fd5b506102f66212750081565b34801561053a57600080fd5b50610247610549366004612177565b611c20565b34801561055a57600080fd5b506103b6610569366004612250565b60076020526000908152604090205460ff1681565b34801561058a57600080fd5b5061024761059936600461215b565b611ce4565b3480156105aa57600080fd5b506102476105b9366004612250565b611da7565b3480156105ca57600080fd5b506103b66105d9366004612250565b60046020526000908152604090205460ff1681565b3480156105fa57600080fd5b5061024761060936600461215b565b611f2b565b34801561061a57600080fd5b506000546102be906001600160a01b031681565b6000546060906001600160a01b031633146106b65760405162461bcd60e51b815260206004820152603860248201527f54696d656c6f636b3a3a657865637574655472616e73616374696f6e3a20436160448201527f6c6c206d75737420636f6d652066726f6d2061646d696e2e000000000000000060648201526084015b60405180910390fd5b600086868686866040516020016106d1959493929190612361565b60408051601f1981840301815291815281516020928301206000818152600490935291205490915060ff1661075c5760405162461bcd60e51b815260206004820152603d602482015260008051602061254483398151915260448201527f616e73616374696f6e206861736e2774206265656e207175657565642e00000060648201526084016106ad565b824210156107ce5760405162461bcd60e51b8152602060048201526045602482015260008051602061254483398151915260448201527f616e73616374696f6e206861736e2774207375727061737365642074696d65206064820152643637b1b59760d91b608482015260a4016106ad565b6107db836212750061206a565b4211156108345760405162461bcd60e51b8152602060048201526033602482015260008051602061254483398151915260448201527230b739b0b1ba34b7b71034b99039ba30b6329760691b60648201526084016106ad565b6000818152600460205260409020805460ff19169055845160609061085a575083610886565b858051906020012085604051602001610874929190612314565b60405160208183030381529060405290505b600080896001600160a01b031689846040516108a29190612345565b60006040518083038185875af1925050503d80600081146108df576040519150601f19603f3d011682016040523d82523d6000602084013e6108e4565b606091505b50915091508161094a5760405162461bcd60e51b815260206004820152603d602482015260008051602061254483398151915260448201527f616e73616374696f6e20657865637574696f6e2072657665727465642e00000060648201526084016106ad565b896001600160a01b0316847fa560e3198060a2f10670c1ec5b403077ea6ae93ca8de1c32b451dc1a943cd6e78b8b8b8b60405161098a949392919061245f565b60405180910390a39998505050505050505050565b6000546001600160a01b031633146109c95760405162461bcd60e51b81526004016106ad90612402565b60145460ff1615610a3c5760085460408051602081018252600080825260125492516001600160a01b039384166024820152610a3c94939093169290919060440160408051601f198184030181529190526020810180516001600160e01b03166304682a6b60e01b1790526013546113ef565b60085460408051602081018252600080825291516001600160a01b038581166024830152610aa2941692919060440160408051601f198184030181529190526020810180516001600160e01b03166304682a6b60e01b1790526002546102f1904261249c565b50601280546001600160a01b0319166001600160a01b038316179055600254610acb904261249c565b601355506014805460ff19166001179055565b6001546001600160a01b03163314610b5e5760405162461bcd60e51b815260206004820152603860248201527f54696d656c6f636b3a3a61636365707441646d696e3a2043616c6c206d75737460448201527f20636f6d652066726f6d2070656e64696e6741646d696e2e000000000000000060648201526084016106ad565b60008054336001600160a01b0319918216811783556001805490921690915560405190917f71614071b88dee5e0b2ae578a9dd7b2ebbe9ae832ba419dc0242cd065a290b6c91a2565b6000546001600160a01b03163314610bd15760405162461bcd60e51b81526004016106ad90612402565b6001600160a01b038216610c275760405162461bcd60e51b815260206004820152601c60248201527f5f6c70546f6b656e20616464726573732063616e6e6f7420626520300000000060448201526064016106ad565b6001600160a01b03821660009081526005602052604090205460ff1615610c905760405162461bcd60e51b815260206004820152601e60248201527f54696d656c6f636b3a3a207061697220616c726561647920657869737473000060448201526064016106ad565b6040516370a0823160e01b81523360048201526001600160a01b038316906370a082319060240160206040518083038186803b158015610ccf57600080fd5b505afa158015610ce3573d6000803e3d6000fd5b505050506040513d601f19601f82011682018060405250810190610d079190612268565b506008546040805163040f1f6d60e11b815290516000926001600160a01b03169163081e3eda916004808301926020929190829003018186803b158015610d4d57600080fd5b505afa158015610d61573d6000803e3d6000fd5b505050506040513d601f19601f82011682018060405250810190610d859190612268565b600854604051631eaaa04560e01b8152600481018790526001600160a01b03868116602483015260006044830152929350911690631eaaa04590606401600060405180830381600087803b158015610ddc57600080fd5b505af1158015610df0573d6000803e3d6000fd5b505050508115610e0257610e02611594565b6001600160a01b039092166000908152600660209081526040808320949094556005905291909120805460ff191660011790555050565b6000546001600160a01b03163314610e635760405162461bcd60e51b81526004016106ad90612402565b6001600160a01b038116610eb95760405162461bcd60e51b815260206004820152601d60248201527f5f6d69677261746f7220616464726573732063616e6e6f74206265203000000060448201526064016106ad565b600b5460ff1615610f255760085460408051602081018252600080825291516001600160a01b038581166024830152610f25941692919060440160408051601f198184030181529190526020810180516001600160e01b0316630479e62360e31b179052600a546113ef565b60085460408051602081018252600080825291516001600160a01b038581166024830152610f8b941692919060440160408051601f198184030181529190526020810180516001600160e01b0316630479e62360e31b1790526002546102f1904261249c565b50600980546001600160a01b0319166001600160a01b038316179055600254610fb4904261249c565b600a5550600b805460ff19166001179055565b600080546001600160a01b031633146110415760405162461bcd60e51b815260206004820152603660248201527f54696d656c6f636b3a3a71756575655472616e73616374696f6e3a2043616c6c6044820152751036bab9ba1031b7b6b290333937b69030b236b4b71760511b60648201526084016106ad565b61105460025461104e4290565b9061206a565b8210156110db5760405162461bcd60e51b815260206004820152604960248201527f54696d656c6f636b3a3a71756575655472616e73616374696f6e3a204573746960448201527f6d6174656420657865637574696f6e20626c6f636b206d757374207361746973606482015268333c903232b630bc9760b91b608482015260a4016106ad565b600086868686866040516020016110f6959493929190612361565b60408051601f19818403018152828252805160209182012060008181526004909252919020805460ff1916600117905591506001600160a01b0388169082907f76e2796dc3a81d57b0e8504b647febcbeeb5f4af818e164f11eef8131a6a763f90611168908a908a908a908a9061245f565b60405180910390a39695505050505050565b6000546001600160a01b031633146111a45760405162461bcd60e51b81526004016106ad90612402565b6000908152600760205260409020805460ff19169055565b60035460ff16156112415733301461123c5760405162461bcd60e51b815260206004820152603860248201527f54696d656c6f636b3a3a73657450656e64696e6741646d696e3a2043616c6c2060448201527f6d75737420636f6d652066726f6d2054696d656c6f636b2e000000000000000060648201526084016106ad565b6112cf565b6000546001600160a01b031633146112c15760405162461bcd60e51b815260206004820152603b60248201527f54696d656c6f636b3a3a73657450656e64696e6741646d696e3a20466972737460448201527f2063616c6c206d75737420636f6d652066726f6d2061646d696e2e000000000060648201526084016106ad565b6003805460ff191660011790555b600180546001600160a01b0319166001600160a01b0383169081179091556040517f69d78e38a01985fbb1462961809b4b2d65531bc93b2b94037f3334b82ca4a75690600090a250565b6000546001600160a01b031633146113435760405162461bcd60e51b81526004016106ad90612402565b60115460ff166113655760405162461bcd60e51b81526004016106ad906123c0565b600854604080516020810182526000808252600f5492516001600160a01b0393841660248201526113cd94939093169290919060440160408051601f198184030181529190526020810180516001600160e01b031663781821ab60e01b17905260105461062e565b50600f80546001600160a01b031916905560006010556011805460ff19169055565b6000546001600160a01b0316331461146f5760405162461bcd60e51b815260206004820152603760248201527f54696d656c6f636b3a3a63616e63656c5472616e73616374696f6e3a2043616c60448201527f6c206d75737420636f6d652066726f6d2061646d696e2e00000000000000000060648201526084016106ad565b6000858585858560405160200161148a959493929190612361565b60408051601f19818403018152828252805160209182012060008181526004909252919020805460ff1916905591506001600160a01b0387169082907f2fffc091a501fd91bfbff27141450d3acb40fb8e6d8382b243ec7a812a3aaf87906114f990899089908990899061245f565b60405180910390a3505050505050565b6000546001600160a01b031633146115335760405162461bcd60e51b81526004016106ad90612402565b600854604051632fff30a360e11b8152600481018390526001600160a01b0390911690635ffe614690602401600060405180830381600087803b15801561157957600080fd5b505af115801561158d573d6000803e3d6000fd5b5050505050565b6008546040805163040f1f6d60e11b815290516000926001600160a01b03169163081e3eda916004808301926020929190829003018186803b1580156115d957600080fd5b505afa1580156115ed573d6000803e3d6000fd5b505050506040513d601f19601f820116820180604052508101906116119190612268565b905060005b818110156116a35760008181526007602052604090205460ff16611693576008546040516328f582d360e11b8152600481018390526001600160a01b03909116906351eb05a690602401600060405180830381600087803b15801561167a57600080fd5b505af115801561168e573d6000803e3d6000fd5b505050505b61169c816124e4565b9050611616565b5050565b6000546001600160a01b031633146116d15760405162461bcd60e51b81526004016106ad90612402565b600860009054906101000a90046001600160a01b03166001600160a01b031663081e3eda6040518163ffffffff1660e01b815260040160206040518083038186803b15801561171f57600080fd5b505afa158015611733573d6000803e3d6000fd5b505050506040513d601f19601f820116820180604052508101906117579190612268565b831061179b5760405162461bcd60e51b8152602060048201526013602482015272141bdbdb08191bd95cc81b9bdd08195e1a5cdd606a1b60448201526064016106ad565b6008546040516364482f7960e01b81526004810185905260248101849052600060448201526001600160a01b03909116906364482f7990606401600060405180830381600087803b1580156117ef57600080fd5b505af1158015611803573d6000803e3d6000fd5b50505050801561181557611815611594565b505050565b6000546001600160a01b031633146118445760405162461bcd60e51b81526004016106ad90612402565b600b5460ff166118665760405162461bcd60e51b81526004016106ad906123c0565b60085460408051602081018252600080825260095492516001600160a01b0393841660248201526118ce94939093169290919060440160408051601f198184030181529190526020810180516001600160e01b0316630479e62360e31b179052600a5461062e565b50600980546001600160a01b03191690556000600a55600b805460ff19169055565b6000546001600160a01b0316331461191a5760405162461bcd60e51b81526004016106ad90612402565b60145460ff1661193c5760405162461bcd60e51b81526004016106ad906123c0565b60085460408051602081018252600080825260125492516001600160a01b0393841660248201526119a494939093169290919060440160408051601f198184030181529190526020810180516001600160e01b03166304682a6b60e01b17905260135461062e565b50601280546001600160a01b031916905560006013556014805460ff19169055565b6000546001600160a01b031633146119f05760405162461bcd60e51b81526004016106ad90612402565b600e5460ff16611a125760405162461bcd60e51b81526004016106ad906123c0565b600854604080516020810182526000808252600c5492516001600160a01b039384166024820152611a7a94939093169290919060440160408051601f198184030181529190526020810180516001600160e01b031663f2fde38b60e01b179052600d5461062e565b50600c80546001600160a01b03191690556000600d55600e805460ff19169055565b6000546001600160a01b03163314611ac65760405162461bcd60e51b81526004016106ad90612402565b60115460ff1615611b3957600854604080516020810182526000808252600f5492516001600160a01b039384166024820152611b3994939093169290919060440160408051601f198184030181529190526020810180516001600160e01b031663781821ab60e01b1790526010546113ef565b60085460408051602081018252600080825291516001600160a01b038581166024830152611b9f941692919060440160408051601f198184030181529190526020810180516001600160e01b031663781821ab60e01b1790526002546102f1904261249c565b50600f80546001600160a01b0319166001600160a01b038316179055600254611bc8904261249c565b601055506011805460ff19166001179055565b6000546001600160a01b03163314611c055760405162461bcd60e51b81526004016106ad90612402565b6000908152600760205260409020805460ff19166001179055565b6000546001600160a01b03163314611c4a5760405162461bcd60e51b81526004016106ad90612402565b6001600160a01b03821660009081526005602052604090205460ff1615611cb35760405162461bcd60e51b815260206004820152601e60248201527f54696d656c6f636b3a3a207061697220616c726561647920657869737473000060448201526064016106ad565b6001600160a01b039091166000908152600560209081526040808320805460ff191660011790556006909152902055565b6000546001600160a01b03163314611d0e5760405162461bcd60e51b81526004016106ad90612402565b6001600160a01b03811660009081526005602052604090205460ff161515600114611d7b5760405162461bcd60e51b815260206004820152601a60248201527f54696d656c6f636b3a3a2070616972206e6f742065786973747300000000000060448201526064016106ad565b6001600160a01b03166000908152600560209081526040808320805460ff191690556006909152812055565b333014611e105760405162461bcd60e51b815260206004820152603160248201527f54696d656c6f636b3a3a73657444656c61793a2043616c6c206d75737420636f60448201527036b290333937b6902a34b6b2b637b1b59760791b60648201526084016106ad565b615460811015611e7f5760405162461bcd60e51b815260206004820152603460248201527f54696d656c6f636b3a3a73657444656c61793a2044656c6179206d75737420656044820152733c31b2b2b21036b4b734b6bab6903232b630bc9760611b60648201526084016106ad565b62278d00811115611ef85760405162461bcd60e51b815260206004820152603860248201527f54696d656c6f636b3a3a73657444656c61793a2044656c6179206d757374206e60448201527f6f7420657863656564206d6178696d756d2064656c61792e000000000000000060648201526084016106ad565b600281905560405181907f948b1f6a42ee138b7e34058ba85a37f716d55ff25ff05a763f15bed6a04c8d2c90600090a250565b6000546001600160a01b03163314611f555760405162461bcd60e51b81526004016106ad90612402565b600e5460ff1615611fc857600854604080516020810182526000808252600c5492516001600160a01b039384166024820152611fc894939093169290919060440160408051601f198184030181529190526020810180516001600160e01b031663f2fde38b60e01b179052600d546113ef565b60085460408051602081018252600080825291516001600160a01b03858116602483015261202e941692919060440160408051601f198184030181529190526020810180516001600160e01b031663f2fde38b60e01b1790526002546102f1904261249c565b50600c80546001600160a01b0319166001600160a01b038316179055600254612057904261249c565b600d5550600e805460ff19166001179055565b600080612077838561249c565b9050838110156120c95760405162461bcd60e51b815260206004820152601b60248201527f536166654d6174683a206164646974696f6e206f766572666c6f77000000000060448201526064016106ad565b9392505050565b600067ffffffffffffffff808411156120eb576120eb612515565b604051601f8501601f19908116603f0116810190828211818310171561211357612113612515565b8160405280935085815286868601111561212c57600080fd5b858560208301376000602087830101525050509392505050565b8035801515811461215657600080fd5b919050565b60006020828403121561216c578081fd5b81356120c98161252b565b60008060408385031215612189578081fd5b82356121948161252b565b946020939093013593505050565b600080600080600060a086880312156121b9578081fd5b85356121c48161252b565b945060208601359350604086013567ffffffffffffffff808211156121e7578283fd5b818801915088601f8301126121fa578283fd5b612209898335602085016120d0565b9450606088013591508082111561221e578283fd5b508601601f8101881361222f578182fd5b61223e888235602084016120d0565b95989497509295608001359392505050565b600060208284031215612261578081fd5b5035919050565b600060208284031215612279578081fd5b5051919050565b600080600060608486031215612294578283fd5b8335925060208401356122a68161252b565b91506122b460408501612146565b90509250925092565b6000806000606084860312156122d1578283fd5b83359250602084013591506122b460408501612146565b600081518084526123008160208601602086016124b4565b601f01601f19169290920160200192915050565b6001600160e01b03198316815281516000906123378160048501602087016124b4565b919091016004019392505050565b600082516123578184602087016124b4565b9190910192915050565b60018060a01b038616815284602082015260a06040820152600061238860a08301866122e8565b828103606084015261239a81866122e8565b9150508260808301529695505050505050565b6020815260006120c960208301846122e8565b60208082526022908201527f54696d656c6f636b3a3a7365744d69677261746f72206e6f7420707265706172604082015261195960f21b606082015260800190565b60208082526038908201527f54696d656c6f636b3a3a63616e63656c5472616e73616374696f6e3a2043616c60408201527f6c206d75737420636f6d652066726f6d2061646d696e2e3f0000000000000000606082015260800190565b84815260806020820152600061247860808301866122e8565b828103604084015261248a81866122e8565b91505082606083015295945050505050565b600082198211156124af576124af6124ff565b500190565b60005b838110156124cf5781810151838201526020016124b7565b838111156124de576000848401525b50505050565b60006000198214156124f8576124f86124ff565b5060010190565b634e487b7160e01b600052601160045260246000fd5b634e487b7160e01b600052604160045260246000fd5b6001600160a01b038116811461254057600080fd5b5056fe54696d656c6f636b3a3a657865637574655472616e73616374696f6e3a205472a2646970667358221220f99f971c4ea915ddddae645b0bab47eca68ae2b04da5e7260378f45e7230bd2364736f6c6343000804003354696d656c6f636b3a3a636f6e7374727563746f723a2044656c6179206d7573",
  "linkReferences": {},
  "deployedLinkReferences": {}
}