{
  "_format": "hh-sol-artifact-1",
  "contractName": "SyrupBar",
  "sourceName": "contracts/farm/SyrupBar.sol",
  "abi": [
    {
      "inputs": [
        {
          "internalType": "contract BEP20",
          "name": "_cake",
          "type": "address"
        }
      ],
      "stateMutability": "nonpayable",
      "type": "constructor"
    },
    {
      "anonymous": false,
      "inputs": [
        {
          "indexed": true,
          "internalType": "address",
          "name": "owner",
          "type": "address"
        },
        {
          "indexed": true,
          "internalType": "address",
          "name": "spender",
          "type": "address"
        },
        {
          "indexed": false,
          "internalType": "uint256",
          "name": "value",
          "type": "uint256"
        }
      ],
      "name": "Approval",
      "type": "event"
    },
    {
      "anonymous": false,
      "inputs": [
        {
          "indexed": true,
          "internalType": "address",
          "name": "delegator",
          "type": "address"
        },
        {
          "indexed": true,
          "internalType": "address",
          "name": "fromDelegate",
          "type": "address"
        },
        {
          "indexed": true,
          "internalType": "address",
          "name": "toDelegate",
          "type": "address"
        }
      ],
      "name": "DelegateChanged",
      "type": "event"
    },
    {
      "anonymous": false,
      "inputs": [
        {
          "indexed": true,
          "internalType": "address",
          "name": "delegate",
          "type": "address"
        },
        {
          "indexed": false,
          "internalType": "uint256",
          "name": "previousBalance",
          "type": "uint256"
        },
        {
          "indexed": false,
          "internalType": "uint256",
          "name": "newBalance",
          "type": "uint256"
        }
      ],
      "name": "DelegateVotesChanged",
      "type": "event"
    },
    {
      "anonymous": false,
      "inputs": [
        {
          "indexed": true,
          "internalType": "address",
          "name": "previousOwner",
          "type": "address"
        },
        {
          "indexed": true,
          "internalType": "address",
          "name": "newOwner",
          "type": "address"
        }
      ],
      "name": "OwnershipTransferred",
      "type": "event"
    },
    {
      "anonymous": false,
      "inputs": [
        {
          "indexed": true,
          "internalType": "address",
          "name": "from",
          "type": "address"
        },
        {
          "indexed": true,
          "internalType": "address",
          "name": "to",
          "type": "address"
        },
        {
          "indexed": false,
          "internalType": "uint256",
          "name": "value",
          "type": "uint256"
        }
      ],
      "name": "Transfer",
      "type": "event"
    },
    {
      "inputs": [],
      "name": "DELEGATION_TYPEHASH",
      "outputs": [
        {
          "internalType": "bytes32",
          "name": "",
          "type": "bytes32"
        }
      ],
      "stateMutability": "view",
      "type": "function"
    },
    {
      "inputs": [],
      "name": "DOMAIN_TYPEHASH",
      "outputs": [
        {
          "internalType": "bytes32",
          "name": "",
          "type": "bytes32"
        }
      ],
      "stateMutability": "view",
      "type": "function"
    },
    {
      "inputs": [
        {
          "internalType": "address",
          "name": "owner",
          "type": "address"
        },
        {
          "internalType": "address",
          "name": "spender",
          "type": "address"
        }
      ],
      "name": "allowance",
      "outputs": [
        {
          "internalType": "uint256",
          "name": "",
          "type": "uint256"
        }
      ],
      "stateMutability": "view",
      "type": "function"
    },
    {
      "inputs": [
        {
          "internalType": "address",
          "name": "spender",
          "type": "address"
        },
        {
          "internalType": "uint256",
          "name": "amount",
          "type": "uint256"
        }
      ],
      "name": "approve",
      "outputs": [
        {
          "internalType": "bool",
          "name": "",
          "type": "bool"
        }
      ],
      "stateMutability": "nonpayable",
      "type": "function"
    },
    {
      "inputs": [
        {
          "internalType": "address",
          "name": "account",
          "type": "address"
        }
      ],
      "name": "balanceOf",
      "outputs": [
        {
          "internalType": "uint256",
          "name": "",
          "type": "uint256"
        }
      ],
      "stateMutability": "view",
      "type": "function"
    },
    {
      "inputs": [
        {
          "internalType": "address",
          "name": "_from",
          "type": "address"
        },
        {
          "internalType": "uint256",
          "name": "_amount",
          "type": "uint256"
        }
      ],
      "name": "burn",
      "outputs": [],
      "stateMutability": "nonpayable",
      "type": "function"
    },
    {
      "inputs": [],
      "name": "cake",
      "outputs": [
        {
          "internalType": "contract BEP20",
          "name": "",
          "type": "address"
        }
      ],
      "stateMutability": "view",
      "type": "function"
    },
    {
      "inputs": [
        {
          "internalType": "address",
          "name": "",
          "type": "address"
        },
        {
          "internalType": "uint32",
          "name": "",
          "type": "uint32"
        }
      ],
      "name": "checkpoints",
      "outputs": [
        {
          "internalType": "uint32",
          "name": "fromBlock",
          "type": "uint32"
        },
        {
          "internalType": "uint256",
          "name": "votes",
          "type": "uint256"
        }
      ],
      "stateMutability": "view",
      "type": "function"
    },
    {
      "inputs": [],
      "name": "decimals",
      "outputs": [
        {
          "internalType": "uint8",
          "name": "",
          "type": "uint8"
        }
      ],
      "stateMutability": "view",
      "type": "function"
    },
    {
      "inputs": [
        {
          "internalType": "address",
          "name": "spender",
          "type": "address"
        },
        {
          "internalType": "uint256",
          "name": "subtractedValue",
          "type": "uint256"
        }
      ],
      "name": "decreaseAllowance",
      "outputs": [
        {
          "internalType": "bool",
          "name": "",
          "type": "bool"
        }
      ],
      "stateMutability": "nonpayable",
      "type": "function"
    },
    {
      "inputs": [
        {
          "internalType": "address",
          "name": "delegatee",
          "type": "address"
        }
      ],
      "name": "delegate",
      "outputs": [],
      "stateMutability": "nonpayable",
      "type": "function"
    },
    {
      "inputs": [
        {
          "internalType": "address",
          "name": "delegatee",
          "type": "address"
        },
        {
          "internalType": "uint256",
          "name": "nonce",
          "type": "uint256"
        },
        {
          "internalType": "uint256",
          "name": "expiry",
          "type": "uint256"
        },
        {
          "internalType": "uint8",
          "name": "v",
          "type": "uint8"
        },
        {
          "internalType": "bytes32",
          "name": "r",
          "type": "bytes32"
        },
        {
          "internalType": "bytes32",
          "name": "s",
          "type": "bytes32"
        }
      ],
      "name": "delegateBySig",
      "outputs": [],
      "stateMutability": "nonpayable",
      "type": "function"
    },
    {
      "inputs": [
        {
          "internalType": "address",
          "name": "delegator",
          "type": "address"
        }
      ],
      "name": "delegates",
      "outputs": [
        {
          "internalType": "address",
          "name": "",
          "type": "address"
        }
      ],
      "stateMutability": "view",
      "type": "function"
    },
    {
      "inputs": [
        {
          "internalType": "address",
          "name": "account",
          "type": "address"
        }
      ],
      "name": "getCurrentVotes",
      "outputs": [
        {
          "internalType": "uint256",
          "name": "",
          "type": "uint256"
        }
      ],
      "stateMutability": "view",
      "type": "function"
    },
    {
      "inputs": [],
      "name": "getOwner",
      "outputs": [
        {
          "internalType": "address",
          "name": "",
          "type": "address"
        }
      ],
      "stateMutability": "view",
      "type": "function"
    },
    {
      "inputs": [
        {
          "internalType": "address",
          "name": "account",
          "type": "address"
        },
        {
          "internalType": "uint256",
          "name": "blockNumber",
          "type": "uint256"
        }
      ],
      "name": "getPriorVotes",
      "outputs": [
        {
          "internalType": "uint256",
          "name": "",
          "type": "uint256"
        }
      ],
      "stateMutability": "view",
      "type": "function"
    },
    {
      "inputs": [
        {
          "internalType": "address",
          "name": "spender",
          "type": "address"
        },
        {
          "internalType": "uint256",
          "name": "addedValue",
          "type": "uint256"
        }
      ],
      "name": "increaseAllowance",
      "outputs": [
        {
          "internalType": "bool",
          "name": "",
          "type": "bool"
        }
      ],
      "stateMutability": "nonpayable",
      "type": "function"
    },
    {
      "inputs": [
        {
          "internalType": "address",
          "name": "_to",
          "type": "address"
        },
        {
          "internalType": "uint256",
          "name": "_amount",
          "type": "uint256"
        }
      ],
      "name": "mint",
      "outputs": [],
      "stateMutability": "nonpayable",
      "type": "function"
    },
    {
      "inputs": [
        {
          "internalType": "uint256",
          "name": "amount",
          "type": "uint256"
        }
      ],
      "name": "mint",
      "outputs": [
        {
          "internalType": "bool",
          "name": "",
          "type": "bool"
        }
      ],
      "stateMutability": "nonpayable",
      "type": "function"
    },
    {
      "inputs": [],
      "name": "name",
      "outputs": [
        {
          "internalType": "string",
          "name": "",
          "type": "string"
        }
      ],
      "stateMutability": "view",
      "type": "function"
    },
    {
      "inputs": [
        {
          "internalType": "address",
          "name": "",
          "type": "address"
        }
      ],
      "name": "nonces",
      "outputs": [
        {
          "internalType": "uint256",
          "name": "",
          "type": "uint256"
        }
      ],
      "stateMutability": "view",
      "type": "function"
    },
    {
      "inputs": [
        {
          "internalType": "address",
          "name": "",
          "type": "address"
        }
      ],
      "name": "numCheckpoints",
      "outputs": [
        {
          "internalType": "uint32",
          "name": "",
          "type": "uint32"
        }
      ],
      "stateMutability": "view",
      "type": "function"
    },
    {
      "inputs": [],
      "name": "owner",
      "outputs": [
        {
          "internalType": "address",
          "name": "",
          "type": "address"
        }
      ],
      "stateMutability": "view",
      "type": "function"
    },
    {
      "inputs": [],
      "name": "renounceOwnership",
      "outputs": [],
      "stateMutability": "nonpayable",
      "type": "function"
    },
    {
      "inputs": [
        {
          "internalType": "address",
          "name": "_to",
          "type": "address"
        },
        {
          "internalType": "uint256",
          "name": "_amount",
          "type": "uint256"
        }
      ],
      "name": "safeCakeTransfer",
      "outputs": [],
      "stateMutability": "nonpayable",
      "type": "function"
    },
    {
      "inputs": [],
      "name": "symbol",
      "outputs": [
        {
          "internalType": "string",
          "name": "",
          "type": "string"
        }
      ],
      "stateMutability": "view",
      "type": "function"
    },
    {
      "inputs": [],
      "name": "totalSupply",
      "outputs": [
        {
          "internalType": "uint256",
          "name": "",
          "type": "uint256"
        }
      ],
      "stateMutability": "view",
      "type": "function"
    },
    {
      "inputs": [
        {
          "internalType": "address",
          "name": "recipient",
          "type": "address"
        },
        {
          "internalType": "uint256",
          "name": "amount",
          "type": "uint256"
        }
      ],
      "name": "transfer",
      "outputs": [
        {
          "internalType": "bool",
          "name": "",
          "type": "bool"
        }
      ],
      "stateMutability": "nonpayable",
      "type": "function"
    },
    {
      "inputs": [
        {
          "internalType": "address",
          "name": "sender",
          "type": "address"
        },
        {
          "internalType": "address",
          "name": "recipient",
          "type": "address"
        },
        {
          "internalType": "uint256",
          "name": "amount",
          "type": "uint256"
        }
      ],
      "name": "transferFrom",
      "outputs": [
        {
          "internalType": "bool",
          "name": "",
          "type": "bool"
        }
      ],
      "stateMutability": "nonpayable",
      "type": "function"
    },
    {
      "inputs": [
        {
          "internalType": "address",
          "name": "newOwner",
          "type": "address"
        }
      ],
      "name": "transferOwnership",
      "outputs": [],
      "stateMutability": "nonpayable",
      "type": "function"
    }
  ],
  "bytecode": "0x60806040523480156200001157600080fd5b506040516200200e3803806200200e8339810160408190526200003491620001dc565b6040518060400160405280600e81526020016d29bcb93ab82130b9102a37b5b2b760911b81525060405180604001604052806005815260200164053595255560dc1b81525060006200008b6200013260201b60201c565b600080546001600160a01b0319166001600160a01b0383169081178255604051929350917f8be0079c531659141344cd1fd0a4f28419497f9722a3daafe3b4186f6b6457e0908290a3508151620000ea90600490602085019062000136565b5080516200010090600590602084019062000136565b5050600680546001600160a01b03909316610100026001600160a81b0319909316929092176012179091555062000249565b3390565b82805462000144906200020c565b90600052602060002090601f016020900481019282620001685760008555620001b3565b82601f106200018357805160ff1916838001178555620001b3565b82800160010185558215620001b3579182015b82811115620001b357825182559160200191906001019062000196565b50620001c1929150620001c5565b5090565b5b80821115620001c15760008155600101620001c6565b600060208284031215620001ee578081fd5b81516001600160a01b038116811462000205578182fd5b9392505050565b600181811c908216806200022157607f821691505b602082108114156200024357634e487b7160e01b600052602260045260246000fd5b50919050565b611db580620002596000396000f3fe608060405234801561001057600080fd5b506004361061016a5760003560e01c806306fdde031461016f578063095ea7b31461018d57806318160ddd146101b057806320606b70146101c257806323b872dd146101d7578063313ce567146101ea57806339509351146101ff57806340c10f1914610212578063587cde1e146102275780635c19a95c146102605780636fcfff451461027357806370a08231146102ae578063715018a6146102c1578063782d6fe1146102c95780637ecebe00146102dc578063893d20e8146102fc5780638da5cb5b1461030457806395d89b411461030c5780639dc29fac14610314578063a0712d6814610327578063a2e6ddcc1461033a578063a457c2d71461034d578063a9059cbb14610360578063b4b5ea5714610373578063c3cda52014610386578063dce1748414610399578063dd62ed3e146103b1578063e7a324dc146103ea578063f1127ed8146103ff578063f2fde38b14610456575b600080fd5b610177610469565b6040516101849190611a97565b60405180910390f35b6101a061019b366004611955565b6104fb565b6040519015158152602001610184565b6003545b604051908152602001610184565b6101b4600080516020611c3783398151915281565b6101a06101e536600461191a565b610512565b60065460405160ff9091168152602001610184565b6101a061020d366004611955565b61057b565b610225610220366004611955565b6105b1565b005b6102536102353660046118ce565b6001600160a01b039081166000908152600760205260409020541690565b6040516101849190611a6a565b61022561026e3660046118ce565b61061c565b6102996102813660046118ce565b60096020526000908152604090205463ffffffff1681565b60405163ffffffff9091168152602001610184565b6101b46102bc3660046118ce565b610629565b610225610644565b6101b46102d7366004611955565b6106ab565b6101b46102ea3660046118ce565b600a6020526000908152604090205481565b610253610910565b61025361091f565b61017761092e565b610225610322366004611955565b61093d565b6101a0610335366004611a3a565b61099c565b610225610348366004611955565b6109e0565b6101a061035b366004611955565b610b68565b6101a061036e366004611955565b610bb7565b6101b46103813660046118ce565b610bc4565b61022561039436600461197e565b610c39565b6006546102539061010090046001600160a01b031681565b6101b46103bf3660046118e8565b6001600160a01b03918216600090815260026020908152604080832093909416825291909152205490565b6101b4600080516020611c5783398151915281565b61043a61040d3660046119dc565b60086020908152600092835260408084209091529082529020805460019091015463ffffffff9091169082565b6040805163ffffffff9093168352602083019190915201610184565b6102256104643660046118ce565b610ee3565b60606004805461047890611bca565b80601f01602080910402602001604051908101604052809291908181526020018280546104a490611bca565b80156104f15780601f106104c6576101008083540402835291602001916104f1565b820191906000526020600020905b8154815290600101906020018083116104d457829003601f168201915b5050505050905090565b6000610508338484610fc0565b5060015b92915050565b600061051f8484846110e5565b610571843361056c85604051806060016040528060288152602001611c77602891396001600160a01b038a1660009081526002602090815260408083203384529091529020549190611259565b610fc0565b5060019392505050565b3360008181526002602090815260408083206001600160a01b0387168452909152812054909161050891859061056c9086611293565b336105ba61091f565b6001600160a01b0316146105e95760405162461bcd60e51b81526004016105e090611aea565b60405180910390fd5b6105f382826112f0565b6001600160a01b038083166000908152600760205260408120546106189216836113c4565b5050565b6106263382611523565b50565b6001600160a01b031660009081526001602052604090205490565b3361064d61091f565b6001600160a01b0316146106735760405162461bcd60e51b81526004016105e090611aea565b600080546040516001600160a01b0390911690600080516020611c9f833981519152908390a3600080546001600160a01b0319169055565b600043821061070c5760405162461bcd60e51b815260206004820152602760248201527f43414b453a3a6765745072696f72566f7465733a206e6f742079657420646574604482015266195c9b5a5b995960ca1b60648201526084016105e0565b6001600160a01b03831660009081526009602052604090205463ffffffff168061073a57600091505061050c565b6001600160a01b0384166000908152600860205260408120849161075f600185611ba5565b63ffffffff908116825260208201929092526040016000205416116107c8576001600160a01b0384166000908152600860205260408120906107a2600184611ba5565b63ffffffff1663ffffffff1681526020019081526020016000206001015491505061050c565b6001600160a01b038416600090815260086020908152604080832083805290915290205463ffffffff1683101561080357600091505061050c565b600080610811600184611ba5565b90505b8163ffffffff168163ffffffff1611156108d957600060026108368484611ba5565b6108409190611b5f565b61084a9083611ba5565b6001600160a01b038816600090815260086020908152604080832063ffffffff80861685529083529281902081518083019092528054909316808252600190930154918101919091529192508714156108ad5760200151945061050c9350505050565b805163ffffffff168711156108c4578193506108d2565b6108cf600183611ba5565b92505b5050610814565b506001600160a01b038516600090815260086020908152604080832063ffffffff9094168352929052206001015491505092915050565b600061091a61091f565b905090565b6000546001600160a01b031690565b60606005805461047890611bca565b3361094661091f565b6001600160a01b03161461096c5760405162461bcd60e51b81526004016105e090611aea565b61097682826115b2565b6001600160a01b03808316600090815260076020526040812054610618921690836113c4565b6000336109a761091f565b6001600160a01b0316146109cd5760405162461bcd60e51b81526004016105e090611aea565b6109d733836112f0565b5060015b919050565b336109e961091f565b6001600160a01b031614610a0f5760405162461bcd60e51b81526004016105e090611aea565b6006546040516370a0823160e01b815260009161010090046001600160a01b0316906370a0823190610a45903090600401611a6a565b60206040518083038186803b158015610a5d57600080fd5b505afa158015610a71573d6000803e3d6000fd5b505050506040513d601f19601f82011682018060405250810190610a959190611a52565b905080821115610b2d5760065460405163a9059cbb60e01b81526101009091046001600160a01b03169063a9059cbb90610ad59086908590600401611a7e565b602060405180830381600087803b158015610aef57600080fd5b505af1158015610b03573d6000803e3d6000fd5b505050506040513d601f19601f82011682018060405250810190610b279190611a1a565b50505050565b60065460405163a9059cbb60e01b81526101009091046001600160a01b03169063a9059cbb90610ad59086908690600401611a7e565b505050565b6000610508338461056c85604051806060016040528060258152602001611d39602591393360009081526002602090815260408083206001600160a01b038d1684529091529020549190611259565b60006105083384846110e5565b6001600160a01b03811660009081526009602052604081205463ffffffff1680610bef576000610c32565b6001600160a01b038316600090815260086020526040812090610c13600184611ba5565b63ffffffff1663ffffffff168152602001908152602001600020600101545b9392505050565b6000600080516020611c37833981519152610c52610469565b80519060200120610c604690565b60408051602080820195909552808201939093526060830191909152306080808401919091528151808403909101815260a083018252805190840120600080516020611c5783398151915260c08401526001600160a01b038b1660e084015261010083018a90526101208084018a90528251808503909101815261014084019092528151919093012061190160f01b610160830152610162820183905261018282018190529192506000906101a20160408051601f198184030181528282528051602091820120600080855291840180845281905260ff8a169284019290925260608301889052608083018790529092509060019060a0016020604051602081039080840390855afa158015610d7a573d6000803e3d6000fd5b5050604051601f1901519150506001600160a01b038116610dec5760405162461bcd60e51b815260206004820152602660248201527f43414b453a3a64656c656761746542795369673a20696e76616c6964207369676044820152656e617475726560d01b60648201526084016105e0565b6001600160a01b0381166000908152600a60205260408120805491610e1083611c05565b919050558914610e6d5760405162461bcd60e51b815260206004820152602260248201527f43414b453a3a64656c656761746542795369673a20696e76616c6964206e6f6e604482015261636560f01b60648201526084016105e0565b87421115610ecc5760405162461bcd60e51b815260206004820152602660248201527f43414b453a3a64656c656761746542795369673a207369676e617475726520656044820152651e1c1a5c995960d21b60648201526084016105e0565b610ed6818b611523565b505050505b505050505050565b33610eec61091f565b6001600160a01b031614610f125760405162461bcd60e51b81526004016105e090611aea565b6001600160a01b038116610f775760405162461bcd60e51b815260206004820152602660248201527f4f776e61626c653a206e6577206f776e657220697320746865207a65726f206160448201526564647265737360d01b60648201526084016105e0565b600080546040516001600160a01b0380851693921691600080516020611c9f83398151915291a3600080546001600160a01b0319166001600160a01b0392909216919091179055565b6001600160a01b0383166110225760405162461bcd60e51b8152602060048201526024808201527f42455032303a20617070726f76652066726f6d20746865207a65726f206164646044820152637265737360e01b60648201526084016105e0565b6001600160a01b0382166110835760405162461bcd60e51b815260206004820152602260248201527f42455032303a20617070726f766520746f20746865207a65726f206164647265604482015261737360f01b60648201526084016105e0565b6001600160a01b0383811660008181526002602090815260408083209487168084529482529182902085905590518481527f8c5be1e5ebec7d5bd14f71427d1e84f3dd0314c0f7b2291e5b200ac8c7c3b92591015b60405180910390a3505050565b6001600160a01b0383166111495760405162461bcd60e51b815260206004820152602560248201527f42455032303a207472616e736665722066726f6d20746865207a65726f206164604482015264647265737360d81b60648201526084016105e0565b6001600160a01b0382166111ab5760405162461bcd60e51b815260206004820152602360248201527f42455032303a207472616e7366657220746f20746865207a65726f206164647260448201526265737360e81b60648201526084016105e0565b6111e881604051806060016040528060268152602001611cf3602691396001600160a01b0386166000908152600160205260409020549190611259565b6001600160a01b0380851660009081526001602052604080822093909355908416815220546112179082611293565b6001600160a01b038084166000818152600160205260409081902093909355915190851690600080516020611d19833981519152906110d89085815260200190565b6000818484111561127d5760405162461bcd60e51b81526004016105e09190611a97565b50600061128a8486611b8e565b95945050505050565b6000806112a08385611b1f565b905083811015610c325760405162461bcd60e51b815260206004820152601b60248201527a536166654d6174683a206164646974696f6e206f766572666c6f7760281b60448201526064016105e0565b6001600160a01b0382166113465760405162461bcd60e51b815260206004820152601f60248201527f42455032303a206d696e7420746f20746865207a65726f20616464726573730060448201526064016105e0565b6003546113539082611293565b6003556001600160a01b0382166000908152600160205260409020546113799082611293565b6001600160a01b038316600081815260016020526040808220939093559151909190600080516020611d19833981519152906113b89085815260200190565b60405180910390a35050565b816001600160a01b0316836001600160a01b0316141580156113e65750600081115b15610b63576001600160a01b03831615611489576001600160a01b03831660009081526009602052604081205463ffffffff169081611426576000611469565b6001600160a01b03851660009081526008602052604081209061144a600185611ba5565b63ffffffff1663ffffffff168152602001908152602001600020600101545b9050600061147782856116a4565b9050611485868484846116e6565b5050505b6001600160a01b03821615610b63576001600160a01b03821660009081526009602052604081205463ffffffff1690816114c4576000611507565b6001600160a01b0384166000908152600860205260408120906114e8600185611ba5565b63ffffffff1663ffffffff168152602001908152602001600020600101545b905060006115158285611293565b9050610edb858484846116e6565b6001600160a01b038083166000908152600760205260408120549091169061154a84610629565b6001600160a01b0385811660008181526007602052604080822080546001600160a01b031916898616908117909155905194955093928616927f3134e8a2e6d97e929a7e54011ea5485d7d196dd5f0ba4d4ef95803e8e3fc257f9190a4610b278284836113c4565b6001600160a01b0382166116125760405162461bcd60e51b815260206004820152602160248201527f42455032303a206275726e2066726f6d20746865207a65726f206164647265736044820152607360f81b60648201526084016105e0565b61164f81604051806060016040528060228152602001611d5e602291396001600160a01b0385166000908152600160205260409020549190611259565b6001600160a01b03831660009081526001602052604090205560035461167590826116a4565b6003556040518181526000906001600160a01b03841690600080516020611d19833981519152906020016113b8565b6000610c3283836040518060400160405280601e81526020017f536166654d6174683a207375627472616374696f6e206f766572666c6f770000815250611259565b600061170a43604051806060016040528060348152602001611cbf60349139611888565b905060008463ffffffff1611801561176457506001600160a01b038516600090815260086020526040812063ffffffff831691611748600188611ba5565b63ffffffff908116825260208201929092526040016000205416145b156117ad576001600160a01b0385166000908152600860205260408120839161178e600188611ba5565b63ffffffff16815260208101919091526040016000206001015561183d565b60408051808201825263ffffffff838116825260208083018681526001600160a01b038a166000908152600883528581208a851682529092529390209151825463ffffffff19169116178155905160019182015561180c908590611b37565b6001600160a01b0386166000908152600960205260409020805463ffffffff191663ffffffff929092169190911790555b60408051848152602081018490526001600160a01b038716917fdec2bacdd2f05b59de34da9b523dff8be42e5e38e818c82fdb0bae774387a724910160405180910390a25050505050565b600081600160201b84106118af5760405162461bcd60e51b81526004016105e09190611a97565b509192915050565b80356001600160a01b03811681146109db57600080fd5b6000602082840312156118df578081fd5b610c32826118b7565b600080604083850312156118fa578081fd5b611903836118b7565b9150611911602084016118b7565b90509250929050565b60008060006060848603121561192e578081fd5b611937846118b7565b9250611945602085016118b7565b9150604084013590509250925092565b60008060408385031215611967578182fd5b611970836118b7565b946020939093013593505050565b60008060008060008060c08789031215611996578182fd5b61199f876118b7565b95506020870135945060408701359350606087013560ff811681146119c2578283fd5b9598949750929560808101359460a0909101359350915050565b600080604083850312156119ee578182fd5b6119f7836118b7565b9150602083013563ffffffff81168114611a0f578182fd5b809150509250929050565b600060208284031215611a2b578081fd5b81518015158114610c32578182fd5b600060208284031215611a4b578081fd5b5035919050565b600060208284031215611a63578081fd5b5051919050565b6001600160a01b0391909116815260200190565b6001600160a01b03929092168252602082015260400190565b6000602080835283518082850152825b81811015611ac357858101830151858201604001528201611aa7565b81811115611ad45783604083870101525b50601f01601f1916929092016040019392505050565b6020808252818101527f4f776e61626c653a2063616c6c6572206973206e6f7420746865206f776e6572604082015260600190565b60008219821115611b3257611b32611c20565b500190565b600063ffffffff808316818516808303821115611b5657611b56611c20565b01949350505050565b600063ffffffff80841680611b8257634e487b7160e01b83526012600452602483fd5b92169190910492915050565b600082821015611ba057611ba0611c20565b500390565b600063ffffffff83811690831681811015611bc257611bc2611c20565b039392505050565b600181811c90821680611bde57607f821691505b60208210811415611bff57634e487b7160e01b600052602260045260246000fd5b50919050565b6000600019821415611c1957611c19611c20565b5060010190565b634e487b7160e01b600052601160045260246000fdfe8cad95687ba82c2ce50e74f7b754645e5117c3a5bec8151c0726d5857980a866e48329057bfd03d55e49b547132e39cffd9c1820ad7b9d4c5307691425d15adf42455032303a207472616e7366657220616d6f756e74206578636565647320616c6c6f77616e63658be0079c531659141344cd1fd0a4f28419497f9722a3daafe3b4186f6b6457e043414b453a3a5f7772697465436865636b706f696e743a20626c6f636b206e756d6265722065786365656473203332206269747342455032303a207472616e7366657220616d6f756e7420657863656564732062616c616e6365ddf252ad1be2c89b69c2b068fc378daa952ba7f163c4a11628f55a4df523b3ef42455032303a2064656372656173656420616c6c6f77616e63652062656c6f77207a65726f42455032303a206275726e20616d6f756e7420657863656564732062616c616e6365a264697066735822122080e2968c1860cd9316e65e761d36ebb9cdbc145c2e0154d7dd0ff86a407fbdd464736f6c63430008040033",
  "linkReferences": {},
  "deployedLinkReferences": {}
}