{
  "_format": "hh-sol-artifact-1",
  "contractName": "SyrupBar",
  "sourceName": "contracts/farm/SyrupBar.sol",
  "abi": [
    {
      "inputs": [
        {
          "internalType": "contract BEP20",
          "name": "_cake",
          "type": "address"
        }
      ],
      "stateMutability": "nonpayable",
      "type": "constructor"
    },
    {
      "anonymous": false,
      "inputs": [
        {
          "indexed": true,
          "internalType": "address",
          "name": "owner",
          "type": "address"
        },
        {
          "indexed": true,
          "internalType": "address",
          "name": "spender",
          "type": "address"
        },
        {
          "indexed": false,
          "internalType": "uint256",
          "name": "value",
          "type": "uint256"
        }
      ],
      "name": "Approval",
      "type": "event"
    },
    {
      "anonymous": false,
      "inputs": [
        {
          "indexed": true,
          "internalType": "address",
          "name": "delegator",
          "type": "address"
        },
        {
          "indexed": true,
          "internalType": "address",
          "name": "fromDelegate",
          "type": "address"
        },
        {
          "indexed": true,
          "internalType": "address",
          "name": "toDelegate",
          "type": "address"
        }
      ],
      "name": "DelegateChanged",
      "type": "event"
    },
    {
      "anonymous": false,
      "inputs": [
        {
          "indexed": true,
          "internalType": "address",
          "name": "delegate",
          "type": "address"
        },
        {
          "indexed": false,
          "internalType": "uint256",
          "name": "previousBalance",
          "type": "uint256"
        },
        {
          "indexed": false,
          "internalType": "uint256",
          "name": "newBalance",
          "type": "uint256"
        }
      ],
      "name": "DelegateVotesChanged",
      "type": "event"
    },
    {
      "anonymous": false,
      "inputs": [
        {
          "indexed": true,
          "internalType": "address",
          "name": "previousOwner",
          "type": "address"
        },
        {
          "indexed": true,
          "internalType": "address",
          "name": "newOwner",
          "type": "address"
        }
      ],
      "name": "OwnershipTransferred",
      "type": "event"
    },
    {
      "anonymous": false,
      "inputs": [
        {
          "indexed": true,
          "internalType": "address",
          "name": "from",
          "type": "address"
        },
        {
          "indexed": true,
          "internalType": "address",
          "name": "to",
          "type": "address"
        },
        {
          "indexed": false,
          "internalType": "uint256",
          "name": "value",
          "type": "uint256"
        }
      ],
      "name": "Transfer",
      "type": "event"
    },
    {
      "inputs": [],
      "name": "DELEGATION_TYPEHASH",
      "outputs": [
        {
          "internalType": "bytes32",
          "name": "",
          "type": "bytes32"
        }
      ],
      "stateMutability": "view",
      "type": "function"
    },
    {
      "inputs": [],
      "name": "DOMAIN_TYPEHASH",
      "outputs": [
        {
          "internalType": "bytes32",
          "name": "",
          "type": "bytes32"
        }
      ],
      "stateMutability": "view",
      "type": "function"
    },
    {
      "inputs": [
        {
          "internalType": "address",
          "name": "owner",
          "type": "address"
        },
        {
          "internalType": "address",
          "name": "spender",
          "type": "address"
        }
      ],
      "name": "allowance",
      "outputs": [
        {
          "internalType": "uint256",
          "name": "",
          "type": "uint256"
        }
      ],
      "stateMutability": "view",
      "type": "function"
    },
    {
      "inputs": [
        {
          "internalType": "address",
          "name": "spender",
          "type": "address"
        },
        {
          "internalType": "uint256",
          "name": "amount",
          "type": "uint256"
        }
      ],
      "name": "approve",
      "outputs": [
        {
          "internalType": "bool",
          "name": "",
          "type": "bool"
        }
      ],
      "stateMutability": "nonpayable",
      "type": "function"
    },
    {
      "inputs": [
        {
          "internalType": "address",
          "name": "account",
          "type": "address"
        }
      ],
      "name": "balanceOf",
      "outputs": [
        {
          "internalType": "uint256",
          "name": "",
          "type": "uint256"
        }
      ],
      "stateMutability": "view",
      "type": "function"
    },
    {
      "inputs": [
        {
          "internalType": "address",
          "name": "_from",
          "type": "address"
        },
        {
          "internalType": "uint256",
          "name": "_amount",
          "type": "uint256"
        }
      ],
      "name": "burn",
      "outputs": [],
      "stateMutability": "nonpayable",
      "type": "function"
    },
    {
      "inputs": [],
      "name": "cake",
      "outputs": [
        {
          "internalType": "contract BEP20",
          "name": "",
          "type": "address"
        }
      ],
      "stateMutability": "view",
      "type": "function"
    },
    {
      "inputs": [
        {
          "internalType": "address",
          "name": "",
          "type": "address"
        },
        {
          "internalType": "uint32",
          "name": "",
          "type": "uint32"
        }
      ],
      "name": "checkpoints",
      "outputs": [
        {
          "internalType": "uint32",
          "name": "fromBlock",
          "type": "uint32"
        },
        {
          "internalType": "uint256",
          "name": "votes",
          "type": "uint256"
        }
      ],
      "stateMutability": "view",
      "type": "function"
    },
    {
      "inputs": [],
      "name": "decimals",
      "outputs": [
        {
          "internalType": "uint8",
          "name": "",
          "type": "uint8"
        }
      ],
      "stateMutability": "view",
      "type": "function"
    },
    {
      "inputs": [
        {
          "internalType": "address",
          "name": "spender",
          "type": "address"
        },
        {
          "internalType": "uint256",
          "name": "subtractedValue",
          "type": "uint256"
        }
      ],
      "name": "decreaseAllowance",
      "outputs": [
        {
          "internalType": "bool",
          "name": "",
          "type": "bool"
        }
      ],
      "stateMutability": "nonpayable",
      "type": "function"
    },
    {
      "inputs": [
        {
          "internalType": "address",
          "name": "delegatee",
          "type": "address"
        }
      ],
      "name": "delegate",
      "outputs": [],
      "stateMutability": "nonpayable",
      "type": "function"
    },
    {
      "inputs": [
        {
          "internalType": "address",
          "name": "delegatee",
          "type": "address"
        },
        {
          "internalType": "uint256",
          "name": "nonce",
          "type": "uint256"
        },
        {
          "internalType": "uint256",
          "name": "expiry",
          "type": "uint256"
        },
        {
          "internalType": "uint8",
          "name": "v",
          "type": "uint8"
        },
        {
          "internalType": "bytes32",
          "name": "r",
          "type": "bytes32"
        },
        {
          "internalType": "bytes32",
          "name": "s",
          "type": "bytes32"
        }
      ],
      "name": "delegateBySig",
      "outputs": [],
      "stateMutability": "nonpayable",
      "type": "function"
    },
    {
      "inputs": [
        {
          "internalType": "address",
          "name": "delegator",
          "type": "address"
        }
      ],
      "name": "delegates",
      "outputs": [
        {
          "internalType": "address",
          "name": "",
          "type": "address"
        }
      ],
      "stateMutability": "view",
      "type": "function"
    },
    {
      "inputs": [
        {
          "internalType": "address",
          "name": "account",
          "type": "address"
        }
      ],
      "name": "getCurrentVotes",
      "outputs": [
        {
          "internalType": "uint256",
          "name": "",
          "type": "uint256"
        }
      ],
      "stateMutability": "view",
      "type": "function"
    },
    {
      "inputs": [],
      "name": "getOwner",
      "outputs": [
        {
          "internalType": "address",
          "name": "",
          "type": "address"
        }
      ],
      "stateMutability": "view",
      "type": "function"
    },
    {
      "inputs": [
        {
          "internalType": "address",
          "name": "account",
          "type": "address"
        },
        {
          "internalType": "uint256",
          "name": "blockNumber",
          "type": "uint256"
        }
      ],
      "name": "getPriorVotes",
      "outputs": [
        {
          "internalType": "uint256",
          "name": "",
          "type": "uint256"
        }
      ],
      "stateMutability": "view",
      "type": "function"
    },
    {
      "inputs": [
        {
          "internalType": "address",
          "name": "spender",
          "type": "address"
        },
        {
          "internalType": "uint256",
          "name": "addedValue",
          "type": "uint256"
        }
      ],
      "name": "increaseAllowance",
      "outputs": [
        {
          "internalType": "bool",
          "name": "",
          "type": "bool"
        }
      ],
      "stateMutability": "nonpayable",
      "type": "function"
    },
    {
      "inputs": [
        {
          "internalType": "address",
          "name": "_to",
          "type": "address"
        },
        {
          "internalType": "uint256",
          "name": "_amount",
          "type": "uint256"
        }
      ],
      "name": "mint",
      "outputs": [],
      "stateMutability": "nonpayable",
      "type": "function"
    },
    {
      "inputs": [
        {
          "internalType": "uint256",
          "name": "amount",
          "type": "uint256"
        }
      ],
      "name": "mint",
      "outputs": [
        {
          "internalType": "bool",
          "name": "",
          "type": "bool"
        }
      ],
      "stateMutability": "nonpayable",
      "type": "function"
    },
    {
      "inputs": [],
      "name": "name",
      "outputs": [
        {
          "internalType": "string",
          "name": "",
          "type": "string"
        }
      ],
      "stateMutability": "view",
      "type": "function"
    },
    {
      "inputs": [
        {
          "internalType": "address",
          "name": "",
          "type": "address"
        }
      ],
      "name": "nonces",
      "outputs": [
        {
          "internalType": "uint256",
          "name": "",
          "type": "uint256"
        }
      ],
      "stateMutability": "view",
      "type": "function"
    },
    {
      "inputs": [
        {
          "internalType": "address",
          "name": "",
          "type": "address"
        }
      ],
      "name": "numCheckpoints",
      "outputs": [
        {
          "internalType": "uint32",
          "name": "",
          "type": "uint32"
        }
      ],
      "stateMutability": "view",
      "type": "function"
    },
    {
      "inputs": [],
      "name": "owner",
      "outputs": [
        {
          "internalType": "address",
          "name": "",
          "type": "address"
        }
      ],
      "stateMutability": "view",
      "type": "function"
    },
    {
      "inputs": [],
      "name": "renounceOwnership",
      "outputs": [],
      "stateMutability": "nonpayable",
      "type": "function"
    },
    {
      "inputs": [
        {
          "internalType": "address",
          "name": "_to",
          "type": "address"
        },
        {
          "internalType": "uint256",
          "name": "_amount",
          "type": "uint256"
        }
      ],
      "name": "safeCakeTransfer",
      "outputs": [],
      "stateMutability": "nonpayable",
      "type": "function"
    },
    {
      "inputs": [],
      "name": "symbol",
      "outputs": [
        {
          "internalType": "string",
          "name": "",
          "type": "string"
        }
      ],
      "stateMutability": "view",
      "type": "function"
    },
    {
      "inputs": [],
      "name": "totalSupply",
      "outputs": [
        {
          "internalType": "uint256",
          "name": "",
          "type": "uint256"
        }
      ],
      "stateMutability": "view",
      "type": "function"
    },
    {
      "inputs": [
        {
          "internalType": "address",
          "name": "recipient",
          "type": "address"
        },
        {
          "internalType": "uint256",
          "name": "amount",
          "type": "uint256"
        }
      ],
      "name": "transfer",
      "outputs": [
        {
          "internalType": "bool",
          "name": "",
          "type": "bool"
        }
      ],
      "stateMutability": "nonpayable",
      "type": "function"
    },
    {
      "inputs": [
        {
          "internalType": "address",
          "name": "sender",
          "type": "address"
        },
        {
          "internalType": "address",
          "name": "recipient",
          "type": "address"
        },
        {
          "internalType": "uint256",
          "name": "amount",
          "type": "uint256"
        }
      ],
      "name": "transferFrom",
      "outputs": [
        {
          "internalType": "bool",
          "name": "",
          "type": "bool"
        }
      ],
      "stateMutability": "nonpayable",
      "type": "function"
    },
    {
      "inputs": [
        {
          "internalType": "address",
          "name": "newOwner",
          "type": "address"
        }
      ],
      "name": "transferOwnership",
      "outputs": [],
      "stateMutability": "nonpayable",
      "type": "function"
    }
  ],
  "bytecode": "0x60806040523480156200001157600080fd5b50604051620040c6380380620040c68339818101604052810190620000379190620002ba565b6040518060400160405280600e81526020017f537972757042617220546f6b656e0000000000000000000000000000000000008152506040518060400160405280600581526020017f53595255500000000000000000000000000000000000000000000000000000008152506000620000b5620001eb60201b60201c565b9050806000806101000a81548173ffffffffffffffffffffffffffffffffffffffff021916908373ffffffffffffffffffffffffffffffffffffffff1602179055508073ffffffffffffffffffffffffffffffffffffffff16600073ffffffffffffffffffffffffffffffffffffffff167f8be0079c531659141344cd1fd0a4f28419497f9722a3daafe3b4186f6b6457e060405160405180910390a35081600490805190602001906200016b929190620001f3565b50806005908051906020019062000184929190620001f3565b506012600660006101000a81548160ff021916908360ff160217905550505080600660016101000a81548173ffffffffffffffffffffffffffffffffffffffff021916908373ffffffffffffffffffffffffffffffffffffffff16021790555050620003ad565b600033905090565b82805462000201906200032e565b90600052602060002090601f01602090048101928262000225576000855562000271565b82601f106200024057805160ff191683800117855562000271565b8280016001018555821562000271579182015b828111156200027057825182559160200191906001019062000253565b5b50905062000280919062000284565b5090565b5b808211156200029f57600081600090555060010162000285565b5090565b600081519050620002b48162000393565b92915050565b600060208284031215620002cd57600080fd5b6000620002dd84828501620002a3565b91505092915050565b6000620002f3826200030e565b9050919050565b60006200030782620002e6565b9050919050565b600073ffffffffffffffffffffffffffffffffffffffff82169050919050565b600060028204905060018216806200034757607f821691505b602082108114156200035e576200035d62000364565b5b50919050565b7f4e487b7100000000000000000000000000000000000000000000000000000000600052602260045260246000fd5b6200039e81620002fa565b8114620003aa57600080fd5b50565b613d0980620003bd6000396000f3fe608060405234801561001057600080fd5b506004361061016a5760003560e01c806306fdde031461016f578063095ea7b31461018d57806318160ddd146101bd57806320606b70146101db57806323b872dd146101f9578063313ce56714610229578063395093511461024757806340c10f1914610277578063587cde1e146102935780635c19a95c146102c35780636fcfff45146102df57806370a082311461030f578063715018a61461033f578063782d6fe1146103495780637ecebe0014610379578063893d20e8146103a95780638da5cb5b146103c757806395d89b41146103e55780639dc29fac14610403578063a0712d681461041f578063a2e6ddcc1461044f578063a457c2d71461046b578063a9059cbb1461049b578063b4b5ea57146104cb578063c3cda520146104fb578063dce1748414610517578063dd62ed3e14610535578063e7a324dc14610565578063f1127ed814610583578063f2fde38b146105b4575b600080fd5b6101776105d0565b6040516101849190613228565b60405180910390f35b6101a760048036038101906101a29190612c6e565b610662565b6040516101b49190613108565b60405180910390f35b6101c5610680565b6040516101d291906133ea565b60405180910390f35b6101e361068a565b6040516101f09190613123565b60405180910390f35b610213600480360381019061020e9190612c1f565b6106ae565b6040516102209190613108565b60405180910390f35b610231610787565b60405161023e9190613472565b60405180910390f35b610261600480360381019061025c9190612c6e565b61079e565b60405161026e9190613108565b60405180910390f35b610291600480360381019061028c9190612c6e565b610851565b005b6102ad60048036038101906102a89190612bba565b610946565b6040516102ba91906130c4565b60405180910390f35b6102dd60048036038101906102d89190612bba565b6109af565b005b6102f960048036038101906102f49190612bba565b6109bc565b604051610306919061342e565b60405180910390f35b61032960048036038101906103249190612bba565b6109df565b60405161033691906133ea565b60405180910390f35b610347610a28565b005b610363600480360381019061035e9190612c6e565b610b62565b60405161037091906133ea565b60405180910390f35b610393600480360381019061038e9190612bba565b610f39565b6040516103a091906133ea565b60405180910390f35b6103b1610f51565b6040516103be91906130c4565b60405180910390f35b6103cf610f60565b6040516103dc91906130c4565b60405180910390f35b6103ed610f89565b6040516103fa9190613228565b60405180910390f35b61041d60048036038101906104189190612c6e565b61101b565b005b61043960048036038101906104349190612d98565b611110565b6040516104469190613108565b60405180910390f35b61046960048036038101906104649190612c6e565b6111a8565b005b61048560048036038101906104809190612c6e565b611446565b6040516104929190613108565b60405180910390f35b6104b560048036038101906104b09190612c6e565b611513565b6040516104c29190613108565b60405180910390f35b6104e560048036038101906104e09190612bba565b611531565b6040516104f291906133ea565b60405180910390f35b61051560048036038101906105109190612caa565b611610565b005b61051f6118a5565b60405161052c919061320d565b60405180910390f35b61054f600480360381019061054a9190612be3565b6118cb565b60405161055c91906133ea565b60405180910390f35b61056d611952565b60405161057a9190613123565b60405180910390f35b61059d60048036038101906105989190612d33565b611976565b6040516105ab929190613449565b60405180910390f35b6105ce60048036038101906105c99190612bba565b6119b7565b005b6060600480546105df906136a3565b80601f016020809104026020016040519081016040528092919081815260200182805461060b906136a3565b80156106585780601f1061062d57610100808354040283529160200191610658565b820191906000526020600020905b81548152906001019060200180831161063b57829003601f168201915b5050505050905090565b600061067661066f611b60565b8484611b68565b6001905092915050565b6000600354905090565b7f8cad95687ba82c2ce50e74f7b754645e5117c3a5bec8151c0726d5857980a86681565b60006106bb848484611d33565b61077c846106c7611b60565b61077785604051806060016040528060288152602001613c0b60289139600260008b73ffffffffffffffffffffffffffffffffffffffff1673ffffffffffffffffffffffffffffffffffffffff168152602001908152602001600020600061072d611b60565b73ffffffffffffffffffffffffffffffffffffffff1673ffffffffffffffffffffffffffffffffffffffff16815260200190815260200160002054611fc19092919063ffffffff16565b611b68565b600190509392505050565b6000600660009054906101000a900460ff16905090565b60006108476107ab611b60565b8461084285600260006107bc611b60565b73ffffffffffffffffffffffffffffffffffffffff1673ffffffffffffffffffffffffffffffffffffffff16815260200190815260200160002060008973ffffffffffffffffffffffffffffffffffffffff1673ffffffffffffffffffffffffffffffffffffffff1681526020019081526020016000205461202590919063ffffffff16565b611b68565b6001905092915050565b610859611b60565b73ffffffffffffffffffffffffffffffffffffffff16610877610f60565b73ffffffffffffffffffffffffffffffffffffffff16146108cd576040517f08c379a00000000000000000000000000000000000000000000000000000000081526004016108c49061332a565b60405180910390fd5b6108d78282612083565b6109426000600760008573ffffffffffffffffffffffffffffffffffffffff1673ffffffffffffffffffffffffffffffffffffffff16815260200190815260200160002060009054906101000a900473ffffffffffffffffffffffffffffffffffffffff168361220d565b5050565b6000600760008373ffffffffffffffffffffffffffffffffffffffff1673ffffffffffffffffffffffffffffffffffffffff16815260200190815260200160002060009054906101000a900473ffffffffffffffffffffffffffffffffffffffff169050919050565b6109b933826124bc565b50565b60096020528060005260406000206000915054906101000a900463ffffffff1681565b6000600160008373ffffffffffffffffffffffffffffffffffffffff1673ffffffffffffffffffffffffffffffffffffffff168152602001908152602001600020549050919050565b610a30611b60565b73ffffffffffffffffffffffffffffffffffffffff16610a4e610f60565b73ffffffffffffffffffffffffffffffffffffffff1614610aa4576040517f08c379a0000000000000000000000000000000000000000000000000000000008152600401610a9b9061332a565b60405180910390fd5b600073ffffffffffffffffffffffffffffffffffffffff1660008054906101000a900473ffffffffffffffffffffffffffffffffffffffff1673ffffffffffffffffffffffffffffffffffffffff167f8be0079c531659141344cd1fd0a4f28419497f9722a3daafe3b4186f6b6457e060405160405180910390a360008060006101000a81548173ffffffffffffffffffffffffffffffffffffffff021916908373ffffffffffffffffffffffffffffffffffffffff160217905550565b6000438210610ba6576040517f08c379a0000000000000000000000000000000000000000000000000000000008152600401610b9d9061334a565b60405180910390fd5b6000600960008573ffffffffffffffffffffffffffffffffffffffff1673ffffffffffffffffffffffffffffffffffffffff16815260200190815260200160002060009054906101000a900463ffffffff16905060008163ffffffff161415610c13576000915050610f33565b82600860008673ffffffffffffffffffffffffffffffffffffffff1673ffffffffffffffffffffffffffffffffffffffff1681526020019081526020016000206000600184610c6291906135a9565b63ffffffff1663ffffffff16815260200190815260200160002060000160009054906101000a900463ffffffff1663ffffffff1611610d0f57600860008573ffffffffffffffffffffffffffffffffffffffff1673ffffffffffffffffffffffffffffffffffffffff1681526020019081526020016000206000600183610ce991906135a9565b63ffffffff1663ffffffff16815260200190815260200160002060010154915050610f33565b82600860008673ffffffffffffffffffffffffffffffffffffffff1673ffffffffffffffffffffffffffffffffffffffff16815260200190815260200160002060008063ffffffff16815260200190815260200160002060000160009054906101000a900463ffffffff1663ffffffff161115610d90576000915050610f33565b600080600183610da091906135a9565b90505b8163ffffffff168163ffffffff161115610ecd57600060028383610dc791906135a9565b610dd19190613544565b82610ddc91906135a9565b90506000600860008973ffffffffffffffffffffffffffffffffffffffff1673ffffffffffffffffffffffffffffffffffffffff16815260200190815260200160002060008363ffffffff1663ffffffff1681526020019081526020016000206040518060400160405290816000820160009054906101000a900463ffffffff1663ffffffff1663ffffffff168152602001600182015481525050905086816000015163ffffffff161415610e9c57806020015195505050505050610f33565b86816000015163ffffffff161015610eb657819350610ec6565b600182610ec391906135a9565b92505b5050610da3565b600860008773ffffffffffffffffffffffffffffffffffffffff1673ffffffffffffffffffffffffffffffffffffffff16815260200190815260200160002060008363ffffffff1663ffffffff1681526020019081526020016000206001015493505050505b92915050565b600a6020528060005260406000206000915090505481565b6000610f5b610f60565b905090565b60008060009054906101000a900473ffffffffffffffffffffffffffffffffffffffff16905090565b606060058054610f98906136a3565b80601f0160208091040260200160405190810160405280929190818152602001828054610fc4906136a3565b80156110115780601f10610fe657610100808354040283529160200191611011565b820191906000526020600020905b815481529060010190602001808311610ff457829003601f168201915b5050505050905090565b611023611b60565b73ffffffffffffffffffffffffffffffffffffffff16611041610f60565b73ffffffffffffffffffffffffffffffffffffffff1614611097576040517f08c379a000000000000000000000000000000000000000000000000000000000815260040161108e9061332a565b60405180910390fd5b6110a1828261262d565b61110c600760008473ffffffffffffffffffffffffffffffffffffffff1673ffffffffffffffffffffffffffffffffffffffff16815260200190815260200160002060009054906101000a900473ffffffffffffffffffffffffffffffffffffffff1660008361220d565b5050565b600061111a611b60565b73ffffffffffffffffffffffffffffffffffffffff16611138610f60565b73ffffffffffffffffffffffffffffffffffffffff161461118e576040517f08c379a00000000000000000000000000000000000000000000000000000000081526004016111859061332a565b60405180910390fd5b61119f611199611b60565b83612083565b60019050919050565b6111b0611b60565b73ffffffffffffffffffffffffffffffffffffffff166111ce610f60565b73ffffffffffffffffffffffffffffffffffffffff1614611224576040517f08c379a000000000000000000000000000000000000000000000000000000000815260040161121b9061332a565b60405180910390fd5b6000600660019054906101000a900473ffffffffffffffffffffffffffffffffffffffff1673ffffffffffffffffffffffffffffffffffffffff166370a08231306040518263ffffffff1660e01b815260040161128191906130c4565b60206040518083038186803b15801561129957600080fd5b505afa1580156112ad573d6000803e3d6000fd5b505050506040513d601f19601f820116820180604052508101906112d19190612dc1565b90508082111561139057600660019054906101000a900473ffffffffffffffffffffffffffffffffffffffff1673ffffffffffffffffffffffffffffffffffffffff1663a9059cbb84836040518363ffffffff1660e01b81526004016113389291906130df565b602060405180830381600087803b15801561135257600080fd5b505af1158015611366573d6000803e3d6000fd5b505050506040513d601f19601f8201168201806040525081019061138a9190612d6f565b50611441565b600660019054906101000a900473ffffffffffffffffffffffffffffffffffffffff1673ffffffffffffffffffffffffffffffffffffffff1663a9059cbb84846040518363ffffffff1660e01b81526004016113ed9291906130df565b602060405180830381600087803b15801561140757600080fd5b505af115801561141b573d6000803e3d6000fd5b505050506040513d601f19601f8201168201806040525081019061143f9190612d6f565b505b505050565b6000611509611453611b60565b8461150485604051806060016040528060258152602001613c8d602591396002600061147d611b60565b73ffffffffffffffffffffffffffffffffffffffff1673ffffffffffffffffffffffffffffffffffffffff16815260200190815260200160002060008a73ffffffffffffffffffffffffffffffffffffffff1673ffffffffffffffffffffffffffffffffffffffff16815260200190815260200160002054611fc19092919063ffffffff16565b611b68565b6001905092915050565b6000611527611520611b60565b8484611d33565b6001905092915050565b600080600960008473ffffffffffffffffffffffffffffffffffffffff1673ffffffffffffffffffffffffffffffffffffffff16815260200190815260200160002060009054906101000a900463ffffffff16905060008163ffffffff161161159b576000611608565b600860008473ffffffffffffffffffffffffffffffffffffffff1673ffffffffffffffffffffffffffffffffffffffff16815260200190815260200160002060006001836115e991906135a9565b63ffffffff1663ffffffff168152602001908152602001600020600101545b915050919050565b60007f8cad95687ba82c2ce50e74f7b754645e5117c3a5bec8151c0726d5857980a86661163b6105d0565b8051906020012061164a6127d1565b3060405160200161165e9493929190613183565b60405160208183030381529060405280519060200120905060007fe48329057bfd03d55e49b547132e39cffd9c1820ad7b9d4c5307691425d15adf8888886040516020016116af949392919061313e565b604051602081830303815290604052805190602001209050600082826040516020016116dc92919061308d565b60405160208183030381529060405280519060200120905060006001828888886040516000815260200160405260405161171994939291906131c8565b6020604051602081039080840390855afa15801561173b573d6000803e3d6000fd5b505050602060405103519050600073ffffffffffffffffffffffffffffffffffffffff168173ffffffffffffffffffffffffffffffffffffffff1614156117b7576040517f08c379a00000000000000000000000000000000000000000000000000000000081526004016117ae906132ea565b60405180910390fd5b600a60008273ffffffffffffffffffffffffffffffffffffffff1673ffffffffffffffffffffffffffffffffffffffff1681526020019081526020016000206000815480929190611807906136d5565b91905055891461184c576040517f08c379a00000000000000000000000000000000000000000000000000000000081526004016118439061336a565b60405180910390fd5b8742111561188f576040517f08c379a0000000000000000000000000000000000000000000000000000000008152600401611886906132aa565b60405180910390fd5b611899818b6124bc565b50505050505050505050565b600660019054906101000a900473ffffffffffffffffffffffffffffffffffffffff1681565b6000600260008473ffffffffffffffffffffffffffffffffffffffff1673ffffffffffffffffffffffffffffffffffffffff16815260200190815260200160002060008373ffffffffffffffffffffffffffffffffffffffff1673ffffffffffffffffffffffffffffffffffffffff16815260200190815260200160002054905092915050565b7fe48329057bfd03d55e49b547132e39cffd9c1820ad7b9d4c5307691425d15adf81565b6008602052816000526040600020602052806000526040600020600091509150508060000160009054906101000a900463ffffffff16908060010154905082565b6119bf611b60565b73ffffffffffffffffffffffffffffffffffffffff166119dd610f60565b73ffffffffffffffffffffffffffffffffffffffff1614611a33576040517f08c379a0000000000000000000000000000000000000000000000000000000008152600401611a2a9061332a565b60405180910390fd5b600073ffffffffffffffffffffffffffffffffffffffff168173ffffffffffffffffffffffffffffffffffffffff161415611aa3576040517f08c379a0000000000000000000000000000000000000000000000000000000008152600401611a9a9061328a565b60405180910390fd5b8073ffffffffffffffffffffffffffffffffffffffff1660008054906101000a900473ffffffffffffffffffffffffffffffffffffffff1673ffffffffffffffffffffffffffffffffffffffff167f8be0079c531659141344cd1fd0a4f28419497f9722a3daafe3b4186f6b6457e060405160405180910390a3806000806101000a81548173ffffffffffffffffffffffffffffffffffffffff021916908373ffffffffffffffffffffffffffffffffffffffff16021790555050565b600033905090565b600073ffffffffffffffffffffffffffffffffffffffff168373ffffffffffffffffffffffffffffffffffffffff161415611bd8576040517f08c379a0000000000000000000000000000000000000000000000000000000008152600401611bcf9061326a565b60405180910390fd5b600073ffffffffffffffffffffffffffffffffffffffff168273ffffffffffffffffffffffffffffffffffffffff161415611c48576040517f08c379a0000000000000000000000000000000000000000000000000000000008152600401611c3f906133ca565b60405180910390fd5b80600260008573ffffffffffffffffffffffffffffffffffffffff1673ffffffffffffffffffffffffffffffffffffffff16815260200190815260200160002060008473ffffffffffffffffffffffffffffffffffffffff1673ffffffffffffffffffffffffffffffffffffffff168152602001908152602001600020819055508173ffffffffffffffffffffffffffffffffffffffff168373ffffffffffffffffffffffffffffffffffffffff167f8c5be1e5ebec7d5bd14f71427d1e84f3dd0314c0f7b2291e5b200ac8c7c3b92583604051611d2691906133ea565b60405180910390a3505050565b600073ffffffffffffffffffffffffffffffffffffffff168373ffffffffffffffffffffffffffffffffffffffff161415611da3576040517f08c379a0000000000000000000000000000000000000000000000000000000008152600401611d9a9061324a565b60405180910390fd5b600073ffffffffffffffffffffffffffffffffffffffff168273ffffffffffffffffffffffffffffffffffffffff161415611e13576040517f08c379a0000000000000000000000000000000000000000000000000000000008152600401611e0a9061338a565b60405180910390fd5b611e7f81604051806060016040528060268152602001613c6760269139600160008773ffffffffffffffffffffffffffffffffffffffff1673ffffffffffffffffffffffffffffffffffffffff16815260200190815260200160002054611fc19092919063ffffffff16565b600160008573ffffffffffffffffffffffffffffffffffffffff1673ffffffffffffffffffffffffffffffffffffffff16815260200190815260200160002081905550611f1481600160008573ffffffffffffffffffffffffffffffffffffffff1673ffffffffffffffffffffffffffffffffffffffff1681526020019081526020016000205461202590919063ffffffff16565b600160008473ffffffffffffffffffffffffffffffffffffffff1673ffffffffffffffffffffffffffffffffffffffff168152602001908152602001600020819055508173ffffffffffffffffffffffffffffffffffffffff168373ffffffffffffffffffffffffffffffffffffffff167fddf252ad1be2c89b69c2b068fc378daa952ba7f163c4a11628f55a4df523b3ef83604051611fb491906133ea565b60405180910390a3505050565b6000838311158290612009576040517f08c379a00000000000000000000000000000000000000000000000000000000081526004016120009190613228565b60405180910390fd5b50600083856120189190613575565b9050809150509392505050565b600080828461203491906134b4565b905083811015612079576040517f08c379a0000000000000000000000000000000000000000000000000000000008152600401612070906132ca565b60405180910390fd5b8091505092915050565b600073ffffffffffffffffffffffffffffffffffffffff168273ffffffffffffffffffffffffffffffffffffffff1614156120f3576040517f08c379a00000000000000000000000000000000000000000000000000000000081526004016120ea9061330a565b60405180910390fd5b6121088160035461202590919063ffffffff16565b60038190555061216081600160008573ffffffffffffffffffffffffffffffffffffffff1673ffffffffffffffffffffffffffffffffffffffff1681526020019081526020016000205461202590919063ffffffff16565b600160008473ffffffffffffffffffffffffffffffffffffffff1673ffffffffffffffffffffffffffffffffffffffff168152602001908152602001600020819055508173ffffffffffffffffffffffffffffffffffffffff16600073ffffffffffffffffffffffffffffffffffffffff167fddf252ad1be2c89b69c2b068fc378daa952ba7f163c4a11628f55a4df523b3ef8360405161220191906133ea565b60405180910390a35050565b8173ffffffffffffffffffffffffffffffffffffffff168373ffffffffffffffffffffffffffffffffffffffff16141580156122495750600081115b156124b757600073ffffffffffffffffffffffffffffffffffffffff168373ffffffffffffffffffffffffffffffffffffffff1614612382576000600960008573ffffffffffffffffffffffffffffffffffffffff1673ffffffffffffffffffffffffffffffffffffffff16815260200190815260200160002060009054906101000a900463ffffffff1690506000808263ffffffff16116122ec576000612359565b600860008673ffffffffffffffffffffffffffffffffffffffff1673ffffffffffffffffffffffffffffffffffffffff168152602001908152602001600020600060018461233a91906135a9565b63ffffffff1663ffffffff168152602001908152602001600020600101545b9050600061237084836127de90919063ffffffff16565b905061237e86848484612828565b5050505b600073ffffffffffffffffffffffffffffffffffffffff168273ffffffffffffffffffffffffffffffffffffffff16146124b6576000600960008473ffffffffffffffffffffffffffffffffffffffff1673ffffffffffffffffffffffffffffffffffffffff16815260200190815260200160002060009054906101000a900463ffffffff1690506000808263ffffffff161161242057600061248d565b600860008573ffffffffffffffffffffffffffffffffffffffff1673ffffffffffffffffffffffffffffffffffffffff168152602001908152602001600020600060018461246e91906135a9565b63ffffffff1663ffffffff168152602001908152602001600020600101545b905060006124a4848361202590919063ffffffff16565b90506124b285848484612828565b5050505b5b505050565b6000600760008473ffffffffffffffffffffffffffffffffffffffff1673ffffffffffffffffffffffffffffffffffffffff16815260200190815260200160002060009054906101000a900473ffffffffffffffffffffffffffffffffffffffff169050600061252b846109df565b905082600760008673ffffffffffffffffffffffffffffffffffffffff1673ffffffffffffffffffffffffffffffffffffffff16815260200190815260200160002060006101000a81548173ffffffffffffffffffffffffffffffffffffffff021916908373ffffffffffffffffffffffffffffffffffffffff1602179055508273ffffffffffffffffffffffffffffffffffffffff168273ffffffffffffffffffffffffffffffffffffffff168573ffffffffffffffffffffffffffffffffffffffff167f3134e8a2e6d97e929a7e54011ea5485d7d196dd5f0ba4d4ef95803e8e3fc257f60405160405180910390a461262782848361220d565b50505050565b600073ffffffffffffffffffffffffffffffffffffffff168273ffffffffffffffffffffffffffffffffffffffff16141561269d576040517f08c379a0000000000000000000000000000000000000000000000000000000008152600401612694906133aa565b60405180910390fd5b61270981604051806060016040528060228152602001613cb260229139600160008673ffffffffffffffffffffffffffffffffffffffff1673ffffffffffffffffffffffffffffffffffffffff16815260200190815260200160002054611fc19092919063ffffffff16565b600160008473ffffffffffffffffffffffffffffffffffffffff1673ffffffffffffffffffffffffffffffffffffffff16815260200190815260200160002081905550612761816003546127de90919063ffffffff16565b600381905550600073ffffffffffffffffffffffffffffffffffffffff168273ffffffffffffffffffffffffffffffffffffffff167fddf252ad1be2c89b69c2b068fc378daa952ba7f163c4a11628f55a4df523b3ef836040516127c591906133ea565b60405180910390a35050565b6000804690508091505090565b600061282083836040518060400160405280601e81526020017f536166654d6174683a207375627472616374696f6e206f766572666c6f770000815250611fc1565b905092915050565b600061284c43604051806060016040528060348152602001613c3360349139612ad1565b905060008463ffffffff161180156128ea57508063ffffffff16600860008773ffffffffffffffffffffffffffffffffffffffff1673ffffffffffffffffffffffffffffffffffffffff16815260200190815260200160002060006001876128b491906135a9565b63ffffffff1663ffffffff16815260200190815260200160002060000160009054906101000a900463ffffffff1663ffffffff16145b156129645781600860008773ffffffffffffffffffffffffffffffffffffffff1673ffffffffffffffffffffffffffffffffffffffff168152602001908152602001600020600060018761293e91906135a9565b63ffffffff1663ffffffff16815260200190815260200160002060010181905550612a7a565b60405180604001604052808263ffffffff16815260200183815250600860008773ffffffffffffffffffffffffffffffffffffffff1673ffffffffffffffffffffffffffffffffffffffff16815260200190815260200160002060008663ffffffff1663ffffffff16815260200190815260200160002060008201518160000160006101000a81548163ffffffff021916908363ffffffff16021790555060208201518160010155905050600184612a1c919061350a565b600960008773ffffffffffffffffffffffffffffffffffffffff1673ffffffffffffffffffffffffffffffffffffffff16815260200190815260200160002060006101000a81548163ffffffff021916908363ffffffff1602179055505b8473ffffffffffffffffffffffffffffffffffffffff167fdec2bacdd2f05b59de34da9b523dff8be42e5e38e818c82fdb0bae774387a7248484604051612ac2929190613405565b60405180910390a25050505050565b600064010000000083108290612b1d576040517f08c379a0000000000000000000000000000000000000000000000000000000008152600401612b149190613228565b60405180910390fd5b5082905092915050565b600081359050612b3681613b80565b92915050565b600081519050612b4b81613b97565b92915050565b600081359050612b6081613bae565b92915050565b600081359050612b7581613bc5565b92915050565b600081519050612b8a81613bc5565b92915050565b600081359050612b9f81613bdc565b92915050565b600081359050612bb481613bf3565b92915050565b600060208284031215612bcc57600080fd5b6000612bda84828501612b27565b91505092915050565b60008060408385031215612bf657600080fd5b6000612c0485828601612b27565b9250506020612c1585828601612b27565b9150509250929050565b600080600060608486031215612c3457600080fd5b6000612c4286828701612b27565b9350506020612c5386828701612b27565b9250506040612c6486828701612b66565b9150509250925092565b60008060408385031215612c8157600080fd5b6000612c8f85828601612b27565b9250506020612ca085828601612b66565b9150509250929050565b60008060008060008060c08789031215612cc357600080fd5b6000612cd189828a01612b27565b9650506020612ce289828a01612b66565b9550506040612cf389828a01612b66565b9450506060612d0489828a01612ba5565b9350506080612d1589828a01612b51565b92505060a0612d2689828a01612b51565b9150509295509295509295565b60008060408385031215612d4657600080fd5b6000612d5485828601612b27565b9250506020612d6585828601612b90565b9150509250929050565b600060208284031215612d8157600080fd5b6000612d8f84828501612b3c565b91505092915050565b600060208284031215612daa57600080fd5b6000612db884828501612b66565b91505092915050565b600060208284031215612dd357600080fd5b6000612de184828501612b7b565b91505092915050565b612df3816135dd565b82525050565b612e02816135ef565b82525050565b612e11816135fb565b82525050565b612e28612e23826135fb565b61371e565b82525050565b612e378161364c565b82525050565b6000612e488261348d565b612e528185613498565b9350612e62818560208601613670565b612e6b816137b5565b840191505092915050565b6000612e83602583613498565b9150612e8e826137c6565b604082019050919050565b6000612ea6602483613498565b9150612eb182613815565b604082019050919050565b6000612ec9602683613498565b9150612ed482613864565b604082019050919050565b6000612eec602683613498565b9150612ef7826138b3565b604082019050919050565b6000612f0f6002836134a9565b9150612f1a82613902565b600282019050919050565b6000612f32601b83613498565b9150612f3d8261392b565b602082019050919050565b6000612f55602683613498565b9150612f6082613954565b604082019050919050565b6000612f78601f83613498565b9150612f83826139a3565b602082019050919050565b6000612f9b602083613498565b9150612fa6826139cc565b602082019050919050565b6000612fbe602783613498565b9150612fc9826139f5565b604082019050919050565b6000612fe1602283613498565b9150612fec82613a44565b604082019050919050565b6000613004602383613498565b915061300f82613a93565b604082019050919050565b6000613027602183613498565b915061303282613ae2565b604082019050919050565b600061304a602283613498565b915061305582613b31565b604082019050919050565b61306981613625565b82525050565b6130788161362f565b82525050565b6130878161363f565b82525050565b600061309882612f02565b91506130a48285612e17565b6020820191506130b48284612e17565b6020820191508190509392505050565b60006020820190506130d96000830184612dea565b92915050565b60006040820190506130f46000830185612dea565b6131016020830184613060565b9392505050565b600060208201905061311d6000830184612df9565b92915050565b60006020820190506131386000830184612e08565b92915050565b60006080820190506131536000830187612e08565b6131606020830186612dea565b61316d6040830185613060565b61317a6060830184613060565b95945050505050565b60006080820190506131986000830187612e08565b6131a56020830186612e08565b6131b26040830185613060565b6131bf6060830184612dea565b95945050505050565b60006080820190506131dd6000830187612e08565b6131ea602083018661307e565b6131f76040830185612e08565b6132046060830184612e08565b95945050505050565b60006020820190506132226000830184612e2e565b92915050565b600060208201905081810360008301526132428184612e3d565b905092915050565b6000602082019050818103600083015261326381612e76565b9050919050565b6000602082019050818103600083015261328381612e99565b9050919050565b600060208201905081810360008301526132a381612ebc565b9050919050565b600060208201905081810360008301526132c381612edf565b9050919050565b600060208201905081810360008301526132e381612f25565b9050919050565b6000602082019050818103600083015261330381612f48565b9050919050565b6000602082019050818103600083015261332381612f6b565b9050919050565b6000602082019050818103600083015261334381612f8e565b9050919050565b6000602082019050818103600083015261336381612fb1565b9050919050565b6000602082019050818103600083015261338381612fd4565b9050919050565b600060208201905081810360008301526133a381612ff7565b9050919050565b600060208201905081810360008301526133c38161301a565b9050919050565b600060208201905081810360008301526133e38161303d565b9050919050565b60006020820190506133ff6000830184613060565b92915050565b600060408201905061341a6000830185613060565b6134276020830184613060565b9392505050565b6000602082019050613443600083018461306f565b92915050565b600060408201905061345e600083018561306f565b61346b6020830184613060565b9392505050565b6000602082019050613487600083018461307e565b92915050565b600081519050919050565b600082825260208201905092915050565b600081905092915050565b60006134bf82613625565b91506134ca83613625565b9250827fffffffffffffffffffffffffffffffffffffffffffffffffffffffffffffffff038211156134ff576134fe613728565b5b828201905092915050565b60006135158261362f565b91506135208361362f565b92508263ffffffff0382111561353957613538613728565b5b828201905092915050565b600061354f8261362f565b915061355a8361362f565b92508261356a57613569613757565b5b828204905092915050565b600061358082613625565b915061358b83613625565b92508282101561359e5761359d613728565b5b828203905092915050565b60006135b48261362f565b91506135bf8361362f565b9250828210156135d2576135d1613728565b5b828203905092915050565b60006135e882613605565b9050919050565b60008115159050919050565b6000819050919050565b600073ffffffffffffffffffffffffffffffffffffffff82169050919050565b6000819050919050565b600063ffffffff82169050919050565b600060ff82169050919050565b60006136578261365e565b9050919050565b600061366982613605565b9050919050565b60005b8381101561368e578082015181840152602081019050613673565b8381111561369d576000848401525b50505050565b600060028204905060018216806136bb57607f821691505b602082108114156136cf576136ce613786565b5b50919050565b60006136e082613625565b91507fffffffffffffffffffffffffffffffffffffffffffffffffffffffffffffffff82141561371357613712613728565b5b600182019050919050565b6000819050919050565b7f4e487b7100000000000000000000000000000000000000000000000000000000600052601160045260246000fd5b7f4e487b7100000000000000000000000000000000000000000000000000000000600052601260045260246000fd5b7f4e487b7100000000000000000000000000000000000000000000000000000000600052602260045260246000fd5b6000601f19601f8301169050919050565b7f42455032303a207472616e736665722066726f6d20746865207a65726f20616460008201527f6472657373000000000000000000000000000000000000000000000000000000602082015250565b7f42455032303a20617070726f76652066726f6d20746865207a65726f2061646460008201527f7265737300000000000000000000000000000000000000000000000000000000602082015250565b7f4f776e61626c653a206e6577206f776e657220697320746865207a65726f206160008201527f6464726573730000000000000000000000000000000000000000000000000000602082015250565b7f43414b453a3a64656c656761746542795369673a207369676e6174757265206560008201527f7870697265640000000000000000000000000000000000000000000000000000602082015250565b7f1901000000000000000000000000000000000000000000000000000000000000600082015250565b7f536166654d6174683a206164646974696f6e206f766572666c6f770000000000600082015250565b7f43414b453a3a64656c656761746542795369673a20696e76616c69642073696760008201527f6e61747572650000000000000000000000000000000000000000000000000000602082015250565b7f42455032303a206d696e7420746f20746865207a65726f206164647265737300600082015250565b7f4f776e61626c653a2063616c6c6572206973206e6f7420746865206f776e6572600082015250565b7f43414b453a3a6765745072696f72566f7465733a206e6f74207965742064657460008201527f65726d696e656400000000000000000000000000000000000000000000000000602082015250565b7f43414b453a3a64656c656761746542795369673a20696e76616c6964206e6f6e60008201527f6365000000000000000000000000000000000000000000000000000000000000602082015250565b7f42455032303a207472616e7366657220746f20746865207a65726f206164647260008201527f6573730000000000000000000000000000000000000000000000000000000000602082015250565b7f42455032303a206275726e2066726f6d20746865207a65726f2061646472657360008201527f7300000000000000000000000000000000000000000000000000000000000000602082015250565b7f42455032303a20617070726f766520746f20746865207a65726f20616464726560008201527f7373000000000000000000000000000000000000000000000000000000000000602082015250565b613b89816135dd565b8114613b9457600080fd5b50565b613ba0816135ef565b8114613bab57600080fd5b50565b613bb7816135fb565b8114613bc257600080fd5b50565b613bce81613625565b8114613bd957600080fd5b50565b613be58161362f565b8114613bf057600080fd5b50565b613bfc8161363f565b8114613c0757600080fd5b5056fe42455032303a207472616e7366657220616d6f756e74206578636565647320616c6c6f77616e636543414b453a3a5f7772697465436865636b706f696e743a20626c6f636b206e756d6265722065786365656473203332206269747342455032303a207472616e7366657220616d6f756e7420657863656564732062616c616e636542455032303a2064656372656173656420616c6c6f77616e63652062656c6f77207a65726f42455032303a206275726e20616d6f756e7420657863656564732062616c616e6365a2646970667358221220097db0fe80a3851c47ec95b71f0d4181c33db63198271fc59c2a22788e40d0f964736f6c63430008040033",
  "linkReferences": {},
  "deployedLinkReferences": {}
}