{
  "_format": "hh-sol-artifact-1",
  "contractName": "Oracle",
  "sourceName": "contracts/farm/Oracle.sol",
  "abi": [
    {
      "inputs": [
        {
          "internalType": "address",
          "name": "factory_",
          "type": "address"
        }
      ],
      "stateMutability": "nonpayable",
      "type": "constructor"
    },
    {
      "inputs": [],
      "name": "CYCLE",
      "outputs": [
        {
          "internalType": "uint256",
          "name": "",
          "type": "uint256"
        }
      ],
      "stateMutability": "view",
      "type": "function"
    },
    {
      "inputs": [
        {
          "internalType": "address",
          "name": "tokenIn",
          "type": "address"
        },
        {
          "internalType": "uint256",
          "name": "amountIn",
          "type": "uint256"
        },
        {
          "internalType": "address",
          "name": "tokenOut",
          "type": "address"
        }
      ],
      "name": "consult",
      "outputs": [
        {
          "internalType": "uint256",
          "name": "amountOut",
          "type": "uint256"
        }
      ],
      "stateMutability": "view",
      "type": "function"
    },
    {
      "inputs": [],
      "name": "factory",
      "outputs": [
        {
          "internalType": "address",
          "name": "",
          "type": "address"
        }
      ],
      "stateMutability": "view",
      "type": "function"
    },
    {
      "inputs": [
        {
          "internalType": "address",
          "name": "",
          "type": "address"
        }
      ],
      "name": "pairObservations",
      "outputs": [
        {
          "internalType": "uint256",
          "name": "timestamp",
          "type": "uint256"
        },
        {
          "internalType": "uint256",
          "name": "price0Cumulative",
          "type": "uint256"
        },
        {
          "internalType": "uint256",
          "name": "price1Cumulative",
          "type": "uint256"
        }
      ],
      "stateMutability": "view",
      "type": "function"
    },
    {
      "inputs": [
        {
          "internalType": "address",
          "name": "tokenA",
          "type": "address"
        },
        {
          "internalType": "address",
          "name": "tokenB",
          "type": "address"
        }
      ],
      "name": "update",
      "outputs": [],
      "stateMutability": "nonpayable",
      "type": "function"
    }
  ],
  "bytecode": "0x60a06040523480156200001157600080fd5b50604051620014ef380380620014ef83398181016040528101906200003791906200008c565b8073ffffffffffffffffffffffffffffffffffffffff1660808173ffffffffffffffffffffffffffffffffffffffff1660601b815250505062000106565b6000815190506200008681620000ec565b92915050565b6000602082840312156200009f57600080fd5b6000620000af8482850162000075565b91505092915050565b6000620000c582620000cc565b9050919050565b600073ffffffffffffffffffffffffffffffffffffffff82169050919050565b620000f781620000b8565b81146200010357600080fd5b50565b60805160601c6113b56200013a60003960008181610145015281816102df0152818161031b01526103e901526113b56000f3fe608060405234801561001057600080fd5b50600436106100575760003560e01c8063402e1abf1461005c5780638c86f1e41461008e5780639e8d48d0146100be578063c45a0155146100dc578063c640752d146100fa575b600080fd5b61007660048036038101906100719190610c0a565b610116565b60405161008593929190610f2b565b60405180910390f35b6100a860048036038101906100a39190610c98565b610140565b6040516100b59190610f10565b60405180910390f35b6100c66102d7565b6040516100d39190610f10565b60405180910390f35b6100e46102dd565b6040516100f19190610e2c565b60405180910390f35b610114600480360381019061010f9190610c5c565b610301565b005b60006020528060005260406000206000915090508060000154908060010154908060020154905083565b6000807f000000000000000000000000000000000000000000000000000000000000000073ffffffffffffffffffffffffffffffffffffffff166368942ce486856040518363ffffffff1660e01b815260040161019e929190610e47565b60206040518083038186803b1580156101b657600080fd5b505afa1580156101ca573d6000803e3d6000fd5b505050506040513d601f19601f820116820180604052508101906101ee9190610c33565b905060008060008373ffffffffffffffffffffffffffffffffffffffff1673ffffffffffffffffffffffffffffffffffffffff168152602001908152602001600020905060008160000154426102449190611085565b905060008061025285610565565b509150915060006102638a896107c0565b5090508973ffffffffffffffffffffffffffffffffffffffff168173ffffffffffffffffffffffffffffffffffffffff1614156102b7576102aa856001015484868c6108ee565b96505050505050506102d0565b6102c7856002015483868c6108ee565b96505050505050505b9392505050565b61070881565b7f000000000000000000000000000000000000000000000000000000000000000081565b600073ffffffffffffffffffffffffffffffffffffffff167f000000000000000000000000000000000000000000000000000000000000000073ffffffffffffffffffffffffffffffffffffffff1663e6a4390584846040518363ffffffff1660e01b8152600401610374929190610e47565b60206040518083038186803b15801561038c57600080fd5b505afa1580156103a0573d6000803e3d6000fd5b505050506040513d601f19601f820116820180604052508101906103c49190610c33565b73ffffffffffffffffffffffffffffffffffffffff1614156103e557610561565b60007f000000000000000000000000000000000000000000000000000000000000000073ffffffffffffffffffffffffffffffffffffffff166368942ce484846040518363ffffffff1660e01b8152600401610442929190610e47565b60206040518083038186803b15801561045a57600080fd5b505afa15801561046e573d6000803e3d6000fd5b505050506040513d601f19601f820116820180604052508101906104929190610c33565b905060008060008373ffffffffffffffffffffffffffffffffffffffff1673ffffffffffffffffffffffffffffffffffffffff168152602001908152602001600020905060008160000154426104e89190611085565b905061070881101561052f576040517f08c379a000000000000000000000000000000000000000000000000000000000815260040161052690610e90565b60405180910390fd5b60008061053b85610565565b509150915042846000018190555081846001018190555080846002018190555050505050505b5050565b6000806000610572610970565b90508373ffffffffffffffffffffffffffffffffffffffff16635909c0d56040518163ffffffff1660e01b815260040160206040518083038186803b1580156105ba57600080fd5b505afa1580156105ce573d6000803e3d6000fd5b505050506040513d601f19601f820116820180604052508101906105f29190610d36565b92508373ffffffffffffffffffffffffffffffffffffffff16635a3d54936040518163ffffffff1660e01b815260040160206040518083038186803b15801561063a57600080fd5b505afa15801561064e573d6000803e3d6000fd5b505050506040513d601f19601f820116820180604052508101906106729190610d36565b915060008060008673ffffffffffffffffffffffffffffffffffffffff16630902f1ac6040518163ffffffff1660e01b815260040160606040518083038186803b1580156106bf57600080fd5b505afa1580156106d3573d6000803e3d6000fd5b505050506040513d601f19601f820116820180604052508101906106f79190610ce7565b9250925092508363ffffffff168163ffffffff16146107b6576000818561071e91906110b9565b90508063ffffffff166107318486610988565b600001517bffffffffffffffffffffffffffffffffffffffffffffffffffffffff1661075d919061102b565b876107689190610f73565b96508063ffffffff1661077b8585610988565b600001517bffffffffffffffffffffffffffffffffffffffffffffffffffffffff166107a7919061102b565b866107b29190610f73565b9550505b5050509193909250565b6000808273ffffffffffffffffffffffffffffffffffffffff168473ffffffffffffffffffffffffffffffffffffffff161415610832576040517f08c379a000000000000000000000000000000000000000000000000000000000815260040161082990610eb0565b60405180910390fd5b8273ffffffffffffffffffffffffffffffffffffffff168473ffffffffffffffffffffffffffffffffffffffff161061086c57828461086f565b83835b8092508193505050600073ffffffffffffffffffffffffffffffffffffffff168273ffffffffffffffffffffffffffffffffffffffff1614156108e7576040517f08c379a00000000000000000000000000000000000000000000000000000000081526004016108de90610e70565b60405180910390fd5b9250929050565b60008060405180602001604052808588886109099190611085565b6109139190610ffa565b7bffffffffffffffffffffffffffffffffffffffffffffffffffffffff16815250905061095161094c8483610a6890919063ffffffff16565b610b33565b71ffffffffffffffffffffffffffffffffffff16915050949350505050565b600064010000000042610983919061117b565b905090565b610990610b48565b6000826dffffffffffffffffffffffffffff16116109e3576040517f08c379a00000000000000000000000000000000000000000000000000000000081526004016109da90610ef0565b60405180910390fd5b6040518060200160405280836dffffffffffffffffffffffffffff16607060ff16866dffffffffffffffffffffffffffff167bffffffffffffffffffffffffffffffffffffffffffffffffffffffff16901b610a3f9190610fc9565b7bffffffffffffffffffffffffffffffffffffffffffffffffffffffff16815250905092915050565b610a70610b79565b600080831480610adc575083600001517bffffffffffffffffffffffffffffffffffffffffffffffffffffffff16838486600001517bffffffffffffffffffffffffffffffffffffffffffffffffffffffff16610acd919061102b565b925082610ada9190610ffa565b145b610b1b576040517f08c379a0000000000000000000000000000000000000000000000000000000008152600401610b1290610ed0565b60405180910390fd5b60405180602001604052808281525091505092915050565b6000607060ff168260000151901c9050919050565b604051806020016040528060007bffffffffffffffffffffffffffffffffffffffffffffffffffffffff1681525090565b6040518060200160405280600081525090565b600081359050610b9b81611323565b92915050565b600081519050610bb081611323565b92915050565b600081519050610bc58161133a565b92915050565b600081359050610bda81611351565b92915050565b600081519050610bef81611351565b92915050565b600081519050610c0481611368565b92915050565b600060208284031215610c1c57600080fd5b6000610c2a84828501610b8c565b91505092915050565b600060208284031215610c4557600080fd5b6000610c5384828501610ba1565b91505092915050565b60008060408385031215610c6f57600080fd5b6000610c7d85828601610b8c565b9250506020610c8e85828601610b8c565b9150509250929050565b600080600060608486031215610cad57600080fd5b6000610cbb86828701610b8c565b9350506020610ccc86828701610bcb565b9250506040610cdd86828701610b8c565b9150509250925092565b600080600060608486031215610cfc57600080fd5b6000610d0a86828701610bb6565b9350506020610d1b86828701610bb6565b9250506040610d2c86828701610bf5565b9150509250925092565b600060208284031215610d4857600080fd5b6000610d5684828501610be0565b91505092915050565b610d68816110ed565b82525050565b6000610d7b601a83610f62565b9150610d868261120a565b602082019050919050565b6000610d9e601e83610f62565b9150610da982611233565b602082019050919050565b6000610dc1602183610f62565b9150610dcc8261125c565b604082019050919050565b6000610de4602383610f62565b9150610def826112ab565b604082019050919050565b6000610e07601783610f62565b9150610e12826112fa565b602082019050919050565b610e2681611161565b82525050565b6000602082019050610e416000830184610d5f565b92915050565b6000604082019050610e5c6000830185610d5f565b610e696020830184610d5f565b9392505050565b60006020820190508181036000830152610e8981610d6e565b9050919050565b60006020820190508181036000830152610ea981610d91565b9050919050565b60006020820190508181036000830152610ec981610db4565b9050919050565b60006020820190508181036000830152610ee981610dd7565b9050919050565b60006020820190508181036000830152610f0981610dfa565b9050919050565b6000602082019050610f256000830184610e1d565b92915050565b6000606082019050610f406000830186610e1d565b610f4d6020830185610e1d565b610f5a6040830184610e1d565b949350505050565b600082825260208201905092915050565b6000610f7e82611161565b9150610f8983611161565b9250827fffffffffffffffffffffffffffffffffffffffffffffffffffffffffffffffff03821115610fbe57610fbd6111ac565b5b828201905092915050565b6000610fd482611139565b9150610fdf83611139565b925082610fef57610fee6111db565b5b828204905092915050565b600061100582611161565b915061101083611161565b9250826110205761101f6111db565b5b828204905092915050565b600061103682611161565b915061104183611161565b9250817fffffffffffffffffffffffffffffffffffffffffffffffffffffffffffffffff048311821515161561107a576110796111ac565b5b828202905092915050565b600061109082611161565b915061109b83611161565b9250828210156110ae576110ad6111ac565b5b828203905092915050565b60006110c48261116b565b91506110cf8361116b565b9250828210156110e2576110e16111ac565b5b828203905092915050565b60006110f882611119565b9050919050565b60006dffffffffffffffffffffffffffff82169050919050565b600073ffffffffffffffffffffffffffffffffffffffff82169050919050565b60007bffffffffffffffffffffffffffffffffffffffffffffffffffffffff82169050919050565b6000819050919050565b600063ffffffff82169050919050565b600061118682611161565b915061119183611161565b9250826111a1576111a06111db565b5b828206905092915050565b7f4e487b7100000000000000000000000000000000000000000000000000000000600052601160045260246000fd5b7f4e487b7100000000000000000000000000000000000000000000000000000000600052601260045260246000fd5b7f436169726f4c6962726172793a205a45524f5f41444452455353000000000000600082015250565b7f4d4445584f7261636c653a20504552494f445f4e4f545f454c41505345440000600082015250565b7f436169726f4c6962726172793a204944454e544943414c5f414444524553534560008201527f5300000000000000000000000000000000000000000000000000000000000000602082015250565b7f4669786564506f696e743a204d554c5449504c49434154494f4e5f4f5645524660008201527f4c4f570000000000000000000000000000000000000000000000000000000000602082015250565b7f4669786564506f696e743a204449565f42595f5a45524f000000000000000000600082015250565b61132c816110ed565b811461133757600080fd5b50565b611343816110ff565b811461134e57600080fd5b50565b61135a81611161565b811461136557600080fd5b50565b6113718161116b565b811461137c57600080fd5b5056fea2646970667358221220b81fdf7688f469f4de9dd0257823e10335fc44966832be02759f35776c7998d364736f6c63430008040033",
  "linkReferences": {},
  "deployedLinkReferences": {}
}