{
  "_format": "hh-sol-artifact-1",
  "contractName": "Oracle",
  "sourceName": "contracts/farm/Oracle.sol",
  "abi": [
    {
      "inputs": [
        {
          "internalType": "address",
          "name": "factory_",
          "type": "address"
        }
      ],
      "stateMutability": "nonpayable",
      "type": "constructor"
    },
    {
      "inputs": [],
      "name": "CYCLE",
      "outputs": [
        {
          "internalType": "uint256",
          "name": "",
          "type": "uint256"
        }
      ],
      "stateMutability": "view",
      "type": "function"
    },
    {
      "inputs": [
        {
          "internalType": "address",
          "name": "tokenIn",
          "type": "address"
        },
        {
          "internalType": "uint256",
          "name": "amountIn",
          "type": "uint256"
        },
        {
          "internalType": "address",
          "name": "tokenOut",
          "type": "address"
        }
      ],
      "name": "consult",
      "outputs": [
        {
          "internalType": "uint256",
          "name": "amountOut",
          "type": "uint256"
        }
      ],
      "stateMutability": "view",
      "type": "function"
    },
    {
      "inputs": [],
      "name": "factory",
      "outputs": [
        {
          "internalType": "address",
          "name": "",
          "type": "address"
        }
      ],
      "stateMutability": "view",
      "type": "function"
    },
    {
      "inputs": [
        {
          "internalType": "address",
          "name": "",
          "type": "address"
        }
      ],
      "name": "pairObservations",
      "outputs": [
        {
          "internalType": "uint256",
          "name": "timestamp",
          "type": "uint256"
        },
        {
          "internalType": "uint256",
          "name": "price0Cumulative",
          "type": "uint256"
        },
        {
          "internalType": "uint256",
          "name": "price1Cumulative",
          "type": "uint256"
        }
      ],
      "stateMutability": "view",
      "type": "function"
    },
    {
      "inputs": [
        {
          "internalType": "address",
          "name": "tokenA",
          "type": "address"
        },
        {
          "internalType": "address",
          "name": "tokenB",
          "type": "address"
        }
      ],
      "name": "update",
      "outputs": [],
      "stateMutability": "nonpayable",
      "type": "function"
    }
  ],
  "bytecode": "0x60a060405234801561001057600080fd5b50604051610c3f380380610c3f83398101604081905261002f91610044565b60601b6001600160601b031916608052610072565b600060208284031215610055578081fd5b81516001600160a01b038116811461006b578182fd5b9392505050565b60805160601c610b9b6100a46000396000818160da0152818161015501528181610291015261034a0152610b9b6000f3fe608060405234801561001057600080fd5b50600436106100575760003560e01c8063402e1abf1461005c5780638c86f1e4146100ab5780639e8d48d0146100cc578063c45a0155146100d5578063c640752d14610114575b600080fd5b61008b61006a366004610954565b60006020819052908152604090208054600182015460029092015490919083565b604080519384526020840192909252908201526060015b60405180910390f35b6100be6100b93660046109c4565b610129565b6040519081526020016100a2565b6100be61070881565b6100fc7f000000000000000000000000000000000000000000000000000000000000000081565b6040516001600160a01b0390911681526020016100a2565b61012761012236600461098c565b610267565b005b604051631a250b3960e21b81526001600160a01b038481166004830152828116602483015260009182917f000000000000000000000000000000000000000000000000000000000000000016906368942ce49060440160206040518083038186803b15801561019757600080fd5b505afa1580156101ab573d6000803e3d6000fd5b505050506040513d601f19601f820116820180604052508101906101cf9190610970565b6001600160a01b03811660009081526020819052604081208054929350916101f79042610ad1565b905060008061020585610470565b509150915060006102168a89610670565b509050896001600160a01b0316816001600160a01b0316141561025057610243856001015484868c610764565b9650505050505050610260565b610243856002015483868c610764565b9392505050565b60405163e6a4390560e01b81526001600160a01b03838116600483015282811660248301526000917f00000000000000000000000000000000000000000000000000000000000000009091169063e6a439059060440160206040518083038186803b1580156102d557600080fd5b505afa1580156102e9573d6000803e3d6000fd5b505050506040513d601f19601f8201168201806040525081019061030d9190610970565b6001600160a01b03161415610320575050565b604051631a250b3960e21b81526001600160a01b03838116600483015282811660248301526000917f0000000000000000000000000000000000000000000000000000000000000000909116906368942ce49060440160206040518083038186803b15801561038e57600080fd5b505afa1580156103a2573d6000803e3d6000fd5b505050506040513d601f19601f820116820180604052508101906103c69190610970565b6001600160a01b03811660009081526020819052604081208054929350916103ee9042610ad1565b90506107088110156104475760405162461bcd60e51b815260206004820152601e60248201527f4d4445584f7261636c653a20504552494f445f4e4f545f454c4150534544000060448201526064015b60405180910390fd5b60008061045385610470565b504286556001860191909155600290940193909355505050505050565b600080600061047d6107c8565b9050836001600160a01b0316635909c0d56040518163ffffffff1660e01b815260040160206040518083038186803b1580156104b857600080fd5b505afa1580156104cc573d6000803e3d6000fd5b505050506040513d601f19601f820116820180604052508101906104f09190610a48565b9250836001600160a01b0316635a3d54936040518163ffffffff1660e01b815260040160206040518083038186803b15801561052b57600080fd5b505afa15801561053f573d6000803e3d6000fd5b505050506040513d601f19601f820116820180604052508101906105639190610a48565b91506000806000866001600160a01b0316630902f1ac6040518163ffffffff1660e01b815260040160606040518083038186803b1580156105a357600080fd5b505afa1580156105b7573d6000803e3d6000fd5b505050506040513d601f19601f820116820180604052508101906105db9190610a05565b9250925092508363ffffffff168163ffffffff16146106665760006106008286610ae8565b90508063ffffffff1661061384866107de565b5161062791906001600160e01b0316610ab2565b6106319088610a60565b96508063ffffffff1661064485856107de565b5161065891906001600160e01b0316610ab2565b6106629087610a60565b9550505b5050509193909250565b600080826001600160a01b0316846001600160a01b031614156106df5760405162461bcd60e51b815260206004820152602160248201527f436169726f4c6962726172793a204944454e544943414c5f41444452455353456044820152605360f81b606482015260840161043e565b826001600160a01b0316846001600160a01b0316106106ff578284610702565b83835b90925090506001600160a01b03821661075d5760405162461bcd60e51b815260206004820152601a60248201527f436169726f4c6962726172793a205a45524f5f41444452455353000000000000604482015260640161043e565b9250929050565b600080604051806020016040528085888861077f9190610ad1565b6107899190610a9e565b6001600160e01b0316905290506107aa6107a3828561088e565b5160701c90565b71ffffffffffffffffffffffffffffffffffff169695505050505050565b60006107d964010000000042610b0d565b905090565b6040805160208101909152600081526000826001600160701b0316116108465760405162461bcd60e51b815260206004820152601760248201527f4669786564506f696e743a204449565f42595f5a45524f000000000000000000604482015260640161043e565b60408051602081019091528061087c6001600160701b0385166dffffffffffffffffffffffffffff60701b607088901b16610a78565b6001600160e01b031690529392505050565b60408051602081019091526000815260008215806108cb575083516001600160e01b0316836108bd8183610ab2565b92506108c99083610a9e565b145b6109235760405162461bcd60e51b815260206004820152602360248201527f4669786564506f696e743a204d554c5449504c49434154494f4e5f4f564552466044820152624c4f5760e81b606482015260840161043e565b60408051602081019091529081529392505050565b80516001600160701b038116811461094f57600080fd5b919050565b600060208284031215610965578081fd5b813561026081610b4d565b600060208284031215610981578081fd5b815161026081610b4d565b6000806040838503121561099e578081fd5b82356109a981610b4d565b915060208301356109b981610b4d565b809150509250929050565b6000806000606084860312156109d8578081fd5b83356109e381610b4d565b92506020840135915060408401356109fa81610b4d565b809150509250925092565b600080600060608486031215610a19578283fd5b610a2284610938565b9250610a3060208501610938565b9150604084015163ffffffff811681146109fa578182fd5b600060208284031215610a59578081fd5b5051919050565b60008219821115610a7357610a73610b21565b500190565b60006001600160e01b0383811680610a9257610a92610b37565b92169190910492915050565b600082610aad57610aad610b37565b500490565b6000816000190483118215151615610acc57610acc610b21565b500290565b600082821015610ae357610ae3610b21565b500390565b600063ffffffff83811690831681811015610b0557610b05610b21565b039392505050565b600082610b1c57610b1c610b37565b500690565b634e487b7160e01b600052601160045260246000fd5b634e487b7160e01b600052601260045260246000fd5b6001600160a01b0381168114610b6257600080fd5b5056fea26469706673582212207c700f7044b952e142706b0c5a8893f8a93a731772b0155d4467f7a665eb885e64736f6c63430008040033",
  "linkReferences": {},
  "deployedLinkReferences": {}
}