{
  "_format": "hh-sol-artifact-1",
  "contractName": "vCAIROToken",
  "sourceName": "contracts/token/VCairoToken.sol",
  "abi": [
    {
      "inputs": [
        {
          "internalType": "address",
          "name": "cairoToken",
          "type": "address"
        },
        {
          "internalType": "address",
          "name": "cairoTeam",
          "type": "address"
        },
        {
          "internalType": "address",
          "name": "cairoReserve",
          "type": "address"
        },
        {
          "internalType": "address",
          "name": "cairoTreasury",
          "type": "address"
        }
      ],
      "stateMutability": "nonpayable",
      "type": "constructor"
    },
    {
      "anonymous": false,
      "inputs": [
        {
          "indexed": true,
          "internalType": "address",
          "name": "owner",
          "type": "address"
        },
        {
          "indexed": true,
          "internalType": "address",
          "name": "spender",
          "type": "address"
        },
        {
          "indexed": false,
          "internalType": "uint256",
          "name": "amount",
          "type": "uint256"
        }
      ],
      "name": "Approval",
      "type": "event"
    },
    {
      "anonymous": false,
      "inputs": [
        {
          "indexed": false,
          "internalType": "uint256",
          "name": "cairoPerBlock",
          "type": "uint256"
        }
      ],
      "name": "ChangePerReward",
      "type": "event"
    },
    {
      "anonymous": false,
      "inputs": [
        {
          "indexed": false,
          "internalType": "address",
          "name": "user",
          "type": "address"
        },
        {
          "indexed": false,
          "internalType": "uint128",
          "name": "stakingPower",
          "type": "uint128"
        },
        {
          "indexed": false,
          "internalType": "uint128",
          "name": "superiorSP",
          "type": "uint128"
        },
        {
          "indexed": false,
          "internalType": "address",
          "name": "superior",
          "type": "address"
        },
        {
          "indexed": false,
          "internalType": "uint256",
          "name": "credit",
          "type": "uint256"
        },
        {
          "indexed": false,
          "internalType": "uint256",
          "name": "creditDebt",
          "type": "uint256"
        }
      ],
      "name": "CurrentUserInfo",
      "type": "event"
    },
    {
      "anonymous": false,
      "inputs": [
        {
          "indexed": false,
          "internalType": "address",
          "name": "user",
          "type": "address"
        },
        {
          "indexed": false,
          "internalType": "uint256",
          "name": "donateCAIRO",
          "type": "uint256"
        }
      ],
      "name": "DonateCAIRO",
      "type": "event"
    },
    {
      "anonymous": false,
      "inputs": [
        {
          "indexed": false,
          "internalType": "address",
          "name": "user",
          "type": "address"
        },
        {
          "indexed": false,
          "internalType": "address",
          "name": "superior",
          "type": "address"
        },
        {
          "indexed": false,
          "internalType": "uint256",
          "name": "mintCAIRO",
          "type": "uint256"
        },
        {
          "indexed": false,
          "internalType": "uint256",
          "name": "totalStakingPower",
          "type": "uint256"
        }
      ],
      "name": "MintVCAIRO",
      "type": "event"
    },
    {
      "anonymous": false,
      "inputs": [
        {
          "indexed": true,
          "internalType": "address",
          "name": "previousOwner",
          "type": "address"
        },
        {
          "indexed": true,
          "internalType": "address",
          "name": "newOwner",
          "type": "address"
        }
      ],
      "name": "OwnershipTransferred",
      "type": "event"
    },
    {
      "anonymous": false,
      "inputs": [
        {
          "indexed": false,
          "internalType": "uint256",
          "name": "cairoAmount",
          "type": "uint256"
        }
      ],
      "name": "PreDeposit",
      "type": "event"
    },
    {
      "anonymous": false,
      "inputs": [
        {
          "indexed": false,
          "internalType": "address",
          "name": "user",
          "type": "address"
        },
        {
          "indexed": false,
          "internalType": "uint256",
          "name": "receiveCAIRO",
          "type": "uint256"
        },
        {
          "indexed": false,
          "internalType": "uint256",
          "name": "burnCAIRO",
          "type": "uint256"
        },
        {
          "indexed": false,
          "internalType": "uint256",
          "name": "feeCAIRO",
          "type": "uint256"
        },
        {
          "indexed": false,
          "internalType": "uint256",
          "name": "reserveCAIRO",
          "type": "uint256"
        },
        {
          "indexed": false,
          "internalType": "uint256",
          "name": "totalStakingPower",
          "type": "uint256"
        }
      ],
      "name": "RedeemVCAIRO",
      "type": "event"
    },
    {
      "anonymous": false,
      "inputs": [
        {
          "indexed": false,
          "internalType": "bool",
          "name": "allowed",
          "type": "bool"
        }
      ],
      "name": "SetCanTransfer",
      "type": "event"
    },
    {
      "anonymous": false,
      "inputs": [
        {
          "indexed": false,
          "internalType": "uint256",
          "name": "cairoTokenSupply",
          "type": "uint256"
        },
        {
          "indexed": false,
          "internalType": "uint256",
          "name": "cairoBalanceInVCairo",
          "type": "uint256"
        }
      ],
      "name": "TokenInfo",
      "type": "event"
    },
    {
      "anonymous": false,
      "inputs": [
        {
          "indexed": true,
          "internalType": "address",
          "name": "from",
          "type": "address"
        },
        {
          "indexed": true,
          "internalType": "address",
          "name": "to",
          "type": "address"
        },
        {
          "indexed": false,
          "internalType": "uint256",
          "name": "amount",
          "type": "uint256"
        }
      ],
      "name": "Transfer",
      "type": "event"
    },
    {
      "anonymous": false,
      "inputs": [
        {
          "indexed": false,
          "internalType": "uint256",
          "name": "cairoFeeBurnRatio",
          "type": "uint256"
        }
      ],
      "name": "UpdateCAIROFeeBurnRatio",
      "type": "event"
    },
    {
      "inputs": [],
      "name": "_cairoFeeBurnRatio",
      "outputs": [
        {
          "internalType": "uint256",
          "name": "",
          "type": "uint256"
        }
      ],
      "stateMutability": "view",
      "type": "function"
    },
    {
      "inputs": [],
      "name": "_cairoFeeReserveRatio",
      "outputs": [
        {
          "internalType": "uint256",
          "name": "",
          "type": "uint256"
        }
      ],
      "stateMutability": "view",
      "type": "function"
    },
    {
      "inputs": [],
      "name": "_cairoPerBlock",
      "outputs": [
        {
          "internalType": "uint256",
          "name": "",
          "type": "uint256"
        }
      ],
      "stateMutability": "view",
      "type": "function"
    },
    {
      "inputs": [],
      "name": "_cairoRatio",
      "outputs": [
        {
          "internalType": "uint256",
          "name": "",
          "type": "uint256"
        }
      ],
      "stateMutability": "view",
      "type": "function"
    },
    {
      "inputs": [],
      "name": "_cairoReserve",
      "outputs": [
        {
          "internalType": "address",
          "name": "",
          "type": "address"
        }
      ],
      "stateMutability": "view",
      "type": "function"
    },
    {
      "inputs": [],
      "name": "_cairoTeam",
      "outputs": [
        {
          "internalType": "address",
          "name": "",
          "type": "address"
        }
      ],
      "stateMutability": "view",
      "type": "function"
    },
    {
      "inputs": [],
      "name": "_cairoToken",
      "outputs": [
        {
          "internalType": "address",
          "name": "",
          "type": "address"
        }
      ],
      "stateMutability": "view",
      "type": "function"
    },
    {
      "inputs": [],
      "name": "_cairoTreasury",
      "outputs": [
        {
          "internalType": "address",
          "name": "",
          "type": "address"
        }
      ],
      "stateMutability": "view",
      "type": "function"
    },
    {
      "inputs": [],
      "name": "_canTransfer",
      "outputs": [
        {
          "internalType": "bool",
          "name": "",
          "type": "bool"
        }
      ],
      "stateMutability": "view",
      "type": "function"
    },
    {
      "inputs": [],
      "name": "_feeRatio",
      "outputs": [
        {
          "internalType": "uint256",
          "name": "",
          "type": "uint256"
        }
      ],
      "stateMutability": "view",
      "type": "function"
    },
    {
      "inputs": [],
      "name": "_lastRewardBlock",
      "outputs": [
        {
          "internalType": "uint32",
          "name": "",
          "type": "uint32"
        }
      ],
      "stateMutability": "view",
      "type": "function"
    },
    {
      "inputs": [],
      "name": "_superiorMinCAIRO",
      "outputs": [
        {
          "internalType": "uint256",
          "name": "",
          "type": "uint256"
        }
      ],
      "stateMutability": "view",
      "type": "function"
    },
    {
      "inputs": [],
      "name": "_superiorRatio",
      "outputs": [
        {
          "internalType": "uint256",
          "name": "",
          "type": "uint256"
        }
      ],
      "stateMutability": "view",
      "type": "function"
    },
    {
      "inputs": [],
      "name": "_totalBlockDistribution",
      "outputs": [
        {
          "internalType": "uint112",
          "name": "",
          "type": "uint112"
        }
      ],
      "stateMutability": "view",
      "type": "function"
    },
    {
      "inputs": [],
      "name": "_totalBlockReward",
      "outputs": [
        {
          "internalType": "uint256",
          "name": "",
          "type": "uint256"
        }
      ],
      "stateMutability": "view",
      "type": "function"
    },
    {
      "inputs": [],
      "name": "_totalStakingPower",
      "outputs": [
        {
          "internalType": "uint256",
          "name": "",
          "type": "uint256"
        }
      ],
      "stateMutability": "view",
      "type": "function"
    },
    {
      "inputs": [
        {
          "internalType": "address",
          "name": "owner",
          "type": "address"
        },
        {
          "internalType": "address",
          "name": "spender",
          "type": "address"
        }
      ],
      "name": "allowance",
      "outputs": [
        {
          "internalType": "uint256",
          "name": "",
          "type": "uint256"
        }
      ],
      "stateMutability": "view",
      "type": "function"
    },
    {
      "inputs": [],
      "name": "alpha",
      "outputs": [
        {
          "internalType": "uint112",
          "name": "",
          "type": "uint112"
        }
      ],
      "stateMutability": "view",
      "type": "function"
    },
    {
      "inputs": [
        {
          "internalType": "address",
          "name": "spender",
          "type": "address"
        },
        {
          "internalType": "uint256",
          "name": "vCairoAmount",
          "type": "uint256"
        }
      ],
      "name": "approve",
      "outputs": [
        {
          "internalType": "bool",
          "name": "",
          "type": "bool"
        }
      ],
      "stateMutability": "nonpayable",
      "type": "function"
    },
    {
      "inputs": [
        {
          "internalType": "address",
          "name": "account",
          "type": "address"
        }
      ],
      "name": "availableBalanceOf",
      "outputs": [
        {
          "internalType": "uint256",
          "name": "vCairoAmount",
          "type": "uint256"
        }
      ],
      "stateMutability": "view",
      "type": "function"
    },
    {
      "inputs": [
        {
          "internalType": "address",
          "name": "account",
          "type": "address"
        }
      ],
      "name": "balanceOf",
      "outputs": [
        {
          "internalType": "uint256",
          "name": "vCairoAmount",
          "type": "uint256"
        }
      ],
      "stateMutability": "view",
      "type": "function"
    },
    {
      "inputs": [
        {
          "internalType": "address",
          "name": "account",
          "type": "address"
        }
      ],
      "name": "cairoBalanceOf",
      "outputs": [
        {
          "internalType": "uint256",
          "name": "cairoAmount",
          "type": "uint256"
        }
      ],
      "stateMutability": "view",
      "type": "function"
    },
    {
      "inputs": [
        {
          "internalType": "uint256",
          "name": "cairoPerBlock",
          "type": "uint256"
        }
      ],
      "name": "changePerReward",
      "outputs": [],
      "stateMutability": "nonpayable",
      "type": "function"
    },
    {
      "inputs": [],
      "name": "decimals",
      "outputs": [
        {
          "internalType": "uint8",
          "name": "",
          "type": "uint8"
        }
      ],
      "stateMutability": "view",
      "type": "function"
    },
    {
      "inputs": [
        {
          "internalType": "uint256",
          "name": "cairoAmount",
          "type": "uint256"
        }
      ],
      "name": "donate",
      "outputs": [],
      "stateMutability": "nonpayable",
      "type": "function"
    },
    {
      "inputs": [],
      "name": "emergencyWithdraw",
      "outputs": [],
      "stateMutability": "nonpayable",
      "type": "function"
    },
    {
      "inputs": [],
      "name": "getLatestAlpha",
      "outputs": [
        {
          "internalType": "uint256",
          "name": "newAlpha",
          "type": "uint256"
        },
        {
          "internalType": "uint256",
          "name": "curDistribution",
          "type": "uint256"
        }
      ],
      "stateMutability": "view",
      "type": "function"
    },
    {
      "inputs": [
        {
          "internalType": "address",
          "name": "account",
          "type": "address"
        }
      ],
      "name": "getSuperior",
      "outputs": [
        {
          "internalType": "address",
          "name": "superior",
          "type": "address"
        }
      ],
      "stateMutability": "view",
      "type": "function"
    },
    {
      "inputs": [
        {
          "internalType": "uint256",
          "name": "cairoAmount",
          "type": "uint256"
        }
      ],
      "name": "getWithdrawResult",
      "outputs": [
        {
          "internalType": "uint256",
          "name": "cairoReceive",
          "type": "uint256"
        },
        {
          "internalType": "uint256",
          "name": "burnCairoAmount",
          "type": "uint256"
        },
        {
          "internalType": "uint256",
          "name": "withdrawFeeCairoAmount",
          "type": "uint256"
        },
        {
          "internalType": "uint256",
          "name": "reserveCairoAmount",
          "type": "uint256"
        }
      ],
      "stateMutability": "view",
      "type": "function"
    },
    {
      "inputs": [],
      "name": "hole",
      "outputs": [
        {
          "internalType": "address",
          "name": "",
          "type": "address"
        }
      ],
      "stateMutability": "view",
      "type": "function"
    },
    {
      "inputs": [
        {
          "internalType": "uint256",
          "name": "cairoAmount",
          "type": "uint256"
        },
        {
          "internalType": "address",
          "name": "superiorAddress",
          "type": "address"
        }
      ],
      "name": "mint",
      "outputs": [],
      "stateMutability": "nonpayable",
      "type": "function"
    },
    {
      "inputs": [],
      "name": "name",
      "outputs": [
        {
          "internalType": "string",
          "name": "",
          "type": "string"
        }
      ],
      "stateMutability": "view",
      "type": "function"
    },
    {
      "inputs": [],
      "name": "owner",
      "outputs": [
        {
          "internalType": "address",
          "name": "",
          "type": "address"
        }
      ],
      "stateMutability": "view",
      "type": "function"
    },
    {
      "inputs": [
        {
          "internalType": "uint256",
          "name": "vCairoAmount",
          "type": "uint256"
        },
        {
          "internalType": "bool",
          "name": "all",
          "type": "bool"
        }
      ],
      "name": "redeem",
      "outputs": [],
      "stateMutability": "nonpayable",
      "type": "function"
    },
    {
      "inputs": [],
      "name": "renounceOwnership",
      "outputs": [],
      "stateMutability": "nonpayable",
      "type": "function"
    },
    {
      "inputs": [
        {
          "internalType": "bool",
          "name": "allowed",
          "type": "bool"
        }
      ],
      "name": "setCanTransfer",
      "outputs": [],
      "stateMutability": "nonpayable",
      "type": "function"
    },
    {
      "inputs": [
        {
          "internalType": "uint256",
          "name": "ratioFee",
          "type": "uint256"
        }
      ],
      "name": "setRatioValue",
      "outputs": [],
      "stateMutability": "nonpayable",
      "type": "function"
    },
    {
      "inputs": [
        {
          "internalType": "uint256",
          "name": "val",
          "type": "uint256"
        }
      ],
      "name": "setSuperiorMinCAIRO",
      "outputs": [],
      "stateMutability": "nonpayable",
      "type": "function"
    },
    {
      "inputs": [],
      "name": "symbol",
      "outputs": [
        {
          "internalType": "string",
          "name": "",
          "type": "string"
        }
      ],
      "stateMutability": "view",
      "type": "function"
    },
    {
      "inputs": [],
      "name": "totalSupply",
      "outputs": [
        {
          "internalType": "uint256",
          "name": "vCairoSupply",
          "type": "uint256"
        }
      ],
      "stateMutability": "view",
      "type": "function"
    },
    {
      "inputs": [
        {
          "internalType": "address",
          "name": "to",
          "type": "address"
        },
        {
          "internalType": "uint256",
          "name": "vCairoAmount",
          "type": "uint256"
        }
      ],
      "name": "transfer",
      "outputs": [
        {
          "internalType": "bool",
          "name": "",
          "type": "bool"
        }
      ],
      "stateMutability": "nonpayable",
      "type": "function"
    },
    {
      "inputs": [
        {
          "internalType": "address",
          "name": "from",
          "type": "address"
        },
        {
          "internalType": "address",
          "name": "to",
          "type": "address"
        },
        {
          "internalType": "uint256",
          "name": "vCairoAmount",
          "type": "uint256"
        }
      ],
      "name": "transferFrom",
      "outputs": [
        {
          "internalType": "bool",
          "name": "",
          "type": "bool"
        }
      ],
      "stateMutability": "nonpayable",
      "type": "function"
    },
    {
      "inputs": [
        {
          "internalType": "address",
          "name": "newOwner",
          "type": "address"
        }
      ],
      "name": "transferOwnership",
      "outputs": [],
      "stateMutability": "nonpayable",
      "type": "function"
    },
    {
      "inputs": [
        {
          "internalType": "uint256",
          "name": "cairoFeeBurnRatio",
          "type": "uint256"
        }
      ],
      "name": "updateCAIROFeeBurnRatio",
      "outputs": [],
      "stateMutability": "nonpayable",
      "type": "function"
    },
    {
      "inputs": [
        {
          "internalType": "uint256",
          "name": "cairoFeeReserve",
          "type": "uint256"
        }
      ],
      "name": "updateCAIROFeeReserveRatio",
      "outputs": [],
      "stateMutability": "nonpayable",
      "type": "function"
    },
    {
      "inputs": [
        {
          "internalType": "address",
          "name": "newAddress",
          "type": "address"
        }
      ],
      "name": "updateReserveAddress",
      "outputs": [],
      "stateMutability": "nonpayable",
      "type": "function"
    },
    {
      "inputs": [
        {
          "internalType": "address",
          "name": "team",
          "type": "address"
        }
      ],
      "name": "updateTeamAddress",
      "outputs": [],
      "stateMutability": "nonpayable",
      "type": "function"
    },
    {
      "inputs": [
        {
          "internalType": "address",
          "name": "treasury",
          "type": "address"
        }
      ],
      "name": "updateTreasuryAddress",
      "outputs": [],
      "stateMutability": "nonpayable",
      "type": "function"
    },
    {
      "inputs": [
        {
          "internalType": "address",
          "name": "",
          "type": "address"
        }
      ],
      "name": "userInfo",
      "outputs": [
        {
          "internalType": "uint128",
          "name": "stakingPower",
          "type": "uint128"
        },
        {
          "internalType": "uint128",
          "name": "superiorSP",
          "type": "uint128"
        },
        {
          "internalType": "address",
          "name": "superior",
          "type": "address"
        },
        {
          "internalType": "uint256",
          "name": "credit",
          "type": "uint256"
        },
        {
          "internalType": "uint256",
          "name": "creditDebt",
          "type": "uint256"
        }
      ],
      "stateMutability": "view",
      "type": "function"
    }
  ],
  "bytecode": "0x60c0604052601760808190527f76434149524f204d656d6265727368697020546f6b656e00000000000000000060a0908152620000409160019190620008fb565b506040805180820190915260068082526576434149524f60d01b60209092019182526200007091600291620008fb565b506003805460ff19166012179055670429d069189e0000600a556702c68af0bb140000600b5567016345785d8a0000600c55600d80546001600160701b031916670de0b6b3a7640000179055683635c9adc5dea00000601155348015620000d657600080fd5b50604051620032db380380620032db833981016040819052620000f991620009be565b600080546001600160a01b031916339081178255604051909182917f8be0079c531659141344cd1fd0a4f28419497f9722a3daafe3b4186f6b6457e0908290a350600580546001600160a01b038087166001600160a01b0319928316179092556006805486841690831617905560078054858416908316179055600880549284169290911691909117905562000197671bc16d674ec80000620001a1565b5050505062000ba2565b6000546001600160a01b03163314620002015760405162461bcd60e51b815260206004820181905260248201527f4f776e61626c653a2063616c6c6572206973206e6f7420746865206f776e657260448201526064015b60405180910390fd5b6200020b6200025e565b600981905560055462000227906001600160a01b0316620003ea565b6040518181527feca81e4b546cfbc80883349ef5bdaca1c02dc7cb0bdb9e1183cb7698f90bbb85906020015b60405180910390a150565b6000806200026b62000511565b915091506000620002a9600d600e9054906101000a90046001600160701b03166001600160701b031683620005bf60201b6200165f1790919060201c565b90506001600160701b038311801590620002ca57506001600160701b038111155b620003035760405162461bcd60e51b81526020600482015260086024820152674f564552464c4f5760c01b6044820152606401620001f8565b600d805463ffffffff4316600160e01b026001600160e01b036001600160701b03858116600160701b026001600160e01b03199094169088161792909217919091161790558115620003e5576008546005546200037b916001600160a01b0391821691163085620005d4602090811b6200166b17901c565b6200039782600e54620005bf60201b6200165f1790919060201c565b600e55600554620003b1906001600160a01b0316620003ea565b6040518281527fdee982458f84113ac3e32d44595820a6fa60cfbe80a1bdd444c26599ee5b7dd59060200160405180910390a15b505050565b7f28534d0ab69d062225c304f03154079414ece8f1498298a0f76a84c1e225e86a816001600160a01b03166318160ddd6040518163ffffffff1660e01b815260040160206040518083038186803b1580156200044557600080fd5b505afa1580156200045a573d6000803e3d6000fd5b505050506040513d601f19601f8201168201806040525081019062000480919062000a3c565b6040516370a0823160e01b81523060048201526001600160a01b038416906370a082319060240160206040518083038186803b158015620004c057600080fd5b505afa158015620004d5573d6000803e3d6000fd5b505050506040513d601f19601f82011682018060405250810190620004fb919062000a3c565b6040805192835260208301919091520162000253565b600d546000908190600160e01b900463ffffffff16620005345750600062000562565b600d546200055090600160e01b900463ffffffff164362000b06565b6009546200055f919062000ae4565b90505b600f5415620005ad57620005a76200058882600f546200063a60201b620016dc1760201c565b600d546001600160701b031690620005bf602090811b6200165f17901c565b91509091565b600d546001600160701b031691509091565b6000620005cd828462000aa8565b9392505050565b604080516001600160a01b0385811660248301528416604482015260648082018490528251808303909101815260849091019091526020810180516001600160e01b039081166323b872dd60e01b17909152620006349186916200067716565b50505050565b6000620005cd8262000663670de0b6b3a7640000866200075560201b620016fa1790919060201c565b6200076360201b620017061790919060201c565b6000620006d3826040518060400160405280602081526020017f5361666545524332303a206c6f772d6c6576656c2063616c6c206661696c6564815250856001600160a01b03166200077160201b62001712179092919060201c565b805190915015620003e55780806020019051810190620006f4919062000a1a565b620003e55760405162461bcd60e51b815260206004820152602a60248201527f5361666545524332303a204552433230206f7065726174696f6e20646964206e6044820152691bdd081cdd58d8d9595960b21b6064820152608401620001f8565b6000620005cd828462000ae4565b6000620005cd828462000ac3565b60606200078284846000856200078a565b949350505050565b606082471015620007ed5760405162461bcd60e51b815260206004820152602660248201527f416464726573733a20696e73756666696369656e742062616c616e636520666f6044820152651c8818d85b1b60d21b6064820152608401620001f8565b843b6200083d5760405162461bcd60e51b815260206004820152601d60248201527f416464726573733a2063616c6c20746f206e6f6e2d636f6e74726163740000006044820152606401620001f8565b600080866001600160a01b031685876040516200085b919062000a55565b60006040518083038185875af1925050503d80600081146200089a576040519150601f19603f3d011682016040523d82523d6000602084013e6200089f565b606091505b509092509050620008b2828286620008bd565b979650505050505050565b60608315620008ce575081620005cd565b825115620008df5782518084602001fd5b8160405162461bcd60e51b8152600401620001f8919062000a73565b828054620009099062000b4f565b90600052602060002090601f0160209004810192826200092d576000855562000978565b82601f106200094857805160ff191683800117855562000978565b8280016001018555821562000978579182015b82811115620009785782518255916020019190600101906200095b565b50620009869291506200098a565b5090565b5b808211156200098657600081556001016200098b565b80516001600160a01b0381168114620009b957600080fd5b919050565b60008060008060808587031215620009d4578384fd5b620009df85620009a1565b9350620009ef60208601620009a1565b9250620009ff60408601620009a1565b915062000a0f60608601620009a1565b905092959194509250565b60006020828403121562000a2c578081fd5b81518015158114620005cd578182fd5b60006020828403121562000a4e578081fd5b5051919050565b6000825162000a6981846020870162000b20565b9190910192915050565b602081526000825180602084015262000a9481604085016020870162000b20565b601f01601f19169190910160400192915050565b6000821982111562000abe5762000abe62000b8c565b500190565b60008262000adf57634e487b7160e01b81526012600452602481fd5b500490565b600081600019048311821515161562000b015762000b0162000b8c565b500290565b60008282101562000b1b5762000b1b62000b8c565b500390565b60005b8381101562000b3d57818101518382015260200162000b23565b83811115620006345750506000910152565b600181811c9082168062000b6457607f821691505b6020821081141562000b8657634e487b7160e01b600052602260045260246000fd5b50919050565b634e487b7160e01b600052601160045260246000fd5b6127298062000bb26000396000f3fe608060405234801561001057600080fd5b50600436106102bb5760003560e01c8063841e456111610182578063c8b5bf09116100e9578063e4bbb6e1116100a2578063f14faf6f1161007c578063f14faf6f146106f6578063f2fde38b14610709578063f84afd481461071c578063f9eaa5df1461072f57600080fd5b8063e4bbb6e1146106c0578063e7bcf444146106c9578063ebcfb20a146106dc57600080fd5b8063c8b5bf091461061f578063d65a06b014610632578063db1d0fd514610645578063db2e21bc14610670578063dd62ed3e14610678578063e3a61af4146106b157600080fd5b8063a0abc02b1161013b578063a0abc02b146105a2578063a1527988146105b5578063a9059cbb146105c8578063ba818b92146105db578063bcb86052146105e4578063c3140c461461061757600080fd5b8063841e4561146105515780638b79433c146105645780638da5cb5b1461056d57806394bf804d1461057e57806395d89b41146105915780639e3ce1cf1461059957600080fd5b8063313ce5671161022657806364066d6e116101df57806364066d6e146104fe5780636cfdff86146105115780636f7427171461051a57806370a0823114610523578063715018a61461053657806375ae267d1461053e57600080fd5b8063313ce567146104545780634132b88914610473578063427a9d1814610487578063443355e5146104b357806345a04781146104e25780635d1dc438146104f557600080fd5b80631c1252f5116102785780631c1252f5146103ec57806321b170ca146103f557806323b872dd1461040857806325d998bb1461041b57806328b56f4f1461042e578063300773cd1461044157600080fd5b806306fdde03146102c0578063095ea7b3146102de5780630bc435851461030157806314eb76ac1461032c57806318160ddd146103415780631959a00214610357575b600080fd5b6102c861074c565b6040516102d59190612509565b60405180910390f35b6102f16102ec36600461240b565b6107da565b60405190151581526020016102d5565b600554610314906001600160a01b031681565b6040516001600160a01b0390911681526020016102d5565b61033f61033a366004612384565b610873565b005b6103496108bf565b6040519081526020016102d5565b6103ab610365366004612384565b60106020526000908152604090208054600182015460028301546003909301546001600160801b0380841694600160801b90940416926001600160a01b03909216919085565b604080516001600160801b0396871681529590941660208601526001600160a01b03909216928401929092526060830191909152608082015260a0016102d5565b610349600c5481565b61033f61040336600461246c565b610970565b6102f16104163660046123d0565b6109d6565b610349610429366004612384565b610ab0565b600754610314906001600160a01b031681565b61033f61044f36600461246c565b610ac1565b6003546104619060ff1681565b60405160ff90911681526020016102d5565b6008546102f190600160a01b900460ff1681565b600d5461049e90600160e01b900463ffffffff1681565b60405163ffffffff90911681526020016102d5565b6103146104c1366004612384565b6001600160a01b039081166000908152601060205260409020600101541690565b61033f6104f036600461246c565b610b3d565b610349600e5481565b600854610314906001600160a01b031681565b610349600b5481565b610349600a5481565b610349610531366004612384565b610b6c565b61033f610b83565b61033f61054c366004612434565b610bf7565b61033f61055f366004612384565b610c6e565b610349600f5481565b6000546001600160a01b0316610314565b61033f61058c36600461249c565b610cba565b6102c8610f86565b61031461dead81565b61033f6105b036600461246c565b610f93565b61033f6105c336600461246c565b610fc2565b6102f16105d636600461240b565b610ff1565b61034960095481565b6105f76105f236600461246c565b61100f565b6040805194855260208501939093529183015260608201526080016102d5565b610349606481565b61034961062d366004612384565b611070565b61033f6106403660046124be565b61112b565b600d54610658906001600160701b031681565b6040516001600160701b0390911681526020016102d5565b61033f61134a565b61034961068636600461239e565b6001600160a01b03918216600090815260046020908152604080832093909416825291909152205490565b61034967016345785d8a000081565b61034960115481565b600654610314906001600160a01b031681565b600d5461065890600160701b90046001600160701b031681565b61033f61070436600461246c565b61141d565b61033f610717366004612384565b6114af565b61033f61072a366004612384565b611599565b6107376115e5565b604080519283526020830191909152016102d5565b6001805461075990612694565b80601f016020809104026020016040519081016040528092919081815260200182805461078590612694565b80156107d25780601f106107a7576101008083540402835291602001916107d2565b820191906000526020600020905b8154815290600101906020018083116107b557829003601f168201915b505050505081565b600854600090600160a01b900460ff1661080f5760405162461bcd60e51b81526004016108069061253c565b60405180910390fd5b3360008181526004602090815260408083206001600160a01b03881680855290835292819020869055518581529192917f8c5be1e5ebec7d5bd14f71427d1e84f3dd0314c0f7b2291e5b200ac8c7c3b925910160405180910390a350600192915050565b6000546001600160a01b0316331461089d5760405162461bcd60e51b81526004016108069061257d565b600680546001600160a01b0319166001600160a01b0392909216919091179055565b6005546040516370a0823160e01b815230600482015260009182916001600160a01b03909116906370a082319060240160206040518083038186803b15801561090757600080fd5b505afa15801561091b573d6000803e3d6000fd5b505050506040513d601f19601f8201168201806040525081019061093f9190612484565b9050600061094b6115e5565b91506000905061095b838361165f565b9050610968606482612612565b935050505090565b6000546001600160a01b0316331461099a5760405162461bcd60e51b81526004016108069061257d565b600a8190556040518181527f651616d87d2634a1e2cf5e3e860520c4fa7dbb3a2c18e8fa81de2930b0595d58906020015b60405180910390a150565b6001600160a01b0383166000908152600460209081526040808320338452909152812054821115610a405760405162461bcd60e51b815260206004820152601460248201527308298989eae829c868abe9c9ea8be8a9c9eaa8e960631b6044820152606401610806565b610a48611729565b610a53848484611878565b6001600160a01b0384166000908152600460209081526040808320338452909152902054610a819083611adf565b6001600160a01b03851660009081526004602090815260408083203384529091529020555060015b9392505050565b6000610abb82610b6c565b92915050565b6000546001600160a01b03163314610aeb5760405162461bcd60e51b81526004016108069061257d565b610af3611729565b6009819055600554610b0d906001600160a01b0316611aeb565b6040518181527feca81e4b546cfbc80883349ef5bdaca1c02dc7cb0bdb9e1183cb7698f90bbb85906020016109cb565b6000546001600160a01b03163314610b675760405162461bcd60e51b81526004016108069061257d565b600b55565b60006064610b7983611070565b610abb9190612612565b6000546001600160a01b03163314610bad5760405162461bcd60e51b81526004016108069061257d565b600080546040516001600160a01b03909116907f8be0079c531659141344cd1fd0a4f28419497f9722a3daafe3b4186f6b6457e0908390a3600080546001600160a01b0319169055565b6000546001600160a01b03163314610c215760405162461bcd60e51b81526004016108069061257d565b60088054821515600160a01b0260ff60a01b199091161790556040517f1cef9d219073dee0fbb9f2d32b58c7c0a85a31476bc46847fa800c8f93f4860b906109cb90831515815260200190565b6000546001600160a01b03163314610c985760405162461bcd60e51b81526004016108069061257d565b600880546001600160a01b0319166001600160a01b0392909216919091179055565b6001600160a01b03811615801590610cdb57506001600160a01b0381163314155b610d275760405162461bcd60e51b815260206004820152601d60248201527f76434149524f546f6b656e3a205375706572696f7220494e56414c49440000006044820152606401610806565b670de0b6b3a7640000821015610d8d5760405162461bcd60e51b815260206004820152602560248201527f76434149524f546f6b656e3a206d757374206d696e742067726561746572207460448201526468616e203160d81b6064820152608401610806565b33600090815260106020526040902060018101546001600160a01b0316610e5e576006546001600160a01b0383811691161480610de657506001600160a01b038281166000908152601060205260409020600101541615155b610e405760405162461bcd60e51b815260206004820152602560248201527f76434149524f546f6b656e3a20494e56414c49445f5355504552494f525f4144604482015264445245535360d81b6064820152608401610806565b6001810180546001600160a01b0319166001600160a01b0384161790555b60115415610eb3576001810154600090610e80906001600160a01b0316611070565b9050601154811015610eb1576006546001830180546001600160a01b0319166001600160a01b039092169190911790555b505b610ebb611729565b600554610ed3906001600160a01b031633308661166b565b600d54600090610eed9085906001600160701b03166116dc565b9050610ef98282611c09565b600554610f0e906001600160a01b0316611aeb565b610f1733611d5e565b6001820154610f2e906001600160a01b0316611d5e565b600f54604080513381526001600160a01b03861660208201528082018790526060810192909252517f526fc25d42e510f2b329e18b6ab35f874a5f7c0f84409ca6e668a6109eb50d479181900360800190a150505050565b6002805461075990612694565b6000546001600160a01b03163314610fbd5760405162461bcd60e51b81526004016108069061257d565b601155565b6000546001600160a01b03163314610fec5760405162461bcd60e51b81526004016108069061257d565b600c55565b6000610ffb611729565b611006338484611878565b50600192915050565b6000806000806000600c5490506110268682611df9565b92506110328684611adf565b945061104083600a54611df9565b935061104e83600b54611df9565b915061105a8385611adf565b92506110668383611adf565b9250509193509193565b6001600160a01b038082166000908152601060209081526040808320815160a08101835281546001600160801b038082168352600160801b909104169381019390935260018101549094169082015260028301546060820152600390920154608083015290816110de6115e5565b50905060006110fa83600001516001600160801b031683611df9565b9050826060015181111561111e5760608301516111179082612651565b9350611123565b600093505b505050919050565b33828061113783610ab0565b10156111555760405162461bcd60e51b8152600401610806906125b2565b61115d611729565b336000908152601060205260408120908085156111c4576002830154600d546111a391611192916001600160701b03166116dc565b84546001600160801b031690611adf565b600d549091506111bd9082906001600160701b0316611df9565b91506111ec565b6111cf8760646116fa565b600d549092506111e99083906001600160701b03166116dc565b90505b6111f68382611e18565b6000806000806112058661100f565b60055493975091955093509150611226906001600160a01b03163386612105565b821561124557600554611245906001600160a01b031661dead85612105565b801561126857600754600554611268916001600160a01b03918216911683612105565b81156112b05761128f61127d83600f546116dc565b600d546001600160701b03169061165f565b600d80546001600160701b0319166001600160701b03929092169190911790555b6005546112c5906001600160a01b0316611aeb565b6112ce33611d5e565b60018701546112e5906001600160a01b0316611d5e565b600f546040805133815260208101879052808201869052606081018590526080810184905260a0810192909252517fc6667197493d4a3ccac45079c61bae06865a98bc2e9665c6df2d9edc853943fb9181900360c00190a15050505050505050505050565b6000546001600160a01b031633146113745760405162461bcd60e51b81526004016108069061257d565b6005546040516370a0823160e01b81523060048201526000916001600160a01b0316906370a082319060240160206040518083038186803b1580156113b857600080fd5b505afa1580156113cc573d6000803e3d6000fd5b505050506040513d601f19601f820116820180604052508101906113f09190612484565b905061141a6114076000546001600160a01b031690565b6005546001600160a01b03169083612105565b50565b600554611435906001600160a01b031633308461166b565b61144461127d82600f546116dc565b600d80546001600160701b0319166001600160701b0392909216919091179055600554611479906001600160a01b0316611aeb565b60408051338152602081018390527f35110502edf28820cf0a8c129d83c0624d2ed40531479ac88a04540cc5268c2091016109cb565b6000546001600160a01b031633146114d95760405162461bcd60e51b81526004016108069061257d565b6001600160a01b03811661153e5760405162461bcd60e51b815260206004820152602660248201527f4f776e61626c653a206e6577206f776e657220697320746865207a65726f206160448201526564647265737360d01b6064820152608401610806565b600080546040516001600160a01b03808516939216917f8be0079c531659141344cd1fd0a4f28419497f9722a3daafe3b4186f6b6457e091a3600080546001600160a01b0319166001600160a01b0392909216919091179055565b6000546001600160a01b031633146115c35760405162461bcd60e51b81526004016108069061257d565b600780546001600160a01b0319166001600160a01b0392909216919091179055565b600d546000908190600160e01b900463ffffffff1661160657506000611630565b600d5461162090600160e01b900463ffffffff1643612651565b60095461162d9190612632565b90505b600f541561164d5761164761127d82600f546116dc565b91509091565b600d546001600160701b031691509091565b6000610aa982846125fa565b6040516001600160a01b03808516602483015283166044820152606481018290526116d69085906323b872dd60e01b906084015b60408051601f198184030181529190526020810180516001600160e01b03166001600160e01b031990931692909217909152612135565b50505050565b6000610aa9826116f485670de0b6b3a76400006116fa565b90611706565b6000610aa98284612632565b6000610aa98284612612565b60606117218484600085612207565b949350505050565b6000806117346115e5565b600d54919350915060009061175a908390600160701b90046001600160701b031661165f565b90506001600160701b03831180159061177a57506001600160701b038111155b6117b15760405162461bcd60e51b81526020600482015260086024820152674f564552464c4f5760c01b6044820152606401610806565b600d805463ffffffff4316600160e01b026001600160e01b036001600160701b03858116600160701b026001600160e01b031990941690881617929092179190911617905581156118735760085460055461181a916001600160a01b039182169116308561166b565b600e54611827908361165f565b600e5560055461183f906001600160a01b0316611aeb565b6040518281527fdee982458f84113ac3e32d44595820a6fa60cfbe80a1bdd444c26599ee5b7dd59060200160405180910390a15b505050565b600854600160a01b900460ff166118a15760405162461bcd60e51b81526004016108069061253c565b8281806118ad83610ab0565b10156118cb5760405162461bcd60e51b8152600401610806906125b2565b6001600160a01b0385166119215760405162461bcd60e51b815260206004820152601e60248201527f7472616e736665722066726f6d20746865207a65726f206164647265737300006044820152606401610806565b6001600160a01b0384166119775760405162461bcd60e51b815260206004820152601c60248201527f7472616e7366657220746f20746865207a65726f2061646472657373000000006044820152606401610806565b836001600160a01b0316856001600160a01b031614156119d95760405162461bcd60e51b815260206004820152601a60248201527f7472616e736665722066726f6d2073616d65207769746820746f0000000000006044820152606401610806565b60006119fa6119e9606486612632565b600d546001600160701b03166116dc565b6001600160a01b038088166000908152601060205260408082209289168252902091925090611a298284611e18565b611a338184611c09565b600554611a48906001600160a01b0316611aeb565b611a5188611d5e565b6001820154611a68906001600160a01b0316611d5e565b611a7187611d5e565b6001810154611a88906001600160a01b0316611d5e565b866001600160a01b0316886001600160a01b03167fddf252ad1be2c89b69c2b068fc378daa952ba7f163c4a11628f55a4df523b3ef88604051611acd91815260200190565b60405180910390a35050505050505050565b6000610aa98284612651565b7f28534d0ab69d062225c304f03154079414ece8f1498298a0f76a84c1e225e86a816001600160a01b03166318160ddd6040518163ffffffff1660e01b815260040160206040518083038186803b158015611b4557600080fd5b505afa158015611b59573d6000803e3d6000fd5b505050506040513d601f19601f82011682018060405250810190611b7d9190612484565b6040516370a0823160e01b81523060048201526001600160a01b038416906370a082319060240160206040518083038186803b158015611bbc57600080fd5b505afa158015611bd0573d6000803e3d6000fd5b505050506040513d601f19601f82011682018060405250810190611bf49190612484565b604080519283526020830191909152016109cb565b6001600160801b03811115611c4b5760405162461bcd60e51b81526020600482015260086024820152674f564552464c4f5760c01b6044820152606401610806565b60018201546001600160a01b0316600090815260106020526040812090611c7a8367016345785d8a0000611df9565b600d54909150600090611c979083906001600160701b0316611df9565b8554909150611caf906001600160801b03168561165f565b85546001600160801b0319166001600160801b0391821617808755611cdd91600160801b909104168361165f565b85546001600160801b03918216600160801b029082161786558354611d0391168361165f565b83546001600160801b0319166001600160801b03919091161783556002830154611d2d908261165f565b6001600160801b03166002840155600f54611d54908390611d4e908761165f565b9061165f565b600f555050505050565b6001600160a01b03818116600081815260106020908152604091829020805460018201546002830154600384015486519788526001600160801b0380851696890196909652600160801b90930490941694860194909452929094166060840152608083015260a08201527ffa1f27e78b9c9fd9e728118a801ececb1599002acdfea81c03bd90e93fbcf3449060c00160405180910390a15050565b6000670de0b6b3a7640000611e0e84846116fa565b610aa99190612612565b8154611e2d906001600160801b031682611adf565b82546001600160801b0319166001600160801b03919091161782556002820154600d54600091611e65916001600160701b03166116dc565b83549091506001600160801b0316811015611eaf578254611e8f906001600160801b031682611adf565b83546001600160801b0319166001600160801b0391909116178355611ec9565b5081546001600160801b0319811683556001600160801b03165b60028301546003840154611edc9161165f565b6003840155600060028401819055611efc8367016345785d8a0000611df9565b8454909150600160801b90046001600160801b0316811015611f1e5780611f31565b8354600160801b90046001600160801b03165b8454909150611f5090600160801b90046001600160801b031682611adf565b84546001600160801b03918216600160801b029116178455600d54600090611f829083906001600160701b0316611df9565b60018601546001600160a01b03166000908152601060205260409020600381015491925090821115612010576003810154600d54600091611fcb916001600160701b03166116dc565b905083811015611fe457611fdf8482611adf565b611fe7565b60005b9350612000826003015484611adf90919063ffffffff16565b60006003840155925061202c9050565b600381015461201f9083611adf565b6003820155600092508291505b6002810154600d54600091612049916001600160701b03166116dc565b905080841061208e5760006002830155815461206e906001600160801b031682611adf565b82546001600160801b0319166001600160801b03919091161782556120d6565b600282015461209d9084611adf565b6001600160801b03908116600284015582546120ba911685611adf565b82546001600160801b0319166001600160801b03919091161782555b6120f9856120f3866120f38a600f54611adf90919063ffffffff16565b90611adf565b600f5550505050505050565b6040516001600160a01b03831660248201526044810182905261187390849063a9059cbb60e01b9060640161169f565b600061218a826040518060400160405280602081526020017f5361666545524332303a206c6f772d6c6576656c2063616c6c206661696c6564815250856001600160a01b03166117129092919063ffffffff16565b80519091501561187357808060200190518101906121a89190612450565b6118735760405162461bcd60e51b815260206004820152602a60248201527f5361666545524332303a204552433230206f7065726174696f6e20646964206e6044820152691bdd081cdd58d8d9595960b21b6064820152608401610806565b6060824710156122685760405162461bcd60e51b815260206004820152602660248201527f416464726573733a20696e73756666696369656e742062616c616e636520666f6044820152651c8818d85b1b60d21b6064820152608401610806565b843b6122b65760405162461bcd60e51b815260206004820152601d60248201527f416464726573733a2063616c6c20746f206e6f6e2d636f6e74726163740000006044820152606401610806565b600080866001600160a01b031685876040516122d291906124ed565b60006040518083038185875af1925050503d806000811461230f576040519150601f19603f3d011682016040523d82523d6000602084013e612314565b606091505b509150915061232482828661232f565b979650505050505050565b6060831561233e575081610aa9565b82511561234e5782518084602001fd5b8160405162461bcd60e51b81526004016108069190612509565b80356001600160a01b038116811461237f57600080fd5b919050565b600060208284031215612395578081fd5b610aa982612368565b600080604083850312156123b0578081fd5b6123b983612368565b91506123c760208401612368565b90509250929050565b6000806000606084860312156123e4578081fd5b6123ed84612368565b92506123fb60208501612368565b9150604084013590509250925092565b6000806040838503121561241d578182fd5b61242683612368565b946020939093013593505050565b600060208284031215612445578081fd5b8135610aa9816126e5565b600060208284031215612461578081fd5b8151610aa9816126e5565b60006020828403121561247d578081fd5b5035919050565b600060208284031215612495578081fd5b5051919050565b600080604083850312156124ae578182fd5b823591506123c760208401612368565b600080604083850312156124d0578182fd5b8235915060208301356124e2816126e5565b809150509250929050565b600082516124ff818460208701612668565b9190910192915050565b6020815260008251806020840152612528816040850160208701612668565b601f01601f19169190910160400192915050565b60208082526021908201527f76434149524f546f6b656e3a206e6f7420616c6c6f776564207472616e7366656040820152603960f91b606082015260800190565b6020808252818101527f4f776e61626c653a2063616c6c6572206973206e6f7420746865206f776e6572604082015260600190565b60208082526028908201527f76434149524f546f6b656e3a20617661696c61626c6520616d6f756e74206e6f6040820152670e840cadcdeeaced60c31b606082015260800190565b6000821982111561260d5761260d6126cf565b500190565b60008261262d57634e487b7160e01b81526012600452602481fd5b500490565b600081600019048311821515161561264c5761264c6126cf565b500290565b600082821015612663576126636126cf565b500390565b60005b8381101561268357818101518382015260200161266b565b838111156116d65750506000910152565b600181811c908216806126a857607f821691505b602082108114156126c957634e487b7160e01b600052602260045260246000fd5b50919050565b634e487b7160e01b600052601160045260246000fd5b801515811461141a57600080fdfea26469706673582212206d471d338812f24f9374f271778fa578aecbc87ec94ccb7c841c5a7adaae35d264736f6c63430008040033",
  "linkReferences": {},
  "deployedLinkReferences": {}
}