{
  "_format": "hh-sol-artifact-1",
  "contractName": "vCAIROToken",
  "sourceName": "contracts/token/VCairoToken.sol",
  "abi": [
    {
      "inputs": [
        {
          "internalType": "address",
          "name": "cairoToken",
          "type": "address"
        },
        {
          "internalType": "address",
          "name": "cairoTeam",
          "type": "address"
        },
        {
          "internalType": "address",
          "name": "cairoReserve",
          "type": "address"
        },
        {
          "internalType": "address",
          "name": "cairoTreasury",
          "type": "address"
        }
      ],
      "stateMutability": "nonpayable",
      "type": "constructor"
    },
    {
      "anonymous": false,
      "inputs": [
        {
          "indexed": true,
          "internalType": "address",
          "name": "owner",
          "type": "address"
        },
        {
          "indexed": true,
          "internalType": "address",
          "name": "spender",
          "type": "address"
        },
        {
          "indexed": false,
          "internalType": "uint256",
          "name": "amount",
          "type": "uint256"
        }
      ],
      "name": "Approval",
      "type": "event"
    },
    {
      "anonymous": false,
      "inputs": [
        {
          "indexed": false,
          "internalType": "uint256",
          "name": "cairoPerBlock",
          "type": "uint256"
        }
      ],
      "name": "ChangePerReward",
      "type": "event"
    },
    {
      "anonymous": false,
      "inputs": [
        {
          "indexed": false,
          "internalType": "address",
          "name": "user",
          "type": "address"
        },
        {
          "indexed": false,
          "internalType": "uint128",
          "name": "stakingPower",
          "type": "uint128"
        },
        {
          "indexed": false,
          "internalType": "uint128",
          "name": "superiorSP",
          "type": "uint128"
        },
        {
          "indexed": false,
          "internalType": "address",
          "name": "superior",
          "type": "address"
        },
        {
          "indexed": false,
          "internalType": "uint256",
          "name": "credit",
          "type": "uint256"
        },
        {
          "indexed": false,
          "internalType": "uint256",
          "name": "creditDebt",
          "type": "uint256"
        }
      ],
      "name": "CurrentUserInfo",
      "type": "event"
    },
    {
      "anonymous": false,
      "inputs": [
        {
          "indexed": false,
          "internalType": "address",
          "name": "user",
          "type": "address"
        },
        {
          "indexed": false,
          "internalType": "uint256",
          "name": "donateCAIRO",
          "type": "uint256"
        }
      ],
      "name": "DonateCAIRO",
      "type": "event"
    },
    {
      "anonymous": false,
      "inputs": [
        {
          "indexed": false,
          "internalType": "address",
          "name": "user",
          "type": "address"
        },
        {
          "indexed": false,
          "internalType": "address",
          "name": "superior",
          "type": "address"
        },
        {
          "indexed": false,
          "internalType": "uint256",
          "name": "mintCAIRO",
          "type": "uint256"
        },
        {
          "indexed": false,
          "internalType": "uint256",
          "name": "totalStakingPower",
          "type": "uint256"
        }
      ],
      "name": "MintVCAIRO",
      "type": "event"
    },
    {
      "anonymous": false,
      "inputs": [
        {
          "indexed": true,
          "internalType": "address",
          "name": "previousOwner",
          "type": "address"
        },
        {
          "indexed": true,
          "internalType": "address",
          "name": "newOwner",
          "type": "address"
        }
      ],
      "name": "OwnershipTransferred",
      "type": "event"
    },
    {
      "anonymous": false,
      "inputs": [
        {
          "indexed": false,
          "internalType": "uint256",
          "name": "cairoAmount",
          "type": "uint256"
        }
      ],
      "name": "PreDeposit",
      "type": "event"
    },
    {
      "anonymous": false,
      "inputs": [
        {
          "indexed": false,
          "internalType": "address",
          "name": "user",
          "type": "address"
        },
        {
          "indexed": false,
          "internalType": "uint256",
          "name": "receiveCAIRO",
          "type": "uint256"
        },
        {
          "indexed": false,
          "internalType": "uint256",
          "name": "burnCAIRO",
          "type": "uint256"
        },
        {
          "indexed": false,
          "internalType": "uint256",
          "name": "feeCAIRO",
          "type": "uint256"
        },
        {
          "indexed": false,
          "internalType": "uint256",
          "name": "reserveCAIRO",
          "type": "uint256"
        },
        {
          "indexed": false,
          "internalType": "uint256",
          "name": "totalStakingPower",
          "type": "uint256"
        }
      ],
      "name": "RedeemVCAIRO",
      "type": "event"
    },
    {
      "anonymous": false,
      "inputs": [
        {
          "indexed": false,
          "internalType": "bool",
          "name": "allowed",
          "type": "bool"
        }
      ],
      "name": "SetCanTransfer",
      "type": "event"
    },
    {
      "anonymous": false,
      "inputs": [
        {
          "indexed": false,
          "internalType": "uint256",
          "name": "cairoTokenSupply",
          "type": "uint256"
        },
        {
          "indexed": false,
          "internalType": "uint256",
          "name": "cairoBalanceInVCairo",
          "type": "uint256"
        }
      ],
      "name": "TokenInfo",
      "type": "event"
    },
    {
      "anonymous": false,
      "inputs": [
        {
          "indexed": true,
          "internalType": "address",
          "name": "from",
          "type": "address"
        },
        {
          "indexed": true,
          "internalType": "address",
          "name": "to",
          "type": "address"
        },
        {
          "indexed": false,
          "internalType": "uint256",
          "name": "amount",
          "type": "uint256"
        }
      ],
      "name": "Transfer",
      "type": "event"
    },
    {
      "anonymous": false,
      "inputs": [
        {
          "indexed": false,
          "internalType": "uint256",
          "name": "cairoFeeBurnRatio",
          "type": "uint256"
        }
      ],
      "name": "UpdateCAIROFeeBurnRatio",
      "type": "event"
    },
    {
      "inputs": [],
      "name": "_cairoFeeBurnRatio",
      "outputs": [
        {
          "internalType": "uint256",
          "name": "",
          "type": "uint256"
        }
      ],
      "stateMutability": "view",
      "type": "function"
    },
    {
      "inputs": [],
      "name": "_cairoFeeReserveRatio",
      "outputs": [
        {
          "internalType": "uint256",
          "name": "",
          "type": "uint256"
        }
      ],
      "stateMutability": "view",
      "type": "function"
    },
    {
      "inputs": [],
      "name": "_cairoPerBlock",
      "outputs": [
        {
          "internalType": "uint256",
          "name": "",
          "type": "uint256"
        }
      ],
      "stateMutability": "view",
      "type": "function"
    },
    {
      "inputs": [],
      "name": "_cairoRatio",
      "outputs": [
        {
          "internalType": "uint256",
          "name": "",
          "type": "uint256"
        }
      ],
      "stateMutability": "view",
      "type": "function"
    },
    {
      "inputs": [],
      "name": "_cairoReserve",
      "outputs": [
        {
          "internalType": "address",
          "name": "",
          "type": "address"
        }
      ],
      "stateMutability": "view",
      "type": "function"
    },
    {
      "inputs": [],
      "name": "_cairoTeam",
      "outputs": [
        {
          "internalType": "address",
          "name": "",
          "type": "address"
        }
      ],
      "stateMutability": "view",
      "type": "function"
    },
    {
      "inputs": [],
      "name": "_cairoToken",
      "outputs": [
        {
          "internalType": "address",
          "name": "",
          "type": "address"
        }
      ],
      "stateMutability": "view",
      "type": "function"
    },
    {
      "inputs": [],
      "name": "_cairoTreasury",
      "outputs": [
        {
          "internalType": "address",
          "name": "",
          "type": "address"
        }
      ],
      "stateMutability": "view",
      "type": "function"
    },
    {
      "inputs": [],
      "name": "_canTransfer",
      "outputs": [
        {
          "internalType": "bool",
          "name": "",
          "type": "bool"
        }
      ],
      "stateMutability": "view",
      "type": "function"
    },
    {
      "inputs": [],
      "name": "_feeRatio",
      "outputs": [
        {
          "internalType": "uint256",
          "name": "",
          "type": "uint256"
        }
      ],
      "stateMutability": "view",
      "type": "function"
    },
    {
      "inputs": [],
      "name": "_lastRewardBlock",
      "outputs": [
        {
          "internalType": "uint32",
          "name": "",
          "type": "uint32"
        }
      ],
      "stateMutability": "view",
      "type": "function"
    },
    {
      "inputs": [],
      "name": "_superiorMinCAIRO",
      "outputs": [
        {
          "internalType": "uint256",
          "name": "",
          "type": "uint256"
        }
      ],
      "stateMutability": "view",
      "type": "function"
    },
    {
      "inputs": [],
      "name": "_superiorRatio",
      "outputs": [
        {
          "internalType": "uint256",
          "name": "",
          "type": "uint256"
        }
      ],
      "stateMutability": "view",
      "type": "function"
    },
    {
      "inputs": [],
      "name": "_totalBlockDistribution",
      "outputs": [
        {
          "internalType": "uint112",
          "name": "",
          "type": "uint112"
        }
      ],
      "stateMutability": "view",
      "type": "function"
    },
    {
      "inputs": [],
      "name": "_totalBlockReward",
      "outputs": [
        {
          "internalType": "uint256",
          "name": "",
          "type": "uint256"
        }
      ],
      "stateMutability": "view",
      "type": "function"
    },
    {
      "inputs": [],
      "name": "_totalStakingPower",
      "outputs": [
        {
          "internalType": "uint256",
          "name": "",
          "type": "uint256"
        }
      ],
      "stateMutability": "view",
      "type": "function"
    },
    {
      "inputs": [
        {
          "internalType": "address",
          "name": "owner",
          "type": "address"
        },
        {
          "internalType": "address",
          "name": "spender",
          "type": "address"
        }
      ],
      "name": "allowance",
      "outputs": [
        {
          "internalType": "uint256",
          "name": "",
          "type": "uint256"
        }
      ],
      "stateMutability": "view",
      "type": "function"
    },
    {
      "inputs": [],
      "name": "alpha",
      "outputs": [
        {
          "internalType": "uint112",
          "name": "",
          "type": "uint112"
        }
      ],
      "stateMutability": "view",
      "type": "function"
    },
    {
      "inputs": [
        {
          "internalType": "address",
          "name": "spender",
          "type": "address"
        },
        {
          "internalType": "uint256",
          "name": "vCairoAmount",
          "type": "uint256"
        }
      ],
      "name": "approve",
      "outputs": [
        {
          "internalType": "bool",
          "name": "",
          "type": "bool"
        }
      ],
      "stateMutability": "nonpayable",
      "type": "function"
    },
    {
      "inputs": [
        {
          "internalType": "address",
          "name": "account",
          "type": "address"
        }
      ],
      "name": "availableBalanceOf",
      "outputs": [
        {
          "internalType": "uint256",
          "name": "vCairoAmount",
          "type": "uint256"
        }
      ],
      "stateMutability": "view",
      "type": "function"
    },
    {
      "inputs": [
        {
          "internalType": "address",
          "name": "account",
          "type": "address"
        }
      ],
      "name": "balanceOf",
      "outputs": [
        {
          "internalType": "uint256",
          "name": "vCairoAmount",
          "type": "uint256"
        }
      ],
      "stateMutability": "view",
      "type": "function"
    },
    {
      "inputs": [
        {
          "internalType": "address",
          "name": "account",
          "type": "address"
        }
      ],
      "name": "cairoBalanceOf",
      "outputs": [
        {
          "internalType": "uint256",
          "name": "cairoAmount",
          "type": "uint256"
        }
      ],
      "stateMutability": "view",
      "type": "function"
    },
    {
      "inputs": [
        {
          "internalType": "uint256",
          "name": "cairoPerBlock",
          "type": "uint256"
        }
      ],
      "name": "changePerReward",
      "outputs": [],
      "stateMutability": "nonpayable",
      "type": "function"
    },
    {
      "inputs": [],
      "name": "decimals",
      "outputs": [
        {
          "internalType": "uint8",
          "name": "",
          "type": "uint8"
        }
      ],
      "stateMutability": "view",
      "type": "function"
    },
    {
      "inputs": [
        {
          "internalType": "uint256",
          "name": "cairoAmount",
          "type": "uint256"
        }
      ],
      "name": "donate",
      "outputs": [],
      "stateMutability": "nonpayable",
      "type": "function"
    },
    {
      "inputs": [],
      "name": "emergencyWithdraw",
      "outputs": [],
      "stateMutability": "nonpayable",
      "type": "function"
    },
    {
      "inputs": [],
      "name": "getLatestAlpha",
      "outputs": [
        {
          "internalType": "uint256",
          "name": "newAlpha",
          "type": "uint256"
        },
        {
          "internalType": "uint256",
          "name": "curDistribution",
          "type": "uint256"
        }
      ],
      "stateMutability": "view",
      "type": "function"
    },
    {
      "inputs": [
        {
          "internalType": "address",
          "name": "account",
          "type": "address"
        }
      ],
      "name": "getSuperior",
      "outputs": [
        {
          "internalType": "address",
          "name": "superior",
          "type": "address"
        }
      ],
      "stateMutability": "view",
      "type": "function"
    },
    {
      "inputs": [
        {
          "internalType": "uint256",
          "name": "cairoAmount",
          "type": "uint256"
        }
      ],
      "name": "getWithdrawResult",
      "outputs": [
        {
          "internalType": "uint256",
          "name": "cairoReceive",
          "type": "uint256"
        },
        {
          "internalType": "uint256",
          "name": "burnCairoAmount",
          "type": "uint256"
        },
        {
          "internalType": "uint256",
          "name": "withdrawFeeCairoAmount",
          "type": "uint256"
        },
        {
          "internalType": "uint256",
          "name": "reserveCairoAmount",
          "type": "uint256"
        }
      ],
      "stateMutability": "view",
      "type": "function"
    },
    {
      "inputs": [],
      "name": "hole",
      "outputs": [
        {
          "internalType": "address",
          "name": "",
          "type": "address"
        }
      ],
      "stateMutability": "view",
      "type": "function"
    },
    {
      "inputs": [
        {
          "internalType": "uint256",
          "name": "cairoAmount",
          "type": "uint256"
        },
        {
          "internalType": "address",
          "name": "superiorAddress",
          "type": "address"
        }
      ],
      "name": "mint",
      "outputs": [],
      "stateMutability": "nonpayable",
      "type": "function"
    },
    {
      "inputs": [],
      "name": "name",
      "outputs": [
        {
          "internalType": "string",
          "name": "",
          "type": "string"
        }
      ],
      "stateMutability": "view",
      "type": "function"
    },
    {
      "inputs": [],
      "name": "owner",
      "outputs": [
        {
          "internalType": "address",
          "name": "",
          "type": "address"
        }
      ],
      "stateMutability": "view",
      "type": "function"
    },
    {
      "inputs": [
        {
          "internalType": "uint256",
          "name": "vCairoAmount",
          "type": "uint256"
        },
        {
          "internalType": "bool",
          "name": "all",
          "type": "bool"
        }
      ],
      "name": "redeem",
      "outputs": [],
      "stateMutability": "nonpayable",
      "type": "function"
    },
    {
      "inputs": [],
      "name": "renounceOwnership",
      "outputs": [],
      "stateMutability": "nonpayable",
      "type": "function"
    },
    {
      "inputs": [
        {
          "internalType": "bool",
          "name": "allowed",
          "type": "bool"
        }
      ],
      "name": "setCanTransfer",
      "outputs": [],
      "stateMutability": "nonpayable",
      "type": "function"
    },
    {
      "inputs": [
        {
          "internalType": "uint256",
          "name": "ratioFee",
          "type": "uint256"
        }
      ],
      "name": "setRatioValue",
      "outputs": [],
      "stateMutability": "nonpayable",
      "type": "function"
    },
    {
      "inputs": [
        {
          "internalType": "uint256",
          "name": "val",
          "type": "uint256"
        }
      ],
      "name": "setSuperiorMinCAIRO",
      "outputs": [],
      "stateMutability": "nonpayable",
      "type": "function"
    },
    {
      "inputs": [],
      "name": "symbol",
      "outputs": [
        {
          "internalType": "string",
          "name": "",
          "type": "string"
        }
      ],
      "stateMutability": "view",
      "type": "function"
    },
    {
      "inputs": [],
      "name": "totalSupply",
      "outputs": [
        {
          "internalType": "uint256",
          "name": "vCairoSupply",
          "type": "uint256"
        }
      ],
      "stateMutability": "view",
      "type": "function"
    },
    {
      "inputs": [
        {
          "internalType": "address",
          "name": "to",
          "type": "address"
        },
        {
          "internalType": "uint256",
          "name": "vCairoAmount",
          "type": "uint256"
        }
      ],
      "name": "transfer",
      "outputs": [
        {
          "internalType": "bool",
          "name": "",
          "type": "bool"
        }
      ],
      "stateMutability": "nonpayable",
      "type": "function"
    },
    {
      "inputs": [
        {
          "internalType": "address",
          "name": "from",
          "type": "address"
        },
        {
          "internalType": "address",
          "name": "to",
          "type": "address"
        },
        {
          "internalType": "uint256",
          "name": "vCairoAmount",
          "type": "uint256"
        }
      ],
      "name": "transferFrom",
      "outputs": [
        {
          "internalType": "bool",
          "name": "",
          "type": "bool"
        }
      ],
      "stateMutability": "nonpayable",
      "type": "function"
    },
    {
      "inputs": [
        {
          "internalType": "address",
          "name": "newOwner",
          "type": "address"
        }
      ],
      "name": "transferOwnership",
      "outputs": [],
      "stateMutability": "nonpayable",
      "type": "function"
    },
    {
      "inputs": [
        {
          "internalType": "uint256",
          "name": "cairoFeeBurnRatio",
          "type": "uint256"
        }
      ],
      "name": "updateCAIROFeeBurnRatio",
      "outputs": [],
      "stateMutability": "nonpayable",
      "type": "function"
    },
    {
      "inputs": [
        {
          "internalType": "uint256",
          "name": "cairoFeeReserve",
          "type": "uint256"
        }
      ],
      "name": "updateCAIROFeeReserveRatio",
      "outputs": [],
      "stateMutability": "nonpayable",
      "type": "function"
    },
    {
      "inputs": [
        {
          "internalType": "address",
          "name": "newAddress",
          "type": "address"
        }
      ],
      "name": "updateReserveAddress",
      "outputs": [],
      "stateMutability": "nonpayable",
      "type": "function"
    },
    {
      "inputs": [
        {
          "internalType": "address",
          "name": "team",
          "type": "address"
        }
      ],
      "name": "updateTeamAddress",
      "outputs": [],
      "stateMutability": "nonpayable",
      "type": "function"
    },
    {
      "inputs": [
        {
          "internalType": "address",
          "name": "treasury",
          "type": "address"
        }
      ],
      "name": "updateTreasuryAddress",
      "outputs": [],
      "stateMutability": "nonpayable",
      "type": "function"
    },
    {
      "inputs": [
        {
          "internalType": "address",
          "name": "",
          "type": "address"
        }
      ],
      "name": "userInfo",
      "outputs": [
        {
          "internalType": "uint128",
          "name": "stakingPower",
          "type": "uint128"
        },
        {
          "internalType": "uint128",
          "name": "superiorSP",
          "type": "uint128"
        },
        {
          "internalType": "address",
          "name": "superior",
          "type": "address"
        },
        {
          "internalType": "uint256",
          "name": "credit",
          "type": "uint256"
        },
        {
          "internalType": "uint256",
          "name": "creditDebt",
          "type": "uint256"
        }
      ],
      "stateMutability": "view",
      "type": "function"
    }
  ],
  "bytecode": "0x60806040526040518060400160405280601781526020017f76434149524f204d656d6265727368697020546f6b656e000000000000000000815250600190805190602001906200005192919062000d0a565b506040518060400160405280600681526020017f76434149524f0000000000000000000000000000000000000000000000000000815250600290805190602001906200009f92919062000d0a565b506012600360006101000a81548160ff021916908360ff160217905550670429d069189e0000600a556702c68af0bb140000600b5567016345785d8a0000600c55670de0b6b3a7640000600d60006101000a8154816dffffffffffffffffffffffffffff02191690836dffffffffffffffffffffffffffff160217905550683635c9adc5dea000006011553480156200013757600080fd5b50604051620065c5380380620065c583398181016040528101906200015d919062000dff565b60006200016f6200033460201b60201c565b9050806000806101000a81548173ffffffffffffffffffffffffffffffffffffffff021916908373ffffffffffffffffffffffffffffffffffffffff1602179055508073ffffffffffffffffffffffffffffffffffffffff16600073ffffffffffffffffffffffffffffffffffffffff167f8be0079c531659141344cd1fd0a4f28419497f9722a3daafe3b4186f6b6457e060405160405180910390a35083600560006101000a81548173ffffffffffffffffffffffffffffffffffffffff021916908373ffffffffffffffffffffffffffffffffffffffff16021790555082600660006101000a81548173ffffffffffffffffffffffffffffffffffffffff021916908373ffffffffffffffffffffffffffffffffffffffff16021790555081600760006101000a81548173ffffffffffffffffffffffffffffffffffffffff021916908373ffffffffffffffffffffffffffffffffffffffff16021790555080600860006101000a81548173ffffffffffffffffffffffffffffffffffffffff021916908373ffffffffffffffffffffffffffffffffffffffff1602179055506200032a671bc16d674ec800006200033c60201b60201c565b50505050620015c9565b600033905090565b6200034c6200033460201b60201c565b73ffffffffffffffffffffffffffffffffffffffff16620003726200045160201b60201c565b73ffffffffffffffffffffffffffffffffffffffff1614620003cb576040517f08c379a0000000000000000000000000000000000000000000000000000000008152600401620003c290620010d9565b60405180910390fd5b620003db6200047a60201b60201c565b8060098190555062000415600560009054906101000a900473ffffffffffffffffffffffffffffffffffffffff16620006ef60201b60201c565b7feca81e4b546cfbc80883349ef5bdaca1c02dc7cb0bdb9e1183cb7698f90bbb858160405162000446919062001161565b60405180910390a150565b60008060009054906101000a900473ffffffffffffffffffffffffffffffffffffffff16905090565b6000806200048d6200083c60201b60201c565b915091506000620004d9600d600e9054906101000a90046dffffffffffffffffffffffffffff166dffffffffffffffffffffffffffff16836200094960201b620029111790919060201c565b90506dffffffffffffffffffffffffffff801683111580156200050c57506dffffffffffffffffffffffffffff80168111155b6200054e576040517f08c379a000000000000000000000000000000000000000000000000000000000815260040162000545906200111d565b60405180910390fd5b82600d60006101000a8154816dffffffffffffffffffffffffffff02191690836dffffffffffffffffffffffffffff16021790555080600d600e6101000a8154816dffffffffffffffffffffffffffff02191690836dffffffffffffffffffffffffffff16021790555043600d601c6101000a81548163ffffffff021916908363ffffffff1602179055506000821115620006ea576200065b600860009054906101000a900473ffffffffffffffffffffffffffffffffffffffff163084600560009054906101000a900473ffffffffffffffffffffffffffffffffffffffff1673ffffffffffffffffffffffffffffffffffffffff166200096160201b6200292717909392919060201c565b6200067782600e546200094960201b620029111790919060201c565b600e81905550620006b0600560009054906101000a900473ffffffffffffffffffffffffffffffffffffffff16620006ef60201b60201c565b7fdee982458f84113ac3e32d44595820a6fa60cfbe80a1bdd444c26599ee5b7dd582604051620006e1919062001161565b60405180910390a15b505050565b7f28534d0ab69d062225c304f03154079414ece8f1498298a0f76a84c1e225e86a8173ffffffffffffffffffffffffffffffffffffffff166318160ddd6040518163ffffffff1660e01b815260040160206040518083038186803b1580156200075757600080fd5b505afa1580156200076c573d6000803e3d6000fd5b505050506040513d601f19601f8201168201806040525081019062000792919062000e97565b8273ffffffffffffffffffffffffffffffffffffffff166370a08231306040518263ffffffff1660e01b8152600401620007cd919062001039565b60206040518083038186803b158015620007e657600080fd5b505afa158015620007fb573d6000803e3d6000fd5b505050506040513d601f19601f8201168201806040525081019062000821919062000e97565b604051620008319291906200117e565b60405180910390a150565b6000806000600d601c9054906101000a900463ffffffff1663ffffffff1614156200086b5760009050620008a3565b600d601c9054906101000a900463ffffffff1663ffffffff1643620008919190620012d3565b600954620008a0919062001272565b90505b6000600f54111562000915576200090d620008cc82600f54620009f460201b620029b01760201c565b600d60009054906101000a90046dffffffffffffffffffffffffffff166dffffffffffffffffffffffffffff166200094960201b620029111790919060201c565b915062000945565b600d60009054906101000a90046dffffffffffffffffffffffffffff166dffffffffffffffffffffffffffff1691505b9091565b60008183620009599190620011dd565b905092915050565b620009ee846323b872dd60e01b858585604051602401620009859392919062001056565b604051602081830303815290604052907bffffffffffffffffffffffffffffffffffffffffffffffffffffffff19166020820180517bffffffffffffffffffffffffffffffffffffffffffffffffffffffff838183161783525050505062000a3960201b60201c565b50505050565b600062000a318262000a1d670de0b6b3a76400008662000b0d60201b620029e71790919060201c565b62000b2560201b620029fd1790919060201c565b905092915050565b600062000aa2826040518060400160405280602081526020017f5361666545524332303a206c6f772d6c6576656c2063616c6c206661696c65648152508573ffffffffffffffffffffffffffffffffffffffff1662000b3d60201b62002a13179092919060201c565b905060008151111562000b08578080602001905181019062000ac5919062000e6b565b62000b07576040517f08c379a000000000000000000000000000000000000000000000000000000000815260040162000afe906200113f565b60405180910390fd5b5b505050565b6000818362000b1d919062001272565b905092915050565b6000818362000b3591906200123a565b905092915050565b606062000b54848460008562000b5d60201b60201c565b90509392505050565b60608247101562000ba5576040517f08c379a000000000000000000000000000000000000000000000000000000000815260040162000b9c90620010b7565b60405180910390fd5b62000bb68562000c8b60201b60201c565b62000bf8576040517f08c379a000000000000000000000000000000000000000000000000000000000815260040162000bef90620010fb565b60405180910390fd5b6000808673ffffffffffffffffffffffffffffffffffffffff16858760405162000c23919062001020565b60006040518083038185875af1925050503d806000811462000c62576040519150601f19603f3d011682016040523d82523d6000602084013e62000c67565b606091505b509150915062000c7f82828662000c9e60201b60201c565b92505050949350505050565b600080823b905060008111915050919050565b6060831562000cb05782905062000d03565b60008351111562000cc45782518084602001fd5b816040517f08c379a000000000000000000000000000000000000000000000000000000000815260040162000cfa919062001093565b60405180910390fd5b9392505050565b82805462000d18906200138e565b90600052602060002090601f01602090048101928262000d3c576000855562000d88565b82601f1062000d5757805160ff191683800117855562000d88565b8280016001018555821562000d88579182015b8281111562000d8757825182559160200191906001019062000d6a565b5b50905062000d97919062000d9b565b5090565b5b8082111562000db657600081600090555060010162000d9c565b5090565b60008151905062000dcb816200157b565b92915050565b60008151905062000de28162001595565b92915050565b60008151905062000df981620015af565b92915050565b6000806000806080858703121562000e1657600080fd5b600062000e268782880162000dba565b945050602062000e398782880162000dba565b935050604062000e4c8782880162000dba565b925050606062000e5f8782880162000dba565b91505092959194509250565b60006020828403121562000e7e57600080fd5b600062000e8e8482850162000dd1565b91505092915050565b60006020828403121562000eaa57600080fd5b600062000eba8482850162000de8565b91505092915050565b62000ece816200130e565b82525050565b600062000ee182620011ab565b62000eed8185620011c1565b935062000eff81856020860162001358565b80840191505092915050565b600062000f1882620011b6565b62000f248185620011cc565b935062000f3681856020860162001358565b62000f418162001451565b840191505092915050565b600062000f5b602683620011cc565b915062000f688262001462565b604082019050919050565b600062000f82602083620011cc565b915062000f8f82620014b1565b602082019050919050565b600062000fa9601d83620011cc565b915062000fb682620014da565b602082019050919050565b600062000fd0600883620011cc565b915062000fdd8262001503565b602082019050919050565b600062000ff7602a83620011cc565b915062001004826200152c565b604082019050919050565b6200101a816200134e565b82525050565b60006200102e828462000ed4565b915081905092915050565b600060208201905062001050600083018462000ec3565b92915050565b60006060820190506200106d600083018662000ec3565b6200107c602083018562000ec3565b6200108b60408301846200100f565b949350505050565b60006020820190508181036000830152620010af818462000f0b565b905092915050565b60006020820190508181036000830152620010d28162000f4c565b9050919050565b60006020820190508181036000830152620010f48162000f73565b9050919050565b60006020820190508181036000830152620011168162000f9a565b9050919050565b60006020820190508181036000830152620011388162000fc1565b9050919050565b600060208201905081810360008301526200115a8162000fe8565b9050919050565b60006020820190506200117860008301846200100f565b92915050565b60006040820190506200119560008301856200100f565b620011a460208301846200100f565b9392505050565b600081519050919050565b600081519050919050565b600081905092915050565b600082825260208201905092915050565b6000620011ea826200134e565b9150620011f7836200134e565b9250827fffffffffffffffffffffffffffffffffffffffffffffffffffffffffffffffff038211156200122f576200122e620013c4565b5b828201905092915050565b600062001247826200134e565b915062001254836200134e565b925082620012675762001266620013f3565b5b828204905092915050565b60006200127f826200134e565b91506200128c836200134e565b9250817fffffffffffffffffffffffffffffffffffffffffffffffffffffffffffffffff0483118215151615620012c857620012c7620013c4565b5b828202905092915050565b6000620012e0826200134e565b9150620012ed836200134e565b925082821015620013035762001302620013c4565b5b828203905092915050565b60006200131b826200132e565b9050919050565b60008115159050919050565b600073ffffffffffffffffffffffffffffffffffffffff82169050919050565b6000819050919050565b60005b83811015620013785780820151818401526020810190506200135b565b8381111562001388576000848401525b50505050565b60006002820490506001821680620013a757607f821691505b60208210811415620013be57620013bd62001422565b5b50919050565b7f4e487b7100000000000000000000000000000000000000000000000000000000600052601160045260246000fd5b7f4e487b7100000000000000000000000000000000000000000000000000000000600052601260045260246000fd5b7f4e487b7100000000000000000000000000000000000000000000000000000000600052602260045260246000fd5b6000601f19601f8301169050919050565b7f416464726573733a20696e73756666696369656e742062616c616e636520666f60008201527f722063616c6c0000000000000000000000000000000000000000000000000000602082015250565b7f4f776e61626c653a2063616c6c6572206973206e6f7420746865206f776e6572600082015250565b7f416464726573733a2063616c6c20746f206e6f6e2d636f6e7472616374000000600082015250565b7f4f564552464c4f57000000000000000000000000000000000000000000000000600082015250565b7f5361666545524332303a204552433230206f7065726174696f6e20646964206e60008201527f6f74207375636365656400000000000000000000000000000000000000000000602082015250565b62001586816200130e565b81146200159257600080fd5b50565b620015a08162001322565b8114620015ac57600080fd5b50565b620015ba816200134e565b8114620015c657600080fd5b50565b614fec80620015d96000396000f3fe608060405234801561001057600080fd5b506004361061023b5760003560e01c806306fdde0314610240578063095ea7b31461025e5780630bc435851461028e57806314eb76ac146102ac57806318160ddd146102c85780631959a002146102e65780631c1252f51461031a57806321b170ca1461033857806323b872dd1461035457806325d998bb1461038457806328b56f4f146103b4578063300773cd146103d2578063313ce567146103ee5780634132b8891461040c578063427a9d181461042a578063443355e51461044857806345a04781146104785780635d1dc4381461049457806364066d6e146104b25780636cfdff86146104d05780636f742717146104ee57806370a082311461050c578063715018a61461053c57806375ae267d14610546578063841e4561146105625780638b79433c1461057e5780638da5cb5b1461059c57806394bf804d146105ba57806395d89b41146105d65780639e3ce1cf146105f4578063a0abc02b14610612578063a15279881461062e578063a9059cbb1461064a578063ba818b921461067a578063bcb8605214610698578063c3140c46146106cb578063c8b5bf09146106e9578063d65a06b014610719578063db1d0fd514610735578063db2e21bc14610753578063dd62ed3e1461075d578063e3a61af41461078d578063e4bbb6e1146107ab578063e7bcf444146107c9578063ebcfb20a146107e7578063f14faf6f14610805578063f2fde38b14610821578063f84afd481461083d578063f9eaa5df14610859575b600080fd5b610248610878565b60405161025591906145ec565b60405180910390f35b61027860048036038101906102739190614000565b610906565b60405161028591906145d1565b60405180910390f35b610296610a47565b6040516102a3919061444f565b60405180910390f35b6102c660048036038101906102c19190613f4c565b610a6d565b005b6102d0610b2d565b6040516102dd919061485c565b60405180910390f35b61030060048036038101906102fb9190613f4c565b610c16565b604051610311959493929190614809565b60405180910390f35b610322610ca4565b60405161032f919061485c565b60405180910390f35b610352600480360381019061034d919061408e565b610caa565b005b61036e60048036038101906103699190613fb1565b610d69565b60405161037b91906145d1565b60405180910390f35b61039e60048036038101906103999190613f4c565b610f57565b6040516103ab919061485c565b60405180910390f35b6103bc610f69565b6040516103c9919061444f565b60405180910390f35b6103ec60048036038101906103e7919061408e565b610f8f565b005b6103f661107f565b6040516104039190614900565b60405180910390f35b610414611092565b60405161042191906145d1565b60405180910390f35b6104326110a5565b60405161043f91906148e5565b60405180910390f35b610462600480360381019061045d9190613f4c565b6110bb565b60405161046f919061444f565b60405180910390f35b610492600480360381019061048d919061408e565b611127565b005b61049c6111ad565b6040516104a9919061485c565b60405180910390f35b6104ba6111b3565b6040516104c7919061444f565b60405180910390f35b6104d86111d9565b6040516104e5919061485c565b60405180910390f35b6104f66111df565b604051610503919061485c565b60405180910390f35b61052660048036038101906105219190613f4c565b6111e5565b604051610533919061485c565b60405180910390f35b610544611203565b005b610560600480360381019061055b919061403c565b61133d565b005b61057c60048036038101906105779190613f4c565b61140d565b005b6105866114cd565b604051610593919061485c565b60405180910390f35b6105a46114d3565b6040516105b1919061444f565b60405180910390f35b6105d460048036038101906105cf91906140e0565b6114fc565b005b6105de6119e8565b6040516105eb91906145ec565b60405180910390f35b6105fc611a76565b604051610609919061444f565b60405180910390f35b61062c6004803603810190610627919061408e565b611a7c565b005b6106486004803603810190610643919061408e565b611b02565b005b610664600480360381019061065f9190614000565b611b88565b60405161067191906145d1565b60405180910390f35b610682611ba7565b60405161068f919061485c565b60405180910390f35b6106b260048036038101906106ad919061408e565b611bad565b6040516106c294939291906148a0565b60405180910390f35b6106d3611c29565b6040516106e0919061485c565b60405180910390f35b61070360048036038101906106fe9190613f4c565b611c2e565b604051610710919061485c565b60405180910390f35b610733600480360381019061072e919061411c565b611ddc565b005b61073d612202565b60405161074a91906147ee565b60405180910390f35b61075b612222565b005b61077760048036038101906107729190613f75565b6123a4565b604051610784919061485c565b60405180910390f35b61079561242b565b6040516107a2919061485c565b60405180910390f35b6107b3612437565b6040516107c0919061485c565b60405180910390f35b6107d161243d565b6040516107de919061444f565b60405180910390f35b6107ef612463565b6040516107fc91906147ee565b60405180910390f35b61081f600480360381019061081a919061408e565b612483565b005b61083b60048036038101906108369190613f4c565b6125b7565b005b61085760048036038101906108529190613f4c565b612760565b005b610861612820565b60405161086f929190614877565b60405180910390f35b6001805461088590614b30565b80601f01602080910402602001604051908101604052809291908181526020018280546108b190614b30565b80156108fe5780601f106108d3576101008083540402835291602001916108fe565b820191906000526020600020905b8154815290600101906020018083116108e157829003601f168201915b505050505081565b6000600860149054906101000a900460ff16610957576040517f08c379a000000000000000000000000000000000000000000000000000000000815260040161094e906146ce565b60405180910390fd5b81600460003373ffffffffffffffffffffffffffffffffffffffff1673ffffffffffffffffffffffffffffffffffffffff16815260200190815260200160002060008573ffffffffffffffffffffffffffffffffffffffff1673ffffffffffffffffffffffffffffffffffffffff168152602001908152602001600020819055508273ffffffffffffffffffffffffffffffffffffffff163373ffffffffffffffffffffffffffffffffffffffff167f8c5be1e5ebec7d5bd14f71427d1e84f3dd0314c0f7b2291e5b200ac8c7c3b92584604051610a35919061485c565b60405180910390a36001905092915050565b600560009054906101000a900473ffffffffffffffffffffffffffffffffffffffff1681565b610a75612a2b565b73ffffffffffffffffffffffffffffffffffffffff16610a936114d3565b73ffffffffffffffffffffffffffffffffffffffff1614610ae9576040517f08c379a0000000000000000000000000000000000000000000000000000000008152600401610ae09061472e565b60405180910390fd5b80600660006101000a81548173ffffffffffffffffffffffffffffffffffffffff021916908373ffffffffffffffffffffffffffffffffffffffff16021790555050565b600080600560009054906101000a900473ffffffffffffffffffffffffffffffffffffffff1673ffffffffffffffffffffffffffffffffffffffff166370a08231306040518263ffffffff1660e01b8152600401610b8b919061444f565b60206040518083038186803b158015610ba357600080fd5b505afa158015610bb7573d6000803e3d6000fd5b505050506040513d601f19601f82011682018060405250810190610bdb91906140b7565b90506000610be7612820565b9150506000610bff828461291190919063ffffffff16565b9050606481610c0e91906149a3565b935050505090565b60106020528060005260406000206000915090508060000160009054906101000a90046fffffffffffffffffffffffffffffffff16908060000160109054906101000a90046fffffffffffffffffffffffffffffffff16908060010160009054906101000a900473ffffffffffffffffffffffffffffffffffffffff16908060020154908060030154905085565b600c5481565b610cb2612a2b565b73ffffffffffffffffffffffffffffffffffffffff16610cd06114d3565b73ffffffffffffffffffffffffffffffffffffffff1614610d26576040517f08c379a0000000000000000000000000000000000000000000000000000000008152600401610d1d9061472e565b60405180910390fd5b80600a819055507f651616d87d2634a1e2cf5e3e860520c4fa7dbb3a2c18e8fa81de2930b0595d58600a54604051610d5e919061485c565b60405180910390a150565b6000600460008573ffffffffffffffffffffffffffffffffffffffff1673ffffffffffffffffffffffffffffffffffffffff16815260200190815260200160002060003373ffffffffffffffffffffffffffffffffffffffff1673ffffffffffffffffffffffffffffffffffffffff16815260200190815260200160002054821115610e2a576040517f08c379a0000000000000000000000000000000000000000000000000000000008152600401610e219061464e565b60405180910390fd5b610e32612a33565b610e3d848484612c7c565b610ecc82600460008773ffffffffffffffffffffffffffffffffffffffff1673ffffffffffffffffffffffffffffffffffffffff16815260200190815260200160002060003373ffffffffffffffffffffffffffffffffffffffff1673ffffffffffffffffffffffffffffffffffffffff1681526020019081526020016000205461304d90919063ffffffff16565b600460008673ffffffffffffffffffffffffffffffffffffffff1673ffffffffffffffffffffffffffffffffffffffff16815260200190815260200160002060003373ffffffffffffffffffffffffffffffffffffffff1673ffffffffffffffffffffffffffffffffffffffff16815260200190815260200160002081905550600190509392505050565b6000610f62826111e5565b9050919050565b600760009054906101000a900473ffffffffffffffffffffffffffffffffffffffff1681565b610f97612a2b565b73ffffffffffffffffffffffffffffffffffffffff16610fb56114d3565b73ffffffffffffffffffffffffffffffffffffffff161461100b576040517f08c379a00000000000000000000000000000000000000000000000000000000081526004016110029061472e565b60405180910390fd5b611013612a33565b80600981905550611045600560009054906101000a900473ffffffffffffffffffffffffffffffffffffffff16613063565b7feca81e4b546cfbc80883349ef5bdaca1c02dc7cb0bdb9e1183cb7698f90bbb8581604051611074919061485c565b60405180910390a150565b600360009054906101000a900460ff1681565b600860149054906101000a900460ff1681565b600d601c9054906101000a900463ffffffff1681565b6000601060008373ffffffffffffffffffffffffffffffffffffffff1673ffffffffffffffffffffffffffffffffffffffff16815260200190815260200160002060010160009054906101000a900473ffffffffffffffffffffffffffffffffffffffff169050919050565b61112f612a2b565b73ffffffffffffffffffffffffffffffffffffffff1661114d6114d3565b73ffffffffffffffffffffffffffffffffffffffff16146111a3576040517f08c379a000000000000000000000000000000000000000000000000000000000815260040161119a9061472e565b60405180910390fd5b80600b8190555050565b600e5481565b600860009054906101000a900473ffffffffffffffffffffffffffffffffffffffff1681565b600b5481565b600a5481565b600060646111f283611c2e565b6111fc91906149a3565b9050919050565b61120b612a2b565b73ffffffffffffffffffffffffffffffffffffffff166112296114d3565b73ffffffffffffffffffffffffffffffffffffffff161461127f576040517f08c379a00000000000000000000000000000000000000000000000000000000081526004016112769061472e565b60405180910390fd5b600073ffffffffffffffffffffffffffffffffffffffff1660008054906101000a900473ffffffffffffffffffffffffffffffffffffffff1673ffffffffffffffffffffffffffffffffffffffff167f8be0079c531659141344cd1fd0a4f28419497f9722a3daafe3b4186f6b6457e060405160405180910390a360008060006101000a81548173ffffffffffffffffffffffffffffffffffffffff021916908373ffffffffffffffffffffffffffffffffffffffff160217905550565b611345612a2b565b73ffffffffffffffffffffffffffffffffffffffff166113636114d3565b73ffffffffffffffffffffffffffffffffffffffff16146113b9576040517f08c379a00000000000000000000000000000000000000000000000000000000081526004016113b09061472e565b60405180910390fd5b80600860146101000a81548160ff0219169083151502179055507f1cef9d219073dee0fbb9f2d32b58c7c0a85a31476bc46847fa800c8f93f4860b8160405161140291906145d1565b60405180910390a150565b611415612a2b565b73ffffffffffffffffffffffffffffffffffffffff166114336114d3565b73ffffffffffffffffffffffffffffffffffffffff1614611489576040517f08c379a00000000000000000000000000000000000000000000000000000000081526004016114809061472e565b60405180910390fd5b80600860006101000a81548173ffffffffffffffffffffffffffffffffffffffff021916908373ffffffffffffffffffffffffffffffffffffffff16021790555050565b600f5481565b60008060009054906101000a900473ffffffffffffffffffffffffffffffffffffffff16905090565b600073ffffffffffffffffffffffffffffffffffffffff168173ffffffffffffffffffffffffffffffffffffffff161415801561156557503373ffffffffffffffffffffffffffffffffffffffff168173ffffffffffffffffffffffffffffffffffffffff1614155b6115a4576040517f08c379a000000000000000000000000000000000000000000000000000000000815260040161159b906146ee565b60405180910390fd5b670de0b6b3a76400008210156115ef576040517f08c379a00000000000000000000000000000000000000000000000000000000081526004016115e69061470e565b60405180910390fd5b6000601060003373ffffffffffffffffffffffffffffffffffffffff1673ffffffffffffffffffffffffffffffffffffffff1681526020019081526020016000209050600073ffffffffffffffffffffffffffffffffffffffff168160010160009054906101000a900473ffffffffffffffffffffffffffffffffffffffff1673ffffffffffffffffffffffffffffffffffffffff1614156117f957600660009054906101000a900473ffffffffffffffffffffffffffffffffffffffff1673ffffffffffffffffffffffffffffffffffffffff168273ffffffffffffffffffffffffffffffffffffffff1614806117765750600073ffffffffffffffffffffffffffffffffffffffff16601060008473ffffffffffffffffffffffffffffffffffffffff1673ffffffffffffffffffffffffffffffffffffffff16815260200190815260200160002060010160009054906101000a900473ffffffffffffffffffffffffffffffffffffffff1673ffffffffffffffffffffffffffffffffffffffff1614155b6117b5576040517f08c379a00000000000000000000000000000000000000000000000000000000081526004016117ac9061478e565b60405180910390fd5b818160010160006101000a81548173ffffffffffffffffffffffffffffffffffffffff021916908373ffffffffffffffffffffffffffffffffffffffff1602179055505b600060115411156118a75760006118338260010160009054906101000a900473ffffffffffffffffffffffffffffffffffffffff16611c2e565b90506011548110156118a557600660009054906101000a900473ffffffffffffffffffffffffffffffffffffffff168260010160006101000a81548173ffffffffffffffffffffffffffffffffffffffff021916908373ffffffffffffffffffffffffffffffffffffffff1602179055505b505b6118af612a33565b6118fe333085600560009054906101000a900473ffffffffffffffffffffffffffffffffffffffff1673ffffffffffffffffffffffffffffffffffffffff16612927909392919063ffffffff16565b600061193684600d60009054906101000a90046dffffffffffffffffffffffffffff166dffffffffffffffffffffffffffff166129b0565b905061194282826131a4565b61196d600560009054906101000a900473ffffffffffffffffffffffffffffffffffffffff16613063565b61197633613492565b6119a38260010160009054906101000a900473ffffffffffffffffffffffffffffffffffffffff16613492565b7f526fc25d42e510f2b329e18b6ab35f874a5f7c0f84409ca6e668a6109eb50d47338486600f546040516119da94939291906144a1565b60405180910390a150505050565b600280546119f590614b30565b80601f0160208091040260200160405190810160405280929190818152602001828054611a2190614b30565b8015611a6e5780601f10611a4357610100808354040283529160200191611a6e565b820191906000526020600020905b815481529060010190602001808311611a5157829003601f168201915b505050505081565b61dead81565b611a84612a2b565b73ffffffffffffffffffffffffffffffffffffffff16611aa26114d3565b73ffffffffffffffffffffffffffffffffffffffff1614611af8576040517f08c379a0000000000000000000000000000000000000000000000000000000008152600401611aef9061472e565b60405180910390fd5b8060118190555050565b611b0a612a2b565b73ffffffffffffffffffffffffffffffffffffffff16611b286114d3565b73ffffffffffffffffffffffffffffffffffffffff1614611b7e576040517f08c379a0000000000000000000000000000000000000000000000000000000008152600401611b759061472e565b60405180910390fd5b80600c8190555050565b6000611b92612a33565b611b9d338484612c7c565b6001905092915050565b60095481565b6000806000806000600c549050611bc48682613586565b9250611bd9838761304d90919063ffffffff16565b9450611be783600a54613586565b9350611bf583600b54613586565b9150611c0a848461304d90919063ffffffff16565b9250611c1f828461304d90919063ffffffff16565b9250509193509193565b606481565b600080601060008473ffffffffffffffffffffffffffffffffffffffff1673ffffffffffffffffffffffffffffffffffffffff1681526020019081526020016000206040518060a00160405290816000820160009054906101000a90046fffffffffffffffffffffffffffffffff166fffffffffffffffffffffffffffffffff166fffffffffffffffffffffffffffffffff1681526020016000820160109054906101000a90046fffffffffffffffffffffffffffffffff166fffffffffffffffffffffffffffffffff166fffffffffffffffffffffffffffffffff1681526020016001820160009054906101000a900473ffffffffffffffffffffffffffffffffffffffff1673ffffffffffffffffffffffffffffffffffffffff1673ffffffffffffffffffffffffffffffffffffffff1681526020016002820154815260200160038201548152505090506000611d85612820565b5090506000611daa83600001516fffffffffffffffffffffffffffffffff1683613586565b90508260600151811115611dcf57826060015181611dc89190614a2e565b9350611dd4565b600093505b505050919050565b338280611de883610f57565b1015611e29576040517f08c379a0000000000000000000000000000000000000000000000000000000008152600401611e209061474e565b60405180910390fd5b611e31612a33565b6000601060003373ffffffffffffffffffffffffffffffffffffffff1673ffffffffffffffffffffffffffffffffffffffff16815260200190815260200160002090506000808515611f3a57611efb611eba8460020154600d60009054906101000a90046dffffffffffffffffffffffffffff166dffffffffffffffffffffffffffff166129b0565b8460000160009054906101000a90046fffffffffffffffffffffffffffffffff166fffffffffffffffffffffffffffffffff1661304d90919063ffffffff16565b9050611f3381600d60009054906101000a90046dffffffffffffffffffffffffffff166dffffffffffffffffffffffffffff16613586565b9150611f89565b611f4e6064886129e790919063ffffffff16565b9150611f8682600d60009054906101000a90046dffffffffffffffffffffffffffff166dffffffffffffffffffffffffffff166129b0565b90505b611f9383826135b6565b600080600080611fa286611bad565b9350935093509350611ff73385600560009054906101000a900473ffffffffffffffffffffffffffffffffffffffff1673ffffffffffffffffffffffffffffffffffffffff16613c089092919063ffffffff16565b60008311156120505761204f61dead84600560009054906101000a900473ffffffffffffffffffffffffffffffffffffffff1673ffffffffffffffffffffffffffffffffffffffff16613c089092919063ffffffff16565b5b60008111156120c9576120c8600760009054906101000a900473ffffffffffffffffffffffffffffffffffffffff1682600560009054906101000a900473ffffffffffffffffffffffffffffffffffffffff1673ffffffffffffffffffffffffffffffffffffffff16613c089092919063ffffffff16565b5b60008211156121515761211c6120e183600f546129b0565b600d60009054906101000a90046dffffffffffffffffffffffffffff166dffffffffffffffffffffffffffff1661291190919063ffffffff16565b600d60006101000a8154816dffffffffffffffffffffffffffff02191690836dffffffffffffffffffffffffffff1602179055505b61217c600560009054906101000a900473ffffffffffffffffffffffffffffffffffffffff16613063565b61218533613492565b6121b28760010160009054906101000a900473ffffffffffffffffffffffffffffffffffffffff16613492565b7fc6667197493d4a3ccac45079c61bae06865a98bc2e9665c6df2d9edc853943fb3385858585600f546040516121ed96959493929190614570565b60405180910390a15050505050505050505050565b600d60009054906101000a90046dffffffffffffffffffffffffffff1681565b61222a612a2b565b73ffffffffffffffffffffffffffffffffffffffff166122486114d3565b73ffffffffffffffffffffffffffffffffffffffff161461229e576040517f08c379a00000000000000000000000000000000000000000000000000000000081526004016122959061472e565b60405180910390fd5b6000600560009054906101000a900473ffffffffffffffffffffffffffffffffffffffff1673ffffffffffffffffffffffffffffffffffffffff166370a08231306040518263ffffffff1660e01b81526004016122fb919061444f565b60206040518083038186803b15801561231357600080fd5b505afa158015612327573d6000803e3d6000fd5b505050506040513d601f19601f8201168201806040525081019061234b91906140b7565b90506123a16123586114d3565b82600560009054906101000a900473ffffffffffffffffffffffffffffffffffffffff1673ffffffffffffffffffffffffffffffffffffffff16613c089092919063ffffffff16565b50565b6000600460008473ffffffffffffffffffffffffffffffffffffffff1673ffffffffffffffffffffffffffffffffffffffff16815260200190815260200160002060008373ffffffffffffffffffffffffffffffffffffffff1673ffffffffffffffffffffffffffffffffffffffff16815260200190815260200160002054905092915050565b67016345785d8a000081565b60115481565b600660009054906101000a900473ffffffffffffffffffffffffffffffffffffffff1681565b600d600e9054906101000a90046dffffffffffffffffffffffffffff1681565b6124d2333083600560009054906101000a900473ffffffffffffffffffffffffffffffffffffffff1673ffffffffffffffffffffffffffffffffffffffff16612927909392919063ffffffff16565b61251c6124e182600f546129b0565b600d60009054906101000a90046dffffffffffffffffffffffffffff166dffffffffffffffffffffffffffff1661291190919063ffffffff16565b600d60006101000a8154816dffffffffffffffffffffffffffff02191690836dffffffffffffffffffffffffffff16021790555061257b600560009054906101000a900473ffffffffffffffffffffffffffffffffffffffff16613063565b7f35110502edf28820cf0a8c129d83c0624d2ed40531479ac88a04540cc5268c2033826040516125ac929190614547565b60405180910390a150565b6125bf612a2b565b73ffffffffffffffffffffffffffffffffffffffff166125dd6114d3565b73ffffffffffffffffffffffffffffffffffffffff1614612633576040517f08c379a000000000000000000000000000000000000000000000000000000000815260040161262a9061472e565b60405180910390fd5b600073ffffffffffffffffffffffffffffffffffffffff168173ffffffffffffffffffffffffffffffffffffffff1614156126a3576040517f08c379a000000000000000000000000000000000000000000000000000000000815260040161269a9061460e565b60405180910390fd5b8073ffffffffffffffffffffffffffffffffffffffff1660008054906101000a900473ffffffffffffffffffffffffffffffffffffffff1673ffffffffffffffffffffffffffffffffffffffff167f8be0079c531659141344cd1fd0a4f28419497f9722a3daafe3b4186f6b6457e060405160405180910390a3806000806101000a81548173ffffffffffffffffffffffffffffffffffffffff021916908373ffffffffffffffffffffffffffffffffffffffff16021790555050565b612768612a2b565b73ffffffffffffffffffffffffffffffffffffffff166127866114d3565b73ffffffffffffffffffffffffffffffffffffffff16146127dc576040517f08c379a00000000000000000000000000000000000000000000000000000000081526004016127d39061472e565b60405180910390fd5b80600760006101000a81548173ffffffffffffffffffffffffffffffffffffffff021916908373ffffffffffffffffffffffffffffffffffffffff16021790555050565b6000806000600d601c9054906101000a900463ffffffff1663ffffffff16141561284d5760009050612881565b600d601c9054906101000a900463ffffffff1663ffffffff16436128719190614a2e565b60095461287e91906149d4565b90505b6000600f5411156128dd576128d661289b82600f546129b0565b600d60009054906101000a90046dffffffffffffffffffffffffffff166dffffffffffffffffffffffffffff1661291190919063ffffffff16565b915061290d565b600d60009054906101000a90046dffffffffffffffffffffffffffff166dffffffffffffffffffffffffffff1691505b9091565b6000818361291f919061494d565b905092915050565b6129aa846323b872dd60e01b8585856040516024016129489392919061446a565b604051602081830303815290604052907bffffffffffffffffffffffffffffffffffffffffffffffffffffffff19166020820180517bffffffffffffffffffffffffffffffffffffffffffffffffffffffff8381831617835250505050613c8e565b50505050565b60006129df826129d1670de0b6b3a7640000866129e790919063ffffffff16565b6129fd90919063ffffffff16565b905092915050565b600081836129f591906149d4565b905092915050565b60008183612a0b91906149a3565b905092915050565b6060612a228484600085613d55565b90509392505050565b600033905090565b600080612a3e612820565b915091506000612a83600d600e9054906101000a90046dffffffffffffffffffffffffffff166dffffffffffffffffffffffffffff168361291190919063ffffffff16565b90506dffffffffffffffffffffffffffff80168311158015612ab557506dffffffffffffffffffffffffffff80168111155b612af4576040517f08c379a0000000000000000000000000000000000000000000000000000000008152600401612aeb906147ae565b60405180910390fd5b82600d60006101000a8154816dffffffffffffffffffffffffffff02191690836dffffffffffffffffffffffffffff16021790555080600d600e6101000a8154816dffffffffffffffffffffffffffff02191690836dffffffffffffffffffffffffffff16021790555043600d601c6101000a81548163ffffffff021916908363ffffffff1602179055506000821115612c7757612bf9600860009054906101000a900473ffffffffffffffffffffffffffffffffffffffff163084600560009054906101000a900473ffffffffffffffffffffffffffffffffffffffff1673ffffffffffffffffffffffffffffffffffffffff16612927909392919063ffffffff16565b612c0e82600e5461291190919063ffffffff16565b600e81905550612c3f600560009054906101000a900473ffffffffffffffffffffffffffffffffffffffff16613063565b7fdee982458f84113ac3e32d44595820a6fa60cfbe80a1bdd444c26599ee5b7dd582604051612c6e919061485c565b60405180910390a15b505050565b600860149054906101000a900460ff16612ccb576040517f08c379a0000000000000000000000000000000000000000000000000000000008152600401612cc2906146ce565b60405180910390fd5b828180612cd783610f57565b1015612d18576040517f08c379a0000000000000000000000000000000000000000000000000000000008152600401612d0f9061474e565b60405180910390fd5b600073ffffffffffffffffffffffffffffffffffffffff168573ffffffffffffffffffffffffffffffffffffffff161415612d88576040517f08c379a0000000000000000000000000000000000000000000000000000000008152600401612d7f9061462e565b60405180910390fd5b600073ffffffffffffffffffffffffffffffffffffffff168473ffffffffffffffffffffffffffffffffffffffff161415612df8576040517f08c379a0000000000000000000000000000000000000000000000000000000008152600401612def9061466e565b60405180910390fd5b8373ffffffffffffffffffffffffffffffffffffffff168573ffffffffffffffffffffffffffffffffffffffff161415612e67576040517f08c379a0000000000000000000000000000000000000000000000000000000008152600401612e5e9061468e565b60405180910390fd5b6000612eab606485612e7991906149d4565b600d60009054906101000a90046dffffffffffffffffffffffffffff166dffffffffffffffffffffffffffff166129b0565b90506000601060008873ffffffffffffffffffffffffffffffffffffffff1673ffffffffffffffffffffffffffffffffffffffff16815260200190815260200160002090506000601060008873ffffffffffffffffffffffffffffffffffffffff1673ffffffffffffffffffffffffffffffffffffffff1681526020019081526020016000209050612f3d82846135b6565b612f4781846131a4565b612f72600560009054906101000a900473ffffffffffffffffffffffffffffffffffffffff16613063565b612f7b88613492565b612fa88260010160009054906101000a900473ffffffffffffffffffffffffffffffffffffffff16613492565b612fb187613492565b612fde8160010160009054906101000a900473ffffffffffffffffffffffffffffffffffffffff16613492565b8673ffffffffffffffffffffffffffffffffffffffff168873ffffffffffffffffffffffffffffffffffffffff167fddf252ad1be2c89b69c2b068fc378daa952ba7f163c4a11628f55a4df523b3ef8860405161303b919061485c565b60405180910390a35050505050505050565b6000818361305b9190614a2e565b905092915050565b7f28534d0ab69d062225c304f03154079414ece8f1498298a0f76a84c1e225e86a8173ffffffffffffffffffffffffffffffffffffffff166318160ddd6040518163ffffffff1660e01b815260040160206040518083038186803b1580156130ca57600080fd5b505afa1580156130de573d6000803e3d6000fd5b505050506040513d601f19601f8201168201806040525081019061310291906140b7565b8273ffffffffffffffffffffffffffffffffffffffff166370a08231306040518263ffffffff1660e01b815260040161313b919061444f565b60206040518083038186803b15801561315357600080fd5b505afa158015613167573d6000803e3d6000fd5b505050506040513d601f19601f8201168201806040525081019061318b91906140b7565b604051613199929190614877565b60405180910390a150565b6fffffffffffffffffffffffffffffffff80168111156131f9576040517f08c379a00000000000000000000000000000000000000000000000000000000081526004016131f0906147ae565b60405180910390fd5b6000601060008460010160009054906101000a900473ffffffffffffffffffffffffffffffffffffffff1673ffffffffffffffffffffffffffffffffffffffff1673ffffffffffffffffffffffffffffffffffffffff168152602001908152602001600020905060006132748367016345785d8a0000613586565b905060006132ae82600d60009054906101000a90046dffffffffffffffffffffffffffff166dffffffffffffffffffffffffffff16613586565b90506132f5848660000160009054906101000a90046fffffffffffffffffffffffffffffffff166fffffffffffffffffffffffffffffffff1661291190919063ffffffff16565b8560000160006101000a8154816fffffffffffffffffffffffffffffffff02191690836fffffffffffffffffffffffffffffffff160217905550613374828660000160109054906101000a90046fffffffffffffffffffffffffffffffff166fffffffffffffffffffffffffffffffff1661291190919063ffffffff16565b8560000160106101000a8154816fffffffffffffffffffffffffffffffff02191690836fffffffffffffffffffffffffffffffff1602179055506133f3828460000160009054906101000a90046fffffffffffffffffffffffffffffffff166fffffffffffffffffffffffffffffffff1661291190919063ffffffff16565b8360000160006101000a8154816fffffffffffffffffffffffffffffffff02191690836fffffffffffffffffffffffffffffffff16021790555061344481846002015461291190919063ffffffff16565b6fffffffffffffffffffffffffffffffff1683600201819055506134858261347786600f5461291190919063ffffffff16565b61291190919063ffffffff16565b600f819055505050505050565b6000601060008373ffffffffffffffffffffffffffffffffffffffff1673ffffffffffffffffffffffffffffffffffffffff16815260200190815260200160002090507ffa1f27e78b9c9fd9e728118a801ececb1599002acdfea81c03bd90e93fbcf344828260000160009054906101000a90046fffffffffffffffffffffffffffffffff168360000160109054906101000a90046fffffffffffffffffffffffffffffffff168460010160009054906101000a900473ffffffffffffffffffffffffffffffffffffffff168560020154866003015460405161357a969594939291906144e6565b60405180910390a15050565b6000670de0b6b3a76400006135a483856129e790919063ffffffff16565b6135ae91906149a3565b905092915050565b6135fb818360000160009054906101000a90046fffffffffffffffffffffffffffffffff166fffffffffffffffffffffffffffffffff1661304d90919063ffffffff16565b8260000160006101000a8154816fffffffffffffffffffffffffffffffff02191690836fffffffffffffffffffffffffffffffff16021790555060006136718360020154600d60009054906101000a90046dffffffffffffffffffffffffffff166dffffffffffffffffffffffffffff166129b0565b9050808360000160009054906101000a90046fffffffffffffffffffffffffffffffff166fffffffffffffffffffffffffffffffff161115613731576136f2818460000160009054906101000a90046fffffffffffffffffffffffffffffffff166fffffffffffffffffffffffffffffffff1661304d90919063ffffffff16565b8360000160006101000a8154816fffffffffffffffffffffffffffffffff02191690836fffffffffffffffffffffffffffffffff1602179055506137a3565b8260000160009054906101000a90046fffffffffffffffffffffffffffffffff166fffffffffffffffffffffffffffffffff16905060008360000160006101000a8154816fffffffffffffffffffffffffffffffff02191690836fffffffffffffffffffffffffffffffff1602179055505b6137be8360020154846003015461291190919063ffffffff16565b83600301819055506000836002018190555060006137e48367016345785d8a0000613586565b9050808460000160109054906101000a90046fffffffffffffffffffffffffffffffff166fffffffffffffffffffffffffffffffff161115613826578061385a565b8360000160109054906101000a90046fffffffffffffffffffffffffffffffff166fffffffffffffffffffffffffffffffff165b90506138a1818560000160109054906101000a90046fffffffffffffffffffffffffffffffff166fffffffffffffffffffffffffffffffff1661304d90919063ffffffff16565b8460000160106101000a8154816fffffffffffffffffffffffffffffffff02191690836fffffffffffffffffffffffffffffffff160217905550600061391382600d60009054906101000a90046dffffffffffffffffffffffffffff166dffffffffffffffffffffffffffff16613586565b90506000601060008760010160009054906101000a900473ffffffffffffffffffffffffffffffffffffffff1673ffffffffffffffffffffffffffffffffffffffff1673ffffffffffffffffffffffffffffffffffffffff16815260200190815260200160002090508060030154821115613a145760006139c48260030154600d60009054906101000a90046dffffffffffffffffffffffffffff166dffffffffffffffffffffffffffff166129b0565b9050838110156139e6576139e1818561304d90919063ffffffff16565b6139e9565b60005b9350613a0282600301548461304d90919063ffffffff16565b92506000826003018190555050613a3c565b613a2b82826003015461304d90919063ffffffff16565b816003018190555060009150600092505b6000613a788260020154600d60009054906101000a90046dffffffffffffffffffffffffffff166dffffffffffffffffffffffffffff166129b0565b9050808410613b0f5760008260020181905550613ad0818360000160009054906101000a90046fffffffffffffffffffffffffffffffff166fffffffffffffffffffffffffffffffff1661304d90919063ffffffff16565b8260000160006101000a8154816fffffffffffffffffffffffffffffffff02191690836fffffffffffffffffffffffffffffffff160217905550613bc0565b613b2683836002015461304d90919063ffffffff16565b6fffffffffffffffffffffffffffffffff168260020181905550613b85848360000160009054906101000a90046fffffffffffffffffffffffffffffffff166fffffffffffffffffffffffffffffffff1661304d90919063ffffffff16565b8260000160006101000a8154816fffffffffffffffffffffffffffffffff02191690836fffffffffffffffffffffffffffffffff1602179055505b613bf985613beb86613bdd8a600f5461304d90919063ffffffff16565b61304d90919063ffffffff16565b61304d90919063ffffffff16565b600f8190555050505050505050565b613c898363a9059cbb60e01b8484604051602401613c27929190614547565b604051602081830303815290604052907bffffffffffffffffffffffffffffffffffffffffffffffffffffffff19166020820180517bffffffffffffffffffffffffffffffffffffffffffffffffffffffff8381831617835250505050613c8e565b505050565b6000613cf0826040518060400160405280602081526020017f5361666545524332303a206c6f772d6c6576656c2063616c6c206661696c65648152508573ffffffffffffffffffffffffffffffffffffffff16612a139092919063ffffffff16565b9050600081511115613d505780806020019051810190613d109190614065565b613d4f576040517f08c379a0000000000000000000000000000000000000000000000000000000008152600401613d46906147ce565b60405180910390fd5b5b505050565b606082471015613d9a576040517f08c379a0000000000000000000000000000000000000000000000000000000008152600401613d91906146ae565b60405180910390fd5b613da385613e69565b613de2576040517f08c379a0000000000000000000000000000000000000000000000000000000008152600401613dd99061476e565b60405180910390fd5b6000808673ffffffffffffffffffffffffffffffffffffffff168587604051613e0b9190614438565b60006040518083038185875af1925050503d8060008114613e48576040519150601f19603f3d011682016040523d82523d6000602084013e613e4d565b606091505b5091509150613e5d828286613e7c565b92505050949350505050565b600080823b905060008111915050919050565b60608315613e8c57829050613edc565b600083511115613e9f5782518084602001fd5b816040517f08c379a0000000000000000000000000000000000000000000000000000000008152600401613ed391906145ec565b60405180910390fd5b9392505050565b600081359050613ef281614f71565b92915050565b600081359050613f0781614f88565b92915050565b600081519050613f1c81614f88565b92915050565b600081359050613f3181614f9f565b92915050565b600081519050613f4681614f9f565b92915050565b600060208284031215613f5e57600080fd5b6000613f6c84828501613ee3565b91505092915050565b60008060408385031215613f8857600080fd5b6000613f9685828601613ee3565b9250506020613fa785828601613ee3565b9150509250929050565b600080600060608486031215613fc657600080fd5b6000613fd486828701613ee3565b9350506020613fe586828701613ee3565b9250506040613ff686828701613f22565b9150509250925092565b6000806040838503121561401357600080fd5b600061402185828601613ee3565b925050602061403285828601613f22565b9150509250929050565b60006020828403121561404e57600080fd5b600061405c84828501613ef8565b91505092915050565b60006020828403121561407757600080fd5b600061408584828501613f0d565b91505092915050565b6000602082840312156140a057600080fd5b60006140ae84828501613f22565b91505092915050565b6000602082840312156140c957600080fd5b60006140d784828501613f37565b91505092915050565b600080604083850312156140f357600080fd5b600061410185828601613f22565b925050602061411285828601613ee3565b9150509250929050565b6000806040838503121561412f57600080fd5b600061413d85828601613f22565b925050602061414e85828601613ef8565b9150509250929050565b61416181614a62565b82525050565b61417081614a74565b82525050565b60006141818261491b565b61418b8185614931565b935061419b818560208601614afd565b80840191505092915050565b60006141b282614926565b6141bc818561493c565b93506141cc818560208601614afd565b6141d581614bef565b840191505092915050565b60006141ed60268361493c565b91506141f882614c00565b604082019050919050565b6000614210601e8361493c565b915061421b82614c4f565b602082019050919050565b600061423360148361493c565b915061423e82614c78565b602082019050919050565b6000614256601c8361493c565b915061426182614ca1565b602082019050919050565b6000614279601a8361493c565b915061428482614cca565b602082019050919050565b600061429c60268361493c565b91506142a782614cf3565b604082019050919050565b60006142bf60218361493c565b91506142ca82614d42565b604082019050919050565b60006142e2601d8361493c565b91506142ed82614d91565b602082019050919050565b600061430560258361493c565b915061431082614dba565b604082019050919050565b600061432860208361493c565b915061433382614e09565b602082019050919050565b600061434b60288361493c565b915061435682614e32565b604082019050919050565b600061436e601d8361493c565b915061437982614e81565b602082019050919050565b600061439160258361493c565b915061439c82614eaa565b604082019050919050565b60006143b460088361493c565b91506143bf82614ef9565b602082019050919050565b60006143d7602a8361493c565b91506143e282614f22565b604082019050919050565b6143f681614a80565b82525050565b61440581614a9a565b82525050565b61441481614ad6565b82525050565b61442381614ae0565b82525050565b61443281614af0565b82525050565b60006144448284614176565b915081905092915050565b60006020820190506144646000830184614158565b92915050565b600060608201905061447f6000830186614158565b61448c6020830185614158565b614499604083018461440b565b949350505050565b60006080820190506144b66000830187614158565b6144c36020830186614158565b6144d0604083018561440b565b6144dd606083018461440b565b95945050505050565b600060c0820190506144fb6000830189614158565b61450860208301886143fc565b61451560408301876143fc565b6145226060830186614158565b61452f608083018561440b565b61453c60a083018461440b565b979650505050505050565b600060408201905061455c6000830185614158565b614569602083018461440b565b9392505050565b600060c0820190506145856000830189614158565b614592602083018861440b565b61459f604083018761440b565b6145ac606083018661440b565b6145b9608083018561440b565b6145c660a083018461440b565b979650505050505050565b60006020820190506145e66000830184614167565b92915050565b6000602082019050818103600083015261460681846141a7565b905092915050565b60006020820190508181036000830152614627816141e0565b9050919050565b6000602082019050818103600083015261464781614203565b9050919050565b6000602082019050818103600083015261466781614226565b9050919050565b6000602082019050818103600083015261468781614249565b9050919050565b600060208201905081810360008301526146a78161426c565b9050919050565b600060208201905081810360008301526146c78161428f565b9050919050565b600060208201905081810360008301526146e7816142b2565b9050919050565b60006020820190508181036000830152614707816142d5565b9050919050565b60006020820190508181036000830152614727816142f8565b9050919050565b600060208201905081810360008301526147478161431b565b9050919050565b600060208201905081810360008301526147678161433e565b9050919050565b6000602082019050818103600083015261478781614361565b9050919050565b600060208201905081810360008301526147a781614384565b9050919050565b600060208201905081810360008301526147c7816143a7565b9050919050565b600060208201905081810360008301526147e7816143ca565b9050919050565b600060208201905061480360008301846143ed565b92915050565b600060a08201905061481e60008301886143fc565b61482b60208301876143fc565b6148386040830186614158565b614845606083018561440b565b614852608083018461440b565b9695505050505050565b6000602082019050614871600083018461440b565b92915050565b600060408201905061488c600083018561440b565b614899602083018461440b565b9392505050565b60006080820190506148b5600083018761440b565b6148c2602083018661440b565b6148cf604083018561440b565b6148dc606083018461440b565b95945050505050565b60006020820190506148fa600083018461441a565b92915050565b60006020820190506149156000830184614429565b92915050565b600081519050919050565b600081519050919050565b600081905092915050565b600082825260208201905092915050565b600061495882614ad6565b915061496383614ad6565b9250827fffffffffffffffffffffffffffffffffffffffffffffffffffffffffffffffff0382111561499857614997614b62565b5b828201905092915050565b60006149ae82614ad6565b91506149b983614ad6565b9250826149c9576149c8614b91565b5b828204905092915050565b60006149df82614ad6565b91506149ea83614ad6565b9250817fffffffffffffffffffffffffffffffffffffffffffffffffffffffffffffffff0483118215151615614a2357614a22614b62565b5b828202905092915050565b6000614a3982614ad6565b9150614a4483614ad6565b925082821015614a5757614a56614b62565b5b828203905092915050565b6000614a6d82614ab6565b9050919050565b60008115159050919050565b60006dffffffffffffffffffffffffffff82169050919050565b60006fffffffffffffffffffffffffffffffff82169050919050565b600073ffffffffffffffffffffffffffffffffffffffff82169050919050565b6000819050919050565b600063ffffffff82169050919050565b600060ff82169050919050565b60005b83811015614b1b578082015181840152602081019050614b00565b83811115614b2a576000848401525b50505050565b60006002820490506001821680614b4857607f821691505b60208210811415614b5c57614b5b614bc0565b5b50919050565b7f4e487b7100000000000000000000000000000000000000000000000000000000600052601160045260246000fd5b7f4e487b7100000000000000000000000000000000000000000000000000000000600052601260045260246000fd5b7f4e487b7100000000000000000000000000000000000000000000000000000000600052602260045260246000fd5b6000601f19601f8301169050919050565b7f4f776e61626c653a206e6577206f776e657220697320746865207a65726f206160008201527f6464726573730000000000000000000000000000000000000000000000000000602082015250565b7f7472616e736665722066726f6d20746865207a65726f20616464726573730000600082015250565b7f414c4c4f57414e43455f4e4f545f454e4f554748000000000000000000000000600082015250565b7f7472616e7366657220746f20746865207a65726f206164647265737300000000600082015250565b7f7472616e736665722066726f6d2073616d65207769746820746f000000000000600082015250565b7f416464726573733a20696e73756666696369656e742062616c616e636520666f60008201527f722063616c6c0000000000000000000000000000000000000000000000000000602082015250565b7f76434149524f546f6b656e3a206e6f7420616c6c6f776564207472616e73666560008201527f7200000000000000000000000000000000000000000000000000000000000000602082015250565b7f76434149524f546f6b656e3a205375706572696f7220494e56414c4944000000600082015250565b7f76434149524f546f6b656e3a206d757374206d696e742067726561746572207460008201527f68616e2031000000000000000000000000000000000000000000000000000000602082015250565b7f4f776e61626c653a2063616c6c6572206973206e6f7420746865206f776e6572600082015250565b7f76434149524f546f6b656e3a20617661696c61626c6520616d6f756e74206e6f60008201527f7420656e6f756768000000000000000000000000000000000000000000000000602082015250565b7f416464726573733a2063616c6c20746f206e6f6e2d636f6e7472616374000000600082015250565b7f76434149524f546f6b656e3a20494e56414c49445f5355504552494f525f414460008201527f4452455353000000000000000000000000000000000000000000000000000000602082015250565b7f4f564552464c4f57000000000000000000000000000000000000000000000000600082015250565b7f5361666545524332303a204552433230206f7065726174696f6e20646964206e60008201527f6f74207375636365656400000000000000000000000000000000000000000000602082015250565b614f7a81614a62565b8114614f8557600080fd5b50565b614f9181614a74565b8114614f9c57600080fd5b50565b614fa881614ad6565b8114614fb357600080fd5b5056fea2646970667358221220e40ecc07467e3705171bda0e0d1197ebebf9d8547669bd2204712a1c828298ca64736f6c63430008040033",
  "linkReferences": {},
  "deployedLinkReferences": {}
}