{
  "_format": "hh-sol-artifact-1",
  "contractName": "CairoFactory",
  "sourceName": "contracts/swap/CairoFactory.sol",
  "abi": [
    {
      "inputs": [
        {
          "internalType": "address",
          "name": "_feeToSetter",
          "type": "address"
        }
      ],
      "stateMutability": "nonpayable",
      "type": "constructor"
    },
    {
      "anonymous": false,
      "inputs": [
        {
          "indexed": true,
          "internalType": "address",
          "name": "token0",
          "type": "address"
        },
        {
          "indexed": true,
          "internalType": "address",
          "name": "token1",
          "type": "address"
        },
        {
          "indexed": false,
          "internalType": "address",
          "name": "pair",
          "type": "address"
        },
        {
          "indexed": false,
          "internalType": "uint256",
          "name": "",
          "type": "uint256"
        }
      ],
      "name": "PairCreated",
      "type": "event"
    },
    {
      "inputs": [],
      "name": "INIT_CODE_PAIR_HASH",
      "outputs": [
        {
          "internalType": "bytes32",
          "name": "",
          "type": "bytes32"
        }
      ],
      "stateMutability": "view",
      "type": "function"
    },
    {
      "inputs": [
        {
          "internalType": "uint256",
          "name": "",
          "type": "uint256"
        }
      ],
      "name": "allPairs",
      "outputs": [
        {
          "internalType": "address",
          "name": "",
          "type": "address"
        }
      ],
      "stateMutability": "view",
      "type": "function"
    },
    {
      "inputs": [],
      "name": "allPairsLength",
      "outputs": [
        {
          "internalType": "uint256",
          "name": "",
          "type": "uint256"
        }
      ],
      "stateMutability": "view",
      "type": "function"
    },
    {
      "inputs": [
        {
          "internalType": "address",
          "name": "tokenA",
          "type": "address"
        },
        {
          "internalType": "address",
          "name": "tokenB",
          "type": "address"
        }
      ],
      "name": "createPair",
      "outputs": [
        {
          "internalType": "address",
          "name": "pair",
          "type": "address"
        }
      ],
      "stateMutability": "nonpayable",
      "type": "function"
    },
    {
      "inputs": [
        {
          "internalType": "address",
          "name": "token0",
          "type": "address"
        },
        {
          "internalType": "address",
          "name": "token1",
          "type": "address"
        }
      ],
      "name": "expectPairFor",
      "outputs": [
        {
          "internalType": "address",
          "name": "",
          "type": "address"
        }
      ],
      "stateMutability": "view",
      "type": "function"
    },
    {
      "inputs": [],
      "name": "feeTo",
      "outputs": [
        {
          "internalType": "address",
          "name": "",
          "type": "address"
        }
      ],
      "stateMutability": "view",
      "type": "function"
    },
    {
      "inputs": [],
      "name": "feeToSetter",
      "outputs": [
        {
          "internalType": "address",
          "name": "",
          "type": "address"
        }
      ],
      "stateMutability": "view",
      "type": "function"
    },
    {
      "inputs": [
        {
          "internalType": "address",
          "name": "",
          "type": "address"
        },
        {
          "internalType": "address",
          "name": "",
          "type": "address"
        }
      ],
      "name": "getPair",
      "outputs": [
        {
          "internalType": "address",
          "name": "",
          "type": "address"
        }
      ],
      "stateMutability": "view",
      "type": "function"
    },
    {
      "inputs": [
        {
          "internalType": "address",
          "name": "_feeTo",
          "type": "address"
        }
      ],
      "name": "setFeeTo",
      "outputs": [],
      "stateMutability": "nonpayable",
      "type": "function"
    },
    {
      "inputs": [
        {
          "internalType": "address",
          "name": "_feeToSetter",
          "type": "address"
        }
      ],
      "name": "setFeeToSetter",
      "outputs": [],
      "stateMutability": "nonpayable",
      "type": "function"
    }
  ],
  "bytecode": "0x608060405234801561001057600080fd5b50604051612c00380380612c0083398101604081905261002f91610054565b600180546001600160a01b0319166001600160a01b0392909216919091179055610082565b600060208284031215610065578081fd5b81516001600160a01b038116811461007b578182fd5b9392505050565b612b6f806100916000396000f3fe608060405234801561001057600080fd5b506004361061008e5760003560e01c8063017e7e5814610093578063094b7415146100c35780631e3dd18b146100d6578063574f2ba3146100e95780635855a25a146100fb57806368942ce414610103578063a2e74af614610116578063c9c653961461012b578063e6a439051461013e578063f46901ed14610172575b600080fd5b6000546100a6906001600160a01b031681565b6040516001600160a01b0390911681526020015b60405180910390f35b6001546100a6906001600160a01b031681565b6100a66100e4366004610699565b610185565b6003545b6040519081526020016100ba565b6100ed6101af565b6100a6610111366004610661565b6101f9565b610129610124366004610629565b61020d565b005b6100a6610139366004610661565b610262565b6100a661014c366004610661565b60026020908152600092835260408084209091529082529020546001600160a01b031681565b610129610180366004610629565b610547565b6003818154811061019557600080fd5b6000918252602090912001546001600160a01b0316905081565b6040516101be6020820161061c565b601f1982820381018352601f9091011660408190526101e091906020016106b1565b6040516020818303038152906040528051906020012081565b6000610206308484610593565b9392505050565b6001546001600160a01b031633146102405760405162461bcd60e51b815260040161023790610704565b60405180910390fd5b600180546001600160a01b0319166001600160a01b0392909216919091179055565b6000816001600160a01b0316836001600160a01b031614156102c35760405162461bcd60e51b815260206004820152601a602482015279436169726f3a204944454e544943414c5f41444452455353455360301b6044820152606401610237565b600080836001600160a01b0316856001600160a01b0316106102e65783856102e9565b84845b90925090506001600160a01b03821661033a5760405162461bcd60e51b8152602060048201526013602482015272436169726f3a205a45524f5f4144445245535360681b6044820152606401610237565b6001600160a01b038281166000908152600260209081526040808320858516845290915290205416156103a45760405162461bcd60e51b8152602060048201526012602482015271436169726f3a20504149525f45584953545360701b6044820152606401610237565b6000604051806020016103b69061061c565b601f1982820381018352601f9091011660408190526001600160601b0319606086811b8216602084015285901b166034820152909150600090604801604051602081830303815290604052805190602001209050808251602084016000f560405163485cc95560e01b81529095506001600160a01b0386169063485cc9559061044590879087906004016106ea565b600060405180830381600087803b15801561045f57600080fd5b505af1158015610473573d6000803e3d6000fd5b505050506001600160a01b0384811660008181526002602081815260408084208987168086529083528185208054978d166001600160a01b031998891681179091559383528185208686528352818520805488168517905560038054600181018255958190527fc2575a0e9e593c00f959f8c92f12db2869c3395a3b0502d05e2516446f71f85b9095018054909716841790965592548351928352908201527f0d3648bd0f6ba80134a33ba9275ac585d9d315f0ad8355cddefde31afa28d0e9910160405180910390a35050505092915050565b6001546001600160a01b031633146105715760405162461bcd60e51b815260040161023790610704565b600080546001600160a01b0319166001600160a01b0392909216919091179055565b60405163e6a4390560e01b81526000906001600160a01b0385169063e6a43905906105c490869086906004016106ea565b60206040518083038186803b1580156105dc57600080fd5b505afa1580156105f0573d6000803e3d6000fd5b505050506040513d601f19601f820116820180604052508101906106149190610645565b949350505050565b6123f38061074783390190565b60006020828403121561063a578081fd5b81356102068161072e565b600060208284031215610656578081fd5b81516102068161072e565b60008060408385031215610673578081fd5b823561067e8161072e565b9150602083013561068e8161072e565b809150509250929050565b6000602082840312156106aa578081fd5b5035919050565b60008251815b818110156106d157602081860181015185830152016106b7565b818111156106df5782828501525b509190910192915050565b6001600160a01b0392831681529116602082015260400190565b60208082526010908201526f21b0b4b9379d102327a92124a22222a760811b604082015260600190565b6001600160a01b038116811461074357600080fd5b5056fe60806040526001600c5534801561001557600080fd5b506040805180820182526009815268436169726f204c507360b81b6020918201528151808301835260018152603160f81b9082015281517f8b73c3c69bb8fe3d512ecc4cf759cc79239f7b179b0ffacaa9a75d522b39400f818301527f6a99e9069b19ccc197e0f6f83886d84c20477ef3a69329e3d99b046d37a4d274818401527fc89efdaa54c0f20c7adf612882df0950f5a951637e0307cdcb4c672f298b8bc660608201524660808201523060a0808301919091528351808303909101815260c09091019092528151910120600355600580546001600160a01b031916331790556122ec806101076000396000f3fe608060405234801561001057600080fd5b50600436106101495760003560e01c8063022c0d9f1461014e57806306fdde03146101635780630902f1ac146101a1578063095ea7b3146101d55780630dfe1681146101f857806318160ddd1461021857806323b872dd1461022f57806330adf81f14610242578063313ce567146102575780633644e51514610271578063485cc9551461027a5780635909c0d51461028d5780635a3d5493146102965780636a6278421461029f57806370a08231146102b25780637464fc3d146102d25780637ecebe00146102db57806389afcb44146102fb57806395d89b4114610323578063a9059cbb1461034a578063ba9a7a561461035d578063bc25cf7714610366578063c45a015514610379578063d21220a71461038c578063d505accf1461039f578063dd62ed3e146103b2578063fff6cae9146103dd575b600080fd5b61016161015c366004611f91565b6103e5565b005b61018b60405180604001604052806009815260200168436169726f204c507360b81b81525081565b604051610198919061209d565b60405180910390f35b6101a96108f1565b604080516001600160701b03948516815293909216602084015263ffffffff1690820152606001610198565b6101e86101e3366004611f2e565b61091b565b6040519015158152602001610198565b60065461020b906001600160a01b031681565b604051610198919061203d565b61022160005481565b604051908152602001610198565b6101e861023d366004611e79565b610932565b61022160008051602061229783398151915281565b61025f601281565b60405160ff9091168152602001610198565b61022160035481565b610161610288366004611e41565b6109c6565b61022160095481565b610221600a5481565b6102216102ad366004611e09565b610a41565b6102216102c0366004611e09565b60016020526000908152604090205481565b610221600b5481565b6102216102e9366004611e09565b60046020526000908152604090205481565b61030e610309366004611e09565b610d29565b60408051928352602083019190915201610198565b61018b604051806040016040528060088152602001670436169726f2d4c560c41b81525081565b6101e8610358366004611f2e565b611119565b6102216103e881565b610161610374366004611e09565b611126565b60055461020b906001600160a01b031681565b60075461020b906001600160a01b031681565b6101616103ad366004611eb9565b611253565b6102216103c0366004611e41565b600260209081526000928352604080842090915290825290205481565b61016161144c565b600c546001146104105760405162461bcd60e51b8152600401610407906120d0565b60405180910390fd5b6000600c55841515806104235750600084115b6104795760405162461bcd60e51b815260206004820152602160248201527f436169726f3a20494e53554646494349454e545f4f55545055545f414d4f554e6044820152601560fa1b6064820152608401610407565b6000806104846108f1565b5091509150816001600160701b0316871080156104a95750806001600160701b031686105b6104f55760405162461bcd60e51b815260206004820152601d60248201527f436169726f3a20494e53554646494349454e545f4c49515549444954590000006044820152606401610407565b60065460075460009182916001600160a01b039182169190811690891682148015906105335750806001600160a01b0316896001600160a01b031614155b6105735760405162461bcd60e51b8152602060048201526011602482015270436169726f3a20494e56414c49445f544f60781b6044820152606401610407565b8a1561058457610584828a8d611598565b891561059557610595818a8c611598565b861561060257604051632bd5ee2b60e01b81526001600160a01b038a1690632bd5ee2b906105cf9033908f908f908e908e90600401612051565b600060405180830381600087803b1580156105e957600080fd5b505af11580156105fd573d6000803e3d6000fd5b505050505b6040516370a0823160e01b81526001600160a01b038316906370a082319061062e90309060040161203d565b60206040518083038186803b15801561064657600080fd5b505afa15801561065a573d6000803e3d6000fd5b505050506040513d601f19601f8201168201806040525081019061067e9190611f79565b6040516370a0823160e01b81529094506001600160a01b038216906370a08231906106ad90309060040161203d565b60206040518083038186803b1580156106c557600080fd5b505afa1580156106d9573d6000803e3d6000fd5b505050506040513d601f19601f820116820180604052508101906106fd9190611f79565b92505050600089856001600160701b03166107189190612197565b8311610725576000610742565b6107388a6001600160701b038716612197565b6107429084612197565b905060006107598a6001600160701b038716612197565b8311610766576000610783565b6107798a6001600160701b038716612197565b6107839084612197565b905060008211806107945750600081115b6107e05760405162461bcd60e51b815260206004820181905260248201527f436169726f3a20494e53554646494349454e545f494e5055545f414d4f554e546044820152606401610407565b60006108026107f08460026116d8565b6107fc876103e86116d8565b9061175e565b905060006108146107f08460026116d8565b9050610839620f42406108336001600160701b038b8116908b166116d8565b906116d8565b61084383836116d8565b101561087c5760405162461bcd60e51b8152602060048201526008602482015267436169726f3a204b60c01b6044820152606401610407565b505061088a848488886117a0565b60408051838152602081018390529081018c9052606081018b90526001600160a01b038a169033907fd78ad95fa46c994b6551d0da85fc275fe613ce37657fb8d5e3d130840159d8229060800160405180910390a350506001600c55505050505050505050565b6008546001600160701b0380821692600160701b830490911691600160e01b900463ffffffff1690565b6000610928338484611987565b5060015b92915050565b6001600160a01b0383166000908152600260209081526040808320338452909152812054600019146109b1576001600160a01b038416600090815260026020908152604080832033845290915290205461098c908361175e565b6001600160a01b03851660009081526002602090815260408083203384529091529020555b6109bc8484846119e9565b5060019392505050565b6005546001600160a01b03163314610a135760405162461bcd60e51b815260206004820152601060248201526f21b0b4b9379d102327a92124a22222a760811b6044820152606401610407565b600680546001600160a01b039384166001600160a01b03199182161790915560078054929093169116179055565b6000600c54600114610a655760405162461bcd60e51b8152600401610407906120d0565b6000600c81905580610a756108f1565b506006546040516370a0823160e01b81529294509092506000916001600160a01b03909116906370a0823190610aaf90309060040161203d565b60206040518083038186803b158015610ac757600080fd5b505afa158015610adb573d6000803e3d6000fd5b505050506040513d601f19601f82011682018060405250810190610aff9190611f79565b6007546040516370a0823160e01b81529192506000916001600160a01b03909116906370a0823190610b3590309060040161203d565b60206040518083038186803b158015610b4d57600080fd5b505afa158015610b61573d6000803e3d6000fd5b505050506040513d601f19601f82011682018060405250810190610b859190611f79565b90506000610b9c836001600160701b03871661175e565b90506000610bb3836001600160701b03871661175e565b90506000610bc18787611a7d565b60005490915080610bf857610be46103e86107fc610bdf87876116d8565b611bc9565b9850610bf360006103e8611c39565b610c3f565b610c3c6001600160701b038916610c0f86846116d8565b610c199190612135565b6001600160701b038916610c2d86856116d8565b610c379190612135565b611cb6565b98505b60008911610c9b5760405162461bcd60e51b8152602060048201526024808201527f436169726f3a20494e53554646494349454e545f4c49515549444954595f4d496044820152631395115160e21b6064820152608401610407565b610ca58a8a611c39565b610cb186868a8a6117a0565b8115610cdb57600854610cd7906001600160701b0380821691600160701b9004166116d8565b600b555b604080518581526020810185905233917f4c209b5fc8ad50758f13e2e1088ba56a560dff690a1c6fef26394f4c03821c4f910160405180910390a250506001600c5550949695505050505050565b600080600c54600114610d4e5760405162461bcd60e51b8152600401610407906120d0565b6000600c81905580610d5e6108f1565b506006546007546040516370a0823160e01b81529395509193506001600160a01b039081169291169060009083906370a0823190610da090309060040161203d565b60206040518083038186803b158015610db857600080fd5b505afa158015610dcc573d6000803e3d6000fd5b505050506040513d601f19601f82011682018060405250810190610df09190611f79565b90506000826001600160a01b03166370a08231306040518263ffffffff1660e01b8152600401610e20919061203d565b60206040518083038186803b158015610e3857600080fd5b505afa158015610e4c573d6000803e3d6000fd5b505050506040513d601f19601f82011682018060405250810190610e709190611f79565b30600090815260016020526040812054919250610e8d8888611a7d565b60005490915080610ed45760405162461bcd60e51b8152602060048201526011602482015270696e666c75656e63652062616c616e636560781b6044820152606401610407565b80610edf84876116d8565b610ee99190612135565b9a5080610ef684866116d8565b610f009190612135565b995060008b118015610f12575060008a115b610f6a5760405162461bcd60e51b8152602060048201526024808201527f436169726f3a20494e53554646494349454e545f4c49515549444954595f42556044820152631493915160e21b6064820152608401610407565b610f743084611ccc565b610f7f878d8d611598565b610f8a868d8c611598565b6040516370a0823160e01b81526001600160a01b038816906370a0823190610fb690309060040161203d565b60206040518083038186803b158015610fce57600080fd5b505afa158015610fe2573d6000803e3d6000fd5b505050506040513d601f19601f820116820180604052508101906110069190611f79565b6040516370a0823160e01b81529095506001600160a01b038716906370a082319061103590309060040161203d565b60206040518083038186803b15801561104d57600080fd5b505afa158015611061573d6000803e3d6000fd5b505050506040513d601f19601f820116820180604052508101906110859190611f79565b935061109385858b8b6117a0565b81156110bd576008546110b9906001600160701b0380821691600160701b9004166116d8565b600b555b604080518c8152602081018c90526001600160a01b038e169133917fdccd412f0b1252819cb1fd330b93224ca42612892bb3f4f789976e6d81936496910160405180910390a35050505050505050506001600c81905550915091565b60006109283384846119e9565b600c546001146111485760405162461bcd60e51b8152600401610407906120d0565b6000600c556006546007546008546040516370a0823160e01b81526001600160a01b0393841693909216916111f691849186916111f1916001600160701b039091169084906370a08231906111a190309060040161203d565b60206040518083038186803b1580156111b957600080fd5b505afa1580156111cd573d6000803e3d6000fd5b505050506040513d601f19601f820116820180604052508101906107fc9190611f79565b611598565b61124981846111f16008600e9054906101000a90046001600160701b03166001600160701b0316856001600160a01b03166370a08231306040518263ffffffff1660e01b81526004016111a1919061203d565b50506001600c5550565b428410156112945760405162461bcd60e51b815260206004820152600e60248201526d10d85a5c9bce881156141254915160921b6044820152606401610407565b6003546001600160a01b03881660009081526004602052604081208054919291600080516020612297833981519152918b918b918b9190876112d583612203565b909155506040805160208101969096526001600160a01b0394851690860152929091166060840152608083015260a082015260c0810187905260e0016040516020818303038152906040528051906020012060405160200161134e92919061190160f01b81526002810192909252602282015260420190565b60408051601f198184030181528282528051602091820120600080855291840180845281905260ff88169284019290925260608301869052608083018590529092509060019060a0016020604051602081039080840390855afa1580156113b9573d6000803e3d6000fd5b5050604051601f1901519150506001600160a01b038116158015906113ef5750886001600160a01b0316816001600160a01b0316145b6114365760405162461bcd60e51b8152602060048201526018602482015277436169726f3a20494e56414c49445f5349474e415455524560401b6044820152606401610407565b611441898989611987565b505050505050505050565b600c5460011461146e5760405162461bcd60e51b8152600401610407906120d0565b6000600c556006546040516370a0823160e01b8152611591916001600160a01b0316906370a08231906114a590309060040161203d565b60206040518083038186803b1580156114bd57600080fd5b505afa1580156114d1573d6000803e3d6000fd5b505050506040513d601f19601f820116820180604052508101906114f59190611f79565b6007546040516370a0823160e01b81526001600160a01b03909116906370a082319061152590309060040161203d565b60206040518083038186803b15801561153d57600080fd5b505afa158015611551573d6000803e3d6000fd5b505050506040513d601f19601f820116820180604052508101906115759190611f79565b6008546001600160701b0380821691600160701b9004166117a0565b6001600c55565b60408051808201825260198152787472616e7366657228616464726573732c75696e743235362960381b60209182015281516001600160a01b0385811660248301526044808301869052845180840390910181526064909201845291810180516001600160e01b031663a9059cbb60e01b179052915160009283928716916116209190612021565b6000604051808303816000865af19150503d806000811461165d576040519150601f19603f3d011682016040523d82523d6000602084013e611662565b606091505b509150915081801561168c57508051158061168c57508080602001905181019061168c9190611f59565b6116d15760405162461bcd60e51b815260206004820152601660248201527510d85a5c9bce881514905394d1915497d1905253115160521b6044820152606401610407565b5050505050565b6000826116e75750600061092c565b60006116f38385612178565b9050826117008583612135565b146117575760405162461bcd60e51b815260206004820152602160248201527f536166654d6174683a206d756c7469706c69636174696f6e206f766572666c6f6044820152607760f81b6064820152608401610407565b9392505050565b600061175783836040518060400160405280601e81526020017f536166654d6174683a207375627472616374696f6e206f766572666c6f770000815250611d44565b6001600160701b0384118015906117be57506001600160701b038311155b6117fc5760405162461bcd60e51b815260206004820152600f60248201526e436169726f3a204f564552464c4f5760881b6044820152606401610407565b600061180c600160201b4261221e565b60085490915060009061182c90600160e01b900463ffffffff16836121ae565b905060008163ffffffff1611801561184c57506001600160701b03841615155b801561186057506001600160701b03831615155b156118ef578063ffffffff166118888561187986611d7e565b6001600160e01b031690611d97565b6001600160e01b031661189b9190612178565b600960008282546118ac91906120f7565b909155505063ffffffff81166118c58461187987611d7e565b6001600160e01b03166118d89190612178565b600a60008282546118e991906120f7565b90915550505b6008805463ffffffff8416600160e01b026001600160e01b036001600160701b03898116600160701b9081026001600160e01b03199095168c83161794909417918216831794859055604080519382169282169290921783529290930490911660208201527f1c411e9a96e071241c2f21f7726b17ae89e3cab4c78be50e062b03a9fffbbad1910160405180910390a1505050505050565b6001600160a01b0383811660008181526002602090815260408083209487168084529482529182902085905590518481527f8c5be1e5ebec7d5bd14f71427d1e84f3dd0314c0f7b2291e5b200ac8c7c3b92591015b60405180910390a3505050565b6001600160a01b038316600090815260016020526040902054611a0c908261175e565b6001600160a01b038085166000908152600160205260408082209390935590841681522054611a3b9082611dac565b6001600160a01b038084166000818152600160205260409081902093909355915190851690600080516020612277833981519152906119dc9085815260200190565b600080600560009054906101000a90046001600160a01b03166001600160a01b031663017e7e586040518163ffffffff1660e01b815260040160206040518083038186803b158015611ace57600080fd5b505afa158015611ae2573d6000803e3d6000fd5b505050506040513d601f19601f82011682018060405250810190611b069190611e25565b600b546001600160a01b038216158015945091925090611bb5578015611bb0576000611b41610bdf6001600160701b038881169088166116d8565b90506000611b4e83611bc9565b905080821115611bad576000611b70611b67848461175e565b600054906116d8565b90506000611b8983611b838660036116d8565b90611dac565b90506000611b978284612135565b90508015611ba957611ba98782611c39565b5050505b50505b611bc1565b8015611bc1576000600b555b505092915050565b60006003821115611c2a5750806000611be3600283612135565b611bee9060016120f7565b90505b81811015611c2457905080600281611c098186612135565b611c1391906120f7565b611c1d9190612135565b9050611bf1565b50919050565b8115611c34575060015b919050565b600054611c469082611dac565b60009081556001600160a01b038316815260016020526040902054611c6b9082611dac565b6001600160a01b03831660008181526001602052604080822093909355915190919060008051602061227783398151915290611caa9085815260200190565b60405180910390a35050565b6000818310611cc55781611757565b5090919050565b6001600160a01b038216600090815260016020526040902054611cef908261175e565b6001600160a01b03831660009081526001602052604081209190915554611d16908261175e565b60009081556040518281526001600160a01b0384169060008051602061227783398151915290602001611caa565b60008184841115611d685760405162461bcd60e51b8152600401610407919061209d565b506000611d758486612197565b95945050505050565b600061092c600160701b6001600160701b038416612149565b60006117576001600160701b0383168461210f565b600080611db983856120f7565b9050838110156117575760405162461bcd60e51b815260206004820152601b60248201527a536166654d6174683a206164646974696f6e206f766572666c6f7760281b6044820152606401610407565b600060208284031215611e1a578081fd5b81356117578161225e565b600060208284031215611e36578081fd5b81516117578161225e565b60008060408385031215611e53578081fd5b8235611e5e8161225e565b91506020830135611e6e8161225e565b809150509250929050565b600080600060608486031215611e8d578081fd5b8335611e988161225e565b92506020840135611ea88161225e565b929592945050506040919091013590565b600080600080600080600060e0888a031215611ed3578283fd5b8735611ede8161225e565b96506020880135611eee8161225e565b95506040880135945060608801359350608088013560ff81168114611f11578384fd5b9699959850939692959460a0840135945060c09093013592915050565b60008060408385031215611f40578182fd5b8235611f4b8161225e565b946020939093013593505050565b600060208284031215611f6a578081fd5b81518015158114611757578182fd5b600060208284031215611f8a578081fd5b5051919050565b600080600080600060808688031215611fa8578081fd5b85359450602086013593506040860135611fc18161225e565b925060608601356001600160401b0380821115611fdc578283fd5b818801915088601f830112611fef578283fd5b813581811115611ffd578384fd5b89602082850101111561200e578384fd5b9699959850939650602001949392505050565b600082516120338184602087016121d3565b9190910192915050565b6001600160a01b0391909116815260200190565b60018060a01b038616815284602082015283604082015260806060820152816080820152818360a0830137600081830160a090810191909152601f909201601f19160101949350505050565b60208152600082518060208401526120bc8160408501602087016121d3565b601f01601f19169190910160400192915050565b6020808252600d908201526c10d85a5c9bce881313d0d2d151609a1b604082015260600190565b6000821982111561210a5761210a612232565b500190565b60006001600160e01b038381168061212957612129612248565b92169190910492915050565b60008261214457612144612248565b500490565b60006001600160e01b038281168482168115158284048211161561216f5761216f612232565b02949350505050565b600081600019048311821515161561219257612192612232565b500290565b6000828210156121a9576121a9612232565b500390565b600063ffffffff838116908316818110156121cb576121cb612232565b039392505050565b60005b838110156121ee5781810151838201526020016121d6565b838111156121fd576000848401525b50505050565b600060001982141561221757612217612232565b5060010190565b60008261222d5761222d612248565b500690565b634e487b7160e01b600052601160045260246000fd5b634e487b7160e01b600052601260045260246000fd5b6001600160a01b038116811461227357600080fd5b5056feddf252ad1be2c89b69c2b068fc378daa952ba7f163c4a11628f55a4df523b3ef6e71edae12b1b97f4d1f60370fef10105fa2faae0126114a169c64845d6126c9a2646970667358221220d745cb83598e246dc10445b71d0e95408040b53d6a40f9768bc306a198626a1764736f6c63430008040033a264697066735822122083044a06fad7f34b6e86bd9f0f113aad60f0de04d391ec3b9e41ce18cc60596f64736f6c63430008040033",
  "linkReferences": {},
  "deployedLinkReferences": {}
}