{
  "_format": "hh-sol-artifact-1",
  "contractName": "MasterChef",
  "sourceName": "contracts/farm/MasterChef.sol",
  "abi": [
    {
      "inputs": [
        {
          "internalType": "contract IBEP20",
          "name": "_cake",
          "type": "address"
        },
        {
          "internalType": "contract SyrupBar",
          "name": "_syrup",
          "type": "address"
        },
        {
          "internalType": "uint256",
          "name": "_cakePerBlock",
          "type": "uint256"
        },
        {
          "internalType": "uint256",
          "name": "_startBlock",
          "type": "uint256"
        }
      ],
      "stateMutability": "nonpayable",
      "type": "constructor"
    },
    {
      "anonymous": false,
      "inputs": [
        {
          "indexed": true,
          "internalType": "address",
          "name": "user",
          "type": "address"
        },
        {
          "indexed": true,
          "internalType": "uint256",
          "name": "pid",
          "type": "uint256"
        },
        {
          "indexed": false,
          "internalType": "uint256",
          "name": "amount",
          "type": "uint256"
        }
      ],
      "name": "Deposit",
      "type": "event"
    },
    {
      "anonymous": false,
      "inputs": [
        {
          "indexed": true,
          "internalType": "address",
          "name": "user",
          "type": "address"
        },
        {
          "indexed": true,
          "internalType": "uint256",
          "name": "pid",
          "type": "uint256"
        },
        {
          "indexed": false,
          "internalType": "uint256",
          "name": "amount",
          "type": "uint256"
        }
      ],
      "name": "EmergencyWithdraw",
      "type": "event"
    },
    {
      "anonymous": false,
      "inputs": [
        {
          "indexed": true,
          "internalType": "address",
          "name": "previousOwner",
          "type": "address"
        },
        {
          "indexed": true,
          "internalType": "address",
          "name": "newOwner",
          "type": "address"
        }
      ],
      "name": "OwnershipTransferred",
      "type": "event"
    },
    {
      "anonymous": false,
      "inputs": [
        {
          "indexed": true,
          "internalType": "address",
          "name": "user",
          "type": "address"
        },
        {
          "indexed": true,
          "internalType": "uint256",
          "name": "pid",
          "type": "uint256"
        },
        {
          "indexed": false,
          "internalType": "uint256",
          "name": "amount",
          "type": "uint256"
        }
      ],
      "name": "Withdraw",
      "type": "event"
    },
    {
      "inputs": [],
      "name": "BONUS_MULTIPLIER",
      "outputs": [
        {
          "internalType": "uint256",
          "name": "",
          "type": "uint256"
        }
      ],
      "stateMutability": "view",
      "type": "function"
    },
    {
      "inputs": [
        {
          "internalType": "uint256",
          "name": "_allocPoint",
          "type": "uint256"
        },
        {
          "internalType": "contract IBEP20",
          "name": "_lpToken",
          "type": "address"
        },
        {
          "internalType": "bool",
          "name": "_withUpdate",
          "type": "bool"
        }
      ],
      "name": "add",
      "outputs": [],
      "stateMutability": "nonpayable",
      "type": "function"
    },
    {
      "inputs": [],
      "name": "cake",
      "outputs": [
        {
          "internalType": "contract IBEP20",
          "name": "",
          "type": "address"
        }
      ],
      "stateMutability": "view",
      "type": "function"
    },
    {
      "inputs": [],
      "name": "cakePerBlock",
      "outputs": [
        {
          "internalType": "uint256",
          "name": "",
          "type": "uint256"
        }
      ],
      "stateMutability": "view",
      "type": "function"
    },
    {
      "inputs": [
        {
          "internalType": "uint256",
          "name": "_pid",
          "type": "uint256"
        },
        {
          "internalType": "uint256",
          "name": "_amount",
          "type": "uint256"
        }
      ],
      "name": "deposit",
      "outputs": [],
      "stateMutability": "nonpayable",
      "type": "function"
    },
    {
      "inputs": [
        {
          "internalType": "uint256",
          "name": "_pid",
          "type": "uint256"
        }
      ],
      "name": "emergencyWithdraw",
      "outputs": [],
      "stateMutability": "nonpayable",
      "type": "function"
    },
    {
      "inputs": [
        {
          "internalType": "uint256",
          "name": "_amount",
          "type": "uint256"
        }
      ],
      "name": "enterStaking",
      "outputs": [],
      "stateMutability": "nonpayable",
      "type": "function"
    },
    {
      "inputs": [
        {
          "internalType": "uint256",
          "name": "_from",
          "type": "uint256"
        },
        {
          "internalType": "uint256",
          "name": "_to",
          "type": "uint256"
        }
      ],
      "name": "getMultiplier",
      "outputs": [
        {
          "internalType": "uint256",
          "name": "",
          "type": "uint256"
        }
      ],
      "stateMutability": "view",
      "type": "function"
    },
    {
      "inputs": [
        {
          "internalType": "uint256",
          "name": "_amount",
          "type": "uint256"
        }
      ],
      "name": "leaveStaking",
      "outputs": [],
      "stateMutability": "nonpayable",
      "type": "function"
    },
    {
      "inputs": [],
      "name": "massUpdatePools",
      "outputs": [],
      "stateMutability": "nonpayable",
      "type": "function"
    },
    {
      "inputs": [
        {
          "internalType": "uint256",
          "name": "_pid",
          "type": "uint256"
        }
      ],
      "name": "migrate",
      "outputs": [],
      "stateMutability": "nonpayable",
      "type": "function"
    },
    {
      "inputs": [],
      "name": "migrator",
      "outputs": [
        {
          "internalType": "contract IMigratorChef",
          "name": "",
          "type": "address"
        }
      ],
      "stateMutability": "view",
      "type": "function"
    },
    {
      "inputs": [],
      "name": "owner",
      "outputs": [
        {
          "internalType": "address",
          "name": "",
          "type": "address"
        }
      ],
      "stateMutability": "view",
      "type": "function"
    },
    {
      "inputs": [
        {
          "internalType": "uint256",
          "name": "_pid",
          "type": "uint256"
        },
        {
          "internalType": "address",
          "name": "_user",
          "type": "address"
        }
      ],
      "name": "pendingCake",
      "outputs": [
        {
          "internalType": "uint256",
          "name": "",
          "type": "uint256"
        }
      ],
      "stateMutability": "view",
      "type": "function"
    },
    {
      "inputs": [
        {
          "internalType": "uint256",
          "name": "",
          "type": "uint256"
        }
      ],
      "name": "poolInfo",
      "outputs": [
        {
          "internalType": "contract IBEP20",
          "name": "lpToken",
          "type": "address"
        },
        {
          "internalType": "uint256",
          "name": "allocPoint",
          "type": "uint256"
        },
        {
          "internalType": "uint256",
          "name": "lastRewardBlock",
          "type": "uint256"
        },
        {
          "internalType": "uint256",
          "name": "accCakePerShare",
          "type": "uint256"
        }
      ],
      "stateMutability": "view",
      "type": "function"
    },
    {
      "inputs": [],
      "name": "poolLength",
      "outputs": [
        {
          "internalType": "uint256",
          "name": "",
          "type": "uint256"
        }
      ],
      "stateMutability": "view",
      "type": "function"
    },
    {
      "inputs": [],
      "name": "renounceOwnership",
      "outputs": [],
      "stateMutability": "nonpayable",
      "type": "function"
    },
    {
      "inputs": [
        {
          "internalType": "uint256",
          "name": "_pid",
          "type": "uint256"
        },
        {
          "internalType": "uint256",
          "name": "_allocPoint",
          "type": "uint256"
        },
        {
          "internalType": "bool",
          "name": "_withUpdate",
          "type": "bool"
        }
      ],
      "name": "set",
      "outputs": [],
      "stateMutability": "nonpayable",
      "type": "function"
    },
    {
      "inputs": [
        {
          "internalType": "contract IMigratorChef",
          "name": "_migrator",
          "type": "address"
        }
      ],
      "name": "setMigrator",
      "outputs": [],
      "stateMutability": "nonpayable",
      "type": "function"
    },
    {
      "inputs": [],
      "name": "startBlock",
      "outputs": [
        {
          "internalType": "uint256",
          "name": "",
          "type": "uint256"
        }
      ],
      "stateMutability": "view",
      "type": "function"
    },
    {
      "inputs": [],
      "name": "syrup",
      "outputs": [
        {
          "internalType": "contract SyrupBar",
          "name": "",
          "type": "address"
        }
      ],
      "stateMutability": "view",
      "type": "function"
    },
    {
      "inputs": [],
      "name": "totalAllocPoint",
      "outputs": [
        {
          "internalType": "uint256",
          "name": "",
          "type": "uint256"
        }
      ],
      "stateMutability": "view",
      "type": "function"
    },
    {
      "inputs": [
        {
          "internalType": "address",
          "name": "newOwner",
          "type": "address"
        }
      ],
      "name": "transferOwnership",
      "outputs": [],
      "stateMutability": "nonpayable",
      "type": "function"
    },
    {
      "inputs": [
        {
          "internalType": "uint256",
          "name": "multiplierNumber",
          "type": "uint256"
        }
      ],
      "name": "updateMultiplier",
      "outputs": [],
      "stateMutability": "nonpayable",
      "type": "function"
    },
    {
      "inputs": [
        {
          "internalType": "uint256",
          "name": "_pid",
          "type": "uint256"
        }
      ],
      "name": "updatePool",
      "outputs": [],
      "stateMutability": "nonpayable",
      "type": "function"
    },
    {
      "inputs": [
        {
          "internalType": "uint256",
          "name": "",
          "type": "uint256"
        },
        {
          "internalType": "address",
          "name": "",
          "type": "address"
        }
      ],
      "name": "userInfo",
      "outputs": [
        {
          "internalType": "uint256",
          "name": "amount",
          "type": "uint256"
        },
        {
          "internalType": "uint256",
          "name": "rewardDebt",
          "type": "uint256"
        }
      ],
      "stateMutability": "view",
      "type": "function"
    },
    {
      "inputs": [
        {
          "internalType": "uint256",
          "name": "_pid",
          "type": "uint256"
        },
        {
          "internalType": "uint256",
          "name": "_amount",
          "type": "uint256"
        }
      ],
      "name": "withdraw",
      "outputs": [],
      "stateMutability": "nonpayable",
      "type": "function"
    }
  ],
  "bytecode": "0x6080604052600160045560006008553480156200001b57600080fd5b506040516200212c3803806200212c8339810160408190526200003e91620001a0565b600080546001600160a01b031916339081178255604051909182917f8be0079c531659141344cd1fd0a4f28419497f9722a3daafe3b4186f6b6457e0908290a350600180546001600160a01b03199081166001600160a01b039687169081178355600280548316968816969096179095556003939093556009829055604080516080810182529485526103e86020860181815291860193845260006060870181815260068054958601815590915295517ff652222313e28459528d920b65115c16c04f3efc82aaedc97be59f3f377c0d3f6004909402938401805490961697169690961790935591517ff652222313e28459528d920b65115c16c04f3efc82aaedc97be59f3f377c0d40830155517ff652222313e28459528d920b65115c16c04f3efc82aaedc97be59f3f377c0d4182015590517ff652222313e28459528d920b65115c16c04f3efc82aaedc97be59f3f377c0d429091015560085562000205565b60008060008060808587031215620001b6578384fd5b8451620001c381620001ec565b6020860151909450620001d681620001ec565b6040860151606090960151949790965092505050565b6001600160a01b03811681146200020257600080fd5b50565b611f1780620002156000396000f3fe608060405234801561001057600080fd5b50600436106101495760003560e01c80630755e0b61461014e578063081e3eda1461016a5780631058d281146101725780631175a1dd146101875780631526fe271461019a57806317caf6f1146101d75780631eaaa045146101e057806323cf3118146101f357806341441d3b14610206578063441a3e7014610219578063454b06081461022c57806348cd4cb11461023f57806351eb05a6146102485780635312ea8e1461025b5780635ffe61461461026e578063630b5ba11461028157806364482f7914610289578063715018a61461029c5780637cd07e47146102a457806386a952c4146102c45780638aa28550146102d75780638da5cb5b146102e05780638dbb1e3a146102e857806393f1a40b146102fb578063dce1748414610342578063e2bbb15814610355578063f2fde38b14610368575b600080fd5b61015760035481565b6040519081526020015b60405180910390f35b600654610157565b610185610180366004611ba5565b61037b565b005b610157610195366004611bd5565b610528565b6101ad6101a8366004611ba5565b6106ae565b604080516001600160a01b0390951685526020850193909352918301526060820152608001610161565b61015760085481565b6101856101ee366004611c04565b6106f2565b610185610201366004611b51565b61084f565b610185610214366004611ba5565b6108a0565b610185610227366004611c45565b610a1d565b61018561023a366004611ba5565b610b92565b61015760095481565b610185610256366004611ba5565b610e11565b610185610269366004611ba5565b610f54565b61018561027c366004611ba5565b611065565b610185611099565b610185610297366004611c66565b6110c4565b6101856111a0565b6005546102b7906001600160a01b031681565b6040516101619190611caf565b6002546102b7906001600160a01b031681565b61015760045481565b6102b7611207565b6101576102f6366004611c45565b611216565b61032d610309366004611bd5565b60076020908152600092835260408084209091529082529020805460019091015482565b60408051928352602083019190915201610161565b6001546102b7906001600160a01b031681565b610185610363366004611c45565b611231565b610185610376366004611b51565b611383565b6000600660008154811061039f57634e487b7160e01b600052603260045260246000fd5b60009182526020808320338452600080516020611ea283398151915290915260409092208054600490920290920192508311156103f75760405162461bcd60e51b81526004016103ee90611d44565b60405180910390fd5b6104016000610e11565b600061043b826001015461043564e8d4a5100061042f8760030154876000015461146090919063ffffffff16565b906114df565b9061151e565b9050801561044d5761044d3382611560565b831561047757815461045f908561151e565b82558254610477906001600160a01b031633866115c8565b600383015482546104929164e8d4a510009161042f91611460565b6001830155600254604051632770a7eb60e21b81526001600160a01b0390911690639dc29fac906104c99033908890600401611cc3565b600060405180830381600087803b1580156104e357600080fd5b505af11580156104f7573d6000803e3d6000fd5b505060405186815260009250339150600080516020611ec2833981519152906020015b60405180910390a350505050565b6000806006848154811061054c57634e487b7160e01b600052603260045260246000fd5b600091825260208083208784526007825260408085206001600160a01b038981168752935280852060049485029092016003810154815492516370a0823160e01b815291975092959294929391909116916370a08231916105af91309101611caf565b60206040518083038186803b1580156105c757600080fd5b505afa1580156105db573d6000803e3d6000fd5b505050506040513d601f19601f820116820180604052508101906105ff9190611bbd565b905083600201544311801561061357508015155b15610679576000610628856002015443611216565b9050600061065560085461042f886001015461064f6003548761146090919063ffffffff16565b90611460565b905061067461066d8461042f8464e8d4a51000611460565b8590611623565b935050505b6106a1836001015461043564e8d4a5100061042f86886000015461146090919063ffffffff16565b9450505050505b92915050565b600681815481106106be57600080fd5b600091825260209091206004909102018054600182015460028301546003909301546001600160a01b039092169350919084565b336106fb611207565b6001600160a01b0316146107215760405162461bcd60e51b81526004016103ee90611d0f565b801561072f5761072f611099565b6000600954431161074257600954610744565b435b6008549091506107549085611623565b600855604080516080810182526001600160a01b0385811682526020820187815292820184815260006060840181815260068054600181018255925293517ff652222313e28459528d920b65115c16c04f3efc82aaedc97be59f3f377c0d3f600490920291820180546001600160a01b031916919094161790925592517ff652222313e28459528d920b65115c16c04f3efc82aaedc97be59f3f377c0d4082015591517ff652222313e28459528d920b65115c16c04f3efc82aaedc97be59f3f377c0d41830155517ff652222313e28459528d920b65115c16c04f3efc82aaedc97be59f3f377c0d4290910155610849611680565b50505050565b33610858611207565b6001600160a01b03161461087e5760405162461bcd60e51b81526004016103ee90611d0f565b600580546001600160a01b0319166001600160a01b0392909216919091179055565b600060066000815481106108c457634e487b7160e01b600052603260045260246000fd5b60009182526020808320338452600080516020611ea2833981519152909152604083206004909202019250906108f990610e11565b80541561094257600061092e826001015461043564e8d4a5100061042f8760030154876000015461146090919063ffffffff16565b90508015610940576109403382611560565b505b821561096e57815461095f906001600160a01b0316333086611789565b805461096b9084611623565b81555b600382015481546109899164e8d4a510009161042f91611460565b60018201556002546040516340c10f1960e01b81526001600160a01b03909116906340c10f19906109c09033908790600401611cc3565b600060405180830381600087803b1580156109da57600080fd5b505af11580156109ee573d6000803e3d6000fd5b505060405185815260009250339150600080516020611e628339815191529060200160405180910390a3505050565b81610a675760405162461bcd60e51b815260206004820152601a60248201527977697468647261772043414b4520627920756e7374616b696e6760301b60448201526064016103ee565b600060068381548110610a8a57634e487b7160e01b600052603260045260246000fd5b600091825260208083208684526007825260408085203386529092529220805460049092029092019250831115610ad35760405162461bcd60e51b81526004016103ee90611d44565b610adc84610e11565b6000610b0a826001015461043564e8d4a5100061042f8760030154876000015461146090919063ffffffff16565b90508015610b1c57610b1c3382611560565b8315610b46578154610b2e908561151e565b82558254610b46906001600160a01b031633866115c8565b60038301548254610b619164e8d4a510009161042f91611460565b600183015560405184815285903390600080516020611ec28339815191529060200160405180910390a35050505050565b6005546001600160a01b0316610be15760405162461bcd60e51b815260206004820152601460248201527336b4b3b930ba329d1037379036b4b3b930ba37b960611b60448201526064016103ee565b600060068281548110610c0457634e487b7160e01b600052603260045260246000fd5b60009182526020822060049182020180546040516370a0823160e01b81529194506001600160a01b0316929183916370a0823191610c4491309101611caf565b60206040518083038186803b158015610c5c57600080fd5b505afa158015610c70573d6000803e3d6000fd5b505050506040513d601f19601f82011682018060405250810190610c949190611bbd565b600554909150610cb1906001600160a01b038481169116836117c1565b60055460405163ce5494bb60e01b81526000916001600160a01b03169063ce5494bb90610ce2908690600401611caf565b602060405180830381600087803b158015610cfc57600080fd5b505af1158015610d10573d6000803e3d6000fd5b505050506040513d601f19601f82011682018060405250810190610d349190611b89565b6040516370a0823160e01b81529091506001600160a01b038216906370a0823190610d63903090600401611caf565b60206040518083038186803b158015610d7b57600080fd5b505afa158015610d8f573d6000803e3d6000fd5b505050506040513d601f19601f82011682018060405250810190610db39190611bbd565b8214610df05760405162461bcd60e51b815260206004820152600c60248201526b1b5a59dc985d194e8818985960a21b60448201526064016103ee565b83546001600160a01b0319166001600160a01b039190911617909255505050565b600060068281548110610e3457634e487b7160e01b600052603260045260246000fd5b9060005260206000209060040201905080600201544311610e53575050565b80546040516370a0823160e01b81526000916001600160a01b0316906370a0823190610e83903090600401611caf565b60206040518083038186803b158015610e9b57600080fd5b505afa158015610eaf573d6000803e3d6000fd5b505050506040513d601f19601f82011682018060405250810190610ed39190611bbd565b905080610ee557504360029091015550565b6000610ef5836002015443611216565b90506000610f1c60085461042f866001015461064f6003548761146090919063ffffffff16565b9050610f3f610f348461042f8464e8d4a51000611460565b600386015490611623565b60038501555050436002909201919091555050565b600060068281548110610f7757634e487b7160e01b600052603260045260246000fd5b600091825260208083208584526007825260408085203380875293528420805485825560018201959095556004909302018054909450919291610fc7916001600160a01b039190911690836115c8565b8361103157600254604051632770a7eb60e21b81526001600160a01b0390911690639dc29fac90610ffe9033908590600401611cc3565b600060405180830381600087803b15801561101857600080fd5b505af115801561102c573d6000803e3d6000fd5b505050505b604051818152849033907fbb757047c2b5f3974fe26b7c10f732e7bce710b0952a71082702781e62ae05959060200161051a565b3361106e611207565b6001600160a01b0316146110945760405162461bcd60e51b81526004016103ee90611d0f565b600455565b60065460005b818110156110c0576110b081610e11565b6110b981611e0a565b905061109f565b5050565b336110cd611207565b6001600160a01b0316146110f35760405162461bcd60e51b81526004016103ee90611d0f565b801561110157611101611099565b60006006848154811061112457634e487b7160e01b600052603260045260246000fd5b9060005260206000209060040201600101549050826006858154811061115a57634e487b7160e01b600052603260045260246000fd5b906000526020600020906004020160010181905550828114610849576111958361118f8360085461151e90919063ffffffff16565b90611623565b600855610849611680565b336111a9611207565b6001600160a01b0316146111cf5760405162461bcd60e51b81526004016103ee90611d0f565b600080546040516001600160a01b0390911690600080516020611e82833981519152908390a3600080546001600160a01b0319169055565b6000546001600160a01b031690565b60045460009061122a9061064f848661151e565b9392505050565b816112785760405162461bcd60e51b81526020600482015260176024820152766465706f7369742043414b45206279207374616b696e6760481b60448201526064016103ee565b60006006838154811061129b57634e487b7160e01b600052603260045260246000fd5b600091825260208083208684526007825260408085203386529092529220600490910290910191506112cc84610e11565b805415611315576000611301826001015461043564e8d4a5100061042f8760030154876000015461146090919063ffffffff16565b90508015611313576113133382611560565b505b8215611341578154611332906001600160a01b0316333086611789565b805461133e9084611623565b81555b6003820154815461135c9164e8d4a510009161042f91611460565b600182015560405183815284903390600080516020611e628339815191529060200161051a565b3361138c611207565b6001600160a01b0316146113b25760405162461bcd60e51b81526004016103ee90611d0f565b6001600160a01b0381166114175760405162461bcd60e51b815260206004820152602660248201527f4f776e61626c653a206e6577206f776e657220697320746865207a65726f206160448201526564647265737360d01b60648201526084016103ee565b600080546040516001600160a01b0380851693921691600080516020611e8283398151915291a3600080546001600160a01b0319166001600160a01b0392909216919091179055565b60008261146f575060006106a8565b600061147b8385611da8565b9050826114888583611d88565b1461122a5760405162461bcd60e51b815260206004820152602160248201527f536166654d6174683a206d756c7469706c69636174696f6e206f766572666c6f6044820152607760f81b60648201526084016103ee565b600061122a83836040518060400160405280601a815260200179536166654d6174683a206469766973696f6e206279207a65726f60301b8152506118d4565b600061122a83836040518060400160405280601e81526020017f536166654d6174683a207375627472616374696f6e206f766572666c6f77000081525061190b565b6002546040516328b9b77360e21b81526001600160a01b039091169063a2e6ddcc906115929085908590600401611cc3565b600060405180830381600087803b1580156115ac57600080fd5b505af11580156115c0573d6000803e3d6000fd5b505050505050565b61161e8363a9059cbb60e01b84846040516024016115e7929190611cc3565b60408051601f198184030181529190526020810180516001600160e01b03166001600160e01b03199093169290921790915261193c565b505050565b6000806116308385611d70565b90508381101561122a5760405162461bcd60e51b815260206004820152601b60248201527a536166654d6174683a206164646974696f6e206f766572666c6f7760281b60448201526064016103ee565b600654600060015b828110156116e7576116d5600682815481106116b457634e487b7160e01b600052603260045260246000fd5b9060005260206000209060040201600101548361162390919063ffffffff16565b91506116e081611e0a565b9050611688565b5080156110c0576116f98160026114df565b90506117478161118f600660008154811061172457634e487b7160e01b600052603260045260246000fd5b90600052602060002090600402016001015460085461151e90919063ffffffff16565b60088190555080600660008154811061177057634e487b7160e01b600052603260045260246000fd5b9060005260206000209060040201600101819055505050565b6040516001600160a01b03808516602483015283166044820152606481018290526108499085906323b872dd60e01b906084016115e7565b80158061184a5750604051636eb1769f60e11b81523060048201526001600160a01b03838116602483015284169063dd62ed3e9060440160206040518083038186803b15801561181057600080fd5b505afa158015611824573d6000803e3d6000fd5b505050506040513d601f19601f820116820180604052508101906118489190611bbd565b155b6118b55760405162461bcd60e51b815260206004820152603660248201527f5361666542455032303a20617070726f76652066726f6d206e6f6e2d7a65726f60448201527520746f206e6f6e2d7a65726f20616c6c6f77616e636560501b60648201526084016103ee565b61161e8363095ea7b360e01b84846040516024016115e7929190611cc3565b600081836118f55760405162461bcd60e51b81526004016103ee9190611cdc565b5060006119028486611d88565b95945050505050565b6000818484111561192f5760405162461bcd60e51b81526004016103ee9190611cdc565b5060006119028486611dc7565b6000611991826040518060400160405280602081526020017f5361666542455032303a206c6f772d6c6576656c2063616c6c206661696c6564815250856001600160a01b0316611a0e9092919063ffffffff16565b80519091501561161e57808060200190518101906119af9190611b6d565b61161e5760405162461bcd60e51b815260206004820152602a60248201527f5361666542455032303a204245503230206f7065726174696f6e20646964206e6044820152691bdd081cdd58d8d9595960b21b60648201526084016103ee565b6060611a1d8484600085611a25565b949350505050565b6060611a3085611b18565b611a7c5760405162461bcd60e51b815260206004820152601d60248201527f416464726573733a2063616c6c20746f206e6f6e2d636f6e747261637400000060448201526064016103ee565b600080866001600160a01b03168587604051611a989190611c93565b60006040518083038185875af1925050503d8060008114611ad5576040519150601f19603f3d011682016040523d82523d6000602084013e611ada565b606091505b50915091508115611aee579150611a1d9050565b805115611afe5780518082602001fd5b8360405162461bcd60e51b81526004016103ee9190611cdc565b6000813f7fc5d2460186f7233c927e7db2dcc703c0e500b653ca82273b7bfad8045d85a470818114801590611a1d575050151592915050565b600060208284031215611b62578081fd5b813561122a81611e3b565b600060208284031215611b7e578081fd5b815161122a81611e53565b600060208284031215611b9a578081fd5b815161122a81611e3b565b600060208284031215611bb6578081fd5b5035919050565b600060208284031215611bce578081fd5b5051919050565b60008060408385031215611be7578081fd5b823591506020830135611bf981611e3b565b809150509250929050565b600080600060608486031215611c18578081fd5b833592506020840135611c2a81611e3b565b91506040840135611c3a81611e53565b809150509250925092565b60008060408385031215611c57578182fd5b50508035926020909101359150565b600080600060608486031215611c7a578283fd5b83359250602084013591506040840135611c3a81611e53565b60008251611ca5818460208701611dde565b9190910192915050565b6001600160a01b0391909116815260200190565b6001600160a01b03929092168252602082015260400190565b6020815260008251806020840152611cfb816040850160208701611dde565b601f01601f19169190910160400192915050565b6020808252818101527f4f776e61626c653a2063616c6c6572206973206e6f7420746865206f776e6572604082015260600190565b6020808252601290820152711dda5d1a191c985dce881b9bdd0819dbdbd960721b604082015260600190565b60008219821115611d8357611d83611e25565b500190565b600082611da357634e487b7160e01b81526012600452602481fd5b500490565b6000816000190483118215151615611dc257611dc2611e25565b500290565b600082821015611dd957611dd9611e25565b500390565b60005b83811015611df9578181015183820152602001611de1565b838111156108495750506000910152565b6000600019821415611e1e57611e1e611e25565b5060010190565b634e487b7160e01b600052601160045260246000fd5b6001600160a01b0381168114611e5057600080fd5b50565b8015158114611e5057600080fdfe90890809c654f11d6e72a28fa60149770a0d11ec6c92319d6ceb2bb0a4ea1a158be0079c531659141344cd1fd0a4f28419497f9722a3daafe3b4186f6b6457e06d5257204ebe7d88fd91ae87941cb2dd9d8062b64ae5a2bd2d28ec40b9fbf6dff279e6a1f5e320cca91135676d9cb6e44ca8a08c0b88342bcdb1144f6511b568a264697066735822122008c70435579346427e0e6e2668e6b00512a330446325a5bac66fc2748355850d64736f6c63430008040033",
  "linkReferences": {},
  "deployedLinkReferences": {}
}