{
  "_format": "hh-sol-artifact-1",
  "contractName": "MasterChef",
  "sourceName": "contracts/farm/MasterChef.sol",
  "abi": [
    {
      "inputs": [
        {
          "internalType": "contract IBEP20",
          "name": "_cake",
          "type": "address"
        },
        {
          "internalType": "contract SyrupBar",
          "name": "_syrup",
          "type": "address"
        },
        {
          "internalType": "uint256",
          "name": "_cakePerBlock",
          "type": "uint256"
        },
        {
          "internalType": "uint256",
          "name": "_startBlock",
          "type": "uint256"
        }
      ],
      "stateMutability": "nonpayable",
      "type": "constructor"
    },
    {
      "anonymous": false,
      "inputs": [
        {
          "indexed": true,
          "internalType": "address",
          "name": "user",
          "type": "address"
        },
        {
          "indexed": true,
          "internalType": "uint256",
          "name": "pid",
          "type": "uint256"
        },
        {
          "indexed": false,
          "internalType": "uint256",
          "name": "amount",
          "type": "uint256"
        }
      ],
      "name": "Deposit",
      "type": "event"
    },
    {
      "anonymous": false,
      "inputs": [
        {
          "indexed": true,
          "internalType": "address",
          "name": "user",
          "type": "address"
        },
        {
          "indexed": true,
          "internalType": "uint256",
          "name": "pid",
          "type": "uint256"
        },
        {
          "indexed": false,
          "internalType": "uint256",
          "name": "amount",
          "type": "uint256"
        }
      ],
      "name": "EmergencyWithdraw",
      "type": "event"
    },
    {
      "anonymous": false,
      "inputs": [
        {
          "indexed": true,
          "internalType": "address",
          "name": "previousOwner",
          "type": "address"
        },
        {
          "indexed": true,
          "internalType": "address",
          "name": "newOwner",
          "type": "address"
        }
      ],
      "name": "OwnershipTransferred",
      "type": "event"
    },
    {
      "anonymous": false,
      "inputs": [
        {
          "indexed": true,
          "internalType": "address",
          "name": "user",
          "type": "address"
        },
        {
          "indexed": true,
          "internalType": "uint256",
          "name": "pid",
          "type": "uint256"
        },
        {
          "indexed": false,
          "internalType": "uint256",
          "name": "amount",
          "type": "uint256"
        }
      ],
      "name": "Withdraw",
      "type": "event"
    },
    {
      "inputs": [],
      "name": "BONUS_MULTIPLIER",
      "outputs": [
        {
          "internalType": "uint256",
          "name": "",
          "type": "uint256"
        }
      ],
      "stateMutability": "view",
      "type": "function"
    },
    {
      "inputs": [
        {
          "internalType": "uint256",
          "name": "_allocPoint",
          "type": "uint256"
        },
        {
          "internalType": "contract IBEP20",
          "name": "_lpToken",
          "type": "address"
        },
        {
          "internalType": "bool",
          "name": "_withUpdate",
          "type": "bool"
        }
      ],
      "name": "add",
      "outputs": [],
      "stateMutability": "nonpayable",
      "type": "function"
    },
    {
      "inputs": [],
      "name": "cake",
      "outputs": [
        {
          "internalType": "contract IBEP20",
          "name": "",
          "type": "address"
        }
      ],
      "stateMutability": "view",
      "type": "function"
    },
    {
      "inputs": [],
      "name": "cakePerBlock",
      "outputs": [
        {
          "internalType": "uint256",
          "name": "",
          "type": "uint256"
        }
      ],
      "stateMutability": "view",
      "type": "function"
    },
    {
      "inputs": [
        {
          "internalType": "uint256",
          "name": "_pid",
          "type": "uint256"
        },
        {
          "internalType": "uint256",
          "name": "_amount",
          "type": "uint256"
        }
      ],
      "name": "deposit",
      "outputs": [],
      "stateMutability": "nonpayable",
      "type": "function"
    },
    {
      "inputs": [
        {
          "internalType": "uint256",
          "name": "_pid",
          "type": "uint256"
        }
      ],
      "name": "emergencyWithdraw",
      "outputs": [],
      "stateMutability": "nonpayable",
      "type": "function"
    },
    {
      "inputs": [
        {
          "internalType": "uint256",
          "name": "_amount",
          "type": "uint256"
        }
      ],
      "name": "enterStaking",
      "outputs": [],
      "stateMutability": "nonpayable",
      "type": "function"
    },
    {
      "inputs": [
        {
          "internalType": "uint256",
          "name": "_from",
          "type": "uint256"
        },
        {
          "internalType": "uint256",
          "name": "_to",
          "type": "uint256"
        }
      ],
      "name": "getMultiplier",
      "outputs": [
        {
          "internalType": "uint256",
          "name": "",
          "type": "uint256"
        }
      ],
      "stateMutability": "view",
      "type": "function"
    },
    {
      "inputs": [
        {
          "internalType": "uint256",
          "name": "_amount",
          "type": "uint256"
        }
      ],
      "name": "leaveStaking",
      "outputs": [],
      "stateMutability": "nonpayable",
      "type": "function"
    },
    {
      "inputs": [],
      "name": "massUpdatePools",
      "outputs": [],
      "stateMutability": "nonpayable",
      "type": "function"
    },
    {
      "inputs": [
        {
          "internalType": "uint256",
          "name": "_pid",
          "type": "uint256"
        }
      ],
      "name": "migrate",
      "outputs": [],
      "stateMutability": "nonpayable",
      "type": "function"
    },
    {
      "inputs": [],
      "name": "migrator",
      "outputs": [
        {
          "internalType": "contract IMigratorChef",
          "name": "",
          "type": "address"
        }
      ],
      "stateMutability": "view",
      "type": "function"
    },
    {
      "inputs": [],
      "name": "owner",
      "outputs": [
        {
          "internalType": "address",
          "name": "",
          "type": "address"
        }
      ],
      "stateMutability": "view",
      "type": "function"
    },
    {
      "inputs": [
        {
          "internalType": "uint256",
          "name": "_pid",
          "type": "uint256"
        },
        {
          "internalType": "address",
          "name": "_user",
          "type": "address"
        }
      ],
      "name": "pendingCake",
      "outputs": [
        {
          "internalType": "uint256",
          "name": "",
          "type": "uint256"
        }
      ],
      "stateMutability": "view",
      "type": "function"
    },
    {
      "inputs": [
        {
          "internalType": "uint256",
          "name": "",
          "type": "uint256"
        }
      ],
      "name": "poolInfo",
      "outputs": [
        {
          "internalType": "contract IBEP20",
          "name": "lpToken",
          "type": "address"
        },
        {
          "internalType": "uint256",
          "name": "allocPoint",
          "type": "uint256"
        },
        {
          "internalType": "uint256",
          "name": "lastRewardBlock",
          "type": "uint256"
        },
        {
          "internalType": "uint256",
          "name": "accCakePerShare",
          "type": "uint256"
        }
      ],
      "stateMutability": "view",
      "type": "function"
    },
    {
      "inputs": [],
      "name": "poolLength",
      "outputs": [
        {
          "internalType": "uint256",
          "name": "",
          "type": "uint256"
        }
      ],
      "stateMutability": "view",
      "type": "function"
    },
    {
      "inputs": [],
      "name": "renounceOwnership",
      "outputs": [],
      "stateMutability": "nonpayable",
      "type": "function"
    },
    {
      "inputs": [
        {
          "internalType": "uint256",
          "name": "_pid",
          "type": "uint256"
        },
        {
          "internalType": "uint256",
          "name": "_allocPoint",
          "type": "uint256"
        },
        {
          "internalType": "bool",
          "name": "_withUpdate",
          "type": "bool"
        }
      ],
      "name": "set",
      "outputs": [],
      "stateMutability": "nonpayable",
      "type": "function"
    },
    {
      "inputs": [
        {
          "internalType": "contract IMigratorChef",
          "name": "_migrator",
          "type": "address"
        }
      ],
      "name": "setMigrator",
      "outputs": [],
      "stateMutability": "nonpayable",
      "type": "function"
    },
    {
      "inputs": [],
      "name": "startBlock",
      "outputs": [
        {
          "internalType": "uint256",
          "name": "",
          "type": "uint256"
        }
      ],
      "stateMutability": "view",
      "type": "function"
    },
    {
      "inputs": [],
      "name": "syrup",
      "outputs": [
        {
          "internalType": "contract SyrupBar",
          "name": "",
          "type": "address"
        }
      ],
      "stateMutability": "view",
      "type": "function"
    },
    {
      "inputs": [],
      "name": "totalAllocPoint",
      "outputs": [
        {
          "internalType": "uint256",
          "name": "",
          "type": "uint256"
        }
      ],
      "stateMutability": "view",
      "type": "function"
    },
    {
      "inputs": [
        {
          "internalType": "address",
          "name": "newOwner",
          "type": "address"
        }
      ],
      "name": "transferOwnership",
      "outputs": [],
      "stateMutability": "nonpayable",
      "type": "function"
    },
    {
      "inputs": [
        {
          "internalType": "uint256",
          "name": "multiplierNumber",
          "type": "uint256"
        }
      ],
      "name": "updateMultiplier",
      "outputs": [],
      "stateMutability": "nonpayable",
      "type": "function"
    },
    {
      "inputs": [
        {
          "internalType": "uint256",
          "name": "_pid",
          "type": "uint256"
        }
      ],
      "name": "updatePool",
      "outputs": [],
      "stateMutability": "nonpayable",
      "type": "function"
    },
    {
      "inputs": [
        {
          "internalType": "uint256",
          "name": "",
          "type": "uint256"
        },
        {
          "internalType": "address",
          "name": "",
          "type": "address"
        }
      ],
      "name": "userInfo",
      "outputs": [
        {
          "internalType": "uint256",
          "name": "amount",
          "type": "uint256"
        },
        {
          "internalType": "uint256",
          "name": "rewardDebt",
          "type": "uint256"
        }
      ],
      "stateMutability": "view",
      "type": "function"
    },
    {
      "inputs": [
        {
          "internalType": "uint256",
          "name": "_pid",
          "type": "uint256"
        },
        {
          "internalType": "uint256",
          "name": "_amount",
          "type": "uint256"
        }
      ],
      "name": "withdraw",
      "outputs": [],
      "stateMutability": "nonpayable",
      "type": "function"
    }
  ],
  "bytecode": "0x6080604052600160045560006008553480156200001b57600080fd5b506040516200218c3803806200218c8339810160408190526200003e91620001a0565b600080546001600160a01b031916339081178255604051909182917f8be0079c531659141344cd1fd0a4f28419497f9722a3daafe3b4186f6b6457e0908290a350600180546001600160a01b03199081166001600160a01b039687169081178355600280548316968816969096179095556003939093556009829055604080516080810182529485526103e86020860181815291860193845260006060870181815260068054958601815590915295517ff652222313e28459528d920b65115c16c04f3efc82aaedc97be59f3f377c0d3f6004909402938401805490961697169690961790935591517ff652222313e28459528d920b65115c16c04f3efc82aaedc97be59f3f377c0d40830155517ff652222313e28459528d920b65115c16c04f3efc82aaedc97be59f3f377c0d4182015590517ff652222313e28459528d920b65115c16c04f3efc82aaedc97be59f3f377c0d429091015560085562000205565b60008060008060808587031215620001b6578384fd5b8451620001c381620001ec565b6020860151909450620001d681620001ec565b6040860151606090960151949790965092505050565b6001600160a01b03811681146200020257600080fd5b50565b611f7780620002156000396000f3fe608060405234801561001057600080fd5b50600436106101a95760003560e01c80635312ea8e116100f95780638aa285501161009757806393f1a40b1161007157806393f1a40b1461036f578063dce17484146103b6578063e2bbb158146103c9578063f2fde38b146103dc57600080fd5b80638aa28550146103425780638da5cb5b1461034b5780638dbb1e3a1461035c57600080fd5b806364482f79116100d357806364482f79146102e9578063715018a6146102fc5780637cd07e471461030457806386a952c41461032f57600080fd5b80635312ea8e146102bb5780635ffe6146146102ce578063630b5ba1146102e157600080fd5b80631eaaa04511610166578063441a3e7011610140578063441a3e7014610279578063454b06081461028c57806348cd4cb11461029f57806351eb05a6146102a857600080fd5b80631eaaa0451461024057806323cf31181461025357806341441d3b1461026657600080fd5b80630755e0b6146101ae578063081e3eda146101ca5780631058d281146101d25780631175a1dd146101e75780631526fe27146101fa57806317caf6f114610237575b600080fd5b6101b760035481565b6040519081526020015b60405180910390f35b6006546101b7565b6101e56101e0366004611cde565b6103ef565b005b6101b76101f5366004611d0e565b6105e1565b61020d610208366004611cde565b610763565b604080516001600160a01b03909516855260208501939093529183015260608201526080016101c1565b6101b760085481565b6101e561024e366004611d3d565b6107a7565b6101e5610261366004611c8a565b6108ff565b6101e5610274366004611cde565b61094b565b6101e5610287366004611d7e565b610aec565b6101e561029a366004611cde565b610c9b565b6101b760095481565b6101e56102b6366004611cde565b610f11565b6101e56102c9366004611cde565b61104f565b6101e56102dc366004611cde565b611160565b6101e561118f565b6101e56102f7366004611d9f565b6111ba565b6101e5611291565b600554610317906001600160a01b031681565b6040516001600160a01b0390911681526020016101c1565b600254610317906001600160a01b031681565b6101b760045481565b6000546001600160a01b0316610317565b6101b761036a366004611d7e565b611305565b6103a161037d366004611d0e565b60076020908152600092835260408084209091529082529020805460019091015482565b604080519283526020830191909152016101c1565b600154610317906001600160a01b031681565b6101e56103d7366004611d7e565b611320565b6101e56103ea366004611c8a565b61148a565b6000600660008154811061041357634e487b7160e01b600052603260045260246000fd5b600091825260208083203384527f6d5257204ebe7d88fd91ae87941cb2dd9d8062b64ae5a2bd2d28ec40b9fbf6df909152604090922080546004909202909201925083111561049e5760405162461bcd60e51b81526020600482015260126024820152711dda5d1a191c985dce881b9bdd0819dbdbd960721b60448201526064015b60405180910390fd5b6104a86000610f11565b60006104e282600101546104dc64e8d4a510006104d68760030154876000015461157490919063ffffffff16565b906115f3565b90611635565b905080156104f4576104f43382611677565b831561051e5781546105069085611635565b8255825461051e906001600160a01b031633866116e1565b600383015482546105399164e8d4a51000916104d691611574565b6001830155600254604051632770a7eb60e21b8152336004820152602481018690526001600160a01b0390911690639dc29fac90604401600060405180830381600087803b15801561058a57600080fd5b505af115801561059e573d6000803e3d6000fd5b5050604051868152600092503391507ff279e6a1f5e320cca91135676d9cb6e44ca8a08c0b88342bcdb1144f6511b568906020015b60405180910390a350505050565b6000806006848154811061060557634e487b7160e01b600052603260045260246000fd5b600091825260208083208784526007825260408085206001600160a01b038981168752935280852060049485029092016003810154815492516370a0823160e01b8152309681019690965290965091949193919216906370a082319060240160206040518083038186803b15801561067c57600080fd5b505afa158015610690573d6000803e3d6000fd5b505050506040513d601f19601f820116820180604052508101906106b49190611cf6565b90508360020154431180156106c857508015155b1561072e5760006106dd856002015443611305565b9050600061070a6008546104d688600101546107046003548761157490919063ffffffff16565b90611574565b9050610729610722846104d68464e8d4a51000611574565b8590611749565b935050505b61075683600101546104dc64e8d4a510006104d686886000015461157490919063ffffffff16565b9450505050505b92915050565b6006818154811061077357600080fd5b600091825260209091206004909102018054600182015460028301546003909301546001600160a01b039092169350919084565b6000546001600160a01b031633146107d15760405162461bcd60e51b815260040161049590611e1b565b80156107df576107df61118f565b600060095443116107f2576009546107f4565b435b6008549091506108049085611749565b600855604080516080810182526001600160a01b0385811682526020820187815292820184815260006060840181815260068054600181018255925293517ff652222313e28459528d920b65115c16c04f3efc82aaedc97be59f3f377c0d3f600490920291820180546001600160a01b031916919094161790925592517ff652222313e28459528d920b65115c16c04f3efc82aaedc97be59f3f377c0d4082015591517ff652222313e28459528d920b65115c16c04f3efc82aaedc97be59f3f377c0d41830155517ff652222313e28459528d920b65115c16c04f3efc82aaedc97be59f3f377c0d42909101556108f96117a8565b50505050565b6000546001600160a01b031633146109295760405162461bcd60e51b815260040161049590611e1b565b600580546001600160a01b0319166001600160a01b0392909216919091179055565b6000600660008154811061096f57634e487b7160e01b600052603260045260246000fd5b600091825260208083203384527f6d5257204ebe7d88fd91ae87941cb2dd9d8062b64ae5a2bd2d28ec40b9fbf6df909152604083206004909202019250906109b690610f11565b8054156109ff5760006109eb82600101546104dc64e8d4a510006104d68760030154876000015461157490919063ffffffff16565b905080156109fd576109fd3382611677565b505b8215610a2b578154610a1c906001600160a01b03163330866118b1565b8054610a289084611749565b81555b60038201548154610a469164e8d4a51000916104d691611574565b60018201556002546040516340c10f1960e01b8152336004820152602481018590526001600160a01b03909116906340c10f1990604401600060405180830381600087803b158015610a9757600080fd5b505af1158015610aab573d6000803e3d6000fd5b5050604051858152600092503391507f90890809c654f11d6e72a28fa60149770a0d11ec6c92319d6ceb2bb0a4ea1a159060200160405180910390a3505050565b81610b395760405162461bcd60e51b815260206004820152601a60248201527f77697468647261772043414b4520627920756e7374616b696e670000000000006044820152606401610495565b600060068381548110610b5c57634e487b7160e01b600052603260045260246000fd5b600091825260208083208684526007825260408085203386529092529220805460049092029092019250831115610bca5760405162461bcd60e51b81526020600482015260126024820152711dda5d1a191c985dce881b9bdd0819dbdbd960721b6044820152606401610495565b610bd384610f11565b6000610c0182600101546104dc64e8d4a510006104d68760030154876000015461157490919063ffffffff16565b90508015610c1357610c133382611677565b8315610c3d578154610c259085611635565b82558254610c3d906001600160a01b031633866116e1565b60038301548254610c589164e8d4a51000916104d691611574565b6001830155604051848152859033907ff279e6a1f5e320cca91135676d9cb6e44ca8a08c0b88342bcdb1144f6511b5689060200160405180910390a35050505050565b6005546001600160a01b0316610cea5760405162461bcd60e51b815260206004820152601460248201527336b4b3b930ba329d1037379036b4b3b930ba37b960611b6044820152606401610495565b600060068281548110610d0d57634e487b7160e01b600052603260045260246000fd5b60009182526020822060049182020180546040516370a0823160e01b815230938101939093529093506001600160a01b0316919082906370a082319060240160206040518083038186803b158015610d6457600080fd5b505afa158015610d78573d6000803e3d6000fd5b505050506040513d601f19601f82011682018060405250810190610d9c9190611cf6565b600554909150610db9906001600160a01b038481169116836118e9565b60055460405163ce5494bb60e01b81526001600160a01b038481166004830152600092169063ce5494bb90602401602060405180830381600087803b158015610e0157600080fd5b505af1158015610e15573d6000803e3d6000fd5b505050506040513d601f19601f82011682018060405250810190610e399190611cc2565b6040516370a0823160e01b81523060048201529091506001600160a01b038216906370a082319060240160206040518083038186803b158015610e7b57600080fd5b505afa158015610e8f573d6000803e3d6000fd5b505050506040513d601f19601f82011682018060405250810190610eb39190611cf6565b8214610ef05760405162461bcd60e51b815260206004820152600c60248201526b1b5a59dc985d194e8818985960a21b6044820152606401610495565b83546001600160a01b0319166001600160a01b039190911617909255505050565b600060068281548110610f3457634e487b7160e01b600052603260045260246000fd5b9060005260206000209060040201905080600201544311610f53575050565b80546040516370a0823160e01b81523060048201526000916001600160a01b0316906370a082319060240160206040518083038186803b158015610f9657600080fd5b505afa158015610faa573d6000803e3d6000fd5b505050506040513d601f19601f82011682018060405250810190610fce9190611cf6565b905080610fe057504360029091015550565b6000610ff0836002015443611305565b905060006110176008546104d686600101546107046003548761157490919063ffffffff16565b905061103a61102f846104d68464e8d4a51000611574565b600386015490611749565b60038501555050436002909201919091555050565b60006006828154811061107257634e487b7160e01b600052603260045260246000fd5b6000918252602080832085845260078252604080852033808752935284208054858255600182019590955560049093020180549094509192916110c2916001600160a01b039190911690836116e1565b8361112c57600254604051632770a7eb60e21b8152336004820152602481018390526001600160a01b0390911690639dc29fac90604401600060405180830381600087803b15801561111357600080fd5b505af1158015611127573d6000803e3d6000fd5b505050505b604051818152849033907fbb757047c2b5f3974fe26b7c10f732e7bce710b0952a71082702781e62ae0595906020016105d3565b6000546001600160a01b0316331461118a5760405162461bcd60e51b815260040161049590611e1b565b600455565b60065460005b818110156111b6576111a681610f11565b6111af81611eea565b9050611195565b5050565b6000546001600160a01b031633146111e45760405162461bcd60e51b815260040161049590611e1b565b80156111f2576111f261118f565b60006006848154811061121557634e487b7160e01b600052603260045260246000fd5b9060005260206000209060040201600101549050826006858154811061124b57634e487b7160e01b600052603260045260246000fd5b9060005260206000209060040201600101819055508281146108f957611286836112808360085461163590919063ffffffff16565b90611749565b6008556108f96117a8565b6000546001600160a01b031633146112bb5760405162461bcd60e51b815260040161049590611e1b565b600080546040516001600160a01b03909116907f8be0079c531659141344cd1fd0a4f28419497f9722a3daafe3b4186f6b6457e0908390a3600080546001600160a01b0319169055565b600454600090611319906107048486611635565b9392505050565b8161136d5760405162461bcd60e51b815260206004820152601760248201527f6465706f7369742043414b45206279207374616b696e670000000000000000006044820152606401610495565b60006006838154811061139057634e487b7160e01b600052603260045260246000fd5b600091825260208083208684526007825260408085203386529092529220600490910290910191506113c184610f11565b80541561140a5760006113f682600101546104dc64e8d4a510006104d68760030154876000015461157490919063ffffffff16565b90508015611408576114083382611677565b505b8215611436578154611427906001600160a01b03163330866118b1565b80546114339084611749565b81555b600382015481546114519164e8d4a51000916104d691611574565b6001820155604051838152849033907f90890809c654f11d6e72a28fa60149770a0d11ec6c92319d6ceb2bb0a4ea1a15906020016105d3565b6000546001600160a01b031633146114b45760405162461bcd60e51b815260040161049590611e1b565b6001600160a01b0381166115195760405162461bcd60e51b815260206004820152602660248201527f4f776e61626c653a206e6577206f776e657220697320746865207a65726f206160448201526564647265737360d01b6064820152608401610495565b600080546040516001600160a01b03808516939216917f8be0079c531659141344cd1fd0a4f28419497f9722a3daafe3b4186f6b6457e091a3600080546001600160a01b0319166001600160a01b0392909216919091179055565b6000826115835750600061075d565b600061158f8385611e88565b90508261159c8583611e68565b146113195760405162461bcd60e51b815260206004820152602160248201527f536166654d6174683a206d756c7469706c69636174696f6e206f766572666c6f6044820152607760f81b6064820152608401610495565b600061131983836040518060400160405280601a81526020017f536166654d6174683a206469766973696f6e206279207a65726f000000000000815250611a0d565b600061131983836040518060400160405280601e81526020017f536166654d6174683a207375627472616374696f6e206f766572666c6f770000815250611a44565b6002546040516328b9b77360e21b81526001600160a01b038481166004830152602482018490529091169063a2e6ddcc90604401600060405180830381600087803b1580156116c557600080fd5b505af11580156116d9573d6000803e3d6000fd5b505050505050565b6040516001600160a01b03831660248201526044810182905261174490849063a9059cbb60e01b906064015b60408051601f198184030181529190526020810180516001600160e01b03166001600160e01b031990931692909217909152611a75565b505050565b6000806117568385611e50565b9050838110156113195760405162461bcd60e51b815260206004820152601b60248201527f536166654d6174683a206164646974696f6e206f766572666c6f7700000000006044820152606401610495565b600654600060015b8281101561180f576117fd600682815481106117dc57634e487b7160e01b600052603260045260246000fd5b9060005260206000209060040201600101548361174990919063ffffffff16565b915061180881611eea565b90506117b0565b5080156111b6576118218160026115f3565b905061186f81611280600660008154811061184c57634e487b7160e01b600052603260045260246000fd5b90600052602060002090600402016001015460085461163590919063ffffffff16565b60088190555080600660008154811061189857634e487b7160e01b600052603260045260246000fd5b9060005260206000209060040201600101819055505050565b6040516001600160a01b03808516602483015283166044820152606481018290526108f99085906323b872dd60e01b9060840161170d565b8015806119725750604051636eb1769f60e11b81523060048201526001600160a01b03838116602483015284169063dd62ed3e9060440160206040518083038186803b15801561193857600080fd5b505afa15801561194c573d6000803e3d6000fd5b505050506040513d601f19601f820116820180604052508101906119709190611cf6565b155b6119dd5760405162461bcd60e51b815260206004820152603660248201527f5361666542455032303a20617070726f76652066726f6d206e6f6e2d7a65726f60448201527520746f206e6f6e2d7a65726f20616c6c6f77616e636560501b6064820152608401610495565b6040516001600160a01b03831660248201526044810182905261174490849063095ea7b360e01b9060640161170d565b60008183611a2e5760405162461bcd60e51b81526004016104959190611de8565b506000611a3b8486611e68565b95945050505050565b60008184841115611a685760405162461bcd60e51b81526004016104959190611de8565b506000611a3b8486611ea7565b6000611aca826040518060400160405280602081526020017f5361666542455032303a206c6f772d6c6576656c2063616c6c206661696c6564815250856001600160a01b0316611b479092919063ffffffff16565b8051909150156117445780806020019051810190611ae89190611ca6565b6117445760405162461bcd60e51b815260206004820152602a60248201527f5361666542455032303a204245503230206f7065726174696f6e20646964206e6044820152691bdd081cdd58d8d9595960b21b6064820152608401610495565b6060611b568484600085611b5e565b949350505050565b6060611b6985611c51565b611bb55760405162461bcd60e51b815260206004820152601d60248201527f416464726573733a2063616c6c20746f206e6f6e2d636f6e74726163740000006044820152606401610495565b600080866001600160a01b03168587604051611bd19190611dcc565b60006040518083038185875af1925050503d8060008114611c0e576040519150601f19603f3d011682016040523d82523d6000602084013e611c13565b606091505b50915091508115611c27579150611b569050565b805115611c375780518082602001fd5b8360405162461bcd60e51b81526004016104959190611de8565b6000813f7fc5d2460186f7233c927e7db2dcc703c0e500b653ca82273b7bfad8045d85a470818114801590611b56575050151592915050565b600060208284031215611c9b578081fd5b813561131981611f1b565b600060208284031215611cb7578081fd5b815161131981611f33565b600060208284031215611cd3578081fd5b815161131981611f1b565b600060208284031215611cef578081fd5b5035919050565b600060208284031215611d07578081fd5b5051919050565b60008060408385031215611d20578081fd5b823591506020830135611d3281611f1b565b809150509250929050565b600080600060608486031215611d51578081fd5b833592506020840135611d6381611f1b565b91506040840135611d7381611f33565b809150509250925092565b60008060408385031215611d90578182fd5b50508035926020909101359150565b600080600060608486031215611db3578283fd5b83359250602084013591506040840135611d7381611f33565b60008251611dde818460208701611ebe565b9190910192915050565b6020815260008251806020840152611e07816040850160208701611ebe565b601f01601f19169190910160400192915050565b6020808252818101527f4f776e61626c653a2063616c6c6572206973206e6f7420746865206f776e6572604082015260600190565b60008219821115611e6357611e63611f05565b500190565b600082611e8357634e487b7160e01b81526012600452602481fd5b500490565b6000816000190483118215151615611ea257611ea2611f05565b500290565b600082821015611eb957611eb9611f05565b500390565b60005b83811015611ed9578181015183820152602001611ec1565b838111156108f95750506000910152565b6000600019821415611efe57611efe611f05565b5060010190565b634e487b7160e01b600052601160045260246000fd5b6001600160a01b0381168114611f3057600080fd5b50565b8015158114611f3057600080fdfea2646970667358221220bfc0f3719406cc32a102b2be88965ed8f880ecd47bf89a22d7e2c2d72f89e04864736f6c63430008040033",
  "linkReferences": {},
  "deployedLinkReferences": {}
}