{
  "_format": "hh-sol-artifact-1",
  "contractName": "CairoFinanceFee",
  "sourceName": "contracts/swap/CairoFinanceFee.sol",
  "abi": [
    {
      "inputs": [
        {
          "internalType": "address",
          "name": "Pyramid_",
          "type": "address"
        },
        {
          "internalType": "address",
          "name": "vault_",
          "type": "address"
        },
        {
          "internalType": "contract ICairoRouter",
          "name": "router_",
          "type": "address"
        },
        {
          "internalType": "contract ICairoFactory",
          "name": "factory_",
          "type": "address"
        },
        {
          "internalType": "address",
          "name": "WBNB_",
          "type": "address"
        },
        {
          "internalType": "address",
          "name": "CAIRO_",
          "type": "address"
        },
        {
          "internalType": "address",
          "name": "USDT_",
          "type": "address"
        },
        {
          "internalType": "address",
          "name": "receiver_",
          "type": "address"
        },
        {
          "internalType": "address",
          "name": "caller_",
          "type": "address"
        }
      ],
      "stateMutability": "nonpayable",
      "type": "constructor"
    },
    {
      "anonymous": false,
      "inputs": [
        {
          "indexed": true,
          "internalType": "address",
          "name": "previousOwner",
          "type": "address"
        },
        {
          "indexed": true,
          "internalType": "address",
          "name": "newOwner",
          "type": "address"
        }
      ],
      "name": "OwnershipTransferred",
      "type": "event"
    },
    {
      "inputs": [],
      "name": "CAIRO",
      "outputs": [
        {
          "internalType": "address",
          "name": "",
          "type": "address"
        }
      ],
      "stateMutability": "view",
      "type": "function"
    },
    {
      "inputs": [],
      "name": "Pyramid",
      "outputs": [
        {
          "internalType": "address",
          "name": "",
          "type": "address"
        }
      ],
      "stateMutability": "view",
      "type": "function"
    },
    {
      "inputs": [],
      "name": "USDT",
      "outputs": [
        {
          "internalType": "address",
          "name": "",
          "type": "address"
        }
      ],
      "stateMutability": "view",
      "type": "function"
    },
    {
      "inputs": [],
      "name": "WBNB",
      "outputs": [
        {
          "internalType": "address",
          "name": "",
          "type": "address"
        }
      ],
      "stateMutability": "view",
      "type": "function"
    },
    {
      "inputs": [],
      "name": "caller",
      "outputs": [
        {
          "internalType": "address",
          "name": "",
          "type": "address"
        }
      ],
      "stateMutability": "view",
      "type": "function"
    },
    {
      "inputs": [],
      "name": "destroyAll",
      "outputs": [],
      "stateMutability": "nonpayable",
      "type": "function"
    },
    {
      "inputs": [
        {
          "internalType": "address[]",
          "name": "pairs",
          "type": "address[]"
        },
        {
          "internalType": "uint256",
          "name": "minAmount",
          "type": "uint256"
        }
      ],
      "name": "doHardwork",
      "outputs": [],
      "stateMutability": "nonpayable",
      "type": "function"
    },
    {
      "inputs": [],
      "name": "factory",
      "outputs": [
        {
          "internalType": "contract ICairoFactory",
          "name": "",
          "type": "address"
        }
      ],
      "stateMutability": "view",
      "type": "function"
    },
    {
      "inputs": [],
      "name": "hole",
      "outputs": [
        {
          "internalType": "address",
          "name": "",
          "type": "address"
        }
      ],
      "stateMutability": "view",
      "type": "function"
    },
    {
      "inputs": [],
      "name": "owner",
      "outputs": [
        {
          "internalType": "address",
          "name": "",
          "type": "address"
        }
      ],
      "stateMutability": "view",
      "type": "function"
    },
    {
      "inputs": [],
      "name": "receiver",
      "outputs": [
        {
          "internalType": "address",
          "name": "",
          "type": "address"
        }
      ],
      "stateMutability": "view",
      "type": "function"
    },
    {
      "inputs": [],
      "name": "renounceOwnership",
      "outputs": [],
      "stateMutability": "nonpayable",
      "type": "function"
    },
    {
      "inputs": [],
      "name": "router",
      "outputs": [
        {
          "internalType": "contract ICairoRouter",
          "name": "",
          "type": "address"
        }
      ],
      "stateMutability": "view",
      "type": "function"
    },
    {
      "inputs": [
        {
          "internalType": "address",
          "name": "newCaller_",
          "type": "address"
        }
      ],
      "name": "setCaller",
      "outputs": [],
      "stateMutability": "nonpayable",
      "type": "function"
    },
    {
      "inputs": [
        {
          "internalType": "address",
          "name": "token",
          "type": "address"
        },
        {
          "internalType": "uint256",
          "name": "amount",
          "type": "uint256"
        }
      ],
      "name": "transferOut",
      "outputs": [],
      "stateMutability": "nonpayable",
      "type": "function"
    },
    {
      "inputs": [
        {
          "internalType": "address",
          "name": "newOwner",
          "type": "address"
        }
      ],
      "name": "transferOwnership",
      "outputs": [],
      "stateMutability": "nonpayable",
      "type": "function"
    },
    {
      "inputs": [],
      "name": "vault",
      "outputs": [
        {
          "internalType": "address",
          "name": "",
          "type": "address"
        }
      ],
      "stateMutability": "view",
      "type": "function"
    }
  ],
  "bytecode": "0x6101806040523480156200001257600080fd5b5060405162001c4b38038062001c4b8339810160408190526200003591620000e8565b600080546001600160a01b031916339081178255604051909182917f8be0079c531659141344cd1fd0a4f28419497f9722a3daafe3b4186f6b6457e0908290a350606098891b6001600160601b031990811660805297891b881660a05295881b871660c05293871b861660e05291861b851661010052851b841661012052841b83166101405290921b1661016052600180546001600160a01b0319166001600160a01b03909216919091179055620001d7565b60008060008060008060008060006101208a8c03121562000107578485fd5b89516200011481620001be565b60208b01519099506200012781620001be565b60408b01519098506200013a81620001be565b60608b01519097506200014d81620001be565b60808b01519096506200016081620001be565b60a08b01519095506200017381620001be565b60c08b01519094506200018681620001be565b60e08b01519093506200019981620001be565b6101008b0151909250620001ad81620001be565b809150509295985092959850929598565b6001600160a01b0381168114620001d457600080fd5b50565b60805160601c60a05160601c60c05160601c60e05160601c6101005160601c6101205160601c6101405160601c6101605160601c61195d620002ee6000396000818161022d015261083f0152600081816101e0015281816103020152818161038e015281816103db015281816104a20152818161054301528181610a7f01528181610b2c01528181610c8801528181610eda015261100501526000818160ef0152818161043d0152818161068901526107170152600061014f015260006101b9015260008181610254015281816105700152818161060401528181610e3e01528181610f23015281816110f7015261118b01526000818161027b01526112dd01526000818161017f0152611234015261195d6000f3fe608060405234801561001057600080fd5b50600436106100db5760003560e01c806315729016146100e05780635915d91e146100ea578063715018a61461012757806376890c581461012f5780638da5cb5b146101425780638dd950021461014a5780639e3ce1cf14610171578063b150dd5b1461017a578063beb92f55146101a1578063c45a0155146101b4578063c54e44eb146101db578063f2fde38b14610202578063f2fe155714610215578063f7260d3e14610228578063f887ea401461024f578063fbfa77cf14610276578063fc9c8d391461029d575b600080fd5b6100e86102b0565b005b6101117f000000000000000000000000000000000000000000000000000000000000000081565b60405161011e9190611756565b60405180910390f35b6100e8610743565b6100e861013d36600461163f565b6107aa565b61011161086a565b6101117f000000000000000000000000000000000000000000000000000000000000000081565b61011161dead81565b6101117f000000000000000000000000000000000000000000000000000000000000000081565b6100e86101af366004611607565b610879565b6101117f000000000000000000000000000000000000000000000000000000000000000081565b6101117f000000000000000000000000000000000000000000000000000000000000000081565b6100e8610210366004611607565b610911565b6100e861022336600461166a565b6109ee565b6101117f000000000000000000000000000000000000000000000000000000000000000081565b6101117f000000000000000000000000000000000000000000000000000000000000000081565b6101117f000000000000000000000000000000000000000000000000000000000000000081565b600154610111906001600160a01b031681565b336102b961086a565b6001600160a01b0316146102e85760405162461bcd60e51b81526004016102df906117b6565b60405180910390fd5b6040516370a0823160e01b81526000906001600160a01b037f000000000000000000000000000000000000000000000000000000000000000016906370a0823190610337903090600401611756565b60206040518083038186803b15801561034f57600080fd5b505afa158015610363573d6000803e3d6000fd5b505050506040513d601f19601f8201168201806040525081019061038791906116ff565b90506103b37f000000000000000000000000000000000000000000000000000000000000000082611212565b60408051600280825260608201835292935060009290916020830190803683370190505090507f00000000000000000000000000000000000000000000000000000000000000008160008151811061041b57634e487b7160e01b600052603260045260246000fd5b60200260200101906001600160a01b031690816001600160a01b0316815250507f00000000000000000000000000000000000000000000000000000000000000008160018151811061047d57634e487b7160e01b600052603260045260246000fd5b6001600160a01b0392831660209182029290920101526040516370a0823160e01b81527f0000000000000000000000000000000000000000000000000000000000000000909116906370a08231906104d9903090600401611756565b60206040518083038186803b1580156104f157600080fd5b505afa158015610505573d6000803e3d6000fd5b505050506040513d601f19601f8201168201806040525081019061052991906116ff565b60405163095ea7b360e01b81529092506001600160a01b037f0000000000000000000000000000000000000000000000000000000000000000169063095ea7b39061059a907f000000000000000000000000000000000000000000000000000000000000000090869060040161176a565b602060405180830381600087803b1580156105b457600080fd5b505af11580156105c8573d6000803e3d6000fd5b505050506040513d601f19601f820116820180604052508101906105ec91906116df565b50604051635c11d79560e01b81526001600160a01b037f00000000000000000000000000000000000000000000000000000000000000001690635c11d795906106429085906000908690309042906004016117eb565b600060405180830381600087803b15801561065c57600080fd5b505af1158015610670573d6000803e3d6000fd5b50506040516370a0823160e01b81526001600160a01b037f00000000000000000000000000000000000000000000000000000000000000001692506370a0823191506106c0903090600401611756565b60206040518083038186803b1580156106d857600080fd5b505afa1580156106ec573d6000803e3d6000fd5b505050506040513d601f19601f8201168201806040525081019061071091906116ff565b915061073f7f000000000000000000000000000000000000000000000000000000000000000061dead84611260565b5050565b3361074c61086a565b6001600160a01b0316146107725760405162461bcd60e51b81526004016102df906117b6565b600080546040516001600160a01b0390911690600080516020611908833981519152908390a3600080546001600160a01b0319169055565b6040516370a0823160e01b815282906000906001600160a01b038316906370a08231906107db903090600401611756565b60206040518083038186803b1580156107f357600080fd5b505afa158015610807573d6000803e3d6000fd5b505050506040513d601f19601f8201168201806040525081019061082b91906116ff565b905082811015610839578092505b610864827f000000000000000000000000000000000000000000000000000000000000000085611260565b50505050565b6000546001600160a01b031690565b3361088261086a565b6001600160a01b0316146108a85760405162461bcd60e51b81526004016102df906117b6565b6001600160a01b0381166108ef5760405162461bcd60e51b815260206004820152600e60248201526d63616c6c6572206973207a65726f60901b60448201526064016102df565b600180546001600160a01b0319166001600160a01b0392909216919091179055565b3361091a61086a565b6001600160a01b0316146109405760405162461bcd60e51b81526004016102df906117b6565b6001600160a01b0381166109a55760405162461bcd60e51b815260206004820152602660248201527f4f776e61626c653a206e6577206f776e657220697320746865207a65726f206160448201526564647265737360d01b60648201526084016102df565b600080546040516001600160a01b038085169392169160008051602061190883398151915291a3600080546001600160a01b0319166001600160a01b0392909216919091179055565b6001546001600160a01b03163314610a395760405162461bcd60e51b815260206004820152600e60248201526d34b63632b3b0b61031b0b63632b960911b60448201526064016102df565b60005b82811015610864576000848483818110610a6657634e487b7160e01b600052603260045260246000fd5b9050602002016020810190610a7b9190611607565b90507f00000000000000000000000000000000000000000000000000000000000000006001600160a01b0316816001600160a01b0316630dfe16816040518163ffffffff1660e01b815260040160206040518083038186803b158015610ae057600080fd5b505afa158015610af4573d6000803e3d6000fd5b505050506040513d601f19601f82011682018060405250810190610b189190611623565b6001600160a01b031614158015610bd157507f00000000000000000000000000000000000000000000000000000000000000006001600160a01b0316816001600160a01b031663d21220a76040518163ffffffff1660e01b815260040160206040518083038186803b158015610b8d57600080fd5b505afa158015610ba1573d6000803e3d6000fd5b505050506040513d601f19601f82011682018060405250810190610bc59190611623565b6001600160a01b031614155b15610bdc5750611200565b6040516370a0823160e01b81526000906001600160a01b038316906370a0823190610c0b903090600401611756565b60206040518083038186803b158015610c2357600080fd5b505afa158015610c37573d6000803e3d6000fd5b505050506040513d601f19601f82011682018060405250810190610c5b91906116ff565b905080610c69575050611200565b83811015610c78575050611200565b610c8282826112bb565b905060007f00000000000000000000000000000000000000000000000000000000000000006001600160a01b0316836001600160a01b0316630dfe16816040518163ffffffff1660e01b815260040160206040518083038186803b158015610ce957600080fd5b505afa158015610cfd573d6000803e3d6000fd5b505050506040513d601f19601f82011682018060405250810190610d219190611623565b6001600160a01b03161415610da657826001600160a01b031663d21220a76040518163ffffffff1660e01b815260040160206040518083038186803b158015610d6957600080fd5b505afa158015610d7d573d6000803e3d6000fd5b505050506040513d601f19601f82011682018060405250810190610da19190611623565b610e17565b826001600160a01b0316630dfe16816040518163ffffffff1660e01b815260040160206040518083038186803b158015610ddf57600080fd5b505afa158015610df3573d6000803e3d6000fd5b505050506040513d601f19601f82011682018060405250810190610e179190611623565b60405163095ea7b360e01b81529091506001600160a01b0384169063095ea7b390610e68907f000000000000000000000000000000000000000000000000000000000000000090869060040161176a565b602060405180830381600087803b158015610e8257600080fd5b505af1158015610e96573d6000803e3d6000fd5b505050506040513d601f19601f82011682018060405250810190610eba91906116df565b50604051635d5155ef60e11b81526001600160a01b0382811660048301527f0000000000000000000000000000000000000000000000000000000000000000811660248301526044820184905260006064830181905260848301523060a48301524260c48301527f0000000000000000000000000000000000000000000000000000000000000000169063baa2abde9060e4016040805180830381600087803b158015610f6657600080fd5b505af1158015610f7a573d6000803e3d6000fd5b505050506040513d601f19601f82011682018060405250810190610f9e9190611717565b50506040805160028082526060820183526000926020830190803683370190505090508181600081518110610fe357634e487b7160e01b600052603260045260246000fd5b60200260200101906001600160a01b031690816001600160a01b0316815250507f00000000000000000000000000000000000000000000000000000000000000008160018151811061104557634e487b7160e01b600052603260045260246000fd5b6001600160a01b0392831660209182029290920101526040516370a0823160e01b8152908316906370a0823190611080903090600401611756565b60206040518083038186803b15801561109857600080fd5b505afa1580156110ac573d6000803e3d6000fd5b505050506040513d601f19601f820116820180604052508101906110d091906116ff565b60405163095ea7b360e01b81529093506001600160a01b0383169063095ea7b390611121907f000000000000000000000000000000000000000000000000000000000000000090879060040161176a565b602060405180830381600087803b15801561113b57600080fd5b505af115801561114f573d6000803e3d6000fd5b505050506040513d601f19601f8201168201806040525081019061117391906116df565b50604051635c11d79560e01b81526001600160a01b037f00000000000000000000000000000000000000000000000000000000000000001690635c11d795906111c99086906000908690309042906004016117eb565b600060405180830381600087803b1580156111e357600080fd5b505af11580156111f7573d6000803e3d6000fd5b50505050505050505b8061120a816118be565b915050610a3c565b600080611220836002611302565b905061122c8382611348565b9150611259847f000000000000000000000000000000000000000000000000000000000000000083611260565b5092915050565b6112b68363a9059cbb60e01b848460405160240161127f92919061176a565b60408051601f198184030181529190526020810180516001600160e01b03166001600160e01b03199093169290921790915261138a565b505050565b6000806112c9836003611302565b90506112d58382611348565b9150611259847f000000000000000000000000000000000000000000000000000000000000000083611260565b600061134183836040518060400160405280601a815260200179536166654d6174683a206469766973696f6e206279207a65726f60301b81525061145c565b9392505050565b600061134183836040518060400160405280601e81526020017f536166654d6174683a207375627472616374696f6e206f766572666c6f770000815250611493565b60006113df826040518060400160405280602081526020017f5361666542455032303a206c6f772d6c6576656c2063616c6c206661696c6564815250856001600160a01b03166114c49092919063ffffffff16565b8051909150156112b657808060200190518101906113fd91906116df565b6112b65760405162461bcd60e51b815260206004820152602a60248201527f5361666542455032303a204245503230206f7065726174696f6e20646964206e6044820152691bdd081cdd58d8d9595960b21b60648201526084016102df565b6000818361147d5760405162461bcd60e51b81526004016102df9190611783565b50600061148a848661185b565b95945050505050565b600081848411156114b75760405162461bcd60e51b81526004016102df9190611783565b50600061148a848661187b565b60606114d384846000856114db565b949350505050565b60606114e6856115ce565b6115325760405162461bcd60e51b815260206004820152601d60248201527f416464726573733a2063616c6c20746f206e6f6e2d636f6e747261637400000060448201526064016102df565b600080866001600160a01b0316858760405161154e919061173a565b60006040518083038185875af1925050503d806000811461158b576040519150601f19603f3d011682016040523d82523d6000602084013e611590565b606091505b509150915081156115a45791506114d39050565b8051156115b45780518082602001fd5b8360405162461bcd60e51b81526004016102df9190611783565b6000813f7fc5d2460186f7233c927e7db2dcc703c0e500b653ca82273b7bfad8045d85a4708181148015906114d3575050151592915050565b600060208284031215611618578081fd5b8135611341816118ef565b600060208284031215611634578081fd5b8151611341816118ef565b60008060408385031215611651578081fd5b823561165c816118ef565b946020939093013593505050565b60008060006040848603121561167e578081fd5b83356001600160401b0380821115611694578283fd5b818601915086601f8301126116a7578283fd5b8135818111156116b5578384fd5b8760208260051b85010111156116c9578384fd5b6020928301989097509590910135949350505050565b6000602082840312156116f0578081fd5b81518015158114611341578182fd5b600060208284031215611710578081fd5b5051919050565b60008060408385031215611729578182fd5b505080516020909101519092909150565b6000825161174c818460208701611892565b9190910192915050565b6001600160a01b0391909116815260200190565b6001600160a01b03929092168252602082015260400190565b60208152600082518060208401526117a2816040850160208701611892565b601f01601f19169190910160400192915050565b6020808252818101527f4f776e61626c653a2063616c6c6572206973206e6f7420746865206f776e6572604082015260600190565b600060a082018783526020878185015260a0604085015281875180845260c0860191508289019350845b8181101561183a5784516001600160a01b031683529383019391830191600101611815565b50506001600160a01b03969096166060850152505050608001529392505050565b60008261187657634e487b7160e01b81526012600452602481fd5b500490565b60008282101561188d5761188d6118d9565b500390565b60005b838110156118ad578181015183820152602001611895565b838111156108645750506000910152565b60006000198214156118d2576118d26118d9565b5060010190565b634e487b7160e01b600052601160045260246000fd5b6001600160a01b038116811461190457600080fd5b5056fe8be0079c531659141344cd1fd0a4f28419497f9722a3daafe3b4186f6b6457e0a26469706673582212209283c005d1adaeaa3fa6ae588c3117899313b2f4005f4f1c87485beba2930da664736f6c63430008040033",
  "linkReferences": {},
  "deployedLinkReferences": {}
}