{
  "_format": "hh-sol-artifact-1",
  "contractName": "CairoFinanceFee",
  "sourceName": "contracts/swap/CairoFinanceFee.sol",
  "abi": [
    {
      "inputs": [
        {
          "internalType": "address",
          "name": "Pyramid_",
          "type": "address"
        },
        {
          "internalType": "address",
          "name": "vault_",
          "type": "address"
        },
        {
          "internalType": "contract ICairoRouter",
          "name": "router_",
          "type": "address"
        },
        {
          "internalType": "contract ICairoFactory",
          "name": "factory_",
          "type": "address"
        },
        {
          "internalType": "address",
          "name": "WBNB_",
          "type": "address"
        },
        {
          "internalType": "address",
          "name": "CAIRO_",
          "type": "address"
        },
        {
          "internalType": "address",
          "name": "USDT_",
          "type": "address"
        },
        {
          "internalType": "address",
          "name": "receiver_",
          "type": "address"
        },
        {
          "internalType": "address",
          "name": "caller_",
          "type": "address"
        }
      ],
      "stateMutability": "nonpayable",
      "type": "constructor"
    },
    {
      "anonymous": false,
      "inputs": [
        {
          "indexed": true,
          "internalType": "address",
          "name": "previousOwner",
          "type": "address"
        },
        {
          "indexed": true,
          "internalType": "address",
          "name": "newOwner",
          "type": "address"
        }
      ],
      "name": "OwnershipTransferred",
      "type": "event"
    },
    {
      "inputs": [],
      "name": "CAIRO",
      "outputs": [
        {
          "internalType": "address",
          "name": "",
          "type": "address"
        }
      ],
      "stateMutability": "view",
      "type": "function"
    },
    {
      "inputs": [],
      "name": "Pyramid",
      "outputs": [
        {
          "internalType": "address",
          "name": "",
          "type": "address"
        }
      ],
      "stateMutability": "view",
      "type": "function"
    },
    {
      "inputs": [],
      "name": "USDT",
      "outputs": [
        {
          "internalType": "address",
          "name": "",
          "type": "address"
        }
      ],
      "stateMutability": "view",
      "type": "function"
    },
    {
      "inputs": [],
      "name": "WBNB",
      "outputs": [
        {
          "internalType": "address",
          "name": "",
          "type": "address"
        }
      ],
      "stateMutability": "view",
      "type": "function"
    },
    {
      "inputs": [],
      "name": "caller",
      "outputs": [
        {
          "internalType": "address",
          "name": "",
          "type": "address"
        }
      ],
      "stateMutability": "view",
      "type": "function"
    },
    {
      "inputs": [],
      "name": "destroyAll",
      "outputs": [],
      "stateMutability": "nonpayable",
      "type": "function"
    },
    {
      "inputs": [
        {
          "internalType": "address[]",
          "name": "pairs",
          "type": "address[]"
        },
        {
          "internalType": "uint256",
          "name": "minAmount",
          "type": "uint256"
        }
      ],
      "name": "doHardwork",
      "outputs": [],
      "stateMutability": "nonpayable",
      "type": "function"
    },
    {
      "inputs": [],
      "name": "factory",
      "outputs": [
        {
          "internalType": "contract ICairoFactory",
          "name": "",
          "type": "address"
        }
      ],
      "stateMutability": "view",
      "type": "function"
    },
    {
      "inputs": [],
      "name": "hole",
      "outputs": [
        {
          "internalType": "address",
          "name": "",
          "type": "address"
        }
      ],
      "stateMutability": "view",
      "type": "function"
    },
    {
      "inputs": [],
      "name": "owner",
      "outputs": [
        {
          "internalType": "address",
          "name": "",
          "type": "address"
        }
      ],
      "stateMutability": "view",
      "type": "function"
    },
    {
      "inputs": [],
      "name": "receiver",
      "outputs": [
        {
          "internalType": "address",
          "name": "",
          "type": "address"
        }
      ],
      "stateMutability": "view",
      "type": "function"
    },
    {
      "inputs": [],
      "name": "renounceOwnership",
      "outputs": [],
      "stateMutability": "nonpayable",
      "type": "function"
    },
    {
      "inputs": [],
      "name": "router",
      "outputs": [
        {
          "internalType": "contract ICairoRouter",
          "name": "",
          "type": "address"
        }
      ],
      "stateMutability": "view",
      "type": "function"
    },
    {
      "inputs": [
        {
          "internalType": "address",
          "name": "newCaller_",
          "type": "address"
        }
      ],
      "name": "setCaller",
      "outputs": [],
      "stateMutability": "nonpayable",
      "type": "function"
    },
    {
      "inputs": [
        {
          "internalType": "address",
          "name": "token",
          "type": "address"
        },
        {
          "internalType": "uint256",
          "name": "amount",
          "type": "uint256"
        }
      ],
      "name": "transferOut",
      "outputs": [],
      "stateMutability": "nonpayable",
      "type": "function"
    },
    {
      "inputs": [
        {
          "internalType": "address",
          "name": "newOwner",
          "type": "address"
        }
      ],
      "name": "transferOwnership",
      "outputs": [],
      "stateMutability": "nonpayable",
      "type": "function"
    },
    {
      "inputs": [],
      "name": "vault",
      "outputs": [
        {
          "internalType": "address",
          "name": "",
          "type": "address"
        }
      ],
      "stateMutability": "view",
      "type": "function"
    }
  ],
  "bytecode": "0x6101806040523480156200001257600080fd5b5060405162002e5738038062002e57833981810160405281019062000038919062000341565b60006200004a620002f460201b60201c565b9050806000806101000a81548173ffffffffffffffffffffffffffffffffffffffff021916908373ffffffffffffffffffffffffffffffffffffffff1602179055508073ffffffffffffffffffffffffffffffffffffffff16600073ffffffffffffffffffffffffffffffffffffffff167f8be0079c531659141344cd1fd0a4f28419497f9722a3daafe3b4186f6b6457e060405160405180910390a3508873ffffffffffffffffffffffffffffffffffffffff1660808173ffffffffffffffffffffffffffffffffffffffff1660601b815250508773ffffffffffffffffffffffffffffffffffffffff1660a08173ffffffffffffffffffffffffffffffffffffffff1660601b815250508673ffffffffffffffffffffffffffffffffffffffff1660c08173ffffffffffffffffffffffffffffffffffffffff1660601b815250508573ffffffffffffffffffffffffffffffffffffffff1660e08173ffffffffffffffffffffffffffffffffffffffff1660601b815250508473ffffffffffffffffffffffffffffffffffffffff166101008173ffffffffffffffffffffffffffffffffffffffff1660601b815250508373ffffffffffffffffffffffffffffffffffffffff166101208173ffffffffffffffffffffffffffffffffffffffff1660601b815250508273ffffffffffffffffffffffffffffffffffffffff166101408173ffffffffffffffffffffffffffffffffffffffff1660601b815250508173ffffffffffffffffffffffffffffffffffffffff166101608173ffffffffffffffffffffffffffffffffffffffff1660601b8152505080600160006101000a81548173ffffffffffffffffffffffffffffffffffffffff021916908373ffffffffffffffffffffffffffffffffffffffff160217905550505050505050505050620004c4565b600033905090565b6000815190506200030d8162000476565b92915050565b600081519050620003248162000490565b92915050565b6000815190506200033b81620004aa565b92915050565b60008060008060008060008060006101208a8c0312156200036157600080fd5b6000620003718c828d01620002fc565b9950506020620003848c828d01620002fc565b9850506040620003978c828d016200032a565b9750506060620003aa8c828d0162000313565b9650506080620003bd8c828d01620002fc565b95505060a0620003d08c828d01620002fc565b94505060c0620003e38c828d01620002fc565b93505060e0620003f68c828d01620002fc565b9250506101006200040a8c828d01620002fc565b9150509295985092959850929598565b6000620004278262000456565b9050919050565b60006200043b826200041a565b9050919050565b60006200044f826200041a565b9050919050565b600073ffffffffffffffffffffffffffffffffffffffff82169050919050565b62000481816200041a565b81146200048d57600080fd5b50565b6200049b816200042e565b8114620004a757600080fd5b50565b620004b58162000442565b8114620004c157600080fd5b50565b60805160601c60a05160601c60c05160601c60e05160601c6101005160601c6101205160601c6101405160601c6101605160601c61287b620005dc60003960008181610a8c015261186d01526000818161032e015281816103dc01528181610479015281816105a30152818161064e01528181610c8401528181610f4101528181611015015281816111a80152818161146801526115ed01526000818161050e015281816107b00152818161085e015261088c01526000610ae201526000610c6001526000818161068a0152818161071c015281816113990152818161142b01528181611729015281816117bb01526118910152600081816118b50152611a1f015260008181610b0c0152611939015261287b6000f3fe608060405234801561001057600080fd5b50600436106100db5760003560e01c806315729016146100e05780635915d91e146100ea578063715018a61461010857806376890c58146101125780638da5cb5b1461012e5780638dd950021461014c5780639e3ce1cf1461016a578063b150dd5b14610188578063beb92f55146101a6578063c45a0155146101c2578063c54e44eb146101e0578063f2fde38b146101fe578063f2fe15571461021a578063f7260d3e14610236578063f887ea4014610254578063fbfa77cf14610272578063fc9c8d3914610290575b600080fd5b6100e86102ae565b005b6100f261088a565b6040516100ff919061223c565b60405180910390f35b6101106108ae565b005b61012c60048036038101906101279190611ef7565b6109e8565b005b610136610ab7565b604051610143919061223c565b60405180910390f35b610154610ae0565b604051610161919061223c565b60405180910390f35b610172610b04565b60405161017f919061223c565b60405180910390f35b610190610b0a565b60405161019d919061223c565b60405180910390f35b6101c060048036038101906101bb9190611ea5565b610b2e565b005b6101ca610c5e565b6040516101d791906122ef565b60405180910390f35b6101e8610c82565b6040516101f5919061223c565b60405180910390f35b61021860048036038101906102139190611ea5565b610ca6565b005b610234600480360381019061022f9190611f33565b610e4f565b005b61023e61186b565b60405161024b919061223c565b60405180910390f35b61025c61188f565b604051610269919061230a565b60405180910390f35b61027a6118b3565b604051610287919061223c565b60405180910390f35b6102986118d7565b6040516102a5919061223c565b60405180910390f35b6102b66118fd565b73ffffffffffffffffffffffffffffffffffffffff166102d4610ab7565b73ffffffffffffffffffffffffffffffffffffffff161461032a576040517f08c379a0000000000000000000000000000000000000000000000000000000008152600401610321906123a7565b60405180910390fd5b60007f000000000000000000000000000000000000000000000000000000000000000073ffffffffffffffffffffffffffffffffffffffff166370a08231306040518263ffffffff1660e01b8152600401610385919061223c565b60206040518083038186803b15801561039d57600080fd5b505afa1580156103b1573d6000803e3d6000fd5b505050506040513d601f19601f820116820180604052508101906103d59190611fb4565b90506104017f000000000000000000000000000000000000000000000000000000000000000082611905565b90506000600267ffffffffffffffff811115610446577f4e487b7100000000000000000000000000000000000000000000000000000000600052604160045260246000fd5b6040519080825280602002602001820160405280156104745781602001602082028036833780820191505090505b5090507f0000000000000000000000000000000000000000000000000000000000000000816000815181106104d2577f4e487b7100000000000000000000000000000000000000000000000000000000600052603260045260246000fd5b602002602001019073ffffffffffffffffffffffffffffffffffffffff16908173ffffffffffffffffffffffffffffffffffffffff16815250507f000000000000000000000000000000000000000000000000000000000000000081600181518110610567577f4e487b7100000000000000000000000000000000000000000000000000000000600052603260045260246000fd5b602002602001019073ffffffffffffffffffffffffffffffffffffffff16908173ffffffffffffffffffffffffffffffffffffffff16815250507f000000000000000000000000000000000000000000000000000000000000000073ffffffffffffffffffffffffffffffffffffffff166370a08231306040518263ffffffff1660e01b81526004016105fa919061223c565b60206040518083038186803b15801561061257600080fd5b505afa158015610626573d6000803e3d6000fd5b505050506040513d601f19601f8201168201806040525081019061064a9190611fb4565b91507f000000000000000000000000000000000000000000000000000000000000000073ffffffffffffffffffffffffffffffffffffffff1663095ea7b37f0000000000000000000000000000000000000000000000000000000000000000846040518363ffffffff1660e01b81526004016106c79291906122c6565b602060405180830381600087803b1580156106e157600080fd5b505af11580156106f5573d6000803e3d6000fd5b505050506040513d601f19601f820116820180604052508101906107199190611f8b565b507f000000000000000000000000000000000000000000000000000000000000000073ffffffffffffffffffffffffffffffffffffffff16635c11d7958360008430426040518663ffffffff1660e01b815260040161077c959493929190612407565b600060405180830381600087803b15801561079657600080fd5b505af11580156107aa573d6000803e3d6000fd5b505050507f000000000000000000000000000000000000000000000000000000000000000073ffffffffffffffffffffffffffffffffffffffff166370a08231306040518263ffffffff1660e01b8152600401610807919061223c565b60206040518083038186803b15801561081f57600080fd5b505afa158015610833573d6000803e3d6000fd5b505050506040513d601f19601f820116820180604052508101906108579190611fb4565b91506108867f000000000000000000000000000000000000000000000000000000000000000061dead84611965565b5050565b7f000000000000000000000000000000000000000000000000000000000000000081565b6108b66118fd565b73ffffffffffffffffffffffffffffffffffffffff166108d4610ab7565b73ffffffffffffffffffffffffffffffffffffffff161461092a576040517f08c379a0000000000000000000000000000000000000000000000000000000008152600401610921906123a7565b60405180910390fd5b600073ffffffffffffffffffffffffffffffffffffffff1660008054906101000a900473ffffffffffffffffffffffffffffffffffffffff1673ffffffffffffffffffffffffffffffffffffffff167f8be0079c531659141344cd1fd0a4f28419497f9722a3daafe3b4186f6b6457e060405160405180910390a360008060006101000a81548173ffffffffffffffffffffffffffffffffffffffff021916908373ffffffffffffffffffffffffffffffffffffffff160217905550565b600082905060008173ffffffffffffffffffffffffffffffffffffffff166370a08231306040518263ffffffff1660e01b8152600401610a28919061223c565b60206040518083038186803b158015610a4057600080fd5b505afa158015610a54573d6000803e3d6000fd5b505050506040513d601f19601f82011682018060405250810190610a789190611fb4565b905082811015610a86578092505b610ab1827f000000000000000000000000000000000000000000000000000000000000000085611965565b50505050565b60008060009054906101000a900473ffffffffffffffffffffffffffffffffffffffff16905090565b7f000000000000000000000000000000000000000000000000000000000000000081565b61dead81565b7f000000000000000000000000000000000000000000000000000000000000000081565b610b366118fd565b73ffffffffffffffffffffffffffffffffffffffff16610b54610ab7565b73ffffffffffffffffffffffffffffffffffffffff1614610baa576040517f08c379a0000000000000000000000000000000000000000000000000000000008152600401610ba1906123a7565b60405180910390fd5b600073ffffffffffffffffffffffffffffffffffffffff168173ffffffffffffffffffffffffffffffffffffffff161415610c1a576040517f08c379a0000000000000000000000000000000000000000000000000000000008152600401610c11906123c7565b60405180910390fd5b80600160006101000a81548173ffffffffffffffffffffffffffffffffffffffff021916908373ffffffffffffffffffffffffffffffffffffffff16021790555050565b7f000000000000000000000000000000000000000000000000000000000000000081565b7f000000000000000000000000000000000000000000000000000000000000000081565b610cae6118fd565b73ffffffffffffffffffffffffffffffffffffffff16610ccc610ab7565b73ffffffffffffffffffffffffffffffffffffffff1614610d22576040517f08c379a0000000000000000000000000000000000000000000000000000000008152600401610d19906123a7565b60405180910390fd5b600073ffffffffffffffffffffffffffffffffffffffff168173ffffffffffffffffffffffffffffffffffffffff161415610d92576040517f08c379a0000000000000000000000000000000000000000000000000000000008152600401610d8990612367565b60405180910390fd5b8073ffffffffffffffffffffffffffffffffffffffff1660008054906101000a900473ffffffffffffffffffffffffffffffffffffffff1673ffffffffffffffffffffffffffffffffffffffff167f8be0079c531659141344cd1fd0a4f28419497f9722a3daafe3b4186f6b6457e060405160405180910390a3806000806101000a81548173ffffffffffffffffffffffffffffffffffffffff021916908373ffffffffffffffffffffffffffffffffffffffff16021790555050565b600160009054906101000a900473ffffffffffffffffffffffffffffffffffffffff1673ffffffffffffffffffffffffffffffffffffffff163373ffffffffffffffffffffffffffffffffffffffff1614610edf576040517f08c379a0000000000000000000000000000000000000000000000000000000008152600401610ed690612387565b60405180910390fd5b60005b83839050811015611865576000848483818110610f28577f4e487b7100000000000000000000000000000000000000000000000000000000600052603260045260246000fd5b9050602002016020810190610f3d9190611ea5565b90507f000000000000000000000000000000000000000000000000000000000000000073ffffffffffffffffffffffffffffffffffffffff168173ffffffffffffffffffffffffffffffffffffffff16630dfe16816040518163ffffffff1660e01b815260040160206040518083038186803b158015610fbc57600080fd5b505afa158015610fd0573d6000803e3d6000fd5b505050506040513d601f19601f82011682018060405250810190610ff49190611ece565b73ffffffffffffffffffffffffffffffffffffffff16141580156110e157507f000000000000000000000000000000000000000000000000000000000000000073ffffffffffffffffffffffffffffffffffffffff168173ffffffffffffffffffffffffffffffffffffffff1663d21220a76040518163ffffffff1660e01b815260040160206040518083038186803b15801561109057600080fd5b505afa1580156110a4573d6000803e3d6000fd5b505050506040513d601f19601f820116820180604052508101906110c89190611ece565b73ffffffffffffffffffffffffffffffffffffffff1614155b156110ec5750611852565b60008173ffffffffffffffffffffffffffffffffffffffff166370a08231306040518263ffffffff1660e01b8152600401611127919061223c565b60206040518083038186803b15801561113f57600080fd5b505afa158015611153573d6000803e3d6000fd5b505050506040513d601f19601f820116820180604052508101906111779190611fb4565b90506000811415611189575050611852565b83811015611198575050611852565b6111a282826119eb565b905060007f000000000000000000000000000000000000000000000000000000000000000073ffffffffffffffffffffffffffffffffffffffff168373ffffffffffffffffffffffffffffffffffffffff16630dfe16816040518163ffffffff1660e01b815260040160206040518083038186803b15801561122357600080fd5b505afa158015611237573d6000803e3d6000fd5b505050506040513d601f19601f8201168201806040525081019061125b9190611ece565b73ffffffffffffffffffffffffffffffffffffffff1614156112fa578273ffffffffffffffffffffffffffffffffffffffff1663d21220a76040518163ffffffff1660e01b815260040160206040518083038186803b1580156112bd57600080fd5b505afa1580156112d1573d6000803e3d6000fd5b505050506040513d601f19601f820116820180604052508101906112f59190611ece565b611379565b8273ffffffffffffffffffffffffffffffffffffffff16630dfe16816040518163ffffffff1660e01b815260040160206040518083038186803b15801561134057600080fd5b505afa158015611354573d6000803e3d6000fd5b505050506040513d601f19601f820116820180604052508101906113789190611ece565b5b90508273ffffffffffffffffffffffffffffffffffffffff1663095ea7b37f0000000000000000000000000000000000000000000000000000000000000000846040518363ffffffff1660e01b81526004016113d69291906122c6565b602060405180830381600087803b1580156113f057600080fd5b505af1158015611404573d6000803e3d6000fd5b505050506040513d601f19601f820116820180604052508101906114289190611f8b565b507f000000000000000000000000000000000000000000000000000000000000000073ffffffffffffffffffffffffffffffffffffffff1663baa2abde827f00000000000000000000000000000000000000000000000000000000000000008560008030426040518863ffffffff1660e01b81526004016114af9796959493929190612257565b6040805180830381600087803b1580156114c857600080fd5b505af11580156114dc573d6000803e3d6000fd5b505050506040513d601f19601f820116820180604052508101906115009190611fdd565b50506000600267ffffffffffffffff811115611545577f4e487b7100000000000000000000000000000000000000000000000000000000600052604160045260246000fd5b6040519080825280602002602001820160405280156115735781602001602082028036833780820191505090505b50905081816000815181106115b1577f4e487b7100000000000000000000000000000000000000000000000000000000600052603260045260246000fd5b602002602001019073ffffffffffffffffffffffffffffffffffffffff16908173ffffffffffffffffffffffffffffffffffffffff16815250507f000000000000000000000000000000000000000000000000000000000000000081600181518110611646577f4e487b7100000000000000000000000000000000000000000000000000000000600052603260045260246000fd5b602002602001019073ffffffffffffffffffffffffffffffffffffffff16908173ffffffffffffffffffffffffffffffffffffffff16815250508173ffffffffffffffffffffffffffffffffffffffff166370a08231306040518263ffffffff1660e01b81526004016116b9919061223c565b60206040518083038186803b1580156116d157600080fd5b505afa1580156116e5573d6000803e3d6000fd5b505050506040513d601f19601f820116820180604052508101906117099190611fb4565b92508173ffffffffffffffffffffffffffffffffffffffff1663095ea7b37f0000000000000000000000000000000000000000000000000000000000000000856040518363ffffffff1660e01b81526004016117669291906122c6565b602060405180830381600087803b15801561178057600080fd5b505af1158015611794573d6000803e3d6000fd5b505050506040513d601f19601f820116820180604052508101906117b89190611f8b565b507f000000000000000000000000000000000000000000000000000000000000000073ffffffffffffffffffffffffffffffffffffffff16635c11d7958460008430426040518663ffffffff1660e01b815260040161181b959493929190612407565b600060405180830381600087803b15801561183557600080fd5b505af1158015611849573d6000803e3d6000fd5b50505050505050505b808061185d90612606565b915050610ee2565b50505050565b7f000000000000000000000000000000000000000000000000000000000000000081565b7f000000000000000000000000000000000000000000000000000000000000000081565b7f000000000000000000000000000000000000000000000000000000000000000081565b600160009054906101000a900473ffffffffffffffffffffffffffffffffffffffff1681565b600033905090565b60008061191c600284611a4b90919063ffffffff16565b90506119318184611a9590919063ffffffff16565b915061195e847f000000000000000000000000000000000000000000000000000000000000000083611965565b5092915050565b6119e68363a9059cbb60e01b84846040516024016119849291906122c6565b604051602081830303815290604052907bffffffffffffffffffffffffffffffffffffffffffffffffffffffff19166020820180517bffffffffffffffffffffffffffffffffffffffffffffffffffffffff8381831617835250505050611adf565b505050565b600080611a02600384611a4b90919063ffffffff16565b9050611a178184611a9590919063ffffffff16565b9150611a44847f000000000000000000000000000000000000000000000000000000000000000083611965565b5092915050565b6000611a8d83836040518060400160405280601a81526020017f536166654d6174683a206469766973696f6e206279207a65726f000000000000815250611ba6565b905092915050565b6000611ad783836040518060400160405280601e81526020017f536166654d6174683a207375627472616374696f6e206f766572666c6f770000815250611c09565b905092915050565b6000611b41826040518060400160405280602081526020017f5361666542455032303a206c6f772d6c6576656c2063616c6c206661696c65648152508573ffffffffffffffffffffffffffffffffffffffff16611c6d9092919063ffffffff16565b9050600081511115611ba15780806020019051810190611b619190611f8b565b611ba0576040517f08c379a0000000000000000000000000000000000000000000000000000000008152600401611b9790612347565b60405180910390fd5b5b505050565b60008083118290611bed576040517f08c379a0000000000000000000000000000000000000000000000000000000008152600401611be49190612325565b60405180910390fd5b5060008385611bfc91906124cc565b9050809150509392505050565b6000838311158290611c51576040517f08c379a0000000000000000000000000000000000000000000000000000000008152600401611c489190612325565b60405180910390fd5b5060008385611c6091906124fd565b9050809150509392505050565b6060611c7c8484600085611c85565b90509392505050565b6060611c9085611da7565b611ccf576040517f08c379a0000000000000000000000000000000000000000000000000000000008152600401611cc6906123e7565b60405180910390fd5b6000808673ffffffffffffffffffffffffffffffffffffffff168587604051611cf89190612225565b60006040518083038185875af1925050503d8060008114611d35576040519150601f19603f3d011682016040523d82523d6000602084013e611d3a565b606091505b50915091508115611d4f578092505050611d9f565b600081511115611d625780518082602001fd5b836040517f08c379a0000000000000000000000000000000000000000000000000000000008152600401611d969190612325565b60405180910390fd5b949350505050565b60008060007fc5d2460186f7233c927e7db2dcc703c0e500b653ca82273b7bfad8045d85a47060001b9050833f9150808214158015611de957506000801b8214155b92505050919050565b600081359050611e0181612800565b92915050565b600081519050611e1681612800565b92915050565b60008083601f840112611e2e57600080fd5b8235905067ffffffffffffffff811115611e4757600080fd5b602083019150836020820283011115611e5f57600080fd5b9250929050565b600081519050611e7581612817565b92915050565b600081359050611e8a8161282e565b92915050565b600081519050611e9f8161282e565b92915050565b600060208284031215611eb757600080fd5b6000611ec584828501611df2565b91505092915050565b600060208284031215611ee057600080fd5b6000611eee84828501611e07565b91505092915050565b60008060408385031215611f0a57600080fd5b6000611f1885828601611df2565b9250506020611f2985828601611e7b565b9150509250929050565b600080600060408486031215611f4857600080fd5b600084013567ffffffffffffffff811115611f6257600080fd5b611f6e86828701611e1c565b93509350506020611f8186828701611e7b565b9150509250925092565b600060208284031215611f9d57600080fd5b6000611fab84828501611e66565b91505092915050565b600060208284031215611fc657600080fd5b6000611fd484828501611e90565b91505092915050565b60008060408385031215611ff057600080fd5b6000611ffe85828601611e90565b925050602061200f85828601611e90565b9150509250929050565b60006120258383612031565b60208301905092915050565b61203a81612531565b82525050565b61204981612531565b82525050565b600061205a82612471565b612064818561249f565b935061206f83612461565b8060005b838110156120a05781516120878882612019565b975061209283612492565b925050600181019050612073565b5085935050505092915050565b60006120b88261247c565b6120c281856124b0565b93506120d28185602086016125d3565b80840191505092915050565b6120e781612579565b82525050565b6120f68161259d565b82525050565b612105816125c1565b82525050565b600061211682612487565b61212081856124bb565b93506121308185602086016125d3565b612139816126ad565b840191505092915050565b6000612151602a836124bb565b915061215c826126be565b604082019050919050565b60006121746026836124bb565b915061217f8261270d565b604082019050919050565b6000612197600e836124bb565b91506121a28261275c565b602082019050919050565b60006121ba6020836124bb565b91506121c582612785565b602082019050919050565b60006121dd600e836124bb565b91506121e8826127ae565b602082019050919050565b6000612200601d836124bb565b915061220b826127d7565b602082019050919050565b61221f8161256f565b82525050565b600061223182846120ad565b915081905092915050565b60006020820190506122516000830184612040565b92915050565b600060e08201905061226c600083018a612040565b6122796020830189612040565b6122866040830188612216565b61229360608301876120fc565b6122a060808301866120fc565b6122ad60a0830185612040565b6122ba60c0830184612216565b98975050505050505050565b60006040820190506122db6000830185612040565b6122e86020830184612216565b9392505050565b600060208201905061230460008301846120de565b92915050565b600060208201905061231f60008301846120ed565b92915050565b6000602082019050818103600083015261233f818461210b565b905092915050565b6000602082019050818103600083015261236081612144565b9050919050565b6000602082019050818103600083015261238081612167565b9050919050565b600060208201905081810360008301526123a08161218a565b9050919050565b600060208201905081810360008301526123c0816121ad565b9050919050565b600060208201905081810360008301526123e0816121d0565b9050919050565b60006020820190508181036000830152612400816121f3565b9050919050565b600060a08201905061241c6000830188612216565b61242960208301876120fc565b818103604083015261243b818661204f565b905061244a6060830185612040565b6124576080830184612216565b9695505050505050565b6000819050602082019050919050565b600081519050919050565b600081519050919050565b600081519050919050565b6000602082019050919050565b600082825260208201905092915050565b600081905092915050565b600082825260208201905092915050565b60006124d78261256f565b91506124e28361256f565b9250826124f2576124f161267e565b5b828204905092915050565b60006125088261256f565b91506125138361256f565b9250828210156125265761252561264f565b5b828203905092915050565b600061253c8261254f565b9050919050565b60008115159050919050565b600073ffffffffffffffffffffffffffffffffffffffff82169050919050565b6000819050919050565b60006125848261258b565b9050919050565b60006125968261254f565b9050919050565b60006125a8826125af565b9050919050565b60006125ba8261254f565b9050919050565b60006125cc8261256f565b9050919050565b60005b838110156125f15780820151818401526020810190506125d6565b83811115612600576000848401525b50505050565b60006126118261256f565b91507fffffffffffffffffffffffffffffffffffffffffffffffffffffffffffffffff8214156126445761264361264f565b5b600182019050919050565b7f4e487b7100000000000000000000000000000000000000000000000000000000600052601160045260246000fd5b7f4e487b7100000000000000000000000000000000000000000000000000000000600052601260045260246000fd5b6000601f19601f8301169050919050565b7f5361666542455032303a204245503230206f7065726174696f6e20646964206e60008201527f6f74207375636365656400000000000000000000000000000000000000000000602082015250565b7f4f776e61626c653a206e6577206f776e657220697320746865207a65726f206160008201527f6464726573730000000000000000000000000000000000000000000000000000602082015250565b7f696c6c6567616c2063616c6c6572000000000000000000000000000000000000600082015250565b7f4f776e61626c653a2063616c6c6572206973206e6f7420746865206f776e6572600082015250565b7f63616c6c6572206973207a65726f000000000000000000000000000000000000600082015250565b7f416464726573733a2063616c6c20746f206e6f6e2d636f6e7472616374000000600082015250565b61280981612531565b811461281457600080fd5b50565b61282081612543565b811461282b57600080fd5b50565b6128378161256f565b811461284257600080fd5b5056fea26469706673582212206b0db7aec004b9355d9093bebdc7dbc0b1f391442b7b7e7c840d8a80b60f43f364736f6c63430008040033",
  "linkReferences": {},
  "deployedLinkReferences": {}
}