{
  "_format": "hh-sol-artifact-1",
  "contractName": "CairoToken",
  "sourceName": "contracts/token/CairoToken.sol",
  "abi": [
    {
      "anonymous": false,
      "inputs": [
        {
          "indexed": true,
          "internalType": "address",
          "name": "owner",
          "type": "address"
        },
        {
          "indexed": true,
          "internalType": "address",
          "name": "spender",
          "type": "address"
        },
        {
          "indexed": false,
          "internalType": "uint256",
          "name": "value",
          "type": "uint256"
        }
      ],
      "name": "Approval",
      "type": "event"
    },
    {
      "anonymous": false,
      "inputs": [
        {
          "indexed": true,
          "internalType": "address",
          "name": "previousOwner",
          "type": "address"
        },
        {
          "indexed": true,
          "internalType": "address",
          "name": "newOwner",
          "type": "address"
        }
      ],
      "name": "OwnershipTransferred",
      "type": "event"
    },
    {
      "anonymous": false,
      "inputs": [
        {
          "indexed": true,
          "internalType": "address",
          "name": "from",
          "type": "address"
        },
        {
          "indexed": true,
          "internalType": "address",
          "name": "to",
          "type": "address"
        },
        {
          "indexed": false,
          "internalType": "uint256",
          "name": "value",
          "type": "uint256"
        }
      ],
      "name": "Transfer",
      "type": "event"
    },
    {
      "inputs": [
        {
          "internalType": "address",
          "name": "contractAddress",
          "type": "address"
        }
      ],
      "name": "addNetworkContract",
      "outputs": [
        {
          "internalType": "address",
          "name": "",
          "type": "address"
        }
      ],
      "stateMutability": "nonpayable",
      "type": "function"
    },
    {
      "inputs": [
        {
          "internalType": "address",
          "name": "owner",
          "type": "address"
        },
        {
          "internalType": "address",
          "name": "spender",
          "type": "address"
        }
      ],
      "name": "allowance",
      "outputs": [
        {
          "internalType": "uint256",
          "name": "",
          "type": "uint256"
        }
      ],
      "stateMutability": "view",
      "type": "function"
    },
    {
      "inputs": [
        {
          "internalType": "address",
          "name": "spender",
          "type": "address"
        },
        {
          "internalType": "uint256",
          "name": "amount",
          "type": "uint256"
        }
      ],
      "name": "approve",
      "outputs": [
        {
          "internalType": "bool",
          "name": "",
          "type": "bool"
        }
      ],
      "stateMutability": "nonpayable",
      "type": "function"
    },
    {
      "inputs": [
        {
          "internalType": "contract ApproveAndCallFallBack",
          "name": "_spender",
          "type": "address"
        },
        {
          "internalType": "uint256",
          "name": "_amount",
          "type": "uint256"
        },
        {
          "internalType": "bytes",
          "name": "_extraData",
          "type": "bytes"
        }
      ],
      "name": "approveAndCall",
      "outputs": [
        {
          "internalType": "bool",
          "name": "success",
          "type": "bool"
        }
      ],
      "stateMutability": "nonpayable",
      "type": "function"
    },
    {
      "inputs": [
        {
          "internalType": "address",
          "name": "account",
          "type": "address"
        }
      ],
      "name": "balanceOf",
      "outputs": [
        {
          "internalType": "uint256",
          "name": "",
          "type": "uint256"
        }
      ],
      "stateMutability": "view",
      "type": "function"
    },
    {
      "inputs": [
        {
          "internalType": "uint256",
          "name": "amount",
          "type": "uint256"
        }
      ],
      "name": "burn",
      "outputs": [
        {
          "internalType": "bool",
          "name": "",
          "type": "bool"
        }
      ],
      "stateMutability": "nonpayable",
      "type": "function"
    },
    {
      "inputs": [
        {
          "internalType": "address",
          "name": "account",
          "type": "address"
        },
        {
          "internalType": "uint256",
          "name": "amount",
          "type": "uint256"
        }
      ],
      "name": "burnFromCairoNetwork",
      "outputs": [],
      "stateMutability": "nonpayable",
      "type": "function"
    },
    {
      "inputs": [],
      "name": "decimals",
      "outputs": [
        {
          "internalType": "uint8",
          "name": "",
          "type": "uint8"
        }
      ],
      "stateMutability": "view",
      "type": "function"
    },
    {
      "inputs": [
        {
          "internalType": "address",
          "name": "spender",
          "type": "address"
        },
        {
          "internalType": "uint256",
          "name": "subtractedValue",
          "type": "uint256"
        }
      ],
      "name": "decreaseAllowance",
      "outputs": [
        {
          "internalType": "bool",
          "name": "",
          "type": "bool"
        }
      ],
      "stateMutability": "nonpayable",
      "type": "function"
    },
    {
      "inputs": [],
      "name": "getOwner",
      "outputs": [
        {
          "internalType": "address",
          "name": "",
          "type": "address"
        }
      ],
      "stateMutability": "view",
      "type": "function"
    },
    {
      "inputs": [
        {
          "internalType": "address",
          "name": "spender",
          "type": "address"
        },
        {
          "internalType": "uint256",
          "name": "addedValue",
          "type": "uint256"
        }
      ],
      "name": "increaseAllowance",
      "outputs": [
        {
          "internalType": "bool",
          "name": "",
          "type": "bool"
        }
      ],
      "stateMutability": "nonpayable",
      "type": "function"
    },
    {
      "inputs": [
        {
          "internalType": "address",
          "name": "owner",
          "type": "address"
        }
      ],
      "name": "initialize",
      "outputs": [],
      "stateMutability": "nonpayable",
      "type": "function"
    },
    {
      "inputs": [
        {
          "internalType": "uint256",
          "name": "amount",
          "type": "uint256"
        }
      ],
      "name": "mint",
      "outputs": [
        {
          "internalType": "bool",
          "name": "",
          "type": "bool"
        }
      ],
      "stateMutability": "nonpayable",
      "type": "function"
    },
    {
      "inputs": [],
      "name": "mintable",
      "outputs": [
        {
          "internalType": "bool",
          "name": "",
          "type": "bool"
        }
      ],
      "stateMutability": "view",
      "type": "function"
    },
    {
      "inputs": [],
      "name": "name",
      "outputs": [
        {
          "internalType": "string",
          "name": "",
          "type": "string"
        }
      ],
      "stateMutability": "view",
      "type": "function"
    },
    {
      "inputs": [
        {
          "internalType": "address",
          "name": "contractAddress",
          "type": "address"
        }
      ],
      "name": "removeNetworkContract",
      "outputs": [],
      "stateMutability": "nonpayable",
      "type": "function"
    },
    {
      "inputs": [],
      "name": "renounceOwnership",
      "outputs": [],
      "stateMutability": "nonpayable",
      "type": "function"
    },
    {
      "inputs": [],
      "name": "symbol",
      "outputs": [
        {
          "internalType": "string",
          "name": "",
          "type": "string"
        }
      ],
      "stateMutability": "view",
      "type": "function"
    },
    {
      "inputs": [],
      "name": "totalSupply",
      "outputs": [
        {
          "internalType": "uint256",
          "name": "",
          "type": "uint256"
        }
      ],
      "stateMutability": "view",
      "type": "function"
    },
    {
      "inputs": [
        {
          "internalType": "address",
          "name": "recipient",
          "type": "address"
        },
        {
          "internalType": "uint256",
          "name": "amount",
          "type": "uint256"
        }
      ],
      "name": "transfer",
      "outputs": [
        {
          "internalType": "bool",
          "name": "",
          "type": "bool"
        }
      ],
      "stateMutability": "nonpayable",
      "type": "function"
    },
    {
      "inputs": [
        {
          "internalType": "address",
          "name": "sender",
          "type": "address"
        },
        {
          "internalType": "address",
          "name": "recipient",
          "type": "address"
        },
        {
          "internalType": "uint256",
          "name": "amount",
          "type": "uint256"
        }
      ],
      "name": "transferFrom",
      "outputs": [
        {
          "internalType": "bool",
          "name": "",
          "type": "bool"
        }
      ],
      "stateMutability": "nonpayable",
      "type": "function"
    },
    {
      "inputs": [
        {
          "internalType": "address",
          "name": "sender",
          "type": "address"
        },
        {
          "internalType": "address",
          "name": "recipient",
          "type": "address"
        },
        {
          "internalType": "uint256",
          "name": "amount",
          "type": "uint256"
        }
      ],
      "name": "transferFromCairoNetwork",
      "outputs": [],
      "stateMutability": "nonpayable",
      "type": "function"
    },
    {
      "inputs": [
        {
          "internalType": "address",
          "name": "newOwner",
          "type": "address"
        }
      ],
      "name": "transferOwnership",
      "outputs": [],
      "stateMutability": "nonpayable",
      "type": "function"
    }
  ],
  "bytecode": "0x608060405234801561001057600080fd5b5061146d806100206000396000f3fe608060405234801561001057600080fd5b506004361061014d5760003560e01c8063902e2bc9116100c3578063c6fc0f5f1161007c578063c6fc0f5f146102c9578063cae9ca51146102dc578063d7a06eee146102ef578063dd62ed3e14610302578063f2fde38b1461033b578063f88a4f171461034e57600080fd5b8063902e2bc91461026257806395d89b4114610275578063a0712d681461027d578063a457c2d714610290578063a9059cbb146102a3578063c4d66de8146102b657600080fd5b8063395093511161011557806339509351146101cd57806342966c68146101e05780634bf365df146101f357806370a0823114610205578063715018a61461022e578063893d20e81461023857600080fd5b806306fdde0314610152578063095ea7b31461017057806318160ddd1461019357806323b872dd146101a5578063313ce567146101b8575b600080fd5b61015a610361565b6040516101679190611285565b60405180910390f35b61018361017e366004611176565b6103f3565b6040519015158152602001610167565b6003545b604051908152602001610167565b6101836101b3366004611136565b610409565b60065460405160ff9091168152602001610167565b6101836101db366004611176565b610472565b6101836101ee366004611225565b6104a8565b600654600160a81b900460ff16610183565b6101976102133660046110e2565b6001600160a01b031660009081526001602052604090205490565b6102366104bc565b005b60065461010090046001600160a01b03165b6040516001600160a01b039091168152602001610167565b610236610270366004611176565b610545565b61015a610582565b61018361028b366004611225565b610591565b61018361029e366004611176565b610627565b6101836102b1366004611176565b610676565b6102366102c43660046110e2565b610683565b6102366102d73660046110e2565b6107eb565b6101836102ea3660046111a1565b610829565b61024a6102fd3660046110e2565b6108a5565b6101976103103660046110fe565b6001600160a01b03918216600090815260026020908152604080832093909416825291909152205490565b6102366103493660046110e2565b6108e7565b61023661035c366004611136565b6109e3565b6060600480546103709061133c565b80601f016020809104026020016040519081016040528092919081815260200182805461039c9061133c565b80156103e95780601f106103be576101008083540402835291602001916103e9565b820191906000526020600020905b8154815290600101906020018083116103cc57829003601f168201915b5050505050905090565b6000610400338484610ba5565b50600192915050565b6000610416848484610a12565b6104688433610463856040518060600160405280602881526020016113a3602891396001600160a01b038a1660009081526002602090815260408083203384529091529020549190610cc1565b610ba5565b5060019392505050565b3360008181526002602090815260408083206001600160a01b038716845290915281205490916104009185906104639086610cfb565b60006104b43383610d61565b506001919050565b6006546001600160a01b036101009091041633146104f55760405162461bcd60e51b81526004016104ec906112d8565b60405180910390fd5b60065460405160009161010090046001600160a01b0316907f8be0079c531659141344cd1fd0a4f28419497f9722a3daafe3b4186f6b6457e0908390a360068054610100600160a81b0319169055565b610550600733610e6d565b8061056b57506006546001600160a01b036101009091041633145b61057457600080fd5b61057e8282610d61565b5050565b6060600580546103709061133c565b6006546000906001600160a01b036101009091041633146105c45760405162461bcd60e51b81526004016104ec906112d8565b600654600160a81b900460ff1661061d5760405162461bcd60e51b815260206004820152601a60248201527f7468697320746f6b656e206973206e6f74206d696e7461626c6500000000000060448201526064016104ec565b6104b43383610ea2565b60006104003384610463856040518060600160405280602581526020016113f1602591393360009081526002602090815260408083206001600160a01b038d1684529091529020549190610cc1565b6000610400338484610a12565b600054610100900460ff168061069c575060005460ff16155b6106ff5760405162461bcd60e51b815260206004820152602e60248201527f496e697469616c697a61626c653a20636f6e747261637420697320616c72656160448201526d191e481a5b9a5d1a585b1a5e995960921b60648201526084016104ec565b600054610100900460ff16158015610721576000805461ffff19166101011790555b60068054610100600160a81b0319166101006001600160a01b0385160217905560408051808201909152600580825264436169726f60d81b602090920191825261076d91600491611052565b5060408051808201909152600580825264434149524f60d81b60209092019182526107989181611052565b506006805460ff60ff60a81b0119166012600160a81b011790556a52b7d2dcc80cd2e40000006107c781610591565b50506006805460ff60a81b19169055801561057e576000805461ff00191690555050565b6006546001600160a01b0361010090910416331461081b5760405162461bcd60e51b81526004016104ec906112d8565b610826600782610f7c565b50565b6000610836338686610ba5565b60405163a2d5785360e01b81526001600160a01b0386169063a2d578539061086890339088908890889060040161123d565b600060405180830381600087803b15801561088257600080fd5b505af1158015610896573d6000803e3d6000fd5b50600198975050505050505050565b6006546000906001600160a01b036101009091041633146108d85760405162461bcd60e51b81526004016104ec906112d8565b6108e3600783610fc4565b5090565b6006546001600160a01b036101009091041633146109175760405162461bcd60e51b81526004016104ec906112d8565b6001600160a01b03811661097c5760405162461bcd60e51b815260206004820152602660248201527f4f776e61626c653a206e6577206f776e657220697320746865207a65726f206160448201526564647265737360d01b60648201526084016104ec565b6006546040516001600160a01b0380841692610100900416907f8be0079c531659141344cd1fd0a4f28419497f9722a3daafe3b4186f6b6457e090600090a3600680546001600160a01b0390921661010002610100600160a81b0319909216919091179055565b6109ee600733610e6d565b80610a0957506006546001600160a01b036101009091041633145b610a1257600080fd5b6001600160a01b038316610a765760405162461bcd60e51b815260206004820152602560248201527f42455032303a207472616e736665722066726f6d20746865207a65726f206164604482015264647265737360d81b60648201526084016104ec565b6001600160a01b038216610ad85760405162461bcd60e51b815260206004820152602360248201527f42455032303a207472616e7366657220746f20746865207a65726f206164647260448201526265737360e81b60648201526084016104ec565b610b15816040518060600160405280602681526020016113cb602691396001600160a01b0386166000908152600160205260409020549190610cc1565b6001600160a01b038085166000908152600160205260408082209390935590841681522054610b449082610cfb565b6001600160a01b0380841660008181526001602052604090819020939093559151908516907fddf252ad1be2c89b69c2b068fc378daa952ba7f163c4a11628f55a4df523b3ef90610b989085815260200190565b60405180910390a3505050565b6001600160a01b038316610c075760405162461bcd60e51b8152602060048201526024808201527f42455032303a20617070726f76652066726f6d20746865207a65726f206164646044820152637265737360e01b60648201526084016104ec565b6001600160a01b038216610c685760405162461bcd60e51b815260206004820152602260248201527f42455032303a20617070726f766520746f20746865207a65726f206164647265604482015261737360f01b60648201526084016104ec565b6001600160a01b0383811660008181526002602090815260408083209487168084529482529182902085905590518481527f8c5be1e5ebec7d5bd14f71427d1e84f3dd0314c0f7b2291e5b200ac8c7c3b9259101610b98565b60008184841115610ce55760405162461bcd60e51b81526004016104ec9190611285565b506000610cf28486611325565b95945050505050565b600080610d08838561130d565b905083811015610d5a5760405162461bcd60e51b815260206004820152601b60248201527f536166654d6174683a206164646974696f6e206f766572666c6f77000000000060448201526064016104ec565b9392505050565b6001600160a01b038216610dc15760405162461bcd60e51b815260206004820152602160248201527f42455032303a206275726e2066726f6d20746865207a65726f206164647265736044820152607360f81b60648201526084016104ec565b610dfe81604051806060016040528060228152602001611416602291396001600160a01b0385166000908152600160205260409020549190610cc1565b6001600160a01b038316600090815260016020526040902055600354610e249082611010565b6003556040518181526000906001600160a01b038416907fddf252ad1be2c89b69c2b068fc378daa952ba7f163c4a11628f55a4df523b3ef906020015b60405180910390a35050565b60006001600160a01b038216610e8257600080fd5b506001600160a01b03166000908152602091909152604090205460ff1690565b6001600160a01b038216610ef85760405162461bcd60e51b815260206004820152601f60248201527f42455032303a206d696e7420746f20746865207a65726f20616464726573730060448201526064016104ec565b600354610f059082610cfb565b6003556001600160a01b038216600090815260016020526040902054610f2b9082610cfb565b6001600160a01b0383166000818152600160205260408082209390935591519091907fddf252ad1be2c89b69c2b068fc378daa952ba7f163c4a11628f55a4df523b3ef90610e619085815260200190565b6001600160a01b038116610f8f57600080fd5b610f998282610e6d565b610fa257600080fd5b6001600160a01b0316600090815260209190915260409020805460ff19169055565b6001600160a01b038116610fd757600080fd5b610fe18282610e6d565b15610feb57600080fd5b6001600160a01b0316600090815260209190915260409020805460ff19166001179055565b6000610d5a83836040518060400160405280601e81526020017f536166654d6174683a207375627472616374696f6e206f766572666c6f770000815250610cc1565b82805461105e9061133c565b90600052602060002090601f01602090048101928261108057600085556110c6565b82601f1061109957805160ff19168380011785556110c6565b828001600101855582156110c6579182015b828111156110c65782518255916020019190600101906110ab565b506108e39291505b808211156108e357600081556001016110ce565b6000602082840312156110f3578081fd5b8135610d5a8161138d565b60008060408385031215611110578081fd5b823561111b8161138d565b9150602083013561112b8161138d565b809150509250929050565b60008060006060848603121561114a578081fd5b83356111558161138d565b925060208401356111658161138d565b929592945050506040919091013590565b60008060408385031215611188578182fd5b82356111938161138d565b946020939093013593505050565b600080600080606085870312156111b6578081fd5b84356111c18161138d565b935060208501359250604085013567ffffffffffffffff808211156111e4578283fd5b818701915087601f8301126111f7578283fd5b813581811115611205578384fd5b886020828501011115611216578384fd5b95989497505060200194505050565b600060208284031215611236578081fd5b5035919050565b6001600160a01b0385168152602081018490526060604082018190528101829052818360808301376000818301608090810191909152601f909201601f191601019392505050565b6000602080835283518082850152825b818110156112b157858101830151858201604001528201611295565b818111156112c25783604083870101525b50601f01601f1916929092016040019392505050565b6020808252818101527f4f776e61626c653a2063616c6c6572206973206e6f7420746865206f776e6572604082015260600190565b6000821982111561132057611320611377565b500190565b60008282101561133757611337611377565b500390565b600181811c9082168061135057607f821691505b6020821081141561137157634e487b7160e01b600052602260045260246000fd5b50919050565b634e487b7160e01b600052601160045260246000fd5b6001600160a01b038116811461082657600080fdfe42455032303a207472616e7366657220616d6f756e74206578636565647320616c6c6f77616e636542455032303a207472616e7366657220616d6f756e7420657863656564732062616c616e636542455032303a2064656372656173656420616c6c6f77616e63652062656c6f77207a65726f42455032303a206275726e20616d6f756e7420657863656564732062616c616e6365a2646970667358221220a6c17393bac75f94e51cba2008cd3e33dbbc6a04e667eec5b749a4186d407f4864736f6c63430008040033",
  "linkReferences": {},
  "deployedLinkReferences": {}
}