{
  "_format": "hh-sol-artifact-1",
  "contractName": "CairoToken",
  "sourceName": "contracts/token/CairoToken.sol",
  "abi": [
    {
      "anonymous": false,
      "inputs": [
        {
          "indexed": true,
          "internalType": "address",
          "name": "owner",
          "type": "address"
        },
        {
          "indexed": true,
          "internalType": "address",
          "name": "spender",
          "type": "address"
        },
        {
          "indexed": false,
          "internalType": "uint256",
          "name": "value",
          "type": "uint256"
        }
      ],
      "name": "Approval",
      "type": "event"
    },
    {
      "anonymous": false,
      "inputs": [
        {
          "indexed": true,
          "internalType": "address",
          "name": "previousOwner",
          "type": "address"
        },
        {
          "indexed": true,
          "internalType": "address",
          "name": "newOwner",
          "type": "address"
        }
      ],
      "name": "OwnershipTransferred",
      "type": "event"
    },
    {
      "anonymous": false,
      "inputs": [
        {
          "indexed": false,
          "internalType": "address",
          "name": "account",
          "type": "address"
        }
      ],
      "name": "Paused",
      "type": "event"
    },
    {
      "anonymous": false,
      "inputs": [
        {
          "indexed": false,
          "internalType": "address",
          "name": "from",
          "type": "address"
        },
        {
          "indexed": false,
          "internalType": "address",
          "name": "vault",
          "type": "address"
        },
        {
          "indexed": false,
          "internalType": "uint256",
          "name": "amount",
          "type": "uint256"
        }
      ],
      "name": "TaxPayed",
      "type": "event"
    },
    {
      "anonymous": false,
      "inputs": [
        {
          "indexed": false,
          "internalType": "address",
          "name": "from",
          "type": "address"
        },
        {
          "indexed": false,
          "internalType": "uint256",
          "name": "amount",
          "type": "uint256"
        }
      ],
      "name": "TokenBurn",
      "type": "event"
    },
    {
      "anonymous": false,
      "inputs": [
        {
          "indexed": true,
          "internalType": "address",
          "name": "from",
          "type": "address"
        },
        {
          "indexed": true,
          "internalType": "address",
          "name": "to",
          "type": "address"
        },
        {
          "indexed": false,
          "internalType": "uint256",
          "name": "value",
          "type": "uint256"
        }
      ],
      "name": "Transfer",
      "type": "event"
    },
    {
      "anonymous": false,
      "inputs": [
        {
          "indexed": false,
          "internalType": "address",
          "name": "account",
          "type": "address"
        }
      ],
      "name": "Unpaused",
      "type": "event"
    },
    {
      "inputs": [
        {
          "internalType": "address",
          "name": "lpPair",
          "type": "address"
        }
      ],
      "name": "addKnownPairAddress",
      "outputs": [],
      "stateMutability": "nonpayable",
      "type": "function"
    },
    {
      "inputs": [
        {
          "internalType": "address",
          "name": "contractAddress",
          "type": "address"
        }
      ],
      "name": "addNetworkContract",
      "outputs": [
        {
          "internalType": "address",
          "name": "",
          "type": "address"
        }
      ],
      "stateMutability": "nonpayable",
      "type": "function"
    },
    {
      "inputs": [
        {
          "internalType": "address",
          "name": "excludeAddress",
          "type": "address"
        }
      ],
      "name": "addTaxExcludedAddress",
      "outputs": [],
      "stateMutability": "nonpayable",
      "type": "function"
    },
    {
      "inputs": [
        {
          "internalType": "address",
          "name": "owner",
          "type": "address"
        },
        {
          "internalType": "address",
          "name": "spender",
          "type": "address"
        }
      ],
      "name": "allowance",
      "outputs": [
        {
          "internalType": "uint256",
          "name": "",
          "type": "uint256"
        }
      ],
      "stateMutability": "view",
      "type": "function"
    },
    {
      "inputs": [
        {
          "internalType": "address",
          "name": "spender",
          "type": "address"
        },
        {
          "internalType": "uint256",
          "name": "amount",
          "type": "uint256"
        }
      ],
      "name": "approve",
      "outputs": [
        {
          "internalType": "bool",
          "name": "",
          "type": "bool"
        }
      ],
      "stateMutability": "nonpayable",
      "type": "function"
    },
    {
      "inputs": [
        {
          "internalType": "contract ApproveAndCallFallBack",
          "name": "_spender",
          "type": "address"
        },
        {
          "internalType": "uint256",
          "name": "_amount",
          "type": "uint256"
        },
        {
          "internalType": "bytes",
          "name": "_extraData",
          "type": "bytes"
        }
      ],
      "name": "approveAndCall",
      "outputs": [
        {
          "internalType": "bool",
          "name": "success",
          "type": "bool"
        }
      ],
      "stateMutability": "nonpayable",
      "type": "function"
    },
    {
      "inputs": [
        {
          "internalType": "address",
          "name": "account",
          "type": "address"
        }
      ],
      "name": "balanceOf",
      "outputs": [
        {
          "internalType": "uint256",
          "name": "",
          "type": "uint256"
        }
      ],
      "stateMutability": "view",
      "type": "function"
    },
    {
      "inputs": [
        {
          "internalType": "uint256",
          "name": "amount",
          "type": "uint256"
        }
      ],
      "name": "burn",
      "outputs": [
        {
          "internalType": "bool",
          "name": "",
          "type": "bool"
        }
      ],
      "stateMutability": "nonpayable",
      "type": "function"
    },
    {
      "inputs": [
        {
          "internalType": "address",
          "name": "account",
          "type": "address"
        },
        {
          "internalType": "uint256",
          "name": "amount",
          "type": "uint256"
        }
      ],
      "name": "burnFromCairoNetwork",
      "outputs": [],
      "stateMutability": "nonpayable",
      "type": "function"
    },
    {
      "inputs": [
        {
          "internalType": "address",
          "name": "_from",
          "type": "address"
        },
        {
          "internalType": "uint256",
          "name": "_value",
          "type": "uint256"
        }
      ],
      "name": "calculateTransferTaxes",
      "outputs": [
        {
          "internalType": "uint256",
          "name": "adjustedValue",
          "type": "uint256"
        },
        {
          "internalType": "uint256",
          "name": "taxAmount",
          "type": "uint256"
        }
      ],
      "stateMutability": "view",
      "type": "function"
    },
    {
      "inputs": [],
      "name": "decimals",
      "outputs": [
        {
          "internalType": "uint8",
          "name": "",
          "type": "uint8"
        }
      ],
      "stateMutability": "view",
      "type": "function"
    },
    {
      "inputs": [
        {
          "internalType": "address",
          "name": "spender",
          "type": "address"
        },
        {
          "internalType": "uint256",
          "name": "subtractedValue",
          "type": "uint256"
        }
      ],
      "name": "decreaseAllowance",
      "outputs": [
        {
          "internalType": "bool",
          "name": "",
          "type": "bool"
        }
      ],
      "stateMutability": "nonpayable",
      "type": "function"
    },
    {
      "inputs": [],
      "name": "getOwner",
      "outputs": [
        {
          "internalType": "address",
          "name": "",
          "type": "address"
        }
      ],
      "stateMutability": "view",
      "type": "function"
    },
    {
      "inputs": [],
      "name": "getPairs",
      "outputs": [
        {
          "internalType": "address[]",
          "name": "",
          "type": "address[]"
        }
      ],
      "stateMutability": "view",
      "type": "function"
    },
    {
      "inputs": [
        {
          "internalType": "address",
          "name": "spender",
          "type": "address"
        },
        {
          "internalType": "uint256",
          "name": "addedValue",
          "type": "uint256"
        }
      ],
      "name": "increaseAllowance",
      "outputs": [
        {
          "internalType": "bool",
          "name": "",
          "type": "bool"
        }
      ],
      "stateMutability": "nonpayable",
      "type": "function"
    },
    {
      "inputs": [],
      "name": "initialize",
      "outputs": [],
      "stateMutability": "nonpayable",
      "type": "function"
    },
    {
      "inputs": [
        {
          "internalType": "uint256",
          "name": "amount",
          "type": "uint256"
        }
      ],
      "name": "mint",
      "outputs": [
        {
          "internalType": "bool",
          "name": "",
          "type": "bool"
        }
      ],
      "stateMutability": "nonpayable",
      "type": "function"
    },
    {
      "inputs": [],
      "name": "mintable",
      "outputs": [
        {
          "internalType": "bool",
          "name": "",
          "type": "bool"
        }
      ],
      "stateMutability": "view",
      "type": "function"
    },
    {
      "inputs": [],
      "name": "name",
      "outputs": [
        {
          "internalType": "string",
          "name": "",
          "type": "string"
        }
      ],
      "stateMutability": "view",
      "type": "function"
    },
    {
      "inputs": [],
      "name": "owner",
      "outputs": [
        {
          "internalType": "address",
          "name": "",
          "type": "address"
        }
      ],
      "stateMutability": "view",
      "type": "function"
    },
    {
      "inputs": [
        {
          "internalType": "uint256",
          "name": "",
          "type": "uint256"
        }
      ],
      "name": "pairs",
      "outputs": [
        {
          "internalType": "address",
          "name": "",
          "type": "address"
        }
      ],
      "stateMutability": "view",
      "type": "function"
    },
    {
      "inputs": [],
      "name": "paused",
      "outputs": [
        {
          "internalType": "bool",
          "name": "",
          "type": "bool"
        }
      ],
      "stateMutability": "view",
      "type": "function"
    },
    {
      "inputs": [
        {
          "internalType": "address",
          "name": "contractAddress",
          "type": "address"
        }
      ],
      "name": "removeNetworkContract",
      "outputs": [],
      "stateMutability": "nonpayable",
      "type": "function"
    },
    {
      "inputs": [],
      "name": "renounceOwnership",
      "outputs": [],
      "stateMutability": "nonpayable",
      "type": "function"
    },
    {
      "inputs": [
        {
          "internalType": "address",
          "name": "feeOne",
          "type": "address"
        },
        {
          "internalType": "address",
          "name": "feeTwo",
          "type": "address"
        }
      ],
      "name": "setAdminFeeAddresses",
      "outputs": [],
      "stateMutability": "nonpayable",
      "type": "function"
    },
    {
      "inputs": [
        {
          "internalType": "address",
          "name": "routerAddress",
          "type": "address"
        },
        {
          "internalType": "address",
          "name": "wbnbAddress",
          "type": "address"
        }
      ],
      "name": "setupPancakeV1",
      "outputs": [],
      "stateMutability": "nonpayable",
      "type": "function"
    },
    {
      "inputs": [],
      "name": "symbol",
      "outputs": [
        {
          "internalType": "string",
          "name": "",
          "type": "string"
        }
      ],
      "stateMutability": "view",
      "type": "function"
    },
    {
      "inputs": [],
      "name": "totalSupply",
      "outputs": [
        {
          "internalType": "uint256",
          "name": "",
          "type": "uint256"
        }
      ],
      "stateMutability": "view",
      "type": "function"
    },
    {
      "inputs": [
        {
          "internalType": "address",
          "name": "recipient",
          "type": "address"
        },
        {
          "internalType": "uint256",
          "name": "amount",
          "type": "uint256"
        }
      ],
      "name": "transfer",
      "outputs": [
        {
          "internalType": "bool",
          "name": "",
          "type": "bool"
        }
      ],
      "stateMutability": "nonpayable",
      "type": "function"
    },
    {
      "inputs": [
        {
          "internalType": "address",
          "name": "sender",
          "type": "address"
        },
        {
          "internalType": "address",
          "name": "recipient",
          "type": "address"
        },
        {
          "internalType": "uint256",
          "name": "amount",
          "type": "uint256"
        }
      ],
      "name": "transferFrom",
      "outputs": [
        {
          "internalType": "bool",
          "name": "",
          "type": "bool"
        }
      ],
      "stateMutability": "nonpayable",
      "type": "function"
    },
    {
      "inputs": [
        {
          "internalType": "address",
          "name": "sender",
          "type": "address"
        },
        {
          "internalType": "address",
          "name": "recipient",
          "type": "address"
        },
        {
          "internalType": "uint256",
          "name": "amount",
          "type": "uint256"
        }
      ],
      "name": "transferFromCairoNetwork",
      "outputs": [],
      "stateMutability": "nonpayable",
      "type": "function"
    },
    {
      "inputs": [
        {
          "internalType": "address",
          "name": "newOwner",
          "type": "address"
        }
      ],
      "name": "transferOwnership",
      "outputs": [],
      "stateMutability": "nonpayable",
      "type": "function"
    }
  ],
  "bytecode": "0x608060405234801561001057600080fd5b506120b7806100206000396000f3fe608060405234801561001057600080fd5b50600436106101805760003560e01c806306fdde0314610185578063095ea7b3146101a357806318160ddd146101c657806323b872dd146101d8578063313ce567146101eb578063395093511461020057806342966c68146102135780634bf365df146102265780635c975abb1461023657806368bfcddd1461024157806370a0823114610256578063715018a61461027f578063767eb5ef1461028757806379a5b2271461029c5780638129fc1c146102c4578063893d20e8146102cc5780638da5cb5b146102ec578063902e2bc9146102f457806395d89b4114610307578063a0712d681461030f578063a457c2d714610322578063a7d4b84e14610335578063a9059cbb14610348578063b91ac7881461035b578063c6fc0f5f1461036e578063cae9ca5114610381578063cdca708314610394578063ce75996a146103a7578063d7a06eee146103ba578063dd62ed3e146103cd578063f2fde38b14610406578063f88a4f1714610419575b600080fd5b61018d61042c565b60405161019a9190611d38565b60405180910390f35b6101b66101b1366004611bdd565b6104be565b604051901515815260200161019a565b6099545b60405190815260200161019a565b6101b66101e6366004611b9d565b610507565b609c5460405160ff909116815260200161019a565b6101b661020e366004611bdd565b610599565b6101b6610221366004611c8b565b6105f9565b609c54610100900460ff166101b6565b60655460ff166101b6565b61025461024f366004611b2d565b610636565b005b6101ca610264366004611b2d565b6001600160a01b031660009081526097602052604090205490565b6102546106a5565b61028f6106e0565b60405161019a9190611ceb565b6102af6102aa366004611bdd565b610746565b6040805192835260208301919091520161019a565b6102546107c3565b6102d4610917565b6040516001600160a01b03909116815260200161019a565b6102d4610926565b610254610302366004611bdd565b610935565b61018d610957565b6101b661031d366004611c8b565b610966565b6101b6610330366004611bdd565b6109fc565b610254610343366004611b65565b610a74565b6101b6610356366004611bdd565b610ad1565b6102d4610369366004611c8b565b610ade565b61025461037c366004611b2d565b610b08565b6101b661038f366004611c08565b610b42565b6102546103a2366004611b2d565b610be7565b6102546103b5366004611b65565b610c3a565b6102d46103c8366004611b2d565b610de4565b6101ca6103db366004611b65565b6001600160a01b03918216600090815260986020908152604080832093909416825291909152205490565b610254610414366004611b2d565b610e24565b610254610427366004611b9d565b610ec1565b6060609a805461043b90611f2b565b80601f016020809104026020016040519081016040528092919081815260200182805461046790611f2b565b80156104b45780601f10610489576101008083540402835291602001916104b4565b820191906000526020600020905b81548152906001019060200180831161049757829003601f168201915b5050505050905090565b60006104cc60655460ff1690565b156104f25760405162461bcd60e51b81526004016104e990611dd0565b60405180910390fd5b6104fd338484610fdc565b5060015b92915050565b600061051560655460ff1690565b156105325760405162461bcd60e51b81526004016104e990611dd0565b61053d8484846110f8565b61058f843361058a85604051806060016040528060288152602001611fad602891396001600160a01b038a1660009081526098602090815260408083203384529091529020549190611231565b610fdc565b5060019392505050565b60006105a760655460ff1690565b156105c45760405162461bcd60e51b81526004016104e990611dd0565b3360008181526098602090815260408083206001600160a01b03881684529091529020546104fd9190859061058a908661126b565b600061060760655460ff1690565b156106245760405162461bcd60e51b81526004016104e990611dd0565b61062e33836112cf565b506001919050565b3361063f610926565b6001600160a01b0316146106655760405162461bcd60e51b81526004016104e990611dfa565b60a28054600181018255600091909152600080516020611fd58339815191520180546001600160a01b0319166001600160a01b0392909216919091179055565b336106ae610926565b6001600160a01b0316146106d45760405162461bcd60e51b81526004016104e990611dfa565b6106de600061140a565b565b6060600060a280548060200260200160405190810160405280929190818152602001828054801561073a57602002820191906000526020600020905b81546001600160a01b0316815260019091019060200180831161071c575b50939695505050505050565b6001600160a01b038216600090815260a0602052604081205482919060ff166107bc576001600160a01b0384166000908152609f6020526040902054600a9060ff16156107ab57506001600160a01b0384166000908152609e602052604090205460ff165b6107b5848261145c565b9093509150505b9250929050565b600054610100900460ff166107de5760005460ff16156107e2565b303b155b6108455760405162461bcd60e51b815260206004820152602e60248201527f496e697469616c697a61626c653a20636f6e747261637420697320616c72656160448201526d191e481a5b9a5d1a585b1a5e995960921b60648201526084016104e9565b600054610100900460ff16158015610867576000805461ffff19166101011790555b61086f61149f565b6108776114ce565b60408051808201909152600580825264436169726f60d81b60209092019182526108a391609a91611a9d565b5060408051808201909152600580825264434149524f60d81b60209092019182526108d091609b91611a9d565b50609c805461ffff19166101121790556a52b7d2dcc80cd2e40000006108f581610966565b5050609c805461ff00191690558015610914576000805461ff00191690555b50565b6000610921610926565b905090565b6033546001600160a01b031690565b610940609d336114fd565b61094957600080fd5b61095382826112cf565b5050565b6060609b805461043b90611f2b565b600033610971610926565b6001600160a01b0316146109975760405162461bcd60e51b81526004016104e990611dfa565b609c54610100900460ff166109eb5760405162461bcd60e51b815260206004820152601a6024820152797468697320746f6b656e206973206e6f74206d696e7461626c6560301b60448201526064016104e9565b61062e6109f6610926565b83611532565b6000610a0a60655460ff1690565b15610a275760405162461bcd60e51b81526004016104e990611dd0565b6104fd338461058a8560405180606001604052806025815260200161203b602591393360009081526098602090815260408083206001600160a01b038d1684529091529020549190611231565b33610a7d610926565b6001600160a01b031614610aa35760405162461bcd60e51b81526004016104e990611dfa565b60a580546001600160a01b039384166001600160a01b03199182161790915560a68054929093169116179055565b60006104fd3384846110f8565b60a28181548110610aee57600080fd5b6000918252602090912001546001600160a01b0316905081565b33610b11610926565b6001600160a01b031614610b375760405162461bcd60e51b81526004016104e990611dfa565b610914609d82611606565b6000610b5060655460ff1690565b15610b6d5760405162461bcd60e51b81526004016104e990611dd0565b610b78338686610fdc565b60405163a2d5785360e01b81526001600160a01b0386169063a2d5785390610baa903390889088908890600401611ca3565b600060405180830381600087803b158015610bc457600080fd5b505af1158015610bd8573d6000803e3d6000fd5b50600198975050505050505050565b33610bf0610926565b6001600160a01b031614610c165760405162461bcd60e51b81526004016104e990611dfa565b6001600160a01b0316600090815260a060205260409020805460ff19166001179055565b33610c43610926565b6001600160a01b031614610c695760405162461bcd60e51b81526004016104e990611dfa565b60a480546001600160a01b0319166001600160a01b0384169081179091556040805163c45a015560e01b8152905163c45a015591600480820192602092909190829003018186803b158015610cbd57600080fd5b505afa158015610cd1573d6000803e3d6000fd5b505050506040513d601f19601f82011682018060405250810190610cf59190611b49565b6040516364e329cb60e11b81526001600160a01b038381166004830152306024830152919091169063c9c6539690604401602060405180830381600087803b158015610d4057600080fd5b505af1158015610d54573d6000803e3d6000fd5b505050506040513d601f19601f82011682018060405250810190610d789190611b49565b60a380546001600160a01b039283166001600160a01b0319918216811790925560a2805460018101909155600080516020611fd5833981519152018054909116909117905530600090815260986020908152604080832060a45490941683529290522060001990555050565b600033610def610926565b6001600160a01b031614610e155760405162461bcd60e51b81526004016104e990611dfa565b610e20609d8361164e565b5090565b33610e2d610926565b6001600160a01b031614610e535760405162461bcd60e51b81526004016104e990611dfa565b6001600160a01b038116610eb85760405162461bcd60e51b815260206004820152602660248201527f4f776e61626c653a206e6577206f776e657220697320746865207a65726f206160448201526564647265737360d01b60648201526084016104e9565b6109148161140a565b610ecc609d336114fd565b610ed557600080fd5b6001600160a01b038316610efb5760405162461bcd60e51b81526004016104e990611d8b565b6001600160a01b038216610f215760405162461bcd60e51b81526004016104e990611e2f565b610f5e81604051806060016040528060268152602001611ff5602691396001600160a01b0386166000908152609760205260409020549190611231565b6001600160a01b038085166000908152609760205260408082209390935590841681522054610f8d908261126b565b6001600160a01b03808416600081815260976020526040908190209390935591519085169060008051602061201b83398151915290610fcf9085815260200190565b60405180910390a3505050565b6001600160a01b03831661103e5760405162461bcd60e51b8152602060048201526024808201527f42455032303a20617070726f76652066726f6d20746865207a65726f206164646044820152637265737360e01b60648201526084016104e9565b6001600160a01b03821661109f5760405162461bcd60e51b815260206004820152602260248201527f42455032303a20617070726f766520746f20746865207a65726f206164647265604482015261737360f01b60648201526084016104e9565b6001600160a01b0383811660008181526098602090815260408083209487168084529482529182902085905590518481527f8c5be1e5ebec7d5bd14f71427d1e84f3dd0314c0f7b2291e5b200ac8c7c3b9259101610fcf565b6001600160a01b03831661111e5760405162461bcd60e51b81526004016104e990611d8b565b6001600160a01b0382166111445760405162461bcd60e51b81526004016104e990611e2f565b61118181604051806060016040528060268152602001611ff5602691396001600160a01b0386166000908152609760205260409020549190611231565b6001600160a01b0384166000908152609760205260408120919091556111a7848461169a565b6111b157816111bb565b6111bb84836117fd565b6001600160a01b0384166000908152609760205260409020549091506111e1908261126b565b6001600160a01b03808516600081815260976020526040908190209390935591519086169060008051602061201b833981519152906112239086815260200190565b60405180910390a350505050565b600081848411156112555760405162461bcd60e51b81526004016104e99190611d38565b5060006112628486611f14565b95945050505050565b6000806112788385611ebd565b9050838110156112c85760405162461bcd60e51b815260206004820152601b60248201527a536166654d6174683a206164646974696f6e206f766572666c6f7760281b60448201526064016104e9565b9392505050565b6001600160a01b03821661132f5760405162461bcd60e51b815260206004820152602160248201527f42455032303a206275726e2066726f6d20746865207a65726f206164647265736044820152607360f81b60648201526084016104e9565b61136c81604051806060016040528060228152602001612060602291396001600160a01b0385166000908152609760205260409020549190611231565b6001600160a01b038316600090815260976020526040902055609954611392908261190c565b6099556040518181526000906001600160a01b0384169060008051602061201b8339815191529060200160405180910390a3604080516001600160a01b0384168152602081018390527fab85194d35c4ea153d0b51f3a304d1d22cb8023e499a6503fb6c28c5864ae90e910160405180910390a15050565b603380546001600160a01b038381166001600160a01b0319831681179093556040519116919082907f8be0079c531659141344cd1fd0a4f28419497f9722a3daafe3b4186f6b6457e090600090a35050565b60008061147760646114718660ff871661194e565b906119cd565b9050611496606461147161148f60648760ff1661190c565b879061194e565b91509250929050565b600054610100900460ff166114c65760405162461bcd60e51b81526004016104e990611e72565b6106de611a0c565b600054610100900460ff166114f55760405162461bcd60e51b81526004016104e990611e72565b6106de611a3c565b60006001600160a01b03821661151257600080fd5b506001600160a01b03166000908152602091909152604090205460ff1690565b6001600160a01b0382166115885760405162461bcd60e51b815260206004820152601f60248201527f42455032303a206d696e7420746f20746865207a65726f20616464726573730060448201526064016104e9565b609954611595908261126b565b6099556001600160a01b0382166000908152609760205260409020546115bb908261126b565b6001600160a01b03831660008181526097602052604080822093909355915190919060008051602061201b833981519152906115fa9085815260200190565b60405180910390a35050565b6001600160a01b03811661161957600080fd5b61162382826114fd565b61162c57600080fd5b6001600160a01b0316600090815260209190915260409020805460ff19169055565b6001600160a01b03811661166157600080fd5b61166b82826114fd565b1561167557600080fd5b6001600160a01b0316600090815260209190915260409020805460ff19166001179055565b6001600160a01b038216600090815260a0602052604081205460ff16806116d957506001600160a01b038216600090815260a0602052604090205460ff165b156116e657506000610501565b600060a280548060200260200160405190810160405280929190818152602001828054801561173e57602002820191906000526020600020905b81546001600160a01b03168152600190910190602001808311611720575b5050505050905060005b81518110156117f25781818151811061177157634e487b7160e01b600052603260045260246000fd5b60200260200101516001600160a01b0316856001600160a01b031614806117d057508181815181106117b357634e487b7160e01b600052603260045260246000fd5b60200260200101516001600160a01b0316846001600160a01b0316145b156117e057600192505050610501565b806117ea81611f66565b915050611748565b506000949350505050565b600080611813600261147160648187600a61194e565b60a5546001600160a01b031660009081526097602052604090205490915061183b908261126b565b60a5546001600160a01b039081166000908152609760205260408082209390935560a65490911681522054611870908261126b565b60a6546001600160a01b039081166000908152609760209081526040918290209390935560a5549051848152908216929187169160008051602061201b833981519152910160405180910390a360a6546040518281526001600160a01b039182169186169060008051602061201b8339815191529060200160405180910390a36119046118fd828061126b565b849061190c565b949350505050565b60006112c883836040518060400160405280601e81526020017f536166654d6174683a207375627472616374696f6e206f766572666c6f770000815250611231565b60008261195d57506000610501565b60006119698385611ef5565b9050826119768583611ed5565b146112c85760405162461bcd60e51b815260206004820152602160248201527f536166654d6174683a206d756c7469706c69636174696f6e206f766572666c6f6044820152607760f81b60648201526084016104e9565b60006112c883836040518060400160405280601a815260200179536166654d6174683a206469766973696f6e206279207a65726f60301b815250611a6f565b600054610100900460ff16611a335760405162461bcd60e51b81526004016104e990611e72565b6106de3361140a565b600054610100900460ff16611a635760405162461bcd60e51b81526004016104e990611e72565b6065805460ff19169055565b60008183611a905760405162461bcd60e51b81526004016104e99190611d38565b5060006112628486611ed5565b828054611aa990611f2b565b90600052602060002090601f016020900481019282611acb5760008555611b11565b82601f10611ae457805160ff1916838001178555611b11565b82800160010185558215611b11579182015b82811115611b11578251825591602001919060010190611af6565b50610e209291505b80821115610e205760008155600101611b19565b600060208284031215611b3e578081fd5b81356112c881611f97565b600060208284031215611b5a578081fd5b81516112c881611f97565b60008060408385031215611b77578081fd5b8235611b8281611f97565b91506020830135611b9281611f97565b809150509250929050565b600080600060608486031215611bb1578081fd5b8335611bbc81611f97565b92506020840135611bcc81611f97565b929592945050506040919091013590565b60008060408385031215611bef578182fd5b8235611bfa81611f97565b946020939093013593505050565b60008060008060608587031215611c1d578081fd5b8435611c2881611f97565b93506020850135925060408501356001600160401b0380821115611c4a578283fd5b818701915087601f830112611c5d578283fd5b813581811115611c6b578384fd5b886020828501011115611c7c578384fd5b95989497505060200194505050565b600060208284031215611c9c578081fd5b5035919050565b6001600160a01b0385168152602081018490526060604082018190528101829052818360808301376000818301608090810191909152601f909201601f191601019392505050565b6020808252825182820181905260009190848201906040850190845b81811015611d2c5783516001600160a01b031683529284019291840191600101611d07565b50909695505050505050565b6000602080835283518082850152825b81811015611d6457858101830151858201604001528201611d48565b81811115611d755783604083870101525b50601f01601f1916929092016040019392505050565b60208082526025908201527f42455032303a207472616e736665722066726f6d20746865207a65726f206164604082015264647265737360d81b606082015260800190565b60208082526010908201526f14185d5cd8589b194e881c185d5cd95960821b604082015260600190565b6020808252818101527f4f776e61626c653a2063616c6c6572206973206e6f7420746865206f776e6572604082015260600190565b60208082526023908201527f42455032303a207472616e7366657220746f20746865207a65726f206164647260408201526265737360e81b606082015260800190565b6020808252602b908201527f496e697469616c697a61626c653a20636f6e7472616374206973206e6f74206960408201526a6e697469616c697a696e6760a81b606082015260800190565b60008219821115611ed057611ed0611f81565b500190565b600082611ef057634e487b7160e01b81526012600452602481fd5b500490565b6000816000190483118215151615611f0f57611f0f611f81565b500290565b600082821015611f2657611f26611f81565b500390565b600181811c90821680611f3f57607f821691505b60208210811415611f6057634e487b7160e01b600052602260045260246000fd5b50919050565b6000600019821415611f7a57611f7a611f81565b5060010190565b634e487b7160e01b600052601160045260246000fd5b6001600160a01b038116811461091457600080fdfe42455032303a207472616e7366657220616d6f756e74206578636565647320616c6c6f77616e6365aaf4f58de99300cfadc4585755f376d5fa747d5bc561d5bd9d710de1f91bf42d42455032303a207472616e7366657220616d6f756e7420657863656564732062616c616e6365ddf252ad1be2c89b69c2b068fc378daa952ba7f163c4a11628f55a4df523b3ef42455032303a2064656372656173656420616c6c6f77616e63652062656c6f77207a65726f42455032303a206275726e20616d6f756e7420657863656564732062616c616e6365a264697066735822122004c6524658c90e79bcf0ae85c1a503041be47d795a5371e40c025ab7083679be64736f6c63430008040033",
  "linkReferences": {},
  "deployedLinkReferences": {}
}