{
  "_format": "hh-sol-artifact-1",
  "contractName": "CairoToken",
  "sourceName": "contracts/token/CairoToken.sol",
  "abi": [
    {
      "anonymous": false,
      "inputs": [
        {
          "indexed": true,
          "internalType": "address",
          "name": "owner",
          "type": "address"
        },
        {
          "indexed": true,
          "internalType": "address",
          "name": "spender",
          "type": "address"
        },
        {
          "indexed": false,
          "internalType": "uint256",
          "name": "value",
          "type": "uint256"
        }
      ],
      "name": "Approval",
      "type": "event"
    },
    {
      "anonymous": false,
      "inputs": [
        {
          "indexed": true,
          "internalType": "address",
          "name": "previousOwner",
          "type": "address"
        },
        {
          "indexed": true,
          "internalType": "address",
          "name": "newOwner",
          "type": "address"
        }
      ],
      "name": "OwnershipTransferred",
      "type": "event"
    },
    {
      "anonymous": false,
      "inputs": [
        {
          "indexed": true,
          "internalType": "address",
          "name": "from",
          "type": "address"
        },
        {
          "indexed": true,
          "internalType": "address",
          "name": "to",
          "type": "address"
        },
        {
          "indexed": false,
          "internalType": "uint256",
          "name": "value",
          "type": "uint256"
        }
      ],
      "name": "Transfer",
      "type": "event"
    },
    {
      "inputs": [
        {
          "internalType": "address",
          "name": "contractAddress",
          "type": "address"
        }
      ],
      "name": "addNetworkContract",
      "outputs": [
        {
          "internalType": "address",
          "name": "",
          "type": "address"
        }
      ],
      "stateMutability": "nonpayable",
      "type": "function"
    },
    {
      "inputs": [
        {
          "internalType": "address",
          "name": "owner",
          "type": "address"
        },
        {
          "internalType": "address",
          "name": "spender",
          "type": "address"
        }
      ],
      "name": "allowance",
      "outputs": [
        {
          "internalType": "uint256",
          "name": "",
          "type": "uint256"
        }
      ],
      "stateMutability": "view",
      "type": "function"
    },
    {
      "inputs": [
        {
          "internalType": "address",
          "name": "spender",
          "type": "address"
        },
        {
          "internalType": "uint256",
          "name": "amount",
          "type": "uint256"
        }
      ],
      "name": "approve",
      "outputs": [
        {
          "internalType": "bool",
          "name": "",
          "type": "bool"
        }
      ],
      "stateMutability": "nonpayable",
      "type": "function"
    },
    {
      "inputs": [
        {
          "internalType": "contract ApproveAndCallFallBack",
          "name": "_spender",
          "type": "address"
        },
        {
          "internalType": "uint256",
          "name": "_amount",
          "type": "uint256"
        },
        {
          "internalType": "bytes",
          "name": "_extraData",
          "type": "bytes"
        }
      ],
      "name": "approveAndCall",
      "outputs": [
        {
          "internalType": "bool",
          "name": "success",
          "type": "bool"
        }
      ],
      "stateMutability": "nonpayable",
      "type": "function"
    },
    {
      "inputs": [
        {
          "internalType": "address",
          "name": "account",
          "type": "address"
        }
      ],
      "name": "balanceOf",
      "outputs": [
        {
          "internalType": "uint256",
          "name": "",
          "type": "uint256"
        }
      ],
      "stateMutability": "view",
      "type": "function"
    },
    {
      "inputs": [
        {
          "internalType": "uint256",
          "name": "amount",
          "type": "uint256"
        }
      ],
      "name": "burn",
      "outputs": [
        {
          "internalType": "bool",
          "name": "",
          "type": "bool"
        }
      ],
      "stateMutability": "nonpayable",
      "type": "function"
    },
    {
      "inputs": [
        {
          "internalType": "address",
          "name": "account",
          "type": "address"
        },
        {
          "internalType": "uint256",
          "name": "amount",
          "type": "uint256"
        }
      ],
      "name": "burnFromCairoNetwork",
      "outputs": [],
      "stateMutability": "nonpayable",
      "type": "function"
    },
    {
      "inputs": [],
      "name": "decimals",
      "outputs": [
        {
          "internalType": "uint8",
          "name": "",
          "type": "uint8"
        }
      ],
      "stateMutability": "view",
      "type": "function"
    },
    {
      "inputs": [
        {
          "internalType": "address",
          "name": "spender",
          "type": "address"
        },
        {
          "internalType": "uint256",
          "name": "subtractedValue",
          "type": "uint256"
        }
      ],
      "name": "decreaseAllowance",
      "outputs": [
        {
          "internalType": "bool",
          "name": "",
          "type": "bool"
        }
      ],
      "stateMutability": "nonpayable",
      "type": "function"
    },
    {
      "inputs": [],
      "name": "getOwner",
      "outputs": [
        {
          "internalType": "address",
          "name": "",
          "type": "address"
        }
      ],
      "stateMutability": "view",
      "type": "function"
    },
    {
      "inputs": [
        {
          "internalType": "address",
          "name": "spender",
          "type": "address"
        },
        {
          "internalType": "uint256",
          "name": "addedValue",
          "type": "uint256"
        }
      ],
      "name": "increaseAllowance",
      "outputs": [
        {
          "internalType": "bool",
          "name": "",
          "type": "bool"
        }
      ],
      "stateMutability": "nonpayable",
      "type": "function"
    },
    {
      "inputs": [
        {
          "internalType": "address",
          "name": "owner",
          "type": "address"
        }
      ],
      "name": "initialize",
      "outputs": [],
      "stateMutability": "nonpayable",
      "type": "function"
    },
    {
      "inputs": [
        {
          "internalType": "uint256",
          "name": "amount",
          "type": "uint256"
        }
      ],
      "name": "mint",
      "outputs": [
        {
          "internalType": "bool",
          "name": "",
          "type": "bool"
        }
      ],
      "stateMutability": "nonpayable",
      "type": "function"
    },
    {
      "inputs": [],
      "name": "mintable",
      "outputs": [
        {
          "internalType": "bool",
          "name": "",
          "type": "bool"
        }
      ],
      "stateMutability": "view",
      "type": "function"
    },
    {
      "inputs": [],
      "name": "name",
      "outputs": [
        {
          "internalType": "string",
          "name": "",
          "type": "string"
        }
      ],
      "stateMutability": "view",
      "type": "function"
    },
    {
      "inputs": [
        {
          "internalType": "address",
          "name": "contractAddress",
          "type": "address"
        }
      ],
      "name": "removeNetworkContract",
      "outputs": [],
      "stateMutability": "nonpayable",
      "type": "function"
    },
    {
      "inputs": [],
      "name": "renounceOwnership",
      "outputs": [],
      "stateMutability": "nonpayable",
      "type": "function"
    },
    {
      "inputs": [],
      "name": "symbol",
      "outputs": [
        {
          "internalType": "string",
          "name": "",
          "type": "string"
        }
      ],
      "stateMutability": "view",
      "type": "function"
    },
    {
      "inputs": [],
      "name": "totalSupply",
      "outputs": [
        {
          "internalType": "uint256",
          "name": "",
          "type": "uint256"
        }
      ],
      "stateMutability": "view",
      "type": "function"
    },
    {
      "inputs": [
        {
          "internalType": "address",
          "name": "recipient",
          "type": "address"
        },
        {
          "internalType": "uint256",
          "name": "amount",
          "type": "uint256"
        }
      ],
      "name": "transfer",
      "outputs": [
        {
          "internalType": "bool",
          "name": "",
          "type": "bool"
        }
      ],
      "stateMutability": "nonpayable",
      "type": "function"
    },
    {
      "inputs": [
        {
          "internalType": "address",
          "name": "sender",
          "type": "address"
        },
        {
          "internalType": "address",
          "name": "recipient",
          "type": "address"
        },
        {
          "internalType": "uint256",
          "name": "amount",
          "type": "uint256"
        }
      ],
      "name": "transferFrom",
      "outputs": [
        {
          "internalType": "bool",
          "name": "",
          "type": "bool"
        }
      ],
      "stateMutability": "nonpayable",
      "type": "function"
    },
    {
      "inputs": [
        {
          "internalType": "address",
          "name": "sender",
          "type": "address"
        },
        {
          "internalType": "address",
          "name": "recipient",
          "type": "address"
        },
        {
          "internalType": "uint256",
          "name": "amount",
          "type": "uint256"
        }
      ],
      "name": "transferFromCairoNetwork",
      "outputs": [],
      "stateMutability": "nonpayable",
      "type": "function"
    },
    {
      "inputs": [
        {
          "internalType": "address",
          "name": "newOwner",
          "type": "address"
        }
      ],
      "name": "transferOwnership",
      "outputs": [],
      "stateMutability": "nonpayable",
      "type": "function"
    }
  ],
  "bytecode": "0x608060405234801561001057600080fd5b50611475806100206000396000f3fe608060405234801561001057600080fd5b506004361061014d5760003560e01c8063902e2bc9116100c3578063c6fc0f5f1161007c578063c6fc0f5f146102c9578063cae9ca51146102dc578063d7a06eee146102ef578063dd62ed3e14610302578063f2fde38b1461033b578063f88a4f171461034e57600080fd5b8063902e2bc91461026257806395d89b4114610275578063a0712d681461027d578063a457c2d714610290578063a9059cbb146102a3578063c4d66de8146102b657600080fd5b8063395093511161011557806339509351146101cd57806342966c68146101e05780634bf365df146101f357806370a0823114610205578063715018a61461022e578063893d20e81461023857600080fd5b806306fdde0314610152578063095ea7b31461017057806318160ddd1461019357806323b872dd146101a5578063313ce567146101b8575b600080fd5b61015a610361565b604051610167919061128d565b60405180910390f35b61018361017e36600461117e565b6103f3565b6040519015158152602001610167565b6035545b604051908152602001610167565b6101836101b336600461113e565b610409565b60385460405160ff9091168152602001610167565b6101836101db36600461117e565b610472565b6101836101ee36600461122d565b6104a8565b603854600160a81b900460ff16610183565b6101976102133660046110ea565b6001600160a01b031660009081526033602052604090205490565b6102366104bc565b005b60385461010090046001600160a01b03165b6040516001600160a01b039091168152602001610167565b61023661027036600461117e565b610545565b61015a610582565b61018361028b36600461122d565b610591565b61018361029e36600461117e565b610627565b6101836102b136600461117e565b610676565b6102366102c43660046110ea565b610683565b6102366102d73660046110ea565b6107f3565b6101836102ea3660046111a9565b610831565b61024a6102fd3660046110ea565b6108ad565b610197610310366004611106565b6001600160a01b03918216600090815260346020908152604080832093909416825291909152205490565b6102366103493660046110ea565b6108ef565b61023661035c36600461113e565b6109eb565b60606036805461037090611344565b80601f016020809104026020016040519081016040528092919081815260200182805461039c90611344565b80156103e95780601f106103be576101008083540402835291602001916103e9565b820191906000526020600020905b8154815290600101906020018083116103cc57829003601f168201915b5050505050905090565b6000610400338484610bad565b50600192915050565b6000610416848484610a1a565b6104688433610463856040518060600160405280602881526020016113ab602891396001600160a01b038a1660009081526034602090815260408083203384529091529020549190610cc9565b610bad565b5060019392505050565b3360008181526034602090815260408083206001600160a01b038716845290915281205490916104009185906104639086610d03565b60006104b43383610d69565b506001919050565b6038546001600160a01b036101009091041633146104f55760405162461bcd60e51b81526004016104ec906112e0565b60405180910390fd5b60385460405160009161010090046001600160a01b0316907f8be0079c531659141344cd1fd0a4f28419497f9722a3daafe3b4186f6b6457e0908390a360388054610100600160a81b0319169055565b610550603933610e75565b8061056b57506038546001600160a01b036101009091041633145b61057457600080fd5b61057e8282610d69565b5050565b60606037805461037090611344565b6038546000906001600160a01b036101009091041633146105c45760405162461bcd60e51b81526004016104ec906112e0565b603854600160a81b900460ff1661061d5760405162461bcd60e51b815260206004820152601a60248201527f7468697320746f6b656e206973206e6f74206d696e7461626c6500000000000060448201526064016104ec565b6104b43383610eaa565b60006104003384610463856040518060600160405280602581526020016113f9602591393360009081526034602090815260408083206001600160a01b038d1684529091529020549190610cc9565b6000610400338484610a1a565b600054610100900460ff1661069e5760005460ff16156106a2565b303b155b6107055760405162461bcd60e51b815260206004820152602e60248201527f496e697469616c697a61626c653a20636f6e747261637420697320616c72656160448201526d191e481a5b9a5d1a585b1a5e995960921b60648201526084016104ec565b600054610100900460ff16158015610727576000805461ffff19166101011790555b60388054610100600160a81b0319166101006001600160a01b0385160217905560408051808201909152600580825264436169726f60d81b60209092019182526107739160369161105a565b5060408051808201909152600580825264434149524f60d81b60209092019182526107a09160379161105a565b506038805460ff60ff60a81b0119166012600160a81b011790556a52b7d2dcc80cd2e40000006107cf81610591565b50506038805460ff60a81b19169055801561057e576000805461ff00191690555050565b6038546001600160a01b036101009091041633146108235760405162461bcd60e51b81526004016104ec906112e0565b61082e603982610f84565b50565b600061083e338686610bad565b60405163a2d5785360e01b81526001600160a01b0386169063a2d5785390610870903390889088908890600401611245565b600060405180830381600087803b15801561088a57600080fd5b505af115801561089e573d6000803e3d6000fd5b50600198975050505050505050565b6038546000906001600160a01b036101009091041633146108e05760405162461bcd60e51b81526004016104ec906112e0565b6108eb603983610fcc565b5090565b6038546001600160a01b0361010090910416331461091f5760405162461bcd60e51b81526004016104ec906112e0565b6001600160a01b0381166109845760405162461bcd60e51b815260206004820152602660248201527f4f776e61626c653a206e6577206f776e657220697320746865207a65726f206160448201526564647265737360d01b60648201526084016104ec565b6038546040516001600160a01b0380841692610100900416907f8be0079c531659141344cd1fd0a4f28419497f9722a3daafe3b4186f6b6457e090600090a3603880546001600160a01b0390921661010002610100600160a81b0319909216919091179055565b6109f6603933610e75565b80610a1157506038546001600160a01b036101009091041633145b610a1a57600080fd5b6001600160a01b038316610a7e5760405162461bcd60e51b815260206004820152602560248201527f42455032303a207472616e736665722066726f6d20746865207a65726f206164604482015264647265737360d81b60648201526084016104ec565b6001600160a01b038216610ae05760405162461bcd60e51b815260206004820152602360248201527f42455032303a207472616e7366657220746f20746865207a65726f206164647260448201526265737360e81b60648201526084016104ec565b610b1d816040518060600160405280602681526020016113d3602691396001600160a01b0386166000908152603360205260409020549190610cc9565b6001600160a01b038085166000908152603360205260408082209390935590841681522054610b4c9082610d03565b6001600160a01b0380841660008181526033602052604090819020939093559151908516907fddf252ad1be2c89b69c2b068fc378daa952ba7f163c4a11628f55a4df523b3ef90610ba09085815260200190565b60405180910390a3505050565b6001600160a01b038316610c0f5760405162461bcd60e51b8152602060048201526024808201527f42455032303a20617070726f76652066726f6d20746865207a65726f206164646044820152637265737360e01b60648201526084016104ec565b6001600160a01b038216610c705760405162461bcd60e51b815260206004820152602260248201527f42455032303a20617070726f766520746f20746865207a65726f206164647265604482015261737360f01b60648201526084016104ec565b6001600160a01b0383811660008181526034602090815260408083209487168084529482529182902085905590518481527f8c5be1e5ebec7d5bd14f71427d1e84f3dd0314c0f7b2291e5b200ac8c7c3b9259101610ba0565b60008184841115610ced5760405162461bcd60e51b81526004016104ec919061128d565b506000610cfa848661132d565b95945050505050565b600080610d108385611315565b905083811015610d625760405162461bcd60e51b815260206004820152601b60248201527f536166654d6174683a206164646974696f6e206f766572666c6f77000000000060448201526064016104ec565b9392505050565b6001600160a01b038216610dc95760405162461bcd60e51b815260206004820152602160248201527f42455032303a206275726e2066726f6d20746865207a65726f206164647265736044820152607360f81b60648201526084016104ec565b610e068160405180606001604052806022815260200161141e602291396001600160a01b0385166000908152603360205260409020549190610cc9565b6001600160a01b038316600090815260336020526040902055603554610e2c9082611018565b6035556040518181526000906001600160a01b038416907fddf252ad1be2c89b69c2b068fc378daa952ba7f163c4a11628f55a4df523b3ef906020015b60405180910390a35050565b60006001600160a01b038216610e8a57600080fd5b506001600160a01b03166000908152602091909152604090205460ff1690565b6001600160a01b038216610f005760405162461bcd60e51b815260206004820152601f60248201527f42455032303a206d696e7420746f20746865207a65726f20616464726573730060448201526064016104ec565b603554610f0d9082610d03565b6035556001600160a01b038216600090815260336020526040902054610f339082610d03565b6001600160a01b0383166000818152603360205260408082209390935591519091907fddf252ad1be2c89b69c2b068fc378daa952ba7f163c4a11628f55a4df523b3ef90610e699085815260200190565b6001600160a01b038116610f9757600080fd5b610fa18282610e75565b610faa57600080fd5b6001600160a01b0316600090815260209190915260409020805460ff19169055565b6001600160a01b038116610fdf57600080fd5b610fe98282610e75565b15610ff357600080fd5b6001600160a01b0316600090815260209190915260409020805460ff19166001179055565b6000610d6283836040518060400160405280601e81526020017f536166654d6174683a207375627472616374696f6e206f766572666c6f770000815250610cc9565b82805461106690611344565b90600052602060002090601f01602090048101928261108857600085556110ce565b82601f106110a157805160ff19168380011785556110ce565b828001600101855582156110ce579182015b828111156110ce5782518255916020019190600101906110b3565b506108eb9291505b808211156108eb57600081556001016110d6565b6000602082840312156110fb578081fd5b8135610d6281611395565b60008060408385031215611118578081fd5b823561112381611395565b9150602083013561113381611395565b809150509250929050565b600080600060608486031215611152578081fd5b833561115d81611395565b9250602084013561116d81611395565b929592945050506040919091013590565b60008060408385031215611190578182fd5b823561119b81611395565b946020939093013593505050565b600080600080606085870312156111be578081fd5b84356111c981611395565b935060208501359250604085013567ffffffffffffffff808211156111ec578283fd5b818701915087601f8301126111ff578283fd5b81358181111561120d578384fd5b88602082850101111561121e578384fd5b95989497505060200194505050565b60006020828403121561123e578081fd5b5035919050565b6001600160a01b0385168152602081018490526060604082018190528101829052818360808301376000818301608090810191909152601f909201601f191601019392505050565b6000602080835283518082850152825b818110156112b95785810183015185820160400152820161129d565b818111156112ca5783604083870101525b50601f01601f1916929092016040019392505050565b6020808252818101527f4f776e61626c653a2063616c6c6572206973206e6f7420746865206f776e6572604082015260600190565b600082198211156113285761132861137f565b500190565b60008282101561133f5761133f61137f565b500390565b600181811c9082168061135857607f821691505b6020821081141561137957634e487b7160e01b600052602260045260246000fd5b50919050565b634e487b7160e01b600052601160045260246000fd5b6001600160a01b038116811461082e57600080fdfe42455032303a207472616e7366657220616d6f756e74206578636565647320616c6c6f77616e636542455032303a207472616e7366657220616d6f756e7420657863656564732062616c616e636542455032303a2064656372656173656420616c6c6f77616e63652062656c6f77207a65726f42455032303a206275726e20616d6f756e7420657863656564732062616c616e6365a264697066735822122097e53cf9fa23437ab3947cf734639e76dea382eb1c004d48fb41fc231bf1bb4364736f6c63430008040033",
  "linkReferences": {},
  "deployedLinkReferences": {}
}