{
  "_format": "hh-sol-artifact-1",
  "contractName": "CairoToken",
  "sourceName": "contracts/token/CairoToken.sol",
  "abi": [
    {
      "anonymous": false,
      "inputs": [
        {
          "indexed": true,
          "internalType": "address",
          "name": "owner",
          "type": "address"
        },
        {
          "indexed": true,
          "internalType": "address",
          "name": "spender",
          "type": "address"
        },
        {
          "indexed": false,
          "internalType": "uint256",
          "name": "value",
          "type": "uint256"
        }
      ],
      "name": "Approval",
      "type": "event"
    },
    {
      "anonymous": false,
      "inputs": [
        {
          "indexed": true,
          "internalType": "address",
          "name": "previousOwner",
          "type": "address"
        },
        {
          "indexed": true,
          "internalType": "address",
          "name": "newOwner",
          "type": "address"
        }
      ],
      "name": "OwnershipTransferred",
      "type": "event"
    },
    {
      "anonymous": false,
      "inputs": [
        {
          "indexed": false,
          "internalType": "address",
          "name": "account",
          "type": "address"
        }
      ],
      "name": "Paused",
      "type": "event"
    },
    {
      "anonymous": false,
      "inputs": [
        {
          "indexed": false,
          "internalType": "address",
          "name": "from",
          "type": "address"
        },
        {
          "indexed": false,
          "internalType": "address",
          "name": "vault",
          "type": "address"
        },
        {
          "indexed": false,
          "internalType": "uint256",
          "name": "amount",
          "type": "uint256"
        }
      ],
      "name": "TaxPayed",
      "type": "event"
    },
    {
      "anonymous": false,
      "inputs": [
        {
          "indexed": false,
          "internalType": "address",
          "name": "from",
          "type": "address"
        },
        {
          "indexed": false,
          "internalType": "uint256",
          "name": "amount",
          "type": "uint256"
        }
      ],
      "name": "TokenBurn",
      "type": "event"
    },
    {
      "anonymous": false,
      "inputs": [
        {
          "indexed": true,
          "internalType": "address",
          "name": "from",
          "type": "address"
        },
        {
          "indexed": true,
          "internalType": "address",
          "name": "to",
          "type": "address"
        },
        {
          "indexed": false,
          "internalType": "uint256",
          "name": "value",
          "type": "uint256"
        }
      ],
      "name": "Transfer",
      "type": "event"
    },
    {
      "anonymous": false,
      "inputs": [
        {
          "indexed": false,
          "internalType": "address",
          "name": "account",
          "type": "address"
        }
      ],
      "name": "Unpaused",
      "type": "event"
    },
    {
      "inputs": [
        {
          "internalType": "address",
          "name": "contractAddress",
          "type": "address"
        }
      ],
      "name": "addNetworkContract",
      "outputs": [
        {
          "internalType": "address",
          "name": "",
          "type": "address"
        }
      ],
      "stateMutability": "nonpayable",
      "type": "function"
    },
    {
      "inputs": [
        {
          "internalType": "address",
          "name": "owner",
          "type": "address"
        },
        {
          "internalType": "address",
          "name": "spender",
          "type": "address"
        }
      ],
      "name": "allowance",
      "outputs": [
        {
          "internalType": "uint256",
          "name": "",
          "type": "uint256"
        }
      ],
      "stateMutability": "view",
      "type": "function"
    },
    {
      "inputs": [
        {
          "internalType": "address",
          "name": "spender",
          "type": "address"
        },
        {
          "internalType": "uint256",
          "name": "amount",
          "type": "uint256"
        }
      ],
      "name": "approve",
      "outputs": [
        {
          "internalType": "bool",
          "name": "",
          "type": "bool"
        }
      ],
      "stateMutability": "nonpayable",
      "type": "function"
    },
    {
      "inputs": [
        {
          "internalType": "contract ApproveAndCallFallBack",
          "name": "_spender",
          "type": "address"
        },
        {
          "internalType": "uint256",
          "name": "_amount",
          "type": "uint256"
        },
        {
          "internalType": "bytes",
          "name": "_extraData",
          "type": "bytes"
        }
      ],
      "name": "approveAndCall",
      "outputs": [
        {
          "internalType": "bool",
          "name": "success",
          "type": "bool"
        }
      ],
      "stateMutability": "nonpayable",
      "type": "function"
    },
    {
      "inputs": [
        {
          "internalType": "address",
          "name": "account",
          "type": "address"
        }
      ],
      "name": "balanceOf",
      "outputs": [
        {
          "internalType": "uint256",
          "name": "",
          "type": "uint256"
        }
      ],
      "stateMutability": "view",
      "type": "function"
    },
    {
      "inputs": [
        {
          "internalType": "uint256",
          "name": "amount",
          "type": "uint256"
        }
      ],
      "name": "burn",
      "outputs": [
        {
          "internalType": "bool",
          "name": "",
          "type": "bool"
        }
      ],
      "stateMutability": "nonpayable",
      "type": "function"
    },
    {
      "inputs": [
        {
          "internalType": "address",
          "name": "account",
          "type": "address"
        },
        {
          "internalType": "uint256",
          "name": "amount",
          "type": "uint256"
        }
      ],
      "name": "burnFromCairoNetwork",
      "outputs": [],
      "stateMutability": "nonpayable",
      "type": "function"
    },
    {
      "inputs": [
        {
          "internalType": "address",
          "name": "_from",
          "type": "address"
        },
        {
          "internalType": "uint256",
          "name": "_value",
          "type": "uint256"
        }
      ],
      "name": "calculateTransferTaxes",
      "outputs": [
        {
          "internalType": "uint256",
          "name": "adjustedValue",
          "type": "uint256"
        },
        {
          "internalType": "uint256",
          "name": "taxAmount",
          "type": "uint256"
        }
      ],
      "stateMutability": "view",
      "type": "function"
    },
    {
      "inputs": [],
      "name": "decimals",
      "outputs": [
        {
          "internalType": "uint8",
          "name": "",
          "type": "uint8"
        }
      ],
      "stateMutability": "view",
      "type": "function"
    },
    {
      "inputs": [
        {
          "internalType": "address",
          "name": "spender",
          "type": "address"
        },
        {
          "internalType": "uint256",
          "name": "subtractedValue",
          "type": "uint256"
        }
      ],
      "name": "decreaseAllowance",
      "outputs": [
        {
          "internalType": "bool",
          "name": "",
          "type": "bool"
        }
      ],
      "stateMutability": "nonpayable",
      "type": "function"
    },
    {
      "inputs": [],
      "name": "getOwner",
      "outputs": [
        {
          "internalType": "address",
          "name": "",
          "type": "address"
        }
      ],
      "stateMutability": "view",
      "type": "function"
    },
    {
      "inputs": [
        {
          "internalType": "address",
          "name": "spender",
          "type": "address"
        },
        {
          "internalType": "uint256",
          "name": "addedValue",
          "type": "uint256"
        }
      ],
      "name": "increaseAllowance",
      "outputs": [
        {
          "internalType": "bool",
          "name": "",
          "type": "bool"
        }
      ],
      "stateMutability": "nonpayable",
      "type": "function"
    },
    {
      "inputs": [],
      "name": "initialize",
      "outputs": [],
      "stateMutability": "nonpayable",
      "type": "function"
    },
    {
      "inputs": [
        {
          "internalType": "uint256",
          "name": "amount",
          "type": "uint256"
        }
      ],
      "name": "mint",
      "outputs": [
        {
          "internalType": "bool",
          "name": "",
          "type": "bool"
        }
      ],
      "stateMutability": "nonpayable",
      "type": "function"
    },
    {
      "inputs": [],
      "name": "mintable",
      "outputs": [
        {
          "internalType": "bool",
          "name": "",
          "type": "bool"
        }
      ],
      "stateMutability": "view",
      "type": "function"
    },
    {
      "inputs": [],
      "name": "name",
      "outputs": [
        {
          "internalType": "string",
          "name": "",
          "type": "string"
        }
      ],
      "stateMutability": "view",
      "type": "function"
    },
    {
      "inputs": [],
      "name": "owner",
      "outputs": [
        {
          "internalType": "address",
          "name": "",
          "type": "address"
        }
      ],
      "stateMutability": "view",
      "type": "function"
    },
    {
      "inputs": [],
      "name": "paused",
      "outputs": [
        {
          "internalType": "bool",
          "name": "",
          "type": "bool"
        }
      ],
      "stateMutability": "view",
      "type": "function"
    },
    {
      "inputs": [
        {
          "internalType": "address",
          "name": "contractAddress",
          "type": "address"
        }
      ],
      "name": "removeNetworkContract",
      "outputs": [],
      "stateMutability": "nonpayable",
      "type": "function"
    },
    {
      "inputs": [],
      "name": "renounceOwnership",
      "outputs": [],
      "stateMutability": "nonpayable",
      "type": "function"
    },
    {
      "inputs": [],
      "name": "symbol",
      "outputs": [
        {
          "internalType": "string",
          "name": "",
          "type": "string"
        }
      ],
      "stateMutability": "view",
      "type": "function"
    },
    {
      "inputs": [],
      "name": "totalSupply",
      "outputs": [
        {
          "internalType": "uint256",
          "name": "",
          "type": "uint256"
        }
      ],
      "stateMutability": "view",
      "type": "function"
    },
    {
      "inputs": [
        {
          "internalType": "address",
          "name": "recipient",
          "type": "address"
        },
        {
          "internalType": "uint256",
          "name": "amount",
          "type": "uint256"
        }
      ],
      "name": "transfer",
      "outputs": [
        {
          "internalType": "bool",
          "name": "",
          "type": "bool"
        }
      ],
      "stateMutability": "nonpayable",
      "type": "function"
    },
    {
      "inputs": [
        {
          "internalType": "address",
          "name": "sender",
          "type": "address"
        },
        {
          "internalType": "address",
          "name": "recipient",
          "type": "address"
        },
        {
          "internalType": "uint256",
          "name": "amount",
          "type": "uint256"
        }
      ],
      "name": "transferFrom",
      "outputs": [
        {
          "internalType": "bool",
          "name": "",
          "type": "bool"
        }
      ],
      "stateMutability": "nonpayable",
      "type": "function"
    },
    {
      "inputs": [
        {
          "internalType": "address",
          "name": "sender",
          "type": "address"
        },
        {
          "internalType": "address",
          "name": "recipient",
          "type": "address"
        },
        {
          "internalType": "uint256",
          "name": "amount",
          "type": "uint256"
        }
      ],
      "name": "transferFromCairoNetwork",
      "outputs": [],
      "stateMutability": "nonpayable",
      "type": "function"
    },
    {
      "inputs": [
        {
          "internalType": "address",
          "name": "newOwner",
          "type": "address"
        }
      ],
      "name": "transferOwnership",
      "outputs": [],
      "stateMutability": "nonpayable",
      "type": "function"
    }
  ],
  "bytecode": "0x608060405234801561001057600080fd5b5061184b806100206000396000f3fe608060405234801561001057600080fd5b506004361061013e5760003560e01c806306fdde0314610143578063095ea7b31461016157806318160ddd1461018457806323b872dd14610196578063313ce567146101a957806339509351146101be57806342966c68146101d15780634bf365df146101e45780635c975abb146101f457806370a08231146101ff578063715018a61461022857806379a5b227146102325780638129fc1c1461025a578063893d20e8146102625780638da5cb5b14610282578063902e2bc91461028a57806395d89b411461029d578063a0712d68146102a5578063a457c2d7146102b8578063a9059cbb146102cb578063c6fc0f5f146102de578063cae9ca51146102f1578063d7a06eee14610304578063dd62ed3e14610317578063f2fde38b14610350578063f88a4f1714610363575b600080fd5b61014b610376565b604051610158919061158f565b60405180910390f35b61017461016f366004611481565b610408565b6040519015158152602001610158565b6099545b604051908152602001610158565b6101746101a4366004611441565b610451565b609c5460405160ff9091168152602001610158565b6101746101cc366004611481565b6104e3565b6101746101df36600461152f565b610543565b609c54610100900460ff16610174565b60655460ff16610174565b61018861020d3660046113ed565b6001600160a01b031660009081526097602052604090205490565b610230610580565b005b610245610240366004611481565b6105bb565b60408051928352602083019190915201610158565b610230610638565b61026a61078c565b6040516001600160a01b039091168152602001610158565b61026a61079b565b610230610298366004611481565b6107aa565b61014b6107cc565b6101746102b336600461152f565b6107db565b6101746102c6366004611481565b610871565b6101746102d9366004611481565b6108e9565b6102306102ec3660046113ed565b6108f6565b6101746102ff3660046114ac565b610930565b61026a6103123660046113ed565b6109d5565b610188610325366004611409565b6001600160a01b03918216600090815260986020908152604080832093909416825291909152205490565b61023061035e3660046113ed565b610a15565b610230610371366004611441565b610ab2565b6060609a8054610385906116fa565b80601f01602080910402602001604051908101604052809291908181526020018280546103b1906116fa565b80156103fe5780601f106103d3576101008083540402835291602001916103fe565b820191906000526020600020905b8154815290600101906020018083116103e157829003601f168201915b5050505050905090565b600061041660655460ff1690565b1561043c5760405162461bcd60e51b8152600401610433906115e2565b60405180910390fd5b610447338484610c47565b5060015b92915050565b600061045f60655460ff1690565b1561047c5760405162461bcd60e51b8152600401610433906115e2565b610487848484610ac6565b6104d984336104d485604051806060016040528060288152602001611761602891396001600160a01b038a1660009081526098602090815260408083203384529091529020549190610d63565b610c47565b5060019392505050565b60006104f160655460ff1690565b1561050e5760405162461bcd60e51b8152600401610433906115e2565b3360008181526098602090815260408083206001600160a01b0388168452909152902054610447919085906104d49086610d9d565b600061055160655460ff1690565b1561056e5760405162461bcd60e51b8152600401610433906115e2565b6105783383610e01565b506001919050565b3361058961079b565b6001600160a01b0316146105af5760405162461bcd60e51b81526004016104339061160c565b6105b96000610f3c565b565b6001600160a01b038216600090815260a0602052604081205482919060ff16610631576001600160a01b0384166000908152609f6020526040902054600a9060ff161561062057506001600160a01b0384166000908152609e602052604090205460ff165b61062a8482610f8e565b9093509150505b9250929050565b600054610100900460ff166106535760005460ff1615610657565b303b155b6106ba5760405162461bcd60e51b815260206004820152602e60248201527f496e697469616c697a61626c653a20636f6e747261637420697320616c72656160448201526d191e481a5b9a5d1a585b1a5e995960921b6064820152608401610433565b600054610100900460ff161580156106dc576000805461ffff19166101011790555b6106e4610fd1565b6106ec611000565b60408051808201909152600580825264436169726f60d81b602090920191825261071891609a9161135d565b5060408051808201909152600580825264434149524f60d81b602090920191825261074591609b9161135d565b50609c805461ffff19166101121790556a52b7d2dcc80cd2e400000061076a816107db565b5050609c805461ff00191690558015610789576000805461ff00191690555b50565b600061079661079b565b905090565b6033546001600160a01b031690565b6107b5609d3361102f565b6107be57600080fd5b6107c88282610e01565b5050565b6060609b8054610385906116fa565b6000336107e661079b565b6001600160a01b03161461080c5760405162461bcd60e51b81526004016104339061160c565b609c54610100900460ff166108605760405162461bcd60e51b815260206004820152601a6024820152797468697320746f6b656e206973206e6f74206d696e7461626c6560301b6044820152606401610433565b61057861086b61079b565b83611064565b600061087f60655460ff1690565b1561089c5760405162461bcd60e51b8152600401610433906115e2565b61044733846104d4856040518060600160405280602581526020016117cf602591393360009081526098602090815260408083206001600160a01b038d1684529091529020549190610d63565b6000610447338484610ac6565b336108ff61079b565b6001600160a01b0316146109255760405162461bcd60e51b81526004016104339061160c565b610789609d82611138565b600061093e60655460ff1690565b1561095b5760405162461bcd60e51b8152600401610433906115e2565b610966338686610c47565b60405163a2d5785360e01b81526001600160a01b0386169063a2d5785390610998903390889088908890600401611547565b600060405180830381600087803b1580156109b257600080fd5b505af11580156109c6573d6000803e3d6000fd5b50600198975050505050505050565b6000336109e061079b565b6001600160a01b031614610a065760405162461bcd60e51b81526004016104339061160c565b610a11609d83611180565b5090565b33610a1e61079b565b6001600160a01b031614610a445760405162461bcd60e51b81526004016104339061160c565b6001600160a01b038116610aa95760405162461bcd60e51b815260206004820152602660248201527f4f776e61626c653a206e6577206f776e657220697320746865207a65726f206160448201526564647265737360d01b6064820152608401610433565b61078981610f3c565b610abd609d3361102f565b610ac657600080fd5b6001600160a01b038316610b2a5760405162461bcd60e51b815260206004820152602560248201527f42455032303a207472616e736665722066726f6d20746865207a65726f206164604482015264647265737360d81b6064820152608401610433565b6001600160a01b038216610b8c5760405162461bcd60e51b815260206004820152602360248201527f42455032303a207472616e7366657220746f20746865207a65726f206164647260448201526265737360e81b6064820152608401610433565b610bc981604051806060016040528060268152602001611789602691396001600160a01b0386166000908152609760205260409020549190610d63565b6001600160a01b038085166000908152609760205260408082209390935590841681522054610bf89082610d9d565b6001600160a01b0380841660008181526097602052604090819020939093559151908516906000805160206117af83398151915290610c3a9085815260200190565b60405180910390a3505050565b6001600160a01b038316610ca95760405162461bcd60e51b8152602060048201526024808201527f42455032303a20617070726f76652066726f6d20746865207a65726f206164646044820152637265737360e01b6064820152608401610433565b6001600160a01b038216610d0a5760405162461bcd60e51b815260206004820152602260248201527f42455032303a20617070726f766520746f20746865207a65726f206164647265604482015261737360f01b6064820152608401610433565b6001600160a01b0383811660008181526098602090815260408083209487168084529482529182902085905590518481527f8c5be1e5ebec7d5bd14f71427d1e84f3dd0314c0f7b2291e5b200ac8c7c3b9259101610c3a565b60008184841115610d875760405162461bcd60e51b8152600401610433919061158f565b506000610d9484866116e3565b95945050505050565b600080610daa838561168c565b905083811015610dfa5760405162461bcd60e51b815260206004820152601b60248201527a536166654d6174683a206164646974696f6e206f766572666c6f7760281b6044820152606401610433565b9392505050565b6001600160a01b038216610e615760405162461bcd60e51b815260206004820152602160248201527f42455032303a206275726e2066726f6d20746865207a65726f206164647265736044820152607360f81b6064820152608401610433565b610e9e816040518060600160405280602281526020016117f4602291396001600160a01b0385166000908152609760205260409020549190610d63565b6001600160a01b038316600090815260976020526040902055609954610ec490826111cc565b6099556040518181526000906001600160a01b038416906000805160206117af8339815191529060200160405180910390a3604080516001600160a01b0384168152602081018390527fab85194d35c4ea153d0b51f3a304d1d22cb8023e499a6503fb6c28c5864ae90e910160405180910390a15050565b603380546001600160a01b038381166001600160a01b0319831681179093556040519116919082907f8be0079c531659141344cd1fd0a4f28419497f9722a3daafe3b4186f6b6457e090600090a35050565b600080610fa96064610fa38660ff871661120e565b9061128d565b9050610fc86064610fa3610fc160648760ff166111cc565b879061120e565b91509250929050565b600054610100900460ff16610ff85760405162461bcd60e51b815260040161043390611641565b6105b96112cc565b600054610100900460ff166110275760405162461bcd60e51b815260040161043390611641565b6105b96112fc565b60006001600160a01b03821661104457600080fd5b506001600160a01b03166000908152602091909152604090205460ff1690565b6001600160a01b0382166110ba5760405162461bcd60e51b815260206004820152601f60248201527f42455032303a206d696e7420746f20746865207a65726f2061646472657373006044820152606401610433565b6099546110c79082610d9d565b6099556001600160a01b0382166000908152609760205260409020546110ed9082610d9d565b6001600160a01b0383166000818152609760205260408082209390935591519091906000805160206117af8339815191529061112c9085815260200190565b60405180910390a35050565b6001600160a01b03811661114b57600080fd5b611155828261102f565b61115e57600080fd5b6001600160a01b0316600090815260209190915260409020805460ff19169055565b6001600160a01b03811661119357600080fd5b61119d828261102f565b156111a757600080fd5b6001600160a01b0316600090815260209190915260409020805460ff19166001179055565b6000610dfa83836040518060400160405280601e81526020017f536166654d6174683a207375627472616374696f6e206f766572666c6f770000815250610d63565b60008261121d5750600061044b565b600061122983856116c4565b90508261123685836116a4565b14610dfa5760405162461bcd60e51b815260206004820152602160248201527f536166654d6174683a206d756c7469706c69636174696f6e206f766572666c6f6044820152607760f81b6064820152608401610433565b6000610dfa83836040518060400160405280601a815260200179536166654d6174683a206469766973696f6e206279207a65726f60301b81525061132f565b600054610100900460ff166112f35760405162461bcd60e51b815260040161043390611641565b6105b933610f3c565b600054610100900460ff166113235760405162461bcd60e51b815260040161043390611641565b6065805460ff19169055565b600081836113505760405162461bcd60e51b8152600401610433919061158f565b506000610d9484866116a4565b828054611369906116fa565b90600052602060002090601f01602090048101928261138b57600085556113d1565b82601f106113a457805160ff19168380011785556113d1565b828001600101855582156113d1579182015b828111156113d15782518255916020019190600101906113b6565b50610a119291505b80821115610a1157600081556001016113d9565b6000602082840312156113fe578081fd5b8135610dfa8161174b565b6000806040838503121561141b578081fd5b82356114268161174b565b915060208301356114368161174b565b809150509250929050565b600080600060608486031215611455578081fd5b83356114608161174b565b925060208401356114708161174b565b929592945050506040919091013590565b60008060408385031215611493578182fd5b823561149e8161174b565b946020939093013593505050565b600080600080606085870312156114c1578081fd5b84356114cc8161174b565b93506020850135925060408501356001600160401b03808211156114ee578283fd5b818701915087601f830112611501578283fd5b81358181111561150f578384fd5b886020828501011115611520578384fd5b95989497505060200194505050565b600060208284031215611540578081fd5b5035919050565b6001600160a01b0385168152602081018490526060604082018190528101829052818360808301376000818301608090810191909152601f909201601f191601019392505050565b6000602080835283518082850152825b818110156115bb5785810183015185820160400152820161159f565b818111156115cc5783604083870101525b50601f01601f1916929092016040019392505050565b60208082526010908201526f14185d5cd8589b194e881c185d5cd95960821b604082015260600190565b6020808252818101527f4f776e61626c653a2063616c6c6572206973206e6f7420746865206f776e6572604082015260600190565b6020808252602b908201527f496e697469616c697a61626c653a20636f6e7472616374206973206e6f74206960408201526a6e697469616c697a696e6760a81b606082015260800190565b6000821982111561169f5761169f611735565b500190565b6000826116bf57634e487b7160e01b81526012600452602481fd5b500490565b60008160001904831182151516156116de576116de611735565b500290565b6000828210156116f5576116f5611735565b500390565b600181811c9082168061170e57607f821691505b6020821081141561172f57634e487b7160e01b600052602260045260246000fd5b50919050565b634e487b7160e01b600052601160045260246000fd5b6001600160a01b038116811461078957600080fdfe42455032303a207472616e7366657220616d6f756e74206578636565647320616c6c6f77616e636542455032303a207472616e7366657220616d6f756e7420657863656564732062616c616e6365ddf252ad1be2c89b69c2b068fc378daa952ba7f163c4a11628f55a4df523b3ef42455032303a2064656372656173656420616c6c6f77616e63652062656c6f77207a65726f42455032303a206275726e20616d6f756e7420657863656564732062616c616e6365a26469706673582212205347bfd637db02b585b120e29059e41cb4412550df5fcbbbd8fb808fdd8307b464736f6c63430008040033",
  "linkReferences": {},
  "deployedLinkReferences": {}
}