{
  "_format": "hh-sol-artifact-1",
  "contractName": "CairoToken",
  "sourceName": "contracts/token/CairoToken.sol",
  "abi": [
    {
      "anonymous": false,
      "inputs": [
        {
          "indexed": true,
          "internalType": "address",
          "name": "owner",
          "type": "address"
        },
        {
          "indexed": true,
          "internalType": "address",
          "name": "spender",
          "type": "address"
        },
        {
          "indexed": false,
          "internalType": "uint256",
          "name": "value",
          "type": "uint256"
        }
      ],
      "name": "Approval",
      "type": "event"
    },
    {
      "anonymous": false,
      "inputs": [
        {
          "indexed": true,
          "internalType": "address",
          "name": "previousOwner",
          "type": "address"
        },
        {
          "indexed": true,
          "internalType": "address",
          "name": "newOwner",
          "type": "address"
        }
      ],
      "name": "OwnershipTransferred",
      "type": "event"
    },
    {
      "anonymous": false,
      "inputs": [
        {
          "indexed": false,
          "internalType": "address",
          "name": "account",
          "type": "address"
        }
      ],
      "name": "Paused",
      "type": "event"
    },
    {
      "anonymous": false,
      "inputs": [
        {
          "indexed": false,
          "internalType": "address",
          "name": "from",
          "type": "address"
        },
        {
          "indexed": false,
          "internalType": "address",
          "name": "vault",
          "type": "address"
        },
        {
          "indexed": false,
          "internalType": "uint256",
          "name": "amount",
          "type": "uint256"
        }
      ],
      "name": "TaxPayed",
      "type": "event"
    },
    {
      "anonymous": false,
      "inputs": [
        {
          "indexed": true,
          "internalType": "address",
          "name": "from",
          "type": "address"
        },
        {
          "indexed": true,
          "internalType": "address",
          "name": "to",
          "type": "address"
        },
        {
          "indexed": false,
          "internalType": "uint256",
          "name": "value",
          "type": "uint256"
        }
      ],
      "name": "Transfer",
      "type": "event"
    },
    {
      "anonymous": false,
      "inputs": [
        {
          "indexed": false,
          "internalType": "address",
          "name": "account",
          "type": "address"
        }
      ],
      "name": "Unpaused",
      "type": "event"
    },
    {
      "inputs": [
        {
          "internalType": "address",
          "name": "contractAddress",
          "type": "address"
        }
      ],
      "name": "addNetworkContract",
      "outputs": [
        {
          "internalType": "address",
          "name": "",
          "type": "address"
        }
      ],
      "stateMutability": "nonpayable",
      "type": "function"
    },
    {
      "inputs": [
        {
          "internalType": "address",
          "name": "owner",
          "type": "address"
        },
        {
          "internalType": "address",
          "name": "spender",
          "type": "address"
        }
      ],
      "name": "allowance",
      "outputs": [
        {
          "internalType": "uint256",
          "name": "",
          "type": "uint256"
        }
      ],
      "stateMutability": "view",
      "type": "function"
    },
    {
      "inputs": [
        {
          "internalType": "address",
          "name": "spender",
          "type": "address"
        },
        {
          "internalType": "uint256",
          "name": "amount",
          "type": "uint256"
        }
      ],
      "name": "approve",
      "outputs": [
        {
          "internalType": "bool",
          "name": "",
          "type": "bool"
        }
      ],
      "stateMutability": "nonpayable",
      "type": "function"
    },
    {
      "inputs": [
        {
          "internalType": "contract ApproveAndCallFallBack",
          "name": "_spender",
          "type": "address"
        },
        {
          "internalType": "uint256",
          "name": "_amount",
          "type": "uint256"
        },
        {
          "internalType": "bytes",
          "name": "_extraData",
          "type": "bytes"
        }
      ],
      "name": "approveAndCall",
      "outputs": [
        {
          "internalType": "bool",
          "name": "success",
          "type": "bool"
        }
      ],
      "stateMutability": "nonpayable",
      "type": "function"
    },
    {
      "inputs": [
        {
          "internalType": "address",
          "name": "account",
          "type": "address"
        }
      ],
      "name": "balanceOf",
      "outputs": [
        {
          "internalType": "uint256",
          "name": "",
          "type": "uint256"
        }
      ],
      "stateMutability": "view",
      "type": "function"
    },
    {
      "inputs": [
        {
          "internalType": "uint256",
          "name": "amount",
          "type": "uint256"
        }
      ],
      "name": "burn",
      "outputs": [
        {
          "internalType": "bool",
          "name": "",
          "type": "bool"
        }
      ],
      "stateMutability": "nonpayable",
      "type": "function"
    },
    {
      "inputs": [
        {
          "internalType": "address",
          "name": "account",
          "type": "address"
        },
        {
          "internalType": "uint256",
          "name": "amount",
          "type": "uint256"
        }
      ],
      "name": "burnFromCairoNetwork",
      "outputs": [],
      "stateMutability": "nonpayable",
      "type": "function"
    },
    {
      "inputs": [
        {
          "internalType": "address",
          "name": "_from",
          "type": "address"
        },
        {
          "internalType": "uint256",
          "name": "_value",
          "type": "uint256"
        }
      ],
      "name": "calculateTransferTaxes",
      "outputs": [
        {
          "internalType": "uint256",
          "name": "adjustedValue",
          "type": "uint256"
        },
        {
          "internalType": "uint256",
          "name": "taxAmount",
          "type": "uint256"
        }
      ],
      "stateMutability": "view",
      "type": "function"
    },
    {
      "inputs": [],
      "name": "decimals",
      "outputs": [
        {
          "internalType": "uint8",
          "name": "",
          "type": "uint8"
        }
      ],
      "stateMutability": "view",
      "type": "function"
    },
    {
      "inputs": [
        {
          "internalType": "address",
          "name": "spender",
          "type": "address"
        },
        {
          "internalType": "uint256",
          "name": "subtractedValue",
          "type": "uint256"
        }
      ],
      "name": "decreaseAllowance",
      "outputs": [
        {
          "internalType": "bool",
          "name": "",
          "type": "bool"
        }
      ],
      "stateMutability": "nonpayable",
      "type": "function"
    },
    {
      "inputs": [],
      "name": "getOwner",
      "outputs": [
        {
          "internalType": "address",
          "name": "",
          "type": "address"
        }
      ],
      "stateMutability": "view",
      "type": "function"
    },
    {
      "inputs": [
        {
          "internalType": "address",
          "name": "spender",
          "type": "address"
        },
        {
          "internalType": "uint256",
          "name": "addedValue",
          "type": "uint256"
        }
      ],
      "name": "increaseAllowance",
      "outputs": [
        {
          "internalType": "bool",
          "name": "",
          "type": "bool"
        }
      ],
      "stateMutability": "nonpayable",
      "type": "function"
    },
    {
      "inputs": [],
      "name": "initialize",
      "outputs": [],
      "stateMutability": "nonpayable",
      "type": "function"
    },
    {
      "inputs": [
        {
          "internalType": "uint256",
          "name": "amount",
          "type": "uint256"
        }
      ],
      "name": "mint",
      "outputs": [
        {
          "internalType": "bool",
          "name": "",
          "type": "bool"
        }
      ],
      "stateMutability": "nonpayable",
      "type": "function"
    },
    {
      "inputs": [],
      "name": "mintable",
      "outputs": [
        {
          "internalType": "bool",
          "name": "",
          "type": "bool"
        }
      ],
      "stateMutability": "view",
      "type": "function"
    },
    {
      "inputs": [],
      "name": "name",
      "outputs": [
        {
          "internalType": "string",
          "name": "",
          "type": "string"
        }
      ],
      "stateMutability": "view",
      "type": "function"
    },
    {
      "inputs": [],
      "name": "owner",
      "outputs": [
        {
          "internalType": "address",
          "name": "",
          "type": "address"
        }
      ],
      "stateMutability": "view",
      "type": "function"
    },
    {
      "inputs": [],
      "name": "paused",
      "outputs": [
        {
          "internalType": "bool",
          "name": "",
          "type": "bool"
        }
      ],
      "stateMutability": "view",
      "type": "function"
    },
    {
      "inputs": [
        {
          "internalType": "address",
          "name": "contractAddress",
          "type": "address"
        }
      ],
      "name": "removeNetworkContract",
      "outputs": [],
      "stateMutability": "nonpayable",
      "type": "function"
    },
    {
      "inputs": [],
      "name": "renounceOwnership",
      "outputs": [],
      "stateMutability": "nonpayable",
      "type": "function"
    },
    {
      "inputs": [],
      "name": "symbol",
      "outputs": [
        {
          "internalType": "string",
          "name": "",
          "type": "string"
        }
      ],
      "stateMutability": "view",
      "type": "function"
    },
    {
      "inputs": [],
      "name": "totalSupply",
      "outputs": [
        {
          "internalType": "uint256",
          "name": "",
          "type": "uint256"
        }
      ],
      "stateMutability": "view",
      "type": "function"
    },
    {
      "inputs": [
        {
          "internalType": "address",
          "name": "recipient",
          "type": "address"
        },
        {
          "internalType": "uint256",
          "name": "amount",
          "type": "uint256"
        }
      ],
      "name": "transfer",
      "outputs": [
        {
          "internalType": "bool",
          "name": "",
          "type": "bool"
        }
      ],
      "stateMutability": "nonpayable",
      "type": "function"
    },
    {
      "inputs": [
        {
          "internalType": "address",
          "name": "sender",
          "type": "address"
        },
        {
          "internalType": "address",
          "name": "recipient",
          "type": "address"
        },
        {
          "internalType": "uint256",
          "name": "amount",
          "type": "uint256"
        }
      ],
      "name": "transferFrom",
      "outputs": [
        {
          "internalType": "bool",
          "name": "",
          "type": "bool"
        }
      ],
      "stateMutability": "nonpayable",
      "type": "function"
    },
    {
      "inputs": [
        {
          "internalType": "address",
          "name": "sender",
          "type": "address"
        },
        {
          "internalType": "address",
          "name": "recipient",
          "type": "address"
        },
        {
          "internalType": "uint256",
          "name": "amount",
          "type": "uint256"
        }
      ],
      "name": "transferFromCairoNetwork",
      "outputs": [],
      "stateMutability": "nonpayable",
      "type": "function"
    },
    {
      "inputs": [
        {
          "internalType": "address",
          "name": "newOwner",
          "type": "address"
        }
      ],
      "name": "transferOwnership",
      "outputs": [],
      "stateMutability": "nonpayable",
      "type": "function"
    }
  ],
  "bytecode": "0x608060405234801561001057600080fd5b50613572806100206000396000f3fe608060405234801561001057600080fd5b506004361061013e5760003560e01c806306fdde0314610143578063095ea7b31461016157806318160ddd1461019157806323b872dd146101af578063313ce567146101df57806339509351146101fd57806342966c681461022d5780634bf365df1461025d5780635c975abb1461027b57806370a0823114610299578063715018a6146102c957806379a5b227146102d35780638129fc1c14610304578063893d20e81461030e5780638da5cb5b1461032c578063902e2bc91461034a57806395d89b4114610366578063a0712d6814610384578063a457c2d7146103b4578063a9059cbb146103e4578063c6fc0f5f14610414578063cae9ca5114610430578063d7a06eee14610460578063dd62ed3e14610490578063f2fde38b146104c0578063f88a4f17146104dc575b600080fd5b61014b6104f8565b6040516101589190612bd2565b60405180910390f35b61017b600480360381019061017691906127ff565b61058a565b6040516101889190612bb7565b60405180910390f35b6101996105f0565b6040516101a69190612db4565b60405180910390f35b6101c960048036038101906101c491906127b0565b6105fa565b6040516101d69190612bb7565b60405180910390f35b6101e761071b565b6040516101f49190612df8565b60405180910390f35b610217600480360381019061021291906127ff565b610732565b6040516102249190612bb7565b60405180910390f35b610247600480360381019061024291906128a7565b61082d565b6040516102549190612bb7565b60405180910390f35b610265610891565b6040516102729190612bb7565b60405180910390f35b6102836108a8565b6040516102909190612bb7565b60405180910390f35b6102b360048036038101906102ae919061274b565b6108bf565b6040516102c09190612db4565b60405180910390f35b6102d1610908565b005b6102ed60048036038101906102e891906127ff565b610990565b6040516102fb929190612dcf565b60405180910390f35b61030c610aae565b005b610316610ca7565b6040516103239190612b5c565b60405180910390f35b610334610cb6565b6040516103419190612b5c565b60405180910390f35b610364600480360381019061035f91906127ff565b610ce0565b005b61036e610d0b565b60405161037b9190612bd2565b60405180910390f35b61039e600480360381019061039991906128a7565b610d9d565b6040516103ab9190612bb7565b60405180910390f35b6103ce60048036038101906103c991906127ff565b610ed2565b6040516103db9190612bb7565b60405180910390f35b6103fe60048036038101906103f991906127ff565b610fe7565b60405161040b9190612bb7565b60405180910390f35b61042e6004803603810190610429919061274b565b611005565b005b61044a6004803603810190610445919061283b565b611098565b6040516104579190612bb7565b60405180910390f35b61047a6004803603810190610475919061274b565b611171565b6040516104879190612b5c565b60405180910390f35b6104aa60048036038101906104a59190612774565b61120b565b6040516104b79190612db4565b60405180910390f35b6104da60048036038101906104d5919061274b565b611292565b005b6104f660048036038101906104f191906127b0565b61138a565b005b6060609a805461050790612ffe565b80601f016020809104026020016040519081016040528092919081815260200182805461053390612ffe565b80156105805780601f1061055557610100808354040283529160200191610580565b820191906000526020600020905b81548152906001019060200180831161056357829003601f168201915b5050505050905090565b60006105946108a8565b156105d4576040517f08c379a00000000000000000000000000000000000000000000000000000000081526004016105cb90612c94565b60405180910390fd5b6105e66105df611635565b848461163d565b6001905092915050565b6000609954905090565b60006106046108a8565b15610644576040517f08c379a000000000000000000000000000000000000000000000000000000000815260040161063b90612c94565b60405180910390fd5b61064f848484611808565b6107108461065b611635565b61070b856040518060600160405280602881526020016134a860289139609860008b73ffffffffffffffffffffffffffffffffffffffff1673ffffffffffffffffffffffffffffffffffffffff16815260200190815260200160002060006106c1611635565b73ffffffffffffffffffffffffffffffffffffffff1673ffffffffffffffffffffffffffffffffffffffff16815260200190815260200160002054611a969092919063ffffffff16565b61163d565b600190509392505050565b6000609c60009054906101000a900460ff16905090565b600061073c6108a8565b1561077c576040517f08c379a000000000000000000000000000000000000000000000000000000000815260040161077390612c94565b60405180910390fd5b610823610787611635565b8461081e8560986000610798611635565b73ffffffffffffffffffffffffffffffffffffffff1673ffffffffffffffffffffffffffffffffffffffff16815260200190815260200160002060008973ffffffffffffffffffffffffffffffffffffffff1673ffffffffffffffffffffffffffffffffffffffff16815260200190815260200160002054611afa90919063ffffffff16565b61163d565b6001905092915050565b60006108376108a8565b15610877576040517f08c379a000000000000000000000000000000000000000000000000000000000815260040161086e90612c94565b60405180910390fd5b610888610882611635565b83611b58565b60019050919050565b6000609c60019054906101000a900460ff16905090565b6000606560009054906101000a900460ff16905090565b6000609760008373ffffffffffffffffffffffffffffffffffffffff1673ffffffffffffffffffffffffffffffffffffffff168152602001908152602001600020549050919050565b610910611635565b73ffffffffffffffffffffffffffffffffffffffff1661092e610cb6565b73ffffffffffffffffffffffffffffffffffffffff1614610984576040517f08c379a000000000000000000000000000000000000000000000000000000000815260040161097b90612d14565b60405180910390fd5b61098e6000611cfc565b565b6000808291506000905060a060008573ffffffffffffffffffffffffffffffffffffffff1673ffffffffffffffffffffffffffffffffffffffff16815260200190815260200160002060009054906101000a900460ff16610aa7576000600a9050609f60008673ffffffffffffffffffffffffffffffffffffffff1673ffffffffffffffffffffffffffffffffffffffff16815260200190815260200160002060009054906101000a900460ff1615610a9357609e60008673ffffffffffffffffffffffffffffffffffffffff1673ffffffffffffffffffffffffffffffffffffffff16815260200190815260200160002060009054906101000a900460ff1690505b610a9d8482611dc2565b8093508194505050505b9250929050565b600060019054906101000a900460ff16610ad65760008054906101000a900460ff1615610adf565b610ade611e2c565b5b610b1e576040517f08c379a0000000000000000000000000000000000000000000000000000000008152600401610b1590612cb4565b60405180910390fd5b60008060019054906101000a900460ff161590508015610b6e576001600060016101000a81548160ff02191690831515021790555060016000806101000a81548160ff0219169083151502179055505b610b76611e3d565b610b7e611e96565b6040518060400160405280600581526020017f436169726f000000000000000000000000000000000000000000000000000000815250609a9080519060200190610bc992919061261f565b506040518060400160405280600581526020017f434149524f000000000000000000000000000000000000000000000000000000815250609b9080519060200190610c1592919061261f565b506012609c60006101000a81548160ff021916908360ff1602179055506001609c60016101000a81548160ff02191690831515021790555060006a52b7d2dcc80cd2e40000009050610c6681610d9d565b506000609c60016101000a81548160ff021916908315150217905550508015610ca45760008060016101000a81548160ff0219169083151502179055505b50565b6000610cb1610cb6565b905090565b6000603360009054906101000a900473ffffffffffffffffffffffffffffffffffffffff16905090565b610cf433609d611eef90919063ffffffff16565b610cfd57600080fd5b610d078282611b58565b5050565b6060609b8054610d1a90612ffe565b80601f0160208091040260200160405190810160405280929190818152602001828054610d4690612ffe565b8015610d935780601f10610d6857610100808354040283529160200191610d93565b820191906000526020600020905b815481529060010190602001808311610d7657829003601f168201915b5050505050905090565b6000610da7611635565b73ffffffffffffffffffffffffffffffffffffffff16610dc5610cb6565b73ffffffffffffffffffffffffffffffffffffffff1614610e1b576040517f08c379a0000000000000000000000000000000000000000000000000000000008152600401610e1290612d14565b60405180910390fd5b609c60019054906101000a900460ff16610e6a576040517f08c379a0000000000000000000000000000000000000000000000000000000008152600401610e6190612c14565b60405180910390fd5b610ea86040518060400160405280600c81526020017f696e697469616c206d696e740000000000000000000000000000000000000000815250611f81565b610eb8610eb3610cb6565b61201a565b610ec9610ec3610cb6565b836120b3565b60019050919050565b6000610edc6108a8565b15610f1c576040517f08c379a0000000000000000000000000000000000000000000000000000000008152600401610f1390612c94565b60405180910390fd5b610fdd610f27611635565b84610fd8856040518060600160405280602581526020016134f66025913960986000610f51611635565b73ffffffffffffffffffffffffffffffffffffffff1673ffffffffffffffffffffffffffffffffffffffff16815260200190815260200160002060008a73ffffffffffffffffffffffffffffffffffffffff1673ffffffffffffffffffffffffffffffffffffffff16815260200190815260200160002054611a969092919063ffffffff16565b61163d565b6001905092915050565b6000610ffb610ff4611635565b8484611808565b6001905092915050565b61100d611635565b73ffffffffffffffffffffffffffffffffffffffff1661102b610cb6565b73ffffffffffffffffffffffffffffffffffffffff1614611081576040517f08c379a000000000000000000000000000000000000000000000000000000000815260040161107890612d14565b60405180910390fd5b61109581609d61223d90919063ffffffff16565b50565b60006110a26108a8565b156110e2576040517f08c379a00000000000000000000000000000000000000000000000000000000081526004016110d990612c94565b60405180910390fd5b6110f46110ed611635565b868661163d565b8473ffffffffffffffffffffffffffffffffffffffff1663a2d57853338686866040518563ffffffff1660e01b81526004016111339493929190612b77565b600060405180830381600087803b15801561114d57600080fd5b505af1158015611161573d6000803e3d6000fd5b5050505060019050949350505050565b600061117b611635565b73ffffffffffffffffffffffffffffffffffffffff16611199610cb6565b73ffffffffffffffffffffffffffffffffffffffff16146111ef576040517f08c379a00000000000000000000000000000000000000000000000000000000081526004016111e690612d14565b60405180910390fd5b61120382609d6122e890919063ffffffff16565b819050919050565b6000609860008473ffffffffffffffffffffffffffffffffffffffff1673ffffffffffffffffffffffffffffffffffffffff16815260200190815260200160002060008373ffffffffffffffffffffffffffffffffffffffff1673ffffffffffffffffffffffffffffffffffffffff16815260200190815260200160002054905092915050565b61129a611635565b73ffffffffffffffffffffffffffffffffffffffff166112b8610cb6565b73ffffffffffffffffffffffffffffffffffffffff161461130e576040517f08c379a000000000000000000000000000000000000000000000000000000000815260040161130590612d14565b60405180910390fd5b600073ffffffffffffffffffffffffffffffffffffffff168173ffffffffffffffffffffffffffffffffffffffff16141561137e576040517f08c379a000000000000000000000000000000000000000000000000000000000815260040161137590612c54565b60405180910390fd5b61138781611cfc565b50565b61139e33609d611eef90919063ffffffff16565b6113a757600080fd5b600073ffffffffffffffffffffffffffffffffffffffff168373ffffffffffffffffffffffffffffffffffffffff161415611417576040517f08c379a000000000000000000000000000000000000000000000000000000000815260040161140e90612bf4565b60405180910390fd5b600073ffffffffffffffffffffffffffffffffffffffff168273ffffffffffffffffffffffffffffffffffffffff161415611487576040517f08c379a000000000000000000000000000000000000000000000000000000000815260040161147e90612d34565b60405180910390fd5b6114f3816040518060600160405280602681526020016134d060269139609760008773ffffffffffffffffffffffffffffffffffffffff1673ffffffffffffffffffffffffffffffffffffffff16815260200190815260200160002054611a969092919063ffffffff16565b609760008573ffffffffffffffffffffffffffffffffffffffff1673ffffffffffffffffffffffffffffffffffffffff1681526020019081526020016000208190555061158881609760008573ffffffffffffffffffffffffffffffffffffffff1673ffffffffffffffffffffffffffffffffffffffff16815260200190815260200160002054611afa90919063ffffffff16565b609760008473ffffffffffffffffffffffffffffffffffffffff1673ffffffffffffffffffffffffffffffffffffffff168152602001908152602001600020819055508173ffffffffffffffffffffffffffffffffffffffff168373ffffffffffffffffffffffffffffffffffffffff167fddf252ad1be2c89b69c2b068fc378daa952ba7f163c4a11628f55a4df523b3ef836040516116289190612db4565b60405180910390a3505050565b600033905090565b600073ffffffffffffffffffffffffffffffffffffffff168373ffffffffffffffffffffffffffffffffffffffff1614156116ad576040517f08c379a00000000000000000000000000000000000000000000000000000000081526004016116a490612c34565b60405180910390fd5b600073ffffffffffffffffffffffffffffffffffffffff168273ffffffffffffffffffffffffffffffffffffffff16141561171d576040517f08c379a000000000000000000000000000000000000000000000000000000000815260040161171490612d94565b60405180910390fd5b80609860008573ffffffffffffffffffffffffffffffffffffffff1673ffffffffffffffffffffffffffffffffffffffff16815260200190815260200160002060008473ffffffffffffffffffffffffffffffffffffffff1673ffffffffffffffffffffffffffffffffffffffff168152602001908152602001600020819055508173ffffffffffffffffffffffffffffffffffffffff168373ffffffffffffffffffffffffffffffffffffffff167f8c5be1e5ebec7d5bd14f71427d1e84f3dd0314c0f7b2291e5b200ac8c7c3b925836040516117fb9190612db4565b60405180910390a3505050565b600073ffffffffffffffffffffffffffffffffffffffff168373ffffffffffffffffffffffffffffffffffffffff161415611878576040517f08c379a000000000000000000000000000000000000000000000000000000000815260040161186f90612bf4565b60405180910390fd5b600073ffffffffffffffffffffffffffffffffffffffff168273ffffffffffffffffffffffffffffffffffffffff1614156118e8576040517f08c379a00000000000000000000000000000000000000000000000000000000081526004016118df90612d34565b60405180910390fd5b611954816040518060600160405280602681526020016134d060269139609760008773ffffffffffffffffffffffffffffffffffffffff1673ffffffffffffffffffffffffffffffffffffffff16815260200190815260200160002054611a969092919063ffffffff16565b609760008573ffffffffffffffffffffffffffffffffffffffff1673ffffffffffffffffffffffffffffffffffffffff168152602001908152602001600020819055506119e981609760008573ffffffffffffffffffffffffffffffffffffffff1673ffffffffffffffffffffffffffffffffffffffff16815260200190815260200160002054611afa90919063ffffffff16565b609760008473ffffffffffffffffffffffffffffffffffffffff1673ffffffffffffffffffffffffffffffffffffffff168152602001908152602001600020819055508173ffffffffffffffffffffffffffffffffffffffff168373ffffffffffffffffffffffffffffffffffffffff167fddf252ad1be2c89b69c2b068fc378daa952ba7f163c4a11628f55a4df523b3ef83604051611a899190612db4565b60405180910390a3505050565b6000838311158290611ade576040517f08c379a0000000000000000000000000000000000000000000000000000000008152600401611ad59190612bd2565b60405180910390fd5b5060008385611aed9190612f21565b9050809150509392505050565b6000808284611b099190612e40565b905083811015611b4e576040517f08c379a0000000000000000000000000000000000000000000000000000000008152600401611b4590612c74565b60405180910390fd5b8091505092915050565b600073ffffffffffffffffffffffffffffffffffffffff168273ffffffffffffffffffffffffffffffffffffffff161415611bc8576040517f08c379a0000000000000000000000000000000000000000000000000000000008152600401611bbf90612d54565b60405180910390fd5b611c348160405180606001604052806022815260200161351b60229139609760008673ffffffffffffffffffffffffffffffffffffffff1673ffffffffffffffffffffffffffffffffffffffff16815260200190815260200160002054611a969092919063ffffffff16565b609760008473ffffffffffffffffffffffffffffffffffffffff1673ffffffffffffffffffffffffffffffffffffffff16815260200190815260200160002081905550611c8c8160995461239490919063ffffffff16565b609981905550600073ffffffffffffffffffffffffffffffffffffffff168273ffffffffffffffffffffffffffffffffffffffff167fddf252ad1be2c89b69c2b068fc378daa952ba7f163c4a11628f55a4df523b3ef83604051611cf09190612db4565b60405180910390a35050565b6000603360009054906101000a900473ffffffffffffffffffffffffffffffffffffffff16905081603360006101000a81548173ffffffffffffffffffffffffffffffffffffffff021916908373ffffffffffffffffffffffffffffffffffffffff1602179055508173ffffffffffffffffffffffffffffffffffffffff168173ffffffffffffffffffffffffffffffffffffffff167f8be0079c531659141344cd1fd0a4f28419497f9722a3daafe3b4186f6b6457e060405160405180910390a35050565b600080611dee6064611de08560ff16876123de90919063ffffffff16565b61245990919063ffffffff16565b9050611e236064611e15611e0660648760ff16612394565b876123de90919063ffffffff16565b61245990919063ffffffff16565b91509250929050565b6000611e37306124a3565b15905090565b600060019054906101000a900460ff16611e8c576040517f08c379a0000000000000000000000000000000000000000000000000000000008152600401611e8390612d74565b60405180910390fd5b611e946124c6565b565b600060019054906101000a900460ff16611ee5576040517f08c379a0000000000000000000000000000000000000000000000000000000008152600401611edc90612d74565b60405180910390fd5b611eed612527565b565b60008073ffffffffffffffffffffffffffffffffffffffff168273ffffffffffffffffffffffffffffffffffffffff161415611f2a57600080fd5b8260000160008373ffffffffffffffffffffffffffffffffffffffff1673ffffffffffffffffffffffffffffffffffffffff16815260200190815260200160002060009054906101000a900460ff16905092915050565b61201781604051602401611f959190612bd2565b6040516020818303038152906040527f41304fac000000000000000000000000000000000000000000000000000000007bffffffffffffffffffffffffffffffffffffffffffffffffffffffff19166020820180517bffffffffffffffffffffffffffffffffffffffffffffffffffffffff8381831617835250505050612593565b50565b6120b08160405160240161202e9190612b5c565b6040516020818303038152906040527f2c2ecbc2000000000000000000000000000000000000000000000000000000007bffffffffffffffffffffffffffffffffffffffffffffffffffffffff19166020820180517bffffffffffffffffffffffffffffffffffffffffffffffffffffffff8381831617835250505050612593565b50565b600073ffffffffffffffffffffffffffffffffffffffff168273ffffffffffffffffffffffffffffffffffffffff161415612123576040517f08c379a000000000000000000000000000000000000000000000000000000000815260040161211a90612cf4565b60405180910390fd5b61213881609954611afa90919063ffffffff16565b60998190555061219081609760008573ffffffffffffffffffffffffffffffffffffffff1673ffffffffffffffffffffffffffffffffffffffff16815260200190815260200160002054611afa90919063ffffffff16565b609760008473ffffffffffffffffffffffffffffffffffffffff1673ffffffffffffffffffffffffffffffffffffffff168152602001908152602001600020819055508173ffffffffffffffffffffffffffffffffffffffff16600073ffffffffffffffffffffffffffffffffffffffff167fddf252ad1be2c89b69c2b068fc378daa952ba7f163c4a11628f55a4df523b3ef836040516122319190612db4565b60405180910390a35050565b600073ffffffffffffffffffffffffffffffffffffffff168173ffffffffffffffffffffffffffffffffffffffff16141561227757600080fd5b6122818282611eef565b61228a57600080fd5b60008260000160008373ffffffffffffffffffffffffffffffffffffffff1673ffffffffffffffffffffffffffffffffffffffff16815260200190815260200160002060006101000a81548160ff0219169083151502179055505050565b600073ffffffffffffffffffffffffffffffffffffffff168173ffffffffffffffffffffffffffffffffffffffff16141561232257600080fd5b61232c8282611eef565b1561233657600080fd5b60018260000160008373ffffffffffffffffffffffffffffffffffffffff1673ffffffffffffffffffffffffffffffffffffffff16815260200190815260200160002060006101000a81548160ff0219169083151502179055505050565b60006123d683836040518060400160405280601e81526020017f536166654d6174683a207375627472616374696f6e206f766572666c6f770000815250611a96565b905092915050565b6000808314156123f15760009050612453565b600082846123ff9190612ec7565b905082848261240e9190612e96565b1461244e576040517f08c379a000000000000000000000000000000000000000000000000000000000815260040161244590612cd4565b60405180910390fd5b809150505b92915050565b600061249b83836040518060400160405280601a81526020017f536166654d6174683a206469766973696f6e206279207a65726f0000000000008152506125bc565b905092915050565b6000808273ffffffffffffffffffffffffffffffffffffffff163b119050919050565b600060019054906101000a900460ff16612515576040517f08c379a000000000000000000000000000000000000000000000000000000000815260040161250c90612d74565b60405180910390fd5b612525612520611635565b611cfc565b565b600060019054906101000a900460ff16612576576040517f08c379a000000000000000000000000000000000000000000000000000000000815260040161256d90612d74565b60405180910390fd5b6000606560006101000a81548160ff021916908315150217905550565b60008151905060006a636f6e736f6c652e6c6f679050602083016000808483855afa5050505050565b60008083118290612603576040517f08c379a00000000000000000000000000000000000000000000000000000000081526004016125fa9190612bd2565b60405180910390fd5b50600083856126129190612e96565b9050809150509392505050565b82805461262b90612ffe565b90600052602060002090601f01602090048101928261264d5760008555612694565b82601f1061266657805160ff1916838001178555612694565b82800160010185558215612694579182015b82811115612693578251825591602001919060010190612678565b5b5090506126a191906126a5565b5090565b5b808211156126be5760008160009055506001016126a6565b5090565b6000813590506126d181613462565b92915050565b60008083601f8401126126e957600080fd5b8235905067ffffffffffffffff81111561270257600080fd5b60208301915083600182028301111561271a57600080fd5b9250929050565b60008135905061273081613479565b92915050565b60008135905061274581613490565b92915050565b60006020828403121561275d57600080fd5b600061276b848285016126c2565b91505092915050565b6000806040838503121561278757600080fd5b6000612795858286016126c2565b92505060206127a6858286016126c2565b9150509250929050565b6000806000606084860312156127c557600080fd5b60006127d3868287016126c2565b93505060206127e4868287016126c2565b92505060406127f586828701612736565b9150509250925092565b6000806040838503121561281257600080fd5b6000612820858286016126c2565b925050602061283185828601612736565b9150509250929050565b6000806000806060858703121561285157600080fd5b600061285f87828801612721565b945050602061287087828801612736565b935050604085013567ffffffffffffffff81111561288d57600080fd5b612899878288016126d7565b925092505092959194509250565b6000602082840312156128b957600080fd5b60006128c784828501612736565b91505092915050565b6128d981612f55565b82525050565b6128e881612f67565b82525050565b60006128fa8385612e1e565b9350612907838584612fbc565b612910836130bd565b840190509392505050565b600061292682612e13565b6129308185612e2f565b9350612940818560208601612fcb565b612949816130bd565b840191505092915050565b6000612961602583612e2f565b915061296c826130ce565b604082019050919050565b6000612984601a83612e2f565b915061298f8261311d565b602082019050919050565b60006129a7602483612e2f565b91506129b282613146565b604082019050919050565b60006129ca602683612e2f565b91506129d582613195565b604082019050919050565b60006129ed601b83612e2f565b91506129f8826131e4565b602082019050919050565b6000612a10601083612e2f565b9150612a1b8261320d565b602082019050919050565b6000612a33602e83612e2f565b9150612a3e82613236565b604082019050919050565b6000612a56602183612e2f565b9150612a6182613285565b604082019050919050565b6000612a79601f83612e2f565b9150612a84826132d4565b602082019050919050565b6000612a9c602083612e2f565b9150612aa7826132fd565b602082019050919050565b6000612abf602383612e2f565b9150612aca82613326565b604082019050919050565b6000612ae2602183612e2f565b9150612aed82613375565b604082019050919050565b6000612b05602b83612e2f565b9150612b10826133c4565b604082019050919050565b6000612b28602283612e2f565b9150612b3382613413565b604082019050919050565b612b4781612fa5565b82525050565b612b5681612faf565b82525050565b6000602082019050612b7160008301846128d0565b92915050565b6000606082019050612b8c60008301876128d0565b612b996020830186612b3e565b8181036040830152612bac8184866128ee565b905095945050505050565b6000602082019050612bcc60008301846128df565b92915050565b60006020820190508181036000830152612bec818461291b565b905092915050565b60006020820190508181036000830152612c0d81612954565b9050919050565b60006020820190508181036000830152612c2d81612977565b9050919050565b60006020820190508181036000830152612c4d8161299a565b9050919050565b60006020820190508181036000830152612c6d816129bd565b9050919050565b60006020820190508181036000830152612c8d816129e0565b9050919050565b60006020820190508181036000830152612cad81612a03565b9050919050565b60006020820190508181036000830152612ccd81612a26565b9050919050565b60006020820190508181036000830152612ced81612a49565b9050919050565b60006020820190508181036000830152612d0d81612a6c565b9050919050565b60006020820190508181036000830152612d2d81612a8f565b9050919050565b60006020820190508181036000830152612d4d81612ab2565b9050919050565b60006020820190508181036000830152612d6d81612ad5565b9050919050565b60006020820190508181036000830152612d8d81612af8565b9050919050565b60006020820190508181036000830152612dad81612b1b565b9050919050565b6000602082019050612dc96000830184612b3e565b92915050565b6000604082019050612de46000830185612b3e565b612df16020830184612b3e565b9392505050565b6000602082019050612e0d6000830184612b4d565b92915050565b600081519050919050565b600082825260208201905092915050565b600082825260208201905092915050565b6000612e4b82612fa5565b9150612e5683612fa5565b9250827fffffffffffffffffffffffffffffffffffffffffffffffffffffffffffffffff03821115612e8b57612e8a613030565b5b828201905092915050565b6000612ea182612fa5565b9150612eac83612fa5565b925082612ebc57612ebb61305f565b5b828204905092915050565b6000612ed282612fa5565b9150612edd83612fa5565b9250817fffffffffffffffffffffffffffffffffffffffffffffffffffffffffffffffff0483118215151615612f1657612f15613030565b5b828202905092915050565b6000612f2c82612fa5565b9150612f3783612fa5565b925082821015612f4a57612f49613030565b5b828203905092915050565b6000612f6082612f85565b9050919050565b60008115159050919050565b6000612f7e82612f55565b9050919050565b600073ffffffffffffffffffffffffffffffffffffffff82169050919050565b6000819050919050565b600060ff82169050919050565b82818337600083830152505050565b60005b83811015612fe9578082015181840152602081019050612fce565b83811115612ff8576000848401525b50505050565b6000600282049050600182168061301657607f821691505b6020821081141561302a5761302961308e565b5b50919050565b7f4e487b7100000000000000000000000000000000000000000000000000000000600052601160045260246000fd5b7f4e487b7100000000000000000000000000000000000000000000000000000000600052601260045260246000fd5b7f4e487b7100000000000000000000000000000000000000000000000000000000600052602260045260246000fd5b6000601f19601f8301169050919050565b7f42455032303a207472616e736665722066726f6d20746865207a65726f20616460008201527f6472657373000000000000000000000000000000000000000000000000000000602082015250565b7f7468697320746f6b656e206973206e6f74206d696e7461626c65000000000000600082015250565b7f42455032303a20617070726f76652066726f6d20746865207a65726f2061646460008201527f7265737300000000000000000000000000000000000000000000000000000000602082015250565b7f4f776e61626c653a206e6577206f776e657220697320746865207a65726f206160008201527f6464726573730000000000000000000000000000000000000000000000000000602082015250565b7f536166654d6174683a206164646974696f6e206f766572666c6f770000000000600082015250565b7f5061757361626c653a2070617573656400000000000000000000000000000000600082015250565b7f496e697469616c697a61626c653a20636f6e747261637420697320616c72656160008201527f647920696e697469616c697a6564000000000000000000000000000000000000602082015250565b7f536166654d6174683a206d756c7469706c69636174696f6e206f766572666c6f60008201527f7700000000000000000000000000000000000000000000000000000000000000602082015250565b7f42455032303a206d696e7420746f20746865207a65726f206164647265737300600082015250565b7f4f776e61626c653a2063616c6c6572206973206e6f7420746865206f776e6572600082015250565b7f42455032303a207472616e7366657220746f20746865207a65726f206164647260008201527f6573730000000000000000000000000000000000000000000000000000000000602082015250565b7f42455032303a206275726e2066726f6d20746865207a65726f2061646472657360008201527f7300000000000000000000000000000000000000000000000000000000000000602082015250565b7f496e697469616c697a61626c653a20636f6e7472616374206973206e6f74206960008201527f6e697469616c697a696e67000000000000000000000000000000000000000000602082015250565b7f42455032303a20617070726f766520746f20746865207a65726f20616464726560008201527f7373000000000000000000000000000000000000000000000000000000000000602082015250565b61346b81612f55565b811461347657600080fd5b50565b61348281612f73565b811461348d57600080fd5b50565b61349981612fa5565b81146134a457600080fd5b5056fe42455032303a207472616e7366657220616d6f756e74206578636565647320616c6c6f77616e636542455032303a207472616e7366657220616d6f756e7420657863656564732062616c616e636542455032303a2064656372656173656420616c6c6f77616e63652062656c6f77207a65726f42455032303a206275726e20616d6f756e7420657863656564732062616c616e6365a2646970667358221220b992ba94628c2cbfacf27f7346c449ee7ff714ef82811f7fb2af91bbb22bd37764736f6c63430008040033",
  "linkReferences": {},
  "deployedLinkReferences": {}
}