{
  "_format": "hh-sol-artifact-1",
  "contractName": "CairoToken",
  "sourceName": "contracts/token/CairoToken.sol",
  "abi": [
    {
      "anonymous": false,
      "inputs": [
        {
          "indexed": true,
          "internalType": "address",
          "name": "owner",
          "type": "address"
        },
        {
          "indexed": true,
          "internalType": "address",
          "name": "spender",
          "type": "address"
        },
        {
          "indexed": false,
          "internalType": "uint256",
          "name": "value",
          "type": "uint256"
        }
      ],
      "name": "Approval",
      "type": "event"
    },
    {
      "anonymous": false,
      "inputs": [
        {
          "indexed": false,
          "internalType": "address",
          "name": "sender",
          "type": "address"
        },
        {
          "indexed": false,
          "internalType": "uint8",
          "name": "newTaxPercent",
          "type": "uint8"
        }
      ],
      "name": "ChangedCustomTaxRate",
      "type": "event"
    },
    {
      "anonymous": false,
      "inputs": [
        {
          "indexed": false,
          "internalType": "address",
          "name": "contractAddress",
          "type": "address"
        }
      ],
      "name": "NetworkContractAdded",
      "type": "event"
    },
    {
      "anonymous": false,
      "inputs": [
        {
          "indexed": false,
          "internalType": "address",
          "name": "contractAddress",
          "type": "address"
        }
      ],
      "name": "NetworkContractRemoved",
      "type": "event"
    },
    {
      "anonymous": false,
      "inputs": [
        {
          "indexed": true,
          "internalType": "address",
          "name": "previousOwner",
          "type": "address"
        },
        {
          "indexed": true,
          "internalType": "address",
          "name": "newOwner",
          "type": "address"
        }
      ],
      "name": "OwnershipTransferred",
      "type": "event"
    },
    {
      "anonymous": false,
      "inputs": [
        {
          "indexed": false,
          "internalType": "address",
          "name": "account",
          "type": "address"
        }
      ],
      "name": "Paused",
      "type": "event"
    },
    {
      "anonymous": false,
      "inputs": [
        {
          "indexed": false,
          "internalType": "address",
          "name": "from",
          "type": "address"
        },
        {
          "indexed": false,
          "internalType": "address",
          "name": "vault",
          "type": "address"
        },
        {
          "indexed": false,
          "internalType": "uint256",
          "name": "amount",
          "type": "uint256"
        }
      ],
      "name": "TaxPayed",
      "type": "event"
    },
    {
      "anonymous": false,
      "inputs": [
        {
          "indexed": false,
          "internalType": "address",
          "name": "from",
          "type": "address"
        },
        {
          "indexed": false,
          "internalType": "uint256",
          "name": "amount",
          "type": "uint256"
        }
      ],
      "name": "TokenBurn",
      "type": "event"
    },
    {
      "anonymous": false,
      "inputs": [
        {
          "indexed": true,
          "internalType": "address",
          "name": "from",
          "type": "address"
        },
        {
          "indexed": true,
          "internalType": "address",
          "name": "to",
          "type": "address"
        },
        {
          "indexed": false,
          "internalType": "uint256",
          "name": "value",
          "type": "uint256"
        }
      ],
      "name": "Transfer",
      "type": "event"
    },
    {
      "anonymous": false,
      "inputs": [
        {
          "indexed": false,
          "internalType": "address",
          "name": "account",
          "type": "address"
        }
      ],
      "name": "Unpaused",
      "type": "event"
    },
    {
      "inputs": [
        {
          "internalType": "address",
          "name": "lpPair",
          "type": "address"
        }
      ],
      "name": "addKnownPairAddress",
      "outputs": [],
      "stateMutability": "nonpayable",
      "type": "function"
    },
    {
      "inputs": [
        {
          "internalType": "address",
          "name": "contractAddress",
          "type": "address"
        }
      ],
      "name": "addNetworkContract",
      "outputs": [
        {
          "internalType": "address",
          "name": "",
          "type": "address"
        }
      ],
      "stateMutability": "nonpayable",
      "type": "function"
    },
    {
      "inputs": [
        {
          "internalType": "address",
          "name": "excludeAddress",
          "type": "address"
        }
      ],
      "name": "addTaxExcludedAddress",
      "outputs": [],
      "stateMutability": "nonpayable",
      "type": "function"
    },
    {
      "inputs": [
        {
          "internalType": "uint256",
          "name": "",
          "type": "uint256"
        }
      ],
      "name": "allNetworkContracts",
      "outputs": [
        {
          "internalType": "address",
          "name": "",
          "type": "address"
        }
      ],
      "stateMutability": "view",
      "type": "function"
    },
    {
      "inputs": [
        {
          "internalType": "address",
          "name": "owner",
          "type": "address"
        },
        {
          "internalType": "address",
          "name": "spender",
          "type": "address"
        }
      ],
      "name": "allowance",
      "outputs": [
        {
          "internalType": "uint256",
          "name": "",
          "type": "uint256"
        }
      ],
      "stateMutability": "view",
      "type": "function"
    },
    {
      "inputs": [
        {
          "internalType": "address",
          "name": "spender",
          "type": "address"
        },
        {
          "internalType": "uint256",
          "name": "amount",
          "type": "uint256"
        }
      ],
      "name": "approve",
      "outputs": [
        {
          "internalType": "bool",
          "name": "",
          "type": "bool"
        }
      ],
      "stateMutability": "nonpayable",
      "type": "function"
    },
    {
      "inputs": [
        {
          "internalType": "contract ApproveAndCallFallBack",
          "name": "_spender",
          "type": "address"
        },
        {
          "internalType": "uint256",
          "name": "_amount",
          "type": "uint256"
        },
        {
          "internalType": "bytes",
          "name": "_extraData",
          "type": "bytes"
        }
      ],
      "name": "approveAndCall",
      "outputs": [
        {
          "internalType": "bool",
          "name": "success",
          "type": "bool"
        }
      ],
      "stateMutability": "nonpayable",
      "type": "function"
    },
    {
      "inputs": [
        {
          "internalType": "address",
          "name": "account",
          "type": "address"
        }
      ],
      "name": "balanceOf",
      "outputs": [
        {
          "internalType": "uint256",
          "name": "",
          "type": "uint256"
        }
      ],
      "stateMutability": "view",
      "type": "function"
    },
    {
      "inputs": [
        {
          "internalType": "uint256",
          "name": "amount",
          "type": "uint256"
        }
      ],
      "name": "burn",
      "outputs": [
        {
          "internalType": "bool",
          "name": "",
          "type": "bool"
        }
      ],
      "stateMutability": "nonpayable",
      "type": "function"
    },
    {
      "inputs": [
        {
          "internalType": "address",
          "name": "account",
          "type": "address"
        },
        {
          "internalType": "uint256",
          "name": "amount",
          "type": "uint256"
        }
      ],
      "name": "burnFromCairoNetwork",
      "outputs": [],
      "stateMutability": "nonpayable",
      "type": "function"
    },
    {
      "inputs": [
        {
          "internalType": "address",
          "name": "_from",
          "type": "address"
        },
        {
          "internalType": "uint256",
          "name": "_value",
          "type": "uint256"
        }
      ],
      "name": "calculateTransferTaxes",
      "outputs": [
        {
          "internalType": "uint256",
          "name": "adjustedValue",
          "type": "uint256"
        },
        {
          "internalType": "uint256",
          "name": "taxAmount",
          "type": "uint256"
        }
      ],
      "stateMutability": "view",
      "type": "function"
    },
    {
      "inputs": [],
      "name": "decimals",
      "outputs": [
        {
          "internalType": "uint8",
          "name": "",
          "type": "uint8"
        }
      ],
      "stateMutability": "view",
      "type": "function"
    },
    {
      "inputs": [
        {
          "internalType": "address",
          "name": "spender",
          "type": "address"
        },
        {
          "internalType": "uint256",
          "name": "subtractedValue",
          "type": "uint256"
        }
      ],
      "name": "decreaseAllowance",
      "outputs": [
        {
          "internalType": "bool",
          "name": "",
          "type": "bool"
        }
      ],
      "stateMutability": "nonpayable",
      "type": "function"
    },
    {
      "inputs": [],
      "name": "getOwner",
      "outputs": [
        {
          "internalType": "address",
          "name": "",
          "type": "address"
        }
      ],
      "stateMutability": "view",
      "type": "function"
    },
    {
      "inputs": [],
      "name": "getPairs",
      "outputs": [
        {
          "internalType": "address[]",
          "name": "",
          "type": "address[]"
        }
      ],
      "stateMutability": "view",
      "type": "function"
    },
    {
      "inputs": [
        {
          "internalType": "address",
          "name": "spender",
          "type": "address"
        },
        {
          "internalType": "uint256",
          "name": "addedValue",
          "type": "uint256"
        }
      ],
      "name": "increaseAllowance",
      "outputs": [
        {
          "internalType": "bool",
          "name": "",
          "type": "bool"
        }
      ],
      "stateMutability": "nonpayable",
      "type": "function"
    },
    {
      "inputs": [],
      "name": "initialize",
      "outputs": [],
      "stateMutability": "nonpayable",
      "type": "function"
    },
    {
      "inputs": [
        {
          "internalType": "address",
          "name": "addr",
          "type": "address"
        }
      ],
      "name": "isNetworkContract",
      "outputs": [
        {
          "internalType": "bool",
          "name": "",
          "type": "bool"
        }
      ],
      "stateMutability": "view",
      "type": "function"
    },
    {
      "inputs": [
        {
          "internalType": "uint256",
          "name": "amount",
          "type": "uint256"
        }
      ],
      "name": "mint",
      "outputs": [
        {
          "internalType": "bool",
          "name": "",
          "type": "bool"
        }
      ],
      "stateMutability": "nonpayable",
      "type": "function"
    },
    {
      "inputs": [],
      "name": "mintable",
      "outputs": [
        {
          "internalType": "bool",
          "name": "",
          "type": "bool"
        }
      ],
      "stateMutability": "view",
      "type": "function"
    },
    {
      "inputs": [],
      "name": "name",
      "outputs": [
        {
          "internalType": "string",
          "name": "",
          "type": "string"
        }
      ],
      "stateMutability": "view",
      "type": "function"
    },
    {
      "inputs": [],
      "name": "owner",
      "outputs": [
        {
          "internalType": "address",
          "name": "",
          "type": "address"
        }
      ],
      "stateMutability": "view",
      "type": "function"
    },
    {
      "inputs": [
        {
          "internalType": "uint256",
          "name": "",
          "type": "uint256"
        }
      ],
      "name": "pairs",
      "outputs": [
        {
          "internalType": "address",
          "name": "",
          "type": "address"
        }
      ],
      "stateMutability": "view",
      "type": "function"
    },
    {
      "inputs": [],
      "name": "paused",
      "outputs": [
        {
          "internalType": "bool",
          "name": "",
          "type": "bool"
        }
      ],
      "stateMutability": "view",
      "type": "function"
    },
    {
      "inputs": [
        {
          "internalType": "address",
          "name": "contractAddress",
          "type": "address"
        }
      ],
      "name": "removeNetworkContract",
      "outputs": [],
      "stateMutability": "nonpayable",
      "type": "function"
    },
    {
      "inputs": [
        {
          "internalType": "address",
          "name": "excludeAddress",
          "type": "address"
        }
      ],
      "name": "removeTaxExcludedAddress",
      "outputs": [],
      "stateMutability": "nonpayable",
      "type": "function"
    },
    {
      "inputs": [],
      "name": "renounceOwnership",
      "outputs": [],
      "stateMutability": "nonpayable",
      "type": "function"
    },
    {
      "inputs": [
        {
          "internalType": "address",
          "name": "feeOne",
          "type": "address"
        },
        {
          "internalType": "address",
          "name": "feeTwo",
          "type": "address"
        }
      ],
      "name": "setAdminFeeAddresses",
      "outputs": [],
      "stateMutability": "nonpayable",
      "type": "function"
    },
    {
      "inputs": [
        {
          "internalType": "address",
          "name": "sender",
          "type": "address"
        },
        {
          "internalType": "uint8",
          "name": "taxRate",
          "type": "uint8"
        }
      ],
      "name": "setCustomTaxRate",
      "outputs": [],
      "stateMutability": "nonpayable",
      "type": "function"
    },
    {
      "inputs": [
        {
          "internalType": "address",
          "name": "routerAddress",
          "type": "address"
        },
        {
          "internalType": "address",
          "name": "wbnbAddress",
          "type": "address"
        }
      ],
      "name": "setupPancakeV1",
      "outputs": [],
      "stateMutability": "nonpayable",
      "type": "function"
    },
    {
      "inputs": [],
      "name": "symbol",
      "outputs": [
        {
          "internalType": "string",
          "name": "",
          "type": "string"
        }
      ],
      "stateMutability": "view",
      "type": "function"
    },
    {
      "inputs": [],
      "name": "taxExcludedAddresses",
      "outputs": [
        {
          "internalType": "address[]",
          "name": "",
          "type": "address[]"
        }
      ],
      "stateMutability": "view",
      "type": "function"
    },
    {
      "inputs": [],
      "name": "totalBurn",
      "outputs": [
        {
          "internalType": "uint256",
          "name": "",
          "type": "uint256"
        }
      ],
      "stateMutability": "view",
      "type": "function"
    },
    {
      "inputs": [],
      "name": "totalSupply",
      "outputs": [
        {
          "internalType": "uint256",
          "name": "",
          "type": "uint256"
        }
      ],
      "stateMutability": "view",
      "type": "function"
    },
    {
      "inputs": [
        {
          "internalType": "address",
          "name": "recipient",
          "type": "address"
        },
        {
          "internalType": "uint256",
          "name": "amount",
          "type": "uint256"
        }
      ],
      "name": "transfer",
      "outputs": [
        {
          "internalType": "bool",
          "name": "",
          "type": "bool"
        }
      ],
      "stateMutability": "nonpayable",
      "type": "function"
    },
    {
      "inputs": [
        {
          "internalType": "address",
          "name": "sender",
          "type": "address"
        },
        {
          "internalType": "address",
          "name": "recipient",
          "type": "address"
        },
        {
          "internalType": "uint256",
          "name": "amount",
          "type": "uint256"
        }
      ],
      "name": "transferFrom",
      "outputs": [
        {
          "internalType": "bool",
          "name": "",
          "type": "bool"
        }
      ],
      "stateMutability": "nonpayable",
      "type": "function"
    },
    {
      "inputs": [
        {
          "internalType": "address",
          "name": "sender",
          "type": "address"
        },
        {
          "internalType": "address",
          "name": "recipient",
          "type": "address"
        },
        {
          "internalType": "uint256",
          "name": "amount",
          "type": "uint256"
        }
      ],
      "name": "transferFromCairoNetwork",
      "outputs": [],
      "stateMutability": "nonpayable",
      "type": "function"
    },
    {
      "inputs": [
        {
          "internalType": "address",
          "name": "newOwner",
          "type": "address"
        }
      ],
      "name": "transferOwnership",
      "outputs": [],
      "stateMutability": "nonpayable",
      "type": "function"
    }
  ],
  "bytecode": "0x608060405234801561001057600080fd5b50612715806100206000396000f3fe608060405234801561001057600080fd5b50600436106101c25760003560e01c806306fdde03146101c7578063095ea7b3146101e557806318160ddd1461020857806323b872dd1461021a578063286847a51461022d578063313ce5671461024d578063365f0c501461026257806339509351146102775780633c9f861d1461028a57806342966c68146102925780634bf365df146102a55780635c975abb146102b557806368bfcddd146102c057806370a08231146102d3578063715018a6146102fc578063767eb5ef1461030457806379a5b227146103195780638129fc1c14610341578063893d20e8146103495780638da5cb5b14610351578063902e2bc91461035957806395d89b411461036c578063a0712d6814610374578063a457c2d714610387578063a7d4b84e1461039a578063a9059cbb146103ad578063b0287b8f146103c0578063b91ac788146103c8578063c6fc0f5f146103db578063cae9ca51146103ee578063cc9c49a614610401578063cdca708314610414578063ce75996a14610427578063d7a06eee1461043a578063dd62ed3e1461044d578063f2fde38b14610486578063f88a4f1714610499578063f9327353146104ac575b600080fd5b6101cf6104bf565b6040516101dc9190612396565b60405180910390f35b6101f86101f33660046121f5565b610551565b60405190151581526020016101dc565b6099545b6040519081526020016101dc565b6101f86102283660046121b5565b61059a565b61024061023b3660046122d5565b61062c565b6040516101dc91906122ed565b609c5460405160ff90911681526020016101dc565b610275610270366004612220565b610656565b005b6101f86102853660046121f5565b6106fe565b60a85461020c565b6101f86102a03660046122d5565b61075e565b609c54610100900460ff166101f8565b60655460ff166101f8565b6102756102ce366004612145565b61079b565b61020c6102e1366004612145565b6001600160a01b031660009081526097602052604090205490565b61027561080a565b61030c610845565b6040516101dc9190612349565b61032c6103273660046121f5565b6108a6565b604080519283526020830191909152016101dc565b610275610923565b610240610a77565b610240610a86565b6102756103673660046121f5565b610a95565b6101cf610ab7565b6101f86103823660046122d5565b610ac6565b6101f86103953660046121f5565b610b5c565b6102756103a836600461217d565b610bd4565b6101f86103bb3660046121f5565b610c31565b61030c610c3e565b6102406103d63660046122d5565b610c9e565b6102756103e9366004612145565b610cae565b6101f86103fc366004612252565b610e5f565b61027561040f366004612145565b610f04565b610275610422366004612145565b61106b565b61027561043536600461217d565b611100565b610240610448366004612145565b6112aa565b61020c61045b36600461217d565b6001600160a01b03918216600090815260986020908152604080832093909416825291909152205490565b610275610494366004612145565b61136d565b6102756104a73660046121b5565b61140a565b6101f86104ba366004612145565b611525565b6060609a80546104ce90612589565b80601f01602080910402602001604051908101604052809291908181526020018280546104fa90612589565b80156105475780601f1061051c57610100808354040283529160200191610547565b820191906000526020600020905b81548152906001019060200180831161052a57829003601f168201915b5050505050905090565b600061055f60655460ff1690565b156105855760405162461bcd60e51b815260040161057c9061242e565b60405180910390fd5b610590338484611532565b5060015b92915050565b60006105a860655460ff1690565b156105c55760405162461bcd60e51b815260040161057c9061242e565b6105d084848461164e565b610622843361061d8560405180606001604052806028815260200161260b602891396001600160a01b038a16600090815260986020908152604080832033845290915290205491906117aa565b611532565b5060019392505050565b60a7818154811061063c57600080fd5b6000918252602090912001546001600160a01b0316905081565b3361065f610a86565b6001600160a01b0316146106855760405162461bcd60e51b815260040161057c90612458565b6001600160a01b0382166000818152609f60209081526040808320805460ff19908116600117909155609e835292819020805460ff87169416841790558051938452908301919091527f86d4f8fb298f6e9d17d23effbe83d19ea38580f78eab76538b74b9b5958186fb91015b60405180910390a15050565b600061070c60655460ff1690565b156107295760405162461bcd60e51b815260040161057c9061242e565b3360008181526098602090815260408083206001600160a01b03881684529091529020546105909190859061061d90866117e4565b600061076c60655460ff1690565b156107895760405162461bcd60e51b815260040161057c9061242e565b6107933383611848565b506001919050565b336107a4610a86565b6001600160a01b0316146107ca5760405162461bcd60e51b815260040161057c90612458565b60a280546001810182556000919091526000805160206126338339815191520180546001600160a01b0319166001600160a01b0392909216919091179055565b33610813610a86565b6001600160a01b0316146108395760405162461bcd60e51b815260040161057c90612458565b610843600061198c565b565b606060a280548060200260200160405190810160405280929190818152602001828054801561054757602002820191906000526020600020905b81546001600160a01b0316815260019091019060200180831161087f575050505050905090565b6001600160a01b038216600090815260a0602052604081205482919060ff1661091c576001600160a01b0384166000908152609f6020526040902054600a9060ff161561090b57506001600160a01b0384166000908152609e602052604090205460ff165b61091584826119de565b9093509150505b9250929050565b600054610100900460ff1661093e5760005460ff1615610942565b303b155b6109a55760405162461bcd60e51b815260206004820152602e60248201527f496e697469616c697a61626c653a20636f6e747261637420697320616c72656160448201526d191e481a5b9a5d1a585b1a5e995960921b606482015260840161057c565b600054610100900460ff161580156109c7576000805461ffff19166101011790555b6109cf611a21565b6109d7611a50565b60408051808201909152600580825264436169726f60d81b6020909201918252610a0391609a916120ac565b5060408051808201909152600580825264434149524f60d81b6020909201918252610a3091609b916120ac565b50609c805461ffff19166101121790556a52b7d2dcc80cd2e4000000610a5581610ac6565b5050609c805461ff00191690558015610a74576000805461ff00191690555b50565b6000610a81610a86565b905090565b6033546001600160a01b031690565b610aa0609d33611a7f565b610aa957600080fd5b610ab38282611848565b5050565b6060609b80546104ce90612589565b600033610ad1610a86565b6001600160a01b031614610af75760405162461bcd60e51b815260040161057c90612458565b609c54610100900460ff16610b4b5760405162461bcd60e51b815260206004820152601a6024820152797468697320746f6b656e206973206e6f74206d696e7461626c6560301b604482015260640161057c565b610793610b56610a86565b83611ab4565b6000610b6a60655460ff1690565b15610b875760405162461bcd60e51b815260040161057c9061242e565b610590338461061d85604051806060016040528060258152602001612699602591393360009081526098602090815260408083206001600160a01b038d16845290915290205491906117aa565b33610bdd610a86565b6001600160a01b031614610c035760405162461bcd60e51b815260040161057c90612458565b60a580546001600160a01b039384166001600160a01b03199182161790915560a68054929093169116179055565b600061059033848461164e565b606060a1805480602002602001604051908101604052809291908181526020018280548015610547576020028201919060005260206000209081546001600160a01b0316815260019091019060200180831161087f575050505050905090565b60a2818154811061063c57600080fd5b33610cb7610a86565b6001600160a01b031614610cdd5760405162461bcd60e51b815260040161057c90612458565b610ce8609d82611b88565b7f9d07a5e8bc4c231ac502679b80b8a035028c1db061437682f637fe1f0a5f093881604051610d1791906122ed565b60405180910390a160005b60a754811015610ab357816001600160a01b031660a78281548110610d5757634e487b7160e01b600052603260045260246000fd5b6000918252602090912001546001600160a01b03161415610e4d5760a78054610d8290600190612572565b81548110610da057634e487b7160e01b600052603260045260246000fd5b60009182526020909120015460a780546001600160a01b039092169183908110610dda57634e487b7160e01b600052603260045260246000fd5b9060005260206000200160006101000a8154816001600160a01b0302191690836001600160a01b0316021790555060a7805480610e2757634e487b7160e01b600052603160045260246000fd5b600082815260209020810160001990810180546001600160a01b03191690550190555050565b80610e57816125c4565b915050610d22565b6000610e6d60655460ff1690565b15610e8a5760405162461bcd60e51b815260040161057c9061242e565b610e95338686611532565b60405163a2d5785360e01b81526001600160a01b0386169063a2d5785390610ec7903390889088908890600401612301565b600060405180830381600087803b158015610ee157600080fd5b505af1158015610ef5573d6000803e3d6000fd5b50600198975050505050505050565b33610f0d610a86565b6001600160a01b031614610f335760405162461bcd60e51b815260040161057c90612458565b6001600160a01b038116600090815260a060205260408120805460ff191690555b60a154811015610ab357816001600160a01b031660a18281548110610f8957634e487b7160e01b600052603260045260246000fd5b6000918252602090912001546001600160a01b031614156110595760a18054610fb490600190612572565b81548110610fd257634e487b7160e01b600052603260045260246000fd5b60009182526020909120015460a180546001600160a01b03909216918390811061100c57634e487b7160e01b600052603260045260246000fd5b9060005260206000200160006101000a8154816001600160a01b0302191690836001600160a01b0316021790555060a1805480610e2757634e487b7160e01b600052603160045260246000fd5b80611063816125c4565b915050610f54565b33611074610a86565b6001600160a01b03161461109a5760405162461bcd60e51b815260040161057c90612458565b6001600160a01b0316600081815260a060205260408120805460ff1916600190811790915560a1805491820181559091527faadc37b8ba5645e62f4546802db221593a94729ccbfc5a97d01365a88f6498780180546001600160a01b0319169091179055565b33611109610a86565b6001600160a01b03161461112f5760405162461bcd60e51b815260040161057c90612458565b60a480546001600160a01b0319166001600160a01b0384169081179091556040805163c45a015560e01b8152905163c45a015591600480820192602092909190829003018186803b15801561118357600080fd5b505afa158015611197573d6000803e3d6000fd5b505050506040513d601f19601f820116820180604052508101906111bb9190612161565b6040516364e329cb60e11b81526001600160a01b038381166004830152306024830152919091169063c9c6539690604401602060405180830381600087803b15801561120657600080fd5b505af115801561121a573d6000803e3d6000fd5b505050506040513d601f19601f8201168201806040525081019061123e9190612161565b60a380546001600160a01b039283166001600160a01b0319918216811790925560a2805460018101909155600080516020612633833981519152018054909116909117905530600090815260986020908152604080832060a45490941683529290522060001990555050565b6000336112b5610a86565b6001600160a01b0316146112db5760405162461bcd60e51b815260040161057c90612458565b6112e6609d83611bd0565b60a780546001810182556000919091527fb68792697ed876af8b4858b316f5b54d81f6861191ad2950c1fde6c3dc7b3dea0180546001600160a01b0319166001600160a01b0384161790556040517f5477578ed8682826ffa786c611540fa04605754d3620316f84e016e78d51d28f906113619084906122ed565b60405180910390a15090565b33611376610a86565b6001600160a01b03161461139c5760405162461bcd60e51b815260040161057c90612458565b6001600160a01b0381166114015760405162461bcd60e51b815260206004820152602660248201527f4f776e61626c653a206e6577206f776e657220697320746865207a65726f206160448201526564647265737360d01b606482015260840161057c565b610a748161198c565b611415609d33611a7f565b61141e57600080fd5b6001600160a01b0383166114445760405162461bcd60e51b815260040161057c906123e9565b6001600160a01b03821661146a5760405162461bcd60e51b815260040161057c9061248d565b6114a781604051806060016040528060268152602001612653602691396001600160a01b03861660009081526097602052604090205491906117aa565b6001600160a01b0380851660009081526097602052604080822093909355908416815220546114d690826117e4565b6001600160a01b038084166000818152609760205260409081902093909355915190851690600080516020612679833981519152906115189085815260200190565b60405180910390a3505050565b6000610594609d83611a7f565b6001600160a01b0383166115945760405162461bcd60e51b8152602060048201526024808201527f42455032303a20617070726f76652066726f6d20746865207a65726f206164646044820152637265737360e01b606482015260840161057c565b6001600160a01b0382166115f55760405162461bcd60e51b815260206004820152602260248201527f42455032303a20617070726f766520746f20746865207a65726f206164647265604482015261737360f01b606482015260840161057c565b6001600160a01b0383811660008181526098602090815260408083209487168084529482529182902085905590518481527f8c5be1e5ebec7d5bd14f71427d1e84f3dd0314c0f7b2291e5b200ac8c7c3b9259101611518565b60655460ff16156116715760405162461bcd60e51b815260040161057c9061242e565b6001600160a01b0383166116975760405162461bcd60e51b815260040161057c906123e9565b6001600160a01b0382166116bd5760405162461bcd60e51b815260040161057c9061248d565b6116fa81604051806060016040528060268152602001612653602691396001600160a01b03861660009081526097602052604090205491906117aa565b6001600160a01b0384166000908152609760205260408120919091556117208484611c1c565b61172a5781611734565b6117348483611d7f565b6001600160a01b03841660009081526097602052604090205490915061175a90826117e4565b6001600160a01b0380851660008181526097602052604090819020939093559151908616906000805160206126798339815191529061179c9086815260200190565b60405180910390a350505050565b600081848411156117ce5760405162461bcd60e51b815260040161057c9190612396565b5060006117db8486612572565b95945050505050565b6000806117f1838561251b565b9050838110156118415760405162461bcd60e51b815260206004820152601b60248201527a536166654d6174683a206164646974696f6e206f766572666c6f7760281b604482015260640161057c565b9392505050565b6001600160a01b0382166118a85760405162461bcd60e51b815260206004820152602160248201527f42455032303a206275726e2066726f6d20746865207a65726f206164647265736044820152607360f81b606482015260840161057c565b6118e5816040518060600160405280602281526020016126be602291396001600160a01b03851660009081526097602052604090205491906117aa565b6001600160a01b03831660009081526097602052604090205560995461190b9082611f1b565b60995560a85461191b90826117e4565b60a8556040518181526000906001600160a01b038416906000805160206126798339815191529060200160405180910390a3604080516001600160a01b0384168152602081018390527fab85194d35c4ea153d0b51f3a304d1d22cb8023e499a6503fb6c28c5864ae90e91016106f2565b603380546001600160a01b038381166001600160a01b0319831681179093556040519116919082907f8be0079c531659141344cd1fd0a4f28419497f9722a3daafe3b4186f6b6457e090600090a35050565b6000806119f960646119f38660ff8716611f5d565b90611fdc565b9050611a1860646119f3611a1160648760ff16611f1b565b8790611f5d565b91509250929050565b600054610100900460ff16611a485760405162461bcd60e51b815260040161057c906124d0565b61084361201b565b600054610100900460ff16611a775760405162461bcd60e51b815260040161057c906124d0565b61084361204b565b60006001600160a01b038216611a9457600080fd5b506001600160a01b03166000908152602091909152604090205460ff1690565b6001600160a01b038216611b0a5760405162461bcd60e51b815260206004820152601f60248201527f42455032303a206d696e7420746f20746865207a65726f206164647265737300604482015260640161057c565b609954611b1790826117e4565b6099556001600160a01b038216600090815260976020526040902054611b3d90826117e4565b6001600160a01b03831660008181526097602052604080822093909355915190919060008051602061267983398151915290611b7c9085815260200190565b60405180910390a35050565b6001600160a01b038116611b9b57600080fd5b611ba58282611a7f565b611bae57600080fd5b6001600160a01b0316600090815260209190915260409020805460ff19169055565b6001600160a01b038116611be357600080fd5b611bed8282611a7f565b15611bf757600080fd5b6001600160a01b0316600090815260209190915260409020805460ff19166001179055565b6001600160a01b038216600090815260a0602052604081205460ff1680611c5b57506001600160a01b038216600090815260a0602052604090205460ff165b15611c6857506000610594565b600060a2805480602002602001604051908101604052809291908181526020018280548015611cc057602002820191906000526020600020905b81546001600160a01b03168152600190910190602001808311611ca2575b5050505050905060005b8151811015611d7457818181518110611cf357634e487b7160e01b600052603260045260246000fd5b60200260200101516001600160a01b0316856001600160a01b03161480611d525750818181518110611d3557634e487b7160e01b600052603260045260246000fd5b60200260200101516001600160a01b0316846001600160a01b0316145b15611d6257600192505050610594565b80611d6c816125c4565b915050611cca565b506000949350505050565b6001600160a01b0382166000908152609f6020526040812054600a9060ff1615611dc157506001600160a01b0383166000908152609e602052604090205460ff165b6000611dd860026119f36064818860ff8816611f5d565b60a5546001600160a01b0316600090815260976020526040902054909150611e0090826117e4565b60a5546001600160a01b039081166000908152609760205260408082209390935560a65490911681522054611e3590826117e4565b60a6546001600160a01b039081166000908152609760209081526040918290209390935560a55490518481529082169291881691600080516020612679833981519152910160405180910390a360a6546040518281526001600160a01b03918216918716906000805160206126798339815191529060200160405180910390a37ff65b9db0f011dccfffefbe3d143fd6d52e538c858a0442072d763a05418b49a68530611ee284806117e4565b604080516001600160a01b0394851681529390921660208401529082015260600160405180910390a16117db611f1882806117e4565b85905b600061184183836040518060400160405280601e81526020017f536166654d6174683a207375627472616374696f6e206f766572666c6f7700008152506117aa565b600082611f6c57506000610594565b6000611f788385612553565b905082611f858583612533565b146118415760405162461bcd60e51b815260206004820152602160248201527f536166654d6174683a206d756c7469706c69636174696f6e206f766572666c6f6044820152607760f81b606482015260840161057c565b600061184183836040518060400160405280601a815260200179536166654d6174683a206469766973696f6e206279207a65726f60301b81525061207e565b600054610100900460ff166120425760405162461bcd60e51b815260040161057c906124d0565b6108433361198c565b600054610100900460ff166120725760405162461bcd60e51b815260040161057c906124d0565b6065805460ff19169055565b6000818361209f5760405162461bcd60e51b815260040161057c9190612396565b5060006117db8486612533565b8280546120b890612589565b90600052602060002090601f0160209004810192826120da5760008555612120565b82601f106120f357805160ff1916838001178555612120565b82800160010185558215612120579182015b82811115612120578251825591602001919060010190612105565b5061212c929150612130565b5090565b5b8082111561212c5760008155600101612131565b600060208284031215612156578081fd5b8135611841816125f5565b600060208284031215612172578081fd5b8151611841816125f5565b6000806040838503121561218f578081fd5b823561219a816125f5565b915060208301356121aa816125f5565b809150509250929050565b6000806000606084860312156121c9578081fd5b83356121d4816125f5565b925060208401356121e4816125f5565b929592945050506040919091013590565b60008060408385031215612207578182fd5b8235612212816125f5565b946020939093013593505050565b60008060408385031215612232578182fd5b823561223d816125f5565b9150602083013560ff811681146121aa578182fd5b60008060008060608587031215612267578081fd5b8435612272816125f5565b93506020850135925060408501356001600160401b0380821115612294578283fd5b818701915087601f8301126122a7578283fd5b8135818111156122b5578384fd5b8860208285010111156122c6578384fd5b95989497505060200194505050565b6000602082840312156122e6578081fd5b5035919050565b6001600160a01b0391909116815260200190565b6001600160a01b0385168152602081018490526060604082018190528101829052818360808301376000818301608090810191909152601f909201601f191601019392505050565b6020808252825182820181905260009190848201906040850190845b8181101561238a5783516001600160a01b031683529284019291840191600101612365565b50909695505050505050565b6000602080835283518082850152825b818110156123c2578581018301518582016040015282016123a6565b818111156123d35783604083870101525b50601f01601f1916929092016040019392505050565b60208082526025908201527f42455032303a207472616e736665722066726f6d20746865207a65726f206164604082015264647265737360d81b606082015260800190565b60208082526010908201526f14185d5cd8589b194e881c185d5cd95960821b604082015260600190565b6020808252818101527f4f776e61626c653a2063616c6c6572206973206e6f7420746865206f776e6572604082015260600190565b60208082526023908201527f42455032303a207472616e7366657220746f20746865207a65726f206164647260408201526265737360e81b606082015260800190565b6020808252602b908201527f496e697469616c697a61626c653a20636f6e7472616374206973206e6f74206960408201526a6e697469616c697a696e6760a81b606082015260800190565b6000821982111561252e5761252e6125df565b500190565b60008261254e57634e487b7160e01b81526012600452602481fd5b500490565b600081600019048311821515161561256d5761256d6125df565b500290565b600082821015612584576125846125df565b500390565b600181811c9082168061259d57607f821691505b602082108114156125be57634e487b7160e01b600052602260045260246000fd5b50919050565b60006000198214156125d8576125d86125df565b5060010190565b634e487b7160e01b600052601160045260246000fd5b6001600160a01b0381168114610a7457600080fdfe42455032303a207472616e7366657220616d6f756e74206578636565647320616c6c6f77616e6365aaf4f58de99300cfadc4585755f376d5fa747d5bc561d5bd9d710de1f91bf42d42455032303a207472616e7366657220616d6f756e7420657863656564732062616c616e6365ddf252ad1be2c89b69c2b068fc378daa952ba7f163c4a11628f55a4df523b3ef42455032303a2064656372656173656420616c6c6f77616e63652062656c6f77207a65726f42455032303a206275726e20616d6f756e7420657863656564732062616c616e6365a2646970667358221220d6d6388c6a6e9b877a521db28dc4f277eb6faac4ccacd1fc123a0d295c13693364736f6c63430008040033",
  "linkReferences": {},
  "deployedLinkReferences": {}
}