{
  "_format": "hh-sol-artifact-1",
  "contractName": "Timelock",
  "sourceName": "contracts/core/Timelock.sol",
  "abi": [
    {
      "inputs": [
        {
          "internalType": "address",
          "name": "admin_",
          "type": "address"
        },
        {
          "internalType": "uint256",
          "name": "delay_",
          "type": "uint256"
        }
      ],
      "stateMutability": "nonpayable",
      "type": "constructor"
    },
    {
      "anonymous": false,
      "inputs": [
        {
          "indexed": true,
          "internalType": "bytes32",
          "name": "txHash",
          "type": "bytes32"
        },
        {
          "indexed": true,
          "internalType": "address",
          "name": "target",
          "type": "address"
        },
        {
          "indexed": false,
          "internalType": "uint256",
          "name": "value",
          "type": "uint256"
        },
        {
          "indexed": false,
          "internalType": "string",
          "name": "signature",
          "type": "string"
        },
        {
          "indexed": false,
          "internalType": "bytes",
          "name": "data",
          "type": "bytes"
        },
        {
          "indexed": false,
          "internalType": "uint256",
          "name": "eta",
          "type": "uint256"
        }
      ],
      "name": "CancelTransaction",
      "type": "event"
    },
    {
      "anonymous": false,
      "inputs": [
        {
          "indexed": true,
          "internalType": "bytes32",
          "name": "txHash",
          "type": "bytes32"
        },
        {
          "indexed": true,
          "internalType": "address",
          "name": "target",
          "type": "address"
        },
        {
          "indexed": false,
          "internalType": "uint256",
          "name": "value",
          "type": "uint256"
        },
        {
          "indexed": false,
          "internalType": "string",
          "name": "signature",
          "type": "string"
        },
        {
          "indexed": false,
          "internalType": "bytes",
          "name": "data",
          "type": "bytes"
        },
        {
          "indexed": false,
          "internalType": "uint256",
          "name": "eta",
          "type": "uint256"
        }
      ],
      "name": "ExecuteTransaction",
      "type": "event"
    },
    {
      "anonymous": false,
      "inputs": [
        {
          "indexed": true,
          "internalType": "address",
          "name": "newAdmin",
          "type": "address"
        }
      ],
      "name": "NewAdmin",
      "type": "event"
    },
    {
      "anonymous": false,
      "inputs": [
        {
          "indexed": true,
          "internalType": "uint256",
          "name": "newDelay",
          "type": "uint256"
        }
      ],
      "name": "NewDelay",
      "type": "event"
    },
    {
      "anonymous": false,
      "inputs": [
        {
          "indexed": true,
          "internalType": "address",
          "name": "newPendingAdmin",
          "type": "address"
        }
      ],
      "name": "NewPendingAdmin",
      "type": "event"
    },
    {
      "anonymous": false,
      "inputs": [
        {
          "indexed": true,
          "internalType": "bytes32",
          "name": "txHash",
          "type": "bytes32"
        },
        {
          "indexed": true,
          "internalType": "address",
          "name": "target",
          "type": "address"
        },
        {
          "indexed": false,
          "internalType": "uint256",
          "name": "value",
          "type": "uint256"
        },
        {
          "indexed": false,
          "internalType": "string",
          "name": "signature",
          "type": "string"
        },
        {
          "indexed": false,
          "internalType": "bytes",
          "name": "data",
          "type": "bytes"
        },
        {
          "indexed": false,
          "internalType": "uint256",
          "name": "eta",
          "type": "uint256"
        }
      ],
      "name": "QueueTransaction",
      "type": "event"
    },
    {
      "inputs": [],
      "name": "GRACE_PERIOD",
      "outputs": [
        {
          "internalType": "uint256",
          "name": "",
          "type": "uint256"
        }
      ],
      "stateMutability": "view",
      "type": "function"
    },
    {
      "inputs": [],
      "name": "MAXIMUM_DELAY",
      "outputs": [
        {
          "internalType": "uint256",
          "name": "",
          "type": "uint256"
        }
      ],
      "stateMutability": "view",
      "type": "function"
    },
    {
      "inputs": [],
      "name": "MINIMUM_DELAY",
      "outputs": [
        {
          "internalType": "uint256",
          "name": "",
          "type": "uint256"
        }
      ],
      "stateMutability": "view",
      "type": "function"
    },
    {
      "inputs": [],
      "name": "acceptAdmin",
      "outputs": [],
      "stateMutability": "nonpayable",
      "type": "function"
    },
    {
      "inputs": [],
      "name": "admin",
      "outputs": [
        {
          "internalType": "address",
          "name": "",
          "type": "address"
        }
      ],
      "stateMutability": "view",
      "type": "function"
    },
    {
      "inputs": [],
      "name": "admin_initialized",
      "outputs": [
        {
          "internalType": "bool",
          "name": "",
          "type": "bool"
        }
      ],
      "stateMutability": "view",
      "type": "function"
    },
    {
      "inputs": [
        {
          "internalType": "address",
          "name": "target",
          "type": "address"
        },
        {
          "internalType": "uint256",
          "name": "value",
          "type": "uint256"
        },
        {
          "internalType": "string",
          "name": "signature",
          "type": "string"
        },
        {
          "internalType": "bytes",
          "name": "data",
          "type": "bytes"
        },
        {
          "internalType": "uint256",
          "name": "eta",
          "type": "uint256"
        }
      ],
      "name": "cancelTransaction",
      "outputs": [],
      "stateMutability": "nonpayable",
      "type": "function"
    },
    {
      "inputs": [],
      "name": "delay",
      "outputs": [
        {
          "internalType": "uint256",
          "name": "",
          "type": "uint256"
        }
      ],
      "stateMutability": "view",
      "type": "function"
    },
    {
      "inputs": [
        {
          "internalType": "address",
          "name": "target",
          "type": "address"
        },
        {
          "internalType": "uint256",
          "name": "value",
          "type": "uint256"
        },
        {
          "internalType": "string",
          "name": "signature",
          "type": "string"
        },
        {
          "internalType": "bytes",
          "name": "data",
          "type": "bytes"
        },
        {
          "internalType": "uint256",
          "name": "eta",
          "type": "uint256"
        }
      ],
      "name": "executeTransaction",
      "outputs": [
        {
          "internalType": "bytes",
          "name": "",
          "type": "bytes"
        }
      ],
      "stateMutability": "payable",
      "type": "function"
    },
    {
      "inputs": [],
      "name": "pendingAdmin",
      "outputs": [
        {
          "internalType": "address",
          "name": "",
          "type": "address"
        }
      ],
      "stateMutability": "view",
      "type": "function"
    },
    {
      "inputs": [
        {
          "internalType": "address",
          "name": "target",
          "type": "address"
        },
        {
          "internalType": "uint256",
          "name": "value",
          "type": "uint256"
        },
        {
          "internalType": "string",
          "name": "signature",
          "type": "string"
        },
        {
          "internalType": "bytes",
          "name": "data",
          "type": "bytes"
        },
        {
          "internalType": "uint256",
          "name": "eta",
          "type": "uint256"
        }
      ],
      "name": "queueTransaction",
      "outputs": [
        {
          "internalType": "bytes32",
          "name": "",
          "type": "bytes32"
        }
      ],
      "stateMutability": "nonpayable",
      "type": "function"
    },
    {
      "inputs": [
        {
          "internalType": "bytes32",
          "name": "",
          "type": "bytes32"
        }
      ],
      "name": "queuedTransactions",
      "outputs": [
        {
          "internalType": "bool",
          "name": "",
          "type": "bool"
        }
      ],
      "stateMutability": "view",
      "type": "function"
    },
    {
      "inputs": [
        {
          "internalType": "uint256",
          "name": "delay_",
          "type": "uint256"
        }
      ],
      "name": "setDelay",
      "outputs": [],
      "stateMutability": "nonpayable",
      "type": "function"
    },
    {
      "inputs": [
        {
          "internalType": "address",
          "name": "pendingAdmin_",
          "type": "address"
        }
      ],
      "name": "setPendingAdmin",
      "outputs": [],
      "stateMutability": "nonpayable",
      "type": "function"
    },
    {
      "stateMutability": "payable",
      "type": "receive"
    }
  ],
  "bytecode": "0x608060405234801561001057600080fd5b506040516111a53803806111a583398101604081905261002f91610134565b61546081101561009a5760405162461bcd60e51b8152602060048201526037602482015260008051602061118583398151915260448201527f7420657863656564206d696e696d756d2064656c61792e00000000000000000060648201526084015b60405180910390fd5b62278d008111156101015760405162461bcd60e51b815260206004820152603b602482015260008051602061118583398151915260448201527f74206e6f7420657863656564206d6178696d756d2064656c61792e00000000006064820152608401610091565b600080546001600160a01b0319166001600160a01b0393909316929092179091556002556003805460ff1916905561016c565b60008060408385031215610146578182fd5b82516001600160a01b038116811461015c578283fd5b6020939093015192949293505050565b61100a8061017b6000396000f3fe6080604052600436106100b15760003560e01c80630825f38f146100bd5780630e18b681146100e657806326782247146100fd5780633a66f901146101355780634dd18bf514610163578063591fcdfe146101835780636a42b8f8146101a35780636fc1f57e146101b95780637d645fab146101e3578063b1b43ae5146101fa578063c1a287e214610210578063e177246e14610227578063f2b0653714610247578063f851a4401461027757600080fd5b366100b857005b600080fd5b6100d06100cb366004610d72565b610297565b6040516100dd9190610efa565b60405180910390f35b3480156100f257600080fd5b506100fb610603565b005b34801561010957600080fd5b5060015461011d906001600160a01b031681565b6040516001600160a01b0390911681526020016100dd565b34801561014157600080fd5b50610155610150366004610d72565b6106c7565b6040519081526020016100dd565b34801561016f57600080fd5b506100fb61017e366004610d58565b61087a565b34801561018f57600080fd5b506100fb61019e366004610d72565b6109d0565b3480156101af57600080fd5b5061015560025481565b3480156101c557600080fd5b506003546101d39060ff1681565b60405190151581526020016100dd565b3480156101ef57600080fd5b5061015562278d0081565b34801561020657600080fd5b5061015561546081565b34801561021c57600080fd5b506101556212750081565b34801561023357600080fd5b506100fb610242366004610e1d565b610ae4565b34801561025357600080fd5b506101d3610262366004610e1d565b60046020526000908152604090205460ff1681565b34801561028357600080fd5b5060005461011d906001600160a01b031681565b6000546060906001600160a01b0316331461031a5760405162461bcd60e51b815260206004820152603860248201527f54696d656c6f636b3a3a657865637574655472616e73616374696f6e3a20436160448201527736361036bab9ba1031b7b6b290333937b69030b236b4b71760411b60648201526084015b60405180910390fd5b60008686868686604051602001610335959493929190610eae565b60408051601f1981840301815291815281516020928301206000818152600490935291205490915060ff166103c05760405162461bcd60e51b815260206004820152603d6024820152600080516020610fb583398151915260448201527f616e73616374696f6e206861736e2774206265656e207175657565642e0000006064820152608401610311565b824210156104325760405162461bcd60e51b81526020600482015260456024820152600080516020610fb583398151915260448201527f616e73616374696f6e206861736e2774207375727061737365642074696d65206064820152643637b1b59760d91b608482015260a401610311565b61043f8362127500610c63565b4211156104985760405162461bcd60e51b81526020600482015260336024820152600080516020610fb583398151915260448201527230b739b0b1ba34b7b71034b99039ba30b6329760691b6064820152608401610311565b6000818152600460205260409020805460ff1916905584516060906104be5750836104ea565b8580519060200120856040516020016104d8929190610e61565b60405160208183030381529060405290505b600080896001600160a01b031689846040516105069190610e92565b60006040518083038185875af1925050503d8060008114610543576040519150601f19603f3d011682016040523d82523d6000602084013e610548565b606091505b5091509150816105ae5760405162461bcd60e51b815260206004820152603d6024820152600080516020610fb583398151915260448201527f616e73616374696f6e20657865637574696f6e2072657665727465642e0000006064820152608401610311565b896001600160a01b0316847fa560e3198060a2f10670c1ec5b403077ea6ae93ca8de1c32b451dc1a943cd6e78b8b8b8b6040516105ee9493929190610f0d565b60405180910390a39998505050505050505050565b6001546001600160a01b0316331461067e5760405162461bcd60e51b815260206004820152603860248201527f54696d656c6f636b3a3a61636365707441646d696e3a2043616c6c206d7573746044820152771031b7b6b290333937b6903832b73234b733a0b236b4b71760411b6064820152608401610311565b60008054336001600160a01b0319918216811783556001805490921690915560405190917f71614071b88dee5e0b2ae578a9dd7b2ebbe9ae832ba419dc0242cd065a290b6c91a2565b600080546001600160a01b031633146107415760405162461bcd60e51b815260206004820152603660248201527f54696d656c6f636b3a3a71756575655472616e73616374696f6e3a2043616c6c6044820152751036bab9ba1031b7b6b290333937b69030b236b4b71760511b6064820152608401610311565b61075460025461074e4290565b90610c63565b8210156107db5760405162461bcd60e51b815260206004820152604960248201527f54696d656c6f636b3a3a71756575655472616e73616374696f6e3a204573746960448201527f6d6174656420657865637574696f6e20626c6f636b206d757374207361746973606482015268333c903232b630bc9760b91b608482015260a401610311565b600086868686866040516020016107f6959493929190610eae565b60408051601f19818403018152828252805160209182012060008181526004909252919020805460ff1916600117905591506001600160a01b0388169082907f76e2796dc3a81d57b0e8504b647febcbeeb5f4af818e164f11eef8131a6a763f90610868908a908a908a908a90610f0d565b60405180910390a39695505050505050565b60035460ff16156108fa573330146108f55760405162461bcd60e51b815260206004820152603860248201527f54696d656c6f636b3a3a73657450656e64696e6741646d696e3a2043616c6c2060448201527736bab9ba1031b7b6b290333937b6902a34b6b2b637b1b59760411b6064820152608401610311565b610986565b6000546001600160a01b031633146109785760405162461bcd60e51b815260206004820152603b60248201527f54696d656c6f636b3a3a73657450656e64696e6741646d696e3a20466972737460448201527a1031b0b6361036bab9ba1031b7b6b290333937b69030b236b4b71760291b6064820152608401610311565b6003805460ff191660011790555b600180546001600160a01b0319166001600160a01b0383169081179091556040517f69d78e38a01985fbb1462961809b4b2d65531bc93b2b94037f3334b82ca4a75690600090a250565b6000546001600160a01b03163314610a4a5760405162461bcd60e51b815260206004820152603760248201527f54696d656c6f636b3a3a63616e63656c5472616e73616374696f6e3a2043616c604482015276361036bab9ba1031b7b6b290333937b69030b236b4b71760491b6064820152608401610311565b60008585858585604051602001610a65959493929190610eae565b60408051601f19818403018152828252805160209182012060008181526004909252919020805460ff1916905591506001600160a01b0387169082907f2fffc091a501fd91bfbff27141450d3acb40fb8e6d8382b243ec7a812a3aaf8790610ad4908990899089908990610f0d565b60405180910390a3505050505050565b333014610b4d5760405162461bcd60e51b815260206004820152603160248201527f54696d656c6f636b3a3a73657444656c61793a2043616c6c206d75737420636f60448201527036b290333937b6902a34b6b2b637b1b59760791b6064820152608401610311565b615460811015610bbc5760405162461bcd60e51b815260206004820152603460248201527f54696d656c6f636b3a3a73657444656c61793a2044656c6179206d75737420656044820152733c31b2b2b21036b4b734b6bab6903232b630bc9760611b6064820152608401610311565b62278d00811115610c305760405162461bcd60e51b815260206004820152603860248201527f54696d656c6f636b3a3a73657444656c61793a2044656c6179206d757374206e60448201527737ba1032bc31b2b2b21036b0bc34b6bab6903232b630bc9760411b6064820152608401610311565b600281905560405181907f948b1f6a42ee138b7e34058ba85a37f716d55ff25ff05a763f15bed6a04c8d2c90600090a250565b600080610c708385610f4a565b905083811015610cc05760405162461bcd60e51b815260206004820152601b60248201527a536166654d6174683a206164646974696f6e206f766572666c6f7760281b6044820152606401610311565b9392505050565b60006001600160401b0380841115610ce157610ce1610f9e565b604051601f8501601f19908116603f01168101908282118183101715610d0957610d09610f9e565b81604052809350858152868686011115610d2257600080fd5b858560208301376000602087830101525050509392505050565b80356001600160a01b0381168114610d5357600080fd5b919050565b600060208284031215610d69578081fd5b610cc082610d3c565b600080600080600060a08688031215610d89578081fd5b610d9286610d3c565b94506020860135935060408601356001600160401b0380821115610db4578283fd5b818801915088601f830112610dc7578283fd5b610dd689833560208501610cc7565b94506060880135915080821115610deb578283fd5b508601601f81018813610dfc578182fd5b610e0b88823560208401610cc7565b95989497509295608001359392505050565b600060208284031215610e2e578081fd5b5035919050565b60008151808452610e4d816020860160208601610f6e565b601f01601f19169290920160200192915050565b6001600160e01b0319831681528151600090610e84816004850160208701610f6e565b919091016004019392505050565b60008251610ea4818460208701610f6e565b9190910192915050565b60018060a01b038616815284602082015260a060408201526000610ed560a0830186610e35565b8281036060840152610ee78186610e35565b9150508260808301529695505050505050565b602081526000610cc06020830184610e35565b848152608060208201526000610f266080830186610e35565b8281036040840152610f388186610e35565b91505082606083015295945050505050565b60008219821115610f6957634e487b7160e01b81526011600452602481fd5b500190565b60005b83811015610f89578181015183820152602001610f71565b83811115610f98576000848401525b50505050565b634e487b7160e01b600052604160045260246000fdfe54696d656c6f636b3a3a657865637574655472616e73616374696f6e3a205472a2646970667358221220e66c53959f6b305f062bbb1aa69c10ca12b39434b8de2a9bbb01eea1854d997e64736f6c6343000804003354696d656c6f636b3a3a636f6e7374727563746f723a2044656c6179206d7573",
  "linkReferences": {},
  "deployedLinkReferences": {}
}