{
  "_format": "hh-sol-artifact-1",
  "contractName": "WBNB",
  "sourceName": "contracts/token/WBNB.sol",
  "abi": [
    {
      "anonymous": false,
      "inputs": [
        {
          "indexed": true,
          "internalType": "address",
          "name": "src",
          "type": "address"
        },
        {
          "indexed": true,
          "internalType": "address",
          "name": "guy",
          "type": "address"
        },
        {
          "indexed": false,
          "internalType": "uint256",
          "name": "wad",
          "type": "uint256"
        }
      ],
      "name": "Approval",
      "type": "event"
    },
    {
      "anonymous": false,
      "inputs": [
        {
          "indexed": true,
          "internalType": "address",
          "name": "dst",
          "type": "address"
        },
        {
          "indexed": false,
          "internalType": "uint256",
          "name": "wad",
          "type": "uint256"
        }
      ],
      "name": "Deposit",
      "type": "event"
    },
    {
      "anonymous": false,
      "inputs": [
        {
          "indexed": true,
          "internalType": "address",
          "name": "src",
          "type": "address"
        },
        {
          "indexed": true,
          "internalType": "address",
          "name": "dst",
          "type": "address"
        },
        {
          "indexed": false,
          "internalType": "uint256",
          "name": "wad",
          "type": "uint256"
        }
      ],
      "name": "Transfer",
      "type": "event"
    },
    {
      "anonymous": false,
      "inputs": [
        {
          "indexed": true,
          "internalType": "address",
          "name": "src",
          "type": "address"
        },
        {
          "indexed": false,
          "internalType": "uint256",
          "name": "wad",
          "type": "uint256"
        }
      ],
      "name": "Withdrawal",
      "type": "event"
    },
    {
      "inputs": [
        {
          "internalType": "address",
          "name": "",
          "type": "address"
        },
        {
          "internalType": "address",
          "name": "",
          "type": "address"
        }
      ],
      "name": "allowance",
      "outputs": [
        {
          "internalType": "uint256",
          "name": "",
          "type": "uint256"
        }
      ],
      "stateMutability": "view",
      "type": "function"
    },
    {
      "inputs": [
        {
          "internalType": "address",
          "name": "guy",
          "type": "address"
        },
        {
          "internalType": "uint256",
          "name": "wad",
          "type": "uint256"
        }
      ],
      "name": "approve",
      "outputs": [
        {
          "internalType": "bool",
          "name": "",
          "type": "bool"
        }
      ],
      "stateMutability": "nonpayable",
      "type": "function"
    },
    {
      "inputs": [
        {
          "internalType": "address",
          "name": "",
          "type": "address"
        }
      ],
      "name": "balanceOf",
      "outputs": [
        {
          "internalType": "uint256",
          "name": "",
          "type": "uint256"
        }
      ],
      "stateMutability": "view",
      "type": "function"
    },
    {
      "inputs": [],
      "name": "decimals",
      "outputs": [
        {
          "internalType": "uint8",
          "name": "",
          "type": "uint8"
        }
      ],
      "stateMutability": "view",
      "type": "function"
    },
    {
      "inputs": [],
      "name": "deposit",
      "outputs": [],
      "stateMutability": "payable",
      "type": "function"
    },
    {
      "inputs": [],
      "name": "name",
      "outputs": [
        {
          "internalType": "string",
          "name": "",
          "type": "string"
        }
      ],
      "stateMutability": "view",
      "type": "function"
    },
    {
      "inputs": [],
      "name": "symbol",
      "outputs": [
        {
          "internalType": "string",
          "name": "",
          "type": "string"
        }
      ],
      "stateMutability": "view",
      "type": "function"
    },
    {
      "inputs": [],
      "name": "totalSupply",
      "outputs": [
        {
          "internalType": "uint256",
          "name": "",
          "type": "uint256"
        }
      ],
      "stateMutability": "view",
      "type": "function"
    },
    {
      "inputs": [
        {
          "internalType": "address",
          "name": "dst",
          "type": "address"
        },
        {
          "internalType": "uint256",
          "name": "wad",
          "type": "uint256"
        }
      ],
      "name": "transfer",
      "outputs": [
        {
          "internalType": "bool",
          "name": "",
          "type": "bool"
        }
      ],
      "stateMutability": "nonpayable",
      "type": "function"
    },
    {
      "inputs": [
        {
          "internalType": "address",
          "name": "src",
          "type": "address"
        },
        {
          "internalType": "address",
          "name": "dst",
          "type": "address"
        },
        {
          "internalType": "uint256",
          "name": "wad",
          "type": "uint256"
        }
      ],
      "name": "transferFrom",
      "outputs": [
        {
          "internalType": "bool",
          "name": "",
          "type": "bool"
        }
      ],
      "stateMutability": "nonpayable",
      "type": "function"
    },
    {
      "inputs": [
        {
          "internalType": "uint256",
          "name": "wad",
          "type": "uint256"
        }
      ],
      "name": "withdraw",
      "outputs": [],
      "stateMutability": "nonpayable",
      "type": "function"
    },
    {
      "stateMutability": "payable",
      "type": "receive"
    }
  ],
  "bytecode": "0x60c0604052600b60808190526a2bb930b83832b21021272160a91b60a090815261002c9160009190610078565b50604080518082019091526004808252632ba1272160e11b602090920191825261005891600191610078565b506002805460ff1916601217905534801561007257600080fd5b5061014c565b82805461008490610111565b90600052602060002090601f0160209004810192826100a657600085556100ec565b82601f106100bf57805160ff19168380011785556100ec565b828001600101855582156100ec579182015b828111156100ec5782518255916020019190600101906100d1565b506100f89291506100fc565b5090565b5b808211156100f857600081556001016100fd565b600181811c9082168061012557607f821691505b6020821081141561014657634e487b7160e01b600052602260045260246000fd5b50919050565b6107b78061015b6000396000f3fe6080604052600436106100905760003560e01c806306fdde03146100a4578063095ea7b3146100cf57806318160ddd146100ff57806323b872dd1461011c5780632e1a7d4d1461013c578063313ce5671461015c57806370a082311461018857806395d89b41146101b5578063a9059cbb146101ca578063d0e30db0146101ea578063dd62ed3e146101f257600080fd5b3661009f5761009d61022a565b005b600080fd5b3480156100b057600080fd5b506100b9610285565b6040516100c691906106ae565b60405180910390f35b3480156100db57600080fd5b506100ef6100ea36600461066d565b610313565b60405190151581526020016100c6565b34801561010b57600080fd5b50475b6040519081526020016100c6565b34801561012857600080fd5b506100ef610137366004610632565b61037f565b34801561014857600080fd5b5061009d610157366004610696565b610503565b34801561016857600080fd5b506002546101769060ff1681565b60405160ff90911681526020016100c6565b34801561019457600080fd5b5061010e6101a33660046105e6565b60036020526000908152604090205481565b3480156101c157600080fd5b506100b96105a9565b3480156101d657600080fd5b506100ef6101e536600461066d565b6105b6565b61009d61022a565b3480156101fe57600080fd5b5061010e61020d366004610600565b600460209081526000928352604080842090915290825290205481565b3360009081526003602052604081208054349290610249908490610701565b909155505060405134815233907fe1fffcc4923d04b559f4d29a8bfc6cda04eb5b0d3c460751c2402c5c5cc9109c9060200160405180910390a2565b6000805461029290610730565b80601f01602080910402602001604051908101604052809291908181526020018280546102be90610730565b801561030b5780601f106102e05761010080835404028352916020019161030b565b820191906000526020600020905b8154815290600101906020018083116102ee57829003601f168201915b505050505081565b3360008181526004602090815260408083206001600160a01b038716808552925280832085905551919290917f8c5be1e5ebec7d5bd14f71427d1e84f3dd0314c0f7b2291e5b200ac8c7c3b9259061036e9086815260200190565b60405180910390a350600192915050565b6001600160a01b0383166000908152600360205260408120548211156103a457600080fd5b6001600160a01b03841633148015906103e257506001600160a01b038416600090815260046020908152604080832033845290915290205460001914155b15610450576001600160a01b038416600090815260046020908152604080832033845290915290205482111561041757600080fd5b6001600160a01b03841660009081526004602090815260408083203384529091528120805484929061044a908490610719565b90915550505b6001600160a01b03841660009081526003602052604081208054849290610478908490610719565b90915550506001600160a01b038316600090815260036020526040812080548492906104a5908490610701565b92505081905550826001600160a01b0316846001600160a01b03167fddf252ad1be2c89b69c2b068fc378daa952ba7f163c4a11628f55a4df523b3ef846040516104f191815260200190565b60405180910390a35060019392505050565b3360009081526003602052604090205481111561051f57600080fd5b336000908152600360205260408120805483929061053e908490610719565b9091555050604051339082156108fc029083906000818181858888f19350505050158015610570573d6000803e3d6000fd5b5060405181815233907f7fcf532c15f0a6db0bd6d0e038bea71d30d808c7d98cb3bf7268a95bf5081b659060200160405180910390a250565b6001805461029290610730565b60006105c333848461037f565b9392505050565b80356001600160a01b03811681146105e157600080fd5b919050565b6000602082840312156105f7578081fd5b6105c3826105ca565b60008060408385031215610612578081fd5b61061b836105ca565b9150610629602084016105ca565b90509250929050565b600080600060608486031215610646578081fd5b61064f846105ca565b925061065d602085016105ca565b9150604084013590509250925092565b6000806040838503121561067f578182fd5b610688836105ca565b946020939093013593505050565b6000602082840312156106a7578081fd5b5035919050565b6000602080835283518082850152825b818110156106da578581018301518582016040015282016106be565b818111156106eb5783604083870101525b50601f01601f1916929092016040019392505050565b600082198211156107145761071461076b565b500190565b60008282101561072b5761072b61076b565b500390565b600181811c9082168061074457607f821691505b6020821081141561076557634e487b7160e01b600052602260045260246000fd5b50919050565b634e487b7160e01b600052601160045260246000fdfea264697066735822122058dfe650c46acc4335b3a2d48abe7230b85decd40fa89600478d24b7030fe27e64736f6c63430008040033",
  "linkReferences": {},
  "deployedLinkReferences": {}
}